{
	"demo1/21FunctionMod.sol": {
		"FunMod": {
			"abi": [
				{
					"inputs": [],
					"name": "count",
					"outputs": [
						{
							"internalType": "uint256",
							"name": "",
							"type": "uint256"
						}
					],
					"stateMutability": "view",
					"type": "function"
				},
				{
					"inputs": [],
					"name": "dec",
					"outputs": [],
					"stateMutability": "nonpayable",
					"type": "function"
				},
				{
					"inputs": [
						{
							"internalType": "uint256",
							"name": "i",
							"type": "uint256"
						}
					],
					"name": "dec1",
					"outputs": [],
					"stateMutability": "nonpayable",
					"type": "function"
				},
				{
					"inputs": [],
					"name": "dec2",
					"outputs": [],
					"stateMutability": "nonpayable",
					"type": "function"
				},
				{
					"inputs": [],
					"name": "inc",
					"outputs": [],
					"stateMutability": "nonpayable",
					"type": "function"
				},
				{
					"inputs": [
						{
							"internalType": "uint256",
							"name": "i",
							"type": "uint256"
						}
					],
					"name": "inc1",
					"outputs": [],
					"stateMutability": "nonpayable",
					"type": "function"
				},
				{
					"inputs": [],
					"name": "inc2",
					"outputs": [],
					"stateMutability": "nonpayable",
					"type": "function"
				}
			],
			"devdoc": {
				"kind": "dev",
				"methods": {},
				"version": 1
			},
			"evm": {
				"assembly": "    /* \"demo1/21FunctionMod.sol\":60:817  contract FunMod {... */\n  mstore(0x40, 0x80)\n    /* \"demo1/21FunctionMod.sol\":101:103  11 */\n  0x0b\n    /* \"demo1/21FunctionMod.sol\":83:103  uint public count=11 */\n  0x00\n  sstore\n    /* \"demo1/21FunctionMod.sol\":60:817  contract FunMod {... */\n  callvalue\n  dup1\n  iszero\n  tag_1\n  jumpi\n  revert(0x00, 0x00)\ntag_1:\n  pop\n  dataSize(sub_0)\n  dup1\n  dataOffset(sub_0)\n  0x00\n  codecopy\n  0x00\n  return\nstop\n\nsub_0: assembly {\n        /* \"demo1/21FunctionMod.sol\":60:817  contract FunMod {... */\n      mstore(0x40, 0x80)\n      callvalue\n      dup1\n      iszero\n      tag_1\n      jumpi\n      revert(0x00, 0x00)\n    tag_1:\n      pop\n      jumpi(tag_2, lt(calldatasize, 0x04))\n      shr(0xe0, calldataload(0x00))\n      dup1\n      0x71c9f31c\n      gt\n      tag_10\n      jumpi\n      dup1\n      0x71c9f31c\n      eq\n      tag_6\n      jumpi\n      dup1\n      0x720d0b6f\n      eq\n      tag_7\n      jumpi\n      dup1\n      0xa18f7a4e\n      eq\n      tag_8\n      jumpi\n      dup1\n      0xb3bcfa82\n      eq\n      tag_9\n      jumpi\n      revert(0x00, 0x00)\n    tag_10:\n      dup1\n      0x06661abd\n      eq\n      tag_3\n      jumpi\n      dup1\n      0x371303c0\n      eq\n      tag_4\n      jumpi\n      dup1\n      0x552350aa\n      eq\n      tag_5\n      jumpi\n    tag_2:\n      revert(0x00, 0x00)\n        /* \"demo1/21FunctionMod.sol\":83:103  uint public count=11 */\n    tag_3:\n      tag_11\n      sload(0x00)\n      dup2\n      jump\n    tag_11:\n      mload(0x40)\n        /* \"#utility.yul\":160:185   */\n      swap1\n      dup2\n      mstore\n        /* \"#utility.yul\":148:150   */\n      0x20\n        /* \"#utility.yul\":133:151   */\n      add\n        /* \"demo1/21FunctionMod.sol\":83:103  uint public count=11 */\n      mload(0x40)\n      dup1\n      swap2\n      sub\n      swap1\n      return\n        /* \"demo1/21FunctionMod.sol\":209:269  function inc()external whereNoti{... */\n    tag_4:\n      tag_15\n      tag_16\n      jump\t// in\n    tag_15:\n      stop\n        /* \"demo1/21FunctionMod.sol\":750:814  function dec2()external whereNoti2(){... */\n    tag_5:\n      tag_15\n      tag_18\n      jump\t// in\n        /* \"demo1/21FunctionMod.sol\":680:744  function inc2()external whereNoti2(){... */\n    tag_6:\n      tag_15\n      tag_20\n      jump\t// in\n        /* \"demo1/21FunctionMod.sol\":510:581  function dec1(uint i)external whereNoti1(i){... */\n    tag_7:\n      tag_15\n      tag_22\n      calldatasize\n      0x04\n      tag_23\n      jump\t// in\n    tag_22:\n      tag_24\n      jump\t// in\n        /* \"demo1/21FunctionMod.sol\":433:504  function inc1(uint i)external whereNoti1(i){... */\n    tag_8:\n      tag_15\n      tag_26\n      calldatasize\n      0x04\n      tag_23\n      jump\t// in\n    tag_26:\n      tag_27\n      jump\t// in\n        /* \"demo1/21FunctionMod.sol\":275:335  function dec()external whereNoti{... */\n    tag_9:\n      tag_15\n      tag_29\n      jump\t// in\n        /* \"demo1/21FunctionMod.sol\":209:269  function inc()external whereNoti{... */\n    tag_16:\n        /* \"demo1/21FunctionMod.sol\":157:159  10 */\n      0x0a\n        /* \"demo1/21FunctionMod.sol\":151:156  count */\n      sload(0x00)\n        /* \"demo1/21FunctionMod.sol\":151:159  count>10 */\n      gt\n        /* \"demo1/21FunctionMod.sol\":143:173  require(count>10, \"count<=10\") */\n      tag_31\n      jumpi\n      mload(0x40)\n      shl(0xe5, 0x461bcd)\n      dup2\n      mstore\n      0x04\n      add\n      tag_32\n      swap1\n      tag_33\n      jump\t// in\n    tag_32:\n      mload(0x40)\n      dup1\n      swap2\n      sub\n      swap1\n      revert\n    tag_31:\n        /* \"demo1/21FunctionMod.sol\":260:261  1 */\n      0x01\n        /* \"demo1/21FunctionMod.sol\":252:257  count */\n      0x00\n      0x00\n        /* \"demo1/21FunctionMod.sol\":252:261  count +=1 */\n      dup3\n      dup3\n      sload\n      tag_35\n      swap2\n      swap1\n      tag_36\n      jump\t// in\n    tag_35:\n      swap1\n      swap2\n      sstore\n      pop\n      pop\n        /* \"demo1/21FunctionMod.sol\":209:269  function inc()external whereNoti{... */\n      jump\t// out\n        /* \"demo1/21FunctionMod.sol\":750:814  function dec2()external whereNoti2(){... */\n    tag_18:\n        /* \"demo1/21FunctionMod.sol\":630:633  100 */\n      0x64\n        /* \"demo1/21FunctionMod.sol\":621:626  count */\n      0x00\n      0x00\n        /* \"demo1/21FunctionMod.sol\":621:633  count += 100 */\n      dup3\n      dup3\n      sload\n      tag_38\n      swap2\n      swap1\n      tag_36\n      jump\t// in\n    tag_38:\n      swap3\n      pop\n      pop\n      dup2\n      swap1\n      sstore\n      pop\n        /* \"demo1/21FunctionMod.sol\":805:806  1 */\n      0x01\n        /* \"demo1/21FunctionMod.sol\":797:802  count */\n      0x00\n      0x00\n        /* \"demo1/21FunctionMod.sol\":797:806  count -=1 */\n      dup3\n      dup3\n      sload\n      tag_40\n      swap2\n      swap1\n      tag_41\n      jump\t// in\n    tag_40:\n      swap3\n      pop\n      pop\n      dup2\n      swap1\n      sstore\n      pop\n        /* \"demo1/21FunctionMod.sol\":665:666  2 */\n      0x02\n        /* \"demo1/21FunctionMod.sol\":656:661  count */\n      0x00\n      0x00\n        /* \"demo1/21FunctionMod.sol\":656:666  count /= 2 */\n      dup3\n      dup3\n      sload\n      tag_35\n      swap2\n      swap1\n      tag_43\n      jump\t// in\n        /* \"demo1/21FunctionMod.sol\":680:744  function inc2()external whereNoti2(){... */\n    tag_20:\n        /* \"demo1/21FunctionMod.sol\":630:633  100 */\n      0x64\n        /* \"demo1/21FunctionMod.sol\":621:626  count */\n      0x00\n      0x00\n        /* \"demo1/21FunctionMod.sol\":621:633  count += 100 */\n      dup3\n      dup3\n      sload\n      tag_45\n      swap2\n      swap1\n      tag_36\n      jump\t// in\n    tag_45:\n      swap3\n      pop\n      pop\n      dup2\n      swap1\n      sstore\n      pop\n        /* \"demo1/21FunctionMod.sol\":735:736  1 */\n      0x01\n        /* \"demo1/21FunctionMod.sol\":727:732  count */\n      0x00\n      0x00\n        /* \"demo1/21FunctionMod.sol\":727:736  count +=1 */\n      dup3\n      dup3\n      sload\n      tag_40\n      swap2\n      swap1\n      tag_36\n      jump\t// in\n        /* \"demo1/21FunctionMod.sol\":510:581  function dec1(uint i)external whereNoti1(i){... */\n    tag_24:\n        /* \"demo1/21FunctionMod.sol\":551:552  i */\n      dup1\n        /* \"demo1/21FunctionMod.sol\":391:393  10 */\n      0x0a\n        /* \"demo1/21FunctionMod.sol\":389:390  i */\n      dup2\n        /* \"demo1/21FunctionMod.sol\":389:393  i>10 */\n      gt\n        /* \"demo1/21FunctionMod.sol\":381:407  require(i>10, \"count<=10\") */\n      tag_50\n      jumpi\n      mload(0x40)\n      shl(0xe5, 0x461bcd)\n      dup2\n      mstore\n      0x04\n      add\n      tag_32\n      swap1\n      tag_33\n      jump\t// in\n    tag_50:\n        /* \"demo1/21FunctionMod.sol\":572:573  1 */\n      0x01\n        /* \"demo1/21FunctionMod.sol\":564:569  count */\n      0x00\n      0x00\n        /* \"demo1/21FunctionMod.sol\":564:573  count -=1 */\n      dup3\n      dup3\n      sload\n      tag_53\n      swap2\n      swap1\n      tag_41\n      jump\t// in\n    tag_53:\n      swap1\n      swap2\n      sstore\n      pop\n      pop\n      pop\n      pop\n        /* \"demo1/21FunctionMod.sol\":510:581  function dec1(uint i)external whereNoti1(i){... */\n      jump\t// out\n        /* \"demo1/21FunctionMod.sol\":433:504  function inc1(uint i)external whereNoti1(i){... */\n    tag_27:\n        /* \"demo1/21FunctionMod.sol\":474:475  i */\n      dup1\n        /* \"demo1/21FunctionMod.sol\":391:393  10 */\n      0x0a\n        /* \"demo1/21FunctionMod.sol\":389:390  i */\n      dup2\n        /* \"demo1/21FunctionMod.sol\":389:393  i>10 */\n      gt\n        /* \"demo1/21FunctionMod.sol\":381:407  require(i>10, \"count<=10\") */\n      tag_55\n      jumpi\n      mload(0x40)\n      shl(0xe5, 0x461bcd)\n      dup2\n      mstore\n      0x04\n      add\n      tag_32\n      swap1\n      tag_33\n      jump\t// in\n    tag_55:\n        /* \"demo1/21FunctionMod.sol\":495:496  1 */\n      0x01\n        /* \"demo1/21FunctionMod.sol\":487:492  count */\n      0x00\n      0x00\n        /* \"demo1/21FunctionMod.sol\":487:496  count +=1 */\n      dup3\n      dup3\n      sload\n      tag_53\n      swap2\n      swap1\n      tag_36\n      jump\t// in\n        /* \"demo1/21FunctionMod.sol\":275:335  function dec()external whereNoti{... */\n    tag_29:\n        /* \"demo1/21FunctionMod.sol\":157:159  10 */\n      0x0a\n        /* \"demo1/21FunctionMod.sol\":151:156  count */\n      sload(0x00)\n        /* \"demo1/21FunctionMod.sol\":151:159  count>10 */\n      gt\n        /* \"demo1/21FunctionMod.sol\":143:173  require(count>10, \"count<=10\") */\n      tag_60\n      jumpi\n      mload(0x40)\n      shl(0xe5, 0x461bcd)\n      dup2\n      mstore\n      0x04\n      add\n      tag_32\n      swap1\n      tag_33\n      jump\t// in\n    tag_60:\n        /* \"demo1/21FunctionMod.sol\":326:327  1 */\n      0x01\n        /* \"demo1/21FunctionMod.sol\":318:323  count */\n      0x00\n      0x00\n        /* \"demo1/21FunctionMod.sol\":318:327  count -=1 */\n      dup3\n      dup3\n      sload\n      tag_35\n      swap2\n      swap1\n      tag_41\n      jump\t// in\n        /* \"#utility.yul\":196:376   */\n    tag_23:\n        /* \"#utility.yul\":255:261   */\n      0x00\n        /* \"#utility.yul\":308:310   */\n      0x20\n        /* \"#utility.yul\":296:305   */\n      dup3\n        /* \"#utility.yul\":287:294   */\n      dup5\n        /* \"#utility.yul\":283:306   */\n      sub\n        /* \"#utility.yul\":279:311   */\n      slt\n        /* \"#utility.yul\":276:328   */\n      iszero\n      tag_68\n      jumpi\n        /* \"#utility.yul\":324:325   */\n      0x00\n        /* \"#utility.yul\":321:322   */\n      0x00\n        /* \"#utility.yul\":314:326   */\n      revert\n        /* \"#utility.yul\":276:328   */\n    tag_68:\n      pop\n        /* \"#utility.yul\":347:370   */\n      calldataload\n      swap2\n        /* \"#utility.yul\":196:376   */\n      swap1\n      pop\n      jump\t// out\n        /* \"#utility.yul\":381:713   */\n    tag_33:\n        /* \"#utility.yul\":583:585   */\n      0x20\n        /* \"#utility.yul\":565:586   */\n      dup1\n      dup3\n      mstore\n        /* \"#utility.yul\":622:623   */\n      0x09\n        /* \"#utility.yul\":602:620   */\n      swap1\n      dup3\n      add\n        /* \"#utility.yul\":595:624   */\n      mstore\n      shl(0xbc, 0x0636f756e743c3d313)\n        /* \"#utility.yul\":655:657   */\n      0x40\n        /* \"#utility.yul\":640:658   */\n      dup3\n      add\n        /* \"#utility.yul\":633:672   */\n      mstore\n        /* \"#utility.yul\":704:706   */\n      0x60\n        /* \"#utility.yul\":689:707   */\n      add\n      swap1\n        /* \"#utility.yul\":381:713   */\n      jump\t// out\n        /* \"#utility.yul\":718:845   */\n    tag_64:\n        /* \"#utility.yul\":779:789   */\n      0x4e487b71\n        /* \"#utility.yul\":774:777   */\n      0xe0\n        /* \"#utility.yul\":770:790   */\n      shl\n        /* \"#utility.yul\":767:768   */\n      0x00\n        /* \"#utility.yul\":760:791   */\n      mstore\n        /* \"#utility.yul\":810:814   */\n      0x11\n        /* \"#utility.yul\":807:808   */\n      0x04\n        /* \"#utility.yul\":800:815   */\n      mstore\n        /* \"#utility.yul\":834:838   */\n      0x24\n        /* \"#utility.yul\":831:832   */\n      0x00\n        /* \"#utility.yul\":824:839   */\n      revert\n        /* \"#utility.yul\":850:975   */\n    tag_36:\n        /* \"#utility.yul\":915:924   */\n      dup1\n      dup3\n      add\n        /* \"#utility.yul\":936:946   */\n      dup1\n      dup3\n      gt\n        /* \"#utility.yul\":933:969   */\n      iszero\n      tag_73\n      jumpi\n        /* \"#utility.yul\":949:967   */\n      tag_73\n      tag_64\n      jump\t// in\n    tag_73:\n        /* \"#utility.yul\":850:975   */\n      swap3\n      swap2\n      pop\n      pop\n      jump\t// out\n        /* \"#utility.yul\":980:1108   */\n    tag_41:\n        /* \"#utility.yul\":1047:1056   */\n      dup2\n      dup2\n      sub\n        /* \"#utility.yul\":1068:1079   */\n      dup2\n      dup2\n      gt\n        /* \"#utility.yul\":1065:1102   */\n      iszero\n      tag_73\n      jumpi\n        /* \"#utility.yul\":1082:1100   */\n      tag_73\n      tag_64\n      jump\t// in\n        /* \"#utility.yul\":1113:1330   */\n    tag_43:\n        /* \"#utility.yul\":1153:1154   */\n      0x00\n        /* \"#utility.yul\":1179:1180   */\n      dup3\n        /* \"#utility.yul\":1169:1301   */\n      tag_78\n      jumpi\n        /* \"#utility.yul\":1223:1233   */\n      0x4e487b71\n        /* \"#utility.yul\":1218:1221   */\n      0xe0\n        /* \"#utility.yul\":1214:1234   */\n      shl\n        /* \"#utility.yul\":1211:1212   */\n      0x00\n        /* \"#utility.yul\":1204:1235   */\n      mstore\n        /* \"#utility.yul\":1258:1262   */\n      0x12\n        /* \"#utility.yul\":1255:1256   */\n      0x04\n        /* \"#utility.yul\":1248:1263   */\n      mstore\n        /* \"#utility.yul\":1286:1290   */\n      0x24\n        /* \"#utility.yul\":1283:1284   */\n      0x00\n        /* \"#utility.yul\":1276:1291   */\n      revert\n        /* \"#utility.yul\":1169:1301   */\n    tag_78:\n      pop\n        /* \"#utility.yul\":1315:1324   */\n      div\n      swap1\n        /* \"#utility.yul\":1113:1330   */\n      jump\t// out\n\n    auxdata: 0xa26469706673582212206c214b2342b00faebba52a190e3d5a6bc4e5b3646dfc76b32065ce1d06216a7864736f6c63430008210033\n}\n",
				"bytecode": {
					"linkReferences": {},
					"object": "6080604052600b5f553480156012575f5ffd5b506102fa806100205f395ff3fe608060405234801561000f575f5ffd5b506004361061007a575f3560e01c806371c9f31c1161005857806371c9f31c146100aa578063720d0b6f146100b2578063a18f7a4e146100c5578063b3bcfa82146100d8575f5ffd5b806306661abd1461007e578063371303c014610098578063552350aa146100a2575b5f5ffd5b6100865f5481565b60405190815260200160405180910390f35b6100a06100e0565b005b6100a0610122565b6100a0610163565b6100a06100c036600461022b565b61018c565b6100a06100d336600461022b565b6101c7565b6100a06101f9565b600a5f541161010a5760405162461bcd60e51b815260040161010190610242565b60405180910390fd5b60015f5f82825461011b9190610279565b9091555050565b60645f5f8282546101339190610279565b9250508190555060015f5f82825461014b9190610292565b9250508190555060025f5f82825461011b91906102a5565b60645f5f8282546101749190610279565b9250508190555060015f5f82825461014b9190610279565b80600a81116101ad5760405162461bcd60e51b815260040161010190610242565b60015f5f8282546101be9190610292565b90915550505050565b80600a81116101e85760405162461bcd60e51b815260040161010190610242565b60015f5f8282546101be9190610279565b600a5f541161021a5760405162461bcd60e51b815260040161010190610242565b60015f5f82825461011b9190610292565b5f6020828403121561023b575f5ffd5b5035919050565b6020808252600990820152680636f756e743c3d31360bc1b604082015260600190565b634e487b7160e01b5f52601160045260245ffd5b8082018082111561028c5761028c610265565b92915050565b8181038181111561028c5761028c610265565b5f826102bf57634e487b7160e01b5f52601260045260245ffd5b50049056fea26469706673582212206c214b2342b00faebba52a190e3d5a6bc4e5b3646dfc76b32065ce1d06216a7864736f6c63430008210033",
					"opcodes": "PUSH1 0x80 PUSH1 0x40 MSTORE PUSH1 0xB PUSH0 SSTORE CALLVALUE DUP1 ISZERO PUSH1 0x12 JUMPI PUSH0 PUSH0 REVERT JUMPDEST POP PUSH2 0x2FA DUP1 PUSH2 0x20 PUSH0 CODECOPY PUSH0 RETURN INVALID PUSH1 0x80 PUSH1 0x40 MSTORE CALLVALUE DUP1 ISZERO PUSH2 0xF JUMPI PUSH0 PUSH0 REVERT JUMPDEST POP PUSH1 0x4 CALLDATASIZE LT PUSH2 0x7A JUMPI PUSH0 CALLDATALOAD PUSH1 0xE0 SHR DUP1 PUSH4 0x71C9F31C GT PUSH2 0x58 JUMPI DUP1 PUSH4 0x71C9F31C EQ PUSH2 0xAA JUMPI DUP1 PUSH4 0x720D0B6F EQ PUSH2 0xB2 JUMPI DUP1 PUSH4 0xA18F7A4E EQ PUSH2 0xC5 JUMPI DUP1 PUSH4 0xB3BCFA82 EQ PUSH2 0xD8 JUMPI PUSH0 PUSH0 REVERT JUMPDEST DUP1 PUSH4 0x6661ABD EQ PUSH2 0x7E JUMPI DUP1 PUSH4 0x371303C0 EQ PUSH2 0x98 JUMPI DUP1 PUSH4 0x552350AA EQ PUSH2 0xA2 JUMPI JUMPDEST PUSH0 PUSH0 REVERT JUMPDEST PUSH2 0x86 PUSH0 SLOAD DUP2 JUMP JUMPDEST PUSH1 0x40 MLOAD SWAP1 DUP2 MSTORE PUSH1 0x20 ADD PUSH1 0x40 MLOAD DUP1 SWAP2 SUB SWAP1 RETURN JUMPDEST PUSH2 0xA0 PUSH2 0xE0 JUMP JUMPDEST STOP JUMPDEST PUSH2 0xA0 PUSH2 0x122 JUMP JUMPDEST PUSH2 0xA0 PUSH2 0x163 JUMP JUMPDEST PUSH2 0xA0 PUSH2 0xC0 CALLDATASIZE PUSH1 0x4 PUSH2 0x22B JUMP JUMPDEST PUSH2 0x18C JUMP JUMPDEST PUSH2 0xA0 PUSH2 0xD3 CALLDATASIZE PUSH1 0x4 PUSH2 0x22B JUMP JUMPDEST PUSH2 0x1C7 JUMP JUMPDEST PUSH2 0xA0 PUSH2 0x1F9 JUMP JUMPDEST PUSH1 0xA PUSH0 SLOAD GT PUSH2 0x10A JUMPI PUSH1 0x40 MLOAD PUSH3 0x461BCD PUSH1 0xE5 SHL DUP2 MSTORE PUSH1 0x4 ADD PUSH2 0x101 SWAP1 PUSH2 0x242 JUMP JUMPDEST PUSH1 0x40 MLOAD DUP1 SWAP2 SUB SWAP1 REVERT JUMPDEST PUSH1 0x1 PUSH0 PUSH0 DUP3 DUP3 SLOAD PUSH2 0x11B SWAP2 SWAP1 PUSH2 0x279 JUMP JUMPDEST SWAP1 SWAP2 SSTORE POP POP JUMP JUMPDEST PUSH1 0x64 PUSH0 PUSH0 DUP3 DUP3 SLOAD PUSH2 0x133 SWAP2 SWAP1 PUSH2 0x279 JUMP JUMPDEST SWAP3 POP POP DUP2 SWAP1 SSTORE POP PUSH1 0x1 PUSH0 PUSH0 DUP3 DUP3 SLOAD PUSH2 0x14B SWAP2 SWAP1 PUSH2 0x292 JUMP JUMPDEST SWAP3 POP POP DUP2 SWAP1 SSTORE POP PUSH1 0x2 PUSH0 PUSH0 DUP3 DUP3 SLOAD PUSH2 0x11B SWAP2 SWAP1 PUSH2 0x2A5 JUMP JUMPDEST PUSH1 0x64 PUSH0 PUSH0 DUP3 DUP3 SLOAD PUSH2 0x174 SWAP2 SWAP1 PUSH2 0x279 JUMP JUMPDEST SWAP3 POP POP DUP2 SWAP1 SSTORE POP PUSH1 0x1 PUSH0 PUSH0 DUP3 DUP3 SLOAD PUSH2 0x14B SWAP2 SWAP1 PUSH2 0x279 JUMP JUMPDEST DUP1 PUSH1 0xA DUP2 GT PUSH2 0x1AD JUMPI PUSH1 0x40 MLOAD PUSH3 0x461BCD PUSH1 0xE5 SHL DUP2 MSTORE PUSH1 0x4 ADD PUSH2 0x101 SWAP1 PUSH2 0x242 JUMP JUMPDEST PUSH1 0x1 PUSH0 PUSH0 DUP3 DUP3 SLOAD PUSH2 0x1BE SWAP2 SWAP1 PUSH2 0x292 JUMP JUMPDEST SWAP1 SWAP2 SSTORE POP POP POP POP JUMP JUMPDEST DUP1 PUSH1 0xA DUP2 GT PUSH2 0x1E8 JUMPI PUSH1 0x40 MLOAD PUSH3 0x461BCD PUSH1 0xE5 SHL DUP2 MSTORE PUSH1 0x4 ADD PUSH2 0x101 SWAP1 PUSH2 0x242 JUMP JUMPDEST PUSH1 0x1 PUSH0 PUSH0 DUP3 DUP3 SLOAD PUSH2 0x1BE SWAP2 SWAP1 PUSH2 0x279 JUMP JUMPDEST PUSH1 0xA PUSH0 SLOAD GT PUSH2 0x21A JUMPI PUSH1 0x40 MLOAD PUSH3 0x461BCD PUSH1 0xE5 SHL DUP2 MSTORE PUSH1 0x4 ADD PUSH2 0x101 SWAP1 PUSH2 0x242 JUMP JUMPDEST PUSH1 0x1 PUSH0 PUSH0 DUP3 DUP3 SLOAD PUSH2 0x11B SWAP2 SWAP1 PUSH2 0x292 JUMP JUMPDEST PUSH0 PUSH1 0x20 DUP3 DUP5 SUB SLT ISZERO PUSH2 0x23B JUMPI PUSH0 PUSH0 REVERT JUMPDEST POP CALLDATALOAD SWAP2 SWAP1 POP JUMP JUMPDEST PUSH1 0x20 DUP1 DUP3 MSTORE PUSH1 0x9 SWAP1 DUP3 ADD MSTORE PUSH9 0x636F756E743C3D313 PUSH1 0xBC SHL PUSH1 0x40 DUP3 ADD MSTORE PUSH1 0x60 ADD SWAP1 JUMP JUMPDEST PUSH4 0x4E487B71 PUSH1 0xE0 SHL PUSH0 MSTORE PUSH1 0x11 PUSH1 0x4 MSTORE PUSH1 0x24 PUSH0 REVERT JUMPDEST DUP1 DUP3 ADD DUP1 DUP3 GT ISZERO PUSH2 0x28C JUMPI PUSH2 0x28C PUSH2 0x265 JUMP JUMPDEST SWAP3 SWAP2 POP POP JUMP JUMPDEST DUP2 DUP2 SUB DUP2 DUP2 GT ISZERO PUSH2 0x28C JUMPI PUSH2 0x28C PUSH2 0x265 JUMP JUMPDEST PUSH0 DUP3 PUSH2 0x2BF JUMPI PUSH4 0x4E487B71 PUSH1 0xE0 SHL PUSH0 MSTORE PUSH1 0x12 PUSH1 0x4 MSTORE PUSH1 0x24 PUSH0 REVERT JUMPDEST POP DIV SWAP1 JUMP INVALID LOG2 PUSH5 0x6970667358 0x22 SLT KECCAK256 PUSH13 0x214B2342B00FAEBBA52A190E3D GAS PUSH12 0xC4E5B3646DFC76B32065CE1D MOD 0x21 PUSH11 0x7864736F6C634300082100 CALLER "
				},
				"gasEstimates": {
					"creation": {
						"codeDepositCost": "152400",
						"executionCost": "22299",
						"totalCost": "174699"
					},
					"external": {
						"count()": "2282",
						"dec()": "26629",
						"dec1(uint256)": "24569",
						"dec2()": "infinite",
						"inc()": "26586",
						"inc1(uint256)": "24591",
						"inc2()": "infinite"
					}
				},
				"methodIdentifiers": {
					"count()": "06661abd",
					"dec()": "b3bcfa82",
					"dec1(uint256)": "720d0b6f",
					"dec2()": "552350aa",
					"inc()": "371303c0",
					"inc1(uint256)": "a18f7a4e",
					"inc2()": "71c9f31c"
				}
			},
			"storageLayout": {
				"storage": [
					{
						"astId": 4,
						"contract": "demo1/21FunctionMod.sol:FunMod",
						"label": "count",
						"offset": 0,
						"slot": "0",
						"type": "t_uint256"
					}
				],
				"types": {
					"t_uint256": {
						"encoding": "inplace",
						"label": "uint256",
						"numberOfBytes": "32"
					}
				}
			},
			"userdoc": {
				"kind": "user",
				"methods": {},
				"version": 1
			}
		}
	}
}