{
	"demo1/17Constants.sol": {
		"Ver": {
			"abi": [
				{
					"inputs": [],
					"name": "MY_ADDRESS",
					"outputs": [
						{
							"internalType": "address",
							"name": "",
							"type": "address"
						}
					],
					"stateMutability": "view",
					"type": "function"
				},
				{
					"inputs": [],
					"name": "i",
					"outputs": [
						{
							"internalType": "uint256",
							"name": "",
							"type": "uint256"
						}
					],
					"stateMutability": "view",
					"type": "function"
				}
			],
			"devdoc": {
				"kind": "dev",
				"methods": {},
				"version": 1
			},
			"evm": {
				"assembly": "    /* \"demo1/17Constants.sol\":204:321  contract Ver {... */\n  mstore(0x40, 0x80)\n    /* \"demo1/17Constants.sol\":224:293  address public MY_ADDRESS= 0x5B38Da6a701c568545dCfcB03FcB875f56beddC4 */\n  0x00\n  dup1\n  sload\n  not(sub(shl(0xa0, 0x01), 0x01))\n  and\n    /* \"demo1/17Constants.sol\":251:293  0x5B38Da6a701c568545dCfcB03FcB875f56beddC4 */\n  0x5b38da6a701c568545dcfcb03fcb875f56beddc4\n    /* \"demo1/17Constants.sol\":224:293  address public MY_ADDRESS= 0x5B38Da6a701c568545dCfcB03FcB875f56beddC4 */\n  or\n  swap1\n  sstore\n    /* \"demo1/17Constants.sol\":314:317  213 */\n  0xd5\n    /* \"demo1/17Constants.sol\":224:293  address public MY_ADDRESS= 0x5B38Da6a701c568545dCfcB03FcB875f56beddC4 */\n  0x01\n    /* \"demo1/17Constants.sol\":300:317  uint public i=213 */\n  sstore\n    /* \"demo1/17Constants.sol\":204:321  contract Ver {... */\n  callvalue\n  dup1\n  iszero\n  tag_1\n  jumpi\n  revert(0x00, 0x00)\ntag_1:\n  pop\n  dataSize(sub_0)\n  dup1\n  dataOffset(sub_0)\n  0x00\n  codecopy\n  0x00\n  return\nstop\n\nsub_0: assembly {\n        /* \"demo1/17Constants.sol\":204:321  contract Ver {... */\n      mstore(0x40, 0x80)\n      callvalue\n      dup1\n      iszero\n      tag_1\n      jumpi\n      revert(0x00, 0x00)\n    tag_1:\n      pop\n      jumpi(tag_2, lt(calldatasize, 0x04))\n      shr(0xe0, calldataload(0x00))\n      dup1\n      0x3a756cec\n      eq\n      tag_3\n      jumpi\n      dup1\n      0xe5aa3d58\n      eq\n      tag_4\n      jumpi\n    tag_2:\n      revert(0x00, 0x00)\n        /* \"demo1/17Constants.sol\":224:293  address public MY_ADDRESS= 0x5B38Da6a701c568545dCfcB03FcB875f56beddC4 */\n    tag_3:\n      sload(0x00)\n      tag_5\n      swap1\n      sub(shl(0xa0, 0x01), 0x01)\n      and\n      dup2\n      jump\n    tag_5:\n      mload(0x40)\n      sub(shl(0xa0, 0x01), 0x01)\n        /* \"#utility.yul\":178:210   */\n      swap1\n      swap2\n      and\n        /* \"#utility.yul\":160:211   */\n      dup2\n      mstore\n        /* \"#utility.yul\":148:150   */\n      0x20\n        /* \"#utility.yul\":133:151   */\n      add\n        /* \"demo1/17Constants.sol\":224:293  address public MY_ADDRESS= 0x5B38Da6a701c568545dCfcB03FcB875f56beddC4 */\n    tag_7:\n      mload(0x40)\n      dup1\n      swap2\n      sub\n      swap1\n      return\n        /* \"demo1/17Constants.sol\":300:317  uint public i=213 */\n    tag_4:\n      tag_9\n      sload(0x01)\n      dup2\n      jump\n    tag_9:\n      mload(0x40)\n        /* \"#utility.yul\":368:393   */\n      swap1\n      dup2\n      mstore\n        /* \"#utility.yul\":356:358   */\n      0x20\n        /* \"#utility.yul\":341:359   */\n      add\n        /* \"demo1/17Constants.sol\":300:317  uint public i=213 */\n      tag_7\n        /* \"#utility.yul\":222:399   */\n      jump\n\n    auxdata: 0xa2646970667358221220f4809f23dd8a6334baf5a51f1b14e59921c2958aa4a3c86474fa73a9f0795f5a64736f6c63430008210033\n}\n",
				"bytecode": {
					"linkReferences": {},
					"object": "60806040525f80546001600160a01b031916735b38da6a701c568545dcfcb03fcb875f56beddc417905560d56001553480156038575f5ffd5b5060ad8060445f395ff3fe6080604052348015600e575f5ffd5b50600436106030575f3560e01c80633a756cec146034578063e5aa3d58146062575b5f5ffd5b5f546045906001600160a01b031681565b6040516001600160a01b0390911681526020015b60405180910390f35b606a60015481565b604051908152602001605956fea2646970667358221220f4809f23dd8a6334baf5a51f1b14e59921c2958aa4a3c86474fa73a9f0795f5a64736f6c63430008210033",
					"opcodes": "PUSH1 0x80 PUSH1 0x40 MSTORE PUSH0 DUP1 SLOAD PUSH1 0x1 PUSH1 0x1 PUSH1 0xA0 SHL SUB NOT AND PUSH20 0x5B38DA6A701C568545DCFCB03FCB875F56BEDDC4 OR SWAP1 SSTORE PUSH1 0xD5 PUSH1 0x1 SSTORE CALLVALUE DUP1 ISZERO PUSH1 0x38 JUMPI PUSH0 PUSH0 REVERT JUMPDEST POP PUSH1 0xAD DUP1 PUSH1 0x44 PUSH0 CODECOPY PUSH0 RETURN INVALID PUSH1 0x80 PUSH1 0x40 MSTORE CALLVALUE DUP1 ISZERO PUSH1 0xE JUMPI PUSH0 PUSH0 REVERT JUMPDEST POP PUSH1 0x4 CALLDATASIZE LT PUSH1 0x30 JUMPI PUSH0 CALLDATALOAD PUSH1 0xE0 SHR DUP1 PUSH4 0x3A756CEC EQ PUSH1 0x34 JUMPI DUP1 PUSH4 0xE5AA3D58 EQ PUSH1 0x62 JUMPI JUMPDEST PUSH0 PUSH0 REVERT JUMPDEST PUSH0 SLOAD PUSH1 0x45 SWAP1 PUSH1 0x1 PUSH1 0x1 PUSH1 0xA0 SHL SUB AND DUP2 JUMP JUMPDEST PUSH1 0x40 MLOAD PUSH1 0x1 PUSH1 0x1 PUSH1 0xA0 SHL SUB SWAP1 SWAP2 AND DUP2 MSTORE PUSH1 0x20 ADD JUMPDEST PUSH1 0x40 MLOAD DUP1 SWAP2 SUB SWAP1 RETURN JUMPDEST PUSH1 0x6A PUSH1 0x1 SLOAD DUP2 JUMP JUMPDEST PUSH1 0x40 MLOAD SWAP1 DUP2 MSTORE PUSH1 0x20 ADD PUSH1 0x59 JUMP INVALID LOG2 PUSH5 0x6970667358 0x22 SLT KECCAK256 DELEGATECALL DUP1 SWAP16 0x23 0xDD DUP11 PUSH4 0x34BAF5A5 0x1F SHL EQ JUMPF 0x9921 0xC2 SWAP6 DUP11 LOG4 LOG3 0xC8 PUSH5 0x74FA73A9F0 PUSH26 0x5F5A64736F6C6343000821003300000000000000000000000000 "
				},
				"gasEstimates": {
					"creation": {
						"codeDepositCost": "34600",
						"executionCost": "46426",
						"totalCost": "81026"
					},
					"external": {
						"MY_ADDRESS()": "2302",
						"i()": "2294"
					}
				},
				"methodIdentifiers": {
					"MY_ADDRESS()": "3a756cec",
					"i()": "e5aa3d58"
				}
			},
			"storageLayout": {
				"storage": [
					{
						"astId": 11,
						"contract": "demo1/17Constants.sol:Ver",
						"label": "MY_ADDRESS",
						"offset": 0,
						"slot": "0",
						"type": "t_address"
					},
					{
						"astId": 14,
						"contract": "demo1/17Constants.sol:Ver",
						"label": "i",
						"offset": 0,
						"slot": "1",
						"type": "t_uint256"
					}
				],
				"types": {
					"t_address": {
						"encoding": "inplace",
						"label": "address",
						"numberOfBytes": "20"
					},
					"t_uint256": {
						"encoding": "inplace",
						"label": "uint256",
						"numberOfBytes": "32"
					}
				}
			},
			"userdoc": {
				"kind": "user",
				"methods": {},
				"version": 1
			}
		}
	}
}