{
	"demo1/17Constants.sol": {
		"Constants": {
			"abi": [
				{
					"inputs": [],
					"name": "MY_ADDRESS",
					"outputs": [
						{
							"internalType": "address",
							"name": "",
							"type": "address"
						}
					],
					"stateMutability": "view",
					"type": "function"
				},
				{
					"inputs": [],
					"name": "i",
					"outputs": [
						{
							"internalType": "uint256",
							"name": "",
							"type": "uint256"
						}
					],
					"stateMutability": "view",
					"type": "function"
				}
			],
			"devdoc": {
				"kind": "dev",
				"methods": {},
				"version": 1
			},
			"evm": {
				"assembly": "    /* \"demo1/17Constants.sol\":60:202  contract Constants {... */\n  mstore(0x40, 0x80)\n  callvalue\n  dup1\n  iszero\n  tag_1\n  jumpi\n  revert(0x00, 0x00)\ntag_1:\n  pop\n  dataSize(sub_0)\n  dup1\n  dataOffset(sub_0)\n  0x00\n  codecopy\n  0x00\n  return\nstop\n\nsub_0: assembly {\n        /* \"demo1/17Constants.sol\":60:202  contract Constants {... */\n      mstore(0x40, 0x80)\n      callvalue\n      dup1\n      iszero\n      tag_1\n      jumpi\n      revert(0x00, 0x00)\n    tag_1:\n      pop\n      jumpi(tag_2, lt(calldatasize, 0x04))\n      shr(0xe0, calldataload(0x00))\n      dup1\n      0x3a756cec\n      eq\n      tag_3\n      jumpi\n      dup1\n      0xe5aa3d58\n      eq\n      tag_4\n      jumpi\n    tag_2:\n      revert(0x00, 0x00)\n        /* \"demo1/17Constants.sol\":86:165  address public constant MY_ADDRESS = 0x5B38Da6a701c568545dCfcB03FcB875f56beddC4 */\n    tag_3:\n      tag_5\n        /* \"demo1/17Constants.sol\":123:165  0x5B38Da6a701c568545dCfcB03FcB875f56beddC4 */\n      0x5b38da6a701c568545dcfcb03fcb875f56beddc4\n        /* \"demo1/17Constants.sol\":86:165  address public constant MY_ADDRESS = 0x5B38Da6a701c568545dCfcB03FcB875f56beddC4 */\n      dup2\n      jump\n    tag_5:\n      mload(0x40)\n      sub(shl(0xa0, 0x01), 0x01)\n        /* \"#utility.yul\":178:210   */\n      swap1\n      swap2\n      and\n        /* \"#utility.yul\":160:211   */\n      dup2\n      mstore\n        /* \"#utility.yul\":148:150   */\n      0x20\n        /* \"#utility.yul\":133:151   */\n      add\n        /* \"demo1/17Constants.sol\":86:165  address public constant MY_ADDRESS = 0x5B38Da6a701c568545dCfcB03FcB875f56beddC4 */\n    tag_7:\n      mload(0x40)\n      dup1\n      swap2\n      sub\n      swap1\n      return\n        /* \"demo1/17Constants.sol\":172:198  uint public constant i=213 */\n    tag_4:\n      tag_9\n        /* \"demo1/17Constants.sol\":195:198  213 */\n      0xd5\n        /* \"demo1/17Constants.sol\":172:198  uint public constant i=213 */\n      dup2\n      jump\n    tag_9:\n      mload(0x40)\n        /* \"#utility.yul\":368:393   */\n      swap1\n      dup2\n      mstore\n        /* \"#utility.yul\":356:358   */\n      0x20\n        /* \"#utility.yul\":341:359   */\n      add\n        /* \"demo1/17Constants.sol\":172:198  uint public constant i=213 */\n      tag_7\n        /* \"#utility.yul\":222:399   */\n      jump\n\n    auxdata: 0xa264697066735822122023cdacc0d37175ed9d5c9fe23925f01732a44f245eaab82a4f781b7ebe0d306b64736f6c63430008210033\n}\n",
				"bytecode": {
					"linkReferences": {},
					"object": "6080604052348015600e575f5ffd5b5060b580601a5f395ff3fe6080604052348015600e575f5ffd5b50600436106030575f3560e01c80633a756cec146034578063e5aa3d5814606b575b5f5ffd5b604e735b38da6a701c568545dcfcb03fcb875f56beddc481565b6040516001600160a01b0390911681526020015b60405180910390f35b607260d581565b604051908152602001606256fea264697066735822122023cdacc0d37175ed9d5c9fe23925f01732a44f245eaab82a4f781b7ebe0d306b64736f6c63430008210033",
					"opcodes": "PUSH1 0x80 PUSH1 0x40 MSTORE CALLVALUE DUP1 ISZERO PUSH1 0xE JUMPI PUSH0 PUSH0 REVERT JUMPDEST POP PUSH1 0xB5 DUP1 PUSH1 0x1A PUSH0 CODECOPY PUSH0 RETURN INVALID PUSH1 0x80 PUSH1 0x40 MSTORE CALLVALUE DUP1 ISZERO PUSH1 0xE JUMPI PUSH0 PUSH0 REVERT JUMPDEST POP PUSH1 0x4 CALLDATASIZE LT PUSH1 0x30 JUMPI PUSH0 CALLDATALOAD PUSH1 0xE0 SHR DUP1 PUSH4 0x3A756CEC EQ PUSH1 0x34 JUMPI DUP1 PUSH4 0xE5AA3D58 EQ PUSH1 0x6B JUMPI JUMPDEST PUSH0 PUSH0 REVERT JUMPDEST PUSH1 0x4E PUSH20 0x5B38DA6A701C568545DCFCB03FCB875F56BEDDC4 DUP2 JUMP JUMPDEST PUSH1 0x40 MLOAD PUSH1 0x1 PUSH1 0x1 PUSH1 0xA0 SHL SUB SWAP1 SWAP2 AND DUP2 MSTORE PUSH1 0x20 ADD JUMPDEST PUSH1 0x40 MLOAD DUP1 SWAP2 SUB SWAP1 RETURN JUMPDEST PUSH1 0x72 PUSH1 0xD5 DUP2 JUMP JUMPDEST PUSH1 0x40 MLOAD SWAP1 DUP2 MSTORE PUSH1 0x20 ADD PUSH1 0x62 JUMP INVALID LOG2 PUSH5 0x6970667358 0x22 SLT KECCAK256 0x23 0xCD 0xAC 0xC0 0xD3 PUSH18 0x75ED9D5C9FE23925F01732A44F245EAAB82A 0x4F PUSH25 0x1B7EBE0D306B64736F6C634300082100330000000000000000 "
				},
				"gasEstimates": {
					"creation": {
						"codeDepositCost": "36200",
						"executionCost": "85",
						"totalCost": "36285"
					},
					"external": {
						"MY_ADDRESS()": "182",
						"i()": "194"
					}
				},
				"methodIdentifiers": {
					"MY_ADDRESS()": "3a756cec",
					"i()": "e5aa3d58"
				}
			},
			"storageLayout": {
				"storage": [],
				"types": null
			},
			"userdoc": {
				"kind": "user",
				"methods": {},
				"version": 1
			}
		}
	}
}