{
	"work/SimpleStorage.sol": {
		"SimpleStorage": {
			"abi": [
				{
					"inputs": [],
					"name": "get",
					"outputs": [
						{
							"internalType": "uint256",
							"name": "",
							"type": "uint256"
						}
					],
					"stateMutability": "view",
					"type": "function"
				},
				{
					"inputs": [
						{
							"internalType": "uint256",
							"name": "x",
							"type": "uint256"
						}
					],
					"name": "set",
					"outputs": [],
					"stateMutability": "nonpayable",
					"type": "function"
				},
				{
					"inputs": [],
					"name": "storedData",
					"outputs": [
						{
							"internalType": "uint256",
							"name": "",
							"type": "uint256"
						}
					],
					"stateMutability": "view",
					"type": "function"
				},
				{
					"inputs": [],
					"name": "storedData12",
					"outputs": [
						{
							"internalType": "uint256",
							"name": "",
							"type": "uint256"
						}
					],
					"stateMutability": "view",
					"type": "function"
				}
			],
			"devdoc": {
				"kind": "dev",
				"methods": {},
				"version": 1
			},
			"evm": {
				"assembly": "    /* \"work/SimpleStorage.sol\":60:297  contract SimpleStorage {\r... */\n  mstore(0x40, 0x80)\n  callvalue\n  dup1\n  iszero\n  tag_1\n  jumpi\n  0x00\n  dup1\n  revert\ntag_1:\n  pop\n  dataSize(sub_0)\n  dup1\n  dataOffset(sub_0)\n  0x00\n  codecopy\n  0x00\n  return\nstop\n\nsub_0: assembly {\n        /* \"work/SimpleStorage.sol\":60:297  contract SimpleStorage {\r... */\n      mstore(0x40, 0x80)\n      callvalue\n      dup1\n      iszero\n      tag_1\n      jumpi\n      0x00\n      dup1\n      revert\n    tag_1:\n      pop\n      jumpi(tag_2, lt(calldatasize, 0x04))\n      shr(0xe0, calldataload(0x00))\n      dup1\n      0x122b9362\n      eq\n      tag_3\n      jumpi\n      dup1\n      0x2a1afcd9\n      eq\n      tag_4\n      jumpi\n      dup1\n      0x60fe47b1\n      eq\n      tag_5\n      jumpi\n      dup1\n      0x6d4ce63c\n      eq\n      tag_6\n      jumpi\n    tag_2:\n      0x00\n      dup1\n      revert\n        /* \"work/SimpleStorage.sol\":119:143  uint public storedData12 */\n    tag_3:\n      tag_7\n      sload(0x01)\n      dup2\n      jump\n    tag_7:\n      mload(0x40)\n        /* \"#utility.yul\":345:370   */\n      swap1\n      dup2\n      mstore\n        /* \"#utility.yul\":333:335   */\n      0x20\n        /* \"#utility.yul\":318:336   */\n      add\n        /* \"work/SimpleStorage.sol\":119:143  uint public storedData12 */\n      mload(0x40)\n      dup1\n      swap2\n      sub\n      swap1\n      return\n        /* \"work/SimpleStorage.sol\":90:112  uint public storedData */\n    tag_4:\n      tag_7\n      sload(0x00)\n      dup2\n      jump\n        /* \"work/SimpleStorage.sol\":150:211  function set(uint x) external {\r... */\n    tag_5:\n      tag_14\n      tag_15\n      calldatasize\n      0x04\n      tag_16\n      jump\t// in\n    tag_15:\n        /* \"work/SimpleStorage.sol\":191:201  storedData */\n      0x00\n        /* \"work/SimpleStorage.sol\":191:203  storedData=x */\n      sstore\n        /* \"work/SimpleStorage.sol\":150:211  function set(uint x) external {\r... */\n      jump\n    tag_14:\n      stop\n        /* \"work/SimpleStorage.sol\":217:294  function get() public view returns (uint){\r... */\n    tag_6:\n        /* \"work/SimpleStorage.sol\":253:257  uint */\n      0x00\n        /* \"work/SimpleStorage.sol\":276:286  storedData */\n      sload\n        /* \"work/SimpleStorage.sol\":217:294  function get() public view returns (uint){\r... */\n      jump(tag_7)\n        /* \"#utility.yul\":14:194   */\n    tag_16:\n        /* \"#utility.yul\":73:79   */\n      0x00\n        /* \"#utility.yul\":126:128   */\n      0x20\n        /* \"#utility.yul\":114:123   */\n      dup3\n        /* \"#utility.yul\":105:112   */\n      dup5\n        /* \"#utility.yul\":101:124   */\n      sub\n        /* \"#utility.yul\":97:129   */\n      slt\n        /* \"#utility.yul\":94:146   */\n      iszero\n      tag_25\n      jumpi\n        /* \"#utility.yul\":142:143   */\n      0x00\n        /* \"#utility.yul\":139:140   */\n      dup1\n        /* \"#utility.yul\":132:144   */\n      revert\n        /* \"#utility.yul\":94:146   */\n    tag_25:\n      pop\n        /* \"#utility.yul\":165:188   */\n      calldataload\n      swap2\n        /* \"#utility.yul\":14:194   */\n      swap1\n      pop\n      jump\t// out\n\n    auxdata: 0xa2646970667358221220b47a104ed4ad525353bb6203a9302eeae99b317892bfa65aac3b3dbd4042303364736f6c63430008070033\n}\n",
				"bytecode": {
					"linkReferences": {},
					"object": "608060405234801561001057600080fd5b5060d48061001f6000396000f3fe6080604052348015600f57600080fd5b506004361060465760003560e01c8063122b936214604b5780632a1afcd914606557806360fe47b114606d5780636d4ce63c14607f575b600080fd5b605360015481565b60405190815260200160405180910390f35b605360005481565b607d60783660046086565b600055565b005b6000546053565b600060208284031215609757600080fd5b503591905056fea2646970667358221220b47a104ed4ad525353bb6203a9302eeae99b317892bfa65aac3b3dbd4042303364736f6c63430008070033",
					"opcodes": "PUSH1 0x80 PUSH1 0x40 MSTORE CALLVALUE DUP1 ISZERO PUSH2 0x10 JUMPI PUSH1 0x0 DUP1 REVERT JUMPDEST POP PUSH1 0xD4 DUP1 PUSH2 0x1F PUSH1 0x0 CODECOPY PUSH1 0x0 RETURN INVALID PUSH1 0x80 PUSH1 0x40 MSTORE CALLVALUE DUP1 ISZERO PUSH1 0xF JUMPI PUSH1 0x0 DUP1 REVERT JUMPDEST POP PUSH1 0x4 CALLDATASIZE LT PUSH1 0x46 JUMPI PUSH1 0x0 CALLDATALOAD PUSH1 0xE0 SHR DUP1 PUSH4 0x122B9362 EQ PUSH1 0x4B JUMPI DUP1 PUSH4 0x2A1AFCD9 EQ PUSH1 0x65 JUMPI DUP1 PUSH4 0x60FE47B1 EQ PUSH1 0x6D JUMPI DUP1 PUSH4 0x6D4CE63C EQ PUSH1 0x7F JUMPI JUMPDEST PUSH1 0x0 DUP1 REVERT JUMPDEST PUSH1 0x53 PUSH1 0x1 SLOAD DUP2 JUMP JUMPDEST PUSH1 0x40 MLOAD SWAP1 DUP2 MSTORE PUSH1 0x20 ADD PUSH1 0x40 MLOAD DUP1 SWAP2 SUB SWAP1 RETURN JUMPDEST PUSH1 0x53 PUSH1 0x0 SLOAD DUP2 JUMP JUMPDEST PUSH1 0x7D PUSH1 0x78 CALLDATASIZE PUSH1 0x4 PUSH1 0x86 JUMP JUMPDEST PUSH1 0x0 SSTORE JUMP JUMPDEST STOP JUMPDEST PUSH1 0x0 SLOAD PUSH1 0x53 JUMP JUMPDEST PUSH1 0x0 PUSH1 0x20 DUP3 DUP5 SUB SLT ISZERO PUSH1 0x97 JUMPI PUSH1 0x0 DUP1 REVERT JUMPDEST POP CALLDATALOAD SWAP2 SWAP1 POP JUMP INVALID LOG2 PUSH5 0x6970667358 0x22 SLT KECCAK256 0xB4 PUSH27 0x104ED4AD525353BB6203A9302EEAE99B317892BFA65AAC3B3DBD40 TIMESTAMP ADDRESS CALLER PUSH5 0x736F6C6343 STOP ADDMOD SMOD STOP CALLER "
				},
				"gasEstimates": {
					"creation": {
						"codeDepositCost": "42400",
						"executionCost": "93",
						"totalCost": "42493"
					},
					"external": {
						"get()": "2324",
						"set(uint256)": "22334",
						"storedData()": "2283",
						"storedData12()": "2261"
					}
				},
				"methodIdentifiers": {
					"get()": "6d4ce63c",
					"set(uint256)": "60fe47b1",
					"storedData()": "2a1afcd9",
					"storedData12()": "122b9362"
				}
			},
			"storageLayout": {
				"storage": [
					{
						"astId": 3,
						"contract": "work/SimpleStorage.sol:SimpleStorage",
						"label": "storedData",
						"offset": 0,
						"slot": "0",
						"type": "t_uint256"
					},
					{
						"astId": 5,
						"contract": "work/SimpleStorage.sol:SimpleStorage",
						"label": "storedData12",
						"offset": 0,
						"slot": "1",
						"type": "t_uint256"
					}
				],
				"types": {
					"t_uint256": {
						"encoding": "inplace",
						"label": "uint256",
						"numberOfBytes": "32"
					}
				}
			},
			"userdoc": {
				"kind": "user",
				"methods": {},
				"version": 1
			}
		}
	}
}