{
	"demo1/FunctionIntro.sol": {
		"FunctionIntro": {
			"abi": [
				{
					"inputs": [
						{
							"internalType": "uint256",
							"name": "x",
							"type": "uint256"
						},
						{
							"internalType": "uint256",
							"name": "y",
							"type": "uint256"
						}
					],
					"name": "add",
					"outputs": [
						{
							"internalType": "uint256",
							"name": "",
							"type": "uint256"
						}
					],
					"stateMutability": "pure",
					"type": "function"
				},
				{
					"inputs": [
						{
							"internalType": "uint256",
							"name": "x",
							"type": "uint256"
						},
						{
							"internalType": "uint256",
							"name": "y",
							"type": "uint256"
						}
					],
					"name": "sun",
					"outputs": [
						{
							"internalType": "uint256",
							"name": "",
							"type": "uint256"
						}
					],
					"stateMutability": "pure",
					"type": "function"
				}
			],
			"devdoc": {
				"kind": "dev",
				"methods": {},
				"version": 1
			},
			"evm": {
				"assembly": "    /* \"demo1/FunctionIntro.sol\":60:275  contract FunctionIntro {... */\n  mstore(0x40, 0x80)\n  callvalue\n  dup1\n  iszero\n  tag_1\n  jumpi\n  revert(0x00, 0x00)\ntag_1:\n  pop\n  dataSize(sub_0)\n  dup1\n  dataOffset(sub_0)\n  0x00\n  codecopy\n  0x00\n  return\nstop\n\nsub_0: assembly {\n        /* \"demo1/FunctionIntro.sol\":60:275  contract FunctionIntro {... */\n      mstore(0x40, 0x80)\n      callvalue\n      dup1\n      iszero\n      tag_1\n      jumpi\n      revert(0x00, 0x00)\n    tag_1:\n      pop\n      jumpi(tag_2, lt(calldatasize, 0x04))\n      shr(0xe0, calldataload(0x00))\n      dup1\n      0x38eecd67\n      eq\n      tag_3\n      jumpi\n      dup1\n      0x771602f7\n      eq\n      tag_4\n      jumpi\n    tag_2:\n      revert(0x00, 0x00)\n        /* \"demo1/FunctionIntro.sol\":184:272  function sun (uint x,uint y) external pure returns (uint){... */\n    tag_3:\n      tag_5\n      tag_6\n      calldatasize\n      0x04\n      tag_7\n      jump\t// in\n    tag_6:\n      tag_8\n      jump\t// in\n    tag_5:\n      mload(0x40)\n        /* \"#utility.yul\":511:536   */\n      swap1\n      dup2\n      mstore\n        /* \"#utility.yul\":499:501   */\n      0x20\n        /* \"#utility.yul\":484:502   */\n      add\n        /* \"demo1/FunctionIntro.sol\":184:272  function sun (uint x,uint y) external pure returns (uint){... */\n      mload(0x40)\n      dup1\n      swap2\n      sub\n      swap1\n      return\n        /* \"demo1/FunctionIntro.sol\":90:178  function add(uint x,uint y) external pure returns (uint){... */\n    tag_4:\n      tag_5\n      tag_12\n      calldatasize\n      0x04\n      tag_7\n      jump\t// in\n    tag_12:\n      tag_13\n      jump\t// in\n        /* \"demo1/FunctionIntro.sol\":184:272  function sun (uint x,uint y) external pure returns (uint){... */\n    tag_8:\n        /* \"demo1/FunctionIntro.sol\":236:240  uint */\n      0x00\n        /* \"demo1/FunctionIntro.sol\":259:264  x - y */\n      tag_16\n        /* \"demo1/FunctionIntro.sol\":263:264  y */\n      dup3\n        /* \"demo1/FunctionIntro.sol\":259:260  x */\n      dup5\n        /* \"demo1/FunctionIntro.sol\":259:264  x - y */\n      tag_17\n      jump\t// in\n    tag_16:\n        /* \"demo1/FunctionIntro.sol\":252:264  return x - y */\n      swap1\n      pop\n        /* \"demo1/FunctionIntro.sol\":184:272  function sun (uint x,uint y) external pure returns (uint){... */\n    tag_15:\n      swap3\n      swap2\n      pop\n      pop\n      jump\t// out\n        /* \"demo1/FunctionIntro.sol\":90:178  function add(uint x,uint y) external pure returns (uint){... */\n    tag_13:\n        /* \"demo1/FunctionIntro.sol\":141:145  uint */\n      0x00\n        /* \"demo1/FunctionIntro.sol\":164:169  x + y */\n      tag_16\n        /* \"demo1/FunctionIntro.sol\":168:169  y */\n      dup3\n        /* \"demo1/FunctionIntro.sol\":164:165  x */\n      dup5\n        /* \"demo1/FunctionIntro.sol\":164:169  x + y */\n      tag_20\n      jump\t// in\n        /* \"#utility.yul\":14:360   */\n    tag_7:\n        /* \"#utility.yul\":82:88   */\n      0x00\n        /* \"#utility.yul\":90:96   */\n      0x00\n        /* \"#utility.yul\":143:145   */\n      0x40\n        /* \"#utility.yul\":131:140   */\n      dup4\n        /* \"#utility.yul\":122:129   */\n      dup6\n        /* \"#utility.yul\":118:141   */\n      sub\n        /* \"#utility.yul\":114:146   */\n      slt\n        /* \"#utility.yul\":111:163   */\n      iszero\n      tag_24\n      jumpi\n        /* \"#utility.yul\":159:160   */\n      0x00\n        /* \"#utility.yul\":156:157   */\n      0x00\n        /* \"#utility.yul\":149:161   */\n      revert\n        /* \"#utility.yul\":111:163   */\n    tag_24:\n      pop\n      pop\n        /* \"#utility.yul\":204:227   */\n      dup1\n      calldataload\n      swap3\n        /* \"#utility.yul\":324:326   */\n      0x20\n        /* \"#utility.yul\":309:327   */\n      swap1\n      swap2\n      add\n        /* \"#utility.yul\":296:328   */\n      calldataload\n      swap2\n      pop\n        /* \"#utility.yul\":14:360   */\n      jump\t// out\n        /* \"#utility.yul\":547:674   */\n    tag_21:\n        /* \"#utility.yul\":608:618   */\n      0x4e487b71\n        /* \"#utility.yul\":603:606   */\n      0xe0\n        /* \"#utility.yul\":599:619   */\n      shl\n        /* \"#utility.yul\":596:597   */\n      0x00\n        /* \"#utility.yul\":589:620   */\n      mstore\n        /* \"#utility.yul\":639:643   */\n      0x11\n        /* \"#utility.yul\":636:637   */\n      0x04\n        /* \"#utility.yul\":629:644   */\n      mstore\n        /* \"#utility.yul\":663:667   */\n      0x24\n        /* \"#utility.yul\":660:661   */\n      0x00\n        /* \"#utility.yul\":653:668   */\n      revert\n        /* \"#utility.yul\":679:807   */\n    tag_17:\n        /* \"#utility.yul\":746:755   */\n      dup2\n      dup2\n      sub\n        /* \"#utility.yul\":767:778   */\n      dup2\n      dup2\n      gt\n        /* \"#utility.yul\":764:801   */\n      iszero\n      tag_15\n      jumpi\n        /* \"#utility.yul\":781:799   */\n      tag_15\n      tag_21\n      jump\t// in\n        /* \"#utility.yul\":812:937   */\n    tag_20:\n        /* \"#utility.yul\":877:886   */\n      dup1\n      dup3\n      add\n        /* \"#utility.yul\":898:908   */\n      dup1\n      dup3\n      gt\n        /* \"#utility.yul\":895:931   */\n      iszero\n      tag_15\n      jumpi\n        /* \"#utility.yul\":911:929   */\n      tag_15\n      tag_21\n      jump\t// in\n\n    auxdata: 0xa26469706673582212203cb49fd58f78dfbe46eded88d6936b2c1900e3d899d19b06ef4df62dc9bb131864736f6c63430008210033\n}\n",
				"bytecode": {
					"linkReferences": {},
					"object": "6080604052348015600e575f5ffd5b506101088061001c5f395ff3fe6080604052348015600e575f5ffd5b50600436106030575f3560e01c806338eecd67146034578063771602f7146055575b5f5ffd5b6043603f366004607f565b6064565b60405190815260200160405180910390f35b60436060366004607f565b6076565b5f606d828460b2565b90505b92915050565b5f606d828460c2565b5f5f60408385031215608f575f5ffd5b50508035926020909101359150565b634e487b7160e01b5f52601160045260245ffd5b818103818111156070576070609e565b808201808211156070576070609e56fea26469706673582212203cb49fd58f78dfbe46eded88d6936b2c1900e3d899d19b06ef4df62dc9bb131864736f6c63430008210033",
					"opcodes": "PUSH1 0x80 PUSH1 0x40 MSTORE CALLVALUE DUP1 ISZERO PUSH1 0xE JUMPI PUSH0 PUSH0 REVERT JUMPDEST POP PUSH2 0x108 DUP1 PUSH2 0x1C PUSH0 CODECOPY PUSH0 RETURN INVALID PUSH1 0x80 PUSH1 0x40 MSTORE CALLVALUE DUP1 ISZERO PUSH1 0xE JUMPI PUSH0 PUSH0 REVERT JUMPDEST POP PUSH1 0x4 CALLDATASIZE LT PUSH1 0x30 JUMPI PUSH0 CALLDATALOAD PUSH1 0xE0 SHR DUP1 PUSH4 0x38EECD67 EQ PUSH1 0x34 JUMPI DUP1 PUSH4 0x771602F7 EQ PUSH1 0x55 JUMPI JUMPDEST PUSH0 PUSH0 REVERT JUMPDEST PUSH1 0x43 PUSH1 0x3F CALLDATASIZE PUSH1 0x4 PUSH1 0x7F JUMP JUMPDEST PUSH1 0x64 JUMP JUMPDEST PUSH1 0x40 MLOAD SWAP1 DUP2 MSTORE PUSH1 0x20 ADD PUSH1 0x40 MLOAD DUP1 SWAP2 SUB SWAP1 RETURN JUMPDEST PUSH1 0x43 PUSH1 0x60 CALLDATASIZE PUSH1 0x4 PUSH1 0x7F JUMP JUMPDEST PUSH1 0x76 JUMP JUMPDEST PUSH0 PUSH1 0x6D DUP3 DUP5 PUSH1 0xB2 JUMP JUMPDEST SWAP1 POP JUMPDEST SWAP3 SWAP2 POP POP JUMP JUMPDEST PUSH0 PUSH1 0x6D DUP3 DUP5 PUSH1 0xC2 JUMP JUMPDEST PUSH0 PUSH0 PUSH1 0x40 DUP4 DUP6 SUB SLT ISZERO PUSH1 0x8F JUMPI PUSH0 PUSH0 REVERT JUMPDEST POP POP DUP1 CALLDATALOAD SWAP3 PUSH1 0x20 SWAP1 SWAP2 ADD CALLDATALOAD SWAP2 POP JUMP JUMPDEST PUSH4 0x4E487B71 PUSH1 0xE0 SHL PUSH0 MSTORE PUSH1 0x11 PUSH1 0x4 MSTORE PUSH1 0x24 PUSH0 REVERT JUMPDEST DUP2 DUP2 SUB DUP2 DUP2 GT ISZERO PUSH1 0x70 JUMPI PUSH1 0x70 PUSH1 0x9E JUMP JUMPDEST DUP1 DUP3 ADD DUP1 DUP3 GT ISZERO PUSH1 0x70 JUMPI PUSH1 0x70 PUSH1 0x9E JUMP INVALID LOG2 PUSH5 0x6970667358 0x22 SLT KECCAK256 EXTCODECOPY 0xB4 SWAP16 0xD5 DUP16 PUSH25 0xDFBE46EDED88D6936B2C1900E3D899D19B06EF4DF62DC9BB13 XOR PUSH5 0x736F6C6343 STOP ADDMOD 0x21 STOP CALLER "
				},
				"gasEstimates": {
					"creation": {
						"codeDepositCost": "52800",
						"executionCost": "103",
						"totalCost": "52903"
					},
					"external": {
						"add(uint256,uint256)": "infinite",
						"sun(uint256,uint256)": "infinite"
					}
				},
				"methodIdentifiers": {
					"add(uint256,uint256)": "771602f7",
					"sun(uint256,uint256)": "38eecd67"
				}
			},
			"storageLayout": {
				"storage": [],
				"types": null
			},
			"userdoc": {
				"kind": "user",
				"methods": {},
				"version": 1
			}
		}
	}
}