{
	"demo1/StateDemo.sol": {
		"StateDemo": {
			"abi": [
				{
					"inputs": [],
					"name": "demo1",
					"outputs": [],
					"stateMutability": "pure",
					"type": "function"
				},
				{
					"inputs": [],
					"name": "myUint",
					"outputs": [
						{
							"internalType": "uint256",
							"name": "",
							"type": "uint256"
						}
					],
					"stateMutability": "view",
					"type": "function"
				}
			],
			"devdoc": {
				"kind": "dev",
				"methods": {},
				"version": 1
			},
			"evm": {
				"assembly": "    /* \"demo1/StateDemo.sol\":60:186  contract StateDemo {... */\n  mstore(0x40, 0x80)\n    /* \"demo1/StateDemo.sol\":105:108  123 */\n  0x7b\n    /* \"demo1/StateDemo.sol\":86:108  uint public myUint=123 */\n  0x00\n  sstore\n    /* \"demo1/StateDemo.sol\":60:186  contract StateDemo {... */\n  callvalue\n  dup1\n  iszero\n  tag_1\n  jumpi\n  revert(0x00, 0x00)\ntag_1:\n  pop\n  dataSize(sub_0)\n  dup1\n  dataOffset(sub_0)\n  0x00\n  codecopy\n  0x00\n  return\nstop\n\nsub_0: assembly {\n        /* \"demo1/StateDemo.sol\":60:186  contract StateDemo {... */\n      mstore(0x40, 0x80)\n      callvalue\n      dup1\n      iszero\n      tag_1\n      jumpi\n      revert(0x00, 0x00)\n    tag_1:\n      pop\n      jumpi(tag_2, lt(calldatasize, 0x04))\n      shr(0xe0, calldataload(0x00))\n      dup1\n      0x06540f7e\n      eq\n      tag_3\n      jumpi\n      dup1\n      0x74ab571d\n      eq\n      tag_4\n      jumpi\n    tag_2:\n      revert(0x00, 0x00)\n        /* \"demo1/StateDemo.sol\":86:108  uint public myUint=123 */\n    tag_3:\n      tag_5\n      sload(0x00)\n      dup2\n      jump\n    tag_5:\n      mload(0x40)\n        /* \"#utility.yul\":160:185   */\n      swap1\n      dup2\n      mstore\n        /* \"#utility.yul\":148:150   */\n      0x20\n        /* \"#utility.yul\":133:151   */\n      add\n        /* \"demo1/StateDemo.sol\":86:108  uint public myUint=123 */\n      mload(0x40)\n      dup1\n      swap2\n      sub\n      swap1\n      return\n        /* \"demo1/StateDemo.sol\":115:183  function demo1() external pure {... */\n    tag_4:\n      stop\n\n    auxdata: 0xa2646970667358221220196d0a4b6f1837f37314cf8cfbf438d57289901cf27a8e2e6d1f89072968102964736f6c63430008210033\n}\n",
				"bytecode": {
					"linkReferences": {},
					"object": "6080604052607b5f553480156012575f5ffd5b50608580601e5f395ff3fe6080604052348015600e575f5ffd5b50600436106030575f3560e01c806306540f7e14603457806374ab571d14604d575b5f5ffd5b603b5f5481565b60405190815260200160405180910390f35b00fea2646970667358221220196d0a4b6f1837f37314cf8cfbf438d57289901cf27a8e2e6d1f89072968102964736f6c63430008210033",
					"opcodes": "PUSH1 0x80 PUSH1 0x40 MSTORE PUSH1 0x7B PUSH0 SSTORE CALLVALUE DUP1 ISZERO PUSH1 0x12 JUMPI PUSH0 PUSH0 REVERT JUMPDEST POP PUSH1 0x85 DUP1 PUSH1 0x1E PUSH0 CODECOPY PUSH0 RETURN INVALID PUSH1 0x80 PUSH1 0x40 MSTORE CALLVALUE DUP1 ISZERO PUSH1 0xE JUMPI PUSH0 PUSH0 REVERT JUMPDEST POP PUSH1 0x4 CALLDATASIZE LT PUSH1 0x30 JUMPI PUSH0 CALLDATALOAD PUSH1 0xE0 SHR DUP1 PUSH4 0x6540F7E EQ PUSH1 0x34 JUMPI DUP1 PUSH4 0x74AB571D EQ PUSH1 0x4D JUMPI JUMPDEST PUSH0 PUSH0 REVERT JUMPDEST PUSH1 0x3B PUSH0 SLOAD DUP2 JUMP JUMPDEST PUSH1 0x40 MLOAD SWAP1 DUP2 MSTORE PUSH1 0x20 ADD PUSH1 0x40 MLOAD DUP1 SWAP2 SUB SWAP1 RETURN JUMPDEST STOP INVALID LOG2 PUSH5 0x6970667358 0x22 SLT KECCAK256 NOT PUSH14 0xA4B6F1837F37314CF8CFBF438D5 PUSH19 0x89901CF27A8E2E6D1F89072968102964736F6C PUSH4 0x43000821 STOP CALLER "
				},
				"gasEstimates": {
					"creation": {
						"codeDepositCost": "26600",
						"executionCost": "22184",
						"totalCost": "48784"
					},
					"external": {
						"demo1()": "119",
						"myUint()": "2259"
					}
				},
				"methodIdentifiers": {
					"demo1()": "74ab571d",
					"myUint()": "06540f7e"
				}
			},
			"storageLayout": {
				"storage": [
					{
						"astId": 4,
						"contract": "demo1/StateDemo.sol:StateDemo",
						"label": "myUint",
						"offset": 0,
						"slot": "0",
						"type": "t_uint256"
					}
				],
				"types": {
					"t_uint256": {
						"encoding": "inplace",
						"label": "uint256",
						"numberOfBytes": "32"
					}
				}
			},
			"userdoc": {
				"kind": "user",
				"methods": {},
				"version": 1
			}
		}
	}
}