{
	"demo1/56Multi.sol": {
		"MultiSigWallet": {
			"abi": [
				{
					"anonymous": false,
					"inputs": [
						{
							"indexed": true,
							"internalType": "address",
							"name": "owner",
							"type": "address"
						},
						{
							"indexed": true,
							"internalType": "uint256",
							"name": "txId",
							"type": "uint256"
						}
					],
					"name": "Approve",
					"type": "event"
				},
				{
					"anonymous": false,
					"inputs": [
						{
							"indexed": true,
							"internalType": "address",
							"name": "sender",
							"type": "address"
						},
						{
							"indexed": false,
							"internalType": "uint256",
							"name": "amount",
							"type": "uint256"
						}
					],
					"name": "Deposit",
					"type": "event"
				},
				{
					"anonymous": false,
					"inputs": [
						{
							"indexed": true,
							"internalType": "uint256",
							"name": "txId",
							"type": "uint256"
						}
					],
					"name": "Execute",
					"type": "event"
				},
				{
					"anonymous": false,
					"inputs": [
						{
							"indexed": true,
							"internalType": "address",
							"name": "owner",
							"type": "address"
						},
						{
							"indexed": true,
							"internalType": "uint256",
							"name": "txId",
							"type": "uint256"
						}
					],
					"name": "Revoke",
					"type": "event"
				},
				{
					"anonymous": false,
					"inputs": [
						{
							"indexed": true,
							"internalType": "uint256",
							"name": "txId",
							"type": "uint256"
						}
					],
					"name": "Submit",
					"type": "event"
				},
				{
					"inputs": [
						{
							"internalType": "uint256",
							"name": "",
							"type": "uint256"
						},
						{
							"internalType": "address",
							"name": "",
							"type": "address"
						}
					],
					"name": "approved",
					"outputs": [
						{
							"internalType": "bool",
							"name": "",
							"type": "bool"
						}
					],
					"stateMutability": "view",
					"type": "function"
				},
				{
					"inputs": [
						{
							"internalType": "address",
							"name": "",
							"type": "address"
						}
					],
					"name": "isOwner",
					"outputs": [
						{
							"internalType": "bool",
							"name": "",
							"type": "bool"
						}
					],
					"stateMutability": "view",
					"type": "function"
				},
				{
					"inputs": [
						{
							"internalType": "uint256",
							"name": "",
							"type": "uint256"
						}
					],
					"name": "owners",
					"outputs": [
						{
							"internalType": "address",
							"name": "",
							"type": "address"
						}
					],
					"stateMutability": "view",
					"type": "function"
				},
				{
					"inputs": [],
					"name": "required",
					"outputs": [
						{
							"internalType": "uint256",
							"name": "",
							"type": "uint256"
						}
					],
					"stateMutability": "view",
					"type": "function"
				},
				{
					"inputs": [
						{
							"internalType": "uint256",
							"name": "",
							"type": "uint256"
						}
					],
					"name": "transactions",
					"outputs": [
						{
							"internalType": "address",
							"name": "to",
							"type": "address"
						},
						{
							"internalType": "uint256",
							"name": "value",
							"type": "uint256"
						},
						{
							"internalType": "bytes",
							"name": "data",
							"type": "bytes"
						},
						{
							"internalType": "bool",
							"name": "executed",
							"type": "bool"
						}
					],
					"stateMutability": "view",
					"type": "function"
				}
			],
			"devdoc": {
				"kind": "dev",
				"methods": {},
				"version": 1
			},
			"evm": {
				"assembly": "    /* \"demo1/56Multi.sol\":58:1682  contract MultiSigWallet{... */\n  mstore(0x40, 0x80)\n  callvalue\n  dup1\n  iszero\n  tag_1\n  jumpi\n  0x00\n  dup1\n  revert\ntag_1:\n  pop\n  dataSize(sub_0)\n  dup1\n  dataOffset(sub_0)\n  0x00\n  codecopy\n  0x00\n  return\nstop\n\nsub_0: assembly {\n        /* \"demo1/56Multi.sol\":58:1682  contract MultiSigWallet{... */\n      mstore(0x40, 0x80)\n      callvalue\n      dup1\n      iszero\n      tag_1\n      jumpi\n      0x00\n      dup1\n      revert\n    tag_1:\n      pop\n      jumpi(tag_2, lt(calldatasize, 0x04))\n      shr(0xe0, calldataload(0x00))\n      dup1\n      0x025e7c27\n      eq\n      tag_3\n      jumpi\n      dup1\n      0x2f54bf6e\n      eq\n      tag_4\n      jumpi\n      dup1\n      0x8253951a\n      eq\n      tag_5\n      jumpi\n      dup1\n      0x9ace38c2\n      eq\n      tag_6\n      jumpi\n      dup1\n      0xdc8452cd\n      eq\n      tag_7\n      jumpi\n    tag_2:\n      0x00\n      dup1\n      revert\n        /* \"demo1/56Multi.sol\":1215:1238  address[] public owners */\n    tag_3:\n      tag_8\n      tag_9\n      calldatasize\n      0x04\n      tag_10\n      jump\t// in\n    tag_9:\n      tag_11\n      jump\t// in\n    tag_8:\n      mload(0x40)\n      sub(shl(0xa0, 0x01), 0x01)\n        /* \"#utility.yul\":363:395   */\n      swap1\n      swap2\n      and\n        /* \"#utility.yul\":345:396   */\n      dup2\n      mstore\n        /* \"#utility.yul\":333:335   */\n      0x20\n        /* \"#utility.yul\":318:336   */\n      add\n        /* \"demo1/56Multi.sol\":1215:1238  address[] public owners */\n    tag_12:\n      mload(0x40)\n      dup1\n      swap2\n      sub\n      swap1\n      return\n        /* \"demo1/56Multi.sol\":1315:1354  mapping(address => bool) public isOwner */\n    tag_4:\n      tag_14\n      tag_15\n      calldatasize\n      0x04\n      tag_16\n      jump\t// in\n    tag_15:\n      mstore(0x20, 0x01)\n      0x00\n      swap1\n      dup2\n      mstore\n      0x40\n      swap1\n      keccak256\n      sload\n      0xff\n      and\n      dup2\n      jump\n    tag_14:\n      mload(0x40)\n        /* \"#utility.yul\":941:955   */\n      swap1\n      iszero\n        /* \"#utility.yul\":934:956   */\n      iszero\n        /* \"#utility.yul\":916:957   */\n      dup2\n      mstore\n        /* \"#utility.yul\":904:906   */\n      0x20\n        /* \"#utility.yul\":889:907   */\n      add\n        /* \"demo1/56Multi.sol\":1315:1354  mapping(address => bool) public isOwner */\n      tag_12\n        /* \"#utility.yul\":776:963   */\n      jump\n        /* \"demo1/56Multi.sol\":1617:1676  mapping (uint => mapping (address => bool)) public approved */\n    tag_5:\n      tag_14\n      tag_21\n      calldatasize\n      0x04\n      tag_22\n      jump\t// in\n    tag_21:\n      0x04\n      0x20\n      swap1\n      dup2\n      mstore\n      0x00\n      swap3\n      dup4\n      mstore\n      0x40\n      dup1\n      dup5\n      keccak256\n      swap1\n      swap2\n      mstore\n      swap1\n      dup3\n      mstore\n      swap1\n      keccak256\n      sload\n      0xff\n      and\n      dup2\n      jump\n        /* \"demo1/56Multi.sol\":1495:1528  Transaction[] public transactions */\n    tag_6:\n      tag_25\n      tag_26\n      calldatasize\n      0x04\n      tag_10\n      jump\t// in\n    tag_26:\n      tag_27\n      jump\t// in\n    tag_25:\n      mload(0x40)\n      tag_12\n      swap5\n      swap4\n      swap3\n      swap2\n      swap1\n      tag_29\n      jump\t// in\n        /* \"demo1/56Multi.sol\":1445:1465  uint public required */\n    tag_7:\n      tag_30\n      sload(0x02)\n      dup2\n      jump\n    tag_30:\n      mload(0x40)\n        /* \"#utility.yul\":2178:2203   */\n      swap1\n      dup2\n      mstore\n        /* \"#utility.yul\":2166:2168   */\n      0x20\n        /* \"#utility.yul\":2151:2169   */\n      add\n        /* \"demo1/56Multi.sol\":1445:1465  uint public required */\n      tag_12\n        /* \"#utility.yul\":2032:2209   */\n      jump\n        /* \"demo1/56Multi.sol\":1215:1238  address[] public owners */\n    tag_11:\n      0x00\n      dup2\n      dup2\n      sload\n      dup2\n      lt\n      tag_34\n      jumpi\n      0x00\n      dup1\n      revert\n    tag_34:\n      0x00\n      swap2\n      dup3\n      mstore\n      0x20\n      swap1\n      swap2\n      keccak256\n      add\n      sload\n      sub(shl(0xa0, 0x01), 0x01)\n      and\n      swap1\n      pop\n      dup2\n      jump\t// out\n        /* \"demo1/56Multi.sol\":1495:1528  Transaction[] public transactions */\n    tag_27:\n      0x03\n      dup2\n      dup2\n      sload\n      dup2\n      lt\n      tag_36\n      jumpi\n      0x00\n      dup1\n      revert\n    tag_36:\n      0x00\n      swap2\n      dup3\n      mstore\n      0x20\n      swap1\n      swap2\n      keccak256\n      0x04\n      swap1\n      swap2\n      mul\n      add\n      dup1\n      sload\n      0x01\n      dup3\n      add\n      sload\n      0x02\n      dup4\n      add\n      dup1\n      sload\n      sub(shl(0xa0, 0x01), 0x01)\n      swap1\n      swap4\n      and\n      swap5\n      pop\n      swap1\n      swap3\n      swap2\n      tag_38\n      swap1\n      tag_39\n      jump\t// in\n    tag_38:\n      dup1\n      0x1f\n      add\n      0x20\n      dup1\n      swap2\n      div\n      mul\n      0x20\n      add\n      mload(0x40)\n      swap1\n      dup2\n      add\n      0x40\n      mstore\n      dup1\n      swap3\n      swap2\n      swap1\n      dup2\n      dup2\n      mstore\n      0x20\n      add\n      dup3\n      dup1\n      sload\n      tag_40\n      swap1\n      tag_39\n      jump\t// in\n    tag_40:\n      dup1\n      iszero\n      tag_41\n      jumpi\n      dup1\n      0x1f\n      lt\n      tag_42\n      jumpi\n      0x0100\n      dup1\n      dup4\n      sload\n      div\n      mul\n      dup4\n      mstore\n      swap2\n      0x20\n      add\n      swap2\n      jump(tag_41)\n    tag_42:\n      dup3\n      add\n      swap2\n      swap1\n      0x00\n      mstore\n      keccak256(0x00, 0x20)\n      swap1\n    tag_43:\n      dup2\n      sload\n      dup2\n      mstore\n      swap1\n      0x01\n      add\n      swap1\n      0x20\n      add\n      dup1\n      dup4\n      gt\n      tag_43\n      jumpi\n      dup3\n      swap1\n      sub\n      0x1f\n      and\n      dup3\n      add\n      swap2\n    tag_41:\n      pop\n      pop\n      pop\n      0x03\n      swap1\n      swap4\n      add\n      sload\n      swap2\n      swap3\n      pop\n      pop\n      0xff\n      and\n      dup5\n      jump\t// out\n        /* \"#utility.yul\":14:194   */\n    tag_10:\n        /* \"#utility.yul\":73:79   */\n      0x00\n        /* \"#utility.yul\":126:128   */\n      0x20\n        /* \"#utility.yul\":114:123   */\n      dup3\n        /* \"#utility.yul\":105:112   */\n      dup5\n        /* \"#utility.yul\":101:124   */\n      sub\n        /* \"#utility.yul\":97:129   */\n      slt\n        /* \"#utility.yul\":94:146   */\n      iszero\n      tag_47\n      jumpi\n        /* \"#utility.yul\":142:143   */\n      0x00\n        /* \"#utility.yul\":139:140   */\n      dup1\n        /* \"#utility.yul\":132:144   */\n      revert\n        /* \"#utility.yul\":94:146   */\n    tag_47:\n      pop\n        /* \"#utility.yul\":165:188   */\n      calldataload\n      swap2\n        /* \"#utility.yul\":14:194   */\n      swap1\n      pop\n      jump\t// out\n        /* \"#utility.yul\":407:580   */\n    tag_44:\n        /* \"#utility.yul\":475:495   */\n      dup1\n      calldataload\n      sub(shl(0xa0, 0x01), 0x01)\n        /* \"#utility.yul\":524:555   */\n      dup2\n      and\n        /* \"#utility.yul\":514:556   */\n      dup2\n      eq\n        /* \"#utility.yul\":504:574   */\n      tag_50\n      jumpi\n        /* \"#utility.yul\":570:571   */\n      0x00\n        /* \"#utility.yul\":567:568   */\n      dup1\n        /* \"#utility.yul\":560:572   */\n      revert\n        /* \"#utility.yul\":504:574   */\n    tag_50:\n        /* \"#utility.yul\":407:580   */\n      swap2\n      swap1\n      pop\n      jump\t// out\n        /* \"#utility.yul\":585:771   */\n    tag_16:\n        /* \"#utility.yul\":644:650   */\n      0x00\n        /* \"#utility.yul\":697:699   */\n      0x20\n        /* \"#utility.yul\":685:694   */\n      dup3\n        /* \"#utility.yul\":676:683   */\n      dup5\n        /* \"#utility.yul\":672:695   */\n      sub\n        /* \"#utility.yul\":668:700   */\n      slt\n        /* \"#utility.yul\":665:717   */\n      iszero\n      tag_52\n      jumpi\n        /* \"#utility.yul\":713:714   */\n      0x00\n        /* \"#utility.yul\":710:711   */\n      dup1\n        /* \"#utility.yul\":703:715   */\n      revert\n        /* \"#utility.yul\":665:717   */\n    tag_52:\n        /* \"#utility.yul\":736:765   */\n      tag_53\n        /* \"#utility.yul\":755:764   */\n      dup3\n        /* \"#utility.yul\":736:765   */\n      tag_44\n      jump\t// in\n    tag_53:\n        /* \"#utility.yul\":726:765   */\n      swap4\n        /* \"#utility.yul\":585:771   */\n      swap3\n      pop\n      pop\n      pop\n      jump\t// out\n        /* \"#utility.yul\":968:1222   */\n    tag_22:\n        /* \"#utility.yul\":1036:1042   */\n      0x00\n        /* \"#utility.yul\":1044:1050   */\n      dup1\n        /* \"#utility.yul\":1097:1099   */\n      0x40\n        /* \"#utility.yul\":1085:1094   */\n      dup4\n        /* \"#utility.yul\":1076:1083   */\n      dup6\n        /* \"#utility.yul\":1072:1095   */\n      sub\n        /* \"#utility.yul\":1068:1100   */\n      slt\n        /* \"#utility.yul\":1065:1117   */\n      iszero\n      tag_56\n      jumpi\n        /* \"#utility.yul\":1113:1114   */\n      0x00\n        /* \"#utility.yul\":1110:1111   */\n      dup1\n        /* \"#utility.yul\":1103:1115   */\n      revert\n        /* \"#utility.yul\":1065:1117   */\n    tag_56:\n        /* \"#utility.yul\":1149:1158   */\n      dup3\n        /* \"#utility.yul\":1136:1159   */\n      calldataload\n        /* \"#utility.yul\":1126:1159   */\n      swap2\n      pop\n        /* \"#utility.yul\":1178:1216   */\n      tag_57\n        /* \"#utility.yul\":1212:1214   */\n      0x20\n        /* \"#utility.yul\":1201:1210   */\n      dup5\n        /* \"#utility.yul\":1197:1215   */\n      add\n        /* \"#utility.yul\":1178:1216   */\n      tag_44\n      jump\t// in\n    tag_57:\n        /* \"#utility.yul\":1168:1216   */\n      swap1\n      pop\n        /* \"#utility.yul\":968:1222   */\n      swap3\n      pop\n      swap3\n      swap1\n      pop\n      jump\t// out\n        /* \"#utility.yul\":1227:2027   */\n    tag_29:\n        /* \"#utility.yul\":1481:1482   */\n      0x01\n        /* \"#utility.yul\":1477:1478   */\n      dup1\n        /* \"#utility.yul\":1472:1475   */\n      0xa0\n        /* \"#utility.yul\":1468:1479   */\n      shl\n        /* \"#utility.yul\":1464:1483   */\n      sub\n        /* \"#utility.yul\":1456:1462   */\n      dup6\n        /* \"#utility.yul\":1452:1484   */\n      and\n        /* \"#utility.yul\":1441:1450   */\n      dup2\n        /* \"#utility.yul\":1434:1485   */\n      mstore\n        /* \"#utility.yul\":1415:1419   */\n      0x00\n        /* \"#utility.yul\":1504:1506   */\n      0x20\n        /* \"#utility.yul\":1542:1548   */\n      dup6\n        /* \"#utility.yul\":1537:1539   */\n      0x20\n        /* \"#utility.yul\":1526:1535   */\n      dup5\n        /* \"#utility.yul\":1522:1540   */\n      add\n        /* \"#utility.yul\":1515:1549   */\n      mstore\n        /* \"#utility.yul\":1585:1588   */\n      0x80\n        /* \"#utility.yul\":1580:1582   */\n      0x40\n        /* \"#utility.yul\":1569:1578   */\n      dup5\n        /* \"#utility.yul\":1565:1583   */\n      add\n        /* \"#utility.yul\":1558:1589   */\n      mstore\n        /* \"#utility.yul\":1618:1624   */\n      dup5\n        /* \"#utility.yul\":1612:1625   */\n      mload\n        /* \"#utility.yul\":1662:1668   */\n      dup1\n        /* \"#utility.yul\":1656:1659   */\n      0x80\n        /* \"#utility.yul\":1645:1654   */\n      dup6\n        /* \"#utility.yul\":1641:1660   */\n      add\n        /* \"#utility.yul\":1634:1669   */\n      mstore\n        /* \"#utility.yul\":1687:1688   */\n      0x00\n        /* \"#utility.yul\":1697:1838   */\n    tag_59:\n        /* \"#utility.yul\":1711:1717   */\n      dup2\n        /* \"#utility.yul\":1708:1709   */\n      dup2\n        /* \"#utility.yul\":1705:1718   */\n      lt\n        /* \"#utility.yul\":1697:1838   */\n      iszero\n      tag_61\n      jumpi\n        /* \"#utility.yul\":1807:1821   */\n      dup7\n      dup2\n      add\n        /* \"#utility.yul\":1803:1826   */\n      dup4\n      add\n        /* \"#utility.yul\":1797:1827   */\n      mload\n        /* \"#utility.yul\":1772:1789   */\n      dup6\n      dup3\n      add\n        /* \"#utility.yul\":1791:1794   */\n      0xa0\n        /* \"#utility.yul\":1768:1795   */\n      add\n        /* \"#utility.yul\":1761:1828   */\n      mstore\n        /* \"#utility.yul\":1726:1736   */\n      dup3\n      add\n        /* \"#utility.yul\":1697:1838   */\n      jump(tag_59)\n    tag_61:\n        /* \"#utility.yul\":1701:1704   */\n      pop\n        /* \"#utility.yul\":1888:1889   */\n      0x00\n        /* \"#utility.yul\":1882:1885   */\n      0xa0\n        /* \"#utility.yul\":1873:1879   */\n      dup3\n        /* \"#utility.yul\":1862:1871   */\n      dup7\n        /* \"#utility.yul\":1858:1880   */\n      add\n        /* \"#utility.yul\":1854:1886   */\n      add\n        /* \"#utility.yul\":1847:1890   */\n      mstore\n        /* \"#utility.yul\":1958:1961   */\n      0xa0\n        /* \"#utility.yul\":1951:1953   */\n      0x1f\n        /* \"#utility.yul\":1947:1954   */\n      not\n        /* \"#utility.yul\":1942:1944   */\n      0x1f\n        /* \"#utility.yul\":1934:1940   */\n      dup4\n        /* \"#utility.yul\":1930:1945   */\n      add\n        /* \"#utility.yul\":1926:1955   */\n      and\n        /* \"#utility.yul\":1915:1924   */\n      dup6\n        /* \"#utility.yul\":1911:1956   */\n      add\n        /* \"#utility.yul\":1907:1962   */\n      add\n        /* \"#utility.yul\":1899:1962   */\n      swap3\n      pop\n      pop\n      pop\n        /* \"#utility.yul\":2012:2018   */\n      dup3\n        /* \"#utility.yul\":2005:2019   */\n      iszero\n        /* \"#utility.yul\":1998:2020   */\n      iszero\n        /* \"#utility.yul\":1993:1995   */\n      0x60\n        /* \"#utility.yul\":1982:1991   */\n      dup4\n        /* \"#utility.yul\":1978:1996   */\n      add\n        /* \"#utility.yul\":1971:2021   */\n      mstore\n        /* \"#utility.yul\":1227:2027   */\n      swap6\n      swap5\n      pop\n      pop\n      pop\n      pop\n      pop\n      jump\t// out\n        /* \"#utility.yul\":2214:2594   */\n    tag_39:\n        /* \"#utility.yul\":2293:2294   */\n      0x01\n        /* \"#utility.yul\":2289:2301   */\n      dup2\n      dup2\n      shr\n      swap1\n        /* \"#utility.yul\":2336:2348   */\n      dup3\n      and\n      dup1\n        /* \"#utility.yul\":2357:2418   */\n      tag_64\n      jumpi\n        /* \"#utility.yul\":2411:2415   */\n      0x7f\n        /* \"#utility.yul\":2403:2409   */\n      dup3\n        /* \"#utility.yul\":2399:2416   */\n      and\n        /* \"#utility.yul\":2389:2416   */\n      swap2\n      pop\n        /* \"#utility.yul\":2357:2418   */\n    tag_64:\n        /* \"#utility.yul\":2464:2466   */\n      0x20\n        /* \"#utility.yul\":2456:2462   */\n      dup3\n        /* \"#utility.yul\":2453:2467   */\n      lt\n        /* \"#utility.yul\":2433:2451   */\n      dup2\n        /* \"#utility.yul\":2430:2468   */\n      sub\n        /* \"#utility.yul\":2427:2588   */\n      tag_65\n      jumpi\n        /* \"#utility.yul\":2510:2520   */\n      0x4e487b71\n        /* \"#utility.yul\":2505:2508   */\n      0xe0\n        /* \"#utility.yul\":2501:2521   */\n      shl\n        /* \"#utility.yul\":2498:2499   */\n      0x00\n        /* \"#utility.yul\":2491:2522   */\n      mstore\n        /* \"#utility.yul\":2545:2549   */\n      0x22\n        /* \"#utility.yul\":2542:2543   */\n      0x04\n        /* \"#utility.yul\":2535:2550   */\n      mstore\n        /* \"#utility.yul\":2573:2577   */\n      0x24\n        /* \"#utility.yul\":2570:2571   */\n      0x00\n        /* \"#utility.yul\":2563:2578   */\n      revert\n        /* \"#utility.yul\":2427:2588   */\n    tag_65:\n      pop\n        /* \"#utility.yul\":2214:2594   */\n      swap2\n      swap1\n      pop\n      jump\t// out\n\n    auxdata: 0xa264697066735822122069f5a52b8e720ecb0ccaae25d14166ef46be61a1fcd7b92ec5b7c4cbb8b28cac64736f6c63430008170033\n}\n",
				"bytecode": {
					"linkReferences": {},
					"object": "608060405234801561000f575f80fd5b5061036d8061001d5f395ff3fe608060405234801561000f575f80fd5b5060043610610055575f3560e01c8063025e7c27146100595780632f54bf6e146100895780638253951a146100bb5780639ace38c2146100e8578063dc8452cd1461010b575b5f80fd5b61006c610067366004610217565b610122565b6040516001600160a01b0390911681526020015b60405180910390f35b6100ab610097366004610249565b60016020525f908152604090205460ff1681565b6040519015158152602001610080565b6100ab6100c9366004610269565b600460209081525f928352604080842090915290825290205460ff1681565b6100fb6100f6366004610217565b610149565b6040516100809493929190610293565b61011460025481565b604051908152602001610080565b5f8181548110610130575f80fd5b5f918252602090912001546001600160a01b0316905081565b60038181548110610158575f80fd5b5f9182526020909120600490910201805460018201546002830180546001600160a01b03909316945090929161018d906102ff565b80601f01602080910402602001604051908101604052809291908181526020018280546101b9906102ff565b80156102045780601f106101db57610100808354040283529160200191610204565b820191905f5260205f20905b8154815290600101906020018083116101e757829003601f168201915b5050506003909301549192505060ff1684565b5f60208284031215610227575f80fd5b5035919050565b80356001600160a01b0381168114610244575f80fd5b919050565b5f60208284031215610259575f80fd5b6102628261022e565b9392505050565b5f806040838503121561027a575f80fd5b8235915061028a6020840161022e565b90509250929050565b60018060a01b03851681525f60208560208401526080604084015284518060808501525f5b818110156102d45786810183015185820160a0015282016102b8565b505f60a0828601015260a0601f19601f83011685010192505050821515606083015295945050505050565b600181811c9082168061031357607f821691505b60208210810361033157634e487b7160e01b5f52602260045260245ffd5b5091905056fea264697066735822122069f5a52b8e720ecb0ccaae25d14166ef46be61a1fcd7b92ec5b7c4cbb8b28cac64736f6c63430008170033",
					"opcodes": "PUSH1 0x80 PUSH1 0x40 MSTORE CALLVALUE DUP1 ISZERO PUSH2 0xF JUMPI PUSH0 DUP1 REVERT JUMPDEST POP PUSH2 0x36D DUP1 PUSH2 0x1D PUSH0 CODECOPY PUSH0 RETURN INVALID PUSH1 0x80 PUSH1 0x40 MSTORE CALLVALUE DUP1 ISZERO PUSH2 0xF JUMPI PUSH0 DUP1 REVERT JUMPDEST POP PUSH1 0x4 CALLDATASIZE LT PUSH2 0x55 JUMPI PUSH0 CALLDATALOAD PUSH1 0xE0 SHR DUP1 PUSH4 0x25E7C27 EQ PUSH2 0x59 JUMPI DUP1 PUSH4 0x2F54BF6E EQ PUSH2 0x89 JUMPI DUP1 PUSH4 0x8253951A EQ PUSH2 0xBB JUMPI DUP1 PUSH4 0x9ACE38C2 EQ PUSH2 0xE8 JUMPI DUP1 PUSH4 0xDC8452CD EQ PUSH2 0x10B JUMPI JUMPDEST PUSH0 DUP1 REVERT JUMPDEST PUSH2 0x6C PUSH2 0x67 CALLDATASIZE PUSH1 0x4 PUSH2 0x217 JUMP JUMPDEST PUSH2 0x122 JUMP JUMPDEST PUSH1 0x40 MLOAD PUSH1 0x1 PUSH1 0x1 PUSH1 0xA0 SHL SUB SWAP1 SWAP2 AND DUP2 MSTORE PUSH1 0x20 ADD JUMPDEST PUSH1 0x40 MLOAD DUP1 SWAP2 SUB SWAP1 RETURN JUMPDEST PUSH2 0xAB PUSH2 0x97 CALLDATASIZE PUSH1 0x4 PUSH2 0x249 JUMP JUMPDEST PUSH1 0x1 PUSH1 0x20 MSTORE PUSH0 SWAP1 DUP2 MSTORE PUSH1 0x40 SWAP1 KECCAK256 SLOAD PUSH1 0xFF AND DUP2 JUMP JUMPDEST PUSH1 0x40 MLOAD SWAP1 ISZERO ISZERO DUP2 MSTORE PUSH1 0x20 ADD PUSH2 0x80 JUMP JUMPDEST PUSH2 0xAB PUSH2 0xC9 CALLDATASIZE PUSH1 0x4 PUSH2 0x269 JUMP JUMPDEST PUSH1 0x4 PUSH1 0x20 SWAP1 DUP2 MSTORE PUSH0 SWAP3 DUP4 MSTORE PUSH1 0x40 DUP1 DUP5 KECCAK256 SWAP1 SWAP2 MSTORE SWAP1 DUP3 MSTORE SWAP1 KECCAK256 SLOAD PUSH1 0xFF AND DUP2 JUMP JUMPDEST PUSH2 0xFB PUSH2 0xF6 CALLDATASIZE PUSH1 0x4 PUSH2 0x217 JUMP JUMPDEST PUSH2 0x149 JUMP JUMPDEST PUSH1 0x40 MLOAD PUSH2 0x80 SWAP5 SWAP4 SWAP3 SWAP2 SWAP1 PUSH2 0x293 JUMP JUMPDEST PUSH2 0x114 PUSH1 0x2 SLOAD DUP2 JUMP JUMPDEST PUSH1 0x40 MLOAD SWAP1 DUP2 MSTORE PUSH1 0x20 ADD PUSH2 0x80 JUMP JUMPDEST PUSH0 DUP2 DUP2 SLOAD DUP2 LT PUSH2 0x130 JUMPI PUSH0 DUP1 REVERT JUMPDEST PUSH0 SWAP2 DUP3 MSTORE PUSH1 0x20 SWAP1 SWAP2 KECCAK256 ADD SLOAD PUSH1 0x1 PUSH1 0x1 PUSH1 0xA0 SHL SUB AND SWAP1 POP DUP2 JUMP JUMPDEST PUSH1 0x3 DUP2 DUP2 SLOAD DUP2 LT PUSH2 0x158 JUMPI PUSH0 DUP1 REVERT JUMPDEST PUSH0 SWAP2 DUP3 MSTORE PUSH1 0x20 SWAP1 SWAP2 KECCAK256 PUSH1 0x4 SWAP1 SWAP2 MUL ADD DUP1 SLOAD PUSH1 0x1 DUP3 ADD SLOAD PUSH1 0x2 DUP4 ADD DUP1 SLOAD PUSH1 0x1 PUSH1 0x1 PUSH1 0xA0 SHL SUB SWAP1 SWAP4 AND SWAP5 POP SWAP1 SWAP3 SWAP2 PUSH2 0x18D SWAP1 PUSH2 0x2FF JUMP JUMPDEST DUP1 PUSH1 0x1F ADD PUSH1 0x20 DUP1 SWAP2 DIV MUL PUSH1 0x20 ADD PUSH1 0x40 MLOAD SWAP1 DUP2 ADD PUSH1 0x40 MSTORE DUP1 SWAP3 SWAP2 SWAP1 DUP2 DUP2 MSTORE PUSH1 0x20 ADD DUP3 DUP1 SLOAD PUSH2 0x1B9 SWAP1 PUSH2 0x2FF JUMP JUMPDEST DUP1 ISZERO PUSH2 0x204 JUMPI DUP1 PUSH1 0x1F LT PUSH2 0x1DB JUMPI PUSH2 0x100 DUP1 DUP4 SLOAD DIV MUL DUP4 MSTORE SWAP2 PUSH1 0x20 ADD SWAP2 PUSH2 0x204 JUMP JUMPDEST DUP3 ADD SWAP2 SWAP1 PUSH0 MSTORE PUSH1 0x20 PUSH0 KECCAK256 SWAP1 JUMPDEST DUP2 SLOAD DUP2 MSTORE SWAP1 PUSH1 0x1 ADD SWAP1 PUSH1 0x20 ADD DUP1 DUP4 GT PUSH2 0x1E7 JUMPI DUP3 SWAP1 SUB PUSH1 0x1F AND DUP3 ADD SWAP2 JUMPDEST POP POP POP PUSH1 0x3 SWAP1 SWAP4 ADD SLOAD SWAP2 SWAP3 POP POP PUSH1 0xFF AND DUP5 JUMP JUMPDEST PUSH0 PUSH1 0x20 DUP3 DUP5 SUB SLT ISZERO PUSH2 0x227 JUMPI PUSH0 DUP1 REVERT JUMPDEST POP CALLDATALOAD SWAP2 SWAP1 POP JUMP JUMPDEST DUP1 CALLDATALOAD PUSH1 0x1 PUSH1 0x1 PUSH1 0xA0 SHL SUB DUP2 AND DUP2 EQ PUSH2 0x244 JUMPI PUSH0 DUP1 REVERT JUMPDEST SWAP2 SWAP1 POP JUMP JUMPDEST PUSH0 PUSH1 0x20 DUP3 DUP5 SUB SLT ISZERO PUSH2 0x259 JUMPI PUSH0 DUP1 REVERT JUMPDEST PUSH2 0x262 DUP3 PUSH2 0x22E JUMP JUMPDEST SWAP4 SWAP3 POP POP POP JUMP JUMPDEST PUSH0 DUP1 PUSH1 0x40 DUP4 DUP6 SUB SLT ISZERO PUSH2 0x27A JUMPI PUSH0 DUP1 REVERT JUMPDEST DUP3 CALLDATALOAD SWAP2 POP PUSH2 0x28A PUSH1 0x20 DUP5 ADD PUSH2 0x22E JUMP JUMPDEST SWAP1 POP SWAP3 POP SWAP3 SWAP1 POP JUMP JUMPDEST PUSH1 0x1 DUP1 PUSH1 0xA0 SHL SUB DUP6 AND DUP2 MSTORE PUSH0 PUSH1 0x20 DUP6 PUSH1 0x20 DUP5 ADD MSTORE PUSH1 0x80 PUSH1 0x40 DUP5 ADD MSTORE DUP5 MLOAD DUP1 PUSH1 0x80 DUP6 ADD MSTORE PUSH0 JUMPDEST DUP2 DUP2 LT ISZERO PUSH2 0x2D4 JUMPI DUP7 DUP2 ADD DUP4 ADD MLOAD DUP6 DUP3 ADD PUSH1 0xA0 ADD MSTORE DUP3 ADD PUSH2 0x2B8 JUMP JUMPDEST POP PUSH0 PUSH1 0xA0 DUP3 DUP7 ADD ADD MSTORE PUSH1 0xA0 PUSH1 0x1F NOT PUSH1 0x1F DUP4 ADD AND DUP6 ADD ADD SWAP3 POP POP POP DUP3 ISZERO ISZERO PUSH1 0x60 DUP4 ADD MSTORE SWAP6 SWAP5 POP POP POP POP POP JUMP JUMPDEST PUSH1 0x1 DUP2 DUP2 SHR SWAP1 DUP3 AND DUP1 PUSH2 0x313 JUMPI PUSH1 0x7F DUP3 AND SWAP2 POP JUMPDEST PUSH1 0x20 DUP3 LT DUP2 SUB PUSH2 0x331 JUMPI PUSH4 0x4E487B71 PUSH1 0xE0 SHL PUSH0 MSTORE PUSH1 0x22 PUSH1 0x4 MSTORE PUSH1 0x24 PUSH0 REVERT JUMPDEST POP SWAP2 SWAP1 POP JUMP INVALID LOG2 PUSH5 0x6970667358 0x22 SLT KECCAK256 PUSH10 0xF5A52B8E720ECB0CCAAE 0x25 0xD1 COINBASE PUSH7 0xEF46BE61A1FCD7 0xB9 0x2E 0xC5 0xB7 0xC4 0xCB 0xB8 0xB2 DUP13 0xAC PUSH5 0x736F6C6343 STOP ADDMOD OR STOP CALLER "
				},
				"gasEstimates": {
					"creation": {
						"codeDepositCost": "175400",
						"executionCost": "218",
						"totalCost": "175618"
					},
					"external": {
						"approved(uint256,address)": "2648",
						"isOwner(address)": "2528",
						"owners(uint256)": "4577",
						"required()": "2360",
						"transactions(uint256)": "infinite"
					}
				},
				"methodIdentifiers": {
					"approved(uint256,address)": "8253951a",
					"isOwner(address)": "2f54bf6e",
					"owners(uint256)": "025e7c27",
					"required()": "dc8452cd",
					"transactions(uint256)": "9ace38c2"
				}
			},
			"storageLayout": {
				"storage": [
					{
						"astId": 39,
						"contract": "demo1/56Multi.sol:MultiSigWallet",
						"label": "owners",
						"offset": 0,
						"slot": "0",
						"type": "t_array(t_address)dyn_storage"
					},
					{
						"astId": 43,
						"contract": "demo1/56Multi.sol:MultiSigWallet",
						"label": "isOwner",
						"offset": 0,
						"slot": "1",
						"type": "t_mapping(t_address,t_bool)"
					},
					{
						"astId": 45,
						"contract": "demo1/56Multi.sol:MultiSigWallet",
						"label": "required",
						"offset": 0,
						"slot": "2",
						"type": "t_uint256"
					},
					{
						"astId": 49,
						"contract": "demo1/56Multi.sol:MultiSigWallet",
						"label": "transactions",
						"offset": 0,
						"slot": "3",
						"type": "t_array(t_struct(Transaction)36_storage)dyn_storage"
					},
					{
						"astId": 55,
						"contract": "demo1/56Multi.sol:MultiSigWallet",
						"label": "approved",
						"offset": 0,
						"slot": "4",
						"type": "t_mapping(t_uint256,t_mapping(t_address,t_bool))"
					}
				],
				"types": {
					"t_address": {
						"encoding": "inplace",
						"label": "address",
						"numberOfBytes": "20"
					},
					"t_array(t_address)dyn_storage": {
						"base": "t_address",
						"encoding": "dynamic_array",
						"label": "address[]",
						"numberOfBytes": "32"
					},
					"t_array(t_struct(Transaction)36_storage)dyn_storage": {
						"base": "t_struct(Transaction)36_storage",
						"encoding": "dynamic_array",
						"label": "struct MultiSigWallet.Transaction[]",
						"numberOfBytes": "32"
					},
					"t_bool": {
						"encoding": "inplace",
						"label": "bool",
						"numberOfBytes": "1"
					},
					"t_bytes_storage": {
						"encoding": "bytes",
						"label": "bytes",
						"numberOfBytes": "32"
					},
					"t_mapping(t_address,t_bool)": {
						"encoding": "mapping",
						"key": "t_address",
						"label": "mapping(address => bool)",
						"numberOfBytes": "32",
						"value": "t_bool"
					},
					"t_mapping(t_uint256,t_mapping(t_address,t_bool))": {
						"encoding": "mapping",
						"key": "t_uint256",
						"label": "mapping(uint256 => mapping(address => bool))",
						"numberOfBytes": "32",
						"value": "t_mapping(t_address,t_bool)"
					},
					"t_struct(Transaction)36_storage": {
						"encoding": "inplace",
						"label": "struct MultiSigWallet.Transaction",
						"members": [
							{
								"astId": 29,
								"contract": "demo1/56Multi.sol:MultiSigWallet",
								"label": "to",
								"offset": 0,
								"slot": "0",
								"type": "t_address"
							},
							{
								"astId": 31,
								"contract": "demo1/56Multi.sol:MultiSigWallet",
								"label": "value",
								"offset": 0,
								"slot": "1",
								"type": "t_uint256"
							},
							{
								"astId": 33,
								"contract": "demo1/56Multi.sol:MultiSigWallet",
								"label": "data",
								"offset": 0,
								"slot": "2",
								"type": "t_bytes_storage"
							},
							{
								"astId": 35,
								"contract": "demo1/56Multi.sol:MultiSigWallet",
								"label": "executed",
								"offset": 0,
								"slot": "3",
								"type": "t_bool"
							}
						],
						"numberOfBytes": "128"
					},
					"t_uint256": {
						"encoding": "inplace",
						"label": "uint256",
						"numberOfBytes": "32"
					}
				}
			},
			"userdoc": {
				"kind": "user",
				"methods": {},
				"version": 1
			}
		}
	}
}