{
	"demo1/56Multi.sol": {
		"MultiSigWallet": {
			"abi": [
				{
					"inputs": [
						{
							"internalType": "address[]",
							"name": "_owners",
							"type": "address[]"
						},
						{
							"internalType": "uint256",
							"name": "_required",
							"type": "uint256"
						}
					],
					"stateMutability": "nonpayable",
					"type": "constructor"
				},
				{
					"anonymous": false,
					"inputs": [
						{
							"indexed": true,
							"internalType": "address",
							"name": "owner",
							"type": "address"
						},
						{
							"indexed": true,
							"internalType": "uint256",
							"name": "txId",
							"type": "uint256"
						}
					],
					"name": "Approve",
					"type": "event"
				},
				{
					"anonymous": false,
					"inputs": [
						{
							"indexed": true,
							"internalType": "address",
							"name": "sender",
							"type": "address"
						},
						{
							"indexed": false,
							"internalType": "uint256",
							"name": "amount",
							"type": "uint256"
						}
					],
					"name": "Deposit",
					"type": "event"
				},
				{
					"anonymous": false,
					"inputs": [
						{
							"indexed": true,
							"internalType": "uint256",
							"name": "txId",
							"type": "uint256"
						}
					],
					"name": "Execute",
					"type": "event"
				},
				{
					"anonymous": false,
					"inputs": [
						{
							"indexed": true,
							"internalType": "address",
							"name": "owner",
							"type": "address"
						},
						{
							"indexed": true,
							"internalType": "uint256",
							"name": "txId",
							"type": "uint256"
						}
					],
					"name": "Revoke",
					"type": "event"
				},
				{
					"anonymous": false,
					"inputs": [
						{
							"indexed": true,
							"internalType": "uint256",
							"name": "txId",
							"type": "uint256"
						}
					],
					"name": "Submit",
					"type": "event"
				},
				{
					"inputs": [
						{
							"internalType": "uint256",
							"name": "_txId",
							"type": "uint256"
						}
					],
					"name": "approve",
					"outputs": [],
					"stateMutability": "nonpayable",
					"type": "function"
				},
				{
					"inputs": [
						{
							"internalType": "uint256",
							"name": "",
							"type": "uint256"
						},
						{
							"internalType": "address",
							"name": "",
							"type": "address"
						}
					],
					"name": "approved",
					"outputs": [
						{
							"internalType": "bool",
							"name": "",
							"type": "bool"
						}
					],
					"stateMutability": "view",
					"type": "function"
				},
				{
					"inputs": [
						{
							"internalType": "uint256",
							"name": "_txId",
							"type": "uint256"
						}
					],
					"name": "execute",
					"outputs": [],
					"stateMutability": "nonpayable",
					"type": "function"
				},
				{
					"inputs": [
						{
							"internalType": "address",
							"name": "",
							"type": "address"
						}
					],
					"name": "isOwner",
					"outputs": [
						{
							"internalType": "bool",
							"name": "",
							"type": "bool"
						}
					],
					"stateMutability": "view",
					"type": "function"
				},
				{
					"inputs": [
						{
							"internalType": "uint256",
							"name": "",
							"type": "uint256"
						}
					],
					"name": "owners",
					"outputs": [
						{
							"internalType": "address",
							"name": "",
							"type": "address"
						}
					],
					"stateMutability": "view",
					"type": "function"
				},
				{
					"inputs": [],
					"name": "required",
					"outputs": [
						{
							"internalType": "uint256",
							"name": "",
							"type": "uint256"
						}
					],
					"stateMutability": "view",
					"type": "function"
				},
				{
					"inputs": [
						{
							"internalType": "address",
							"name": "_to",
							"type": "address"
						},
						{
							"internalType": "uint256",
							"name": "_value",
							"type": "uint256"
						},
						{
							"internalType": "bytes",
							"name": "_data",
							"type": "bytes"
						}
					],
					"name": "submit",
					"outputs": [],
					"stateMutability": "nonpayable",
					"type": "function"
				},
				{
					"inputs": [
						{
							"internalType": "uint256",
							"name": "",
							"type": "uint256"
						}
					],
					"name": "transactions",
					"outputs": [
						{
							"internalType": "address",
							"name": "to",
							"type": "address"
						},
						{
							"internalType": "uint256",
							"name": "value",
							"type": "uint256"
						},
						{
							"internalType": "bytes",
							"name": "data",
							"type": "bytes"
						},
						{
							"internalType": "bool",
							"name": "executed",
							"type": "bool"
						}
					],
					"stateMutability": "view",
					"type": "function"
				},
				{
					"stateMutability": "payable",
					"type": "receive"
				}
			],
			"devdoc": {
				"kind": "dev",
				"methods": {},
				"version": 1
			},
			"evm": {
				"assembly": "    /* \"demo1/56Multi.sol\":58:5502  contract MultiSigWallet{... */\n  mstore(0x40, 0x80)\n    /* \"demo1/56Multi.sol\":1729:2443  constructor(address[] memory _owners, uint _required) {... */\n  callvalue\n  dup1\n  iszero\n  tag_1\n  jumpi\n  0x00\n  dup1\n  revert\ntag_1:\n  pop\n  mload(0x40)\n  sub(codesize, bytecodeSize)\n  dup1\n  bytecodeSize\n  dup4\n  codecopy\n  dup2\n  add\n  0x40\n  dup2\n  swap1\n  mstore\n  tag_2\n  swap2\n  tag_3\n  jump\t// in\ntag_2:\n    /* \"demo1/56Multi.sol\":1862:1863  0 */\n  0x00\n    /* \"demo1/56Multi.sol\":1847:1854  _owners */\n  dup3\n    /* \"demo1/56Multi.sol\":1847:1861  _owners.length */\n  mload\n    /* \"demo1/56Multi.sol\":1847:1863  _owners.length>0 */\n  gt\n    /* \"demo1/56Multi.sol\":1839:1883  require(_owners.length>0, \"owners required\") */\n  tag_6\n  jumpi\n  mload(0x40)\n  shl(0xe5, 0x461bcd)\n  dup2\n  mstore\n    /* \"#utility.yul\":1727:1729   */\n  0x20\n    /* \"demo1/56Multi.sol\":1839:1883  require(_owners.length>0, \"owners required\") */\n  0x04\n  dup3\n  add\n    /* \"#utility.yul\":1709:1730   */\n  mstore\n    /* \"#utility.yul\":1766:1768   */\n  0x0f\n    /* \"#utility.yul\":1746:1764   */\n  0x24\n  dup3\n  add\n    /* \"#utility.yul\":1739:1769   */\n  mstore\n  shl(0x8a, 0x1bdddb995c9cc81c995c5d5a5c9959)\n    /* \"#utility.yul\":1785:1803   */\n  0x44\n  dup3\n  add\n    /* \"#utility.yul\":1778:1823   */\n  mstore\n    /* \"#utility.yul\":1840:1858   */\n  0x64\n  add\n    /* \"demo1/56Multi.sol\":1839:1883  require(_owners.length>0, \"owners required\") */\ntag_7:\n  mload(0x40)\n  dup1\n  swap2\n  sub\n  swap1\n  revert\ntag_6:\n    /* \"demo1/56Multi.sol\":1912:1913  0 */\n  0x00\n    /* \"demo1/56Multi.sol\":1902:1911  _required */\n  dup2\n    /* \"demo1/56Multi.sol\":1902:1913  _required>0 */\n  gt\n    /* \"demo1/56Multi.sol\":1902:1942  _required>0 && _required<=_owners.length */\n  dup1\n  iszero\n  tag_9\n  jumpi\n  pop\n    /* \"demo1/56Multi.sol\":1928:1935  _owners */\n  dup2\n    /* \"demo1/56Multi.sol\":1928:1942  _owners.length */\n  mload\n    /* \"demo1/56Multi.sol\":1917:1926  _required */\n  dup2\n    /* \"demo1/56Multi.sol\":1917:1942  _required<=_owners.length */\n  gt\n  iszero\n    /* \"demo1/56Multi.sol\":1902:1942  _required>0 && _required<=_owners.length */\ntag_9:\n    /* \"demo1/56Multi.sol\":1894:1967  require(_required>0 && _required<=_owners.length, \"_required Incorrecto\") */\n  tag_10\n  jumpi\n  mload(0x40)\n  shl(0xe5, 0x461bcd)\n  dup2\n  mstore\n    /* \"#utility.yul\":2071:2073   */\n  0x20\n    /* \"demo1/56Multi.sol\":1894:1967  require(_required>0 && _required<=_owners.length, \"_required Incorrecto\") */\n  0x04\n  dup3\n  add\n    /* \"#utility.yul\":2053:2074   */\n  mstore\n    /* \"#utility.yul\":2110:2112   */\n  0x14\n    /* \"#utility.yul\":2090:2108   */\n  0x24\n  dup3\n  add\n    /* \"#utility.yul\":2083:2113   */\n  mstore\n    /* \"#utility.yul\":2149:2171   */\n  0x5f726571756972656420496e636f72726563746f000000000000000000000000\n    /* \"#utility.yul\":2129:2147   */\n  0x44\n  dup3\n  add\n    /* \"#utility.yul\":2122:2172   */\n  mstore\n    /* \"#utility.yul\":2189:2207   */\n  0x64\n  add\n    /* \"demo1/56Multi.sol\":1894:1967  require(_required>0 && _required<=_owners.length, \"_required Incorrecto\") */\n  tag_7\n    /* \"#utility.yul\":1869:2213   */\n  jump\n    /* \"demo1/56Multi.sol\":1894:1967  require(_required>0 && _required<=_owners.length, \"_required Incorrecto\") */\ntag_10:\n    /* \"demo1/56Multi.sol\":2042:2048  uint i */\n  0x00\n    /* \"demo1/56Multi.sol\":2037:2405  for (uint i=0; i<_owners.length; i++) {... */\ntag_13:\n    /* \"demo1/56Multi.sol\":2054:2061  _owners */\n  dup3\n    /* \"demo1/56Multi.sol\":2054:2068  _owners.length */\n  mload\n    /* \"demo1/56Multi.sol\":2052:2053  i */\n  dup2\n    /* \"demo1/56Multi.sol\":2052:2068  i<_owners.length */\n  lt\n    /* \"demo1/56Multi.sol\":2037:2405  for (uint i=0; i<_owners.length; i++) {... */\n  iszero\n  tag_14\n  jumpi\n    /* \"demo1/56Multi.sol\":2090:2103  address owner */\n  0x00\n    /* \"demo1/56Multi.sol\":2104:2111  _owners */\n  dup4\n    /* \"demo1/56Multi.sol\":2112:2113  i */\n  dup3\n    /* \"demo1/56Multi.sol\":2104:2114  _owners[i] */\n  dup2\n  mload\n  dup2\n  lt\n  tag_17\n  jumpi\n  tag_17\n  tag_18\n  jump\t// in\ntag_17:\n  0x20\n  mul\n  0x20\n  add\n  add\n  mload\n    /* \"demo1/56Multi.sol\":2090:2114  address owner=_owners[i] */\n  swap1\n  pop\n    /* \"demo1/56Multi.sol\":2188:2189  0 */\n  0x00\n  sub(shl(0xa0, 0x01), 0x01)\n    /* \"demo1/56Multi.sol\":2171:2190  owner != address(0) */\n  and\n    /* \"demo1/56Multi.sol\":2171:2176  owner */\n  dup2\n  sub(shl(0xa0, 0x01), 0x01)\n    /* \"demo1/56Multi.sol\":2171:2190  owner != address(0) */\n  and\n  sub\n    /* \"demo1/56Multi.sol\":2163:2210  require(owner != address(0), \"owners required\") */\n  tag_19\n  jumpi\n  mload(0x40)\n  shl(0xe5, 0x461bcd)\n  dup2\n  mstore\n    /* \"#utility.yul\":1727:1729   */\n  0x20\n    /* \"demo1/56Multi.sol\":2163:2210  require(owner != address(0), \"owners required\") */\n  0x04\n  dup3\n  add\n    /* \"#utility.yul\":1709:1730   */\n  mstore\n    /* \"#utility.yul\":1766:1768   */\n  0x0f\n    /* \"#utility.yul\":1746:1764   */\n  0x24\n  dup3\n  add\n    /* \"#utility.yul\":1739:1769   */\n  mstore\n  shl(0x8a, 0x1bdddb995c9cc81c995c5d5a5c9959)\n    /* \"#utility.yul\":1785:1803   */\n  0x44\n  dup3\n  add\n    /* \"#utility.yul\":1778:1823   */\n  mstore\n    /* \"#utility.yul\":1840:1858   */\n  0x64\n  add\n    /* \"demo1/56Multi.sol\":2163:2210  require(owner != address(0), \"owners required\") */\n  tag_7\n    /* \"#utility.yul\":1525:1864   */\n  jump\n    /* \"demo1/56Multi.sol\":2163:2210  require(owner != address(0), \"owners required\") */\ntag_19:\n  sub(shl(0xa0, 0x01), 0x01)\n    /* \"demo1/56Multi.sol\":2279:2293  isOwner[owner] */\n  dup2\n  and\n  0x00\n  swap1\n  dup2\n  mstore\n    /* \"demo1/56Multi.sol\":2279:2286  isOwner */\n  0x01\n    /* \"demo1/56Multi.sol\":2279:2293  isOwner[owner] */\n  0x20\n  mstore\n  0x40\n  swap1\n  keccak256\n  sload\n  0xff\n  and\n    /* \"demo1/56Multi.sol\":2278:2293  !isOwner[owner] */\n  iszero\n    /* \"demo1/56Multi.sol\":2270:2324  require(!isOwner[owner], \"Owner debe ser sin agregar\") */\n  tag_21\n  jumpi\n  mload(0x40)\n  shl(0xe5, 0x461bcd)\n  dup2\n  mstore\n    /* \"#utility.yul\":2552:2554   */\n  0x20\n    /* \"demo1/56Multi.sol\":2270:2324  require(!isOwner[owner], \"Owner debe ser sin agregar\") */\n  0x04\n  dup3\n  add\n    /* \"#utility.yul\":2534:2555   */\n  mstore\n    /* \"#utility.yul\":2591:2593   */\n  0x1a\n    /* \"#utility.yul\":2571:2589   */\n  0x24\n  dup3\n  add\n    /* \"#utility.yul\":2564:2594   */\n  mstore\n    /* \"#utility.yul\":2630:2658   */\n  0x4f776e65722064656265207365722073696e2061677265676172000000000000\n    /* \"#utility.yul\":2610:2628   */\n  0x44\n  dup3\n  add\n    /* \"#utility.yul\":2603:2659   */\n  mstore\n    /* \"#utility.yul\":2676:2694   */\n  0x64\n  add\n    /* \"demo1/56Multi.sol\":2270:2324  require(!isOwner[owner], \"Owner debe ser sin agregar\") */\n  tag_7\n    /* \"#utility.yul\":2350:2700   */\n  jump\n    /* \"demo1/56Multi.sol\":2270:2324  require(!isOwner[owner], \"Owner debe ser sin agregar\") */\ntag_21:\n    /* \"demo1/56Multi.sol\":2339:2345  owners */\n  0x00\n    /* \"demo1/56Multi.sol\":2339:2357  owners.push(owner) */\n  dup1\n  sload\n  0x01\n  dup2\n  dup2\n  add\n  dup4\n  sstore\n  0x290decd9548b62a8d60345a988386fc84ba6bc95484008f6362f93160ef3e563\n  swap1\n  swap2\n  add\n  dup1\n  sload\n  sub(shl(0xa0, 0x01), 0x01)\n  swap1\n  swap5\n  and\n  not(sub(shl(0xa0, 0x01), 0x01))\n  swap1\n  swap5\n  and\n  dup5\n  or\n  swap1\n  sstore\n    /* \"demo1/56Multi.sol\":2372:2386  isOwner[owner] */\n  swap2\n  dup2\n  mstore\n    /* \"demo1/56Multi.sol\":2339:2357  owners.push(owner) */\n  0x20\n    /* \"demo1/56Multi.sol\":2372:2386  isOwner[owner] */\n  dup3\n  swap1\n  mstore\n  0x40\n  swap1\n  keccak256\n    /* \"demo1/56Multi.sol\":2372:2393  isOwner[owner] = true */\n  dup1\n  sload\n  not(0xff)\n  and\n  dup3\n  or\n  swap1\n  sstore\n    /* \"demo1/56Multi.sol\":2070:2073  i++ */\n  add\n    /* \"demo1/56Multi.sol\":2037:2405  for (uint i=0; i<_owners.length; i++) {... */\n  jump(tag_13)\ntag_14:\n  pop\n    /* \"demo1/56Multi.sol\":2415:2423  required */\n  0x02\n    /* \"demo1/56Multi.sol\":2415:2435  required = _required */\n  sstore\n  pop\n    /* \"demo1/56Multi.sol\":58:5502  contract MultiSigWallet{... */\n  jump(tag_28)\n    /* \"#utility.yul\":14:141   */\ntag_26:\n    /* \"#utility.yul\":75:85   */\n  0x4e487b71\n    /* \"#utility.yul\":70:73   */\n  0xe0\n    /* \"#utility.yul\":66:86   */\n  shl\n    /* \"#utility.yul\":63:64   */\n  0x00\n    /* \"#utility.yul\":56:87   */\n  mstore\n    /* \"#utility.yul\":106:110   */\n  0x41\n    /* \"#utility.yul\":103:104   */\n  0x04\n    /* \"#utility.yul\":96:111   */\n  mstore\n    /* \"#utility.yul\":130:134   */\n  0x24\n    /* \"#utility.yul\":127:128   */\n  0x00\n    /* \"#utility.yul\":120:135   */\n  revert\n    /* \"#utility.yul\":146:323   */\ntag_27:\n    /* \"#utility.yul\":225:238   */\n  dup1\n  mload\n  sub(shl(0xa0, 0x01), 0x01)\n    /* \"#utility.yul\":267:298   */\n  dup2\n  and\n    /* \"#utility.yul\":257:299   */\n  dup2\n  eq\n    /* \"#utility.yul\":247:317   */\n  tag_31\n  jumpi\n    /* \"#utility.yul\":313:314   */\n  0x00\n    /* \"#utility.yul\":310:311   */\n  dup1\n    /* \"#utility.yul\":303:315   */\n  revert\n    /* \"#utility.yul\":247:317   */\ntag_31:\n    /* \"#utility.yul\":146:323   */\n  swap2\n  swap1\n  pop\n  jump\t// out\n    /* \"#utility.yul\":328:1520   */\ntag_3:\n    /* \"#utility.yul\":432:438   */\n  0x00\n    /* \"#utility.yul\":440:446   */\n  dup1\n    /* \"#utility.yul\":493:495   */\n  0x40\n    /* \"#utility.yul\":481:490   */\n  dup4\n    /* \"#utility.yul\":472:479   */\n  dup6\n    /* \"#utility.yul\":468:491   */\n  sub\n    /* \"#utility.yul\":464:496   */\n  slt\n    /* \"#utility.yul\":461:513   */\n  iszero\n  tag_33\n  jumpi\n    /* \"#utility.yul\":509:510   */\n  0x00\n    /* \"#utility.yul\":506:507   */\n  dup1\n    /* \"#utility.yul\":499:511   */\n  revert\n    /* \"#utility.yul\":461:513   */\ntag_33:\n    /* \"#utility.yul\":536:552   */\n  dup3\n  mload\n  sub(shl(0x40, 0x01), 0x01)\n    /* \"#utility.yul\":601:615   */\n  dup1\n  dup3\n  gt\n    /* \"#utility.yul\":598:632   */\n  iszero\n  tag_34\n  jumpi\n    /* \"#utility.yul\":628:629   */\n  0x00\n    /* \"#utility.yul\":625:626   */\n  dup1\n    /* \"#utility.yul\":618:630   */\n  revert\n    /* \"#utility.yul\":598:632   */\ntag_34:\n    /* \"#utility.yul\":666:672   */\n  dup2\n    /* \"#utility.yul\":655:664   */\n  dup6\n    /* \"#utility.yul\":651:673   */\n  add\n    /* \"#utility.yul\":641:673   */\n  swap2\n  pop\n    /* \"#utility.yul\":711:718   */\n  dup6\n    /* \"#utility.yul\":704:708   */\n  0x1f\n    /* \"#utility.yul\":700:702   */\n  dup4\n    /* \"#utility.yul\":696:709   */\n  add\n    /* \"#utility.yul\":692:719   */\n  slt\n    /* \"#utility.yul\":682:737   */\n  tag_35\n  jumpi\n    /* \"#utility.yul\":733:734   */\n  0x00\n    /* \"#utility.yul\":730:731   */\n  dup1\n    /* \"#utility.yul\":723:735   */\n  revert\n    /* \"#utility.yul\":682:737   */\ntag_35:\n    /* \"#utility.yul\":762:764   */\n  dup2\n    /* \"#utility.yul\":756:765   */\n  mload\n    /* \"#utility.yul\":784:788   */\n  0x20\n    /* \"#utility.yul\":807:809   */\n  dup3\n    /* \"#utility.yul\":803:805   */\n  dup3\n    /* \"#utility.yul\":800:810   */\n  gt\n    /* \"#utility.yul\":797:833   */\n  iszero\n  tag_37\n  jumpi\n    /* \"#utility.yul\":813:831   */\n  tag_37\n  tag_26\n  jump\t// in\ntag_37:\n    /* \"#utility.yul\":859:861   */\n  dup2\n    /* \"#utility.yul\":856:857   */\n  0x05\n    /* \"#utility.yul\":852:862   */\n  shl\n    /* \"#utility.yul\":891:893   */\n  0x40\n    /* \"#utility.yul\":885:894   */\n  mload\n    /* \"#utility.yul\":954:956   */\n  0x1f\n    /* \"#utility.yul\":950:957   */\n  not\n    /* \"#utility.yul\":945:947   */\n  0x3f\n    /* \"#utility.yul\":941:943   */\n  dup4\n    /* \"#utility.yul\":937:948   */\n  add\n    /* \"#utility.yul\":933:958   */\n  and\n    /* \"#utility.yul\":925:931   */\n  dup2\n    /* \"#utility.yul\":921:959   */\n  add\n    /* \"#utility.yul\":1009:1015   */\n  dup2\n    /* \"#utility.yul\":997:1007   */\n  dup2\n    /* \"#utility.yul\":994:1016   */\n  lt\n    /* \"#utility.yul\":989:991   */\n  dup7\n    /* \"#utility.yul\":977:987   */\n  dup3\n    /* \"#utility.yul\":974:992   */\n  gt\n    /* \"#utility.yul\":971:1017   */\n  or\n    /* \"#utility.yul\":968:1040   */\n  iszero\n  tag_39\n  jumpi\n    /* \"#utility.yul\":1020:1038   */\n  tag_39\n  tag_26\n  jump\t// in\ntag_39:\n    /* \"#utility.yul\":1056:1058   */\n  0x40\n    /* \"#utility.yul\":1049:1071   */\n  mstore\n    /* \"#utility.yul\":1106:1124   */\n  swap3\n  dup4\n  mstore\n    /* \"#utility.yul\":1140:1155   */\n  dup2\n  dup4\n  add\n  swap4\n  pop\n    /* \"#utility.yul\":1182:1193   */\n  dup5\n  dup2\n  add\n    /* \"#utility.yul\":1178:1198   */\n  dup3\n  add\n  swap3\n    /* \"#utility.yul\":1210:1229   */\n  dup10\n  dup5\n  gt\n    /* \"#utility.yul\":1207:1246   */\n  iszero\n  tag_40\n  jumpi\n    /* \"#utility.yul\":1242:1243   */\n  0x00\n    /* \"#utility.yul\":1239:1240   */\n  dup1\n    /* \"#utility.yul\":1232:1244   */\n  revert\n    /* \"#utility.yul\":1207:1246   */\ntag_40:\n    /* \"#utility.yul\":1266:1277   */\n  swap5\n  dup3\n  add\n  swap5\n    /* \"#utility.yul\":1286:1445   */\ntag_41:\n    /* \"#utility.yul\":1302:1308   */\n  dup4\n    /* \"#utility.yul\":1297:1300   */\n  dup7\n    /* \"#utility.yul\":1294:1309   */\n  lt\n    /* \"#utility.yul\":1286:1445   */\n  iszero\n  tag_43\n  jumpi\n    /* \"#utility.yul\":1368:1402   */\n  tag_44\n    /* \"#utility.yul\":1398:1401   */\n  dup7\n    /* \"#utility.yul\":1368:1402   */\n  tag_27\n  jump\t// in\ntag_44:\n    /* \"#utility.yul\":1356:1403   */\n  dup6\n  mstore\n    /* \"#utility.yul\":1319:1331   */\n  swap5\n  dup3\n  add\n  swap5\n    /* \"#utility.yul\":1423:1435   */\n  swap4\n  dup3\n  add\n  swap4\n    /* \"#utility.yul\":1286:1445   */\n  jump(tag_41)\ntag_43:\n    /* \"#utility.yul\":1495:1513   */\n  swap8\n  swap1\n  swap2\n  add\n    /* \"#utility.yul\":1489:1514   */\n  mload\n    /* \"#utility.yul\":1464:1470   */\n  swap7\n  swap9\n    /* \"#utility.yul\":1489:1514   */\n  swap7\n  swap8\n  pop\n  pop\n  pop\n  pop\n  pop\n  pop\n  pop\n    /* \"#utility.yul\":328:1520   */\n  jump\t// out\n    /* \"#utility.yul\":2218:2345   */\ntag_18:\n    /* \"#utility.yul\":2279:2289   */\n  0x4e487b71\n    /* \"#utility.yul\":2274:2277   */\n  0xe0\n    /* \"#utility.yul\":2270:2290   */\n  shl\n    /* \"#utility.yul\":2267:2268   */\n  0x00\n    /* \"#utility.yul\":2260:2291   */\n  mstore\n    /* \"#utility.yul\":2310:2314   */\n  0x32\n    /* \"#utility.yul\":2307:2308   */\n  0x04\n    /* \"#utility.yul\":2300:2315   */\n  mstore\n    /* \"#utility.yul\":2334:2338   */\n  0x24\n    /* \"#utility.yul\":2331:2332   */\n  0x00\n    /* \"#utility.yul\":2324:2339   */\n  revert\n    /* \"#utility.yul\":2350:2700   */\ntag_28:\n    /* \"demo1/56Multi.sol\":58:5502  contract MultiSigWallet{... */\n  dataSize(sub_0)\n  dup1\n  dataOffset(sub_0)\n  0x00\n  codecopy\n  0x00\n  return\nstop\n\nsub_0: assembly {\n        /* \"demo1/56Multi.sol\":58:5502  contract MultiSigWallet{... */\n      mstore(0x40, 0x80)\n      jumpi(tag_1, lt(calldatasize, 0x04))\n      shr(0xe0, calldataload(0x00))\n      dup1\n      0x9ace38c2\n      gt\n      tag_11\n      jumpi\n      dup1\n      0x9ace38c2\n      eq\n      tag_7\n      jumpi\n      dup1\n      0xb759f954\n      eq\n      tag_8\n      jumpi\n      dup1\n      0xdc8452cd\n      eq\n      tag_9\n      jumpi\n      dup1\n      0xfe0d94c1\n      eq\n      tag_10\n      jumpi\n      0x00\n      dup1\n      revert\n    tag_11:\n      dup1\n      0x025e7c27\n      eq\n      tag_3\n      jumpi\n      dup1\n      0x14de327f\n      eq\n      tag_4\n      jumpi\n      dup1\n      0x2f54bf6e\n      eq\n      tag_5\n      jumpi\n      dup1\n      0x8253951a\n      eq\n      tag_6\n      jumpi\n      0x00\n      dup1\n      revert\n    tag_1:\n      jumpi(tag_2, calldatasize)\n        /* \"demo1/56Multi.sol\":2548:2577  Deposit(msg.sender,msg.value) */\n      mload(0x40)\n        /* \"demo1/56Multi.sol\":2567:2576  msg.value */\n      callvalue\n        /* \"#utility.yul\":160:185   */\n      dup2\n      mstore\n        /* \"demo1/56Multi.sol\":2556:2566  msg.sender */\n      caller\n      swap1\n        /* \"demo1/56Multi.sol\":2548:2577  Deposit(msg.sender,msg.value) */\n      0xe1fffcc4923d04b559f4d29a8bfc6cda04eb5b0d3c460751c2402c5c5cc9109c\n      swap1\n        /* \"#utility.yul\":148:150   */\n      0x20\n        /* \"#utility.yul\":133:151   */\n      add\n        /* \"demo1/56Multi.sol\":2548:2577  Deposit(msg.sender,msg.value) */\n      mload(0x40)\n      dup1\n      swap2\n      sub\n      swap1\n      log2\n        /* \"demo1/56Multi.sol\":58:5502  contract MultiSigWallet{... */\n      stop\n    tag_2:\n      0x00\n      dup1\n      revert\n        /* \"demo1/56Multi.sol\":1223:1246  address[] public owners */\n    tag_3:\n      callvalue\n      dup1\n      iszero\n      tag_16\n      jumpi\n      0x00\n      dup1\n      revert\n    tag_16:\n      pop\n      tag_17\n      tag_18\n      calldatasize\n      0x04\n      tag_19\n      jump\t// in\n    tag_18:\n      tag_20\n      jump\t// in\n    tag_17:\n      mload(0x40)\n      sub(shl(0xa0, 0x01), 0x01)\n        /* \"#utility.yul\":545:577   */\n      swap1\n      swap2\n      and\n        /* \"#utility.yul\":527:578   */\n      dup2\n      mstore\n        /* \"#utility.yul\":515:517   */\n      0x20\n        /* \"#utility.yul\":500:518   */\n      add\n        /* \"demo1/56Multi.sol\":1223:1246  address[] public owners */\n    tag_21:\n      mload(0x40)\n      dup1\n      swap2\n      sub\n      swap1\n      return\n        /* \"demo1/56Multi.sol\":3610:3998  function submit(address _to,uint _value,bytes calldata _data) external onlyOwner{... */\n    tag_4:\n      callvalue\n      dup1\n      iszero\n      tag_23\n      jumpi\n      0x00\n      dup1\n      revert\n    tag_23:\n      pop\n      tag_24\n      tag_25\n      calldatasize\n      0x04\n      tag_26\n      jump\t// in\n    tag_25:\n      tag_27\n      jump\t// in\n    tag_24:\n      stop\n        /* \"demo1/56Multi.sol\":1331:1370  mapping(address => bool) public isOwner */\n    tag_5:\n      callvalue\n      dup1\n      iszero\n      tag_28\n      jumpi\n      0x00\n      dup1\n      revert\n    tag_28:\n      pop\n      tag_29\n      tag_30\n      calldatasize\n      0x04\n      tag_31\n      jump\t// in\n    tag_30:\n      mstore(0x20, 0x01)\n      0x00\n      swap1\n      dup2\n      mstore\n      0x40\n      swap1\n      keccak256\n      sload\n      0xff\n      and\n      dup2\n      jump\n    tag_29:\n      mload(0x40)\n        /* \"#utility.yul\":1861:1875   */\n      swap1\n      iszero\n        /* \"#utility.yul\":1854:1876   */\n      iszero\n        /* \"#utility.yul\":1836:1877   */\n      dup2\n      mstore\n        /* \"#utility.yul\":1824:1826   */\n      0x20\n        /* \"#utility.yul\":1809:1827   */\n      add\n        /* \"demo1/56Multi.sol\":1331:1370  mapping(address => bool) public isOwner */\n      tag_21\n        /* \"#utility.yul\":1696:1883   */\n      jump\n        /* \"demo1/56Multi.sol\":1661:1720  mapping (uint => mapping (address => bool)) public approved */\n    tag_6:\n      callvalue\n      dup1\n      iszero\n      tag_35\n      jumpi\n      0x00\n      dup1\n      revert\n    tag_35:\n      pop\n      tag_29\n      tag_37\n      calldatasize\n      0x04\n      tag_38\n      jump\t// in\n    tag_37:\n      0x04\n      0x20\n      swap1\n      dup2\n      mstore\n      0x00\n      swap3\n      dup4\n      mstore\n      0x40\n      dup1\n      dup5\n      keccak256\n      swap1\n      swap2\n      mstore\n      swap1\n      dup3\n      mstore\n      swap1\n      keccak256\n      sload\n      0xff\n      and\n      dup2\n      jump\n        /* \"demo1/56Multi.sol\":1527:1560  Transaction[] public transactions */\n    tag_7:\n      callvalue\n      dup1\n      iszero\n      tag_41\n      jumpi\n      0x00\n      dup1\n      revert\n    tag_41:\n      pop\n      tag_42\n      tag_43\n      calldatasize\n      0x04\n      tag_19\n      jump\t// in\n    tag_43:\n      tag_44\n      jump\t// in\n    tag_42:\n      mload(0x40)\n      tag_21\n      swap5\n      swap4\n      swap3\n      swap2\n      swap1\n      tag_46\n      jump\t// in\n        /* \"demo1/56Multi.sol\":4313:4507  function approve(uint _txId) external onlyOwner txExists(_txId) notApprove(_txId) notExecuted(_txId){... */\n    tag_8:\n      callvalue\n      dup1\n      iszero\n      tag_47\n      jumpi\n      0x00\n      dup1\n      revert\n    tag_47:\n      pop\n      tag_24\n      tag_49\n      calldatasize\n      0x04\n      tag_19\n      jump\t// in\n    tag_49:\n      tag_50\n      jump\t// in\n        /* \"demo1/56Multi.sol\":1469:1489  uint public required */\n    tag_9:\n      callvalue\n      dup1\n      iszero\n      tag_51\n      jumpi\n      0x00\n      dup1\n      revert\n    tag_51:\n      pop\n      tag_52\n      sload(0x02)\n      dup2\n      jump\n    tag_52:\n      mload(0x40)\n        /* \"#utility.yul\":160:185   */\n      swap1\n      dup2\n      mstore\n        /* \"#utility.yul\":148:150   */\n      0x20\n        /* \"#utility.yul\":133:151   */\n      add\n        /* \"demo1/56Multi.sol\":1469:1489  uint public required */\n      tag_21\n        /* \"#utility.yul\":14:191   */\n      jump\n        /* \"demo1/56Multi.sol\":4956:5499  function execute(uint _txId) external txExists(_txId) notExecuted(_txId){... */\n    tag_10:\n      callvalue\n      dup1\n      iszero\n      tag_55\n      jumpi\n      0x00\n      dup1\n      revert\n    tag_55:\n      pop\n      tag_24\n      tag_57\n      calldatasize\n      0x04\n      tag_19\n      jump\t// in\n    tag_57:\n      tag_58\n      jump\t// in\n        /* \"demo1/56Multi.sol\":1223:1246  address[] public owners */\n    tag_20:\n      0x00\n      dup2\n      dup2\n      sload\n      dup2\n      lt\n      tag_59\n      jumpi\n      0x00\n      dup1\n      revert\n    tag_59:\n      0x00\n      swap2\n      dup3\n      mstore\n      0x20\n      swap1\n      swap2\n      keccak256\n      add\n      sload\n      sub(shl(0xa0, 0x01), 0x01)\n      and\n      swap1\n      pop\n      dup2\n      jump\t// out\n        /* \"demo1/56Multi.sol\":3610:3998  function submit(address _to,uint _value,bytes calldata _data) external onlyOwner{... */\n    tag_27:\n        /* \"demo1/56Multi.sol\":2737:2747  msg.sender */\n      caller\n        /* \"demo1/56Multi.sol\":2729:2748  isOwner[msg.sender] */\n      0x00\n      swap1\n      dup2\n      mstore\n        /* \"demo1/56Multi.sol\":2729:2736  isOwner */\n      0x01\n        /* \"demo1/56Multi.sol\":2729:2748  isOwner[msg.sender] */\n      0x20\n      mstore\n      0x40\n      swap1\n      keccak256\n      sload\n      0xff\n      and\n        /* \"demo1/56Multi.sol\":2721:2799  require(isOwner[msg.sender],\"The owner is already in the transaction process\") */\n      tag_62\n      jumpi\n      mload(0x40)\n      shl(0xe5, 0x461bcd)\n      dup2\n      mstore\n      0x04\n      add\n      tag_63\n      swap1\n      tag_64\n      jump\t// in\n    tag_63:\n      mload(0x40)\n      dup1\n      swap2\n      sub\n      swap1\n      revert\n    tag_62:\n        /* \"demo1/56Multi.sol\":3746:3758  transactions */\n      0x03\n        /* \"demo1/56Multi.sol\":3764:3890  Transaction({... */\n      mload(0x40)\n      dup1\n      0x80\n      add\n      0x40\n      mstore\n      dup1\n        /* \"demo1/56Multi.sol\":3794:3797  _to */\n      dup7\n      sub(shl(0xa0, 0x01), 0x01)\n        /* \"demo1/56Multi.sol\":3764:3890  Transaction({... */\n      and\n      dup2\n      mstore\n      0x20\n      add\n        /* \"demo1/56Multi.sol\":3818:3824  _value */\n      dup6\n        /* \"demo1/56Multi.sol\":3764:3890  Transaction({... */\n      dup2\n      mstore\n      0x20\n      add\n        /* \"demo1/56Multi.sol\":3844:3849  _data */\n      dup5\n      dup5\n        /* \"demo1/56Multi.sol\":3764:3890  Transaction({... */\n      dup1\n      dup1\n      0x1f\n      add\n      0x20\n      dup1\n      swap2\n      div\n      mul\n      0x20\n      add\n      mload(0x40)\n      swap1\n      dup2\n      add\n      0x40\n      mstore\n      dup1\n      swap4\n      swap3\n      swap2\n      swap1\n      dup2\n      dup2\n      mstore\n      0x20\n      add\n      dup4\n      dup4\n      dup1\n      dup3\n      dup5\n      calldatacopy\n      0x00\n      swap3\n      add\n      dup3\n      swap1\n      mstore\n      pop\n      swap4\n      dup6\n      mstore\n      pop\n      pop\n      pop\n      0x20\n      swap2\n      dup3\n      add\n      dup2\n      swap1\n      mstore\n        /* \"demo1/56Multi.sol\":3746:3891  transactions.push(Transaction({... */\n      dup4\n      sload\n        /* \"demo1/56Multi.sol\":3764:3890  Transaction({... */\n      0x01\n        /* \"demo1/56Multi.sol\":3746:3891  transactions.push(Transaction({... */\n      dup1\n      dup3\n      add\n      dup7\n      sstore\n      swap5\n      dup3\n      mstore\n      swap1\n      dup3\n      swap1\n      keccak256\n      dup4\n      mload\n      0x04\n      swap1\n      swap3\n      mul\n      add\n      dup1\n      sload\n      not(sub(shl(0xa0, 0x01), 0x01))\n      and\n      sub(shl(0xa0, 0x01), 0x01)\n      swap1\n      swap3\n      and\n      swap2\n      swap1\n      swap2\n      or\n      dup2\n      sstore\n      swap1\n      dup3\n      add\n      mload\n      swap3\n      dup2\n      add\n      swap3\n      swap1\n      swap3\n      sstore\n      0x40\n      dup2\n      add\n      mload\n      swap1\n      swap2\n      swap1\n      0x02\n      dup3\n      add\n      swap1\n      tag_67\n      swap1\n      dup3\n      tag_68\n      jump\t// in\n    tag_67:\n      pop\n      0x60\n      swap2\n      swap1\n      swap2\n      add\n      mload\n      0x03\n      swap2\n      dup3\n      add\n      dup1\n      sload\n      not(0xff)\n      and\n      swap2\n      iszero\n      iszero\n      swap2\n      swap1\n      swap2\n      or\n      swap1\n      sstore\n        /* \"demo1/56Multi.sol\":3968:3987  transactions.length */\n      sload\n        /* \"demo1/56Multi.sol\":3968:3989  transactions.length-1 */\n      tag_69\n      swap1\n      0x01\n      swap1\n      tag_70\n      jump\t// in\n    tag_69:\n        /* \"demo1/56Multi.sol\":3961:3990  Submit(transactions.length-1) */\n      mload(0x40)\n      0x08324b3d745b914e3abd4ffbfead91e3b78391a98c173202129215ab933adfbe\n      swap1\n      0x00\n      swap1\n      log2\n        /* \"demo1/56Multi.sol\":3610:3998  function submit(address _to,uint _value,bytes calldata _data) external onlyOwner{... */\n      pop\n      pop\n      pop\n      pop\n      jump\t// out\n        /* \"demo1/56Multi.sol\":1527:1560  Transaction[] public transactions */\n    tag_44:\n      0x03\n      dup2\n      dup2\n      sload\n      dup2\n      lt\n      tag_71\n      jumpi\n      0x00\n      dup1\n      revert\n    tag_71:\n      0x00\n      swap2\n      dup3\n      mstore\n      0x20\n      swap1\n      swap2\n      keccak256\n      0x04\n      swap1\n      swap2\n      mul\n      add\n      dup1\n      sload\n      0x01\n      dup3\n      add\n      sload\n      0x02\n      dup4\n      add\n      dup1\n      sload\n      sub(shl(0xa0, 0x01), 0x01)\n      swap1\n      swap4\n      and\n      swap5\n      pop\n      swap1\n      swap3\n      swap2\n      tag_73\n      swap1\n      tag_74\n      jump\t// in\n    tag_73:\n      dup1\n      0x1f\n      add\n      0x20\n      dup1\n      swap2\n      div\n      mul\n      0x20\n      add\n      mload(0x40)\n      swap1\n      dup2\n      add\n      0x40\n      mstore\n      dup1\n      swap3\n      swap2\n      swap1\n      dup2\n      dup2\n      mstore\n      0x20\n      add\n      dup3\n      dup1\n      sload\n      tag_75\n      swap1\n      tag_74\n      jump\t// in\n    tag_75:\n      dup1\n      iszero\n      tag_76\n      jumpi\n      dup1\n      0x1f\n      lt\n      tag_77\n      jumpi\n      0x0100\n      dup1\n      dup4\n      sload\n      div\n      mul\n      dup4\n      mstore\n      swap2\n      0x20\n      add\n      swap2\n      jump(tag_76)\n    tag_77:\n      dup3\n      add\n      swap2\n      swap1\n      0x00\n      mstore\n      keccak256(0x00, 0x20)\n      swap1\n    tag_78:\n      dup2\n      sload\n      dup2\n      mstore\n      swap1\n      0x01\n      add\n      swap1\n      0x20\n      add\n      dup1\n      dup4\n      gt\n      tag_78\n      jumpi\n      dup3\n      swap1\n      sub\n      0x1f\n      and\n      dup3\n      add\n      swap2\n    tag_76:\n      pop\n      pop\n      pop\n      0x03\n      swap1\n      swap4\n      add\n      sload\n      swap2\n      swap3\n      pop\n      pop\n      0xff\n      and\n      dup5\n      jump\t// out\n        /* \"demo1/56Multi.sol\":4313:4507  function approve(uint _txId) external onlyOwner txExists(_txId) notApprove(_txId) notExecuted(_txId){... */\n    tag_50:\n        /* \"demo1/56Multi.sol\":2737:2747  msg.sender */\n      caller\n        /* \"demo1/56Multi.sol\":2729:2748  isOwner[msg.sender] */\n      0x00\n      swap1\n      dup2\n      mstore\n        /* \"demo1/56Multi.sol\":2729:2736  isOwner */\n      0x01\n        /* \"demo1/56Multi.sol\":2729:2748  isOwner[msg.sender] */\n      0x20\n      mstore\n      0x40\n      swap1\n      keccak256\n      sload\n      0xff\n      and\n        /* \"demo1/56Multi.sol\":2721:2799  require(isOwner[msg.sender],\"The owner is already in the transaction process\") */\n      tag_80\n      jumpi\n      mload(0x40)\n      shl(0xe5, 0x461bcd)\n      dup2\n      mstore\n      0x04\n      add\n      tag_63\n      swap1\n      tag_64\n      jump\t// in\n    tag_80:\n        /* \"demo1/56Multi.sol\":2905:2917  transactions */\n      0x03\n        /* \"demo1/56Multi.sol\":2905:2924  transactions.length */\n      sload\n        /* \"demo1/56Multi.sol\":4370:4375  _txId */\n      dup2\n      swap1\n        /* \"demo1/56Multi.sol\":2899:2924  _txId<transactions.length */\n      dup2\n      lt\n        /* \"demo1/56Multi.sol\":2891:2958  require(_txId<transactions.length,\"The transaction does not exist\") */\n      tag_83\n      jumpi\n      mload(0x40)\n      shl(0xe5, 0x461bcd)\n      dup2\n      mstore\n        /* \"#utility.yul\":6516:6518   */\n      0x20\n        /* \"demo1/56Multi.sol\":2891:2958  require(_txId<transactions.length,\"The transaction does not exist\") */\n      0x04\n      dup3\n      add\n        /* \"#utility.yul\":6498:6519   */\n      mstore\n        /* \"#utility.yul\":6555:6557   */\n      0x1e\n        /* \"#utility.yul\":6535:6553   */\n      0x24\n      dup3\n      add\n        /* \"#utility.yul\":6528:6558   */\n      mstore\n        /* \"#utility.yul\":6594:6626   */\n      0x546865207472616e73616374696f6e20646f6573206e6f742065786973740000\n        /* \"#utility.yul\":6574:6592   */\n      0x44\n      dup3\n      add\n        /* \"#utility.yul\":6567:6627   */\n      mstore\n        /* \"#utility.yul\":6644:6662   */\n      0x64\n      add\n        /* \"demo1/56Multi.sol\":2891:2958  require(_txId<transactions.length,\"The transaction does not exist\") */\n      tag_63\n        /* \"#utility.yul\":6314:6668   */\n      jump\n        /* \"demo1/56Multi.sol\":2891:2958  require(_txId<transactions.length,\"The transaction does not exist\") */\n    tag_83:\n        /* \"demo1/56Multi.sol\":3076:3091  approved[_txId] */\n      0x00\n      dup3\n      dup2\n      mstore\n        /* \"demo1/56Multi.sol\":3076:3084  approved */\n      0x04\n        /* \"demo1/56Multi.sol\":3076:3091  approved[_txId] */\n      0x20\n      swap1\n      dup2\n      mstore\n      0x40\n      dup1\n      dup4\n      keccak256\n        /* \"demo1/56Multi.sol\":3092:3102  msg.sender */\n      caller\n        /* \"demo1/56Multi.sol\":3076:3103  approved[_txId][msg.sender] */\n      dup5\n      mstore\n      swap1\n      swap2\n      mstore\n      swap1\n      keccak256\n      sload\n        /* \"demo1/56Multi.sol\":4388:4393  _txId */\n      dup3\n      swap1\n        /* \"demo1/56Multi.sol\":3076:3103  approved[_txId][msg.sender] */\n      0xff\n      and\n        /* \"demo1/56Multi.sol\":3075:3103  !approved[_txId][msg.sender] */\n      iszero\n        /* \"demo1/56Multi.sol\":3067:3139  require(!approved[_txId][msg.sender],\"The transaction has been allowed\") */\n      tag_87\n      jumpi\n      mload(0x40)\n      shl(0xe5, 0x461bcd)\n      dup2\n      mstore\n        /* \"#utility.yul\":6875:6877   */\n      0x20\n        /* \"demo1/56Multi.sol\":3067:3139  require(!approved[_txId][msg.sender],\"The transaction has been allowed\") */\n      0x04\n      dup3\n      add\n        /* \"#utility.yul\":6857:6878   */\n      dup2\n      swap1\n      mstore\n        /* \"#utility.yul\":6894:6912   */\n      0x24\n      dup3\n      add\n        /* \"#utility.yul\":6887:6917   */\n      mstore\n        /* \"#utility.yul\":6953:6987   */\n      0x546865207472616e73616374696f6e20686173206265656e20616c6c6f776564\n        /* \"#utility.yul\":6933:6951   */\n      0x44\n      dup3\n      add\n        /* \"#utility.yul\":6926:6988   */\n      mstore\n        /* \"#utility.yul\":7005:7023   */\n      0x64\n      add\n        /* \"demo1/56Multi.sol\":3067:3139  require(!approved[_txId][msg.sender],\"The transaction has been allowed\") */\n      tag_63\n        /* \"#utility.yul\":6673:7029   */\n      jump\n        /* \"demo1/56Multi.sol\":3067:3139  require(!approved[_txId][msg.sender],\"The transaction has been allowed\") */\n    tag_87:\n        /* \"demo1/56Multi.sol\":4407:4412  _txId */\n      dup3\n        /* \"demo1/56Multi.sol\":3257:3269  transactions */\n      0x03\n        /* \"demo1/56Multi.sol\":3270:3275  _txId */\n      dup2\n        /* \"demo1/56Multi.sol\":3257:3276  transactions[_txId] */\n      dup2\n      sload\n      dup2\n      lt\n      tag_92\n      jumpi\n      tag_92\n      tag_93\n      jump\t// in\n    tag_92:\n      0x00\n      swap2\n      dup3\n      mstore\n      0x20\n      swap1\n      swap2\n      keccak256\n        /* \"demo1/56Multi.sol\":3257:3285  transactions[_txId].executed */\n      0x03\n        /* \"demo1/56Multi.sol\":3257:3276  transactions[_txId] */\n      0x04\n      swap1\n      swap3\n      mul\n      add\n        /* \"demo1/56Multi.sol\":3257:3285  transactions[_txId].executed */\n      add\n      sload\n      0xff\n      and\n        /* \"demo1/56Multi.sol\":3256:3285  !transactions[_txId].executed */\n      iszero\n        /* \"demo1/56Multi.sol\":3248:3322  require(!transactions[_txId].executed,\"The transaction has been executed\") */\n      tag_95\n      jumpi\n      mload(0x40)\n      shl(0xe5, 0x461bcd)\n      dup2\n      mstore\n      0x04\n      add\n      tag_63\n      swap1\n      tag_97\n      jump\t// in\n    tag_95:\n        /* \"demo1/56Multi.sol\":4429:4454  Approve(msg.sender,_txId) */\n      mload(0x40)\n        /* \"demo1/56Multi.sol\":4448:4453  _txId */\n      dup5\n      swap1\n        /* \"demo1/56Multi.sol\":4437:4447  msg.sender */\n      caller\n      swap1\n        /* \"demo1/56Multi.sol\":4429:4454  Approve(msg.sender,_txId) */\n      0x90ec57f18fa7b15c6b8d5e4d1deb90796c74b2ff23d4d0cecad0cb42a96b3128\n      swap1\n      0x00\n      swap1\n      log3\n      pop\n      pop\n      pop\n        /* \"demo1/56Multi.sol\":4465:4480  approved[_txId] */\n      0x00\n      swap1\n      dup2\n      mstore\n        /* \"demo1/56Multi.sol\":4465:4473  approved */\n      0x04\n        /* \"demo1/56Multi.sol\":4465:4480  approved[_txId] */\n      0x20\n      swap1\n      dup2\n      mstore\n      0x40\n      dup1\n      dup4\n      keccak256\n        /* \"demo1/56Multi.sol\":4481:4491  msg.sender */\n      caller\n        /* \"demo1/56Multi.sol\":4465:4492  approved[_txId][msg.sender] */\n      dup5\n      mstore\n      swap1\n      swap2\n      mstore\n      swap1\n      keccak256\n        /* \"demo1/56Multi.sol\":4465:4499  approved[_txId][msg.sender] = true */\n      dup1\n      sload\n      not(0xff)\n      and\n        /* \"demo1/56Multi.sol\":4495:4499  true */\n      0x01\n        /* \"demo1/56Multi.sol\":4465:4499  approved[_txId][msg.sender] = true */\n      or\n      swap1\n      sstore\n        /* \"demo1/56Multi.sol\":4313:4507  function approve(uint _txId) external onlyOwner txExists(_txId) notApprove(_txId) notExecuted(_txId){... */\n      jump\t// out\n        /* \"demo1/56Multi.sol\":4956:5499  function execute(uint _txId) external txExists(_txId) notExecuted(_txId){... */\n    tag_58:\n        /* \"demo1/56Multi.sol\":2905:2917  transactions */\n      0x03\n        /* \"demo1/56Multi.sol\":2905:2924  transactions.length */\n      sload\n        /* \"demo1/56Multi.sol\":5003:5008  _txId */\n      dup2\n      swap1\n        /* \"demo1/56Multi.sol\":2899:2924  _txId<transactions.length */\n      dup2\n      lt\n        /* \"demo1/56Multi.sol\":2891:2958  require(_txId<transactions.length,\"The transaction does not exist\") */\n      tag_100\n      jumpi\n      mload(0x40)\n      shl(0xe5, 0x461bcd)\n      dup2\n      mstore\n        /* \"#utility.yul\":6516:6518   */\n      0x20\n        /* \"demo1/56Multi.sol\":2891:2958  require(_txId<transactions.length,\"The transaction does not exist\") */\n      0x04\n      dup3\n      add\n        /* \"#utility.yul\":6498:6519   */\n      mstore\n        /* \"#utility.yul\":6555:6557   */\n      0x1e\n        /* \"#utility.yul\":6535:6553   */\n      0x24\n      dup3\n      add\n        /* \"#utility.yul\":6528:6558   */\n      mstore\n        /* \"#utility.yul\":6594:6626   */\n      0x546865207472616e73616374696f6e20646f6573206e6f742065786973740000\n        /* \"#utility.yul\":6574:6592   */\n      0x44\n      dup3\n      add\n        /* \"#utility.yul\":6567:6627   */\n      mstore\n        /* \"#utility.yul\":6644:6662   */\n      0x64\n      add\n        /* \"demo1/56Multi.sol\":2891:2958  require(_txId<transactions.length,\"The transaction does not exist\") */\n      tag_63\n        /* \"#utility.yul\":6314:6668   */\n      jump\n        /* \"demo1/56Multi.sol\":2891:2958  require(_txId<transactions.length,\"The transaction does not exist\") */\n    tag_100:\n        /* \"demo1/56Multi.sol\":5022:5027  _txId */\n      dup2\n        /* \"demo1/56Multi.sol\":3257:3269  transactions */\n      0x03\n        /* \"demo1/56Multi.sol\":3270:3275  _txId */\n      dup2\n        /* \"demo1/56Multi.sol\":3257:3276  transactions[_txId] */\n      dup2\n      sload\n      dup2\n      lt\n      tag_104\n      jumpi\n      tag_104\n      tag_93\n      jump\t// in\n    tag_104:\n      0x00\n      swap2\n      dup3\n      mstore\n      0x20\n      swap1\n      swap2\n      keccak256\n        /* \"demo1/56Multi.sol\":3257:3285  transactions[_txId].executed */\n      0x03\n        /* \"demo1/56Multi.sol\":3257:3276  transactions[_txId] */\n      0x04\n      swap1\n      swap3\n      mul\n      add\n        /* \"demo1/56Multi.sol\":3257:3285  transactions[_txId].executed */\n      add\n      sload\n      0xff\n      and\n        /* \"demo1/56Multi.sol\":3256:3285  !transactions[_txId].executed */\n      iszero\n        /* \"demo1/56Multi.sol\":3248:3322  require(!transactions[_txId].executed,\"The transaction has been executed\") */\n      tag_106\n      jumpi\n      mload(0x40)\n      shl(0xe5, 0x461bcd)\n      dup2\n      mstore\n      0x04\n      add\n      tag_63\n      swap1\n      tag_97\n      jump\t// in\n    tag_106:\n        /* \"demo1/56Multi.sol\":5073:5081  required */\n      sload(0x02)\n        /* \"demo1/56Multi.sol\":5047:5069  getApproveCount(_txId) */\n      tag_109\n        /* \"demo1/56Multi.sol\":5063:5068  _txId */\n      dup5\n        /* \"demo1/56Multi.sol\":5047:5062  getApproveCount */\n      tag_110\n        /* \"demo1/56Multi.sol\":5047:5069  getApproveCount(_txId) */\n      jump\t// in\n    tag_109:\n        /* \"demo1/56Multi.sol\":5047:5081  getApproveCount(_txId) >= required */\n      lt\n      iszero\n        /* \"demo1/56Multi.sol\":5039:5109  require(getApproveCount(_txId) >= required, \"ApproveCount < required\") */\n      tag_111\n      jumpi\n      mload(0x40)\n      shl(0xe5, 0x461bcd)\n      dup2\n      mstore\n        /* \"#utility.yul\":7770:7772   */\n      0x20\n        /* \"demo1/56Multi.sol\":5039:5109  require(getApproveCount(_txId) >= required, \"ApproveCount < required\") */\n      0x04\n      dup3\n      add\n        /* \"#utility.yul\":7752:7773   */\n      mstore\n        /* \"#utility.yul\":7809:7811   */\n      0x17\n        /* \"#utility.yul\":7789:7807   */\n      0x24\n      dup3\n      add\n        /* \"#utility.yul\":7782:7812   */\n      mstore\n        /* \"#utility.yul\":7848:7873   */\n      0x417070726f7665436f756e74203c207265717569726564000000000000000000\n        /* \"#utility.yul\":7828:7846   */\n      0x44\n      dup3\n      add\n        /* \"#utility.yul\":7821:7874   */\n      mstore\n        /* \"#utility.yul\":7891:7909   */\n      0x64\n      add\n        /* \"demo1/56Multi.sol\":5039:5109  require(getApproveCount(_txId) >= required, \"ApproveCount < required\") */\n      tag_63\n        /* \"#utility.yul\":7568:7915   */\n      jump\n        /* \"demo1/56Multi.sol\":5039:5109  require(getApproveCount(_txId) >= required, \"ApproveCount < required\") */\n    tag_111:\n        /* \"demo1/56Multi.sol\":5208:5239  Transaction storage transaction */\n      0x00\n        /* \"demo1/56Multi.sol\":5242:5254  transactions */\n      0x03\n        /* \"demo1/56Multi.sol\":5255:5260  _txId */\n      dup5\n        /* \"demo1/56Multi.sol\":5242:5261  transactions[_txId] */\n      dup2\n      sload\n      dup2\n      lt\n      tag_115\n      jumpi\n      tag_115\n      tag_93\n      jump\t// in\n    tag_115:\n      0x00\n      swap2\n      dup3\n      mstore\n      0x20\n      dup3\n      keccak256\n        /* \"demo1/56Multi.sol\":5272:5292  transaction.executed */\n      0x03\n        /* \"demo1/56Multi.sol\":5242:5261  transactions[_txId] */\n      0x04\n      swap1\n      swap3\n      mul\n      add\n        /* \"demo1/56Multi.sol\":5272:5292  transaction.executed */\n      swap1\n      dup2\n      add\n        /* \"demo1/56Multi.sol\":5272:5299  transaction.executed = true */\n      dup1\n      sload\n      not(0xff)\n      and\n        /* \"demo1/56Multi.sol\":5295:5299  true */\n      0x01\n        /* \"demo1/56Multi.sol\":5272:5299  transaction.executed = true */\n      swap1\n      dup2\n      or\n      swap1\n      swap2\n      sstore\n        /* \"demo1/56Multi.sol\":5331:5345  transaction.to */\n      dup2\n      sload\n        /* \"demo1/56Multi.sol\":5358:5375  transaction.value */\n      swap1\n      dup3\n      add\n      sload\n        /* \"demo1/56Multi.sol\":5331:5418  transaction.to.call{value: transaction.value}(... */\n      mload(0x40)\n        /* \"demo1/56Multi.sol\":5242:5261  transactions[_txId] */\n      swap3\n      swap5\n      pop\n      sub(shl(0xa0, 0x01), 0x01)\n        /* \"demo1/56Multi.sol\":5331:5345  transaction.to */\n      swap1\n      swap2\n      and\n      swap2\n        /* \"demo1/56Multi.sol\":5331:5418  transaction.to.call{value: transaction.value}(... */\n      tag_117\n      swap1\n        /* \"demo1/56Multi.sol\":5391:5407  transaction.data */\n      0x02\n      dup7\n      add\n      swap1\n        /* \"demo1/56Multi.sol\":5331:5418  transaction.to.call{value: transaction.value}(... */\n      tag_118\n      jump\t// in\n    tag_117:\n      0x00\n      mload(0x40)\n      dup1\n      dup4\n      sub\n      dup2\n      dup6\n      dup8\n      gas\n      call\n      swap3\n      pop\n      pop\n      pop\n      returndatasize\n      dup1\n      0x00\n      dup2\n      eq\n      tag_121\n      jumpi\n      mload(0x40)\n      swap2\n      pop\n      and(add(returndatasize, 0x3f), not(0x1f))\n      dup3\n      add\n      0x40\n      mstore\n      returndatasize\n      dup3\n      mstore\n      returndatasize\n      0x00\n      0x20\n      dup5\n      add\n      returndatacopy\n      jump(tag_120)\n    tag_121:\n      0x60\n      swap2\n      pop\n    tag_120:\n      pop\n        /* \"demo1/56Multi.sol\":5312:5418  (bool success, ) = transaction.to.call{value: transaction.value}(... */\n      pop\n      swap1\n      pop\n        /* \"demo1/56Multi.sol\":5437:5444  success */\n      dup1\n        /* \"demo1/56Multi.sol\":5429:5459  require(success, \"tx failure\") */\n      tag_122\n      jumpi\n      mload(0x40)\n      shl(0xe5, 0x461bcd)\n      dup2\n      mstore\n        /* \"#utility.yul\":8968:8970   */\n      0x20\n        /* \"demo1/56Multi.sol\":5429:5459  require(success, \"tx failure\") */\n      0x04\n      dup3\n      add\n        /* \"#utility.yul\":8950:8971   */\n      mstore\n        /* \"#utility.yul\":9007:9009   */\n      0x0a\n        /* \"#utility.yul\":8987:9005   */\n      0x24\n      dup3\n      add\n        /* \"#utility.yul\":8980:9010   */\n      mstore\n      shl(0xb0, 0x7478206661696c757265)\n        /* \"#utility.yul\":9026:9044   */\n      0x44\n      dup3\n      add\n        /* \"#utility.yul\":9019:9059   */\n      mstore\n        /* \"#utility.yul\":9076:9094   */\n      0x64\n      add\n        /* \"demo1/56Multi.sol\":5429:5459  require(success, \"tx failure\") */\n      tag_63\n        /* \"#utility.yul\":8766:9100   */\n      jump\n        /* \"demo1/56Multi.sol\":5429:5459  require(success, \"tx failure\") */\n    tag_122:\n        /* \"demo1/56Multi.sol\":5477:5491  Execute(_txId) */\n      mload(0x40)\n        /* \"demo1/56Multi.sol\":5485:5490  _txId */\n      dup6\n      swap1\n        /* \"demo1/56Multi.sol\":5477:5491  Execute(_txId) */\n      0xddb556f1d2c1ec821e910b019d3685b229db152a0ecd517ca7e24b8bd7139289\n      swap1\n      0x00\n      swap1\n      log2\n        /* \"demo1/56Multi.sol\":5028:5499  {... */\n      pop\n      pop\n        /* \"demo1/56Multi.sol\":2969:2970  _ */\n      pop\n        /* \"demo1/56Multi.sol\":4956:5499  function execute(uint _txId) external txExists(_txId) notExecuted(_txId){... */\n      pop\n      pop\n      jump\t// out\n        /* \"demo1/56Multi.sol\":4621:4853  function getApproveCount(uint txId)private view returns (uint count) {... */\n    tag_110:\n        /* \"demo1/56Multi.sol\":4678:4688  uint count */\n      0x00\n        /* \"demo1/56Multi.sol\":4706:4712  uint i */\n      dup1\n        /* \"demo1/56Multi.sol\":4701:4846  for (uint i; i<owners.length; i++) {... */\n    tag_126:\n        /* \"demo1/56Multi.sol\":4716:4722  owners */\n      0x00\n        /* \"demo1/56Multi.sol\":4716:4729  owners.length */\n      sload\n        /* \"demo1/56Multi.sol\":4714:4729  i<owners.length */\n      dup2\n      lt\n        /* \"demo1/56Multi.sol\":4701:4846  for (uint i; i<owners.length; i++) {... */\n      iszero\n      tag_127\n      jumpi\n        /* \"demo1/56Multi.sol\":4754:4762  approved */\n      0x04\n        /* \"demo1/56Multi.sol\":4754:4768  approved[txId] */\n      0x00\n        /* \"demo1/56Multi.sol\":4763:4767  txId */\n      dup5\n        /* \"demo1/56Multi.sol\":4754:4768  approved[txId] */\n      dup2\n      mstore\n      0x20\n      add\n      swap1\n      dup2\n      mstore\n      0x20\n      add\n      0x00\n      keccak256\n        /* \"demo1/56Multi.sol\":4754:4779  approved[txId][owners[i]] */\n      0x00\n        /* \"demo1/56Multi.sol\":4769:4775  owners */\n      dup1\n        /* \"demo1/56Multi.sol\":4776:4777  i */\n      dup4\n        /* \"demo1/56Multi.sol\":4769:4778  owners[i] */\n      dup2\n      sload\n      dup2\n      lt\n      tag_130\n      jumpi\n      tag_130\n      tag_93\n      jump\t// in\n    tag_130:\n      0x00\n      swap2\n      dup3\n      mstore\n      0x20\n      dup1\n      dup4\n      keccak256\n      swap1\n      swap2\n      add\n      sload\n      sub(shl(0xa0, 0x01), 0x01)\n      and\n        /* \"demo1/56Multi.sol\":4754:4779  approved[txId][owners[i]] */\n      dup4\n      mstore\n      dup3\n      add\n      swap3\n      swap1\n      swap3\n      mstore\n      0x40\n      add\n      swap1\n      keccak256\n      sload\n      0xff\n      and\n        /* \"demo1/56Multi.sol\":4751:4835  if(approved[txId][owners[i]]){... */\n      iszero\n      tag_132\n      jumpi\n        /* \"demo1/56Multi.sol\":4799:4807  count+=1 */\n      tag_133\n        /* \"demo1/56Multi.sol\":4806:4807  1 */\n      0x01\n        /* \"demo1/56Multi.sol\":4799:4807  count+=1 */\n      dup4\n      tag_134\n      jump\t// in\n    tag_133:\n      swap2\n      pop\n        /* \"demo1/56Multi.sol\":4751:4835  if(approved[txId][owners[i]]){... */\n    tag_132:\n        /* \"demo1/56Multi.sol\":4731:4734  i++ */\n      0x01\n      add\n        /* \"demo1/56Multi.sol\":4701:4846  for (uint i; i<owners.length; i++) {... */\n      jump(tag_126)\n    tag_127:\n      pop\n        /* \"demo1/56Multi.sol\":4621:4853  function getApproveCount(uint txId)private view returns (uint count) {... */\n      swap2\n      swap1\n      pop\n      jump\t// out\n        /* \"#utility.yul\":196:376   */\n    tag_19:\n        /* \"#utility.yul\":255:261   */\n      0x00\n        /* \"#utility.yul\":308:310   */\n      0x20\n        /* \"#utility.yul\":296:305   */\n      dup3\n        /* \"#utility.yul\":287:294   */\n      dup5\n        /* \"#utility.yul\":283:306   */\n      sub\n        /* \"#utility.yul\":279:311   */\n      slt\n        /* \"#utility.yul\":276:328   */\n      iszero\n      tag_144\n      jumpi\n        /* \"#utility.yul\":324:325   */\n      0x00\n        /* \"#utility.yul\":321:322   */\n      dup1\n        /* \"#utility.yul\":314:326   */\n      revert\n        /* \"#utility.yul\":276:328   */\n    tag_144:\n      pop\n        /* \"#utility.yul\":347:370   */\n      calldataload\n      swap2\n        /* \"#utility.yul\":196:376   */\n      swap1\n      pop\n      jump\t// out\n        /* \"#utility.yul\":589:762   */\n    tag_135:\n        /* \"#utility.yul\":657:677   */\n      dup1\n      calldataload\n      sub(shl(0xa0, 0x01), 0x01)\n        /* \"#utility.yul\":706:737   */\n      dup2\n      and\n        /* \"#utility.yul\":696:738   */\n      dup2\n      eq\n        /* \"#utility.yul\":686:756   */\n      tag_147\n      jumpi\n        /* \"#utility.yul\":752:753   */\n      0x00\n        /* \"#utility.yul\":749:750   */\n      dup1\n        /* \"#utility.yul\":742:754   */\n      revert\n        /* \"#utility.yul\":686:756   */\n    tag_147:\n        /* \"#utility.yul\":589:762   */\n      swap2\n      swap1\n      pop\n      jump\t// out\n        /* \"#utility.yul\":767:1500   */\n    tag_26:\n        /* \"#utility.yul\":855:861   */\n      0x00\n        /* \"#utility.yul\":863:869   */\n      dup1\n        /* \"#utility.yul\":871:877   */\n      0x00\n        /* \"#utility.yul\":879:885   */\n      dup1\n        /* \"#utility.yul\":932:934   */\n      0x60\n        /* \"#utility.yul\":920:929   */\n      dup6\n        /* \"#utility.yul\":911:918   */\n      dup8\n        /* \"#utility.yul\":907:930   */\n      sub\n        /* \"#utility.yul\":903:935   */\n      slt\n        /* \"#utility.yul\":900:952   */\n      iszero\n      tag_149\n      jumpi\n        /* \"#utility.yul\":948:949   */\n      0x00\n        /* \"#utility.yul\":945:946   */\n      dup1\n        /* \"#utility.yul\":938:950   */\n      revert\n        /* \"#utility.yul\":900:952   */\n    tag_149:\n        /* \"#utility.yul\":971:1000   */\n      tag_150\n        /* \"#utility.yul\":990:999   */\n      dup6\n        /* \"#utility.yul\":971:1000   */\n      tag_135\n      jump\t// in\n    tag_150:\n        /* \"#utility.yul\":961:1000   */\n      swap4\n      pop\n        /* \"#utility.yul\":1047:1049   */\n      0x20\n        /* \"#utility.yul\":1036:1045   */\n      dup6\n        /* \"#utility.yul\":1032:1050   */\n      add\n        /* \"#utility.yul\":1019:1051   */\n      calldataload\n        /* \"#utility.yul\":1009:1051   */\n      swap3\n      pop\n        /* \"#utility.yul\":1102:1104   */\n      0x40\n        /* \"#utility.yul\":1091:1100   */\n      dup6\n        /* \"#utility.yul\":1087:1105   */\n      add\n        /* \"#utility.yul\":1074:1106   */\n      calldataload\n        /* \"#utility.yul\":1125:1143   */\n      0xffffffffffffffff\n        /* \"#utility.yul\":1166:1168   */\n      dup1\n        /* \"#utility.yul\":1158:1164   */\n      dup3\n        /* \"#utility.yul\":1155:1169   */\n      gt\n        /* \"#utility.yul\":1152:1186   */\n      iszero\n      tag_151\n      jumpi\n        /* \"#utility.yul\":1182:1183   */\n      0x00\n        /* \"#utility.yul\":1179:1180   */\n      dup1\n        /* \"#utility.yul\":1172:1184   */\n      revert\n        /* \"#utility.yul\":1152:1186   */\n    tag_151:\n        /* \"#utility.yul\":1220:1226   */\n      dup2\n        /* \"#utility.yul\":1209:1218   */\n      dup8\n        /* \"#utility.yul\":1205:1227   */\n      add\n        /* \"#utility.yul\":1195:1227   */\n      swap2\n      pop\n        /* \"#utility.yul\":1265:1272   */\n      dup8\n        /* \"#utility.yul\":1258:1262   */\n      0x1f\n        /* \"#utility.yul\":1254:1256   */\n      dup4\n        /* \"#utility.yul\":1250:1263   */\n      add\n        /* \"#utility.yul\":1246:1273   */\n      slt\n        /* \"#utility.yul\":1236:1291   */\n      tag_152\n      jumpi\n        /* \"#utility.yul\":1287:1288   */\n      0x00\n        /* \"#utility.yul\":1284:1285   */\n      dup1\n        /* \"#utility.yul\":1277:1289   */\n      revert\n        /* \"#utility.yul\":1236:1291   */\n    tag_152:\n        /* \"#utility.yul\":1327:1329   */\n      dup2\n        /* \"#utility.yul\":1314:1330   */\n      calldataload\n        /* \"#utility.yul\":1353:1355   */\n      dup2\n        /* \"#utility.yul\":1345:1351   */\n      dup2\n        /* \"#utility.yul\":1342:1356   */\n      gt\n        /* \"#utility.yul\":1339:1373   */\n      iszero\n      tag_153\n      jumpi\n        /* \"#utility.yul\":1369:1370   */\n      0x00\n        /* \"#utility.yul\":1366:1367   */\n      dup1\n        /* \"#utility.yul\":1359:1371   */\n      revert\n        /* \"#utility.yul\":1339:1373   */\n    tag_153:\n        /* \"#utility.yul\":1414:1421   */\n      dup9\n        /* \"#utility.yul\":1409:1411   */\n      0x20\n        /* \"#utility.yul\":1400:1406   */\n      dup3\n        /* \"#utility.yul\":1396:1398   */\n      dup6\n        /* \"#utility.yul\":1392:1407   */\n      add\n        /* \"#utility.yul\":1388:1412   */\n      add\n        /* \"#utility.yul\":1385:1422   */\n      gt\n        /* \"#utility.yul\":1382:1439   */\n      iszero\n      tag_154\n      jumpi\n        /* \"#utility.yul\":1435:1436   */\n      0x00\n        /* \"#utility.yul\":1432:1433   */\n      dup1\n        /* \"#utility.yul\":1425:1437   */\n      revert\n        /* \"#utility.yul\":1382:1439   */\n    tag_154:\n        /* \"#utility.yul\":767:1500   */\n      swap6\n      swap9\n      swap5\n      swap8\n      pop\n      pop\n        /* \"#utility.yul\":1466:1468   */\n      0x20\n        /* \"#utility.yul\":1458:1469   */\n      add\n      swap5\n      pop\n      pop\n      pop\n        /* \"#utility.yul\":767:1500   */\n      jump\t// out\n        /* \"#utility.yul\":1505:1691   */\n    tag_31:\n        /* \"#utility.yul\":1564:1570   */\n      0x00\n        /* \"#utility.yul\":1617:1619   */\n      0x20\n        /* \"#utility.yul\":1605:1614   */\n      dup3\n        /* \"#utility.yul\":1596:1603   */\n      dup5\n        /* \"#utility.yul\":1592:1615   */\n      sub\n        /* \"#utility.yul\":1588:1620   */\n      slt\n        /* \"#utility.yul\":1585:1637   */\n      iszero\n      tag_156\n      jumpi\n        /* \"#utility.yul\":1633:1634   */\n      0x00\n        /* \"#utility.yul\":1630:1631   */\n      dup1\n        /* \"#utility.yul\":1623:1635   */\n      revert\n        /* \"#utility.yul\":1585:1637   */\n    tag_156:\n        /* \"#utility.yul\":1656:1685   */\n      tag_157\n        /* \"#utility.yul\":1675:1684   */\n      dup3\n        /* \"#utility.yul\":1656:1685   */\n      tag_135\n      jump\t// in\n    tag_157:\n        /* \"#utility.yul\":1646:1685   */\n      swap4\n        /* \"#utility.yul\":1505:1691   */\n      swap3\n      pop\n      pop\n      pop\n      jump\t// out\n        /* \"#utility.yul\":1888:2142   */\n    tag_38:\n        /* \"#utility.yul\":1956:1962   */\n      0x00\n        /* \"#utility.yul\":1964:1970   */\n      dup1\n        /* \"#utility.yul\":2017:2019   */\n      0x40\n        /* \"#utility.yul\":2005:2014   */\n      dup4\n        /* \"#utility.yul\":1996:2003   */\n      dup6\n        /* \"#utility.yul\":1992:2015   */\n      sub\n        /* \"#utility.yul\":1988:2020   */\n      slt\n        /* \"#utility.yul\":1985:2037   */\n      iszero\n      tag_160\n      jumpi\n        /* \"#utility.yul\":2033:2034   */\n      0x00\n        /* \"#utility.yul\":2030:2031   */\n      dup1\n        /* \"#utility.yul\":2023:2035   */\n      revert\n        /* \"#utility.yul\":1985:2037   */\n    tag_160:\n        /* \"#utility.yul\":2069:2078   */\n      dup3\n        /* \"#utility.yul\":2056:2079   */\n      calldataload\n        /* \"#utility.yul\":2046:2079   */\n      swap2\n      pop\n        /* \"#utility.yul\":2098:2136   */\n      tag_161\n        /* \"#utility.yul\":2132:2134   */\n      0x20\n        /* \"#utility.yul\":2121:2130   */\n      dup5\n        /* \"#utility.yul\":2117:2135   */\n      add\n        /* \"#utility.yul\":2098:2136   */\n      tag_135\n      jump\t// in\n    tag_161:\n        /* \"#utility.yul\":2088:2136   */\n      swap1\n      pop\n        /* \"#utility.yul\":1888:2142   */\n      swap3\n      pop\n      swap3\n      swap1\n      pop\n      jump\t// out\n        /* \"#utility.yul\":2147:2947   */\n    tag_46:\n        /* \"#utility.yul\":2401:2402   */\n      0x01\n        /* \"#utility.yul\":2397:2398   */\n      dup1\n        /* \"#utility.yul\":2392:2395   */\n      0xa0\n        /* \"#utility.yul\":2388:2399   */\n      shl\n        /* \"#utility.yul\":2384:2403   */\n      sub\n        /* \"#utility.yul\":2376:2382   */\n      dup6\n        /* \"#utility.yul\":2372:2404   */\n      and\n        /* \"#utility.yul\":2361:2370   */\n      dup2\n        /* \"#utility.yul\":2354:2405   */\n      mstore\n        /* \"#utility.yul\":2335:2339   */\n      0x00\n        /* \"#utility.yul\":2424:2426   */\n      0x20\n        /* \"#utility.yul\":2462:2468   */\n      dup6\n        /* \"#utility.yul\":2457:2459   */\n      0x20\n        /* \"#utility.yul\":2446:2455   */\n      dup5\n        /* \"#utility.yul\":2442:2460   */\n      add\n        /* \"#utility.yul\":2435:2469   */\n      mstore\n        /* \"#utility.yul\":2505:2508   */\n      0x80\n        /* \"#utility.yul\":2500:2502   */\n      0x40\n        /* \"#utility.yul\":2489:2498   */\n      dup5\n        /* \"#utility.yul\":2485:2503   */\n      add\n        /* \"#utility.yul\":2478:2509   */\n      mstore\n        /* \"#utility.yul\":2538:2544   */\n      dup5\n        /* \"#utility.yul\":2532:2545   */\n      mload\n        /* \"#utility.yul\":2582:2588   */\n      dup1\n        /* \"#utility.yul\":2576:2579   */\n      0x80\n        /* \"#utility.yul\":2565:2574   */\n      dup6\n        /* \"#utility.yul\":2561:2580   */\n      add\n        /* \"#utility.yul\":2554:2589   */\n      mstore\n        /* \"#utility.yul\":2607:2608   */\n      0x00\n        /* \"#utility.yul\":2617:2758   */\n    tag_163:\n        /* \"#utility.yul\":2631:2637   */\n      dup2\n        /* \"#utility.yul\":2628:2629   */\n      dup2\n        /* \"#utility.yul\":2625:2638   */\n      lt\n        /* \"#utility.yul\":2617:2758   */\n      iszero\n      tag_165\n      jumpi\n        /* \"#utility.yul\":2727:2741   */\n      dup7\n      dup2\n      add\n        /* \"#utility.yul\":2723:2746   */\n      dup4\n      add\n        /* \"#utility.yul\":2717:2747   */\n      mload\n        /* \"#utility.yul\":2692:2709   */\n      dup6\n      dup3\n      add\n        /* \"#utility.yul\":2711:2714   */\n      0xa0\n        /* \"#utility.yul\":2688:2715   */\n      add\n        /* \"#utility.yul\":2681:2748   */\n      mstore\n        /* \"#utility.yul\":2646:2656   */\n      dup3\n      add\n        /* \"#utility.yul\":2617:2758   */\n      jump(tag_163)\n    tag_165:\n        /* \"#utility.yul\":2621:2624   */\n      pop\n        /* \"#utility.yul\":2808:2809   */\n      0x00\n        /* \"#utility.yul\":2802:2805   */\n      0xa0\n        /* \"#utility.yul\":2793:2799   */\n      dup3\n        /* \"#utility.yul\":2782:2791   */\n      dup7\n        /* \"#utility.yul\":2778:2800   */\n      add\n        /* \"#utility.yul\":2774:2806   */\n      add\n        /* \"#utility.yul\":2767:2810   */\n      mstore\n        /* \"#utility.yul\":2878:2881   */\n      0xa0\n        /* \"#utility.yul\":2871:2873   */\n      0x1f\n        /* \"#utility.yul\":2867:2874   */\n      not\n        /* \"#utility.yul\":2862:2864   */\n      0x1f\n        /* \"#utility.yul\":2854:2860   */\n      dup4\n        /* \"#utility.yul\":2850:2865   */\n      add\n        /* \"#utility.yul\":2846:2875   */\n      and\n        /* \"#utility.yul\":2835:2844   */\n      dup6\n        /* \"#utility.yul\":2831:2876   */\n      add\n        /* \"#utility.yul\":2827:2882   */\n      add\n        /* \"#utility.yul\":2819:2882   */\n      swap3\n      pop\n      pop\n      pop\n        /* \"#utility.yul\":2932:2938   */\n      dup3\n        /* \"#utility.yul\":2925:2939   */\n      iszero\n        /* \"#utility.yul\":2918:2940   */\n      iszero\n        /* \"#utility.yul\":2913:2915   */\n      0x60\n        /* \"#utility.yul\":2902:2911   */\n      dup4\n        /* \"#utility.yul\":2898:2916   */\n      add\n        /* \"#utility.yul\":2891:2941   */\n      mstore\n        /* \"#utility.yul\":2147:2947   */\n      swap6\n      swap5\n      pop\n      pop\n      pop\n      pop\n      pop\n      jump\t// out\n        /* \"#utility.yul\":2952:3363   */\n    tag_64:\n        /* \"#utility.yul\":3154:3156   */\n      0x20\n        /* \"#utility.yul\":3136:3157   */\n      dup1\n      dup3\n      mstore\n        /* \"#utility.yul\":3193:3195   */\n      0x2f\n        /* \"#utility.yul\":3173:3191   */\n      swap1\n      dup3\n      add\n        /* \"#utility.yul\":3166:3196   */\n      mstore\n        /* \"#utility.yul\":3232:3266   */\n      0x546865206f776e657220697320616c726561647920696e20746865207472616e\n        /* \"#utility.yul\":3227:3229   */\n      0x40\n        /* \"#utility.yul\":3212:3230   */\n      dup3\n      add\n        /* \"#utility.yul\":3205:3267   */\n      mstore\n      shl(0x88, 0x73616374696f6e2070726f63657373)\n        /* \"#utility.yul\":3298:3300   */\n      0x60\n        /* \"#utility.yul\":3283:3301   */\n      dup3\n      add\n        /* \"#utility.yul\":3276:3321   */\n      mstore\n        /* \"#utility.yul\":3353:3356   */\n      0x80\n        /* \"#utility.yul\":3338:3357   */\n      add\n      swap1\n        /* \"#utility.yul\":2952:3363   */\n      jump\t// out\n        /* \"#utility.yul\":3368:3495   */\n    tag_136:\n        /* \"#utility.yul\":3429:3439   */\n      0x4e487b71\n        /* \"#utility.yul\":3424:3427   */\n      0xe0\n        /* \"#utility.yul\":3420:3440   */\n      shl\n        /* \"#utility.yul\":3417:3418   */\n      0x00\n        /* \"#utility.yul\":3410:3441   */\n      mstore\n        /* \"#utility.yul\":3460:3464   */\n      0x41\n        /* \"#utility.yul\":3457:3458   */\n      0x04\n        /* \"#utility.yul\":3450:3465   */\n      mstore\n        /* \"#utility.yul\":3484:3488   */\n      0x24\n        /* \"#utility.yul\":3481:3482   */\n      0x00\n        /* \"#utility.yul\":3474:3489   */\n      revert\n        /* \"#utility.yul\":3500:3880   */\n    tag_74:\n        /* \"#utility.yul\":3579:3580   */\n      0x01\n        /* \"#utility.yul\":3575:3587   */\n      dup2\n      dup2\n      shr\n      swap1\n        /* \"#utility.yul\":3622:3634   */\n      dup3\n      and\n      dup1\n        /* \"#utility.yul\":3643:3704   */\n      tag_169\n      jumpi\n        /* \"#utility.yul\":3697:3701   */\n      0x7f\n        /* \"#utility.yul\":3689:3695   */\n      dup3\n        /* \"#utility.yul\":3685:3702   */\n      and\n        /* \"#utility.yul\":3675:3702   */\n      swap2\n      pop\n        /* \"#utility.yul\":3643:3704   */\n    tag_169:\n        /* \"#utility.yul\":3750:3752   */\n      0x20\n        /* \"#utility.yul\":3742:3748   */\n      dup3\n        /* \"#utility.yul\":3739:3753   */\n      lt\n        /* \"#utility.yul\":3719:3737   */\n      dup2\n        /* \"#utility.yul\":3716:3754   */\n      sub\n        /* \"#utility.yul\":3713:3874   */\n      tag_127\n      jumpi\n        /* \"#utility.yul\":3796:3806   */\n      0x4e487b71\n        /* \"#utility.yul\":3791:3794   */\n      0xe0\n        /* \"#utility.yul\":3787:3807   */\n      shl\n        /* \"#utility.yul\":3784:3785   */\n      0x00\n        /* \"#utility.yul\":3777:3808   */\n      mstore\n        /* \"#utility.yul\":3831:3835   */\n      0x22\n        /* \"#utility.yul\":3828:3829   */\n      0x04\n        /* \"#utility.yul\":3821:3836   */\n      mstore\n        /* \"#utility.yul\":3859:3863   */\n      0x24\n        /* \"#utility.yul\":3856:3857   */\n      0x00\n        /* \"#utility.yul\":3849:3864   */\n      revert\n        /* \"#utility.yul\":4010:4527   */\n    tag_138:\n        /* \"#utility.yul\":4111:4113   */\n      0x1f\n        /* \"#utility.yul\":4106:4109   */\n      dup3\n        /* \"#utility.yul\":4103:4114   */\n      gt\n        /* \"#utility.yul\":4100:4521   */\n      iszero\n      tag_173\n      jumpi\n        /* \"#utility.yul\":4147:4152   */\n      dup1\n        /* \"#utility.yul\":4144:4145   */\n      0x00\n        /* \"#utility.yul\":4137:4153   */\n      mstore\n        /* \"#utility.yul\":4191:4195   */\n      0x20\n        /* \"#utility.yul\":4188:4189   */\n      0x00\n        /* \"#utility.yul\":4178:4196   */\n      keccak256\n        /* \"#utility.yul\":4261:4263   */\n      0x1f\n        /* \"#utility.yul\":4249:4259   */\n      dup5\n        /* \"#utility.yul\":4245:4264   */\n      add\n        /* \"#utility.yul\":4242:4243   */\n      0x05\n        /* \"#utility.yul\":4238:4265   */\n      shr\n        /* \"#utility.yul\":4232:4236   */\n      dup2\n        /* \"#utility.yul\":4228:4266   */\n      add\n        /* \"#utility.yul\":4297:4301   */\n      0x20\n        /* \"#utility.yul\":4285:4295   */\n      dup6\n        /* \"#utility.yul\":4282:4302   */\n      lt\n        /* \"#utility.yul\":4279:4326   */\n      iszero\n      tag_174\n      jumpi\n      pop\n        /* \"#utility.yul\":4320:4324   */\n      dup1\n        /* \"#utility.yul\":4279:4326   */\n    tag_174:\n        /* \"#utility.yul\":4375:4377   */\n      0x1f\n        /* \"#utility.yul\":4370:4373   */\n      dup5\n        /* \"#utility.yul\":4366:4378   */\n      add\n        /* \"#utility.yul\":4363:4364   */\n      0x05\n        /* \"#utility.yul\":4359:4379   */\n      shr\n        /* \"#utility.yul\":4353:4357   */\n      dup3\n        /* \"#utility.yul\":4349:4380   */\n      add\n        /* \"#utility.yul\":4339:4380   */\n      swap2\n      pop\n        /* \"#utility.yul\":4430:4511   */\n    tag_175:\n        /* \"#utility.yul\":4448:4450   */\n      dup2\n        /* \"#utility.yul\":4441:4446   */\n      dup2\n        /* \"#utility.yul\":4438:4451   */\n      lt\n        /* \"#utility.yul\":4430:4511   */\n      iszero\n      tag_177\n      jumpi\n        /* \"#utility.yul\":4507:4508   */\n      0x00\n        /* \"#utility.yul\":4493:4509   */\n      dup2\n      sstore\n        /* \"#utility.yul\":4474:4475   */\n      0x01\n        /* \"#utility.yul\":4463:4476   */\n      add\n        /* \"#utility.yul\":4430:4511   */\n      jump(tag_175)\n    tag_177:\n        /* \"#utility.yul\":4434:4437   */\n      pop\n      pop\n        /* \"#utility.yul\":4100:4521   */\n    tag_173:\n        /* \"#utility.yul\":4010:4527   */\n      pop\n      pop\n      pop\n      jump\t// out\n        /* \"#utility.yul\":4703:6044   */\n    tag_68:\n        /* \"#utility.yul\":4827:4830   */\n      dup2\n        /* \"#utility.yul\":4821:4831   */\n      mload\n        /* \"#utility.yul\":4854:4872   */\n      0xffffffffffffffff\n        /* \"#utility.yul\":4846:4852   */\n      dup2\n        /* \"#utility.yul\":4843:4873   */\n      gt\n        /* \"#utility.yul\":4840:4896   */\n      iszero\n      tag_181\n      jumpi\n        /* \"#utility.yul\":4876:4894   */\n      tag_181\n      tag_136\n      jump\t// in\n    tag_181:\n        /* \"#utility.yul\":4905:5001   */\n      tag_182\n        /* \"#utility.yul\":4994:5000   */\n      dup2\n        /* \"#utility.yul\":4954:4992   */\n      tag_183\n        /* \"#utility.yul\":4986:4990   */\n      dup5\n        /* \"#utility.yul\":4980:4991   */\n      sload\n        /* \"#utility.yul\":4954:4992   */\n      tag_74\n      jump\t// in\n    tag_183:\n        /* \"#utility.yul\":4948:4952   */\n      dup5\n        /* \"#utility.yul\":4905:5001   */\n      tag_138\n      jump\t// in\n    tag_182:\n        /* \"#utility.yul\":5056:5060   */\n      0x20\n      dup1\n        /* \"#utility.yul\":5113:5115   */\n      0x1f\n        /* \"#utility.yul\":5102:5116   */\n      dup4\n      gt\n        /* \"#utility.yul\":5130:5131   */\n      0x01\n        /* \"#utility.yul\":5125:5787   */\n      dup2\n      eq\n      tag_185\n      jumpi\n        /* \"#utility.yul\":5831:5832   */\n      0x00\n        /* \"#utility.yul\":5848:5854   */\n      dup5\n        /* \"#utility.yul\":5845:5934   */\n      iszero\n      tag_186\n      jumpi\n      pop\n        /* \"#utility.yul\":5900:5919   */\n      dup6\n      dup4\n      add\n        /* \"#utility.yul\":5894:5920   */\n      mload\n        /* \"#utility.yul\":5845:5934   */\n    tag_186:\n      not(0x00)\n        /* \"#utility.yul\":4660:4661   */\n      0x03\n        /* \"#utility.yul\":4656:4667   */\n      dup7\n      swap1\n      shl\n        /* \"#utility.yul\":4652:4676   */\n      shr\n        /* \"#utility.yul\":4648:4677   */\n      not\n        /* \"#utility.yul\":4638:4678   */\n      and\n        /* \"#utility.yul\":4684:4685   */\n      0x01\n        /* \"#utility.yul\":4680:4691   */\n      dup6\n      swap1\n      shl\n        /* \"#utility.yul\":4635:4692   */\n      or\n        /* \"#utility.yul\":5947:6028   */\n      dup6\n      sstore\n        /* \"#utility.yul\":5095:6038   */\n      jump(tag_184)\n        /* \"#utility.yul\":5125:5787   */\n    tag_185:\n        /* \"#utility.yul\":3957:3958   */\n      0x00\n        /* \"#utility.yul\":3950:3964   */\n      dup6\n      dup2\n      mstore\n        /* \"#utility.yul\":3994:3998   */\n      0x20\n        /* \"#utility.yul\":3981:3999   */\n      dup2\n      keccak256\n      not(0x1f)\n        /* \"#utility.yul\":5161:5181   */\n      dup7\n      and\n      swap2\n        /* \"#utility.yul\":5278:5514   */\n    tag_189:\n        /* \"#utility.yul\":5292:5299   */\n      dup3\n        /* \"#utility.yul\":5289:5290   */\n      dup2\n        /* \"#utility.yul\":5286:5300   */\n      lt\n        /* \"#utility.yul\":5278:5514   */\n      iszero\n      tag_191\n      jumpi\n        /* \"#utility.yul\":5381:5400   */\n      dup9\n      dup7\n      add\n        /* \"#utility.yul\":5375:5401   */\n      mload\n        /* \"#utility.yul\":5360:5402   */\n      dup3\n      sstore\n        /* \"#utility.yul\":5473:5500   */\n      swap5\n      dup5\n      add\n      swap5\n        /* \"#utility.yul\":5441:5442   */\n      0x01\n        /* \"#utility.yul\":5429:5443   */\n      swap1\n      swap2\n      add\n      swap1\n        /* \"#utility.yul\":5308:5327   */\n      dup5\n      add\n        /* \"#utility.yul\":5278:5514   */\n      jump(tag_189)\n    tag_191:\n        /* \"#utility.yul\":5282:5285   */\n      pop\n        /* \"#utility.yul\":5542:5548   */\n      dup6\n        /* \"#utility.yul\":5533:5540   */\n      dup3\n        /* \"#utility.yul\":5530:5549   */\n      lt\n        /* \"#utility.yul\":5527:5728   */\n      iszero\n      tag_192\n      jumpi\n        /* \"#utility.yul\":5603:5622   */\n      dup8\n      dup6\n      add\n        /* \"#utility.yul\":5597:5623   */\n      mload\n      not(0x00)\n        /* \"#utility.yul\":5686:5687   */\n      0x03\n        /* \"#utility.yul\":5682:5696   */\n      dup9\n      swap1\n      shl\n        /* \"#utility.yul\":5698:5701   */\n      0xf8\n        /* \"#utility.yul\":5678:5702   */\n      and\n        /* \"#utility.yul\":5674:5711   */\n      shr\n        /* \"#utility.yul\":5670:5712   */\n      not\n        /* \"#utility.yul\":5655:5713   */\n      and\n        /* \"#utility.yul\":5640:5714   */\n      dup2\n      sstore\n        /* \"#utility.yul\":5527:5728   */\n    tag_192:\n      pop\n      pop\n        /* \"#utility.yul\":5774:5775   */\n      0x01\n        /* \"#utility.yul\":5765:5771   */\n      dup5\n        /* \"#utility.yul\":5762:5763   */\n      0x01\n        /* \"#utility.yul\":5758:5772   */\n      shl\n        /* \"#utility.yul\":5754:5776   */\n      add\n        /* \"#utility.yul\":5748:5752   */\n      dup6\n        /* \"#utility.yul\":5741:5777   */\n      sstore\n        /* \"#utility.yul\":5095:6038   */\n    tag_184:\n      pop\n      pop\n      pop\n      pop\n        /* \"#utility.yul\":4703:6044   */\n      pop\n      pop\n      jump\t// out\n        /* \"#utility.yul\":6049:6176   */\n    tag_140:\n        /* \"#utility.yul\":6110:6120   */\n      0x4e487b71\n        /* \"#utility.yul\":6105:6108   */\n      0xe0\n        /* \"#utility.yul\":6101:6121   */\n      shl\n        /* \"#utility.yul\":6098:6099   */\n      0x00\n        /* \"#utility.yul\":6091:6122   */\n      mstore\n        /* \"#utility.yul\":6141:6145   */\n      0x11\n        /* \"#utility.yul\":6138:6139   */\n      0x04\n        /* \"#utility.yul\":6131:6146   */\n      mstore\n        /* \"#utility.yul\":6165:6169   */\n      0x24\n        /* \"#utility.yul\":6162:6163   */\n      0x00\n        /* \"#utility.yul\":6155:6170   */\n      revert\n        /* \"#utility.yul\":6181:6309   */\n    tag_70:\n        /* \"#utility.yul\":6248:6257   */\n      dup2\n      dup2\n      sub\n        /* \"#utility.yul\":6269:6280   */\n      dup2\n      dup2\n      gt\n        /* \"#utility.yul\":6266:6303   */\n      iszero\n      tag_196\n      jumpi\n        /* \"#utility.yul\":6283:6301   */\n      tag_196\n      tag_140\n      jump\t// in\n    tag_196:\n        /* \"#utility.yul\":6181:6309   */\n      swap3\n      swap2\n      pop\n      pop\n      jump\t// out\n        /* \"#utility.yul\":7034:7161   */\n    tag_93:\n        /* \"#utility.yul\":7095:7105   */\n      0x4e487b71\n        /* \"#utility.yul\":7090:7093   */\n      0xe0\n        /* \"#utility.yul\":7086:7106   */\n      shl\n        /* \"#utility.yul\":7083:7084   */\n      0x00\n        /* \"#utility.yul\":7076:7107   */\n      mstore\n        /* \"#utility.yul\":7126:7130   */\n      0x32\n        /* \"#utility.yul\":7123:7124   */\n      0x04\n        /* \"#utility.yul\":7116:7131   */\n      mstore\n        /* \"#utility.yul\":7150:7154   */\n      0x24\n        /* \"#utility.yul\":7147:7148   */\n      0x00\n        /* \"#utility.yul\":7140:7155   */\n      revert\n        /* \"#utility.yul\":7166:7563   */\n    tag_97:\n        /* \"#utility.yul\":7368:7370   */\n      0x20\n        /* \"#utility.yul\":7350:7371   */\n      dup1\n      dup3\n      mstore\n        /* \"#utility.yul\":7407:7409   */\n      0x21\n        /* \"#utility.yul\":7387:7405   */\n      swap1\n      dup3\n      add\n        /* \"#utility.yul\":7380:7410   */\n      mstore\n        /* \"#utility.yul\":7446:7480   */\n      0x546865207472616e73616374696f6e20686173206265656e2065786563757465\n        /* \"#utility.yul\":7441:7443   */\n      0x40\n        /* \"#utility.yul\":7426:7444   */\n      dup3\n      add\n        /* \"#utility.yul\":7419:7481   */\n      mstore\n      shl(0xfa, 0x19)\n        /* \"#utility.yul\":7512:7514   */\n      0x60\n        /* \"#utility.yul\":7497:7515   */\n      dup3\n      add\n        /* \"#utility.yul\":7490:7521   */\n      mstore\n        /* \"#utility.yul\":7553:7556   */\n      0x80\n        /* \"#utility.yul\":7538:7557   */\n      add\n      swap1\n        /* \"#utility.yul\":7166:7563   */\n      jump\t// out\n        /* \"#utility.yul\":7920:8761   */\n    tag_118:\n        /* \"#utility.yul\":8046:8049   */\n      0x00\n        /* \"#utility.yul\":8075:8076   */\n      dup1\n        /* \"#utility.yul\":8108:8114   */\n      dup4\n        /* \"#utility.yul\":8102:8115   */\n      sload\n        /* \"#utility.yul\":8138:8174   */\n      tag_203\n        /* \"#utility.yul\":8164:8173   */\n      dup2\n        /* \"#utility.yul\":8138:8174   */\n      tag_74\n      jump\t// in\n    tag_203:\n        /* \"#utility.yul\":8193:8194   */\n      0x01\n        /* \"#utility.yul\":8210:8227   */\n      dup3\n      dup2\n      and\n        /* \"#utility.yul\":8236:8369   */\n      dup1\n      iszero\n      tag_205\n      jumpi\n        /* \"#utility.yul\":8383:8384   */\n      0x01\n        /* \"#utility.yul\":8378:8736   */\n      dup2\n      eq\n      tag_206\n      jumpi\n        /* \"#utility.yul\":8203:8736   */\n      jump(tag_204)\n        /* \"#utility.yul\":8236:8369   */\n    tag_205:\n      not(0xff)\n        /* \"#utility.yul\":8269:8293   */\n      dup5\n      and\n        /* \"#utility.yul\":8257:8294   */\n      dup8\n      mstore\n        /* \"#utility.yul\":8342:8356   */\n      dup3\n      iszero\n        /* \"#utility.yul\":8335:8357   */\n      iszero\n        /* \"#utility.yul\":8323:8358   */\n      dup4\n      mul\n        /* \"#utility.yul\":8314:8359   */\n      dup8\n      add\n      swap5\n      pop\n        /* \"#utility.yul\":8236:8369   */\n      jump(tag_204)\n        /* \"#utility.yul\":8378:8736   */\n    tag_206:\n        /* \"#utility.yul\":8409:8415   */\n      dup8\n        /* \"#utility.yul\":8406:8407   */\n      0x00\n        /* \"#utility.yul\":8399:8416   */\n      mstore\n        /* \"#utility.yul\":8439:8443   */\n      0x20\n        /* \"#utility.yul\":8484:8488   */\n      dup1\n        /* \"#utility.yul\":8481:8482   */\n      0x00\n        /* \"#utility.yul\":8471:8489   */\n      keccak256\n        /* \"#utility.yul\":8511:8512   */\n      0x00\n        /* \"#utility.yul\":8525:8690   */\n    tag_207:\n        /* \"#utility.yul\":8539:8545   */\n      dup6\n        /* \"#utility.yul\":8536:8537   */\n      dup2\n        /* \"#utility.yul\":8533:8546   */\n      lt\n        /* \"#utility.yul\":8525:8690   */\n      iszero\n      tag_209\n      jumpi\n        /* \"#utility.yul\":8617:8631   */\n      dup2\n      sload\n        /* \"#utility.yul\":8604:8615   */\n      dup11\n      dup3\n      add\n        /* \"#utility.yul\":8597:8632   */\n      mstore\n        /* \"#utility.yul\":8660:8676   */\n      swap1\n      dup5\n      add\n      swap1\n        /* \"#utility.yul\":8554:8564   */\n      dup3\n      add\n        /* \"#utility.yul\":8525:8690   */\n      jump(tag_207)\n    tag_209:\n        /* \"#utility.yul\":8529:8532   */\n      pop\n      pop\n      pop\n        /* \"#utility.yul\":8719:8725   */\n      dup3\n        /* \"#utility.yul\":8714:8717   */\n      dup8\n        /* \"#utility.yul\":8710:8726   */\n      add\n        /* \"#utility.yul\":8703:8726   */\n      swap5\n      pop\n        /* \"#utility.yul\":8203:8736   */\n    tag_204:\n      pop\n        /* \"#utility.yul\":8752:8755   */\n      swap3\n      swap7\n        /* \"#utility.yul\":7920:8761   */\n      swap6\n      pop\n      pop\n      pop\n      pop\n      pop\n      pop\n      jump\t// out\n        /* \"#utility.yul\":9105:9230   */\n    tag_134:\n        /* \"#utility.yul\":9170:9179   */\n      dup1\n      dup3\n      add\n        /* \"#utility.yul\":9191:9201   */\n      dup1\n      dup3\n      gt\n        /* \"#utility.yul\":9188:9224   */\n      iszero\n      tag_196\n      jumpi\n        /* \"#utility.yul\":9204:9222   */\n      tag_196\n      tag_140\n      jump\t// in\n\n    auxdata: 0xa26469706673582212204da05df3df0090eb8435a85e74cd2ed638ec090fdfb7c36bf2de642778a4ccb664736f6c63430008170033\n}\n",
				"bytecode": {
					"linkReferences": {},
					"object": "608060405234801562000010575f80fd5b5060405162000ffc38038062000ffc833981016040819052620000339162000268565b5f8251116200007b5760405162461bcd60e51b815260206004820152600f60248201526e1bdddb995c9cc81c995c5d5a5c9959608a1b60448201526064015b60405180910390fd5b5f811180156200008c575081518111155b620000da5760405162461bcd60e51b815260206004820152601460248201527f5f726571756972656420496e636f72726563746f000000000000000000000000604482015260640162000072565b5f5b82518110156200022d575f838281518110620000fc57620000fc6200033d565b602002602001015190505f6001600160a01b0316816001600160a01b0316036200015b5760405162461bcd60e51b815260206004820152600f60248201526e1bdddb995c9cc81c995c5d5a5c9959608a1b604482015260640162000072565b6001600160a01b0381165f9081526001602052604090205460ff1615620001c55760405162461bcd60e51b815260206004820152601a60248201527f4f776e65722064656265207365722073696e2061677265676172000000000000604482015260640162000072565b5f8054600181810183557f290decd9548b62a8d60345a988386fc84ba6bc95484008f6362f93160ef3e56390910180546001600160a01b039094166001600160a01b031990941684179055918152602082905260409020805460ff19168217905501620000dc565b506002555062000351565b634e487b7160e01b5f52604160045260245ffd5b80516001600160a01b038116811462000263575f80fd5b919050565b5f80604083850312156200027a575f80fd5b82516001600160401b038082111562000291575f80fd5b818501915085601f830112620002a5575f80fd5b8151602082821115620002bc57620002bc62000238565b8160051b604051601f19603f83011681018181108682111715620002e457620002e462000238565b60405292835281830193508481018201928984111562000302575f80fd5b948201945b838610156200032b576200031b866200024c565b8552948201949382019362000307565b97909101519698969750505050505050565b634e487b7160e01b5f52603260045260245ffd5b610c9d806200035f5f395ff3fe60806040526004361061007c575f3560e01c80639ace38c21161004c5780639ace38c214610190578063b759f954146101bf578063dc8452cd146101de578063fe0d94c114610201575f80fd5b8063025e7c27146100bc57806314de327f146100f85780632f54bf6e146101195780638253951a14610157575f80fd5b366100b85760405134815233907fe1fffcc4923d04b559f4d29a8bfc6cda04eb5b0d3c460751c2402c5c5cc9109c9060200160405180910390a2005b5f80fd5b3480156100c7575f80fd5b506100db6100d6366004610857565b610220565b6040516001600160a01b0390911681526020015b60405180910390f35b348015610103575f80fd5b50610117610112366004610889565b610247565b005b348015610124575f80fd5b50610147610133366004610909565b60016020525f908152604090205460ff1681565b60405190151581526020016100ef565b348015610162575f80fd5b50610147610171366004610929565b600460209081525f928352604080842090915290825290205460ff1681565b34801561019b575f80fd5b506101af6101aa366004610857565b61038d565b6040516100ef9493929190610953565b3480156101ca575f80fd5b506101176101d9366004610857565b61045b565b3480156101e9575f80fd5b506101f360025481565b6040519081526020016100ef565b34801561020c575f80fd5b5061011761021b366004610857565b6105e2565b5f818154811061022e575f80fd5b5f918252602090912001546001600160a01b0316905081565b335f9081526001602052604090205460ff1661027e5760405162461bcd60e51b8152600401610275906109bf565b60405180910390fd5b60036040518060800160405280866001600160a01b0316815260200185815260200184848080601f0160208091040260200160405190810160405280939291908181526020018383808284375f920182905250938552505050602091820181905283546001808201865594825290829020835160049092020180546001600160a01b0319166001600160a01b039092169190911781559082015192810192909255604081015190919060028201906103369082610aa0565b50606091909101516003918201805460ff19169115159190911790555461035f90600190610b74565b6040517f08324b3d745b914e3abd4ffbfead91e3b78391a98c173202129215ab933adfbe905f90a250505050565b6003818154811061039c575f80fd5b5f9182526020909120600490910201805460018201546002830180546001600160a01b0390931694509092916103d190610a22565b80601f01602080910402602001604051908101604052809291908181526020018280546103fd90610a22565b80156104485780601f1061041f57610100808354040283529160200191610448565b820191905f5260205f20905b81548152906001019060200180831161042b57829003601f168201915b5050506003909301549192505060ff1684565b335f9081526001602052604090205460ff166104895760405162461bcd60e51b8152600401610275906109bf565b600354819081106104dc5760405162461bcd60e51b815260206004820152601e60248201527f546865207472616e73616374696f6e20646f6573206e6f7420657869737400006044820152606401610275565b5f828152600460209081526040808320338452909152902054829060ff16156105475760405162461bcd60e51b815260206004820181905260248201527f546865207472616e73616374696f6e20686173206265656e20616c6c6f7765646044820152606401610275565b826003818154811061055b5761055b610b8d565b5f91825260209091206003600490920201015460ff161561058e5760405162461bcd60e51b815260040161027590610ba1565b604051849033907f90ec57f18fa7b15c6b8d5e4d1deb90796c74b2ff23d4d0cecad0cb42a96b3128905f90a35050505f9081526004602090815260408083203384529091529020805460ff19166001179055565b600354819081106106355760405162461bcd60e51b815260206004820152601e60248201527f546865207472616e73616374696f6e20646f6573206e6f7420657869737400006044820152606401610275565b816003818154811061064957610649610b8d565b5f91825260209091206003600490920201015460ff161561067c5760405162461bcd60e51b815260040161027590610ba1565b600254610688846107df565b10156106d65760405162461bcd60e51b815260206004820152601760248201527f417070726f7665436f756e74203c2072657175697265640000000000000000006044820152606401610275565b5f600384815481106106ea576106ea610b8d565b5f918252602082206003600490920201908101805460ff191660019081179091558154908201546040519294506001600160a01b0390911691610731906002860190610be2565b5f6040518083038185875af1925050503d805f811461076b576040519150601f19603f3d011682016040523d82523d5f602084013e610770565b606091505b50509050806107ae5760405162461bcd60e51b815260206004820152600a6024820152697478206661696c75726560b01b6044820152606401610275565b60405185907fddb556f1d2c1ec821e910b019d3685b229db152a0ecd517ca7e24b8bd7139289905f90a25050505050565b5f805b5f548110156108515760045f8481526020019081526020015f205f80838154811061080f5761080f610b8d565b5f9182526020808320909101546001600160a01b0316835282019290925260400190205460ff161561084957610846600183610c54565b91505b6001016107e2565b50919050565b5f60208284031215610867575f80fd5b5035919050565b80356001600160a01b0381168114610884575f80fd5b919050565b5f805f806060858703121561089c575f80fd5b6108a58561086e565b935060208501359250604085013567ffffffffffffffff808211156108c8575f80fd5b818701915087601f8301126108db575f80fd5b8135818111156108e9575f80fd5b8860208285010111156108fa575f80fd5b95989497505060200194505050565b5f60208284031215610919575f80fd5b6109228261086e565b9392505050565b5f806040838503121561093a575f80fd5b8235915061094a6020840161086e565b90509250929050565b60018060a01b03851681525f60208560208401526080604084015284518060808501525f5b818110156109945786810183015185820160a001528201610978565b505f60a0828601015260a0601f19601f83011685010192505050821515606083015295945050505050565b6020808252602f908201527f546865206f776e657220697320616c726561647920696e20746865207472616e60408201526e73616374696f6e2070726f6365737360881b606082015260800190565b634e487b7160e01b5f52604160045260245ffd5b600181811c90821680610a3657607f821691505b60208210810361085157634e487b7160e01b5f52602260045260245ffd5b601f821115610a9b57805f5260205f20601f840160051c81016020851015610a795750805b601f840160051c820191505b81811015610a98575f8155600101610a85565b50505b505050565b815167ffffffffffffffff811115610aba57610aba610a0e565b610ace81610ac88454610a22565b84610a54565b602080601f831160018114610b01575f8415610aea5750858301515b5f19600386901b1c1916600185901b178555610b58565b5f85815260208120601f198616915b82811015610b2f57888601518255948401946001909101908401610b10565b5085821015610b4c57878501515f19600388901b60f8161c191681555b505060018460011b0185555b505050505050565b634e487b7160e01b5f52601160045260245ffd5b81810381811115610b8757610b87610b60565b92915050565b634e487b7160e01b5f52603260045260245ffd5b60208082526021908201527f546865207472616e73616374696f6e20686173206265656e20657865637574656040820152601960fa1b606082015260800190565b5f808354610bef81610a22565b60018281168015610c075760018114610c1c57610c48565b60ff1984168752821515830287019450610c48565b875f526020805f205f5b85811015610c3f5781548a820152908401908201610c26565b50505082870194505b50929695505050505050565b80820180821115610b8757610b87610b6056fea26469706673582212204da05df3df0090eb8435a85e74cd2ed638ec090fdfb7c36bf2de642778a4ccb664736f6c63430008170033",
					"opcodes": "PUSH1 0x80 PUSH1 0x40 MSTORE CALLVALUE DUP1 ISZERO PUSH3 0x10 JUMPI PUSH0 DUP1 REVERT JUMPDEST POP PUSH1 0x40 MLOAD PUSH3 0xFFC CODESIZE SUB DUP1 PUSH3 0xFFC DUP4 CODECOPY DUP2 ADD PUSH1 0x40 DUP2 SWAP1 MSTORE PUSH3 0x33 SWAP2 PUSH3 0x268 JUMP JUMPDEST PUSH0 DUP3 MLOAD GT PUSH3 0x7B JUMPI PUSH1 0x40 MLOAD PUSH3 0x461BCD PUSH1 0xE5 SHL DUP2 MSTORE PUSH1 0x20 PUSH1 0x4 DUP3 ADD MSTORE PUSH1 0xF PUSH1 0x24 DUP3 ADD MSTORE PUSH15 0x1BDDDB995C9CC81C995C5D5A5C9959 PUSH1 0x8A SHL PUSH1 0x44 DUP3 ADD MSTORE PUSH1 0x64 ADD JUMPDEST PUSH1 0x40 MLOAD DUP1 SWAP2 SUB SWAP1 REVERT JUMPDEST PUSH0 DUP2 GT DUP1 ISZERO PUSH3 0x8C JUMPI POP DUP2 MLOAD DUP2 GT ISZERO JUMPDEST PUSH3 0xDA JUMPI PUSH1 0x40 MLOAD PUSH3 0x461BCD PUSH1 0xE5 SHL DUP2 MSTORE PUSH1 0x20 PUSH1 0x4 DUP3 ADD MSTORE PUSH1 0x14 PUSH1 0x24 DUP3 ADD MSTORE PUSH32 0x5F726571756972656420496E636F72726563746F000000000000000000000000 PUSH1 0x44 DUP3 ADD MSTORE PUSH1 0x64 ADD PUSH3 0x72 JUMP JUMPDEST PUSH0 JUMPDEST DUP3 MLOAD DUP2 LT ISZERO PUSH3 0x22D JUMPI PUSH0 DUP4 DUP3 DUP2 MLOAD DUP2 LT PUSH3 0xFC JUMPI PUSH3 0xFC PUSH3 0x33D JUMP JUMPDEST PUSH1 0x20 MUL PUSH1 0x20 ADD ADD MLOAD SWAP1 POP PUSH0 PUSH1 0x1 PUSH1 0x1 PUSH1 0xA0 SHL SUB AND DUP2 PUSH1 0x1 PUSH1 0x1 PUSH1 0xA0 SHL SUB AND SUB PUSH3 0x15B JUMPI PUSH1 0x40 MLOAD PUSH3 0x461BCD PUSH1 0xE5 SHL DUP2 MSTORE PUSH1 0x20 PUSH1 0x4 DUP3 ADD MSTORE PUSH1 0xF PUSH1 0x24 DUP3 ADD MSTORE PUSH15 0x1BDDDB995C9CC81C995C5D5A5C9959 PUSH1 0x8A SHL PUSH1 0x44 DUP3 ADD MSTORE PUSH1 0x64 ADD PUSH3 0x72 JUMP JUMPDEST PUSH1 0x1 PUSH1 0x1 PUSH1 0xA0 SHL SUB DUP2 AND PUSH0 SWAP1 DUP2 MSTORE PUSH1 0x1 PUSH1 0x20 MSTORE PUSH1 0x40 SWAP1 KECCAK256 SLOAD PUSH1 0xFF AND ISZERO PUSH3 0x1C5 JUMPI PUSH1 0x40 MLOAD PUSH3 0x461BCD PUSH1 0xE5 SHL DUP2 MSTORE PUSH1 0x20 PUSH1 0x4 DUP3 ADD MSTORE PUSH1 0x1A PUSH1 0x24 DUP3 ADD MSTORE PUSH32 0x4F776E65722064656265207365722073696E2061677265676172000000000000 PUSH1 0x44 DUP3 ADD MSTORE PUSH1 0x64 ADD PUSH3 0x72 JUMP JUMPDEST PUSH0 DUP1 SLOAD PUSH1 0x1 DUP2 DUP2 ADD DUP4 SSTORE PUSH32 0x290DECD9548B62A8D60345A988386FC84BA6BC95484008F6362F93160EF3E563 SWAP1 SWAP2 ADD DUP1 SLOAD PUSH1 0x1 PUSH1 0x1 PUSH1 0xA0 SHL SUB SWAP1 SWAP5 AND PUSH1 0x1 PUSH1 0x1 PUSH1 0xA0 SHL SUB NOT SWAP1 SWAP5 AND DUP5 OR SWAP1 SSTORE SWAP2 DUP2 MSTORE PUSH1 0x20 DUP3 SWAP1 MSTORE PUSH1 0x40 SWAP1 KECCAK256 DUP1 SLOAD PUSH1 0xFF NOT AND DUP3 OR SWAP1 SSTORE ADD PUSH3 0xDC JUMP JUMPDEST POP PUSH1 0x2 SSTORE POP PUSH3 0x351 JUMP JUMPDEST PUSH4 0x4E487B71 PUSH1 0xE0 SHL PUSH0 MSTORE PUSH1 0x41 PUSH1 0x4 MSTORE PUSH1 0x24 PUSH0 REVERT JUMPDEST DUP1 MLOAD PUSH1 0x1 PUSH1 0x1 PUSH1 0xA0 SHL SUB DUP2 AND DUP2 EQ PUSH3 0x263 JUMPI PUSH0 DUP1 REVERT JUMPDEST SWAP2 SWAP1 POP JUMP JUMPDEST PUSH0 DUP1 PUSH1 0x40 DUP4 DUP6 SUB SLT ISZERO PUSH3 0x27A JUMPI PUSH0 DUP1 REVERT JUMPDEST DUP3 MLOAD PUSH1 0x1 PUSH1 0x1 PUSH1 0x40 SHL SUB DUP1 DUP3 GT ISZERO PUSH3 0x291 JUMPI PUSH0 DUP1 REVERT JUMPDEST DUP2 DUP6 ADD SWAP2 POP DUP6 PUSH1 0x1F DUP4 ADD SLT PUSH3 0x2A5 JUMPI PUSH0 DUP1 REVERT JUMPDEST DUP2 MLOAD PUSH1 0x20 DUP3 DUP3 GT ISZERO PUSH3 0x2BC JUMPI PUSH3 0x2BC PUSH3 0x238 JUMP JUMPDEST DUP2 PUSH1 0x5 SHL PUSH1 0x40 MLOAD PUSH1 0x1F NOT PUSH1 0x3F DUP4 ADD AND DUP2 ADD DUP2 DUP2 LT DUP7 DUP3 GT OR ISZERO PUSH3 0x2E4 JUMPI PUSH3 0x2E4 PUSH3 0x238 JUMP JUMPDEST PUSH1 0x40 MSTORE SWAP3 DUP4 MSTORE DUP2 DUP4 ADD SWAP4 POP DUP5 DUP2 ADD DUP3 ADD SWAP3 DUP10 DUP5 GT ISZERO PUSH3 0x302 JUMPI PUSH0 DUP1 REVERT JUMPDEST SWAP5 DUP3 ADD SWAP5 JUMPDEST DUP4 DUP7 LT ISZERO PUSH3 0x32B JUMPI PUSH3 0x31B DUP7 PUSH3 0x24C JUMP JUMPDEST DUP6 MSTORE SWAP5 DUP3 ADD SWAP5 SWAP4 DUP3 ADD SWAP4 PUSH3 0x307 JUMP JUMPDEST SWAP8 SWAP1 SWAP2 ADD MLOAD SWAP7 SWAP9 SWAP7 SWAP8 POP POP POP POP POP POP POP JUMP JUMPDEST PUSH4 0x4E487B71 PUSH1 0xE0 SHL PUSH0 MSTORE PUSH1 0x32 PUSH1 0x4 MSTORE PUSH1 0x24 PUSH0 REVERT JUMPDEST PUSH2 0xC9D DUP1 PUSH3 0x35F PUSH0 CODECOPY PUSH0 RETURN INVALID PUSH1 0x80 PUSH1 0x40 MSTORE PUSH1 0x4 CALLDATASIZE LT PUSH2 0x7C JUMPI PUSH0 CALLDATALOAD PUSH1 0xE0 SHR DUP1 PUSH4 0x9ACE38C2 GT PUSH2 0x4C JUMPI DUP1 PUSH4 0x9ACE38C2 EQ PUSH2 0x190 JUMPI DUP1 PUSH4 0xB759F954 EQ PUSH2 0x1BF JUMPI DUP1 PUSH4 0xDC8452CD EQ PUSH2 0x1DE JUMPI DUP1 PUSH4 0xFE0D94C1 EQ PUSH2 0x201 JUMPI PUSH0 DUP1 REVERT JUMPDEST DUP1 PUSH4 0x25E7C27 EQ PUSH2 0xBC JUMPI DUP1 PUSH4 0x14DE327F EQ PUSH2 0xF8 JUMPI DUP1 PUSH4 0x2F54BF6E EQ PUSH2 0x119 JUMPI DUP1 PUSH4 0x8253951A EQ PUSH2 0x157 JUMPI PUSH0 DUP1 REVERT JUMPDEST CALLDATASIZE PUSH2 0xB8 JUMPI PUSH1 0x40 MLOAD CALLVALUE DUP2 MSTORE CALLER SWAP1 PUSH32 0xE1FFFCC4923D04B559F4D29A8BFC6CDA04EB5B0D3C460751C2402C5C5CC9109C SWAP1 PUSH1 0x20 ADD PUSH1 0x40 MLOAD DUP1 SWAP2 SUB SWAP1 LOG2 STOP JUMPDEST PUSH0 DUP1 REVERT JUMPDEST CALLVALUE DUP1 ISZERO PUSH2 0xC7 JUMPI PUSH0 DUP1 REVERT JUMPDEST POP PUSH2 0xDB PUSH2 0xD6 CALLDATASIZE PUSH1 0x4 PUSH2 0x857 JUMP JUMPDEST PUSH2 0x220 JUMP JUMPDEST PUSH1 0x40 MLOAD PUSH1 0x1 PUSH1 0x1 PUSH1 0xA0 SHL SUB SWAP1 SWAP2 AND DUP2 MSTORE PUSH1 0x20 ADD JUMPDEST PUSH1 0x40 MLOAD DUP1 SWAP2 SUB SWAP1 RETURN JUMPDEST CALLVALUE DUP1 ISZERO PUSH2 0x103 JUMPI PUSH0 DUP1 REVERT JUMPDEST POP PUSH2 0x117 PUSH2 0x112 CALLDATASIZE PUSH1 0x4 PUSH2 0x889 JUMP JUMPDEST PUSH2 0x247 JUMP JUMPDEST STOP JUMPDEST CALLVALUE DUP1 ISZERO PUSH2 0x124 JUMPI PUSH0 DUP1 REVERT JUMPDEST POP PUSH2 0x147 PUSH2 0x133 CALLDATASIZE PUSH1 0x4 PUSH2 0x909 JUMP JUMPDEST PUSH1 0x1 PUSH1 0x20 MSTORE PUSH0 SWAP1 DUP2 MSTORE PUSH1 0x40 SWAP1 KECCAK256 SLOAD PUSH1 0xFF AND DUP2 JUMP JUMPDEST PUSH1 0x40 MLOAD SWAP1 ISZERO ISZERO DUP2 MSTORE PUSH1 0x20 ADD PUSH2 0xEF JUMP JUMPDEST CALLVALUE DUP1 ISZERO PUSH2 0x162 JUMPI PUSH0 DUP1 REVERT JUMPDEST POP PUSH2 0x147 PUSH2 0x171 CALLDATASIZE PUSH1 0x4 PUSH2 0x929 JUMP JUMPDEST PUSH1 0x4 PUSH1 0x20 SWAP1 DUP2 MSTORE PUSH0 SWAP3 DUP4 MSTORE PUSH1 0x40 DUP1 DUP5 KECCAK256 SWAP1 SWAP2 MSTORE SWAP1 DUP3 MSTORE SWAP1 KECCAK256 SLOAD PUSH1 0xFF AND DUP2 JUMP JUMPDEST CALLVALUE DUP1 ISZERO PUSH2 0x19B JUMPI PUSH0 DUP1 REVERT JUMPDEST POP PUSH2 0x1AF PUSH2 0x1AA CALLDATASIZE PUSH1 0x4 PUSH2 0x857 JUMP JUMPDEST PUSH2 0x38D JUMP JUMPDEST PUSH1 0x40 MLOAD PUSH2 0xEF SWAP5 SWAP4 SWAP3 SWAP2 SWAP1 PUSH2 0x953 JUMP JUMPDEST CALLVALUE DUP1 ISZERO PUSH2 0x1CA JUMPI PUSH0 DUP1 REVERT JUMPDEST POP PUSH2 0x117 PUSH2 0x1D9 CALLDATASIZE PUSH1 0x4 PUSH2 0x857 JUMP JUMPDEST PUSH2 0x45B JUMP JUMPDEST CALLVALUE DUP1 ISZERO PUSH2 0x1E9 JUMPI PUSH0 DUP1 REVERT JUMPDEST POP PUSH2 0x1F3 PUSH1 0x2 SLOAD DUP2 JUMP JUMPDEST PUSH1 0x40 MLOAD SWAP1 DUP2 MSTORE PUSH1 0x20 ADD PUSH2 0xEF JUMP JUMPDEST CALLVALUE DUP1 ISZERO PUSH2 0x20C JUMPI PUSH0 DUP1 REVERT JUMPDEST POP PUSH2 0x117 PUSH2 0x21B CALLDATASIZE PUSH1 0x4 PUSH2 0x857 JUMP JUMPDEST PUSH2 0x5E2 JUMP JUMPDEST PUSH0 DUP2 DUP2 SLOAD DUP2 LT PUSH2 0x22E JUMPI PUSH0 DUP1 REVERT JUMPDEST PUSH0 SWAP2 DUP3 MSTORE PUSH1 0x20 SWAP1 SWAP2 KECCAK256 ADD SLOAD PUSH1 0x1 PUSH1 0x1 PUSH1 0xA0 SHL SUB AND SWAP1 POP DUP2 JUMP JUMPDEST CALLER PUSH0 SWAP1 DUP2 MSTORE PUSH1 0x1 PUSH1 0x20 MSTORE PUSH1 0x40 SWAP1 KECCAK256 SLOAD PUSH1 0xFF AND PUSH2 0x27E JUMPI PUSH1 0x40 MLOAD PUSH3 0x461BCD PUSH1 0xE5 SHL DUP2 MSTORE PUSH1 0x4 ADD PUSH2 0x275 SWAP1 PUSH2 0x9BF JUMP JUMPDEST PUSH1 0x40 MLOAD DUP1 SWAP2 SUB SWAP1 REVERT JUMPDEST PUSH1 0x3 PUSH1 0x40 MLOAD DUP1 PUSH1 0x80 ADD PUSH1 0x40 MSTORE DUP1 DUP7 PUSH1 0x1 PUSH1 0x1 PUSH1 0xA0 SHL SUB AND DUP2 MSTORE PUSH1 0x20 ADD DUP6 DUP2 MSTORE PUSH1 0x20 ADD DUP5 DUP5 DUP1 DUP1 PUSH1 0x1F ADD PUSH1 0x20 DUP1 SWAP2 DIV MUL PUSH1 0x20 ADD PUSH1 0x40 MLOAD SWAP1 DUP2 ADD PUSH1 0x40 MSTORE DUP1 SWAP4 SWAP3 SWAP2 SWAP1 DUP2 DUP2 MSTORE PUSH1 0x20 ADD DUP4 DUP4 DUP1 DUP3 DUP5 CALLDATACOPY PUSH0 SWAP3 ADD DUP3 SWAP1 MSTORE POP SWAP4 DUP6 MSTORE POP POP POP PUSH1 0x20 SWAP2 DUP3 ADD DUP2 SWAP1 MSTORE DUP4 SLOAD PUSH1 0x1 DUP1 DUP3 ADD DUP7 SSTORE SWAP5 DUP3 MSTORE SWAP1 DUP3 SWAP1 KECCAK256 DUP4 MLOAD PUSH1 0x4 SWAP1 SWAP3 MUL ADD DUP1 SLOAD PUSH1 0x1 PUSH1 0x1 PUSH1 0xA0 SHL SUB NOT AND PUSH1 0x1 PUSH1 0x1 PUSH1 0xA0 SHL SUB SWAP1 SWAP3 AND SWAP2 SWAP1 SWAP2 OR DUP2 SSTORE SWAP1 DUP3 ADD MLOAD SWAP3 DUP2 ADD SWAP3 SWAP1 SWAP3 SSTORE PUSH1 0x40 DUP2 ADD MLOAD SWAP1 SWAP2 SWAP1 PUSH1 0x2 DUP3 ADD SWAP1 PUSH2 0x336 SWAP1 DUP3 PUSH2 0xAA0 JUMP JUMPDEST POP PUSH1 0x60 SWAP2 SWAP1 SWAP2 ADD MLOAD PUSH1 0x3 SWAP2 DUP3 ADD DUP1 SLOAD PUSH1 0xFF NOT AND SWAP2 ISZERO ISZERO SWAP2 SWAP1 SWAP2 OR SWAP1 SSTORE SLOAD PUSH2 0x35F SWAP1 PUSH1 0x1 SWAP1 PUSH2 0xB74 JUMP JUMPDEST PUSH1 0x40 MLOAD PUSH32 0x8324B3D745B914E3ABD4FFBFEAD91E3B78391A98C173202129215AB933ADFBE SWAP1 PUSH0 SWAP1 LOG2 POP POP POP POP JUMP JUMPDEST PUSH1 0x3 DUP2 DUP2 SLOAD DUP2 LT PUSH2 0x39C JUMPI PUSH0 DUP1 REVERT JUMPDEST PUSH0 SWAP2 DUP3 MSTORE PUSH1 0x20 SWAP1 SWAP2 KECCAK256 PUSH1 0x4 SWAP1 SWAP2 MUL ADD DUP1 SLOAD PUSH1 0x1 DUP3 ADD SLOAD PUSH1 0x2 DUP4 ADD DUP1 SLOAD PUSH1 0x1 PUSH1 0x1 PUSH1 0xA0 SHL SUB SWAP1 SWAP4 AND SWAP5 POP SWAP1 SWAP3 SWAP2 PUSH2 0x3D1 SWAP1 PUSH2 0xA22 JUMP JUMPDEST DUP1 PUSH1 0x1F ADD PUSH1 0x20 DUP1 SWAP2 DIV MUL PUSH1 0x20 ADD PUSH1 0x40 MLOAD SWAP1 DUP2 ADD PUSH1 0x40 MSTORE DUP1 SWAP3 SWAP2 SWAP1 DUP2 DUP2 MSTORE PUSH1 0x20 ADD DUP3 DUP1 SLOAD PUSH2 0x3FD SWAP1 PUSH2 0xA22 JUMP JUMPDEST DUP1 ISZERO PUSH2 0x448 JUMPI DUP1 PUSH1 0x1F LT PUSH2 0x41F JUMPI PUSH2 0x100 DUP1 DUP4 SLOAD DIV MUL DUP4 MSTORE SWAP2 PUSH1 0x20 ADD SWAP2 PUSH2 0x448 JUMP JUMPDEST DUP3 ADD SWAP2 SWAP1 PUSH0 MSTORE PUSH1 0x20 PUSH0 KECCAK256 SWAP1 JUMPDEST DUP2 SLOAD DUP2 MSTORE SWAP1 PUSH1 0x1 ADD SWAP1 PUSH1 0x20 ADD DUP1 DUP4 GT PUSH2 0x42B JUMPI DUP3 SWAP1 SUB PUSH1 0x1F AND DUP3 ADD SWAP2 JUMPDEST POP POP POP PUSH1 0x3 SWAP1 SWAP4 ADD SLOAD SWAP2 SWAP3 POP POP PUSH1 0xFF AND DUP5 JUMP JUMPDEST CALLER PUSH0 SWAP1 DUP2 MSTORE PUSH1 0x1 PUSH1 0x20 MSTORE PUSH1 0x40 SWAP1 KECCAK256 SLOAD PUSH1 0xFF AND PUSH2 0x489 JUMPI PUSH1 0x40 MLOAD PUSH3 0x461BCD PUSH1 0xE5 SHL DUP2 MSTORE PUSH1 0x4 ADD PUSH2 0x275 SWAP1 PUSH2 0x9BF JUMP JUMPDEST PUSH1 0x3 SLOAD DUP2 SWAP1 DUP2 LT PUSH2 0x4DC JUMPI PUSH1 0x40 MLOAD PUSH3 0x461BCD PUSH1 0xE5 SHL DUP2 MSTORE PUSH1 0x20 PUSH1 0x4 DUP3 ADD MSTORE PUSH1 0x1E PUSH1 0x24 DUP3 ADD MSTORE PUSH32 0x546865207472616E73616374696F6E20646F6573206E6F742065786973740000 PUSH1 0x44 DUP3 ADD MSTORE PUSH1 0x64 ADD PUSH2 0x275 JUMP JUMPDEST PUSH0 DUP3 DUP2 MSTORE PUSH1 0x4 PUSH1 0x20 SWAP1 DUP2 MSTORE PUSH1 0x40 DUP1 DUP4 KECCAK256 CALLER DUP5 MSTORE SWAP1 SWAP2 MSTORE SWAP1 KECCAK256 SLOAD DUP3 SWAP1 PUSH1 0xFF AND ISZERO PUSH2 0x547 JUMPI PUSH1 0x40 MLOAD PUSH3 0x461BCD PUSH1 0xE5 SHL DUP2 MSTORE PUSH1 0x20 PUSH1 0x4 DUP3 ADD DUP2 SWAP1 MSTORE PUSH1 0x24 DUP3 ADD MSTORE PUSH32 0x546865207472616E73616374696F6E20686173206265656E20616C6C6F776564 PUSH1 0x44 DUP3 ADD MSTORE PUSH1 0x64 ADD PUSH2 0x275 JUMP JUMPDEST DUP3 PUSH1 0x3 DUP2 DUP2 SLOAD DUP2 LT PUSH2 0x55B JUMPI PUSH2 0x55B PUSH2 0xB8D JUMP JUMPDEST PUSH0 SWAP2 DUP3 MSTORE PUSH1 0x20 SWAP1 SWAP2 KECCAK256 PUSH1 0x3 PUSH1 0x4 SWAP1 SWAP3 MUL ADD ADD SLOAD PUSH1 0xFF AND ISZERO PUSH2 0x58E JUMPI PUSH1 0x40 MLOAD PUSH3 0x461BCD PUSH1 0xE5 SHL DUP2 MSTORE PUSH1 0x4 ADD PUSH2 0x275 SWAP1 PUSH2 0xBA1 JUMP JUMPDEST PUSH1 0x40 MLOAD DUP5 SWAP1 CALLER SWAP1 PUSH32 0x90EC57F18FA7B15C6B8D5E4D1DEB90796C74B2FF23D4D0CECAD0CB42A96B3128 SWAP1 PUSH0 SWAP1 LOG3 POP POP POP PUSH0 SWAP1 DUP2 MSTORE PUSH1 0x4 PUSH1 0x20 SWAP1 DUP2 MSTORE PUSH1 0x40 DUP1 DUP4 KECCAK256 CALLER DUP5 MSTORE SWAP1 SWAP2 MSTORE SWAP1 KECCAK256 DUP1 SLOAD PUSH1 0xFF NOT AND PUSH1 0x1 OR SWAP1 SSTORE JUMP JUMPDEST PUSH1 0x3 SLOAD DUP2 SWAP1 DUP2 LT PUSH2 0x635 JUMPI PUSH1 0x40 MLOAD PUSH3 0x461BCD PUSH1 0xE5 SHL DUP2 MSTORE PUSH1 0x20 PUSH1 0x4 DUP3 ADD MSTORE PUSH1 0x1E PUSH1 0x24 DUP3 ADD MSTORE PUSH32 0x546865207472616E73616374696F6E20646F6573206E6F742065786973740000 PUSH1 0x44 DUP3 ADD MSTORE PUSH1 0x64 ADD PUSH2 0x275 JUMP JUMPDEST DUP2 PUSH1 0x3 DUP2 DUP2 SLOAD DUP2 LT PUSH2 0x649 JUMPI PUSH2 0x649 PUSH2 0xB8D JUMP JUMPDEST PUSH0 SWAP2 DUP3 MSTORE PUSH1 0x20 SWAP1 SWAP2 KECCAK256 PUSH1 0x3 PUSH1 0x4 SWAP1 SWAP3 MUL ADD ADD SLOAD PUSH1 0xFF AND ISZERO PUSH2 0x67C JUMPI PUSH1 0x40 MLOAD PUSH3 0x461BCD PUSH1 0xE5 SHL DUP2 MSTORE PUSH1 0x4 ADD PUSH2 0x275 SWAP1 PUSH2 0xBA1 JUMP JUMPDEST PUSH1 0x2 SLOAD PUSH2 0x688 DUP5 PUSH2 0x7DF JUMP JUMPDEST LT ISZERO PUSH2 0x6D6 JUMPI PUSH1 0x40 MLOAD PUSH3 0x461BCD PUSH1 0xE5 SHL DUP2 MSTORE PUSH1 0x20 PUSH1 0x4 DUP3 ADD MSTORE PUSH1 0x17 PUSH1 0x24 DUP3 ADD MSTORE PUSH32 0x417070726F7665436F756E74203C207265717569726564000000000000000000 PUSH1 0x44 DUP3 ADD MSTORE PUSH1 0x64 ADD PUSH2 0x275 JUMP JUMPDEST PUSH0 PUSH1 0x3 DUP5 DUP2 SLOAD DUP2 LT PUSH2 0x6EA JUMPI PUSH2 0x6EA PUSH2 0xB8D JUMP JUMPDEST PUSH0 SWAP2 DUP3 MSTORE PUSH1 0x20 DUP3 KECCAK256 PUSH1 0x3 PUSH1 0x4 SWAP1 SWAP3 MUL ADD SWAP1 DUP2 ADD DUP1 SLOAD PUSH1 0xFF NOT AND PUSH1 0x1 SWAP1 DUP2 OR SWAP1 SWAP2 SSTORE DUP2 SLOAD SWAP1 DUP3 ADD SLOAD PUSH1 0x40 MLOAD SWAP3 SWAP5 POP PUSH1 0x1 PUSH1 0x1 PUSH1 0xA0 SHL SUB SWAP1 SWAP2 AND SWAP2 PUSH2 0x731 SWAP1 PUSH1 0x2 DUP7 ADD SWAP1 PUSH2 0xBE2 JUMP JUMPDEST PUSH0 PUSH1 0x40 MLOAD DUP1 DUP4 SUB DUP2 DUP6 DUP8 GAS CALL SWAP3 POP POP POP RETURNDATASIZE DUP1 PUSH0 DUP2 EQ PUSH2 0x76B JUMPI PUSH1 0x40 MLOAD SWAP2 POP PUSH1 0x1F NOT PUSH1 0x3F RETURNDATASIZE ADD AND DUP3 ADD PUSH1 0x40 MSTORE RETURNDATASIZE DUP3 MSTORE RETURNDATASIZE PUSH0 PUSH1 0x20 DUP5 ADD RETURNDATACOPY PUSH2 0x770 JUMP JUMPDEST PUSH1 0x60 SWAP2 POP JUMPDEST POP POP SWAP1 POP DUP1 PUSH2 0x7AE JUMPI PUSH1 0x40 MLOAD PUSH3 0x461BCD PUSH1 0xE5 SHL DUP2 MSTORE PUSH1 0x20 PUSH1 0x4 DUP3 ADD MSTORE PUSH1 0xA PUSH1 0x24 DUP3 ADD MSTORE PUSH10 0x7478206661696C757265 PUSH1 0xB0 SHL PUSH1 0x44 DUP3 ADD MSTORE PUSH1 0x64 ADD PUSH2 0x275 JUMP JUMPDEST PUSH1 0x40 MLOAD DUP6 SWAP1 PUSH32 0xDDB556F1D2C1EC821E910B019D3685B229DB152A0ECD517CA7E24B8BD7139289 SWAP1 PUSH0 SWAP1 LOG2 POP POP POP POP POP JUMP JUMPDEST PUSH0 DUP1 JUMPDEST PUSH0 SLOAD DUP2 LT ISZERO PUSH2 0x851 JUMPI PUSH1 0x4 PUSH0 DUP5 DUP2 MSTORE PUSH1 0x20 ADD SWAP1 DUP2 MSTORE PUSH1 0x20 ADD PUSH0 KECCAK256 PUSH0 DUP1 DUP4 DUP2 SLOAD DUP2 LT PUSH2 0x80F JUMPI PUSH2 0x80F PUSH2 0xB8D JUMP JUMPDEST PUSH0 SWAP2 DUP3 MSTORE PUSH1 0x20 DUP1 DUP4 KECCAK256 SWAP1 SWAP2 ADD SLOAD PUSH1 0x1 PUSH1 0x1 PUSH1 0xA0 SHL SUB AND DUP4 MSTORE DUP3 ADD SWAP3 SWAP1 SWAP3 MSTORE PUSH1 0x40 ADD SWAP1 KECCAK256 SLOAD PUSH1 0xFF AND ISZERO PUSH2 0x849 JUMPI PUSH2 0x846 PUSH1 0x1 DUP4 PUSH2 0xC54 JUMP JUMPDEST SWAP2 POP JUMPDEST PUSH1 0x1 ADD PUSH2 0x7E2 JUMP JUMPDEST POP SWAP2 SWAP1 POP JUMP JUMPDEST PUSH0 PUSH1 0x20 DUP3 DUP5 SUB SLT ISZERO PUSH2 0x867 JUMPI PUSH0 DUP1 REVERT JUMPDEST POP CALLDATALOAD SWAP2 SWAP1 POP JUMP JUMPDEST DUP1 CALLDATALOAD PUSH1 0x1 PUSH1 0x1 PUSH1 0xA0 SHL SUB DUP2 AND DUP2 EQ PUSH2 0x884 JUMPI PUSH0 DUP1 REVERT JUMPDEST SWAP2 SWAP1 POP JUMP JUMPDEST PUSH0 DUP1 PUSH0 DUP1 PUSH1 0x60 DUP6 DUP8 SUB SLT ISZERO PUSH2 0x89C JUMPI PUSH0 DUP1 REVERT JUMPDEST PUSH2 0x8A5 DUP6 PUSH2 0x86E JUMP JUMPDEST SWAP4 POP PUSH1 0x20 DUP6 ADD CALLDATALOAD SWAP3 POP PUSH1 0x40 DUP6 ADD CALLDATALOAD PUSH8 0xFFFFFFFFFFFFFFFF DUP1 DUP3 GT ISZERO PUSH2 0x8C8 JUMPI PUSH0 DUP1 REVERT JUMPDEST DUP2 DUP8 ADD SWAP2 POP DUP8 PUSH1 0x1F DUP4 ADD SLT PUSH2 0x8DB JUMPI PUSH0 DUP1 REVERT JUMPDEST DUP2 CALLDATALOAD DUP2 DUP2 GT ISZERO PUSH2 0x8E9 JUMPI PUSH0 DUP1 REVERT JUMPDEST DUP9 PUSH1 0x20 DUP3 DUP6 ADD ADD GT ISZERO PUSH2 0x8FA JUMPI PUSH0 DUP1 REVERT JUMPDEST SWAP6 SWAP9 SWAP5 SWAP8 POP POP PUSH1 0x20 ADD SWAP5 POP POP POP JUMP JUMPDEST PUSH0 PUSH1 0x20 DUP3 DUP5 SUB SLT ISZERO PUSH2 0x919 JUMPI PUSH0 DUP1 REVERT JUMPDEST PUSH2 0x922 DUP3 PUSH2 0x86E JUMP JUMPDEST SWAP4 SWAP3 POP POP POP JUMP JUMPDEST PUSH0 DUP1 PUSH1 0x40 DUP4 DUP6 SUB SLT ISZERO PUSH2 0x93A JUMPI PUSH0 DUP1 REVERT JUMPDEST DUP3 CALLDATALOAD SWAP2 POP PUSH2 0x94A PUSH1 0x20 DUP5 ADD PUSH2 0x86E JUMP JUMPDEST SWAP1 POP SWAP3 POP SWAP3 SWAP1 POP JUMP JUMPDEST PUSH1 0x1 DUP1 PUSH1 0xA0 SHL SUB DUP6 AND DUP2 MSTORE PUSH0 PUSH1 0x20 DUP6 PUSH1 0x20 DUP5 ADD MSTORE PUSH1 0x80 PUSH1 0x40 DUP5 ADD MSTORE DUP5 MLOAD DUP1 PUSH1 0x80 DUP6 ADD MSTORE PUSH0 JUMPDEST DUP2 DUP2 LT ISZERO PUSH2 0x994 JUMPI DUP7 DUP2 ADD DUP4 ADD MLOAD DUP6 DUP3 ADD PUSH1 0xA0 ADD MSTORE DUP3 ADD PUSH2 0x978 JUMP JUMPDEST POP PUSH0 PUSH1 0xA0 DUP3 DUP7 ADD ADD MSTORE PUSH1 0xA0 PUSH1 0x1F NOT PUSH1 0x1F DUP4 ADD AND DUP6 ADD ADD SWAP3 POP POP POP DUP3 ISZERO ISZERO PUSH1 0x60 DUP4 ADD MSTORE SWAP6 SWAP5 POP POP POP POP POP JUMP JUMPDEST PUSH1 0x20 DUP1 DUP3 MSTORE PUSH1 0x2F SWAP1 DUP3 ADD MSTORE PUSH32 0x546865206F776E657220697320616C726561647920696E20746865207472616E PUSH1 0x40 DUP3 ADD MSTORE PUSH15 0x73616374696F6E2070726F63657373 PUSH1 0x88 SHL PUSH1 0x60 DUP3 ADD MSTORE PUSH1 0x80 ADD SWAP1 JUMP JUMPDEST PUSH4 0x4E487B71 PUSH1 0xE0 SHL PUSH0 MSTORE PUSH1 0x41 PUSH1 0x4 MSTORE PUSH1 0x24 PUSH0 REVERT JUMPDEST PUSH1 0x1 DUP2 DUP2 SHR SWAP1 DUP3 AND DUP1 PUSH2 0xA36 JUMPI PUSH1 0x7F DUP3 AND SWAP2 POP JUMPDEST PUSH1 0x20 DUP3 LT DUP2 SUB PUSH2 0x851 JUMPI PUSH4 0x4E487B71 PUSH1 0xE0 SHL PUSH0 MSTORE PUSH1 0x22 PUSH1 0x4 MSTORE PUSH1 0x24 PUSH0 REVERT JUMPDEST PUSH1 0x1F DUP3 GT ISZERO PUSH2 0xA9B JUMPI DUP1 PUSH0 MSTORE PUSH1 0x20 PUSH0 KECCAK256 PUSH1 0x1F DUP5 ADD PUSH1 0x5 SHR DUP2 ADD PUSH1 0x20 DUP6 LT ISZERO PUSH2 0xA79 JUMPI POP DUP1 JUMPDEST PUSH1 0x1F DUP5 ADD PUSH1 0x5 SHR DUP3 ADD SWAP2 POP JUMPDEST DUP2 DUP2 LT ISZERO PUSH2 0xA98 JUMPI PUSH0 DUP2 SSTORE PUSH1 0x1 ADD PUSH2 0xA85 JUMP JUMPDEST POP POP JUMPDEST POP POP POP JUMP JUMPDEST DUP2 MLOAD PUSH8 0xFFFFFFFFFFFFFFFF DUP2 GT ISZERO PUSH2 0xABA JUMPI PUSH2 0xABA PUSH2 0xA0E JUMP JUMPDEST PUSH2 0xACE DUP2 PUSH2 0xAC8 DUP5 SLOAD PUSH2 0xA22 JUMP JUMPDEST DUP5 PUSH2 0xA54 JUMP JUMPDEST PUSH1 0x20 DUP1 PUSH1 0x1F DUP4 GT PUSH1 0x1 DUP2 EQ PUSH2 0xB01 JUMPI PUSH0 DUP5 ISZERO PUSH2 0xAEA JUMPI POP DUP6 DUP4 ADD MLOAD JUMPDEST PUSH0 NOT PUSH1 0x3 DUP7 SWAP1 SHL SHR NOT AND PUSH1 0x1 DUP6 SWAP1 SHL OR DUP6 SSTORE PUSH2 0xB58 JUMP JUMPDEST PUSH0 DUP6 DUP2 MSTORE PUSH1 0x20 DUP2 KECCAK256 PUSH1 0x1F NOT DUP7 AND SWAP2 JUMPDEST DUP3 DUP2 LT ISZERO PUSH2 0xB2F JUMPI DUP9 DUP7 ADD MLOAD DUP3 SSTORE SWAP5 DUP5 ADD SWAP5 PUSH1 0x1 SWAP1 SWAP2 ADD SWAP1 DUP5 ADD PUSH2 0xB10 JUMP JUMPDEST POP DUP6 DUP3 LT ISZERO PUSH2 0xB4C JUMPI DUP8 DUP6 ADD MLOAD PUSH0 NOT PUSH1 0x3 DUP9 SWAP1 SHL PUSH1 0xF8 AND SHR NOT AND DUP2 SSTORE JUMPDEST POP POP PUSH1 0x1 DUP5 PUSH1 0x1 SHL ADD DUP6 SSTORE JUMPDEST POP POP POP POP POP POP JUMP JUMPDEST PUSH4 0x4E487B71 PUSH1 0xE0 SHL PUSH0 MSTORE PUSH1 0x11 PUSH1 0x4 MSTORE PUSH1 0x24 PUSH0 REVERT JUMPDEST DUP2 DUP2 SUB DUP2 DUP2 GT ISZERO PUSH2 0xB87 JUMPI PUSH2 0xB87 PUSH2 0xB60 JUMP JUMPDEST SWAP3 SWAP2 POP POP JUMP JUMPDEST PUSH4 0x4E487B71 PUSH1 0xE0 SHL PUSH0 MSTORE PUSH1 0x32 PUSH1 0x4 MSTORE PUSH1 0x24 PUSH0 REVERT JUMPDEST PUSH1 0x20 DUP1 DUP3 MSTORE PUSH1 0x21 SWAP1 DUP3 ADD MSTORE PUSH32 0x546865207472616E73616374696F6E20686173206265656E2065786563757465 PUSH1 0x40 DUP3 ADD MSTORE PUSH1 0x19 PUSH1 0xFA SHL PUSH1 0x60 DUP3 ADD MSTORE PUSH1 0x80 ADD SWAP1 JUMP JUMPDEST PUSH0 DUP1 DUP4 SLOAD PUSH2 0xBEF DUP2 PUSH2 0xA22 JUMP JUMPDEST PUSH1 0x1 DUP3 DUP2 AND DUP1 ISZERO PUSH2 0xC07 JUMPI PUSH1 0x1 DUP2 EQ PUSH2 0xC1C JUMPI PUSH2 0xC48 JUMP JUMPDEST PUSH1 0xFF NOT DUP5 AND DUP8 MSTORE DUP3 ISZERO ISZERO DUP4 MUL DUP8 ADD SWAP5 POP PUSH2 0xC48 JUMP JUMPDEST DUP8 PUSH0 MSTORE PUSH1 0x20 DUP1 PUSH0 KECCAK256 PUSH0 JUMPDEST DUP6 DUP2 LT ISZERO PUSH2 0xC3F JUMPI DUP2 SLOAD DUP11 DUP3 ADD MSTORE SWAP1 DUP5 ADD SWAP1 DUP3 ADD PUSH2 0xC26 JUMP JUMPDEST POP POP POP DUP3 DUP8 ADD SWAP5 POP JUMPDEST POP SWAP3 SWAP7 SWAP6 POP POP POP POP POP POP JUMP JUMPDEST DUP1 DUP3 ADD DUP1 DUP3 GT ISZERO PUSH2 0xB87 JUMPI PUSH2 0xB87 PUSH2 0xB60 JUMP INVALID LOG2 PUSH5 0x6970667358 0x22 SLT KECCAK256 0x4D LOG0 0x5D RETURN 0xDF STOP SWAP1 0xEB DUP5 CALLDATALOAD 0xA8 0x5E PUSH21 0xCD2ED638EC090FDFB7C36BF2DE642778A4CCB66473 PUSH16 0x6C634300081700330000000000000000 "
				},
				"gasEstimates": {
					"creation": {
						"codeDepositCost": "645800",
						"executionCost": "infinite",
						"totalCost": "infinite"
					},
					"external": {
						"approve(uint256)": "37056",
						"approved(uint256,address)": "2693",
						"execute(uint256)": "infinite",
						"isOwner(address)": "2573",
						"owners(uint256)": "4600",
						"required()": "2338",
						"submit(address,uint256,bytes)": "infinite",
						"transactions(uint256)": "infinite"
					},
					"internal": {
						"getApproveCount(uint256)": "infinite"
					}
				},
				"methodIdentifiers": {
					"approve(uint256)": "b759f954",
					"approved(uint256,address)": "8253951a",
					"execute(uint256)": "fe0d94c1",
					"isOwner(address)": "2f54bf6e",
					"owners(uint256)": "025e7c27",
					"required()": "dc8452cd",
					"submit(address,uint256,bytes)": "14de327f",
					"transactions(uint256)": "9ace38c2"
				}
			},
			"storageLayout": {
				"storage": [
					{
						"astId": 39,
						"contract": "demo1/56Multi.sol:MultiSigWallet",
						"label": "owners",
						"offset": 0,
						"slot": "0",
						"type": "t_array(t_address)dyn_storage"
					},
					{
						"astId": 43,
						"contract": "demo1/56Multi.sol:MultiSigWallet",
						"label": "isOwner",
						"offset": 0,
						"slot": "1",
						"type": "t_mapping(t_address,t_bool)"
					},
					{
						"astId": 45,
						"contract": "demo1/56Multi.sol:MultiSigWallet",
						"label": "required",
						"offset": 0,
						"slot": "2",
						"type": "t_uint256"
					},
					{
						"astId": 49,
						"contract": "demo1/56Multi.sol:MultiSigWallet",
						"label": "transactions",
						"offset": 0,
						"slot": "3",
						"type": "t_array(t_struct(Transaction)36_storage)dyn_storage"
					},
					{
						"astId": 55,
						"contract": "demo1/56Multi.sol:MultiSigWallet",
						"label": "approved",
						"offset": 0,
						"slot": "4",
						"type": "t_mapping(t_uint256,t_mapping(t_address,t_bool))"
					}
				],
				"types": {
					"t_address": {
						"encoding": "inplace",
						"label": "address",
						"numberOfBytes": "20"
					},
					"t_array(t_address)dyn_storage": {
						"base": "t_address",
						"encoding": "dynamic_array",
						"label": "address[]",
						"numberOfBytes": "32"
					},
					"t_array(t_struct(Transaction)36_storage)dyn_storage": {
						"base": "t_struct(Transaction)36_storage",
						"encoding": "dynamic_array",
						"label": "struct MultiSigWallet.Transaction[]",
						"numberOfBytes": "32"
					},
					"t_bool": {
						"encoding": "inplace",
						"label": "bool",
						"numberOfBytes": "1"
					},
					"t_bytes_storage": {
						"encoding": "bytes",
						"label": "bytes",
						"numberOfBytes": "32"
					},
					"t_mapping(t_address,t_bool)": {
						"encoding": "mapping",
						"key": "t_address",
						"label": "mapping(address => bool)",
						"numberOfBytes": "32",
						"value": "t_bool"
					},
					"t_mapping(t_uint256,t_mapping(t_address,t_bool))": {
						"encoding": "mapping",
						"key": "t_uint256",
						"label": "mapping(uint256 => mapping(address => bool))",
						"numberOfBytes": "32",
						"value": "t_mapping(t_address,t_bool)"
					},
					"t_struct(Transaction)36_storage": {
						"encoding": "inplace",
						"label": "struct MultiSigWallet.Transaction",
						"members": [
							{
								"astId": 29,
								"contract": "demo1/56Multi.sol:MultiSigWallet",
								"label": "to",
								"offset": 0,
								"slot": "0",
								"type": "t_address"
							},
							{
								"astId": 31,
								"contract": "demo1/56Multi.sol:MultiSigWallet",
								"label": "value",
								"offset": 0,
								"slot": "1",
								"type": "t_uint256"
							},
							{
								"astId": 33,
								"contract": "demo1/56Multi.sol:MultiSigWallet",
								"label": "data",
								"offset": 0,
								"slot": "2",
								"type": "t_bytes_storage"
							},
							{
								"astId": 35,
								"contract": "demo1/56Multi.sol:MultiSigWallet",
								"label": "executed",
								"offset": 0,
								"slot": "3",
								"type": "t_bool"
							}
						],
						"numberOfBytes": "128"
					},
					"t_uint256": {
						"encoding": "inplace",
						"label": "uint256",
						"numberOfBytes": "32"
					}
				}
			},
			"userdoc": {
				"kind": "user",
				"methods": {},
				"version": 1
			}
		}
	}
}