{
	"demo1/25Array.sol": {
		"Array": {
			"abi": [
				{
					"inputs": [],
					"name": "ary",
					"outputs": [],
					"stateMutability": "nonpayable",
					"type": "function"
				},
				{
					"inputs": [],
					"name": "retArrya",
					"outputs": [
						{
							"internalType": "uint256[]",
							"name": "",
							"type": "uint256[]"
						}
					],
					"stateMutability": "view",
					"type": "function"
				}
			],
			"devdoc": {
				"kind": "dev",
				"methods": {},
				"version": 1
			},
			"evm": {
				"assembly": "    /* \"demo1/25Array.sol\":82:105  uint[] array1 = [1,2,4] */\n  0xe0\n    /* \"demo1/25Array.sol\":60:515  contract Array {... */\n  0x40\n    /* \"demo1/25Array.sol\":82:105  uint[] array1 = [1,2,4] */\n  mstore\n    /* \"demo1/25Array.sol\":99:100  1 */\n  0x01\n    /* \"demo1/25Array.sol\":60:515  contract Array {... */\n  0x80\n    /* \"demo1/25Array.sol\":82:105  uint[] array1 = [1,2,4] */\n  swap1\n  dup2\n  mstore\n    /* \"demo1/25Array.sol\":101:102  2 */\n  0x02\n    /* \"demo1/25Array.sol\":82:105  uint[] array1 = [1,2,4] */\n  0xa0\n  mstore\n    /* \"demo1/25Array.sol\":103:104  4 */\n  0x04\n    /* \"demo1/25Array.sol\":82:105  uint[] array1 = [1,2,4] */\n  0xc0\n  mstore\n  tag_1\n  swap1\n  0x00\n  swap1\n  0x03\n  tag_2\n  jump\t// in\ntag_1:\n  pop\n    /* \"demo1/25Array.sol\":112:136  uint[3] array2 = [6,3,3] */\n  0x40\n  dup1\n  mload\n  0x60\n  dup2\n  add\n  dup3\n  mstore\n    /* \"demo1/25Array.sol\":130:131  6 */\n  0x06\n    /* \"demo1/25Array.sol\":112:136  uint[3] array2 = [6,3,3] */\n  dup2\n  mstore\n    /* \"demo1/25Array.sol\":132:133  3 */\n  0x03\n    /* \"demo1/25Array.sol\":112:136  uint[3] array2 = [6,3,3] */\n  0x20\n  dup3\n  add\n  dup2\n  swap1\n  mstore\n  swap2\n  dup2\n  add\n  dup3\n  swap1\n  mstore\n  tag_3\n  swap2\n  0x01\n  swap2\n  swap1\n  tag_4\n  jump\t// in\ntag_3:\n  pop\n    /* \"demo1/25Array.sol\":60:515  contract Array {... */\n  callvalue\n  dup1\n  iszero\n  tag_5\n  jumpi\n  revert(0x00, 0x00)\ntag_5:\n  pop\n  jump(tag_6)\ntag_2:\n  dup3\n  dup1\n  sload\n  dup3\n  dup3\n  sstore\n  swap1\n  0x00\n  mstore\n  keccak256(0x00, 0x20)\n  swap1\n  dup2\n  add\n  swap3\n  dup3\n  iszero\n  tag_9\n  jumpi\n  swap2\n  0x20\n  mul\n  dup3\n  add\ntag_8:\n  dup3\n  dup2\n  gt\n  iszero\n  tag_9\n  jumpi\n  dup3\n  mload\n  dup3\n  swap1\n  0xff\n  and\n  swap1\n  sstore\n  swap2\n  0x20\n  add\n  swap2\n  swap1\n  0x01\n  add\n  swap1\n  jump(tag_8)\ntag_9:\n  pop\n  tag_10\n  swap3\n  swap2\n  pop\n  tag_11\n  jump\t// in\ntag_10:\n  pop\n  swap1\n  jump\t// out\ntag_4:\n  dup3\n  0x03\n  dup2\n  add\n  swap3\n  dup3\n  iszero\n  tag_9\n  jumpi\n  swap2\n  0x20\n  mul\n  dup3\n  add\n  dup3\n  dup2\n  gt\n  iszero\n  tag_9\n  jumpi\n  dup3\n  mload\n  dup3\n  swap1\n  0xff\n  and\n  swap1\n  sstore\n  swap2\n  0x20\n  add\n  swap2\n  swap1\n  0x01\n  add\n  swap1\n  jump(tag_8)\ntag_11:\ntag_16:\n  dup1\n  dup3\n  gt\n  iszero\n  tag_10\n  jumpi\n  0x00\n  dup2\n  sstore\n  0x01\n  add\n  jump(tag_16)\ntag_6:\n  dataSize(sub_0)\n  dup1\n  dataOffset(sub_0)\n  0x00\n  codecopy\n  0x00\n  return\nstop\n\nsub_0: assembly {\n        /* \"demo1/25Array.sol\":60:515  contract Array {... */\n      mstore(0x40, 0x80)\n      callvalue\n      dup1\n      iszero\n      tag_1\n      jumpi\n      revert(0x00, 0x00)\n    tag_1:\n      pop\n      jumpi(tag_2, lt(calldatasize, 0x04))\n      shr(0xe0, calldataload(0x00))\n      dup1\n      0x58837329\n      eq\n      tag_3\n      jumpi\n      dup1\n      0xc6a407f0\n      eq\n      tag_4\n      jumpi\n    tag_2:\n      revert(0x00, 0x00)\n        /* \"demo1/25Array.sol\":423:512  function retArrya()external view returns (uint[] memory) {... */\n    tag_3:\n      tag_5\n      tag_6\n      jump\t// in\n    tag_5:\n      mload(0x40)\n      tag_7\n      swap2\n      swap1\n      tag_8\n      jump\t// in\n    tag_7:\n      mload(0x40)\n      dup1\n      swap2\n      sub\n      swap1\n      return\n        /* \"demo1/25Array.sol\":145:411  function ary()external {... */\n    tag_4:\n      tag_9\n      tag_10\n      jump\t// in\n    tag_9:\n      stop\n        /* \"demo1/25Array.sol\":423:512  function retArrya()external view returns (uint[] memory) {... */\n    tag_6:\n        /* \"demo1/25Array.sol\":465:478  uint[] memory */\n      0x60\n        /* \"demo1/25Array.sol\":498:504  array1 */\n      0x00\n        /* \"demo1/25Array.sol\":491:504  return array1 */\n      dup1\n      sload\n      dup1\n      0x20\n      mul\n      0x20\n      add\n      mload(0x40)\n      swap1\n      dup2\n      add\n      0x40\n      mstore\n      dup1\n      swap3\n      swap2\n      swap1\n      dup2\n      dup2\n      mstore\n      0x20\n      add\n      dup3\n      dup1\n      sload\n      dup1\n      iszero\n      tag_12\n      jumpi\n      0x20\n      mul\n      dup3\n      add\n      swap2\n      swap1\n      0x00\n      mstore\n      keccak256(0x00, 0x20)\n      swap1\n    tag_13:\n      dup2\n      sload\n      dup2\n      mstore\n      0x20\n      add\n      swap1\n      0x01\n      add\n      swap1\n      dup1\n      dup4\n      gt\n      tag_13\n      jumpi\n    tag_12:\n      pop\n      pop\n      pop\n      pop\n      pop\n      swap1\n      pop\n        /* \"demo1/25Array.sol\":423:512  function retArrya()external view returns (uint[] memory) {... */\n      swap1\n      jump\t// out\n        /* \"demo1/25Array.sol\":145:411  function ary()external {... */\n    tag_10:\n        /* \"demo1/25Array.sol\":179:185  array1 */\n      0x00\n        /* \"demo1/25Array.sol\":179:193  array1.push(6) */\n      dup1\n      sload\n      0x01\n      dup2\n      add\n      dup3\n      sstore\n      dup2\n      dup1\n      mstore\n        /* \"demo1/25Array.sol\":191:192  6 */\n      0x06\n        /* \"demo1/25Array.sol\":179:193  array1.push(6) */\n      0x290decd9548b62a8d60345a988386fc84ba6bc95484008f6362f93160ef3e563\n      swap1\n      swap2\n      add\n      sstore\n        /* \"demo1/25Array.sol\":204:217  array1.length */\n      dup1\n      sload\n        /* \"demo1/25Array.sol\":238:241  100 */\n      0x64\n      swap2\n        /* \"demo1/25Array.sol\":179:185  array1 */\n      swap1\n      dup2\n      swap1\n        /* \"demo1/25Array.sol\":228:237  array1[0] */\n      tag_17\n      jumpi\n      tag_17\n      tag_18\n      jump\t// in\n    tag_17:\n      swap1\n      0x00\n      mstore\n      keccak256(0x00, 0x20)\n      add\n        /* \"demo1/25Array.sol\":228:241  array1[0]=100 */\n      dup2\n      swap1\n      sstore\n      pop\n        /* \"demo1/25Array.sol\":259:265  array1 */\n      0x00\n        /* \"demo1/25Array.sol\":266:267  3 */\n      0x03\n        /* \"demo1/25Array.sol\":259:268  array1[3] */\n      dup2\n      sload\n      dup2\n      lt\n      tag_21\n      jumpi\n      tag_21\n      tag_18\n      jump\t// in\n    tag_21:\n      swap1\n      0x00\n      mstore\n      keccak256(0x00, 0x20)\n      add\n        /* \"demo1/25Array.sol\":252:268  delete array1[3] */\n      0x00\n      swap1\n      sstore\n        /* \"demo1/25Array.sol\":279:285  array1 */\n      0x00\n        /* \"demo1/25Array.sol\":279:291  array1.pop() */\n      dup1\n      sload\n      dup1\n      tag_24\n      jumpi\n      tag_24\n      tag_25\n      jump\t// in\n    tag_24:\n      0x01\n      swap1\n      sub\n      dup2\n      dup2\n      swap1\n      0x00\n      mstore\n      keccak256(0x00, 0x20)\n      add\n      0x00\n      swap1\n      sstore\n      swap1\n      sstore\n        /* \"demo1/25Array.sol\":302:308  uint i */\n      0x00\n        /* \"demo1/25Array.sol\":311:317  array1 */\n      0x00\n        /* \"demo1/25Array.sol\":318:319  0 */\n      0x00\n        /* \"demo1/25Array.sol\":311:320  array1[0] */\n      dup2\n      sload\n      dup2\n      lt\n      tag_28\n      jumpi\n      tag_28\n      tag_18\n      jump\t// in\n    tag_28:\n      0x00\n      swap2\n      dup3\n      mstore\n      0x20\n      dup3\n      keccak256\n      add\n      sload\n        /* \"demo1/25Array.sol\":356:369  new uint[](5) */\n      0x40\n      dup1\n      mload\n        /* \"demo1/25Array.sol\":367:368  5 */\n      0x05\n        /* \"demo1/25Array.sol\":356:369  new uint[](5) */\n      dup1\n      dup3\n      mstore\n      0xc0\n      dup3\n      add\n      swap1\n      swap3\n      mstore\n        /* \"demo1/25Array.sol\":311:320  array1[0] */\n      swap2\n      swap4\n      pop\n        /* \"demo1/25Array.sol\":356:369  new uint[](5) */\n      dup2\n      0x20\n      add\n      0x20\n      dup3\n      mul\n      dup1\n      calldatasize\n      dup4\n      calldatacopy\n      add\n      swap1\n      pop\n      pop\n        /* \"demo1/25Array.sol\":333:369  uint[] memory arrya3 = new uint[](5) */\n      swap1\n      pop\n        /* \"demo1/25Array.sol\":390:393  213 */\n      0xd5\n        /* \"demo1/25Array.sol\":380:386  arrya3 */\n      dup2\n        /* \"demo1/25Array.sol\":387:388  0 */\n      0x00\n        /* \"demo1/25Array.sol\":380:389  arrya3[0] */\n      dup2\n      mload\n      dup2\n      lt\n      tag_35\n      jumpi\n      tag_35\n      tag_18\n      jump\t// in\n    tag_35:\n      0x20\n      mul\n      0x20\n      add\n      add\n        /* \"demo1/25Array.sol\":380:393  arrya3[0]=213 */\n      dup2\n      dup2\n      mstore\n      pop\n      pop\n        /* \"demo1/25Array.sol\":168:411  {... */\n      pop\n      pop\n        /* \"demo1/25Array.sol\":145:411  function ary()external {... */\n      jump\t// out\n        /* \"#utility.yul\":14:625   */\n    tag_8:\n        /* \"#utility.yul\":204:206   */\n      0x20\n        /* \"#utility.yul\":216:237   */\n      dup1\n      dup3\n      mstore\n        /* \"#utility.yul\":286:299   */\n      dup3\n      mload\n        /* \"#utility.yul\":189:207   */\n      dup3\n      dup3\n      add\n        /* \"#utility.yul\":308:330   */\n      dup2\n      swap1\n      mstore\n        /* \"#utility.yul\":156:160   */\n      0x00\n      swap2\n        /* \"#utility.yul\":387:402   */\n      dup5\n      add\n      swap1\n        /* \"#utility.yul\":361:363   */\n      0x40\n        /* \"#utility.yul\":346:364   */\n      dup5\n      add\n      swap1\n        /* \"#utility.yul\":156:160   */\n      dup4\n        /* \"#utility.yul\":430:599   */\n    tag_38:\n        /* \"#utility.yul\":444:450   */\n      dup2\n        /* \"#utility.yul\":441:442   */\n      dup2\n        /* \"#utility.yul\":438:451   */\n      lt\n        /* \"#utility.yul\":430:599   */\n      iszero\n      tag_40\n      jumpi\n        /* \"#utility.yul\":505:518   */\n      dup4\n      mload\n        /* \"#utility.yul\":493:519   */\n      dup4\n      mstore\n        /* \"#utility.yul\":548:550   */\n      0x20\n        /* \"#utility.yul\":574:589   */\n      swap4\n      dup5\n      add\n      swap4\n        /* \"#utility.yul\":539:551   */\n      swap1\n      swap3\n      add\n      swap2\n        /* \"#utility.yul\":466:467   */\n      0x01\n        /* \"#utility.yul\":459:468   */\n      add\n        /* \"#utility.yul\":430:599   */\n      jump(tag_38)\n    tag_40:\n      pop\n        /* \"#utility.yul\":616:619   */\n      swap1\n      swap6\n        /* \"#utility.yul\":14:625   */\n      swap5\n      pop\n      pop\n      pop\n      pop\n      pop\n      jump\t// out\n        /* \"#utility.yul\":630:757   */\n    tag_18:\n        /* \"#utility.yul\":691:701   */\n      0x4e487b71\n        /* \"#utility.yul\":686:689   */\n      0xe0\n        /* \"#utility.yul\":682:702   */\n      shl\n        /* \"#utility.yul\":679:680   */\n      0x00\n        /* \"#utility.yul\":672:703   */\n      mstore\n        /* \"#utility.yul\":722:726   */\n      0x32\n        /* \"#utility.yul\":719:720   */\n      0x04\n        /* \"#utility.yul\":712:727   */\n      mstore\n        /* \"#utility.yul\":746:750   */\n      0x24\n        /* \"#utility.yul\":743:744   */\n      0x00\n        /* \"#utility.yul\":736:751   */\n      revert\n        /* \"#utility.yul\":762:889   */\n    tag_25:\n        /* \"#utility.yul\":823:833   */\n      0x4e487b71\n        /* \"#utility.yul\":818:821   */\n      0xe0\n        /* \"#utility.yul\":814:834   */\n      shl\n        /* \"#utility.yul\":811:812   */\n      0x00\n        /* \"#utility.yul\":804:835   */\n      mstore\n        /* \"#utility.yul\":854:858   */\n      0x31\n        /* \"#utility.yul\":851:852   */\n      0x04\n        /* \"#utility.yul\":844:859   */\n      mstore\n        /* \"#utility.yul\":878:882   */\n      0x24\n        /* \"#utility.yul\":875:876   */\n      0x00\n        /* \"#utility.yul\":868:883   */\n      revert\n\n    auxdata: 0xa2646970667358221220b7860074d42d501f912369d67d974dfeaa2352c7812bd8125f5b1458592ff48964736f6c634300081f0033\n}\n",
				"bytecode": {
					"linkReferences": {},
					"object": "60e060405260016080908152600260a052600460c052610022905f90600361005f565b50604080516060810182526006815260036020820181905291810182905261004d91600191906100ad565b50348015610059575f5ffd5b506100f3565b828054828255905f5260205f2090810192821561009d579160200282015b8281111561009d578251829060ff1690559160200191906001019061007d565b506100a99291506100df565b5090565b826003810192821561009d579160200282018281111561009d578251829060ff1690559160200191906001019061007d565b5b808211156100a9575f81556001016100e0565b61024f806101005f395ff3fe608060405234801561000f575f5ffd5b5060043610610034575f3560e01c80635883732914610038578063c6a407f014610056575b5f5ffd5b610040610060565b60405161004d91906101af565b60405180910390f35b61005e6100b5565b005b60605f8054806020026020016040519081016040528092919081815260200182805480156100ab57602002820191905f5260205f20905b815481526020019060010190808311610097575b5050505050905090565b5f805460018101825581805260067f290decd9548b62a8d60345a988386fc84ba6bc95484008f6362f93160ef3e5639091015580546064919081906100fc576100fc6101f1565b905f5260205f2001819055505f60038154811061011b5761011b6101f1565b905f5260205f20015f90555f80548061013657610136610205565b600190038181905f5260205f20015f905590555f5f5f8154811061015c5761015c6101f1565b5f91825260208220015460408051600580825260c0820190925291935081602001602082028036833701905050905060d5815f8151811061019f5761019f6101f1565b6020026020010181815250505050565b602080825282518282018190525f918401906040840190835b818110156101e65783518352602093840193909201916001016101c8565b509095945050505050565b634e487b7160e01b5f52603260045260245ffd5b634e487b7160e01b5f52603160045260245ffdfea2646970667358221220b7860074d42d501f912369d67d974dfeaa2352c7812bd8125f5b1458592ff48964736f6c634300081f0033",
					"opcodes": "PUSH1 0xE0 PUSH1 0x40 MSTORE PUSH1 0x1 PUSH1 0x80 SWAP1 DUP2 MSTORE PUSH1 0x2 PUSH1 0xA0 MSTORE PUSH1 0x4 PUSH1 0xC0 MSTORE PUSH2 0x22 SWAP1 PUSH0 SWAP1 PUSH1 0x3 PUSH2 0x5F JUMP JUMPDEST POP PUSH1 0x40 DUP1 MLOAD PUSH1 0x60 DUP2 ADD DUP3 MSTORE PUSH1 0x6 DUP2 MSTORE PUSH1 0x3 PUSH1 0x20 DUP3 ADD DUP2 SWAP1 MSTORE SWAP2 DUP2 ADD DUP3 SWAP1 MSTORE PUSH2 0x4D SWAP2 PUSH1 0x1 SWAP2 SWAP1 PUSH2 0xAD JUMP JUMPDEST POP CALLVALUE DUP1 ISZERO PUSH2 0x59 JUMPI PUSH0 PUSH0 REVERT JUMPDEST POP PUSH2 0xF3 JUMP JUMPDEST DUP3 DUP1 SLOAD DUP3 DUP3 SSTORE SWAP1 PUSH0 MSTORE PUSH1 0x20 PUSH0 KECCAK256 SWAP1 DUP2 ADD SWAP3 DUP3 ISZERO PUSH2 0x9D JUMPI SWAP2 PUSH1 0x20 MUL DUP3 ADD JUMPDEST DUP3 DUP2 GT ISZERO PUSH2 0x9D JUMPI DUP3 MLOAD DUP3 SWAP1 PUSH1 0xFF AND SWAP1 SSTORE SWAP2 PUSH1 0x20 ADD SWAP2 SWAP1 PUSH1 0x1 ADD SWAP1 PUSH2 0x7D JUMP JUMPDEST POP PUSH2 0xA9 SWAP3 SWAP2 POP PUSH2 0xDF JUMP JUMPDEST POP SWAP1 JUMP JUMPDEST DUP3 PUSH1 0x3 DUP2 ADD SWAP3 DUP3 ISZERO PUSH2 0x9D JUMPI SWAP2 PUSH1 0x20 MUL DUP3 ADD DUP3 DUP2 GT ISZERO PUSH2 0x9D JUMPI DUP3 MLOAD DUP3 SWAP1 PUSH1 0xFF AND SWAP1 SSTORE SWAP2 PUSH1 0x20 ADD SWAP2 SWAP1 PUSH1 0x1 ADD SWAP1 PUSH2 0x7D JUMP JUMPDEST JUMPDEST DUP1 DUP3 GT ISZERO PUSH2 0xA9 JUMPI PUSH0 DUP2 SSTORE PUSH1 0x1 ADD PUSH2 0xE0 JUMP JUMPDEST PUSH2 0x24F DUP1 PUSH2 0x100 PUSH0 CODECOPY PUSH0 RETURN INVALID PUSH1 0x80 PUSH1 0x40 MSTORE CALLVALUE DUP1 ISZERO PUSH2 0xF JUMPI PUSH0 PUSH0 REVERT JUMPDEST POP PUSH1 0x4 CALLDATASIZE LT PUSH2 0x34 JUMPI PUSH0 CALLDATALOAD PUSH1 0xE0 SHR DUP1 PUSH4 0x58837329 EQ PUSH2 0x38 JUMPI DUP1 PUSH4 0xC6A407F0 EQ PUSH2 0x56 JUMPI JUMPDEST PUSH0 PUSH0 REVERT JUMPDEST PUSH2 0x40 PUSH2 0x60 JUMP JUMPDEST PUSH1 0x40 MLOAD PUSH2 0x4D SWAP2 SWAP1 PUSH2 0x1AF JUMP JUMPDEST PUSH1 0x40 MLOAD DUP1 SWAP2 SUB SWAP1 RETURN JUMPDEST PUSH2 0x5E PUSH2 0xB5 JUMP JUMPDEST STOP JUMPDEST PUSH1 0x60 PUSH0 DUP1 SLOAD DUP1 PUSH1 0x20 MUL PUSH1 0x20 ADD PUSH1 0x40 MLOAD SWAP1 DUP2 ADD PUSH1 0x40 MSTORE DUP1 SWAP3 SWAP2 SWAP1 DUP2 DUP2 MSTORE PUSH1 0x20 ADD DUP3 DUP1 SLOAD DUP1 ISZERO PUSH2 0xAB JUMPI PUSH1 0x20 MUL DUP3 ADD SWAP2 SWAP1 PUSH0 MSTORE PUSH1 0x20 PUSH0 KECCAK256 SWAP1 JUMPDEST DUP2 SLOAD DUP2 MSTORE PUSH1 0x20 ADD SWAP1 PUSH1 0x1 ADD SWAP1 DUP1 DUP4 GT PUSH2 0x97 JUMPI JUMPDEST POP POP POP POP POP SWAP1 POP SWAP1 JUMP JUMPDEST PUSH0 DUP1 SLOAD PUSH1 0x1 DUP2 ADD DUP3 SSTORE DUP2 DUP1 MSTORE PUSH1 0x6 PUSH32 0x290DECD9548B62A8D60345A988386FC84BA6BC95484008F6362F93160EF3E563 SWAP1 SWAP2 ADD SSTORE DUP1 SLOAD PUSH1 0x64 SWAP2 SWAP1 DUP2 SWAP1 PUSH2 0xFC JUMPI PUSH2 0xFC PUSH2 0x1F1 JUMP JUMPDEST SWAP1 PUSH0 MSTORE PUSH1 0x20 PUSH0 KECCAK256 ADD DUP2 SWAP1 SSTORE POP PUSH0 PUSH1 0x3 DUP2 SLOAD DUP2 LT PUSH2 0x11B JUMPI PUSH2 0x11B PUSH2 0x1F1 JUMP JUMPDEST SWAP1 PUSH0 MSTORE PUSH1 0x20 PUSH0 KECCAK256 ADD PUSH0 SWAP1 SSTORE PUSH0 DUP1 SLOAD DUP1 PUSH2 0x136 JUMPI PUSH2 0x136 PUSH2 0x205 JUMP JUMPDEST PUSH1 0x1 SWAP1 SUB DUP2 DUP2 SWAP1 PUSH0 MSTORE PUSH1 0x20 PUSH0 KECCAK256 ADD PUSH0 SWAP1 SSTORE SWAP1 SSTORE PUSH0 PUSH0 PUSH0 DUP2 SLOAD DUP2 LT PUSH2 0x15C JUMPI PUSH2 0x15C PUSH2 0x1F1 JUMP JUMPDEST PUSH0 SWAP2 DUP3 MSTORE PUSH1 0x20 DUP3 KECCAK256 ADD SLOAD PUSH1 0x40 DUP1 MLOAD PUSH1 0x5 DUP1 DUP3 MSTORE PUSH1 0xC0 DUP3 ADD SWAP1 SWAP3 MSTORE SWAP2 SWAP4 POP DUP2 PUSH1 0x20 ADD PUSH1 0x20 DUP3 MUL DUP1 CALLDATASIZE DUP4 CALLDATACOPY ADD SWAP1 POP POP SWAP1 POP PUSH1 0xD5 DUP2 PUSH0 DUP2 MLOAD DUP2 LT PUSH2 0x19F JUMPI PUSH2 0x19F PUSH2 0x1F1 JUMP JUMPDEST PUSH1 0x20 MUL PUSH1 0x20 ADD ADD DUP2 DUP2 MSTORE POP POP POP POP JUMP JUMPDEST PUSH1 0x20 DUP1 DUP3 MSTORE DUP3 MLOAD DUP3 DUP3 ADD DUP2 SWAP1 MSTORE PUSH0 SWAP2 DUP5 ADD SWAP1 PUSH1 0x40 DUP5 ADD SWAP1 DUP4 JUMPDEST DUP2 DUP2 LT ISZERO PUSH2 0x1E6 JUMPI DUP4 MLOAD DUP4 MSTORE PUSH1 0x20 SWAP4 DUP5 ADD SWAP4 SWAP1 SWAP3 ADD SWAP2 PUSH1 0x1 ADD PUSH2 0x1C8 JUMP JUMPDEST POP SWAP1 SWAP6 SWAP5 POP POP POP POP POP JUMP JUMPDEST PUSH4 0x4E487B71 PUSH1 0xE0 SHL PUSH0 MSTORE PUSH1 0x32 PUSH1 0x4 MSTORE PUSH1 0x24 PUSH0 REVERT JUMPDEST PUSH4 0x4E487B71 PUSH1 0xE0 SHL PUSH0 MSTORE PUSH1 0x31 PUSH1 0x4 MSTORE PUSH1 0x24 PUSH0 REVERT INVALID LOG2 PUSH5 0x6970667358 0x22 SLT KECCAK256 0xB7 DUP7 STOP PUSH21 0xD42D501F912369D67D974DFEAA2352C7812BD8125F JUMPDEST EQ PC MSIZE 0x2F DELEGATECALL DUP10 PUSH5 0x736F6C6343 STOP ADDMOD 0x1F STOP CALLER "
				},
				"gasEstimates": {
					"creation": {
						"codeDepositCost": "118200",
						"executionCost": "infinite",
						"totalCost": "infinite"
					},
					"external": {
						"ary()": "111740",
						"retArrya()": "infinite"
					}
				},
				"methodIdentifiers": {
					"ary()": "c6a407f0",
					"retArrya()": "58837329"
				}
			},
			"storageLayout": {
				"storage": [
					{
						"astId": 8,
						"contract": "demo1/25Array.sol:Array",
						"label": "array1",
						"offset": 0,
						"slot": "0",
						"type": "t_array(t_uint256)dyn_storage"
					},
					{
						"astId": 16,
						"contract": "demo1/25Array.sol:Array",
						"label": "array2",
						"offset": 0,
						"slot": "1",
						"type": "t_array(t_uint256)3_storage"
					}
				],
				"types": {
					"t_array(t_uint256)3_storage": {
						"base": "t_uint256",
						"encoding": "inplace",
						"label": "uint256[3]",
						"numberOfBytes": "96"
					},
					"t_array(t_uint256)dyn_storage": {
						"base": "t_uint256",
						"encoding": "dynamic_array",
						"label": "uint256[]",
						"numberOfBytes": "32"
					},
					"t_uint256": {
						"encoding": "inplace",
						"label": "uint256",
						"numberOfBytes": "32"
					}
				}
			},
			"userdoc": {
				"kind": "user",
				"methods": {},
				"version": 1
			}
		}
	}
}