{
	"demo1/24Outputs.sol": {
		"Outputs": {
			"abi": [
				{
					"inputs": [],
					"name": "b1",
					"outputs": [
						{
							"internalType": "bool",
							"name": "",
							"type": "bool"
						}
					],
					"stateMutability": "view",
					"type": "function"
				},
				{
					"inputs": [],
					"name": "captureOutputs",
					"outputs": [],
					"stateMutability": "nonpayable",
					"type": "function"
				},
				{
					"inputs": [],
					"name": "displayOutputs",
					"outputs": [
						{
							"internalType": "uint256",
							"name": "",
							"type": "uint256"
						},
						{
							"internalType": "bool",
							"name": "",
							"type": "bool"
						},
						{
							"internalType": "string",
							"name": "",
							"type": "string"
						}
					],
					"stateMutability": "view",
					"type": "function"
				},
				{
					"inputs": [],
					"name": "i1",
					"outputs": [
						{
							"internalType": "uint256",
							"name": "",
							"type": "uint256"
						}
					],
					"stateMutability": "view",
					"type": "function"
				},
				{
					"inputs": [],
					"name": "returnMultiple",
					"outputs": [
						{
							"internalType": "uint256",
							"name": "i",
							"type": "uint256"
						},
						{
							"internalType": "bool",
							"name": "b",
							"type": "bool"
						},
						{
							"internalType": "string",
							"name": "str",
							"type": "string"
						}
					],
					"stateMutability": "pure",
					"type": "function"
				},
				{
					"inputs": [],
					"name": "str1",
					"outputs": [
						{
							"internalType": "string",
							"name": "",
							"type": "string"
						}
					],
					"stateMutability": "view",
					"type": "function"
				}
			],
			"devdoc": {
				"kind": "dev",
				"methods": {},
				"version": 1
			},
			"evm": {
				"assembly": "    /* \"demo1/24Outputs.sol\":60:586  contract Outputs {... */\n  mstore(0x40, 0x80)\n  callvalue\n  dup1\n  iszero\n  tag_1\n  jumpi\n  revert(0x00, 0x00)\ntag_1:\n  pop\n  dataSize(sub_0)\n  dup1\n  dataOffset(sub_0)\n  0x00\n  codecopy\n  0x00\n  return\nstop\n\nsub_0: assembly {\n        /* \"demo1/24Outputs.sol\":60:586  contract Outputs {... */\n      mstore(0x40, 0x80)\n      callvalue\n      dup1\n      iszero\n      tag_1\n      jumpi\n      revert(0x00, 0x00)\n    tag_1:\n      pop\n      jumpi(tag_2, lt(calldatasize, 0x04))\n      shr(0xe0, calldataload(0x00))\n      dup1\n      0x26a89e04\n      eq\n      tag_3\n      jumpi\n      dup1\n      0x28897238\n      eq\n      tag_4\n      jumpi\n      dup1\n      0x64f13521\n      eq\n      tag_5\n      jumpi\n      dup1\n      0xd118d187\n      eq\n      tag_6\n      jumpi\n      dup1\n      0xe61e4008\n      eq\n      tag_7\n      jumpi\n      dup1\n      0xee495002\n      eq\n      tag_8\n      jumpi\n    tag_2:\n      revert(0x00, 0x00)\n        /* \"demo1/24Outputs.sol\":306:464  function captureOutputs()public {... */\n    tag_3:\n      tag_9\n      tag_10\n      jump\t// in\n    tag_9:\n      stop\n        /* \"demo1/24Outputs.sol\":84:98  uint public i1 */\n    tag_4:\n      tag_11\n      sload(0x00)\n      dup2\n      jump\n    tag_11:\n      mload(0x40)\n        /* \"#utility.yul\":160:185   */\n      swap1\n      dup2\n      mstore\n        /* \"#utility.yul\":148:150   */\n      0x20\n        /* \"#utility.yul\":133:151   */\n      add\n        /* \"demo1/24Outputs.sol\":84:98  uint public i1 */\n    tag_13:\n      mload(0x40)\n      dup1\n      swap2\n      sub\n      swap1\n      return\n        /* \"demo1/24Outputs.sol\":472:583  function displayOutputs()external view returns (uint,bool,string memory) {... */\n    tag_5:\n      tag_15\n      tag_16\n      jump\t// in\n    tag_15:\n      mload(0x40)\n      tag_13\n      swap4\n      swap3\n      swap2\n      swap1\n      tag_18\n      jump\t// in\n        /* \"demo1/24Outputs.sol\":126:144  string public str1 */\n    tag_6:\n      tag_19\n      tag_20\n      jump\t// in\n    tag_19:\n      mload(0x40)\n      tag_13\n      swap2\n      swap1\n      tag_22\n      jump\t// in\n        /* \"demo1/24Outputs.sol\":151:298  function returnMultiple() public  pure returns (uint i,bool b,string memory str){... */\n    tag_7:\n        /* \"demo1/24Outputs.sol\":277:290  str = \"Hello\" */\n      0x40\n      dup1\n      mload\n      dup1\n      dup3\n      add\n      swap1\n      swap2\n      mstore\n      0x05\n      dup2\n      mstore\n      shl(0xd8, 0x48656c6c6f)\n      0x20\n      dup3\n      add\n      mstore\n        /* \"demo1/24Outputs.sol\":246:247  1 */\n      0x01\n      swap1\n      dup2\n      swap1\n        /* \"demo1/24Outputs.sol\":151:298  function returnMultiple() public  pure returns (uint i,bool b,string memory str){... */\n      jump(tag_15)\n        /* \"demo1/24Outputs.sol\":105:119  bool public b1 */\n    tag_8:\n      sload(0x01)\n      tag_26\n      swap1\n      0xff\n      and\n      dup2\n      jump\n    tag_26:\n      mload(0x40)\n        /* \"#utility.yul\":1257:1271   */\n      swap1\n      iszero\n        /* \"#utility.yul\":1250:1272   */\n      iszero\n        /* \"#utility.yul\":1232:1273   */\n      dup2\n      mstore\n        /* \"#utility.yul\":1220:1222   */\n      0x20\n        /* \"#utility.yul\":1205:1223   */\n      add\n        /* \"demo1/24Outputs.sol\":105:119  bool public b1 */\n      tag_13\n        /* \"#utility.yul\":1092:1279   */\n      jump\n        /* \"demo1/24Outputs.sol\":306:464  function captureOutputs()public {... */\n    tag_10:\n        /* \"demo1/24Outputs.sol\":350:356  uint i */\n      0x00\n        /* \"demo1/24Outputs.sol\":357:363  bool b */\n      0x00\n        /* \"demo1/24Outputs.sol\":364:381  string memory str */\n      0x00\n        /* \"demo1/24Outputs.sol\":385:401  returnMultiple() */\n      tag_31\n        /* \"demo1/24Outputs.sol\":277:290  str = \"Hello\" */\n      0x40\n      dup1\n      mload\n      dup1\n      dup3\n      add\n      swap1\n      swap2\n      mstore\n      0x05\n      dup2\n      mstore\n      shl(0xd8, 0x48656c6c6f)\n      0x20\n      dup3\n      add\n      mstore\n        /* \"demo1/24Outputs.sol\":246:247  1 */\n      0x01\n      swap2\n      dup3\n      swap2\n        /* \"demo1/24Outputs.sol\":277:290  str = \"Hello\" */\n      swap1\n        /* \"demo1/24Outputs.sol\":151:298  function returnMultiple() public  pure returns (uint i,bool b,string memory str){... */\n      jump\n        /* \"demo1/24Outputs.sol\":385:401  returnMultiple() */\n    tag_31:\n        /* \"demo1/24Outputs.sol\":412:414  i1 */\n      0x00\n        /* \"demo1/24Outputs.sol\":412:418  i1 = i */\n      dup4\n      swap1\n      sstore\n        /* \"demo1/24Outputs.sol\":429:431  b1 */\n      0x01\n        /* \"demo1/24Outputs.sol\":429:435  b1 = b */\n      dup1\n      sload\n      not(0xff)\n      and\n      dup4\n      iszero\n      iszero\n      or\n      swap1\n      sstore\n        /* \"demo1/24Outputs.sol\":412:418  i1 = i */\n      swap2\n      swap5\n      pop\n        /* \"demo1/24Outputs.sol\":429:435  b1 = b */\n      swap3\n      pop\n        /* \"demo1/24Outputs.sol\":349:401  (uint i,bool b,string memory str) = returnMultiple() */\n      swap1\n      pop\n        /* \"demo1/24Outputs.sol\":446:450  str1 */\n      0x02\n        /* \"demo1/24Outputs.sol\":446:456  str1 = str */\n      tag_32\n        /* \"demo1/24Outputs.sol\":349:401  (uint i,bool b,string memory str) = returnMultiple() */\n      dup3\n        /* \"demo1/24Outputs.sol\":446:450  str1 */\n      dup3\n        /* \"demo1/24Outputs.sol\":446:456  str1 = str */\n      tag_33\n      jump\t// in\n    tag_32:\n      pop\n        /* \"demo1/24Outputs.sol\":338:464  {... */\n      pop\n      pop\n      pop\n        /* \"demo1/24Outputs.sol\":306:464  function captureOutputs()public {... */\n      jump\t// out\n        /* \"demo1/24Outputs.sol\":472:583  function displayOutputs()external view returns (uint,bool,string memory) {... */\n    tag_16:\n        /* \"demo1/24Outputs.sol\":520:524  uint */\n      0x00\n        /* \"demo1/24Outputs.sol\":525:529  bool */\n      0x00\n        /* \"demo1/24Outputs.sol\":530:543  string memory */\n      0x60\n        /* \"demo1/24Outputs.sol\":564:566  i1 */\n      sload(0x00)\n        /* \"demo1/24Outputs.sol\":567:569  b1 */\n      0x01\n      0x00\n      swap1\n      sload\n      swap1\n      0x0100\n      exp\n      swap1\n      div\n      0xff\n      and\n        /* \"demo1/24Outputs.sol\":570:574  str1 */\n      0x02\n        /* \"demo1/24Outputs.sol\":556:575  return (i1,b1,str1) */\n      dup1\n      dup1\n      sload\n      tag_35\n      swap1\n      tag_36\n      jump\t// in\n    tag_35:\n      dup1\n      0x1f\n      add\n      0x20\n      dup1\n      swap2\n      div\n      mul\n      0x20\n      add\n      mload(0x40)\n      swap1\n      dup2\n      add\n      0x40\n      mstore\n      dup1\n      swap3\n      swap2\n      swap1\n      dup2\n      dup2\n      mstore\n      0x20\n      add\n      dup3\n      dup1\n      sload\n      tag_37\n      swap1\n      tag_36\n      jump\t// in\n    tag_37:\n      dup1\n      iszero\n      tag_38\n      jumpi\n      dup1\n      0x1f\n      lt\n      tag_39\n      jumpi\n      0x0100\n      dup1\n      dup4\n      sload\n      div\n      mul\n      dup4\n      mstore\n      swap2\n      0x20\n      add\n      swap2\n      jump(tag_38)\n    tag_39:\n      dup3\n      add\n      swap2\n      swap1\n      0x00\n      mstore\n      keccak256(0x00, 0x20)\n      swap1\n    tag_40:\n      dup2\n      sload\n      dup2\n      mstore\n      swap1\n      0x01\n      add\n      swap1\n      0x20\n      add\n      dup1\n      dup4\n      gt\n      tag_40\n      jumpi\n      dup3\n      swap1\n      sub\n      0x1f\n      and\n      dup3\n      add\n      swap2\n    tag_38:\n      pop\n      pop\n      pop\n      pop\n      pop\n      swap1\n      pop\n      swap3\n      pop\n      swap3\n      pop\n      swap3\n      pop\n        /* \"demo1/24Outputs.sol\":472:583  function displayOutputs()external view returns (uint,bool,string memory) {... */\n      swap1\n      swap2\n      swap3\n      jump\t// out\n        /* \"demo1/24Outputs.sol\":126:144  string public str1 */\n    tag_20:\n      0x02\n      dup1\n      sload\n      tag_41\n      swap1\n      tag_36\n      jump\t// in\n    tag_41:\n      dup1\n      0x1f\n      add\n      0x20\n      dup1\n      swap2\n      div\n      mul\n      0x20\n      add\n      mload(0x40)\n      swap1\n      dup2\n      add\n      0x40\n      mstore\n      dup1\n      swap3\n      swap2\n      swap1\n      dup2\n      dup2\n      mstore\n      0x20\n      add\n      dup3\n      dup1\n      sload\n      tag_42\n      swap1\n      tag_36\n      jump\t// in\n    tag_42:\n      dup1\n      iszero\n      tag_43\n      jumpi\n      dup1\n      0x1f\n      lt\n      tag_44\n      jumpi\n      0x0100\n      dup1\n      dup4\n      sload\n      div\n      mul\n      dup4\n      mstore\n      swap2\n      0x20\n      add\n      swap2\n      jump(tag_43)\n    tag_44:\n      dup3\n      add\n      swap2\n      swap1\n      0x00\n      mstore\n      keccak256(0x00, 0x20)\n      swap1\n    tag_45:\n      dup2\n      sload\n      dup2\n      mstore\n      swap1\n      0x01\n      add\n      swap1\n      0x20\n      add\n      dup1\n      dup4\n      gt\n      tag_45\n      jumpi\n      dup3\n      swap1\n      sub\n      0x1f\n      and\n      dup3\n      add\n      swap2\n    tag_43:\n      pop\n      pop\n      pop\n      pop\n      pop\n      dup2\n      jump\t// out\n        /* \"#utility.yul\":196:485   */\n    tag_47:\n        /* \"#utility.yul\":238:241   */\n      0x00\n        /* \"#utility.yul\":276:281   */\n      dup2\n        /* \"#utility.yul\":270:282   */\n      mload\n        /* \"#utility.yul\":303:309   */\n      dup1\n        /* \"#utility.yul\":298:301   */\n      dup5\n        /* \"#utility.yul\":291:310   */\n      mstore\n        /* \"#utility.yul\":359:365   */\n      dup1\n        /* \"#utility.yul\":352:356   */\n      0x20\n        /* \"#utility.yul\":345:350   */\n      dup5\n        /* \"#utility.yul\":341:357   */\n      add\n        /* \"#utility.yul\":334:338   */\n      0x20\n        /* \"#utility.yul\":329:332   */\n      dup7\n        /* \"#utility.yul\":325:339   */\n      add\n        /* \"#utility.yul\":319:366   */\n      mcopy\n        /* \"#utility.yul\":411:412   */\n      0x00\n        /* \"#utility.yul\":404:408   */\n      0x20\n        /* \"#utility.yul\":395:401   */\n      dup3\n        /* \"#utility.yul\":390:393   */\n      dup7\n        /* \"#utility.yul\":386:402   */\n      add\n        /* \"#utility.yul\":382:409   */\n      add\n        /* \"#utility.yul\":375:413   */\n      mstore\n        /* \"#utility.yul\":474:478   */\n      0x20\n        /* \"#utility.yul\":467:469   */\n      0x1f\n        /* \"#utility.yul\":463:470   */\n      not\n        /* \"#utility.yul\":458:460   */\n      0x1f\n        /* \"#utility.yul\":450:456   */\n      dup4\n        /* \"#utility.yul\":446:461   */\n      add\n        /* \"#utility.yul\":442:471   */\n      and\n        /* \"#utility.yul\":437:440   */\n      dup6\n        /* \"#utility.yul\":433:472   */\n      add\n        /* \"#utility.yul\":429:479   */\n      add\n        /* \"#utility.yul\":422:479   */\n      swap2\n      pop\n      pop\n        /* \"#utility.yul\":196:485   */\n      swap3\n      swap2\n      pop\n      pop\n      jump\t// out\n        /* \"#utility.yul\":490:862   */\n    tag_18:\n        /* \"#utility.yul\":689:695   */\n      dup4\n        /* \"#utility.yul\":678:687   */\n      dup2\n        /* \"#utility.yul\":671:696   */\n      mstore\n        /* \"#utility.yul\":746:752   */\n      dup3\n        /* \"#utility.yul\":739:753   */\n      iszero\n        /* \"#utility.yul\":732:754   */\n      iszero\n        /* \"#utility.yul\":727:729   */\n      0x20\n        /* \"#utility.yul\":716:725   */\n      dup3\n        /* \"#utility.yul\":712:730   */\n      add\n        /* \"#utility.yul\":705:755   */\n      mstore\n        /* \"#utility.yul\":791:793   */\n      0x60\n        /* \"#utility.yul\":786:788   */\n      0x40\n        /* \"#utility.yul\":775:784   */\n      dup3\n        /* \"#utility.yul\":771:789   */\n      add\n        /* \"#utility.yul\":764:794   */\n      mstore\n        /* \"#utility.yul\":652:656   */\n      0x00\n        /* \"#utility.yul\":811:856   */\n      tag_56\n        /* \"#utility.yul\":852:854   */\n      0x60\n        /* \"#utility.yul\":841:850   */\n      dup4\n        /* \"#utility.yul\":837:855   */\n      add\n        /* \"#utility.yul\":829:835   */\n      dup5\n        /* \"#utility.yul\":811:856   */\n      tag_47\n      jump\t// in\n    tag_56:\n        /* \"#utility.yul\":803:856   */\n      swap6\n        /* \"#utility.yul\":490:862   */\n      swap5\n      pop\n      pop\n      pop\n      pop\n      pop\n      jump\t// out\n        /* \"#utility.yul\":867:1087   */\n    tag_22:\n        /* \"#utility.yul\":1016:1018   */\n      0x20\n        /* \"#utility.yul\":1005:1014   */\n      dup2\n        /* \"#utility.yul\":998:1019   */\n      mstore\n        /* \"#utility.yul\":979:983   */\n      0x00\n        /* \"#utility.yul\":1036:1081   */\n      tag_58\n        /* \"#utility.yul\":1077:1079   */\n      0x20\n        /* \"#utility.yul\":1066:1075   */\n      dup4\n        /* \"#utility.yul\":1062:1080   */\n      add\n        /* \"#utility.yul\":1054:1060   */\n      dup5\n        /* \"#utility.yul\":1036:1081   */\n      tag_47\n      jump\t// in\n    tag_58:\n        /* \"#utility.yul\":1028:1081   */\n      swap4\n        /* \"#utility.yul\":867:1087   */\n      swap3\n      pop\n      pop\n      pop\n      jump\t// out\n        /* \"#utility.yul\":1284:1411   */\n    tag_48:\n        /* \"#utility.yul\":1345:1355   */\n      0x4e487b71\n        /* \"#utility.yul\":1340:1343   */\n      0xe0\n        /* \"#utility.yul\":1336:1356   */\n      shl\n        /* \"#utility.yul\":1333:1334   */\n      0x00\n        /* \"#utility.yul\":1326:1357   */\n      mstore\n        /* \"#utility.yul\":1376:1380   */\n      0x41\n        /* \"#utility.yul\":1373:1374   */\n      0x04\n        /* \"#utility.yul\":1366:1381   */\n      mstore\n        /* \"#utility.yul\":1400:1404   */\n      0x24\n        /* \"#utility.yul\":1397:1398   */\n      0x00\n        /* \"#utility.yul\":1390:1405   */\n      revert\n        /* \"#utility.yul\":1416:1796   */\n    tag_36:\n        /* \"#utility.yul\":1495:1496   */\n      0x01\n        /* \"#utility.yul\":1491:1503   */\n      dup2\n      dup2\n      shr\n      swap1\n        /* \"#utility.yul\":1538:1550   */\n      dup3\n      and\n      dup1\n        /* \"#utility.yul\":1559:1620   */\n      tag_62\n      jumpi\n        /* \"#utility.yul\":1613:1617   */\n      0x7f\n        /* \"#utility.yul\":1605:1611   */\n      dup3\n        /* \"#utility.yul\":1601:1618   */\n      and\n        /* \"#utility.yul\":1591:1618   */\n      swap2\n      pop\n        /* \"#utility.yul\":1559:1620   */\n    tag_62:\n        /* \"#utility.yul\":1666:1668   */\n      0x20\n        /* \"#utility.yul\":1658:1664   */\n      dup3\n        /* \"#utility.yul\":1655:1669   */\n      lt\n        /* \"#utility.yul\":1635:1653   */\n      dup2\n        /* \"#utility.yul\":1632:1670   */\n      sub\n        /* \"#utility.yul\":1629:1790   */\n      tag_63\n      jumpi\n        /* \"#utility.yul\":1712:1722   */\n      0x4e487b71\n        /* \"#utility.yul\":1707:1710   */\n      0xe0\n        /* \"#utility.yul\":1703:1723   */\n      shl\n        /* \"#utility.yul\":1700:1701   */\n      0x00\n        /* \"#utility.yul\":1693:1724   */\n      mstore\n        /* \"#utility.yul\":1747:1751   */\n      0x22\n        /* \"#utility.yul\":1744:1745   */\n      0x04\n        /* \"#utility.yul\":1737:1752   */\n      mstore\n        /* \"#utility.yul\":1775:1779   */\n      0x24\n        /* \"#utility.yul\":1772:1773   */\n      0x00\n        /* \"#utility.yul\":1765:1780   */\n      revert\n        /* \"#utility.yul\":1629:1790   */\n    tag_63:\n      pop\n        /* \"#utility.yul\":1416:1796   */\n      swap2\n      swap1\n      pop\n      jump\t// out\n        /* \"#utility.yul\":1927:2619   */\n    tag_50:\n        /* \"#utility.yul\":2029:2031   */\n      0x1f\n        /* \"#utility.yul\":2024:2027   */\n      dup3\n        /* \"#utility.yul\":2021:2032   */\n      gt\n        /* \"#utility.yul\":2018:2613   */\n      iszero\n      tag_67\n      jumpi\n        /* \"#utility.yul\":2066:2076   */\n      dup3\n        /* \"#utility.yul\":2061:2064   */\n      dup3\n        /* \"#utility.yul\":2058:2077   */\n      gt\n        /* \"#utility.yul\":2055:2603   */\n      iszero\n      tag_67\n      jumpi\n        /* \"#utility.yul\":2118:2123   */\n      dup1\n        /* \"#utility.yul\":2115:2116   */\n      0x00\n        /* \"#utility.yul\":2108:2124   */\n      mstore\n        /* \"#utility.yul\":2166:2170   */\n      0x20\n        /* \"#utility.yul\":2163:2164   */\n      0x00\n        /* \"#utility.yul\":2153:2171   */\n      keccak256\n        /* \"#utility.yul\":2231:2233   */\n      0x1f\n        /* \"#utility.yul\":2219:2229   */\n      dup5\n        /* \"#utility.yul\":2215:2234   */\n      add\n        /* \"#utility.yul\":2212:2213   */\n      0x05\n        /* \"#utility.yul\":2208:2235   */\n      shr\n        /* \"#utility.yul\":2270:2274   */\n      0x20\n        /* \"#utility.yul\":2258:2268   */\n      dup6\n        /* \"#utility.yul\":2255:2275   */\n      lt\n        /* \"#utility.yul\":2252:2297   */\n      iszero\n      tag_68\n      jumpi\n      pop\n        /* \"#utility.yul\":2294:2295   */\n      0x00\n        /* \"#utility.yul\":2252:2297   */\n    tag_68:\n        /* \"#utility.yul\":2333:2356   */\n      swap1\n      dup2\n      add\n      swap1\n        /* \"#utility.yul\":2403:2405   */\n      0x1f\n        /* \"#utility.yul\":2394:2406   */\n      dup5\n      add\n        /* \"#utility.yul\":2391:2392   */\n      0x05\n        /* \"#utility.yul\":2387:2407   */\n      shr\n        /* \"#utility.yul\":2383:2422   */\n      sub\n        /* \"#utility.yul\":2448:2449   */\n      0x00\n        /* \"#utility.yul\":2466:2589   */\n    tag_69:\n        /* \"#utility.yul\":2480:2482   */\n      dup2\n        /* \"#utility.yul\":2477:2478   */\n      dup2\n        /* \"#utility.yul\":2474:2483   */\n      lt\n        /* \"#utility.yul\":2466:2589   */\n      iszero\n      tag_71\n      jumpi\n        /* \"#utility.yul\":2569:2570   */\n      0x00\n        /* \"#utility.yul\":2548:2567   */\n      dup4\n      dup3\n      add\n        /* \"#utility.yul\":2541:2571   */\n      sstore\n        /* \"#utility.yul\":2498:2499   */\n      0x01\n        /* \"#utility.yul\":2491:2500   */\n      add\n        /* \"#utility.yul\":2466:2589   */\n      jump(tag_69)\n    tag_71:\n        /* \"#utility.yul\":2470:2473   */\n      pop\n      pop\n      pop\n        /* \"#utility.yul\":2055:2603   */\n    tag_67:\n        /* \"#utility.yul\":1927:2619   */\n      pop\n      pop\n      pop\n      jump\t// out\n        /* \"#utility.yul\":2795:4094   */\n    tag_33:\n        /* \"#utility.yul\":2921:2924   */\n      dup2\n        /* \"#utility.yul\":2915:2925   */\n      mload\n        /* \"#utility.yul\":2948:2966   */\n      0xffffffffffffffff\n        /* \"#utility.yul\":2940:2946   */\n      dup2\n        /* \"#utility.yul\":2937:2967   */\n      gt\n        /* \"#utility.yul\":2934:2990   */\n      iszero\n      tag_75\n      jumpi\n        /* \"#utility.yul\":2970:2988   */\n      tag_75\n      tag_48\n      jump\t// in\n    tag_75:\n        /* \"#utility.yul\":2999:3096   */\n      tag_76\n        /* \"#utility.yul\":3089:3095   */\n      dup2\n        /* \"#utility.yul\":3049:3087   */\n      tag_77\n        /* \"#utility.yul\":3081:3085   */\n      dup5\n        /* \"#utility.yul\":3075:3086   */\n      sload\n        /* \"#utility.yul\":3049:3087   */\n      tag_36\n      jump\t// in\n    tag_77:\n        /* \"#utility.yul\":3043:3047   */\n      dup5\n        /* \"#utility.yul\":2999:3096   */\n      tag_50\n      jump\t// in\n    tag_76:\n        /* \"#utility.yul\":3145:3149   */\n      0x20\n        /* \"#utility.yul\":3176:3178   */\n      0x1f\n        /* \"#utility.yul\":3165:3179   */\n      dup3\n      gt\n        /* \"#utility.yul\":3193:3194   */\n      0x01\n        /* \"#utility.yul\":3188:3837   */\n      dup2\n      eq\n      tag_79\n      jumpi\n        /* \"#utility.yul\":3881:3882   */\n      0x00\n        /* \"#utility.yul\":3898:3904   */\n      dup4\n        /* \"#utility.yul\":3895:3984   */\n      iszero\n      tag_80\n      jumpi\n      pop\n        /* \"#utility.yul\":3950:3969   */\n      dup5\n      dup3\n      add\n        /* \"#utility.yul\":3944:3970   */\n      mload\n        /* \"#utility.yul\":3895:3984   */\n    tag_80:\n      not(0x00)\n        /* \"#utility.yul\":2752:2753   */\n      0x03\n        /* \"#utility.yul\":2748:2759   */\n      dup6\n      swap1\n      shl\n        /* \"#utility.yul\":2744:2768   */\n      shr\n        /* \"#utility.yul\":2740:2769   */\n      not\n        /* \"#utility.yul\":2730:2770   */\n      and\n        /* \"#utility.yul\":2776:2777   */\n      0x01\n        /* \"#utility.yul\":2772:2783   */\n      dup5\n      swap1\n      shl\n        /* \"#utility.yul\":2727:2784   */\n      or\n        /* \"#utility.yul\":3997:4078   */\n      dup5\n      sstore\n        /* \"#utility.yul\":3158:4088   */\n      jump(tag_78)\n        /* \"#utility.yul\":3188:3837   */\n    tag_79:\n        /* \"#utility.yul\":1874:1875   */\n      0x00\n        /* \"#utility.yul\":1867:1881   */\n      dup5\n      dup2\n      mstore\n        /* \"#utility.yul\":1911:1915   */\n      0x20\n        /* \"#utility.yul\":1898:1916   */\n      dup2\n      keccak256\n      not(0x1f)\n        /* \"#utility.yul\":3224:3244   */\n      dup6\n      and\n      swap2\n        /* \"#utility.yul\":3342:3564   */\n    tag_83:\n        /* \"#utility.yul\":3356:3363   */\n      dup3\n        /* \"#utility.yul\":3353:3354   */\n      dup2\n        /* \"#utility.yul\":3350:3364   */\n      lt\n        /* \"#utility.yul\":3342:3564   */\n      iszero\n      tag_85\n      jumpi\n        /* \"#utility.yul\":3438:3457   */\n      dup8\n      dup6\n      add\n        /* \"#utility.yul\":3432:3458   */\n      mload\n        /* \"#utility.yul\":3417:3459   */\n      dup3\n      sstore\n        /* \"#utility.yul\":3545:3549   */\n      0x20\n        /* \"#utility.yul\":3530:3550   */\n      swap5\n      dup6\n      add\n      swap5\n        /* \"#utility.yul\":3498:3499   */\n      0x01\n        /* \"#utility.yul\":3486:3500   */\n      swap1\n      swap3\n      add\n      swap2\n        /* \"#utility.yul\":3372:3384   */\n      add\n        /* \"#utility.yul\":3342:3564   */\n      jump(tag_83)\n    tag_85:\n        /* \"#utility.yul\":3346:3349   */\n      pop\n        /* \"#utility.yul\":3592:3598   */\n      dup5\n        /* \"#utility.yul\":3583:3590   */\n      dup3\n        /* \"#utility.yul\":3580:3599   */\n      lt\n        /* \"#utility.yul\":3577:3778   */\n      iszero\n      tag_86\n      jumpi\n        /* \"#utility.yul\":3653:3672   */\n      dup7\n      dup5\n      add\n        /* \"#utility.yul\":3647:3673   */\n      mload\n      not(0x00)\n        /* \"#utility.yul\":3736:3737   */\n      0x03\n        /* \"#utility.yul\":3732:3746   */\n      dup8\n      swap1\n      shl\n        /* \"#utility.yul\":3748:3751   */\n      0xf8\n        /* \"#utility.yul\":3728:3752   */\n      and\n        /* \"#utility.yul\":3724:3761   */\n      shr\n        /* \"#utility.yul\":3720:3762   */\n      not\n        /* \"#utility.yul\":3705:3763   */\n      and\n        /* \"#utility.yul\":3690:3764   */\n      dup2\n      sstore\n        /* \"#utility.yul\":3577:3778   */\n    tag_86:\n      pop\n      pop\n        /* \"#utility.yul\":3824:3825   */\n      0x01\n        /* \"#utility.yul\":3815:3821   */\n      dup4\n        /* \"#utility.yul\":3812:3813   */\n      0x01\n        /* \"#utility.yul\":3808:3822   */\n      shl\n        /* \"#utility.yul\":3804:3826   */\n      add\n        /* \"#utility.yul\":3798:3802   */\n      dup5\n        /* \"#utility.yul\":3791:3827   */\n      sstore\n        /* \"#utility.yul\":3158:4088   */\n    tag_78:\n      pop\n      pop\n      pop\n        /* \"#utility.yul\":2795:4094   */\n      pop\n      pop\n      jump\t// out\n\n    auxdata: 0xa2646970667358221220b11bd45c4f65c25bc38eb1798de139ef7a92187767083d245645412917152d9e64736f6c63430008210033\n}\n",
				"bytecode": {
					"linkReferences": {},
					"object": "6080604052348015600e575f5ffd5b5061048d8061001c5f395ff3fe608060405234801561000f575f5ffd5b5060043610610060575f3560e01c806326a89e0414610064578063288972381461006e57806364f1352114610089578063d118d187146100a0578063e61e4008146100b5578063ee495002146100db575b5f5ffd5b61006c6100f8565b005b6100765f5481565b6040519081526020015b60405180910390f35b61009161014d565b604051610080939291906102b3565b6100a86101f9565b60405161008091906102dc565b60408051808201909152600581526448656c6c6f60d81b60208201526001908190610091565b6001546100e89060ff1681565b6040519015158152602001610080565b5f5f5f61012260408051808201909152600581526448656c6c6f60d81b6020820152600191829190565b5f8390556001805460ff19168315151790559194509250905060026101478282610398565b50505050565b5f5f60605f5460015f9054906101000a900460ff16600280805461017090610309565b80601f016020809104026020016040519081016040528092919081815260200182805461019c90610309565b80156101e75780601f106101be576101008083540402835291602001916101e7565b820191905f5260205f20905b8154815290600101906020018083116101ca57829003601f168201915b50505050509050925092509250909192565b6002805461020690610309565b80601f016020809104026020016040519081016040528092919081815260200182805461023290610309565b801561027d5780601f106102545761010080835404028352916020019161027d565b820191905f5260205f20905b81548152906001019060200180831161026057829003601f168201915b505050505081565b5f81518084528060208401602086015e5f602082860101526020601f19601f83011685010191505092915050565b8381528215156020820152606060408201525f6102d36060830184610285565b95945050505050565b602081525f6102ee6020830184610285565b9392505050565b634e487b7160e01b5f52604160045260245ffd5b600181811c9082168061031d57607f821691505b60208210810361033b57634e487b7160e01b5f52602260045260245ffd5b50919050565b601f821115610393578282111561039357805f5260205f20601f840160051c602085101561036c57505f5b90810190601f840160051c035f5b8181101561038f575f8382015560010161037a565b5050505b505050565b815167ffffffffffffffff8111156103b2576103b26102f5565b6103c6816103c08454610309565b84610341565b6020601f8211600181146103f8575f83156103e15750848201515b5f19600385901b1c1916600184901b178455610450565b5f84815260208120601f198516915b828110156104275787850151825560209485019460019092019101610407565b508482101561044457868401515f19600387901b60f8161c191681555b505060018360011b0184555b505050505056fea2646970667358221220b11bd45c4f65c25bc38eb1798de139ef7a92187767083d245645412917152d9e64736f6c63430008210033",
					"opcodes": "PUSH1 0x80 PUSH1 0x40 MSTORE CALLVALUE DUP1 ISZERO PUSH1 0xE JUMPI PUSH0 PUSH0 REVERT JUMPDEST POP PUSH2 0x48D DUP1 PUSH2 0x1C PUSH0 CODECOPY PUSH0 RETURN INVALID PUSH1 0x80 PUSH1 0x40 MSTORE CALLVALUE DUP1 ISZERO PUSH2 0xF JUMPI PUSH0 PUSH0 REVERT JUMPDEST POP PUSH1 0x4 CALLDATASIZE LT PUSH2 0x60 JUMPI PUSH0 CALLDATALOAD PUSH1 0xE0 SHR DUP1 PUSH4 0x26A89E04 EQ PUSH2 0x64 JUMPI DUP1 PUSH4 0x28897238 EQ PUSH2 0x6E JUMPI DUP1 PUSH4 0x64F13521 EQ PUSH2 0x89 JUMPI DUP1 PUSH4 0xD118D187 EQ PUSH2 0xA0 JUMPI DUP1 PUSH4 0xE61E4008 EQ PUSH2 0xB5 JUMPI DUP1 PUSH4 0xEE495002 EQ PUSH2 0xDB JUMPI JUMPDEST PUSH0 PUSH0 REVERT JUMPDEST PUSH2 0x6C PUSH2 0xF8 JUMP JUMPDEST STOP JUMPDEST PUSH2 0x76 PUSH0 SLOAD DUP2 JUMP JUMPDEST PUSH1 0x40 MLOAD SWAP1 DUP2 MSTORE PUSH1 0x20 ADD JUMPDEST PUSH1 0x40 MLOAD DUP1 SWAP2 SUB SWAP1 RETURN JUMPDEST PUSH2 0x91 PUSH2 0x14D JUMP JUMPDEST PUSH1 0x40 MLOAD PUSH2 0x80 SWAP4 SWAP3 SWAP2 SWAP1 PUSH2 0x2B3 JUMP JUMPDEST PUSH2 0xA8 PUSH2 0x1F9 JUMP JUMPDEST PUSH1 0x40 MLOAD PUSH2 0x80 SWAP2 SWAP1 PUSH2 0x2DC JUMP JUMPDEST PUSH1 0x40 DUP1 MLOAD DUP1 DUP3 ADD SWAP1 SWAP2 MSTORE PUSH1 0x5 DUP2 MSTORE PUSH5 0x48656C6C6F PUSH1 0xD8 SHL PUSH1 0x20 DUP3 ADD MSTORE PUSH1 0x1 SWAP1 DUP2 SWAP1 PUSH2 0x91 JUMP JUMPDEST PUSH1 0x1 SLOAD PUSH2 0xE8 SWAP1 PUSH1 0xFF AND DUP2 JUMP JUMPDEST PUSH1 0x40 MLOAD SWAP1 ISZERO ISZERO DUP2 MSTORE PUSH1 0x20 ADD PUSH2 0x80 JUMP JUMPDEST PUSH0 PUSH0 PUSH0 PUSH2 0x122 PUSH1 0x40 DUP1 MLOAD DUP1 DUP3 ADD SWAP1 SWAP2 MSTORE PUSH1 0x5 DUP2 MSTORE PUSH5 0x48656C6C6F PUSH1 0xD8 SHL PUSH1 0x20 DUP3 ADD MSTORE PUSH1 0x1 SWAP2 DUP3 SWAP2 SWAP1 JUMP JUMPDEST PUSH0 DUP4 SWAP1 SSTORE PUSH1 0x1 DUP1 SLOAD PUSH1 0xFF NOT AND DUP4 ISZERO ISZERO OR SWAP1 SSTORE SWAP2 SWAP5 POP SWAP3 POP SWAP1 POP PUSH1 0x2 PUSH2 0x147 DUP3 DUP3 PUSH2 0x398 JUMP JUMPDEST POP POP POP POP JUMP JUMPDEST PUSH0 PUSH0 PUSH1 0x60 PUSH0 SLOAD PUSH1 0x1 PUSH0 SWAP1 SLOAD SWAP1 PUSH2 0x100 EXP SWAP1 DIV PUSH1 0xFF AND PUSH1 0x2 DUP1 DUP1 SLOAD PUSH2 0x170 SWAP1 PUSH2 0x309 JUMP JUMPDEST DUP1 PUSH1 0x1F ADD PUSH1 0x20 DUP1 SWAP2 DIV MUL PUSH1 0x20 ADD PUSH1 0x40 MLOAD SWAP1 DUP2 ADD PUSH1 0x40 MSTORE DUP1 SWAP3 SWAP2 SWAP1 DUP2 DUP2 MSTORE PUSH1 0x20 ADD DUP3 DUP1 SLOAD PUSH2 0x19C SWAP1 PUSH2 0x309 JUMP JUMPDEST DUP1 ISZERO PUSH2 0x1E7 JUMPI DUP1 PUSH1 0x1F LT PUSH2 0x1BE JUMPI PUSH2 0x100 DUP1 DUP4 SLOAD DIV MUL DUP4 MSTORE SWAP2 PUSH1 0x20 ADD SWAP2 PUSH2 0x1E7 JUMP JUMPDEST DUP3 ADD SWAP2 SWAP1 PUSH0 MSTORE PUSH1 0x20 PUSH0 KECCAK256 SWAP1 JUMPDEST DUP2 SLOAD DUP2 MSTORE SWAP1 PUSH1 0x1 ADD SWAP1 PUSH1 0x20 ADD DUP1 DUP4 GT PUSH2 0x1CA JUMPI DUP3 SWAP1 SUB PUSH1 0x1F AND DUP3 ADD SWAP2 JUMPDEST POP POP POP POP POP SWAP1 POP SWAP3 POP SWAP3 POP SWAP3 POP SWAP1 SWAP2 SWAP3 JUMP JUMPDEST PUSH1 0x2 DUP1 SLOAD PUSH2 0x206 SWAP1 PUSH2 0x309 JUMP JUMPDEST DUP1 PUSH1 0x1F ADD PUSH1 0x20 DUP1 SWAP2 DIV MUL PUSH1 0x20 ADD PUSH1 0x40 MLOAD SWAP1 DUP2 ADD PUSH1 0x40 MSTORE DUP1 SWAP3 SWAP2 SWAP1 DUP2 DUP2 MSTORE PUSH1 0x20 ADD DUP3 DUP1 SLOAD PUSH2 0x232 SWAP1 PUSH2 0x309 JUMP JUMPDEST DUP1 ISZERO PUSH2 0x27D JUMPI DUP1 PUSH1 0x1F LT PUSH2 0x254 JUMPI PUSH2 0x100 DUP1 DUP4 SLOAD DIV MUL DUP4 MSTORE SWAP2 PUSH1 0x20 ADD SWAP2 PUSH2 0x27D JUMP JUMPDEST DUP3 ADD SWAP2 SWAP1 PUSH0 MSTORE PUSH1 0x20 PUSH0 KECCAK256 SWAP1 JUMPDEST DUP2 SLOAD DUP2 MSTORE SWAP1 PUSH1 0x1 ADD SWAP1 PUSH1 0x20 ADD DUP1 DUP4 GT PUSH2 0x260 JUMPI DUP3 SWAP1 SUB PUSH1 0x1F AND DUP3 ADD SWAP2 JUMPDEST POP POP POP POP POP DUP2 JUMP JUMPDEST PUSH0 DUP2 MLOAD DUP1 DUP5 MSTORE DUP1 PUSH1 0x20 DUP5 ADD PUSH1 0x20 DUP7 ADD MCOPY PUSH0 PUSH1 0x20 DUP3 DUP7 ADD ADD MSTORE PUSH1 0x20 PUSH1 0x1F NOT PUSH1 0x1F DUP4 ADD AND DUP6 ADD ADD SWAP2 POP POP SWAP3 SWAP2 POP POP JUMP JUMPDEST DUP4 DUP2 MSTORE DUP3 ISZERO ISZERO PUSH1 0x20 DUP3 ADD MSTORE PUSH1 0x60 PUSH1 0x40 DUP3 ADD MSTORE PUSH0 PUSH2 0x2D3 PUSH1 0x60 DUP4 ADD DUP5 PUSH2 0x285 JUMP JUMPDEST SWAP6 SWAP5 POP POP POP POP POP JUMP JUMPDEST PUSH1 0x20 DUP2 MSTORE PUSH0 PUSH2 0x2EE PUSH1 0x20 DUP4 ADD DUP5 PUSH2 0x285 JUMP JUMPDEST SWAP4 SWAP3 POP POP POP JUMP JUMPDEST PUSH4 0x4E487B71 PUSH1 0xE0 SHL PUSH0 MSTORE PUSH1 0x41 PUSH1 0x4 MSTORE PUSH1 0x24 PUSH0 REVERT JUMPDEST PUSH1 0x1 DUP2 DUP2 SHR SWAP1 DUP3 AND DUP1 PUSH2 0x31D JUMPI PUSH1 0x7F DUP3 AND SWAP2 POP JUMPDEST PUSH1 0x20 DUP3 LT DUP2 SUB PUSH2 0x33B JUMPI PUSH4 0x4E487B71 PUSH1 0xE0 SHL PUSH0 MSTORE PUSH1 0x22 PUSH1 0x4 MSTORE PUSH1 0x24 PUSH0 REVERT JUMPDEST POP SWAP2 SWAP1 POP JUMP JUMPDEST PUSH1 0x1F DUP3 GT ISZERO PUSH2 0x393 JUMPI DUP3 DUP3 GT ISZERO PUSH2 0x393 JUMPI DUP1 PUSH0 MSTORE PUSH1 0x20 PUSH0 KECCAK256 PUSH1 0x1F DUP5 ADD PUSH1 0x5 SHR PUSH1 0x20 DUP6 LT ISZERO PUSH2 0x36C JUMPI POP PUSH0 JUMPDEST SWAP1 DUP2 ADD SWAP1 PUSH1 0x1F DUP5 ADD PUSH1 0x5 SHR SUB PUSH0 JUMPDEST DUP2 DUP2 LT ISZERO PUSH2 0x38F JUMPI PUSH0 DUP4 DUP3 ADD SSTORE PUSH1 0x1 ADD PUSH2 0x37A JUMP JUMPDEST POP POP POP JUMPDEST POP POP POP JUMP JUMPDEST DUP2 MLOAD PUSH8 0xFFFFFFFFFFFFFFFF DUP2 GT ISZERO PUSH2 0x3B2 JUMPI PUSH2 0x3B2 PUSH2 0x2F5 JUMP JUMPDEST PUSH2 0x3C6 DUP2 PUSH2 0x3C0 DUP5 SLOAD PUSH2 0x309 JUMP JUMPDEST DUP5 PUSH2 0x341 JUMP JUMPDEST PUSH1 0x20 PUSH1 0x1F DUP3 GT PUSH1 0x1 DUP2 EQ PUSH2 0x3F8 JUMPI PUSH0 DUP4 ISZERO PUSH2 0x3E1 JUMPI POP DUP5 DUP3 ADD MLOAD JUMPDEST PUSH0 NOT PUSH1 0x3 DUP6 SWAP1 SHL SHR NOT AND PUSH1 0x1 DUP5 SWAP1 SHL OR DUP5 SSTORE PUSH2 0x450 JUMP JUMPDEST PUSH0 DUP5 DUP2 MSTORE PUSH1 0x20 DUP2 KECCAK256 PUSH1 0x1F NOT DUP6 AND SWAP2 JUMPDEST DUP3 DUP2 LT ISZERO PUSH2 0x427 JUMPI DUP8 DUP6 ADD MLOAD DUP3 SSTORE PUSH1 0x20 SWAP5 DUP6 ADD SWAP5 PUSH1 0x1 SWAP1 SWAP3 ADD SWAP2 ADD PUSH2 0x407 JUMP JUMPDEST POP DUP5 DUP3 LT ISZERO PUSH2 0x444 JUMPI DUP7 DUP5 ADD MLOAD PUSH0 NOT PUSH1 0x3 DUP8 SWAP1 SHL PUSH1 0xF8 AND SHR NOT AND DUP2 SSTORE JUMPDEST POP POP PUSH1 0x1 DUP4 PUSH1 0x1 SHL ADD DUP5 SSTORE JUMPDEST POP POP POP POP POP JUMP INVALID LOG2 PUSH5 0x6970667358 0x22 SLT KECCAK256 0xB1 SHL 0xD4 TLOAD 0x4F PUSH6 0xC25BC38EB179 DUP14 RJUMPI 0x39EF PUSH27 0x92187767083D245645412917152D9E64736F6C6343000821003300 "
				},
				"gasEstimates": {
					"creation": {
						"codeDepositCost": "233000",
						"executionCost": "273",
						"totalCost": "233273"
					},
					"external": {
						"b1()": "2397",
						"captureOutputs()": "infinite",
						"displayOutputs()": "infinite",
						"i1()": "2282",
						"returnMultiple()": "infinite",
						"str1()": "infinite"
					}
				},
				"methodIdentifiers": {
					"b1()": "ee495002",
					"captureOutputs()": "26a89e04",
					"displayOutputs()": "64f13521",
					"i1()": "28897238",
					"returnMultiple()": "e61e4008",
					"str1()": "d118d187"
				}
			},
			"storageLayout": {
				"storage": [
					{
						"astId": 3,
						"contract": "demo1/24Outputs.sol:Outputs",
						"label": "i1",
						"offset": 0,
						"slot": "0",
						"type": "t_uint256"
					},
					{
						"astId": 5,
						"contract": "demo1/24Outputs.sol:Outputs",
						"label": "b1",
						"offset": 0,
						"slot": "1",
						"type": "t_bool"
					},
					{
						"astId": 7,
						"contract": "demo1/24Outputs.sol:Outputs",
						"label": "str1",
						"offset": 0,
						"slot": "2",
						"type": "t_string_storage"
					}
				],
				"types": {
					"t_bool": {
						"encoding": "inplace",
						"label": "bool",
						"numberOfBytes": "1"
					},
					"t_string_storage": {
						"encoding": "bytes",
						"label": "string",
						"numberOfBytes": "32"
					},
					"t_uint256": {
						"encoding": "inplace",
						"label": "uint256",
						"numberOfBytes": "32"
					}
				}
			},
			"userdoc": {
				"kind": "user",
				"methods": {},
				"version": 1
			}
		}
	}
}