{
	"demo1/GlobalVariables.sol": {
		"GlobalVariables": {
			"abi": [
				{
					"inputs": [],
					"name": "globalVars",
					"outputs": [
						{
							"internalType": "uint256",
							"name": "",
							"type": "uint256"
						},
						{
							"internalType": "uint256",
							"name": "",
							"type": "uint256"
						},
						{
							"internalType": "uint256",
							"name": "",
							"type": "uint256"
						}
					],
					"stateMutability": "view",
					"type": "function"
				}
			],
			"devdoc": {
				"kind": "dev",
				"methods": {},
				"version": 1
			},
			"evm": {
				"assembly": "    /* \"demo1/GlobalVariables.sol\":60:176  contract GlobalVariables {... */\n  mstore(0x40, 0x80)\n  callvalue\n  dup1\n  iszero\n  tag_1\n  jumpi\n  revert(0x00, 0x00)\ntag_1:\n  pop\n  dataSize(sub_0)\n  dup1\n  dataOffset(sub_0)\n  0x00\n  codecopy\n  0x00\n  return\nstop\n\nsub_0: assembly {\n        /* \"demo1/GlobalVariables.sol\":60:176  contract GlobalVariables {... */\n      mstore(0x40, 0x80)\n      callvalue\n      dup1\n      iszero\n      tag_1\n      jumpi\n      revert(0x00, 0x00)\n    tag_1:\n      pop\n      jumpi(tag_2, lt(calldatasize, 0x04))\n      shr(0xe0, calldataload(0x00))\n      dup1\n      0x7e6230f3\n      eq\n      tag_3\n      jumpi\n    tag_2:\n      revert(0x00, 0x00)\n        /* \"demo1/GlobalVariables.sol\":92:173  function globalVars() external view returns (uint, uint, uint) {... */\n    tag_3:\n      0x40\n      dup1\n      mload\n        /* \"demo1/GlobalVariables.sol\":137:141  uint */\n      0x00\n        /* \"#utility.yul\":216:241   */\n      dup1\n      dup3\n      mstore\n        /* \"#utility.yul\":272:274   */\n      0x20\n        /* \"#utility.yul\":257:275   */\n      dup3\n      add\n        /* \"#utility.yul\":250:284   */\n      dup2\n      swap1\n      mstore\n        /* \"#utility.yul\":300:318   */\n      dup2\n      dup4\n      add\n        /* \"#utility.yul\":293:327   */\n      mstore\n        /* \"demo1/GlobalVariables.sol\":92:173  function globalVars() external view returns (uint, uint, uint) {... */\n      swap1\n      mload\n      swap1\n      dup2\n      swap1\n      sub\n        /* \"#utility.yul\":204:206   */\n      0x60\n        /* \"demo1/GlobalVariables.sol\":92:173  function globalVars() external view returns (uint, uint, uint) {... */\n      add\n      swap1\n      return\n\n    auxdata: 0xa2646970667358221220ec576277e83e5f020a311e09056786a47811537f6a14ffcdcb9dae3d6d5ea3ed64736f6c63430008210033\n}\n",
				"bytecode": {
					"linkReferences": {},
					"object": "6080604052348015600e575f5ffd5b50607f80601a5f395ff3fe6080604052348015600e575f5ffd5b50600436106026575f3560e01c80637e6230f314602a575b5f5ffd5b604080515f808252602082018190528183015290519081900360600190f3fea2646970667358221220ec576277e83e5f020a311e09056786a47811537f6a14ffcdcb9dae3d6d5ea3ed64736f6c63430008210033",
					"opcodes": "PUSH1 0x80 PUSH1 0x40 MSTORE CALLVALUE DUP1 ISZERO PUSH1 0xE JUMPI PUSH0 PUSH0 REVERT JUMPDEST POP PUSH1 0x7F DUP1 PUSH1 0x1A PUSH0 CODECOPY PUSH0 RETURN INVALID PUSH1 0x80 PUSH1 0x40 MSTORE CALLVALUE DUP1 ISZERO PUSH1 0xE JUMPI PUSH0 PUSH0 REVERT JUMPDEST POP PUSH1 0x4 CALLDATASIZE LT PUSH1 0x26 JUMPI PUSH0 CALLDATALOAD PUSH1 0xE0 SHR DUP1 PUSH4 0x7E6230F3 EQ PUSH1 0x2A JUMPI JUMPDEST PUSH0 PUSH0 REVERT JUMPDEST PUSH1 0x40 DUP1 MLOAD PUSH0 DUP1 DUP3 MSTORE PUSH1 0x20 DUP3 ADD DUP2 SWAP1 MSTORE DUP2 DUP4 ADD MSTORE SWAP1 MLOAD SWAP1 DUP2 SWAP1 SUB PUSH1 0x60 ADD SWAP1 RETURN INVALID LOG2 PUSH5 0x6970667358 0x22 SLT KECCAK256 EOFCREATE 0x57 PUSH3 0x77E83E PUSH0 MUL EXP BALANCE CLZ MULMOD SDIV PUSH8 0x86A47811537F6A14 SELFDESTRUCT 0xCD 0xCB SWAP14 0xAE RETURNDATASIZE PUSH14 0x5EA3ED64736F6C63430008210033 "
				},
				"gasEstimates": {
					"creation": {
						"codeDepositCost": "25400",
						"executionCost": "73",
						"totalCost": "25473"
					},
					"external": {
						"globalVars()": "186"
					}
				},
				"methodIdentifiers": {
					"globalVars()": "7e6230f3"
				}
			},
			"storageLayout": {
				"storage": [],
				"types": null
			},
			"userdoc": {
				"kind": "user",
				"methods": {},
				"version": 1
			}
		}
	}
}