{
	"demo1/60CrowdFund.sol": {
		"CrowdFund": {
			"abi": [
				{
					"inputs": [
						{
							"internalType": "address",
							"name": "_token",
							"type": "address"
						}
					],
					"stateMutability": "nonpayable",
					"type": "constructor"
				},
				{
					"anonymous": false,
					"inputs": [
						{
							"indexed": false,
							"internalType": "uint256",
							"name": "id",
							"type": "uint256"
						}
					],
					"name": "Cancel",
					"type": "event"
				},
				{
					"anonymous": false,
					"inputs": [
						{
							"indexed": false,
							"internalType": "uint256",
							"name": "id",
							"type": "uint256"
						}
					],
					"name": "Claim",
					"type": "event"
				},
				{
					"anonymous": false,
					"inputs": [
						{
							"indexed": false,
							"internalType": "uint256",
							"name": "id",
							"type": "uint256"
						},
						{
							"indexed": true,
							"internalType": "address",
							"name": "creator",
							"type": "address"
						},
						{
							"indexed": false,
							"internalType": "uint256",
							"name": "goal",
							"type": "uint256"
						},
						{
							"indexed": false,
							"internalType": "uint32",
							"name": "startAt",
							"type": "uint32"
						},
						{
							"indexed": false,
							"internalType": "uint32",
							"name": "endAt",
							"type": "uint32"
						}
					],
					"name": "Launch",
					"type": "event"
				},
				{
					"anonymous": false,
					"inputs": [
						{
							"indexed": true,
							"internalType": "uint256",
							"name": "id",
							"type": "uint256"
						},
						{
							"indexed": true,
							"internalType": "address",
							"name": "caller",
							"type": "address"
						},
						{
							"indexed": false,
							"internalType": "uint256",
							"name": "amount",
							"type": "uint256"
						}
					],
					"name": "Pledge",
					"type": "event"
				},
				{
					"anonymous": false,
					"inputs": [
						{
							"indexed": true,
							"internalType": "uint256",
							"name": "id",
							"type": "uint256"
						},
						{
							"indexed": true,
							"internalType": "address",
							"name": "caller",
							"type": "address"
						},
						{
							"indexed": false,
							"internalType": "uint256",
							"name": "amount",
							"type": "uint256"
						}
					],
					"name": "Refund",
					"type": "event"
				},
				{
					"anonymous": false,
					"inputs": [
						{
							"indexed": true,
							"internalType": "uint256",
							"name": "id",
							"type": "uint256"
						},
						{
							"indexed": true,
							"internalType": "address",
							"name": "caller",
							"type": "address"
						},
						{
							"indexed": false,
							"internalType": "uint256",
							"name": "amount",
							"type": "uint256"
						}
					],
					"name": "Unpledge",
					"type": "event"
				},
				{
					"inputs": [
						{
							"internalType": "uint256",
							"name": "",
							"type": "uint256"
						}
					],
					"name": "campaigns",
					"outputs": [
						{
							"internalType": "address",
							"name": "creator",
							"type": "address"
						},
						{
							"internalType": "uint256",
							"name": "goal",
							"type": "uint256"
						},
						{
							"internalType": "uint256",
							"name": "pledged",
							"type": "uint256"
						},
						{
							"internalType": "uint32",
							"name": "startAt",
							"type": "uint32"
						},
						{
							"internalType": "uint32",
							"name": "endAt",
							"type": "uint32"
						},
						{
							"internalType": "bool",
							"name": "claimed",
							"type": "bool"
						}
					],
					"stateMutability": "view",
					"type": "function"
				},
				{
					"inputs": [
						{
							"internalType": "uint256",
							"name": "_id",
							"type": "uint256"
						}
					],
					"name": "cancel",
					"outputs": [],
					"stateMutability": "nonpayable",
					"type": "function"
				},
				{
					"inputs": [
						{
							"internalType": "uint256",
							"name": "_id",
							"type": "uint256"
						}
					],
					"name": "claim",
					"outputs": [],
					"stateMutability": "nonpayable",
					"type": "function"
				},
				{
					"inputs": [],
					"name": "count",
					"outputs": [
						{
							"internalType": "uint256",
							"name": "",
							"type": "uint256"
						}
					],
					"stateMutability": "view",
					"type": "function"
				},
				{
					"inputs": [
						{
							"internalType": "uint256",
							"name": "_goal",
							"type": "uint256"
						},
						{
							"internalType": "uint32",
							"name": "_startOffset",
							"type": "uint32"
						},
						{
							"internalType": "uint32",
							"name": "_endOffset",
							"type": "uint32"
						}
					],
					"name": "launch",
					"outputs": [],
					"stateMutability": "nonpayable",
					"type": "function"
				},
				{
					"inputs": [
						{
							"internalType": "uint256",
							"name": "_id",
							"type": "uint256"
						},
						{
							"internalType": "uint256",
							"name": "_amount",
							"type": "uint256"
						}
					],
					"name": "pledge",
					"outputs": [],
					"stateMutability": "nonpayable",
					"type": "function"
				},
				{
					"inputs": [
						{
							"internalType": "uint256",
							"name": "",
							"type": "uint256"
						},
						{
							"internalType": "address",
							"name": "",
							"type": "address"
						}
					],
					"name": "pledgedAmount",
					"outputs": [
						{
							"internalType": "uint256",
							"name": "",
							"type": "uint256"
						}
					],
					"stateMutability": "view",
					"type": "function"
				},
				{
					"inputs": [
						{
							"internalType": "uint256",
							"name": "_id",
							"type": "uint256"
						}
					],
					"name": "refund",
					"outputs": [],
					"stateMutability": "nonpayable",
					"type": "function"
				},
				{
					"inputs": [],
					"name": "token",
					"outputs": [
						{
							"internalType": "contract IERC20",
							"name": "",
							"type": "address"
						}
					],
					"stateMutability": "view",
					"type": "function"
				},
				{
					"inputs": [
						{
							"internalType": "uint256",
							"name": "_id",
							"type": "uint256"
						},
						{
							"internalType": "uint256",
							"name": "_amount",
							"type": "uint256"
						}
					],
					"name": "unpledge",
					"outputs": [],
					"stateMutability": "nonpayable",
					"type": "function"
				}
			],
			"devdoc": {
				"kind": "dev",
				"methods": {},
				"version": 1
			},
			"evm": {
				"assembly": "    /* \"demo1/60CrowdFund.sol\":332:3974  contract CrowdFund {... */\n  mstore(0x40, 0xa0)\n    /* \"demo1/60CrowdFund.sol\":1083:1152  constructor(address _token) {... */\n  callvalue\n  dup1\n  iszero\n  tag_1\n  jumpi\n  0x00\n  dup1\n  revert\ntag_1:\n  pop\n  mload(0x40)\n  sub(codesize, bytecodeSize)\n  dup1\n  bytecodeSize\n  dup4\n  codecopy\n  dup2\n  add\n  0x40\n  dup2\n  swap1\n  mstore\n  tag_2\n  swap2\n  tag_3\n  jump\t// in\ntag_2:\n  sub(shl(0xa0, 0x01), 0x01)\n    /* \"demo1/60CrowdFund.sol\":1122:1144  token = IERC20(_token) */\n  and\n  0x80\n  mstore\n    /* \"demo1/60CrowdFund.sol\":332:3974  contract CrowdFund {... */\n  jump(tag_7)\n    /* \"#utility.yul\":14:304   */\ntag_3:\n    /* \"#utility.yul\":84:90   */\n  0x00\n    /* \"#utility.yul\":137:139   */\n  0x20\n    /* \"#utility.yul\":125:134   */\n  dup3\n    /* \"#utility.yul\":116:123   */\n  dup5\n    /* \"#utility.yul\":112:135   */\n  sub\n    /* \"#utility.yul\":108:140   */\n  slt\n    /* \"#utility.yul\":105:157   */\n  iszero\n  tag_9\n  jumpi\n    /* \"#utility.yul\":153:154   */\n  0x00\n    /* \"#utility.yul\":150:151   */\n  dup1\n    /* \"#utility.yul\":143:155   */\n  revert\n    /* \"#utility.yul\":105:157   */\ntag_9:\n    /* \"#utility.yul\":179:195   */\n  dup2\n  mload\n  sub(shl(0xa0, 0x01), 0x01)\n    /* \"#utility.yul\":224:255   */\n  dup2\n  and\n    /* \"#utility.yul\":214:256   */\n  dup2\n  eq\n    /* \"#utility.yul\":204:274   */\n  tag_10\n  jumpi\n    /* \"#utility.yul\":270:271   */\n  0x00\n    /* \"#utility.yul\":267:268   */\n  dup1\n    /* \"#utility.yul\":260:272   */\n  revert\n    /* \"#utility.yul\":204:274   */\ntag_10:\n    /* \"#utility.yul\":293:298   */\n  swap4\n    /* \"#utility.yul\":14:304   */\n  swap3\n  pop\n  pop\n  pop\n  jump\t// out\ntag_7:\n    /* \"demo1/60CrowdFund.sol\":332:3974  contract CrowdFund {... */\n  mload(0x80)\n  codecopy(0x00, dataOffset(sub_0), dataSize(sub_0))\n  0x00\n  assignImmutable(\"0x5392f7a671cdf89487ccf8e3646ea8f7570009490584962db6fa064c6e4ad499\")\n  return(0x00, dataSize(sub_0))\nstop\n\nsub_0: assembly {\n        /* \"demo1/60CrowdFund.sol\":332:3974  contract CrowdFund {... */\n      mstore(0x40, 0x80)\n      callvalue\n      dup1\n      iszero\n      tag_1\n      jumpi\n      0x00\n      dup1\n      revert\n    tag_1:\n      pop\n      jumpi(tag_2, lt(calldatasize, 0x04))\n      shr(0xe0, calldataload(0x00))\n      dup1\n      0x40e58ee5\n      gt\n      tag_13\n      jumpi\n      dup1\n      0x40e58ee5\n      eq\n      tag_8\n      jumpi\n      dup1\n      0x711853ab\n      eq\n      tag_9\n      jumpi\n      dup1\n      0xaa4fb63a\n      eq\n      tag_10\n      jumpi\n      dup1\n      0xfc0c546a\n      eq\n      tag_11\n      jumpi\n      dup1\n      0xfde327be\n      eq\n      tag_12\n      jumpi\n      0x00\n      dup1\n      revert\n    tag_13:\n      dup1\n      0x06661abd\n      eq\n      tag_3\n      jumpi\n      dup1\n      0x141961bc\n      eq\n      tag_4\n      jumpi\n      dup1\n      0x278ecde1\n      eq\n      tag_5\n      jumpi\n      dup1\n      0x2c63f146\n      eq\n      tag_6\n      jumpi\n      dup1\n      0x379607f5\n      eq\n      tag_7\n      jumpi\n    tag_2:\n      0x00\n      dup1\n      revert\n        /* \"demo1/60CrowdFund.sol\":938:955  uint public count */\n    tag_3:\n      tag_14\n      sload(0x00)\n      dup2\n      jump\n    tag_14:\n      mload(0x40)\n        /* \"#utility.yul\":160:185   */\n      swap1\n      dup2\n      mstore\n        /* \"#utility.yul\":148:150   */\n      0x20\n        /* \"#utility.yul\":133:151   */\n      add\n        /* \"demo1/60CrowdFund.sol\":938:955  uint public count */\n    tag_16:\n      mload(0x40)\n      dup1\n      swap2\n      sub\n      swap1\n      return\n        /* \"demo1/60CrowdFund.sol\":962:1005  mapping (uint => Campaign) public campaigns */\n    tag_4:\n      tag_18\n      tag_19\n      calldatasize\n      0x04\n      tag_20\n      jump\t// in\n    tag_19:\n      0x01\n      0x20\n      dup2\n      swap1\n      mstore\n      0x00\n      swap2\n      dup3\n      mstore\n      0x40\n      swap1\n      swap2\n      keccak256\n      dup1\n      sload\n      swap2\n      dup2\n      add\n      sload\n      0x02\n      dup3\n      add\n      sload\n      0x03\n      swap1\n      swap3\n      add\n      sload\n      sub(shl(0xa0, 0x01), 0x01)\n      swap1\n      swap4\n      and\n      swap3\n      swap1\n      swap2\n      swap1\n      0xffffffff\n      dup1\n      dup3\n      and\n      swap2\n      shl(0x20, 0x01)\n      dup2\n      div\n      swap1\n      swap2\n      and\n      swap1\n      shl(0x40, 0x01)\n      swap1\n      div\n      0xff\n      and\n      dup7\n      jump\n    tag_18:\n      0x40\n      dup1\n      mload\n      sub(shl(0xa0, 0x01), 0x01)\n        /* \"#utility.yul\":676:708   */\n      swap1\n      swap8\n      and\n        /* \"#utility.yul\":658:709   */\n      dup8\n      mstore\n        /* \"#utility.yul\":740:742   */\n      0x20\n        /* \"#utility.yul\":725:743   */\n      dup8\n      add\n        /* \"#utility.yul\":718:752   */\n      swap6\n      swap1\n      swap6\n      mstore\n        /* \"#utility.yul\":768:786   */\n      swap4\n      dup6\n      add\n        /* \"#utility.yul\":761:795   */\n      swap3\n      swap1\n      swap3\n      mstore\n        /* \"#utility.yul\":814:824   */\n      0xffffffff\n        /* \"#utility.yul\":860:875   */\n      swap1\n      dup2\n      and\n        /* \"#utility.yul\":855:857   */\n      0x60\n        /* \"#utility.yul\":840:858   */\n      dup6\n      add\n        /* \"#utility.yul\":833:876   */\n      mstore\n        /* \"#utility.yul\":913:928   */\n      and\n        /* \"#utility.yul\":907:910   */\n      0x80\n        /* \"#utility.yul\":892:911   */\n      dup4\n      add\n        /* \"#utility.yul\":885:929   */\n      mstore\n        /* \"#utility.yul\":973:987   */\n      iszero\n        /* \"#utility.yul\":966:988   */\n      iszero\n        /* \"#utility.yul\":696:699   */\n      0xa0\n        /* \"#utility.yul\":945:964   */\n      dup3\n      add\n        /* \"#utility.yul\":938:989   */\n      mstore\n        /* \"#utility.yul\":645:648   */\n      0xc0\n        /* \"#utility.yul\":630:649   */\n      add\n        /* \"demo1/60CrowdFund.sol\":962:1005  mapping (uint => Campaign) public campaigns */\n      tag_16\n        /* \"#utility.yul\":381:995   */\n      jump\n        /* \"demo1/60CrowdFund.sol\":3552:3971  function refund(uint _id) external {... */\n    tag_5:\n      tag_24\n      tag_25\n      calldatasize\n      0x04\n      tag_20\n      jump\t// in\n    tag_25:\n      tag_26\n      jump\t// in\n    tag_24:\n      stop\n        /* \"demo1/60CrowdFund.sol\":1181:1835  function launch(uint _goal, uint32 _startOffset, uint32 _endOffset) external {... */\n    tag_6:\n      tag_24\n      tag_28\n      calldatasize\n      0x04\n      tag_29\n      jump\t// in\n    tag_28:\n      tag_30\n      jump\t// in\n        /* \"demo1/60CrowdFund.sol\":3062:3523  function claim(uint _id) external {... */\n    tag_7:\n      tag_24\n      tag_32\n      calldatasize\n      0x04\n      tag_20\n      jump\t// in\n    tag_32:\n      tag_33\n      jump\t// in\n        /* \"demo1/60CrowdFund.sol\":1864:2150  function cancel(uint _id) external {... */\n    tag_8:\n      tag_24\n      tag_35\n      calldatasize\n      0x04\n      tag_20\n      jump\t// in\n    tag_35:\n      tag_36\n      jump\t// in\n        /* \"demo1/60CrowdFund.sol\":2667:3031  function unpledge(uint _id, uint _amount) external {... */\n    tag_9:\n      tag_24\n      tag_38\n      calldatasize\n      0x04\n      tag_39\n      jump\t// in\n    tag_38:\n      tag_40\n      jump\t// in\n        /* \"demo1/60CrowdFund.sol\":1012:1074  mapping(uint => mapping(address => uint)) public pledgedAmount */\n    tag_10:\n      tag_14\n      tag_42\n      calldatasize\n      0x04\n      tag_43\n      jump\t// in\n    tag_42:\n      0x02\n      0x20\n      swap1\n      dup2\n      mstore\n      0x00\n      swap3\n      dup4\n      mstore\n      0x40\n      dup1\n      dup5\n      keccak256\n      swap1\n      swap2\n      mstore\n      swap1\n      dup3\n      mstore\n      swap1\n      keccak256\n      sload\n      dup2\n      jump\n        /* \"demo1/60CrowdFund.sol\":902:931  IERC20 public immutable token */\n    tag_11:\n      tag_46\n      immutable(\"0x5392f7a671cdf89487ccf8e3646ea8f7570009490584962db6fa064c6e4ad499\")\n      dup2\n      jump\n    tag_46:\n      mload(0x40)\n      sub(shl(0xa0, 0x01), 0x01)\n        /* \"#utility.yul\":2286:2318   */\n      swap1\n      swap2\n      and\n        /* \"#utility.yul\":2268:2319   */\n      dup2\n      mstore\n        /* \"#utility.yul\":2256:2258   */\n      0x20\n        /* \"#utility.yul\":2241:2259   */\n      add\n        /* \"demo1/60CrowdFund.sol\":902:931  IERC20 public immutable token */\n      tag_16\n        /* \"#utility.yul\":2109:2325   */\n      jump\n        /* \"demo1/60CrowdFund.sol\":2179:2638  function pledge(uint _id, uint _amount) external {... */\n    tag_12:\n      tag_24\n      tag_51\n      calldatasize\n      0x04\n      tag_39\n      jump\t// in\n    tag_51:\n      tag_52\n      jump\t// in\n        /* \"demo1/60CrowdFund.sol\":3552:3971  function refund(uint _id) external {... */\n    tag_26:\n        /* \"demo1/60CrowdFund.sol\":3598:3623  Campaign storage campaign */\n      0x00\n        /* \"demo1/60CrowdFund.sol\":3626:3640  campaigns[_id] */\n      dup2\n      dup2\n      mstore\n        /* \"demo1/60CrowdFund.sol\":3626:3635  campaigns */\n      0x01\n        /* \"demo1/60CrowdFund.sol\":3626:3640  campaigns[_id] */\n      0x20\n      mstore\n      0x40\n      swap1\n      keccak256\n        /* \"demo1/60CrowdFund.sol\":3677:3691  campaign.endAt */\n      0x03\n      dup2\n      add\n      sload\n      shl(0x20, 0x01)\n      swap1\n      div\n      0xffffffff\n      and\n        /* \"demo1/60CrowdFund.sol\":3659:3674  block.timestamp */\n      timestamp\n        /* \"demo1/60CrowdFund.sol\":3659:3691  block.timestamp > campaign.endAt */\n      gt\n        /* \"demo1/60CrowdFund.sol\":3651:3705  require(block.timestamp > campaign.endAt, \"not ended\") */\n      tag_54\n      jumpi\n      mload(0x40)\n      shl(0xe5, 0x461bcd)\n      dup2\n      mstore\n        /* \"#utility.yul\":2532:2534   */\n      0x20\n        /* \"demo1/60CrowdFund.sol\":3651:3705  require(block.timestamp > campaign.endAt, \"not ended\") */\n      0x04\n      dup3\n      add\n        /* \"#utility.yul\":2514:2535   */\n      mstore\n        /* \"#utility.yul\":2571:2572   */\n      0x09\n        /* \"#utility.yul\":2551:2569   */\n      0x24\n      dup3\n      add\n        /* \"#utility.yul\":2544:2573   */\n      mstore\n      shl(0xba, 0x1b9bdd08195b991959)\n        /* \"#utility.yul\":2589:2607   */\n      0x44\n      dup3\n      add\n        /* \"#utility.yul\":2582:2621   */\n      mstore\n        /* \"#utility.yul\":2638:2656   */\n      0x64\n      add\n        /* \"demo1/60CrowdFund.sol\":3651:3705  require(block.timestamp > campaign.endAt, \"not ended\") */\n    tag_55:\n      mload(0x40)\n      dup1\n      swap2\n      sub\n      swap1\n      revert\n    tag_54:\n        /* \"demo1/60CrowdFund.sol\":3743:3751  campaign */\n      dup1\n        /* \"demo1/60CrowdFund.sol\":3743:3756  campaign.goal */\n      0x01\n      add\n      sload\n        /* \"demo1/60CrowdFund.sol\":3724:3732  campaign */\n      dup2\n        /* \"demo1/60CrowdFund.sol\":3724:3740  campaign.pledged */\n      0x02\n      add\n      sload\n        /* \"demo1/60CrowdFund.sol\":3724:3756  campaign.pledged < campaign.goal */\n      lt\n        /* \"demo1/60CrowdFund.sol\":3716:3776  require(campaign.pledged < campaign.goal, \"pledged >= goal\") */\n      tag_57\n      jumpi\n      mload(0x40)\n      shl(0xe5, 0x461bcd)\n      dup2\n      mstore\n        /* \"#utility.yul\":2869:2871   */\n      0x20\n        /* \"demo1/60CrowdFund.sol\":3716:3776  require(campaign.pledged < campaign.goal, \"pledged >= goal\") */\n      0x04\n      dup3\n      add\n        /* \"#utility.yul\":2851:2872   */\n      mstore\n        /* \"#utility.yul\":2908:2910   */\n      0x0f\n        /* \"#utility.yul\":2888:2906   */\n      0x24\n      dup3\n      add\n        /* \"#utility.yul\":2881:2911   */\n      mstore\n      shl(0x8a, 0x1c1b195919d959080f8f4819dbd85b)\n        /* \"#utility.yul\":2927:2945   */\n      0x44\n      dup3\n      add\n        /* \"#utility.yul\":2920:2965   */\n      mstore\n        /* \"#utility.yul\":2982:3000   */\n      0x64\n      add\n        /* \"demo1/60CrowdFund.sol\":3716:3776  require(campaign.pledged < campaign.goal, \"pledged >= goal\") */\n      tag_55\n        /* \"#utility.yul\":2667:3006   */\n      jump\n        /* \"demo1/60CrowdFund.sol\":3716:3776  require(campaign.pledged < campaign.goal, \"pledged >= goal\") */\n    tag_57:\n        /* \"demo1/60CrowdFund.sol\":3789:3797  uint bal */\n      0x00\n        /* \"demo1/60CrowdFund.sol\":3800:3818  pledgedAmount[_id] */\n      dup3\n      dup2\n      mstore\n        /* \"demo1/60CrowdFund.sol\":3800:3813  pledgedAmount */\n      0x02\n        /* \"demo1/60CrowdFund.sol\":3800:3818  pledgedAmount[_id] */\n      0x20\n      swap1\n      dup2\n      mstore\n      0x40\n      dup1\n      dup4\n      keccak256\n        /* \"demo1/60CrowdFund.sol\":3819:3829  msg.sender */\n      caller\n        /* \"demo1/60CrowdFund.sol\":3800:3830  pledgedAmount[_id][msg.sender] */\n      dup1\n      dup6\n      mstore\n      swap3\n      mstore\n      dup1\n      dup4\n      keccak256\n      dup1\n      sload\n        /* \"demo1/60CrowdFund.sol\":3841:3875  pledgedAmount[_id][msg.sender] = 0 */\n      swap4\n      swap1\n      sstore\n        /* \"demo1/60CrowdFund.sol\":3886:3917  token.transfer(msg.sender, bal) */\n      mload\n      shl(0xe0, 0xa9059cbb)\n      dup2\n      mstore\n      0x04\n      dup2\n      add\n        /* \"#utility.yul\":3185:3236   */\n      swap2\n      swap1\n      swap2\n      mstore\n        /* \"#utility.yul\":3252:3270   */\n      0x24\n      dup2\n      add\n        /* \"#utility.yul\":3245:3279   */\n      dup3\n      swap1\n      mstore\n      sub(shl(0xa0, 0x01), 0x01)\n        /* \"demo1/60CrowdFund.sol\":3886:3891  token */\n      immutable(\"0x5392f7a671cdf89487ccf8e3646ea8f7570009490584962db6fa064c6e4ad499\")\n        /* \"demo1/60CrowdFund.sol\":3886:3900  token.transfer */\n      and\n      swap1\n      0xa9059cbb\n      swap1\n        /* \"#utility.yul\":3158:3176   */\n      0x44\n      add\n        /* \"demo1/60CrowdFund.sol\":3886:3917  token.transfer(msg.sender, bal) */\n      0x20\n      mload(0x40)\n      dup1\n      dup4\n      sub\n      dup2\n      0x00\n      dup8\n      gas\n      call\n      iszero\n      dup1\n      iszero\n      tag_63\n      jumpi\n      returndatasize\n      0x00\n      dup1\n      returndatacopy\n      revert(0x00, returndatasize)\n    tag_63:\n      pop\n      pop\n      pop\n      pop\n      mload(0x40)\n      returndatasize\n      not(0x1f)\n      0x1f\n      dup3\n      add\n      and\n      dup3\n      add\n      dup1\n      0x40\n      mstore\n      pop\n      dup2\n      add\n      swap1\n      tag_64\n      swap2\n      swap1\n      tag_65\n      jump\t// in\n    tag_64:\n      pop\n        /* \"demo1/60CrowdFund.sol\":3935:3963  Refund(_id, msg.sender, bal) */\n      mload(0x40)\n        /* \"#utility.yul\":160:185   */\n      dup2\n      dup2\n      mstore\n        /* \"demo1/60CrowdFund.sol\":3947:3957  msg.sender */\n      caller\n      swap1\n        /* \"demo1/60CrowdFund.sol\":3942:3945  _id */\n      dup5\n      swap1\n        /* \"demo1/60CrowdFund.sol\":3935:3963  Refund(_id, msg.sender, bal) */\n      0x21e12a7cad0da5928167e1084ea4d5fdf8d9af66657a2543a9ac76a0ca081477\n      swap1\n        /* \"#utility.yul\":148:150   */\n      0x20\n        /* \"#utility.yul\":133:151   */\n      add\n        /* \"demo1/60CrowdFund.sol\":3935:3963  Refund(_id, msg.sender, bal) */\n    tag_66:\n      mload(0x40)\n      dup1\n      swap2\n      sub\n      swap1\n      log3\n        /* \"demo1/60CrowdFund.sol\":3587:3971  {... */\n      pop\n      pop\n        /* \"demo1/60CrowdFund.sol\":3552:3971  function refund(uint _id) external {... */\n      pop\n      jump\t// out\n        /* \"demo1/60CrowdFund.sol\":1181:1835  function launch(uint _goal, uint32 _startOffset, uint32 _endOffset) external {... */\n    tag_30:\n        /* \"demo1/60CrowdFund.sol\":1290:1302  _startOffset */\n      dup2\n        /* \"demo1/60CrowdFund.sol\":1277:1302  _endOffset > _startOffset */\n      0xffffffff\n      and\n        /* \"demo1/60CrowdFund.sol\":1277:1287  _endOffset */\n      dup2\n        /* \"demo1/60CrowdFund.sol\":1277:1302  _endOffset > _startOffset */\n      0xffffffff\n      and\n      gt\n        /* \"demo1/60CrowdFund.sol\":1269:1323  require(_endOffset > _startOffset, \"endAt <= startAt\") */\n      tag_68\n      jumpi\n      mload(0x40)\n      shl(0xe5, 0x461bcd)\n      dup2\n      mstore\n        /* \"#utility.yul\":3774:3776   */\n      0x20\n        /* \"demo1/60CrowdFund.sol\":1269:1323  require(_endOffset > _startOffset, \"endAt <= startAt\") */\n      0x04\n      dup3\n      add\n        /* \"#utility.yul\":3756:3777   */\n      mstore\n        /* \"#utility.yul\":3813:3815   */\n      0x10\n        /* \"#utility.yul\":3793:3811   */\n      0x24\n      dup3\n      add\n        /* \"#utility.yul\":3786:3816   */\n      mstore\n      shl(0x82, 0x195b99105d080f0f481cdd185c9d105d)\n        /* \"#utility.yul\":3832:3850   */\n      0x44\n      dup3\n      add\n        /* \"#utility.yul\":3825:3871   */\n      mstore\n        /* \"#utility.yul\":3888:3906   */\n      0x64\n      add\n        /* \"demo1/60CrowdFund.sol\":1269:1323  require(_endOffset > _startOffset, \"endAt <= startAt\") */\n      tag_55\n        /* \"#utility.yul\":3572:3912   */\n      jump\n        /* \"demo1/60CrowdFund.sol\":1269:1323  require(_endOffset > _startOffset, \"endAt <= startAt\") */\n    tag_68:\n        /* \"demo1/60CrowdFund.sol\":1356:1363  30 days */\n      0x278d00\n        /* \"demo1/60CrowdFund.sol\":1342:1352  _endOffset */\n      dup2\n        /* \"demo1/60CrowdFund.sol\":1342:1363  _endOffset <= 30 days */\n      0xffffffff\n      and\n      gt\n      iszero\n        /* \"demo1/60CrowdFund.sol\":1334:1381  require(_endOffset <= 30 days, \"end > 30 days\") */\n      tag_71\n      jumpi\n      mload(0x40)\n      shl(0xe5, 0x461bcd)\n      dup2\n      mstore\n        /* \"#utility.yul\":4119:4121   */\n      0x20\n        /* \"demo1/60CrowdFund.sol\":1334:1381  require(_endOffset <= 30 days, \"end > 30 days\") */\n      0x04\n      dup3\n      add\n        /* \"#utility.yul\":4101:4122   */\n      mstore\n        /* \"#utility.yul\":4158:4160   */\n      0x0d\n        /* \"#utility.yul\":4138:4156   */\n      0x24\n      dup3\n      add\n        /* \"#utility.yul\":4131:4161   */\n      mstore\n      shl(0x98, 0x656e64203e2033302064617973)\n        /* \"#utility.yul\":4177:4195   */\n      0x44\n      dup3\n      add\n        /* \"#utility.yul\":4170:4213   */\n      mstore\n        /* \"#utility.yul\":4230:4248   */\n      0x64\n      add\n        /* \"demo1/60CrowdFund.sol\":1334:1381  require(_endOffset <= 30 days, \"end > 30 days\") */\n      tag_55\n        /* \"#utility.yul\":3917:4254   */\n      jump\n        /* \"demo1/60CrowdFund.sol\":1334:1381  require(_endOffset <= 30 days, \"end > 30 days\") */\n    tag_71:\n        /* \"demo1/60CrowdFund.sol\":1394:1409  uint32 _startAt */\n      0x00\n        /* \"demo1/60CrowdFund.sol\":1412:1450  uint32(block.timestamp) + _startOffset */\n      tag_74\n        /* \"demo1/60CrowdFund.sol\":1438:1450  _startOffset */\n      dup4\n        /* \"demo1/60CrowdFund.sol\":1419:1434  block.timestamp */\n      timestamp\n        /* \"demo1/60CrowdFund.sol\":1412:1450  uint32(block.timestamp) + _startOffset */\n      tag_75\n      jump\t// in\n    tag_74:\n        /* \"demo1/60CrowdFund.sol\":1394:1450  uint32 _startAt = uint32(block.timestamp) + _startOffset */\n      swap1\n      pop\n        /* \"demo1/60CrowdFund.sol\":1461:1474  uint32 _endAt */\n      0x00\n        /* \"demo1/60CrowdFund.sol\":1477:1513  uint32(block.timestamp) + _endOffset */\n      tag_76\n        /* \"demo1/60CrowdFund.sol\":1503:1513  _endOffset */\n      dup4\n        /* \"demo1/60CrowdFund.sol\":1484:1499  block.timestamp */\n      timestamp\n        /* \"demo1/60CrowdFund.sol\":1477:1513  uint32(block.timestamp) + _endOffset */\n      tag_75\n      jump\t// in\n    tag_76:\n        /* \"demo1/60CrowdFund.sol\":1461:1513  uint32 _endAt = uint32(block.timestamp) + _endOffset */\n      swap1\n      pop\n        /* \"demo1/60CrowdFund.sol\":1535:1536  1 */\n      0x01\n        /* \"demo1/60CrowdFund.sol\":1526:1531  count */\n      0x00\n      dup1\n        /* \"demo1/60CrowdFund.sol\":1526:1536  count += 1 */\n      dup3\n      dup3\n      sload\n      tag_77\n      swap2\n      swap1\n      tag_78\n      jump\t// in\n    tag_77:\n      swap1\n      swap2\n      sstore\n      pop\n      pop\n        /* \"demo1/60CrowdFund.sol\":1566:1761  Campaign({... */\n      0x40\n      dup1\n      mload\n      0xc0\n      dup2\n      add\n      dup3\n      mstore\n        /* \"demo1/60CrowdFund.sol\":1599:1609  msg.sender */\n      caller\n        /* \"demo1/60CrowdFund.sol\":1566:1761  Campaign({... */\n      dup1\n      dup3\n      mstore\n      0x20\n      dup1\n      dup4\n      add\n      dup10\n      dup2\n      mstore\n      0x00\n      dup5\n      dup7\n      add\n      dup2\n      dup2\n      mstore\n      0xffffffff\n      dup10\n      dup2\n      and\n      0x60\n      dup1\n      dup10\n      add\n      dup3\n      dup2\n      mstore\n      dup12\n      dup5\n      and\n      0x80\n      dup1\n      dup13\n      add\n      dup3\n      dup2\n      mstore\n      0xa0\n      dup14\n      add\n      dup10\n      dup2\n      mstore\n        /* \"demo1/60CrowdFund.sol\":1557:1562  count */\n      dup10\n      sload\n        /* \"demo1/60CrowdFund.sol\":1547:1563  campaigns[count] */\n      dup11\n      mstore\n        /* \"demo1/60CrowdFund.sol\":1566:1761  Campaign({... */\n      0x01\n        /* \"demo1/60CrowdFund.sol\":1547:1563  campaigns[count] */\n      dup1\n      dup14\n      mstore\n      dup16\n      dup12\n      keccak256\n        /* \"demo1/60CrowdFund.sol\":1547:1761  campaigns[count] = Campaign({... */\n      swap15\n      mload\n      dup16\n      sload\n      not(sub(shl(0xa0, 0x01), 0x01))\n      and\n      sub(shl(0xa0, 0x01), 0x01)\n      swap1\n      swap2\n      and\n      or\n      dup16\n      sstore\n      swap11\n      mload\n      swap11\n      dup15\n      add\n      swap11\n      swap1\n      swap11\n      sstore\n      swap7\n      mload\n      0x02\n      dup14\n      add\n      sstore\n      swap2\n      mload\n      0x03\n      swap1\n      swap12\n      add\n      dup1\n      sload\n      swap7\n      mload\n      swap9\n      mload\n      swap12\n      dup7\n      and\n      not(0xffffffffffffffff)\n      swap1\n      swap8\n      and\n      swap7\n      swap1\n      swap7\n      or\n      shl(0x20, 0x01)\n      swap9\n      swap1\n      swap6\n      and\n      swap8\n      swap1\n      swap8\n      mul\n      swap4\n      swap1\n      swap4\n      or\n      not(shl(0x40, 0xff))\n      and\n      shl(0x40, 0x01)\n      swap10\n      iszero\n      iszero\n      swap10\n      swap1\n      swap10\n      mul\n      swap9\n      swap1\n      swap9\n      or\n      swap1\n      swap3\n      sstore\n        /* \"demo1/60CrowdFund.sol\":1784:1789  count */\n      swap2\n      sload\n        /* \"demo1/60CrowdFund.sol\":1777:1827  Launch(count, msg.sender, _goal, _startAt, _endAt) */\n      dup8\n      mload\n        /* \"#utility.yul\":4925:4950   */\n      swap1\n      dup2\n      mstore\n        /* \"#utility.yul\":4966:4984   */\n      swap4\n      dup5\n      add\n        /* \"#utility.yul\":4959:4993   */\n      dup13\n      swap1\n      mstore\n        /* \"#utility.yul\":5038:5056   */\n      dup4\n      dup8\n      add\n        /* \"#utility.yul\":5031:5074   */\n      mstore\n        /* \"#utility.yul\":5090:5108   */\n      swap4\n      dup3\n      add\n        /* \"#utility.yul\":5083:5126   */\n      mstore\n        /* \"demo1/60CrowdFund.sol\":1777:1827  Launch(count, msg.sender, _goal, _startAt, _endAt) */\n      swap3\n      mload\n        /* \"demo1/60CrowdFund.sol\":1599:1609  msg.sender */\n      swap1\n      swap3\n        /* \"demo1/60CrowdFund.sol\":1777:1827  Launch(count, msg.sender, _goal, _startAt, _endAt) */\n      0x0601cd0d650b473037e838a2696d41e654433d065b3f56b28d1d3302e44a304f\n      swap3\n      swap1\n      dup3\n      swap1\n      sub\n      add\n      swap1\n      log2\n        /* \"demo1/60CrowdFund.sol\":1258:1835  {... */\n      pop\n      pop\n        /* \"demo1/60CrowdFund.sol\":1181:1835  function launch(uint _goal, uint32 _startOffset, uint32 _endOffset) external {... */\n      pop\n      pop\n      pop\n      jump\t// out\n        /* \"demo1/60CrowdFund.sol\":3062:3523  function claim(uint _id) external {... */\n    tag_33:\n        /* \"demo1/60CrowdFund.sol\":3107:3132  Campaign storage campaign */\n      0x00\n        /* \"demo1/60CrowdFund.sol\":3135:3149  campaigns[_id] */\n      dup2\n      dup2\n      mstore\n        /* \"demo1/60CrowdFund.sol\":3135:3144  campaigns */\n      0x01\n        /* \"demo1/60CrowdFund.sol\":3135:3149  campaigns[_id] */\n      0x20\n      mstore\n      0x40\n      swap1\n      keccak256\n        /* \"demo1/60CrowdFund.sol\":3182:3198  campaign.creator */\n      dup1\n      sload\n      sub(shl(0xa0, 0x01), 0x01)\n      and\n        /* \"demo1/60CrowdFund.sol\":3168:3178  msg.sender */\n      caller\n        /* \"demo1/60CrowdFund.sol\":3168:3198  msg.sender == campaign.creator */\n      eq\n        /* \"demo1/60CrowdFund.sol\":3160:3214  require(msg.sender == campaign.creator, \"not creator\") */\n      tag_82\n      jumpi\n      mload(0x40)\n      shl(0xe5, 0x461bcd)\n      dup2\n      mstore\n        /* \"#utility.yul\":5339:5341   */\n      0x20\n        /* \"demo1/60CrowdFund.sol\":3160:3214  require(msg.sender == campaign.creator, \"not creator\") */\n      0x04\n      dup3\n      add\n        /* \"#utility.yul\":5321:5342   */\n      mstore\n        /* \"#utility.yul\":5378:5380   */\n      0x0b\n        /* \"#utility.yul\":5358:5376   */\n      0x24\n      dup3\n      add\n        /* \"#utility.yul\":5351:5381   */\n      mstore\n      shl(0xa9, 0x3737ba1031b932b0ba37b9)\n        /* \"#utility.yul\":5397:5415   */\n      0x44\n      dup3\n      add\n        /* \"#utility.yul\":5390:5431   */\n      mstore\n        /* \"#utility.yul\":5448:5466   */\n      0x64\n      add\n        /* \"demo1/60CrowdFund.sol\":3160:3214  require(msg.sender == campaign.creator, \"not creator\") */\n      tag_55\n        /* \"#utility.yul\":5137:5472   */\n      jump\n        /* \"demo1/60CrowdFund.sol\":3160:3214  require(msg.sender == campaign.creator, \"not creator\") */\n    tag_82:\n        /* \"demo1/60CrowdFund.sol\":3251:3265  campaign.endAt */\n      0x03\n      dup2\n      add\n      sload\n      shl(0x20, 0x01)\n      swap1\n      div\n      0xffffffff\n      and\n        /* \"demo1/60CrowdFund.sol\":3233:3248  block.timestamp */\n      timestamp\n        /* \"demo1/60CrowdFund.sol\":3233:3265  block.timestamp > campaign.endAt */\n      gt\n        /* \"demo1/60CrowdFund.sol\":3225:3279  require(block.timestamp > campaign.endAt, \"not ended\") */\n      tag_85\n      jumpi\n      mload(0x40)\n      shl(0xe5, 0x461bcd)\n      dup2\n      mstore\n        /* \"#utility.yul\":2532:2534   */\n      0x20\n        /* \"demo1/60CrowdFund.sol\":3225:3279  require(block.timestamp > campaign.endAt, \"not ended\") */\n      0x04\n      dup3\n      add\n        /* \"#utility.yul\":2514:2535   */\n      mstore\n        /* \"#utility.yul\":2571:2572   */\n      0x09\n        /* \"#utility.yul\":2551:2569   */\n      0x24\n      dup3\n      add\n        /* \"#utility.yul\":2544:2573   */\n      mstore\n      shl(0xba, 0x1b9bdd08195b991959)\n        /* \"#utility.yul\":2589:2607   */\n      0x44\n      dup3\n      add\n        /* \"#utility.yul\":2582:2621   */\n      mstore\n        /* \"#utility.yul\":2638:2656   */\n      0x64\n      add\n        /* \"demo1/60CrowdFund.sol\":3225:3279  require(block.timestamp > campaign.endAt, \"not ended\") */\n      tag_55\n        /* \"#utility.yul\":2330:2662   */\n      jump\n        /* \"demo1/60CrowdFund.sol\":3225:3279  require(block.timestamp > campaign.endAt, \"not ended\") */\n    tag_85:\n        /* \"demo1/60CrowdFund.sol\":3318:3326  campaign */\n      dup1\n        /* \"demo1/60CrowdFund.sol\":3318:3331  campaign.goal */\n      0x01\n      add\n      sload\n        /* \"demo1/60CrowdFund.sol\":3298:3306  campaign */\n      dup2\n        /* \"demo1/60CrowdFund.sol\":3298:3314  campaign.pledged */\n      0x02\n      add\n      sload\n        /* \"demo1/60CrowdFund.sol\":3298:3331  campaign.pledged >= campaign.goal */\n      lt\n      iszero\n        /* \"demo1/60CrowdFund.sol\":3290:3350  require(campaign.pledged >= campaign.goal, \"pledged < goal\") */\n      tag_87\n      jumpi\n      mload(0x40)\n      shl(0xe5, 0x461bcd)\n      dup2\n      mstore\n        /* \"#utility.yul\":5679:5681   */\n      0x20\n        /* \"demo1/60CrowdFund.sol\":3290:3350  require(campaign.pledged >= campaign.goal, \"pledged < goal\") */\n      0x04\n      dup3\n      add\n        /* \"#utility.yul\":5661:5682   */\n      mstore\n        /* \"#utility.yul\":5718:5720   */\n      0x0e\n        /* \"#utility.yul\":5698:5716   */\n      0x24\n      dup3\n      add\n        /* \"#utility.yul\":5691:5721   */\n      mstore\n      shl(0x92, 0x1c1b195919d959080f0819dbd85b)\n        /* \"#utility.yul\":5737:5755   */\n      0x44\n      dup3\n      add\n        /* \"#utility.yul\":5730:5774   */\n      mstore\n        /* \"#utility.yul\":5791:5809   */\n      0x64\n      add\n        /* \"demo1/60CrowdFund.sol\":3290:3350  require(campaign.pledged >= campaign.goal, \"pledged < goal\") */\n      tag_55\n        /* \"#utility.yul\":5477:5815   */\n      jump\n        /* \"demo1/60CrowdFund.sol\":3290:3350  require(campaign.pledged >= campaign.goal, \"pledged < goal\") */\n    tag_87:\n        /* \"demo1/60CrowdFund.sol\":3370:3386  campaign.claimed */\n      0x03\n      dup2\n      add\n      sload\n      shl(0x40, 0x01)\n      swap1\n      div\n      0xff\n      and\n        /* \"demo1/60CrowdFund.sol\":3369:3386  !campaign.claimed */\n      iszero\n        /* \"demo1/60CrowdFund.sol\":3361:3398  require(!campaign.claimed, \"claimed\") */\n      tag_90\n      jumpi\n      mload(0x40)\n      shl(0xe5, 0x461bcd)\n      dup2\n      mstore\n        /* \"#utility.yul\":6022:6024   */\n      0x20\n        /* \"demo1/60CrowdFund.sol\":3361:3398  require(!campaign.claimed, \"claimed\") */\n      0x04\n      dup3\n      add\n        /* \"#utility.yul\":6004:6025   */\n      mstore\n        /* \"#utility.yul\":6061:6062   */\n      0x07\n        /* \"#utility.yul\":6041:6059   */\n      0x24\n      dup3\n      add\n        /* \"#utility.yul\":6034:6063   */\n      mstore\n      shl(0xca, 0x18db185a5b5959)\n        /* \"#utility.yul\":6079:6097   */\n      0x44\n      dup3\n      add\n        /* \"#utility.yul\":6072:6109   */\n      mstore\n        /* \"#utility.yul\":6126:6144   */\n      0x64\n      add\n        /* \"demo1/60CrowdFund.sol\":3361:3398  require(!campaign.claimed, \"claimed\") */\n      tag_55\n        /* \"#utility.yul\":5820:6150   */\n      jump\n        /* \"demo1/60CrowdFund.sol\":3361:3398  require(!campaign.claimed, \"claimed\") */\n    tag_90:\n        /* \"demo1/60CrowdFund.sol\":3409:3425  campaign.claimed */\n      0x03\n      dup2\n      add\n        /* \"demo1/60CrowdFund.sol\":3409:3432  campaign.claimed = true */\n      dup1\n      sload\n      not(shl(0x40, 0xff))\n      and\n      shl(0x40, 0x01)\n      or\n      swap1\n      sstore\n        /* \"demo1/60CrowdFund.sol\":3472:3488  campaign.pledged */\n      0x02\n      dup2\n      add\n      sload\n        /* \"demo1/60CrowdFund.sol\":3445:3489  token.transfer(msg.sender, campaign.pledged) */\n      mload(0x40)\n      shl(0xe0, 0xa9059cbb)\n      dup2\n      mstore\n        /* \"demo1/60CrowdFund.sol\":3460:3470  msg.sender */\n      caller\n        /* \"demo1/60CrowdFund.sol\":3445:3489  token.transfer(msg.sender, campaign.pledged) */\n      0x04\n      dup3\n      add\n        /* \"#utility.yul\":3185:3236   */\n      mstore\n        /* \"#utility.yul\":3252:3270   */\n      0x24\n      dup2\n      add\n        /* \"#utility.yul\":3245:3279   */\n      swap2\n      swap1\n      swap2\n      mstore\n      sub(shl(0xa0, 0x01), 0x01)\n        /* \"demo1/60CrowdFund.sol\":3445:3450  token */\n      immutable(\"0x5392f7a671cdf89487ccf8e3646ea8f7570009490584962db6fa064c6e4ad499\")\n        /* \"demo1/60CrowdFund.sol\":3445:3459  token.transfer */\n      and\n      swap1\n      0xa9059cbb\n      swap1\n        /* \"#utility.yul\":3158:3176   */\n      0x44\n      add\n        /* \"demo1/60CrowdFund.sol\":3445:3489  token.transfer(msg.sender, campaign.pledged) */\n      0x20\n      mload(0x40)\n      dup1\n      dup4\n      sub\n      dup2\n      0x00\n      dup8\n      gas\n      call\n      iszero\n      dup1\n      iszero\n      tag_95\n      jumpi\n      returndatasize\n      0x00\n      dup1\n      returndatacopy\n      revert(0x00, returndatasize)\n    tag_95:\n      pop\n      pop\n      pop\n      pop\n      mload(0x40)\n      returndatasize\n      not(0x1f)\n      0x1f\n      dup3\n      add\n      and\n      dup3\n      add\n      dup1\n      0x40\n      mstore\n      pop\n      dup2\n      add\n      swap1\n      tag_96\n      swap2\n      swap1\n      tag_65\n      jump\t// in\n    tag_96:\n      pop\n        /* \"demo1/60CrowdFund.sol\":3505:3515  Claim(_id) */\n      mload(0x40)\n        /* \"#utility.yul\":160:185   */\n      dup3\n      dup2\n      mstore\n        /* \"demo1/60CrowdFund.sol\":3505:3515  Claim(_id) */\n      0x7bb2b3c10797baccb6f8c4791f1edd6ca2f0d028ee0eda64b01a9a57e3a653f7\n      swap1\n        /* \"#utility.yul\":148:150   */\n      0x20\n        /* \"#utility.yul\":133:151   */\n      add\n        /* \"demo1/60CrowdFund.sol\":3505:3515  Claim(_id) */\n    tag_97:\n      mload(0x40)\n      dup1\n      swap2\n      sub\n      swap1\n      log1\n        /* \"demo1/60CrowdFund.sol\":3096:3523  {... */\n      pop\n        /* \"demo1/60CrowdFund.sol\":3062:3523  function claim(uint _id) external {... */\n      pop\n      jump\t// out\n        /* \"demo1/60CrowdFund.sol\":1864:2150  function cancel(uint _id) external {... */\n    tag_36:\n        /* \"demo1/60CrowdFund.sol\":1910:1934  Campaign memory campaign */\n      0x00\n        /* \"demo1/60CrowdFund.sol\":1937:1951  campaigns[_id] */\n      dup2\n      dup2\n      mstore\n        /* \"demo1/60CrowdFund.sol\":1937:1946  campaigns */\n      0x01\n        /* \"demo1/60CrowdFund.sol\":1937:1951  campaigns[_id] */\n      0x20\n      dup2\n      dup2\n      mstore\n      0x40\n      swap3\n      dup4\n      swap1\n      keccak256\n        /* \"demo1/60CrowdFund.sol\":1910:1951  Campaign memory campaign = campaigns[_id] */\n      dup4\n      mload\n      0xc0\n      dup2\n      add\n      dup6\n      mstore\n      dup2\n      sload\n      sub(shl(0xa0, 0x01), 0x01)\n      and\n      dup1\n      dup3\n      mstore\n      swap4\n      dup3\n      add\n      sload\n      swap3\n      dup2\n      add\n      swap3\n      swap1\n      swap3\n      mstore\n      0x02\n      dup2\n      add\n      sload\n      swap4\n      dup3\n      add\n      swap4\n      swap1\n      swap4\n      mstore\n      0x03\n      swap1\n      swap3\n      add\n      sload\n      0xffffffff\n      dup1\n      dup3\n      and\n      0x60\n      dup6\n      add\n      mstore\n      shl(0x20, 0x01)\n      dup3\n      div\n      and\n      0x80\n      dup5\n      add\n      mstore\n      shl(0x40, 0x01)\n      swap1\n      div\n      0xff\n      and\n      iszero\n      iszero\n      0xa0\n      dup4\n      add\n      mstore\n        /* \"demo1/60CrowdFund.sol\":1970:1980  msg.sender */\n      caller\n        /* \"demo1/60CrowdFund.sol\":1970:2000  msg.sender == campaign.creator */\n      eq\n        /* \"demo1/60CrowdFund.sol\":1962:2016  require(msg.sender == campaign.creator, \"not creator\") */\n      tag_99\n      jumpi\n      mload(0x40)\n      shl(0xe5, 0x461bcd)\n      dup2\n      mstore\n        /* \"#utility.yul\":5339:5341   */\n      0x20\n        /* \"demo1/60CrowdFund.sol\":1962:2016  require(msg.sender == campaign.creator, \"not creator\") */\n      0x04\n      dup3\n      add\n        /* \"#utility.yul\":5321:5342   */\n      mstore\n        /* \"#utility.yul\":5378:5380   */\n      0x0b\n        /* \"#utility.yul\":5358:5376   */\n      0x24\n      dup3\n      add\n        /* \"#utility.yul\":5351:5381   */\n      mstore\n      shl(0xa9, 0x3737ba1031b932b0ba37b9)\n        /* \"#utility.yul\":5397:5415   */\n      0x44\n      dup3\n      add\n        /* \"#utility.yul\":5390:5431   */\n      mstore\n        /* \"#utility.yul\":5448:5466   */\n      0x64\n      add\n        /* \"demo1/60CrowdFund.sol\":1962:2016  require(msg.sender == campaign.creator, \"not creator\") */\n      tag_55\n        /* \"#utility.yul\":5137:5472   */\n      jump\n        /* \"demo1/60CrowdFund.sol\":1962:2016  require(msg.sender == campaign.creator, \"not creator\") */\n    tag_99:\n        /* \"demo1/60CrowdFund.sol\":2053:2061  campaign */\n      dup1\n        /* \"demo1/60CrowdFund.sol\":2053:2069  campaign.startAt */\n      0x60\n      add\n      mload\n        /* \"demo1/60CrowdFund.sol\":2035:2069  block.timestamp < campaign.startAt */\n      0xffffffff\n      and\n        /* \"demo1/60CrowdFund.sol\":2035:2050  block.timestamp */\n      timestamp\n        /* \"demo1/60CrowdFund.sol\":2035:2069  block.timestamp < campaign.startAt */\n      lt\n        /* \"demo1/60CrowdFund.sol\":2027:2081  require(block.timestamp < campaign.startAt, \"started\") */\n      tag_101\n      jumpi\n      mload(0x40)\n      shl(0xe5, 0x461bcd)\n      dup2\n      mstore\n        /* \"#utility.yul\":6357:6359   */\n      0x20\n        /* \"demo1/60CrowdFund.sol\":2027:2081  require(block.timestamp < campaign.startAt, \"started\") */\n      0x04\n      dup3\n      add\n        /* \"#utility.yul\":6339:6360   */\n      mstore\n        /* \"#utility.yul\":6396:6397   */\n      0x07\n        /* \"#utility.yul\":6376:6394   */\n      0x24\n      dup3\n      add\n        /* \"#utility.yul\":6369:6398   */\n      mstore\n      shl(0xca, 0x1cdd185c9d1959)\n        /* \"#utility.yul\":6414:6432   */\n      0x44\n      dup3\n      add\n        /* \"#utility.yul\":6407:6444   */\n      mstore\n        /* \"#utility.yul\":6461:6479   */\n      0x64\n      add\n        /* \"demo1/60CrowdFund.sol\":2027:2081  require(block.timestamp < campaign.startAt, \"started\") */\n      tag_55\n        /* \"#utility.yul\":6155:6485   */\n      jump\n        /* \"demo1/60CrowdFund.sol\":2027:2081  require(block.timestamp < campaign.startAt, \"started\") */\n    tag_101:\n        /* \"demo1/60CrowdFund.sol\":2101:2115  campaigns[_id] */\n      0x00\n      dup3\n      dup2\n      mstore\n        /* \"demo1/60CrowdFund.sol\":2101:2110  campaigns */\n      0x01\n        /* \"demo1/60CrowdFund.sol\":2101:2115  campaigns[_id] */\n      0x20\n      dup2\n      swap1\n      mstore\n      0x40\n      dup1\n      dup4\n      keccak256\n        /* \"demo1/60CrowdFund.sol\":2094:2115  delete campaigns[_id] */\n      dup1\n      sload\n      not(sub(shl(0xa0, 0x01), 0x01))\n      and\n      dup2\n      sstore\n      swap2\n      dup3\n      add\n      dup4\n      swap1\n      sstore\n      0x02\n      dup3\n      add\n      swap3\n      swap1\n      swap3\n      sstore\n      0x03\n      add\n      dup1\n      sload\n      not(0xffffffffffffffffff)\n      and\n      swap1\n      sstore\n        /* \"demo1/60CrowdFund.sol\":2131:2142  Cancel(_id) */\n      mload\n      0x8bf30e7ff26833413be5f69e1d373744864d600b664204b4a2f9844a8eedb9ed\n      swap1\n      tag_97\n      swap1\n        /* \"demo1/60CrowdFund.sol\":2111:2114  _id */\n      dup5\n        /* \"#utility.yul\":160:185   */\n      dup2\n      mstore\n        /* \"#utility.yul\":148:150   */\n      0x20\n        /* \"#utility.yul\":133:151   */\n      add\n      swap1\n        /* \"#utility.yul\":14:191   */\n      jump\n        /* \"demo1/60CrowdFund.sol\":2667:3031  function unpledge(uint _id, uint _amount) external {... */\n    tag_40:\n        /* \"demo1/60CrowdFund.sol\":2729:2754  Campaign storage campaign */\n      0x00\n        /* \"demo1/60CrowdFund.sol\":2757:2771  campaigns[_id] */\n      dup3\n      dup2\n      mstore\n        /* \"demo1/60CrowdFund.sol\":2757:2766  campaigns */\n      0x01\n        /* \"demo1/60CrowdFund.sol\":2757:2771  campaigns[_id] */\n      0x20\n      mstore\n      0x40\n      swap1\n      keccak256\n        /* \"demo1/60CrowdFund.sol\":2811:2825  campaign.endAt */\n      0x03\n      dup2\n      add\n      sload\n      shl(0x20, 0x01)\n      swap1\n      div\n      0xffffffff\n      and\n        /* \"demo1/60CrowdFund.sol\":2792:2807  block.timestamp */\n      timestamp\n        /* \"demo1/60CrowdFund.sol\":2792:2825  block.timestamp <= campaign.endAt */\n      gt\n      iszero\n        /* \"demo1/60CrowdFund.sol\":2784:2835  require(block.timestamp <= campaign.endAt, \"ended\") */\n      tag_106\n      jumpi\n      mload(0x40)\n      shl(0xe5, 0x461bcd)\n      dup2\n      mstore\n        /* \"#utility.yul\":6692:6694   */\n      0x20\n        /* \"demo1/60CrowdFund.sol\":2784:2835  require(block.timestamp <= campaign.endAt, \"ended\") */\n      0x04\n      dup3\n      add\n        /* \"#utility.yul\":6674:6695   */\n      mstore\n        /* \"#utility.yul\":6731:6732   */\n      0x05\n        /* \"#utility.yul\":6711:6729   */\n      0x24\n      dup3\n      add\n        /* \"#utility.yul\":6704:6733   */\n      mstore\n      shl(0xda, 0x195b991959)\n        /* \"#utility.yul\":6749:6767   */\n      0x44\n      dup3\n      add\n        /* \"#utility.yul\":6742:6777   */\n      mstore\n        /* \"#utility.yul\":6794:6812   */\n      0x64\n      add\n        /* \"demo1/60CrowdFund.sol\":2784:2835  require(block.timestamp <= campaign.endAt, \"ended\") */\n      tag_55\n        /* \"#utility.yul\":6490:6818   */\n      jump\n        /* \"demo1/60CrowdFund.sol\":2784:2835  require(block.timestamp <= campaign.endAt, \"ended\") */\n    tag_106:\n        /* \"demo1/60CrowdFund.sol\":2866:2873  _amount */\n      dup2\n        /* \"demo1/60CrowdFund.sol\":2846:2854  campaign */\n      dup2\n        /* \"demo1/60CrowdFund.sol\":2846:2862  campaign.pledged */\n      0x02\n      add\n      0x00\n        /* \"demo1/60CrowdFund.sol\":2846:2873  campaign.pledged -= _amount */\n      dup3\n      dup3\n      sload\n      tag_109\n      swap2\n      swap1\n      tag_110\n      jump\t// in\n    tag_109:\n      swap1\n      swap2\n      sstore\n      pop\n      pop\n        /* \"demo1/60CrowdFund.sol\":2884:2902  pledgedAmount[_id] */\n      0x00\n      dup4\n      dup2\n      mstore\n        /* \"demo1/60CrowdFund.sol\":2884:2897  pledgedAmount */\n      0x02\n        /* \"demo1/60CrowdFund.sol\":2884:2902  pledgedAmount[_id] */\n      0x20\n      swap1\n      dup2\n      mstore\n      0x40\n      dup1\n      dup4\n      keccak256\n        /* \"demo1/60CrowdFund.sol\":2903:2913  msg.sender */\n      caller\n        /* \"demo1/60CrowdFund.sol\":2884:2914  pledgedAmount[_id][msg.sender] */\n      dup5\n      mstore\n      swap1\n      swap2\n      mstore\n      dup2\n      keccak256\n        /* \"demo1/60CrowdFund.sol\":2884:2925  pledgedAmount[_id][msg.sender] -= _amount */\n      dup1\n      sload\n        /* \"demo1/60CrowdFund.sol\":2918:2925  _amount */\n      dup5\n      swap3\n        /* \"demo1/60CrowdFund.sol\":2884:2902  pledgedAmount[_id] */\n      swap1\n        /* \"demo1/60CrowdFund.sol\":2884:2925  pledgedAmount[_id][msg.sender] -= _amount */\n      tag_111\n      swap1\n        /* \"demo1/60CrowdFund.sol\":2918:2925  _amount */\n      dup5\n      swap1\n        /* \"demo1/60CrowdFund.sol\":2884:2925  pledgedAmount[_id][msg.sender] -= _amount */\n      tag_110\n      jump\t// in\n    tag_111:\n      swap1\n      swap2\n      sstore\n      pop\n      pop\n        /* \"demo1/60CrowdFund.sol\":2936:2971  token.transfer(msg.sender, _amount) */\n      mload(0x40)\n      shl(0xe0, 0xa9059cbb)\n      dup2\n      mstore\n        /* \"demo1/60CrowdFund.sol\":2951:2961  msg.sender */\n      caller\n        /* \"demo1/60CrowdFund.sol\":2936:2971  token.transfer(msg.sender, _amount) */\n      0x04\n      dup3\n      add\n        /* \"#utility.yul\":3185:3236   */\n      mstore\n        /* \"#utility.yul\":3252:3270   */\n      0x24\n      dup2\n      add\n        /* \"#utility.yul\":3245:3279   */\n      dup4\n      swap1\n      mstore\n        /* \"demo1/60CrowdFund.sol\":2936:2941  token */\n      immutable(\"0x5392f7a671cdf89487ccf8e3646ea8f7570009490584962db6fa064c6e4ad499\")\n      sub(shl(0xa0, 0x01), 0x01)\n        /* \"demo1/60CrowdFund.sol\":2936:2950  token.transfer */\n      and\n      swap1\n      0xa9059cbb\n      swap1\n        /* \"#utility.yul\":3158:3176   */\n      0x44\n      add\n        /* \"demo1/60CrowdFund.sol\":2936:2971  token.transfer(msg.sender, _amount) */\n      0x20\n      mload(0x40)\n      dup1\n      dup4\n      sub\n      dup2\n      0x00\n      dup8\n      gas\n      call\n      iszero\n      dup1\n      iszero\n      tag_114\n      jumpi\n      returndatasize\n      0x00\n      dup1\n      returndatacopy\n      revert(0x00, returndatasize)\n    tag_114:\n      pop\n      pop\n      pop\n      pop\n      mload(0x40)\n      returndatasize\n      not(0x1f)\n      0x1f\n      dup3\n      add\n      and\n      dup3\n      add\n      dup1\n      0x40\n      mstore\n      pop\n      dup2\n      add\n      swap1\n      tag_115\n      swap2\n      swap1\n      tag_65\n      jump\t// in\n    tag_115:\n      pop\n        /* \"demo1/60CrowdFund.sol\":2989:3023  Unpledge(_id, msg.sender, _amount) */\n      mload(0x40)\n        /* \"#utility.yul\":160:185   */\n      dup3\n      dup2\n      mstore\n        /* \"demo1/60CrowdFund.sol\":3003:3013  msg.sender */\n      caller\n      swap1\n        /* \"demo1/60CrowdFund.sol\":2998:3001  _id */\n      dup5\n      swap1\n        /* \"demo1/60CrowdFund.sol\":2989:3023  Unpledge(_id, msg.sender, _amount) */\n      0x2eeeab891b26a214d1b25749f88a406bdea852bd8c9bfda977e0ef8114c180ba\n      swap1\n        /* \"#utility.yul\":148:150   */\n      0x20\n        /* \"#utility.yul\":133:151   */\n      add\n        /* \"demo1/60CrowdFund.sol\":2989:3023  Unpledge(_id, msg.sender, _amount) */\n      tag_66\n        /* \"#utility.yul\":14:191   */\n      jump\n        /* \"demo1/60CrowdFund.sol\":2179:2638  function pledge(uint _id, uint _amount) external {... */\n    tag_52:\n        /* \"demo1/60CrowdFund.sol\":2239:2264  Campaign storage campaign */\n      0x00\n        /* \"demo1/60CrowdFund.sol\":2267:2281  campaigns[_id] */\n      dup3\n      dup2\n      mstore\n        /* \"demo1/60CrowdFund.sol\":2267:2276  campaigns */\n      0x01\n        /* \"demo1/60CrowdFund.sol\":2267:2281  campaigns[_id] */\n      0x20\n      mstore\n      0x40\n      swap1\n      keccak256\n        /* \"demo1/60CrowdFund.sol\":2329:2345  campaign.startAt */\n      0x03\n      dup2\n      add\n      sload\n      0xffffffff\n      and\n        /* \"demo1/60CrowdFund.sol\":2310:2325  block.timestamp */\n      timestamp\n        /* \"demo1/60CrowdFund.sol\":2310:2345  block.timestamp >= campaign.startAt */\n      lt\n      iszero\n        /* \"demo1/60CrowdFund.sol\":2302:2361  require(block.timestamp >= campaign.startAt, \"not started\") */\n      tag_118\n      jumpi\n      mload(0x40)\n      shl(0xe5, 0x461bcd)\n      dup2\n      mstore\n        /* \"#utility.yul\":7158:7160   */\n      0x20\n        /* \"demo1/60CrowdFund.sol\":2302:2361  require(block.timestamp >= campaign.startAt, \"not started\") */\n      0x04\n      dup3\n      add\n        /* \"#utility.yul\":7140:7161   */\n      mstore\n        /* \"#utility.yul\":7197:7199   */\n      0x0b\n        /* \"#utility.yul\":7177:7195   */\n      0x24\n      dup3\n      add\n        /* \"#utility.yul\":7170:7200   */\n      mstore\n      shl(0xaa, 0x1b9bdd081cdd185c9d1959)\n        /* \"#utility.yul\":7216:7234   */\n      0x44\n      dup3\n      add\n        /* \"#utility.yul\":7209:7250   */\n      mstore\n        /* \"#utility.yul\":7267:7285   */\n      0x64\n      add\n        /* \"demo1/60CrowdFund.sol\":2302:2361  require(block.timestamp >= campaign.startAt, \"not started\") */\n      tag_55\n        /* \"#utility.yul\":6956:7291   */\n      jump\n        /* \"demo1/60CrowdFund.sol\":2302:2361  require(block.timestamp >= campaign.startAt, \"not started\") */\n    tag_118:\n        /* \"demo1/60CrowdFund.sol\":2399:2413  campaign.endAt */\n      0x03\n      dup2\n      add\n      sload\n      shl(0x20, 0x01)\n      swap1\n      div\n      0xffffffff\n      and\n        /* \"demo1/60CrowdFund.sol\":2380:2395  block.timestamp */\n      timestamp\n        /* \"demo1/60CrowdFund.sol\":2380:2413  block.timestamp <= campaign.endAt */\n      gt\n      iszero\n        /* \"demo1/60CrowdFund.sol\":2372:2423  require(block.timestamp <= campaign.endAt, \"ended\") */\n      tag_121\n      jumpi\n      mload(0x40)\n      shl(0xe5, 0x461bcd)\n      dup2\n      mstore\n        /* \"#utility.yul\":6692:6694   */\n      0x20\n        /* \"demo1/60CrowdFund.sol\":2372:2423  require(block.timestamp <= campaign.endAt, \"ended\") */\n      0x04\n      dup3\n      add\n        /* \"#utility.yul\":6674:6695   */\n      mstore\n        /* \"#utility.yul\":6731:6732   */\n      0x05\n        /* \"#utility.yul\":6711:6729   */\n      0x24\n      dup3\n      add\n        /* \"#utility.yul\":6704:6733   */\n      mstore\n      shl(0xda, 0x195b991959)\n        /* \"#utility.yul\":6749:6767   */\n      0x44\n      dup3\n      add\n        /* \"#utility.yul\":6742:6777   */\n      mstore\n        /* \"#utility.yul\":6794:6812   */\n      0x64\n      add\n        /* \"demo1/60CrowdFund.sol\":2372:2423  require(block.timestamp <= campaign.endAt, \"ended\") */\n      tag_55\n        /* \"#utility.yul\":6490:6818   */\n      jump\n        /* \"demo1/60CrowdFund.sol\":2372:2423  require(block.timestamp <= campaign.endAt, \"ended\") */\n    tag_121:\n        /* \"demo1/60CrowdFund.sol\":2456:2463  _amount */\n      dup2\n        /* \"demo1/60CrowdFund.sol\":2436:2444  campaign */\n      dup2\n        /* \"demo1/60CrowdFund.sol\":2436:2452  campaign.pledged */\n      0x02\n      add\n      0x00\n        /* \"demo1/60CrowdFund.sol\":2436:2463  campaign.pledged += _amount */\n      dup3\n      dup3\n      sload\n      tag_123\n      swap2\n      swap1\n      tag_78\n      jump\t// in\n    tag_123:\n      swap1\n      swap2\n      sstore\n      pop\n      pop\n        /* \"demo1/60CrowdFund.sol\":2474:2492  pledgedAmount[_id] */\n      0x00\n      dup4\n      dup2\n      mstore\n        /* \"demo1/60CrowdFund.sol\":2474:2487  pledgedAmount */\n      0x02\n        /* \"demo1/60CrowdFund.sol\":2474:2492  pledgedAmount[_id] */\n      0x20\n      swap1\n      dup2\n      mstore\n      0x40\n      dup1\n      dup4\n      keccak256\n        /* \"demo1/60CrowdFund.sol\":2493:2503  msg.sender */\n      caller\n        /* \"demo1/60CrowdFund.sol\":2474:2504  pledgedAmount[_id][msg.sender] */\n      dup5\n      mstore\n      swap1\n      swap2\n      mstore\n      dup2\n      keccak256\n        /* \"demo1/60CrowdFund.sol\":2474:2515  pledgedAmount[_id][msg.sender] += _amount */\n      dup1\n      sload\n        /* \"demo1/60CrowdFund.sol\":2508:2515  _amount */\n      dup5\n      swap3\n        /* \"demo1/60CrowdFund.sol\":2474:2492  pledgedAmount[_id] */\n      swap1\n        /* \"demo1/60CrowdFund.sol\":2474:2515  pledgedAmount[_id][msg.sender] += _amount */\n      tag_124\n      swap1\n        /* \"demo1/60CrowdFund.sol\":2508:2515  _amount */\n      dup5\n      swap1\n        /* \"demo1/60CrowdFund.sol\":2474:2515  pledgedAmount[_id][msg.sender] += _amount */\n      tag_78\n      jump\t// in\n    tag_124:\n      swap1\n      swap2\n      sstore\n      pop\n      pop\n        /* \"demo1/60CrowdFund.sol\":2528:2582  token.transferFrom(msg.sender, address(this), _amount) */\n      mload(0x40)\n      shl(0xe0, 0x23b872dd)\n      dup2\n      mstore\n        /* \"demo1/60CrowdFund.sol\":2547:2557  msg.sender */\n      caller\n        /* \"demo1/60CrowdFund.sol\":2528:2582  token.transferFrom(msg.sender, address(this), _amount) */\n      0x04\n      dup3\n      add\n        /* \"#utility.yul\":7536:7570   */\n      mstore\n        /* \"demo1/60CrowdFund.sol\":2567:2571  this */\n      address\n        /* \"#utility.yul\":7586:7604   */\n      0x24\n      dup3\n      add\n        /* \"#utility.yul\":7579:7622   */\n      mstore\n        /* \"#utility.yul\":7638:7656   */\n      0x44\n      dup2\n      add\n        /* \"#utility.yul\":7631:7665   */\n      dup4\n      swap1\n      mstore\n        /* \"demo1/60CrowdFund.sol\":2528:2533  token */\n      immutable(\"0x5392f7a671cdf89487ccf8e3646ea8f7570009490584962db6fa064c6e4ad499\")\n      sub(shl(0xa0, 0x01), 0x01)\n        /* \"demo1/60CrowdFund.sol\":2528:2546  token.transferFrom */\n      and\n      swap1\n      0x23b872dd\n      swap1\n        /* \"#utility.yul\":7471:7489   */\n      0x64\n      add\n        /* \"demo1/60CrowdFund.sol\":2528:2582  token.transferFrom(msg.sender, address(this), _amount) */\n      0x20\n      mload(0x40)\n      dup1\n      dup4\n      sub\n      dup2\n      0x00\n      dup8\n      gas\n      call\n      iszero\n      dup1\n      iszero\n      tag_128\n      jumpi\n      returndatasize\n      0x00\n      dup1\n      returndatacopy\n      revert(0x00, returndatasize)\n    tag_128:\n      pop\n      pop\n      pop\n      pop\n      mload(0x40)\n      returndatasize\n      not(0x1f)\n      0x1f\n      dup3\n      add\n      and\n      dup3\n      add\n      dup1\n      0x40\n      mstore\n      pop\n      dup2\n      add\n      swap1\n      tag_129\n      swap2\n      swap1\n      tag_65\n      jump\t// in\n    tag_129:\n      pop\n        /* \"demo1/60CrowdFund.sol\":2598:2630  Pledge(_id, msg.sender, _amount) */\n      mload(0x40)\n        /* \"#utility.yul\":160:185   */\n      dup3\n      dup2\n      mstore\n        /* \"demo1/60CrowdFund.sol\":2610:2620  msg.sender */\n      caller\n      swap1\n        /* \"demo1/60CrowdFund.sol\":2605:2608  _id */\n      dup5\n      swap1\n        /* \"demo1/60CrowdFund.sol\":2598:2630  Pledge(_id, msg.sender, _amount) */\n      0x06bdb975df800a73232998e71ed585d536222f1dfeaa622d7f62a23ada686c82\n      swap1\n        /* \"#utility.yul\":148:150   */\n      0x20\n        /* \"#utility.yul\":133:151   */\n      add\n        /* \"demo1/60CrowdFund.sol\":2598:2630  Pledge(_id, msg.sender, _amount) */\n      tag_66\n        /* \"#utility.yul\":14:191   */\n      jump\n        /* \"#utility.yul\":196:376   */\n    tag_20:\n        /* \"#utility.yul\":255:261   */\n      0x00\n        /* \"#utility.yul\":308:310   */\n      0x20\n        /* \"#utility.yul\":296:305   */\n      dup3\n        /* \"#utility.yul\":287:294   */\n      dup5\n        /* \"#utility.yul\":283:306   */\n      sub\n        /* \"#utility.yul\":279:311   */\n      slt\n        /* \"#utility.yul\":276:328   */\n      iszero\n      tag_136\n      jumpi\n        /* \"#utility.yul\":324:325   */\n      0x00\n        /* \"#utility.yul\":321:322   */\n      dup1\n        /* \"#utility.yul\":314:326   */\n      revert\n        /* \"#utility.yul\":276:328   */\n    tag_136:\n      pop\n        /* \"#utility.yul\":347:370   */\n      calldataload\n      swap2\n        /* \"#utility.yul\":196:376   */\n      swap1\n      pop\n      jump\t// out\n        /* \"#utility.yul\":1000:1163   */\n    tag_131:\n        /* \"#utility.yul\":1067:1087   */\n      dup1\n      calldataload\n        /* \"#utility.yul\":1127:1137   */\n      0xffffffff\n        /* \"#utility.yul\":1116:1138   */\n      dup2\n      and\n        /* \"#utility.yul\":1106:1139   */\n      dup2\n      eq\n        /* \"#utility.yul\":1096:1157   */\n      tag_139\n      jumpi\n        /* \"#utility.yul\":1153:1154   */\n      0x00\n        /* \"#utility.yul\":1150:1151   */\n      dup1\n        /* \"#utility.yul\":1143:1155   */\n      revert\n        /* \"#utility.yul\":1096:1157   */\n    tag_139:\n        /* \"#utility.yul\":1000:1163   */\n      swap2\n      swap1\n      pop\n      jump\t// out\n        /* \"#utility.yul\":1168:1492   */\n    tag_29:\n        /* \"#utility.yul\":1243:1249   */\n      0x00\n        /* \"#utility.yul\":1251:1257   */\n      dup1\n        /* \"#utility.yul\":1259:1265   */\n      0x00\n        /* \"#utility.yul\":1312:1314   */\n      0x60\n        /* \"#utility.yul\":1300:1309   */\n      dup5\n        /* \"#utility.yul\":1291:1298   */\n      dup7\n        /* \"#utility.yul\":1287:1310   */\n      sub\n        /* \"#utility.yul\":1283:1315   */\n      slt\n        /* \"#utility.yul\":1280:1332   */\n      iszero\n      tag_141\n      jumpi\n        /* \"#utility.yul\":1328:1329   */\n      0x00\n        /* \"#utility.yul\":1325:1326   */\n      dup1\n        /* \"#utility.yul\":1318:1330   */\n      revert\n        /* \"#utility.yul\":1280:1332   */\n    tag_141:\n        /* \"#utility.yul\":1364:1373   */\n      dup4\n        /* \"#utility.yul\":1351:1374   */\n      calldataload\n        /* \"#utility.yul\":1341:1374   */\n      swap3\n      pop\n        /* \"#utility.yul\":1393:1430   */\n      tag_142\n        /* \"#utility.yul\":1426:1428   */\n      0x20\n        /* \"#utility.yul\":1415:1424   */\n      dup6\n        /* \"#utility.yul\":1411:1429   */\n      add\n        /* \"#utility.yul\":1393:1430   */\n      tag_131\n      jump\t// in\n    tag_142:\n        /* \"#utility.yul\":1383:1430   */\n      swap2\n      pop\n        /* \"#utility.yul\":1449:1486   */\n      tag_143\n        /* \"#utility.yul\":1482:1484   */\n      0x40\n        /* \"#utility.yul\":1471:1480   */\n      dup6\n        /* \"#utility.yul\":1467:1485   */\n      add\n        /* \"#utility.yul\":1449:1486   */\n      tag_131\n      jump\t// in\n    tag_143:\n        /* \"#utility.yul\":1439:1486   */\n      swap1\n      pop\n        /* \"#utility.yul\":1168:1492   */\n      swap3\n      pop\n      swap3\n      pop\n      swap3\n      jump\t// out\n        /* \"#utility.yul\":1497:1745   */\n    tag_39:\n        /* \"#utility.yul\":1565:1571   */\n      0x00\n        /* \"#utility.yul\":1573:1579   */\n      dup1\n        /* \"#utility.yul\":1626:1628   */\n      0x40\n        /* \"#utility.yul\":1614:1623   */\n      dup4\n        /* \"#utility.yul\":1605:1612   */\n      dup6\n        /* \"#utility.yul\":1601:1624   */\n      sub\n        /* \"#utility.yul\":1597:1629   */\n      slt\n        /* \"#utility.yul\":1594:1646   */\n      iszero\n      tag_145\n      jumpi\n        /* \"#utility.yul\":1642:1643   */\n      0x00\n        /* \"#utility.yul\":1639:1640   */\n      dup1\n        /* \"#utility.yul\":1632:1644   */\n      revert\n        /* \"#utility.yul\":1594:1646   */\n    tag_145:\n      pop\n      pop\n        /* \"#utility.yul\":1665:1688   */\n      dup1\n      calldataload\n      swap3\n        /* \"#utility.yul\":1735:1737   */\n      0x20\n        /* \"#utility.yul\":1720:1738   */\n      swap1\n      swap2\n      add\n        /* \"#utility.yul\":1707:1739   */\n      calldataload\n      swap2\n      pop\n        /* \"#utility.yul\":1497:1745   */\n      jump\t// out\n        /* \"#utility.yul\":1750:2104   */\n    tag_43:\n        /* \"#utility.yul\":1818:1824   */\n      0x00\n        /* \"#utility.yul\":1826:1832   */\n      dup1\n        /* \"#utility.yul\":1879:1881   */\n      0x40\n        /* \"#utility.yul\":1867:1876   */\n      dup4\n        /* \"#utility.yul\":1858:1865   */\n      dup6\n        /* \"#utility.yul\":1854:1877   */\n      sub\n        /* \"#utility.yul\":1850:1882   */\n      slt\n        /* \"#utility.yul\":1847:1899   */\n      iszero\n      tag_147\n      jumpi\n        /* \"#utility.yul\":1895:1896   */\n      0x00\n        /* \"#utility.yul\":1892:1893   */\n      dup1\n        /* \"#utility.yul\":1885:1897   */\n      revert\n        /* \"#utility.yul\":1847:1899   */\n    tag_147:\n        /* \"#utility.yul\":1918:1941   */\n      dup3\n      calldataload\n      swap2\n      pop\n        /* \"#utility.yul\":1991:1993   */\n      0x20\n        /* \"#utility.yul\":1976:1994   */\n      dup4\n      add\n        /* \"#utility.yul\":1963:1995   */\n      calldataload\n      sub(shl(0xa0, 0x01), 0x01)\n        /* \"#utility.yul\":2024:2055   */\n      dup2\n      and\n        /* \"#utility.yul\":2014:2056   */\n      dup2\n      eq\n        /* \"#utility.yul\":2004:2074   */\n      tag_148\n      jumpi\n        /* \"#utility.yul\":2070:2071   */\n      0x00\n        /* \"#utility.yul\":2067:2068   */\n      dup1\n        /* \"#utility.yul\":2060:2072   */\n      revert\n        /* \"#utility.yul\":2004:2074   */\n    tag_148:\n        /* \"#utility.yul\":2093:2098   */\n      dup1\n        /* \"#utility.yul\":2083:2098   */\n      swap2\n      pop\n      pop\n        /* \"#utility.yul\":1750:2104   */\n      swap3\n      pop\n      swap3\n      swap1\n      pop\n      jump\t// out\n        /* \"#utility.yul\":3290:3567   */\n    tag_65:\n        /* \"#utility.yul\":3357:3363   */\n      0x00\n        /* \"#utility.yul\":3410:3412   */\n      0x20\n        /* \"#utility.yul\":3398:3407   */\n      dup3\n        /* \"#utility.yul\":3389:3396   */\n      dup5\n        /* \"#utility.yul\":3385:3408   */\n      sub\n        /* \"#utility.yul\":3381:3413   */\n      slt\n        /* \"#utility.yul\":3378:3430   */\n      iszero\n      tag_154\n      jumpi\n        /* \"#utility.yul\":3426:3427   */\n      0x00\n        /* \"#utility.yul\":3423:3424   */\n      dup1\n        /* \"#utility.yul\":3416:3428   */\n      revert\n        /* \"#utility.yul\":3378:3430   */\n    tag_154:\n        /* \"#utility.yul\":3458:3467   */\n      dup2\n        /* \"#utility.yul\":3452:3468   */\n      mload\n        /* \"#utility.yul\":3511:3516   */\n      dup1\n        /* \"#utility.yul\":3504:3517   */\n      iszero\n        /* \"#utility.yul\":3497:3518   */\n      iszero\n        /* \"#utility.yul\":3490:3495   */\n      dup2\n        /* \"#utility.yul\":3487:3519   */\n      eq\n        /* \"#utility.yul\":3477:3537   */\n      tag_155\n      jumpi\n        /* \"#utility.yul\":3533:3534   */\n      0x00\n        /* \"#utility.yul\":3530:3531   */\n      dup1\n        /* \"#utility.yul\":3523:3535   */\n      revert\n        /* \"#utility.yul\":3477:3537   */\n    tag_155:\n        /* \"#utility.yul\":3556:3561   */\n      swap4\n        /* \"#utility.yul\":3290:3567   */\n      swap3\n      pop\n      pop\n      pop\n      jump\t// out\n        /* \"#utility.yul\":4259:4386   */\n    tag_132:\n        /* \"#utility.yul\":4320:4330   */\n      0x4e487b71\n        /* \"#utility.yul\":4315:4318   */\n      0xe0\n        /* \"#utility.yul\":4311:4331   */\n      shl\n        /* \"#utility.yul\":4308:4309   */\n      0x00\n        /* \"#utility.yul\":4301:4332   */\n      mstore\n        /* \"#utility.yul\":4351:4355   */\n      0x11\n        /* \"#utility.yul\":4348:4349   */\n      0x04\n        /* \"#utility.yul\":4341:4356   */\n      mstore\n        /* \"#utility.yul\":4375:4379   */\n      0x24\n        /* \"#utility.yul\":4372:4373   */\n      0x00\n        /* \"#utility.yul\":4365:4380   */\n      revert\n        /* \"#utility.yul\":4391:4563   */\n    tag_75:\n        /* \"#utility.yul\":4458:4468   */\n      0xffffffff\n        /* \"#utility.yul\":4488:4498   */\n      dup2\n      dup2\n      and\n        /* \"#utility.yul\":4500:4510   */\n      dup4\n      dup3\n      and\n        /* \"#utility.yul\":4484:4511   */\n      add\n      swap1\n        /* \"#utility.yul\":4523:4534   */\n      dup1\n      dup3\n      gt\n        /* \"#utility.yul\":4520:4557   */\n      iszero\n      tag_161\n      jumpi\n        /* \"#utility.yul\":4537:4555   */\n      tag_161\n      tag_132\n      jump\t// in\n    tag_161:\n        /* \"#utility.yul\":4520:4557   */\n      pop\n        /* \"#utility.yul\":4391:4563   */\n      swap3\n      swap2\n      pop\n      pop\n      jump\t// out\n        /* \"#utility.yul\":4568:4693   */\n    tag_78:\n        /* \"#utility.yul\":4633:4642   */\n      dup1\n      dup3\n      add\n        /* \"#utility.yul\":4654:4664   */\n      dup1\n      dup3\n      gt\n        /* \"#utility.yul\":4651:4687   */\n      iszero\n      tag_164\n      jumpi\n        /* \"#utility.yul\":4667:4685   */\n      tag_164\n      tag_132\n      jump\t// in\n    tag_164:\n        /* \"#utility.yul\":4568:4693   */\n      swap3\n      swap2\n      pop\n      pop\n      jump\t// out\n        /* \"#utility.yul\":6823:6951   */\n    tag_110:\n        /* \"#utility.yul\":6890:6899   */\n      dup2\n      dup2\n      sub\n        /* \"#utility.yul\":6911:6922   */\n      dup2\n      dup2\n      gt\n        /* \"#utility.yul\":6908:6945   */\n      iszero\n      tag_164\n      jumpi\n        /* \"#utility.yul\":6925:6943   */\n      tag_164\n      tag_132\n      jump\t// in\n\n    auxdata: 0xa2646970667358221220884c4afed37a4caac3a92cfca2478683604b1e54e704d32e2f05657b73c440ba64736f6c63430008170033\n}\n",
				"bytecode": {
					"linkReferences": {},
					"object": "60a060405234801561000f575f80fd5b50604051610e35380380610e3583398101604081905261002e9161003f565b6001600160a01b031660805261006c565b5f6020828403121561004f575f80fd5b81516001600160a01b0381168114610065575f80fd5b9392505050565b608051610d956100a05f395f81816101eb015281816103210152818161070a015281816109c10152610b6d0152610d955ff3fe608060405234801561000f575f80fd5b506004361061009b575f3560e01c806340e58ee51161006357806340e58ee514610196578063711853ab146101a9578063aa4fb63a146101bc578063fc0c546a146101e6578063fde327be14610225575f80fd5b806306661abd1461009f578063141961bc146100ba578063278ecde11461015b5780632c63f14614610170578063379607f514610183575b5f80fd5b6100a75f5481565b6040519081526020015b60405180910390f35b6101196100c8366004610c14565b600160208190525f918252604090912080549181015460028201546003909201546001600160a01b039093169290919063ffffffff80821691600160201b810490911690600160401b900460ff1686565b604080516001600160a01b03909716875260208701959095529385019290925263ffffffff9081166060850152166080830152151560a082015260c0016100b1565b61016e610169366004610c14565b610238565b005b61016e61017e366004610c43565b6103c9565b61016e610191366004610c14565b61059c565b61016e6101a4366004610c14565b6107ad565b61016e6101b7366004610c7c565b61090a565b6100a76101ca366004610c9c565b600260209081525f928352604080842090915290825290205481565b61020d7f000000000000000000000000000000000000000000000000000000000000000081565b6040516001600160a01b0390911681526020016100b1565b61016e610233366004610c7c565b610a68565b5f8181526001602052604090206003810154600160201b900463ffffffff1642116102965760405162461bcd60e51b81526020600482015260096024820152681b9bdd08195b99195960ba1b60448201526064015b60405180910390fd5b80600101548160020154106102df5760405162461bcd60e51b815260206004820152600f60248201526e1c1b195919d959080f8f4819dbd85b608a1b604482015260640161028d565b5f82815260026020908152604080832033808552925280832080549390555163a9059cbb60e01b81526004810191909152602481018290526001600160a01b037f0000000000000000000000000000000000000000000000000000000000000000169063a9059cbb906044016020604051808303815f875af1158015610367573d5f803e3d5ffd5b505050506040513d601f19601f8201168201806040525081019061038b9190610cd5565b50604051818152339084907f21e12a7cad0da5928167e1084ea4d5fdf8d9af66657a2543a9ac76a0ca081477906020015b60405180910390a3505050565b8163ffffffff168163ffffffff16116104175760405162461bcd60e51b815260206004820152601060248201526f195b99105d080f0f481cdd185c9d105d60821b604482015260640161028d565b62278d008163ffffffff1611156104605760405162461bcd60e51b815260206004820152600d60248201526c656e64203e203330206461797360981b604482015260640161028d565b5f61046b8342610d0f565b90505f6104788342610d0f565b905060015f8082825461048b9190610d33565b90915550506040805160c0810182523380825260208083018981525f84860181815263ffffffff89811660608089018281528b84166080808c0182815260a08d0189815289548a526001808d528f8b209e518f546001600160a01b0319166001600160a01b03909116178f559a519a8e019a909a55965160028d015591516003909b018054965198519b861667ffffffffffffffff1990971696909617600160201b98909516979097029390931760ff60401b1916600160401b9915159990990298909817909255915487519081529384018c90528387015293820152925190927f0601cd0d650b473037e838a2696d41e654433d065b3f56b28d1d3302e44a304f92908290030190a25050505050565b5f81815260016020526040902080546001600160a01b031633146105f05760405162461bcd60e51b815260206004820152600b60248201526a3737ba1031b932b0ba37b960a91b604482015260640161028d565b6003810154600160201b900463ffffffff16421161063c5760405162461bcd60e51b81526020600482015260096024820152681b9bdd08195b99195960ba1b604482015260640161028d565b8060010154816002015410156106855760405162461bcd60e51b815260206004820152600e60248201526d1c1b195919d959080f0819dbd85b60921b604482015260640161028d565b6003810154600160401b900460ff16156106cb5760405162461bcd60e51b815260206004820152600760248201526618db185a5b595960ca1b604482015260640161028d565b60038101805460ff60401b1916600160401b179055600281015460405163a9059cbb60e01b815233600482015260248101919091526001600160a01b037f0000000000000000000000000000000000000000000000000000000000000000169063a9059cbb906044016020604051808303815f875af1158015610750573d5f803e3d5ffd5b505050506040513d601f19601f820116820180604052508101906107749190610cd5565b506040518281527f7bb2b3c10797baccb6f8c4791f1edd6ca2f0d028ee0eda64b01a9a57e3a653f7906020015b60405180910390a15050565b5f81815260016020818152604092839020835160c08101855281546001600160a01b0316808252938201549281019290925260028101549382019390935260039092015463ffffffff8082166060850152600160201b8204166080840152600160401b900460ff16151560a083015233146108585760405162461bcd60e51b815260206004820152600b60248201526a3737ba1031b932b0ba37b960a91b604482015260640161028d565b806060015163ffffffff16421061089b5760405162461bcd60e51b81526020600482015260076024820152661cdd185c9d195960ca1b604482015260640161028d565b5f82815260016020819052604080832080546001600160a01b03191681559182018390556002820192909255600301805468ffffffffffffffffff19169055517f8bf30e7ff26833413be5f69e1d373744864d600b664204b4a2f9844a8eedb9ed906107a19084815260200190565b5f8281526001602052604090206003810154600160201b900463ffffffff164211156109605760405162461bcd60e51b8152602060048201526005602482015264195b99195960da1b604482015260640161028d565b81816002015f8282546109739190610d4c565b90915550505f838152600260209081526040808320338452909152812080548492906109a0908490610d4c565b909155505060405163a9059cbb60e01b8152336004820152602481018390527f00000000000000000000000000000000000000000000000000000000000000006001600160a01b03169063a9059cbb906044016020604051808303815f875af1158015610a0f573d5f803e3d5ffd5b505050506040513d601f19601f82011682018060405250810190610a339190610cd5565b50604051828152339084907f2eeeab891b26a214d1b25749f88a406bdea852bd8c9bfda977e0ef8114c180ba906020016103bc565b5f828152600160205260409020600381015463ffffffff16421015610abd5760405162461bcd60e51b815260206004820152600b60248201526a1b9bdd081cdd185c9d195960aa1b604482015260640161028d565b6003810154600160201b900463ffffffff16421115610b065760405162461bcd60e51b8152602060048201526005602482015264195b99195960da1b604482015260640161028d565b81816002015f828254610b199190610d33565b90915550505f83815260026020908152604080832033845290915281208054849290610b46908490610d33565b90915550506040516323b872dd60e01b8152336004820152306024820152604481018390527f00000000000000000000000000000000000000000000000000000000000000006001600160a01b0316906323b872dd906064016020604051808303815f875af1158015610bbb573d5f803e3d5ffd5b505050506040513d601f19601f82011682018060405250810190610bdf9190610cd5565b50604051828152339084907f06bdb975df800a73232998e71ed585d536222f1dfeaa622d7f62a23ada686c82906020016103bc565b5f60208284031215610c24575f80fd5b5035919050565b803563ffffffff81168114610c3e575f80fd5b919050565b5f805f60608486031215610c55575f80fd5b83359250610c6560208501610c2b565b9150610c7360408501610c2b565b90509250925092565b5f8060408385031215610c8d575f80fd5b50508035926020909101359150565b5f8060408385031215610cad575f80fd5b8235915060208301356001600160a01b0381168114610cca575f80fd5b809150509250929050565b5f60208284031215610ce5575f80fd5b81518015158114610cf4575f80fd5b9392505050565b634e487b7160e01b5f52601160045260245ffd5b63ffffffff818116838216019080821115610d2c57610d2c610cfb565b5092915050565b80820180821115610d4657610d46610cfb565b92915050565b81810381811115610d4657610d46610cfb56fea2646970667358221220884c4afed37a4caac3a92cfca2478683604b1e54e704d32e2f05657b73c440ba64736f6c63430008170033",
					"opcodes": "PUSH1 0xA0 PUSH1 0x40 MSTORE CALLVALUE DUP1 ISZERO PUSH2 0xF JUMPI PUSH0 DUP1 REVERT JUMPDEST POP PUSH1 0x40 MLOAD PUSH2 0xE35 CODESIZE SUB DUP1 PUSH2 0xE35 DUP4 CODECOPY DUP2 ADD PUSH1 0x40 DUP2 SWAP1 MSTORE PUSH2 0x2E SWAP2 PUSH2 0x3F JUMP JUMPDEST PUSH1 0x1 PUSH1 0x1 PUSH1 0xA0 SHL SUB AND PUSH1 0x80 MSTORE PUSH2 0x6C JUMP JUMPDEST PUSH0 PUSH1 0x20 DUP3 DUP5 SUB SLT ISZERO PUSH2 0x4F JUMPI PUSH0 DUP1 REVERT JUMPDEST DUP2 MLOAD PUSH1 0x1 PUSH1 0x1 PUSH1 0xA0 SHL SUB DUP2 AND DUP2 EQ PUSH2 0x65 JUMPI PUSH0 DUP1 REVERT JUMPDEST SWAP4 SWAP3 POP POP POP JUMP JUMPDEST PUSH1 0x80 MLOAD PUSH2 0xD95 PUSH2 0xA0 PUSH0 CODECOPY PUSH0 DUP2 DUP2 PUSH2 0x1EB ADD MSTORE DUP2 DUP2 PUSH2 0x321 ADD MSTORE DUP2 DUP2 PUSH2 0x70A ADD MSTORE DUP2 DUP2 PUSH2 0x9C1 ADD MSTORE PUSH2 0xB6D ADD MSTORE PUSH2 0xD95 PUSH0 RETURN INVALID PUSH1 0x80 PUSH1 0x40 MSTORE CALLVALUE DUP1 ISZERO PUSH2 0xF JUMPI PUSH0 DUP1 REVERT JUMPDEST POP PUSH1 0x4 CALLDATASIZE LT PUSH2 0x9B JUMPI PUSH0 CALLDATALOAD PUSH1 0xE0 SHR DUP1 PUSH4 0x40E58EE5 GT PUSH2 0x63 JUMPI DUP1 PUSH4 0x40E58EE5 EQ PUSH2 0x196 JUMPI DUP1 PUSH4 0x711853AB EQ PUSH2 0x1A9 JUMPI DUP1 PUSH4 0xAA4FB63A EQ PUSH2 0x1BC JUMPI DUP1 PUSH4 0xFC0C546A EQ PUSH2 0x1E6 JUMPI DUP1 PUSH4 0xFDE327BE EQ PUSH2 0x225 JUMPI PUSH0 DUP1 REVERT JUMPDEST DUP1 PUSH4 0x6661ABD EQ PUSH2 0x9F JUMPI DUP1 PUSH4 0x141961BC EQ PUSH2 0xBA JUMPI DUP1 PUSH4 0x278ECDE1 EQ PUSH2 0x15B JUMPI DUP1 PUSH4 0x2C63F146 EQ PUSH2 0x170 JUMPI DUP1 PUSH4 0x379607F5 EQ PUSH2 0x183 JUMPI JUMPDEST PUSH0 DUP1 REVERT JUMPDEST PUSH2 0xA7 PUSH0 SLOAD DUP2 JUMP JUMPDEST PUSH1 0x40 MLOAD SWAP1 DUP2 MSTORE PUSH1 0x20 ADD JUMPDEST PUSH1 0x40 MLOAD DUP1 SWAP2 SUB SWAP1 RETURN JUMPDEST PUSH2 0x119 PUSH2 0xC8 CALLDATASIZE PUSH1 0x4 PUSH2 0xC14 JUMP JUMPDEST PUSH1 0x1 PUSH1 0x20 DUP2 SWAP1 MSTORE PUSH0 SWAP2 DUP3 MSTORE PUSH1 0x40 SWAP1 SWAP2 KECCAK256 DUP1 SLOAD SWAP2 DUP2 ADD SLOAD PUSH1 0x2 DUP3 ADD SLOAD PUSH1 0x3 SWAP1 SWAP3 ADD SLOAD PUSH1 0x1 PUSH1 0x1 PUSH1 0xA0 SHL SUB SWAP1 SWAP4 AND SWAP3 SWAP1 SWAP2 SWAP1 PUSH4 0xFFFFFFFF DUP1 DUP3 AND SWAP2 PUSH1 0x1 PUSH1 0x20 SHL DUP2 DIV SWAP1 SWAP2 AND SWAP1 PUSH1 0x1 PUSH1 0x40 SHL SWAP1 DIV PUSH1 0xFF AND DUP7 JUMP JUMPDEST PUSH1 0x40 DUP1 MLOAD PUSH1 0x1 PUSH1 0x1 PUSH1 0xA0 SHL SUB SWAP1 SWAP8 AND DUP8 MSTORE PUSH1 0x20 DUP8 ADD SWAP6 SWAP1 SWAP6 MSTORE SWAP4 DUP6 ADD SWAP3 SWAP1 SWAP3 MSTORE PUSH4 0xFFFFFFFF SWAP1 DUP2 AND PUSH1 0x60 DUP6 ADD MSTORE AND PUSH1 0x80 DUP4 ADD MSTORE ISZERO ISZERO PUSH1 0xA0 DUP3 ADD MSTORE PUSH1 0xC0 ADD PUSH2 0xB1 JUMP JUMPDEST PUSH2 0x16E PUSH2 0x169 CALLDATASIZE PUSH1 0x4 PUSH2 0xC14 JUMP JUMPDEST PUSH2 0x238 JUMP JUMPDEST STOP JUMPDEST PUSH2 0x16E PUSH2 0x17E CALLDATASIZE PUSH1 0x4 PUSH2 0xC43 JUMP JUMPDEST PUSH2 0x3C9 JUMP JUMPDEST PUSH2 0x16E PUSH2 0x191 CALLDATASIZE PUSH1 0x4 PUSH2 0xC14 JUMP JUMPDEST PUSH2 0x59C JUMP JUMPDEST PUSH2 0x16E PUSH2 0x1A4 CALLDATASIZE PUSH1 0x4 PUSH2 0xC14 JUMP JUMPDEST PUSH2 0x7AD JUMP JUMPDEST PUSH2 0x16E PUSH2 0x1B7 CALLDATASIZE PUSH1 0x4 PUSH2 0xC7C JUMP JUMPDEST PUSH2 0x90A JUMP JUMPDEST PUSH2 0xA7 PUSH2 0x1CA CALLDATASIZE PUSH1 0x4 PUSH2 0xC9C JUMP JUMPDEST PUSH1 0x2 PUSH1 0x20 SWAP1 DUP2 MSTORE PUSH0 SWAP3 DUP4 MSTORE PUSH1 0x40 DUP1 DUP5 KECCAK256 SWAP1 SWAP2 MSTORE SWAP1 DUP3 MSTORE SWAP1 KECCAK256 SLOAD DUP2 JUMP JUMPDEST PUSH2 0x20D PUSH32 0x0 DUP2 JUMP JUMPDEST PUSH1 0x40 MLOAD PUSH1 0x1 PUSH1 0x1 PUSH1 0xA0 SHL SUB SWAP1 SWAP2 AND DUP2 MSTORE PUSH1 0x20 ADD PUSH2 0xB1 JUMP JUMPDEST PUSH2 0x16E PUSH2 0x233 CALLDATASIZE PUSH1 0x4 PUSH2 0xC7C JUMP JUMPDEST PUSH2 0xA68 JUMP JUMPDEST PUSH0 DUP2 DUP2 MSTORE PUSH1 0x1 PUSH1 0x20 MSTORE PUSH1 0x40 SWAP1 KECCAK256 PUSH1 0x3 DUP2 ADD SLOAD PUSH1 0x1 PUSH1 0x20 SHL SWAP1 DIV PUSH4 0xFFFFFFFF AND TIMESTAMP GT PUSH2 0x296 JUMPI PUSH1 0x40 MLOAD PUSH3 0x461BCD PUSH1 0xE5 SHL DUP2 MSTORE PUSH1 0x20 PUSH1 0x4 DUP3 ADD MSTORE PUSH1 0x9 PUSH1 0x24 DUP3 ADD MSTORE PUSH9 0x1B9BDD08195B991959 PUSH1 0xBA SHL PUSH1 0x44 DUP3 ADD MSTORE PUSH1 0x64 ADD JUMPDEST PUSH1 0x40 MLOAD DUP1 SWAP2 SUB SWAP1 REVERT JUMPDEST DUP1 PUSH1 0x1 ADD SLOAD DUP2 PUSH1 0x2 ADD SLOAD LT PUSH2 0x2DF JUMPI PUSH1 0x40 MLOAD PUSH3 0x461BCD PUSH1 0xE5 SHL DUP2 MSTORE PUSH1 0x20 PUSH1 0x4 DUP3 ADD MSTORE PUSH1 0xF PUSH1 0x24 DUP3 ADD MSTORE PUSH15 0x1C1B195919D959080F8F4819DBD85B PUSH1 0x8A SHL PUSH1 0x44 DUP3 ADD MSTORE PUSH1 0x64 ADD PUSH2 0x28D JUMP JUMPDEST PUSH0 DUP3 DUP2 MSTORE PUSH1 0x2 PUSH1 0x20 SWAP1 DUP2 MSTORE PUSH1 0x40 DUP1 DUP4 KECCAK256 CALLER DUP1 DUP6 MSTORE SWAP3 MSTORE DUP1 DUP4 KECCAK256 DUP1 SLOAD SWAP4 SWAP1 SSTORE MLOAD PUSH4 0xA9059CBB PUSH1 0xE0 SHL DUP2 MSTORE PUSH1 0x4 DUP2 ADD SWAP2 SWAP1 SWAP2 MSTORE PUSH1 0x24 DUP2 ADD DUP3 SWAP1 MSTORE PUSH1 0x1 PUSH1 0x1 PUSH1 0xA0 SHL SUB PUSH32 0x0 AND SWAP1 PUSH4 0xA9059CBB SWAP1 PUSH1 0x44 ADD PUSH1 0x20 PUSH1 0x40 MLOAD DUP1 DUP4 SUB DUP2 PUSH0 DUP8 GAS CALL ISZERO DUP1 ISZERO PUSH2 0x367 JUMPI RETURNDATASIZE PUSH0 DUP1 RETURNDATACOPY RETURNDATASIZE PUSH0 REVERT JUMPDEST POP POP POP POP PUSH1 0x40 MLOAD RETURNDATASIZE PUSH1 0x1F NOT PUSH1 0x1F DUP3 ADD AND DUP3 ADD DUP1 PUSH1 0x40 MSTORE POP DUP2 ADD SWAP1 PUSH2 0x38B SWAP2 SWAP1 PUSH2 0xCD5 JUMP JUMPDEST POP PUSH1 0x40 MLOAD DUP2 DUP2 MSTORE CALLER SWAP1 DUP5 SWAP1 PUSH32 0x21E12A7CAD0DA5928167E1084EA4D5FDF8D9AF66657A2543A9AC76A0CA081477 SWAP1 PUSH1 0x20 ADD JUMPDEST PUSH1 0x40 MLOAD DUP1 SWAP2 SUB SWAP1 LOG3 POP POP POP JUMP JUMPDEST DUP2 PUSH4 0xFFFFFFFF AND DUP2 PUSH4 0xFFFFFFFF AND GT PUSH2 0x417 JUMPI PUSH1 0x40 MLOAD PUSH3 0x461BCD PUSH1 0xE5 SHL DUP2 MSTORE PUSH1 0x20 PUSH1 0x4 DUP3 ADD MSTORE PUSH1 0x10 PUSH1 0x24 DUP3 ADD MSTORE PUSH16 0x195B99105D080F0F481CDD185C9D105D PUSH1 0x82 SHL PUSH1 0x44 DUP3 ADD MSTORE PUSH1 0x64 ADD PUSH2 0x28D JUMP JUMPDEST PUSH3 0x278D00 DUP2 PUSH4 0xFFFFFFFF AND GT ISZERO PUSH2 0x460 JUMPI PUSH1 0x40 MLOAD PUSH3 0x461BCD PUSH1 0xE5 SHL DUP2 MSTORE PUSH1 0x20 PUSH1 0x4 DUP3 ADD MSTORE PUSH1 0xD PUSH1 0x24 DUP3 ADD MSTORE PUSH13 0x656E64203E2033302064617973 PUSH1 0x98 SHL PUSH1 0x44 DUP3 ADD MSTORE PUSH1 0x64 ADD PUSH2 0x28D JUMP JUMPDEST PUSH0 PUSH2 0x46B DUP4 TIMESTAMP PUSH2 0xD0F JUMP JUMPDEST SWAP1 POP PUSH0 PUSH2 0x478 DUP4 TIMESTAMP PUSH2 0xD0F JUMP JUMPDEST SWAP1 POP PUSH1 0x1 PUSH0 DUP1 DUP3 DUP3 SLOAD PUSH2 0x48B SWAP2 SWAP1 PUSH2 0xD33 JUMP JUMPDEST SWAP1 SWAP2 SSTORE POP POP PUSH1 0x40 DUP1 MLOAD PUSH1 0xC0 DUP2 ADD DUP3 MSTORE CALLER DUP1 DUP3 MSTORE PUSH1 0x20 DUP1 DUP4 ADD DUP10 DUP2 MSTORE PUSH0 DUP5 DUP7 ADD DUP2 DUP2 MSTORE PUSH4 0xFFFFFFFF DUP10 DUP2 AND PUSH1 0x60 DUP1 DUP10 ADD DUP3 DUP2 MSTORE DUP12 DUP5 AND PUSH1 0x80 DUP1 DUP13 ADD DUP3 DUP2 MSTORE PUSH1 0xA0 DUP14 ADD DUP10 DUP2 MSTORE DUP10 SLOAD DUP11 MSTORE PUSH1 0x1 DUP1 DUP14 MSTORE DUP16 DUP12 KECCAK256 SWAP15 MLOAD DUP16 SLOAD PUSH1 0x1 PUSH1 0x1 PUSH1 0xA0 SHL SUB NOT AND PUSH1 0x1 PUSH1 0x1 PUSH1 0xA0 SHL SUB SWAP1 SWAP2 AND OR DUP16 SSTORE SWAP11 MLOAD SWAP11 DUP15 ADD SWAP11 SWAP1 SWAP11 SSTORE SWAP7 MLOAD PUSH1 0x2 DUP14 ADD SSTORE SWAP2 MLOAD PUSH1 0x3 SWAP1 SWAP12 ADD DUP1 SLOAD SWAP7 MLOAD SWAP9 MLOAD SWAP12 DUP7 AND PUSH8 0xFFFFFFFFFFFFFFFF NOT SWAP1 SWAP8 AND SWAP7 SWAP1 SWAP7 OR PUSH1 0x1 PUSH1 0x20 SHL SWAP9 SWAP1 SWAP6 AND SWAP8 SWAP1 SWAP8 MUL SWAP4 SWAP1 SWAP4 OR PUSH1 0xFF PUSH1 0x40 SHL NOT AND PUSH1 0x1 PUSH1 0x40 SHL SWAP10 ISZERO ISZERO SWAP10 SWAP1 SWAP10 MUL SWAP9 SWAP1 SWAP9 OR SWAP1 SWAP3 SSTORE SWAP2 SLOAD DUP8 MLOAD SWAP1 DUP2 MSTORE SWAP4 DUP5 ADD DUP13 SWAP1 MSTORE DUP4 DUP8 ADD MSTORE SWAP4 DUP3 ADD MSTORE SWAP3 MLOAD SWAP1 SWAP3 PUSH32 0x601CD0D650B473037E838A2696D41E654433D065B3F56B28D1D3302E44A304F SWAP3 SWAP1 DUP3 SWAP1 SUB ADD SWAP1 LOG2 POP POP POP POP POP JUMP JUMPDEST PUSH0 DUP2 DUP2 MSTORE PUSH1 0x1 PUSH1 0x20 MSTORE PUSH1 0x40 SWAP1 KECCAK256 DUP1 SLOAD PUSH1 0x1 PUSH1 0x1 PUSH1 0xA0 SHL SUB AND CALLER EQ PUSH2 0x5F0 JUMPI PUSH1 0x40 MLOAD PUSH3 0x461BCD PUSH1 0xE5 SHL DUP2 MSTORE PUSH1 0x20 PUSH1 0x4 DUP3 ADD MSTORE PUSH1 0xB PUSH1 0x24 DUP3 ADD MSTORE PUSH11 0x3737BA1031B932B0BA37B9 PUSH1 0xA9 SHL PUSH1 0x44 DUP3 ADD MSTORE PUSH1 0x64 ADD PUSH2 0x28D JUMP JUMPDEST PUSH1 0x3 DUP2 ADD SLOAD PUSH1 0x1 PUSH1 0x20 SHL SWAP1 DIV PUSH4 0xFFFFFFFF AND TIMESTAMP GT PUSH2 0x63C JUMPI PUSH1 0x40 MLOAD PUSH3 0x461BCD PUSH1 0xE5 SHL DUP2 MSTORE PUSH1 0x20 PUSH1 0x4 DUP3 ADD MSTORE PUSH1 0x9 PUSH1 0x24 DUP3 ADD MSTORE PUSH9 0x1B9BDD08195B991959 PUSH1 0xBA SHL PUSH1 0x44 DUP3 ADD MSTORE PUSH1 0x64 ADD PUSH2 0x28D JUMP JUMPDEST DUP1 PUSH1 0x1 ADD SLOAD DUP2 PUSH1 0x2 ADD SLOAD LT ISZERO PUSH2 0x685 JUMPI PUSH1 0x40 MLOAD PUSH3 0x461BCD PUSH1 0xE5 SHL DUP2 MSTORE PUSH1 0x20 PUSH1 0x4 DUP3 ADD MSTORE PUSH1 0xE PUSH1 0x24 DUP3 ADD MSTORE PUSH14 0x1C1B195919D959080F0819DBD85B PUSH1 0x92 SHL PUSH1 0x44 DUP3 ADD MSTORE PUSH1 0x64 ADD PUSH2 0x28D JUMP JUMPDEST PUSH1 0x3 DUP2 ADD SLOAD PUSH1 0x1 PUSH1 0x40 SHL SWAP1 DIV PUSH1 0xFF AND ISZERO PUSH2 0x6CB JUMPI PUSH1 0x40 MLOAD PUSH3 0x461BCD PUSH1 0xE5 SHL DUP2 MSTORE PUSH1 0x20 PUSH1 0x4 DUP3 ADD MSTORE PUSH1 0x7 PUSH1 0x24 DUP3 ADD MSTORE PUSH7 0x18DB185A5B5959 PUSH1 0xCA SHL PUSH1 0x44 DUP3 ADD MSTORE PUSH1 0x64 ADD PUSH2 0x28D JUMP JUMPDEST PUSH1 0x3 DUP2 ADD DUP1 SLOAD PUSH1 0xFF PUSH1 0x40 SHL NOT AND PUSH1 0x1 PUSH1 0x40 SHL OR SWAP1 SSTORE PUSH1 0x2 DUP2 ADD SLOAD PUSH1 0x40 MLOAD PUSH4 0xA9059CBB PUSH1 0xE0 SHL DUP2 MSTORE CALLER PUSH1 0x4 DUP3 ADD MSTORE PUSH1 0x24 DUP2 ADD SWAP2 SWAP1 SWAP2 MSTORE PUSH1 0x1 PUSH1 0x1 PUSH1 0xA0 SHL SUB PUSH32 0x0 AND SWAP1 PUSH4 0xA9059CBB SWAP1 PUSH1 0x44 ADD PUSH1 0x20 PUSH1 0x40 MLOAD DUP1 DUP4 SUB DUP2 PUSH0 DUP8 GAS CALL ISZERO DUP1 ISZERO PUSH2 0x750 JUMPI RETURNDATASIZE PUSH0 DUP1 RETURNDATACOPY RETURNDATASIZE PUSH0 REVERT JUMPDEST POP POP POP POP PUSH1 0x40 MLOAD RETURNDATASIZE PUSH1 0x1F NOT PUSH1 0x1F DUP3 ADD AND DUP3 ADD DUP1 PUSH1 0x40 MSTORE POP DUP2 ADD SWAP1 PUSH2 0x774 SWAP2 SWAP1 PUSH2 0xCD5 JUMP JUMPDEST POP PUSH1 0x40 MLOAD DUP3 DUP2 MSTORE PUSH32 0x7BB2B3C10797BACCB6F8C4791F1EDD6CA2F0D028EE0EDA64B01A9A57E3A653F7 SWAP1 PUSH1 0x20 ADD JUMPDEST PUSH1 0x40 MLOAD DUP1 SWAP2 SUB SWAP1 LOG1 POP POP JUMP JUMPDEST PUSH0 DUP2 DUP2 MSTORE PUSH1 0x1 PUSH1 0x20 DUP2 DUP2 MSTORE PUSH1 0x40 SWAP3 DUP4 SWAP1 KECCAK256 DUP4 MLOAD PUSH1 0xC0 DUP2 ADD DUP6 MSTORE DUP2 SLOAD PUSH1 0x1 PUSH1 0x1 PUSH1 0xA0 SHL SUB AND DUP1 DUP3 MSTORE SWAP4 DUP3 ADD SLOAD SWAP3 DUP2 ADD SWAP3 SWAP1 SWAP3 MSTORE PUSH1 0x2 DUP2 ADD SLOAD SWAP4 DUP3 ADD SWAP4 SWAP1 SWAP4 MSTORE PUSH1 0x3 SWAP1 SWAP3 ADD SLOAD PUSH4 0xFFFFFFFF DUP1 DUP3 AND PUSH1 0x60 DUP6 ADD MSTORE PUSH1 0x1 PUSH1 0x20 SHL DUP3 DIV AND PUSH1 0x80 DUP5 ADD MSTORE PUSH1 0x1 PUSH1 0x40 SHL SWAP1 DIV PUSH1 0xFF AND ISZERO ISZERO PUSH1 0xA0 DUP4 ADD MSTORE CALLER EQ PUSH2 0x858 JUMPI PUSH1 0x40 MLOAD PUSH3 0x461BCD PUSH1 0xE5 SHL DUP2 MSTORE PUSH1 0x20 PUSH1 0x4 DUP3 ADD MSTORE PUSH1 0xB PUSH1 0x24 DUP3 ADD MSTORE PUSH11 0x3737BA1031B932B0BA37B9 PUSH1 0xA9 SHL PUSH1 0x44 DUP3 ADD MSTORE PUSH1 0x64 ADD PUSH2 0x28D JUMP JUMPDEST DUP1 PUSH1 0x60 ADD MLOAD PUSH4 0xFFFFFFFF AND TIMESTAMP LT PUSH2 0x89B JUMPI PUSH1 0x40 MLOAD PUSH3 0x461BCD PUSH1 0xE5 SHL DUP2 MSTORE PUSH1 0x20 PUSH1 0x4 DUP3 ADD MSTORE PUSH1 0x7 PUSH1 0x24 DUP3 ADD MSTORE PUSH7 0x1CDD185C9D1959 PUSH1 0xCA SHL PUSH1 0x44 DUP3 ADD MSTORE PUSH1 0x64 ADD PUSH2 0x28D JUMP JUMPDEST PUSH0 DUP3 DUP2 MSTORE PUSH1 0x1 PUSH1 0x20 DUP2 SWAP1 MSTORE PUSH1 0x40 DUP1 DUP4 KECCAK256 DUP1 SLOAD PUSH1 0x1 PUSH1 0x1 PUSH1 0xA0 SHL SUB NOT AND DUP2 SSTORE SWAP2 DUP3 ADD DUP4 SWAP1 SSTORE PUSH1 0x2 DUP3 ADD SWAP3 SWAP1 SWAP3 SSTORE PUSH1 0x3 ADD DUP1 SLOAD PUSH9 0xFFFFFFFFFFFFFFFFFF NOT AND SWAP1 SSTORE MLOAD PUSH32 0x8BF30E7FF26833413BE5F69E1D373744864D600B664204B4A2F9844A8EEDB9ED SWAP1 PUSH2 0x7A1 SWAP1 DUP5 DUP2 MSTORE PUSH1 0x20 ADD SWAP1 JUMP JUMPDEST PUSH0 DUP3 DUP2 MSTORE PUSH1 0x1 PUSH1 0x20 MSTORE PUSH1 0x40 SWAP1 KECCAK256 PUSH1 0x3 DUP2 ADD SLOAD PUSH1 0x1 PUSH1 0x20 SHL SWAP1 DIV PUSH4 0xFFFFFFFF AND TIMESTAMP GT ISZERO PUSH2 0x960 JUMPI PUSH1 0x40 MLOAD PUSH3 0x461BCD PUSH1 0xE5 SHL DUP2 MSTORE PUSH1 0x20 PUSH1 0x4 DUP3 ADD MSTORE PUSH1 0x5 PUSH1 0x24 DUP3 ADD MSTORE PUSH5 0x195B991959 PUSH1 0xDA SHL PUSH1 0x44 DUP3 ADD MSTORE PUSH1 0x64 ADD PUSH2 0x28D JUMP JUMPDEST DUP2 DUP2 PUSH1 0x2 ADD PUSH0 DUP3 DUP3 SLOAD PUSH2 0x973 SWAP2 SWAP1 PUSH2 0xD4C JUMP JUMPDEST SWAP1 SWAP2 SSTORE POP POP PUSH0 DUP4 DUP2 MSTORE PUSH1 0x2 PUSH1 0x20 SWAP1 DUP2 MSTORE PUSH1 0x40 DUP1 DUP4 KECCAK256 CALLER DUP5 MSTORE SWAP1 SWAP2 MSTORE DUP2 KECCAK256 DUP1 SLOAD DUP5 SWAP3 SWAP1 PUSH2 0x9A0 SWAP1 DUP5 SWAP1 PUSH2 0xD4C JUMP JUMPDEST SWAP1 SWAP2 SSTORE POP POP PUSH1 0x40 MLOAD PUSH4 0xA9059CBB PUSH1 0xE0 SHL DUP2 MSTORE CALLER PUSH1 0x4 DUP3 ADD MSTORE PUSH1 0x24 DUP2 ADD DUP4 SWAP1 MSTORE PUSH32 0x0 PUSH1 0x1 PUSH1 0x1 PUSH1 0xA0 SHL SUB AND SWAP1 PUSH4 0xA9059CBB SWAP1 PUSH1 0x44 ADD PUSH1 0x20 PUSH1 0x40 MLOAD DUP1 DUP4 SUB DUP2 PUSH0 DUP8 GAS CALL ISZERO DUP1 ISZERO PUSH2 0xA0F JUMPI RETURNDATASIZE PUSH0 DUP1 RETURNDATACOPY RETURNDATASIZE PUSH0 REVERT JUMPDEST POP POP POP POP PUSH1 0x40 MLOAD RETURNDATASIZE PUSH1 0x1F NOT PUSH1 0x1F DUP3 ADD AND DUP3 ADD DUP1 PUSH1 0x40 MSTORE POP DUP2 ADD SWAP1 PUSH2 0xA33 SWAP2 SWAP1 PUSH2 0xCD5 JUMP JUMPDEST POP PUSH1 0x40 MLOAD DUP3 DUP2 MSTORE CALLER SWAP1 DUP5 SWAP1 PUSH32 0x2EEEAB891B26A214D1B25749F88A406BDEA852BD8C9BFDA977E0EF8114C180BA SWAP1 PUSH1 0x20 ADD PUSH2 0x3BC JUMP JUMPDEST PUSH0 DUP3 DUP2 MSTORE PUSH1 0x1 PUSH1 0x20 MSTORE PUSH1 0x40 SWAP1 KECCAK256 PUSH1 0x3 DUP2 ADD SLOAD PUSH4 0xFFFFFFFF AND TIMESTAMP LT ISZERO PUSH2 0xABD JUMPI PUSH1 0x40 MLOAD PUSH3 0x461BCD PUSH1 0xE5 SHL DUP2 MSTORE PUSH1 0x20 PUSH1 0x4 DUP3 ADD MSTORE PUSH1 0xB PUSH1 0x24 DUP3 ADD MSTORE PUSH11 0x1B9BDD081CDD185C9D1959 PUSH1 0xAA SHL PUSH1 0x44 DUP3 ADD MSTORE PUSH1 0x64 ADD PUSH2 0x28D JUMP JUMPDEST PUSH1 0x3 DUP2 ADD SLOAD PUSH1 0x1 PUSH1 0x20 SHL SWAP1 DIV PUSH4 0xFFFFFFFF AND TIMESTAMP GT ISZERO PUSH2 0xB06 JUMPI PUSH1 0x40 MLOAD PUSH3 0x461BCD PUSH1 0xE5 SHL DUP2 MSTORE PUSH1 0x20 PUSH1 0x4 DUP3 ADD MSTORE PUSH1 0x5 PUSH1 0x24 DUP3 ADD MSTORE PUSH5 0x195B991959 PUSH1 0xDA SHL PUSH1 0x44 DUP3 ADD MSTORE PUSH1 0x64 ADD PUSH2 0x28D JUMP JUMPDEST DUP2 DUP2 PUSH1 0x2 ADD PUSH0 DUP3 DUP3 SLOAD PUSH2 0xB19 SWAP2 SWAP1 PUSH2 0xD33 JUMP JUMPDEST SWAP1 SWAP2 SSTORE POP POP PUSH0 DUP4 DUP2 MSTORE PUSH1 0x2 PUSH1 0x20 SWAP1 DUP2 MSTORE PUSH1 0x40 DUP1 DUP4 KECCAK256 CALLER DUP5 MSTORE SWAP1 SWAP2 MSTORE DUP2 KECCAK256 DUP1 SLOAD DUP5 SWAP3 SWAP1 PUSH2 0xB46 SWAP1 DUP5 SWAP1 PUSH2 0xD33 JUMP JUMPDEST SWAP1 SWAP2 SSTORE POP POP PUSH1 0x40 MLOAD PUSH4 0x23B872DD PUSH1 0xE0 SHL DUP2 MSTORE CALLER PUSH1 0x4 DUP3 ADD MSTORE ADDRESS PUSH1 0x24 DUP3 ADD MSTORE PUSH1 0x44 DUP2 ADD DUP4 SWAP1 MSTORE PUSH32 0x0 PUSH1 0x1 PUSH1 0x1 PUSH1 0xA0 SHL SUB AND SWAP1 PUSH4 0x23B872DD SWAP1 PUSH1 0x64 ADD PUSH1 0x20 PUSH1 0x40 MLOAD DUP1 DUP4 SUB DUP2 PUSH0 DUP8 GAS CALL ISZERO DUP1 ISZERO PUSH2 0xBBB JUMPI RETURNDATASIZE PUSH0 DUP1 RETURNDATACOPY RETURNDATASIZE PUSH0 REVERT JUMPDEST POP POP POP POP PUSH1 0x40 MLOAD RETURNDATASIZE PUSH1 0x1F NOT PUSH1 0x1F DUP3 ADD AND DUP3 ADD DUP1 PUSH1 0x40 MSTORE POP DUP2 ADD SWAP1 PUSH2 0xBDF SWAP2 SWAP1 PUSH2 0xCD5 JUMP JUMPDEST POP PUSH1 0x40 MLOAD DUP3 DUP2 MSTORE CALLER SWAP1 DUP5 SWAP1 PUSH32 0x6BDB975DF800A73232998E71ED585D536222F1DFEAA622D7F62A23ADA686C82 SWAP1 PUSH1 0x20 ADD PUSH2 0x3BC JUMP JUMPDEST PUSH0 PUSH1 0x20 DUP3 DUP5 SUB SLT ISZERO PUSH2 0xC24 JUMPI PUSH0 DUP1 REVERT JUMPDEST POP CALLDATALOAD SWAP2 SWAP1 POP JUMP JUMPDEST DUP1 CALLDATALOAD PUSH4 0xFFFFFFFF DUP2 AND DUP2 EQ PUSH2 0xC3E JUMPI PUSH0 DUP1 REVERT JUMPDEST SWAP2 SWAP1 POP JUMP JUMPDEST PUSH0 DUP1 PUSH0 PUSH1 0x60 DUP5 DUP7 SUB SLT ISZERO PUSH2 0xC55 JUMPI PUSH0 DUP1 REVERT JUMPDEST DUP4 CALLDATALOAD SWAP3 POP PUSH2 0xC65 PUSH1 0x20 DUP6 ADD PUSH2 0xC2B JUMP JUMPDEST SWAP2 POP PUSH2 0xC73 PUSH1 0x40 DUP6 ADD PUSH2 0xC2B JUMP JUMPDEST SWAP1 POP SWAP3 POP SWAP3 POP SWAP3 JUMP JUMPDEST PUSH0 DUP1 PUSH1 0x40 DUP4 DUP6 SUB SLT ISZERO PUSH2 0xC8D JUMPI PUSH0 DUP1 REVERT JUMPDEST POP POP DUP1 CALLDATALOAD SWAP3 PUSH1 0x20 SWAP1 SWAP2 ADD CALLDATALOAD SWAP2 POP JUMP JUMPDEST PUSH0 DUP1 PUSH1 0x40 DUP4 DUP6 SUB SLT ISZERO PUSH2 0xCAD JUMPI PUSH0 DUP1 REVERT JUMPDEST DUP3 CALLDATALOAD SWAP2 POP PUSH1 0x20 DUP4 ADD CALLDATALOAD PUSH1 0x1 PUSH1 0x1 PUSH1 0xA0 SHL SUB DUP2 AND DUP2 EQ PUSH2 0xCCA JUMPI PUSH0 DUP1 REVERT JUMPDEST DUP1 SWAP2 POP POP SWAP3 POP SWAP3 SWAP1 POP JUMP JUMPDEST PUSH0 PUSH1 0x20 DUP3 DUP5 SUB SLT ISZERO PUSH2 0xCE5 JUMPI PUSH0 DUP1 REVERT JUMPDEST DUP2 MLOAD DUP1 ISZERO ISZERO DUP2 EQ PUSH2 0xCF4 JUMPI PUSH0 DUP1 REVERT JUMPDEST SWAP4 SWAP3 POP POP POP JUMP JUMPDEST PUSH4 0x4E487B71 PUSH1 0xE0 SHL PUSH0 MSTORE PUSH1 0x11 PUSH1 0x4 MSTORE PUSH1 0x24 PUSH0 REVERT JUMPDEST PUSH4 0xFFFFFFFF DUP2 DUP2 AND DUP4 DUP3 AND ADD SWAP1 DUP1 DUP3 GT ISZERO PUSH2 0xD2C JUMPI PUSH2 0xD2C PUSH2 0xCFB JUMP JUMPDEST POP SWAP3 SWAP2 POP POP JUMP JUMPDEST DUP1 DUP3 ADD DUP1 DUP3 GT ISZERO PUSH2 0xD46 JUMPI PUSH2 0xD46 PUSH2 0xCFB JUMP JUMPDEST SWAP3 SWAP2 POP POP JUMP JUMPDEST DUP2 DUP2 SUB DUP2 DUP2 GT ISZERO PUSH2 0xD46 JUMPI PUSH2 0xD46 PUSH2 0xCFB JUMP INVALID LOG2 PUSH5 0x6970667358 0x22 SLT KECCAK256 DUP9 0x4C 0x4A INVALID 0xD3 PUSH27 0x4CAAC3A92CFCA2478683604B1E54E704D32E2F05657B73C440BA64 PUSH20 0x6F6C634300081700330000000000000000000000 "
				},
				"gasEstimates": {
					"creation": {
						"codeDepositCost": "695400",
						"executionCost": "infinite",
						"totalCost": "infinite"
					},
					"external": {
						"campaigns(uint256)": "9041",
						"cancel(uint256)": "68627",
						"claim(uint256)": "infinite",
						"count()": "2283",
						"launch(uint256,uint32,uint32)": "infinite",
						"pledge(uint256,uint256)": "infinite",
						"pledgedAmount(uint256,address)": "2617",
						"refund(uint256)": "infinite",
						"token()": "infinite",
						"unpledge(uint256,uint256)": "infinite"
					}
				},
				"methodIdentifiers": {
					"campaigns(uint256)": "141961bc",
					"cancel(uint256)": "40e58ee5",
					"claim(uint256)": "379607f5",
					"count()": "06661abd",
					"launch(uint256,uint32,uint32)": "2c63f146",
					"pledge(uint256,uint256)": "fde327be",
					"pledgedAmount(uint256,address)": "aa4fb63a",
					"refund(uint256)": "278ecde1",
					"token()": "fc0c546a",
					"unpledge(uint256,uint256)": "711853ab"
				}
			},
			"storageLayout": {
				"storage": [
					{
						"astId": 84,
						"contract": "demo1/60CrowdFund.sol:CrowdFund",
						"label": "count",
						"offset": 0,
						"slot": "0",
						"type": "t_uint256"
					},
					{
						"astId": 89,
						"contract": "demo1/60CrowdFund.sol:CrowdFund",
						"label": "campaigns",
						"offset": 0,
						"slot": "1",
						"type": "t_mapping(t_uint256,t_struct(Campaign)79_storage)"
					},
					{
						"astId": 95,
						"contract": "demo1/60CrowdFund.sol:CrowdFund",
						"label": "pledgedAmount",
						"offset": 0,
						"slot": "2",
						"type": "t_mapping(t_uint256,t_mapping(t_address,t_uint256))"
					}
				],
				"types": {
					"t_address": {
						"encoding": "inplace",
						"label": "address",
						"numberOfBytes": "20"
					},
					"t_bool": {
						"encoding": "inplace",
						"label": "bool",
						"numberOfBytes": "1"
					},
					"t_mapping(t_address,t_uint256)": {
						"encoding": "mapping",
						"key": "t_address",
						"label": "mapping(address => uint256)",
						"numberOfBytes": "32",
						"value": "t_uint256"
					},
					"t_mapping(t_uint256,t_mapping(t_address,t_uint256))": {
						"encoding": "mapping",
						"key": "t_uint256",
						"label": "mapping(uint256 => mapping(address => uint256))",
						"numberOfBytes": "32",
						"value": "t_mapping(t_address,t_uint256)"
					},
					"t_mapping(t_uint256,t_struct(Campaign)79_storage)": {
						"encoding": "mapping",
						"key": "t_uint256",
						"label": "mapping(uint256 => struct CrowdFund.Campaign)",
						"numberOfBytes": "32",
						"value": "t_struct(Campaign)79_storage"
					},
					"t_struct(Campaign)79_storage": {
						"encoding": "inplace",
						"label": "struct CrowdFund.Campaign",
						"members": [
							{
								"astId": 68,
								"contract": "demo1/60CrowdFund.sol:CrowdFund",
								"label": "creator",
								"offset": 0,
								"slot": "0",
								"type": "t_address"
							},
							{
								"astId": 70,
								"contract": "demo1/60CrowdFund.sol:CrowdFund",
								"label": "goal",
								"offset": 0,
								"slot": "1",
								"type": "t_uint256"
							},
							{
								"astId": 72,
								"contract": "demo1/60CrowdFund.sol:CrowdFund",
								"label": "pledged",
								"offset": 0,
								"slot": "2",
								"type": "t_uint256"
							},
							{
								"astId": 74,
								"contract": "demo1/60CrowdFund.sol:CrowdFund",
								"label": "startAt",
								"offset": 0,
								"slot": "3",
								"type": "t_uint32"
							},
							{
								"astId": 76,
								"contract": "demo1/60CrowdFund.sol:CrowdFund",
								"label": "endAt",
								"offset": 4,
								"slot": "3",
								"type": "t_uint32"
							},
							{
								"astId": 78,
								"contract": "demo1/60CrowdFund.sol:CrowdFund",
								"label": "claimed",
								"offset": 8,
								"slot": "3",
								"type": "t_bool"
							}
						],
						"numberOfBytes": "128"
					},
					"t_uint256": {
						"encoding": "inplace",
						"label": "uint256",
						"numberOfBytes": "32"
					},
					"t_uint32": {
						"encoding": "inplace",
						"label": "uint32",
						"numberOfBytes": "4"
					}
				}
			},
			"userdoc": {
				"kind": "user",
				"methods": {},
				"version": 1
			}
		}
	}
}