{
	"demo1/27Efficient.sol": {
		"Efficient": {
			"abi": [
				{
					"inputs": [
						{
							"internalType": "uint256",
							"name": "index",
							"type": "uint256"
						}
					],
					"name": "efficientRemove",
					"outputs": [],
					"stateMutability": "nonpayable",
					"type": "function"
				}
			],
			"devdoc": {
				"kind": "dev",
				"methods": {},
				"version": 1
			},
			"evm": {
				"assembly": "    /* \"demo1/27Efficient.sol\":86:106  uint[] arr = [1,2,4] */\n  0xe0\n    /* \"demo1/27Efficient.sol\":60:367  contract Efficient {... */\n  0x40\n    /* \"demo1/27Efficient.sol\":86:106  uint[] arr = [1,2,4] */\n  mstore\n    /* \"demo1/27Efficient.sol\":100:101  1 */\n  0x01\n    /* \"demo1/27Efficient.sol\":60:367  contract Efficient {... */\n  0x80\n    /* \"demo1/27Efficient.sol\":86:106  uint[] arr = [1,2,4] */\n  swap1\n  dup2\n  mstore\n    /* \"demo1/27Efficient.sol\":102:103  2 */\n  0x02\n    /* \"demo1/27Efficient.sol\":86:106  uint[] arr = [1,2,4] */\n  0xa0\n  mstore\n    /* \"demo1/27Efficient.sol\":104:105  4 */\n  0x04\n    /* \"demo1/27Efficient.sol\":86:106  uint[] arr = [1,2,4] */\n  0xc0\n  mstore\n  0x00\n  swap1\n  tag_1\n  swap1\n  dup3\n  tag_2\n  jump\t// in\ntag_1:\n  pop\n    /* \"demo1/27Efficient.sol\":60:367  contract Efficient {... */\n  callvalue\n  dup1\n  iszero\n  tag_3\n  jumpi\n  revert(0x00, 0x00)\ntag_3:\n  pop\n  jump(tag_7)\n    /* \"#utility.yul\":232:1045   */\ntag_2:\n    /* \"#utility.yul\":378:381   */\n  dup1\n    /* \"#utility.yul\":372:382   */\n  sload\n    /* \"#utility.yul\":403:407   */\n  0x03\n    /* \"#utility.yul\":398:401   */\n  dup3\n    /* \"#utility.yul\":391:408   */\n  sstore\n    /* \"#utility.yul\":429:435   */\n  dup1\n    /* \"#utility.yul\":423:427   */\n  0x03\n    /* \"#utility.yul\":420:436   */\n  lt\n    /* \"#utility.yul\":417:719   */\n  iszero\n  tag_11\n  jumpi\n    /* \"#utility.yul\":469:472   */\n  dup2\n    /* \"#utility.yul\":466:467   */\n  0x00\n    /* \"#utility.yul\":459:473   */\n  mstore\n    /* \"#utility.yul\":511:515   */\n  0x20\n    /* \"#utility.yul\":508:509   */\n  0x00\n    /* \"#utility.yul\":498:516   */\n  keccak256\n    /* \"#utility.yul\":555:556   */\n  0x02\n    /* \"#utility.yul\":551:557   */\n  not\n    /* \"#utility.yul\":543:549   */\n  dup3\n    /* \"#utility.yul\":539:558   */\n  add\n    /* \"#utility.yul\":580:581   */\n  0x00\n    /* \"#utility.yul\":594:709   */\ntag_12:\n    /* \"#utility.yul\":608:610   */\n  dup2\n    /* \"#utility.yul\":605:606   */\n  dup2\n    /* \"#utility.yul\":602:611   */\n  lt\n    /* \"#utility.yul\":594:709   */\n  iszero\n  tag_14\n  jumpi\n    /* \"#utility.yul\":693:694   */\n  0x00\n    /* \"#utility.yul\":672:684   */\n  dup4\n  dup3\n  add\n    /* \"#utility.yul\":686:690   */\n  0x03\n    /* \"#utility.yul\":668:691   */\n  add\n    /* \"#utility.yul\":661:695   */\n  sstore\n    /* \"#utility.yul\":626:627   */\n  0x01\n    /* \"#utility.yul\":619:628   */\n  add\n    /* \"#utility.yul\":594:709   */\n  jump(tag_12)\ntag_14:\n    /* \"#utility.yul\":598:601   */\n  pop\n  pop\n  pop\n    /* \"#utility.yul\":417:719   */\ntag_11:\n  pop\n    /* \"#utility.yul\":98:99   */\n  0x00\n    /* \"#utility.yul\":91:105   */\n  dup2\n  dup2\n  mstore\n    /* \"#utility.yul\":135:139   */\n  0x20\n    /* \"#utility.yul\":122:140   */\n  dup2\n  keccak256\n    /* \"#utility.yul\":742:745   */\n  dup4\n  swap2\n    /* \"#utility.yul\":844:1039   */\ntag_16:\n    /* \"#utility.yul\":860:864   */\n  0x03\n    /* \"#utility.yul\":855:858   */\n  dup2\n    /* \"#utility.yul\":852:865   */\n  lt\n    /* \"#utility.yul\":844:1039   */\n  iszero\n  tag_18\n  jumpi\n    /* \"#utility.yul\":935:948   */\n  dup3\n  mload\n    /* \"#utility.yul\":220:224   */\n  0xff\n    /* \"#utility.yul\":209:225   */\n  and\n    /* \"#utility.yul\":1007:1024   */\n  dup2\n  dup4\n  add\n    /* \"#utility.yul\":1000:1029   */\n  sstore\n    /* \"#utility.yul\":984:986   */\n  0x20\n    /* \"#utility.yul\":972:987   */\n  swap1\n  swap3\n  add\n  swap2\n    /* \"#utility.yul\":884:885   */\n  0x01\n    /* \"#utility.yul\":875:886   */\n  add\n    /* \"#utility.yul\":844:1039   */\n  jump(tag_16)\ntag_18:\n    /* \"#utility.yul\":848:851   */\n  pop\n  pop\n  pop\n    /* \"#utility.yul\":232:1045   */\n  pop\n  pop\n  jump\t// out\ntag_7:\n    /* \"demo1/27Efficient.sol\":60:367  contract Efficient {... */\n  dataSize(sub_0)\n  dup1\n  dataOffset(sub_0)\n  0x00\n  codecopy\n  0x00\n  return\nstop\n\nsub_0: assembly {\n        /* \"demo1/27Efficient.sol\":60:367  contract Efficient {... */\n      mstore(0x40, 0x80)\n      callvalue\n      dup1\n      iszero\n      tag_1\n      jumpi\n      revert(0x00, 0x00)\n    tag_1:\n      pop\n      jumpi(tag_2, lt(calldatasize, 0x04))\n      shr(0xe0, calldataload(0x00))\n      dup1\n      0x23f7e9ca\n      eq\n      tag_3\n      jumpi\n    tag_2:\n      revert(0x00, 0x00)\n        /* \"demo1/27Efficient.sol\":115:364  function efficientRemove(uint index) external {... */\n    tag_3:\n      tag_4\n      tag_5\n      calldatasize\n      0x04\n      tag_6\n      jump\t// in\n    tag_5:\n      tag_7\n      jump\t// in\n    tag_4:\n      stop\n    tag_7:\n        /* \"demo1/27Efficient.sol\":186:189  arr */\n      0x00\n        /* \"demo1/27Efficient.sol\":186:196  arr.length */\n      sload\n        /* \"demo1/27Efficient.sol\":180:196  index<arr.length */\n      dup2\n      lt\n        /* \"demo1/27Efficient.sol\":172:205  require(index<arr.length,\"error\") */\n      tag_9\n      jumpi\n      mload(0x40)\n      shl(0xe5, 0x461bcd)\n      dup2\n      mstore\n        /* \"#utility.yul\":401:403   */\n      0x20\n        /* \"demo1/27Efficient.sol\":172:205  require(index<arr.length,\"error\") */\n      0x04\n      dup3\n      add\n        /* \"#utility.yul\":383:404   */\n      mstore\n        /* \"#utility.yul\":440:441   */\n      0x05\n        /* \"#utility.yul\":420:438   */\n      0x24\n      dup3\n      add\n        /* \"#utility.yul\":413:442   */\n      mstore\n      shl(0xd9, 0x32b93937b9)\n        /* \"#utility.yul\":458:476   */\n      0x44\n      dup3\n      add\n        /* \"#utility.yul\":451:486   */\n      mstore\n        /* \"#utility.yul\":503:521   */\n      0x64\n      add\n        /* \"demo1/27Efficient.sol\":172:205  require(index<arr.length,\"error\") */\n      mload(0x40)\n      dup1\n      swap2\n      sub\n      swap1\n      revert\n    tag_9:\n        /* \"demo1/27Efficient.sol\":229:232  arr */\n      0x00\n        /* \"demo1/27Efficient.sol\":233:243  arr.length */\n      dup1\n      sload\n        /* \"demo1/27Efficient.sol\":233:245  arr.length-1 */\n      tag_12\n      swap1\n        /* \"demo1/27Efficient.sol\":244:245  1 */\n      0x01\n      swap1\n        /* \"demo1/27Efficient.sol\":233:245  arr.length-1 */\n      tag_13\n      jump\t// in\n    tag_12:\n        /* \"demo1/27Efficient.sol\":229:246  arr[arr.length-1] */\n      dup2\n      sload\n      dup2\n      lt\n      tag_15\n      jumpi\n      tag_15\n      tag_16\n      jump\t// in\n    tag_15:\n      swap1\n      0x00\n      mstore\n      keccak256(0x00, 0x20)\n      add\n      sload\n        /* \"demo1/27Efficient.sol\":216:219  arr */\n      0x00\n        /* \"demo1/27Efficient.sol\":220:225  index */\n      dup3\n        /* \"demo1/27Efficient.sol\":216:226  arr[index] */\n      dup2\n      sload\n      dup2\n      lt\n      tag_19\n      jumpi\n      tag_19\n      tag_16\n      jump\t// in\n    tag_19:\n      swap1\n      0x00\n      mstore\n      keccak256(0x00, 0x20)\n      add\n        /* \"demo1/27Efficient.sol\":216:246  arr[index] = arr[arr.length-1] */\n      dup2\n      swap1\n      sstore\n      pop\n        /* \"demo1/27Efficient.sol\":257:260  arr */\n      0x00\n        /* \"demo1/27Efficient.sol\":257:266  arr.pop() */\n      dup1\n      sload\n      dup1\n      tag_22\n      jumpi\n      tag_22\n      tag_23\n      jump\t// in\n    tag_22:\n      0x01\n      swap1\n      sub\n      dup2\n      dup2\n      swap1\n      0x00\n      mstore\n      keccak256(0x00, 0x20)\n      add\n      0x00\n      swap1\n      sstore\n      swap1\n      sstore\n        /* \"demo1/27Efficient.sol\":286:289  arr */\n      0x00\n        /* \"demo1/27Efficient.sol\":286:296  arr.length */\n      dup1\n      sload\n      swap1\n      pop\n        /* \"demo1/27Efficient.sol\":298:299  2 */\n      0x02\n        /* \"demo1/27Efficient.sol\":286:299  arr.length==2 */\n      eq\n        /* \"demo1/27Efficient.sol\":279:300  assert(arr.length==2) */\n      tag_26\n      jumpi\n      tag_26\n      tag_27\n      jump\t// in\n    tag_26:\n        /* \"demo1/27Efficient.sol\":318:321  arr */\n      0x00\n        /* \"demo1/27Efficient.sol\":322:323  0 */\n      0x00\n        /* \"demo1/27Efficient.sol\":318:324  arr[0] */\n      dup2\n      sload\n      dup2\n      lt\n      tag_29\n      jumpi\n      tag_29\n      tag_16\n      jump\t// in\n    tag_29:\n      swap1\n      0x00\n      mstore\n      keccak256(0x00, 0x20)\n      add\n      sload\n        /* \"demo1/27Efficient.sol\":326:327  4 */\n      0x04\n        /* \"demo1/27Efficient.sol\":318:327  arr[0]==4 */\n      eq\n        /* \"demo1/27Efficient.sol\":311:328  assert(arr[0]==4) */\n      tag_32\n      jumpi\n      tag_32\n      tag_27\n      jump\t// in\n    tag_32:\n        /* \"demo1/27Efficient.sol\":346:349  arr */\n      0x00\n        /* \"demo1/27Efficient.sol\":350:351  1 */\n      0x01\n        /* \"demo1/27Efficient.sol\":346:352  arr[1] */\n      dup2\n      sload\n      dup2\n      lt\n      tag_34\n      jumpi\n      tag_34\n      tag_16\n      jump\t// in\n    tag_34:\n      swap1\n      0x00\n      mstore\n      keccak256(0x00, 0x20)\n      add\n      sload\n        /* \"demo1/27Efficient.sol\":354:355  2 */\n      0x02\n        /* \"demo1/27Efficient.sol\":346:355  arr[1]==2 */\n      eq\n        /* \"demo1/27Efficient.sol\":339:356  assert(arr[1]==2) */\n      tag_37\n      jumpi\n      tag_37\n      tag_27\n      jump\t// in\n    tag_37:\n        /* \"demo1/27Efficient.sol\":115:364  function efficientRemove(uint index) external {... */\n      pop\n      jump\t// out\n        /* \"#utility.yul\":14:194   */\n    tag_6:\n        /* \"#utility.yul\":73:79   */\n      0x00\n        /* \"#utility.yul\":126:128   */\n      0x20\n        /* \"#utility.yul\":114:123   */\n      dup3\n        /* \"#utility.yul\":105:112   */\n      dup5\n        /* \"#utility.yul\":101:124   */\n      sub\n        /* \"#utility.yul\":97:129   */\n      slt\n        /* \"#utility.yul\":94:146   */\n      iszero\n      tag_40\n      jumpi\n        /* \"#utility.yul\":142:143   */\n      0x00\n        /* \"#utility.yul\":139:140   */\n      0x00\n        /* \"#utility.yul\":132:144   */\n      revert\n        /* \"#utility.yul\":94:146   */\n    tag_40:\n      pop\n        /* \"#utility.yul\":165:188   */\n      calldataload\n      swap2\n        /* \"#utility.yul\":14:194   */\n      swap1\n      pop\n      jump\t// out\n        /* \"#utility.yul\":532:757   */\n    tag_13:\n        /* \"#utility.yul\":599:608   */\n      dup2\n      dup2\n      sub\n        /* \"#utility.yul\":620:631   */\n      dup2\n      dup2\n      gt\n        /* \"#utility.yul\":617:751   */\n      iszero\n      tag_43\n      jumpi\n        /* \"#utility.yul\":673:683   */\n      0x4e487b71\n        /* \"#utility.yul\":668:671   */\n      0xe0\n        /* \"#utility.yul\":664:684   */\n      shl\n        /* \"#utility.yul\":661:662   */\n      0x00\n        /* \"#utility.yul\":654:685   */\n      mstore\n        /* \"#utility.yul\":708:712   */\n      0x11\n        /* \"#utility.yul\":705:706   */\n      0x04\n        /* \"#utility.yul\":698:713   */\n      mstore\n        /* \"#utility.yul\":736:740   */\n      0x24\n        /* \"#utility.yul\":733:734   */\n      0x00\n        /* \"#utility.yul\":726:741   */\n      revert\n        /* \"#utility.yul\":617:751   */\n    tag_43:\n        /* \"#utility.yul\":532:757   */\n      swap3\n      swap2\n      pop\n      pop\n      jump\t// out\n        /* \"#utility.yul\":762:889   */\n    tag_16:\n        /* \"#utility.yul\":823:833   */\n      0x4e487b71\n        /* \"#utility.yul\":818:821   */\n      0xe0\n        /* \"#utility.yul\":814:834   */\n      shl\n        /* \"#utility.yul\":811:812   */\n      0x00\n        /* \"#utility.yul\":804:835   */\n      mstore\n        /* \"#utility.yul\":854:858   */\n      0x32\n        /* \"#utility.yul\":851:852   */\n      0x04\n        /* \"#utility.yul\":844:859   */\n      mstore\n        /* \"#utility.yul\":878:882   */\n      0x24\n        /* \"#utility.yul\":875:876   */\n      0x00\n        /* \"#utility.yul\":868:883   */\n      revert\n        /* \"#utility.yul\":894:1021   */\n    tag_23:\n        /* \"#utility.yul\":955:965   */\n      0x4e487b71\n        /* \"#utility.yul\":950:953   */\n      0xe0\n        /* \"#utility.yul\":946:966   */\n      shl\n        /* \"#utility.yul\":943:944   */\n      0x00\n        /* \"#utility.yul\":936:967   */\n      mstore\n        /* \"#utility.yul\":986:990   */\n      0x31\n        /* \"#utility.yul\":983:984   */\n      0x04\n        /* \"#utility.yul\":976:991   */\n      mstore\n        /* \"#utility.yul\":1010:1014   */\n      0x24\n        /* \"#utility.yul\":1007:1008   */\n      0x00\n        /* \"#utility.yul\":1000:1015   */\n      revert\n        /* \"#utility.yul\":1026:1153   */\n    tag_27:\n        /* \"#utility.yul\":1087:1097   */\n      0x4e487b71\n        /* \"#utility.yul\":1082:1085   */\n      0xe0\n        /* \"#utility.yul\":1078:1098   */\n      shl\n        /* \"#utility.yul\":1075:1076   */\n      0x00\n        /* \"#utility.yul\":1068:1099   */\n      mstore\n        /* \"#utility.yul\":1118:1122   */\n      0x01\n        /* \"#utility.yul\":1115:1116   */\n      0x04\n        /* \"#utility.yul\":1108:1123   */\n      mstore\n        /* \"#utility.yul\":1142:1146   */\n      0x24\n        /* \"#utility.yul\":1139:1140   */\n      0x00\n        /* \"#utility.yul\":1132:1147   */\n      revert\n\n    auxdata: 0xa2646970667358221220bc6b0d431fe0eef1be773c1d236195ec09eda3f2da40a9515b28c67c1b99f2a864736f6c63430008210033\n}\n",
				"bytecode": {
					"linkReferences": {},
					"object": "60e060405260016080908152600260a052600460c0525f90601f9082602f565b50348015602a575f5ffd5b506096565b8054600382558060031015606557815f5260205f2060021982015f5b818110156061575f83820160030155600101604b565b5050505b505f8181526020812083915b6003811015608f57825160ff16818301556020909201916001016071565b5050505050565b610201806100a35f395ff3fe608060405234801561000f575f5ffd5b5060043610610029575f3560e01c806323f7e9ca1461002d575b5f5ffd5b61004061003b366004610153565b610042565b005b5f54811061007e5760405162461bcd60e51b815260206004820152600560248201526432b93937b960d91b604482015260640160405180910390fd5b5f805461008d9060019061016a565b8154811061009d5761009d61018f565b905f5260205f2001545f82815481106100b8576100b861018f565b905f5260205f2001819055505f8054806100d4576100d46101a3565b600190038181905f5260205f20015f905590555f805490506002146100fb576100fb6101b7565b5f5f8154811061010d5761010d61018f565b905f5260205f200154600414610125576101256101b7565b5f6001815481106101385761013861018f565b905f5260205f200154600214610150576101506101b7565b50565b5f60208284031215610163575f5ffd5b5035919050565b8181038181111561018957634e487b7160e01b5f52601160045260245ffd5b92915050565b634e487b7160e01b5f52603260045260245ffd5b634e487b7160e01b5f52603160045260245ffd5b634e487b7160e01b5f52600160045260245ffdfea2646970667358221220bc6b0d431fe0eef1be773c1d236195ec09eda3f2da40a9515b28c67c1b99f2a864736f6c63430008210033",
					"opcodes": "PUSH1 0xE0 PUSH1 0x40 MSTORE PUSH1 0x1 PUSH1 0x80 SWAP1 DUP2 MSTORE PUSH1 0x2 PUSH1 0xA0 MSTORE PUSH1 0x4 PUSH1 0xC0 MSTORE PUSH0 SWAP1 PUSH1 0x1F SWAP1 DUP3 PUSH1 0x2F JUMP JUMPDEST POP CALLVALUE DUP1 ISZERO PUSH1 0x2A JUMPI PUSH0 PUSH0 REVERT JUMPDEST POP PUSH1 0x96 JUMP JUMPDEST DUP1 SLOAD PUSH1 0x3 DUP3 SSTORE DUP1 PUSH1 0x3 LT ISZERO PUSH1 0x65 JUMPI DUP2 PUSH0 MSTORE PUSH1 0x20 PUSH0 KECCAK256 PUSH1 0x2 NOT DUP3 ADD PUSH0 JUMPDEST DUP2 DUP2 LT ISZERO PUSH1 0x61 JUMPI PUSH0 DUP4 DUP3 ADD PUSH1 0x3 ADD SSTORE PUSH1 0x1 ADD PUSH1 0x4B JUMP JUMPDEST POP POP POP JUMPDEST POP PUSH0 DUP2 DUP2 MSTORE PUSH1 0x20 DUP2 KECCAK256 DUP4 SWAP2 JUMPDEST PUSH1 0x3 DUP2 LT ISZERO PUSH1 0x8F JUMPI DUP3 MLOAD PUSH1 0xFF AND DUP2 DUP4 ADD SSTORE PUSH1 0x20 SWAP1 SWAP3 ADD SWAP2 PUSH1 0x1 ADD PUSH1 0x71 JUMP JUMPDEST POP POP POP POP POP JUMP JUMPDEST PUSH2 0x201 DUP1 PUSH2 0xA3 PUSH0 CODECOPY PUSH0 RETURN INVALID PUSH1 0x80 PUSH1 0x40 MSTORE CALLVALUE DUP1 ISZERO PUSH2 0xF JUMPI PUSH0 PUSH0 REVERT JUMPDEST POP PUSH1 0x4 CALLDATASIZE LT PUSH2 0x29 JUMPI PUSH0 CALLDATALOAD PUSH1 0xE0 SHR DUP1 PUSH4 0x23F7E9CA EQ PUSH2 0x2D JUMPI JUMPDEST PUSH0 PUSH0 REVERT JUMPDEST PUSH2 0x40 PUSH2 0x3B CALLDATASIZE PUSH1 0x4 PUSH2 0x153 JUMP JUMPDEST PUSH2 0x42 JUMP JUMPDEST STOP JUMPDEST PUSH0 SLOAD DUP2 LT PUSH2 0x7E JUMPI PUSH1 0x40 MLOAD PUSH3 0x461BCD PUSH1 0xE5 SHL DUP2 MSTORE PUSH1 0x20 PUSH1 0x4 DUP3 ADD MSTORE PUSH1 0x5 PUSH1 0x24 DUP3 ADD MSTORE PUSH5 0x32B93937B9 PUSH1 0xD9 SHL PUSH1 0x44 DUP3 ADD MSTORE PUSH1 0x64 ADD PUSH1 0x40 MLOAD DUP1 SWAP2 SUB SWAP1 REVERT JUMPDEST PUSH0 DUP1 SLOAD PUSH2 0x8D SWAP1 PUSH1 0x1 SWAP1 PUSH2 0x16A JUMP JUMPDEST DUP2 SLOAD DUP2 LT PUSH2 0x9D JUMPI PUSH2 0x9D PUSH2 0x18F JUMP JUMPDEST SWAP1 PUSH0 MSTORE PUSH1 0x20 PUSH0 KECCAK256 ADD SLOAD PUSH0 DUP3 DUP2 SLOAD DUP2 LT PUSH2 0xB8 JUMPI PUSH2 0xB8 PUSH2 0x18F JUMP JUMPDEST SWAP1 PUSH0 MSTORE PUSH1 0x20 PUSH0 KECCAK256 ADD DUP2 SWAP1 SSTORE POP PUSH0 DUP1 SLOAD DUP1 PUSH2 0xD4 JUMPI PUSH2 0xD4 PUSH2 0x1A3 JUMP JUMPDEST PUSH1 0x1 SWAP1 SUB DUP2 DUP2 SWAP1 PUSH0 MSTORE PUSH1 0x20 PUSH0 KECCAK256 ADD PUSH0 SWAP1 SSTORE SWAP1 SSTORE PUSH0 DUP1 SLOAD SWAP1 POP PUSH1 0x2 EQ PUSH2 0xFB JUMPI PUSH2 0xFB PUSH2 0x1B7 JUMP JUMPDEST PUSH0 PUSH0 DUP2 SLOAD DUP2 LT PUSH2 0x10D JUMPI PUSH2 0x10D PUSH2 0x18F JUMP JUMPDEST SWAP1 PUSH0 MSTORE PUSH1 0x20 PUSH0 KECCAK256 ADD SLOAD PUSH1 0x4 EQ PUSH2 0x125 JUMPI PUSH2 0x125 PUSH2 0x1B7 JUMP JUMPDEST PUSH0 PUSH1 0x1 DUP2 SLOAD DUP2 LT PUSH2 0x138 JUMPI PUSH2 0x138 PUSH2 0x18F JUMP JUMPDEST SWAP1 PUSH0 MSTORE PUSH1 0x20 PUSH0 KECCAK256 ADD SLOAD PUSH1 0x2 EQ PUSH2 0x150 JUMPI PUSH2 0x150 PUSH2 0x1B7 JUMP JUMPDEST POP JUMP JUMPDEST PUSH0 PUSH1 0x20 DUP3 DUP5 SUB SLT ISZERO PUSH2 0x163 JUMPI PUSH0 PUSH0 REVERT JUMPDEST POP CALLDATALOAD SWAP2 SWAP1 POP JUMP JUMPDEST DUP2 DUP2 SUB DUP2 DUP2 GT ISZERO PUSH2 0x189 JUMPI PUSH4 0x4E487B71 PUSH1 0xE0 SHL PUSH0 MSTORE PUSH1 0x11 PUSH1 0x4 MSTORE PUSH1 0x24 PUSH0 REVERT JUMPDEST SWAP3 SWAP2 POP POP JUMP JUMPDEST PUSH4 0x4E487B71 PUSH1 0xE0 SHL PUSH0 MSTORE PUSH1 0x32 PUSH1 0x4 MSTORE PUSH1 0x24 PUSH0 REVERT JUMPDEST PUSH4 0x4E487B71 PUSH1 0xE0 SHL PUSH0 MSTORE PUSH1 0x31 PUSH1 0x4 MSTORE PUSH1 0x24 PUSH0 REVERT JUMPDEST PUSH4 0x4E487B71 PUSH1 0xE0 SHL PUSH0 MSTORE PUSH1 0x1 PUSH1 0x4 MSTORE PUSH1 0x24 PUSH0 REVERT INVALID LOG2 PUSH5 0x6970667358 0x22 SLT KECCAK256 0xBC PUSH12 0xD431FE0EEF1BE773C1D2361 SWAP6 EOFCREATE 0x9 0xED LOG3 CALLCODE 0xDA BLOCKHASH 0xA9 MLOAD JUMPDEST 0x28 0xC6 PUSH29 0x1B99F2A864736F6C634300082100330000000000000000000000000000 "
				},
				"gasEstimates": {
					"creation": {
						"codeDepositCost": "102600",
						"executionCost": "infinite",
						"totalCost": "infinite"
					},
					"external": {
						"efficientRemove(uint256)": "73124"
					}
				},
				"methodIdentifiers": {
					"efficientRemove(uint256)": "23f7e9ca"
				}
			},
			"storageLayout": {
				"storage": [
					{
						"astId": 8,
						"contract": "demo1/27Efficient.sol:Efficient",
						"label": "arr",
						"offset": 0,
						"slot": "0",
						"type": "t_array(t_uint256)dyn_storage"
					}
				],
				"types": {
					"t_array(t_uint256)dyn_storage": {
						"base": "t_uint256",
						"encoding": "dynamic_array",
						"label": "uint256[]",
						"numberOfBytes": "32"
					},
					"t_uint256": {
						"encoding": "inplace",
						"label": "uint256",
						"numberOfBytes": "32"
					}
				}
			},
			"userdoc": {
				"kind": "user",
				"methods": {},
				"version": 1
			}
		}
	}
}