{
	"demo1/39test1.sol": {
		"Test": {
			"abi": [
				{
					"inputs": [],
					"name": "adds1",
					"outputs": [
						{
							"internalType": "address",
							"name": "",
							"type": "address"
						}
					],
					"stateMutability": "view",
					"type": "function"
				},
				{
					"inputs": [],
					"name": "adds2",
					"outputs": [
						{
							"internalType": "address",
							"name": "",
							"type": "address"
						}
					],
					"stateMutability": "view",
					"type": "function"
				}
			],
			"devdoc": {
				"kind": "dev",
				"methods": {},
				"version": 1
			},
			"evm": {
				"assembly": "    /* \"demo1/39test1.sol\":60:159  contract Test {... */\n  mstore(0x40, 0x80)\n    /* \"demo1/39test1.sol\":81:115  address public adds1=address(this) */\n  0x00\n  dup1\n  sload\n  not(sub(shl(0xa0, 0x01), 0x01))\n  swap1\n  dup2\n  and\n    /* \"demo1/39test1.sol\":110:114  this */\n  address\n    /* \"demo1/39test1.sol\":81:115  address public adds1=address(this) */\n  or\n  swap1\n  swap2\n  sstore\n  0x01\n    /* \"demo1/39test1.sol\":124:155  address public adds2=msg.sender */\n  dup1\n  sload\n  swap1\n  swap2\n  and\n    /* \"demo1/39test1.sol\":145:155  msg.sender */\n  caller\n    /* \"demo1/39test1.sol\":124:155  address public adds2=msg.sender */\n  or\n  swap1\n  sstore\n    /* \"demo1/39test1.sol\":60:159  contract Test {... */\n  callvalue\n  dup1\n  iszero\n  tag_1\n  jumpi\n  revert(0x00, 0x00)\ntag_1:\n  pop\n  dataSize(sub_0)\n  dup1\n  dataOffset(sub_0)\n  0x00\n  codecopy\n  0x00\n  return\nstop\n\nsub_0: assembly {\n        /* \"demo1/39test1.sol\":60:159  contract Test {... */\n      mstore(0x40, 0x80)\n      callvalue\n      dup1\n      iszero\n      tag_1\n      jumpi\n      revert(0x00, 0x00)\n    tag_1:\n      pop\n      jumpi(tag_2, lt(calldatasize, 0x04))\n      shr(0xe0, calldataload(0x00))\n      dup1\n      0x33b34ed5\n      eq\n      tag_3\n      jumpi\n      dup1\n      0xef305d55\n      eq\n      tag_4\n      jumpi\n    tag_2:\n      revert(0x00, 0x00)\n        /* \"demo1/39test1.sol\":124:155  address public adds2=msg.sender */\n    tag_3:\n      sload(0x01)\n      tag_5\n      swap1\n      sub(shl(0xa0, 0x01), 0x01)\n      and\n      dup2\n      jump\n    tag_5:\n      mload(0x40)\n      sub(shl(0xa0, 0x01), 0x01)\n        /* \"#utility.yul\":178:210   */\n      swap1\n      swap2\n      and\n        /* \"#utility.yul\":160:211   */\n      dup2\n      mstore\n        /* \"#utility.yul\":148:150   */\n      0x20\n        /* \"#utility.yul\":133:151   */\n      add\n        /* \"demo1/39test1.sol\":124:155  address public adds2=msg.sender */\n      mload(0x40)\n      dup1\n      swap2\n      sub\n      swap1\n      return\n        /* \"demo1/39test1.sol\":81:115  address public adds1=address(this) */\n    tag_4:\n      sload(0x00)\n      tag_5\n      swap1\n      sub(shl(0xa0, 0x01), 0x01)\n      and\n      dup2\n      jump\n\n    auxdata: 0xa26469706673582212200668bd245b08caf7f549a004b7c0e283170f26033476b73f2275d02a0822b69f64736f6c634300081f0033\n}\n",
				"bytecode": {
					"linkReferences": {},
					"object": "60806040525f80546001600160a01b031990811630179091556001805490911633179055348015602d575f5ffd5b5060a98060395f395ff3fe6080604052348015600e575f5ffd5b50600436106030575f3560e01c806333b34ed5146034578063ef305d55146062575b5f5ffd5b6001546046906001600160a01b031681565b6040516001600160a01b03909116815260200160405180910390f35b5f546046906001600160a01b03168156fea26469706673582212200668bd245b08caf7f549a004b7c0e283170f26033476b73f2275d02a0822b69f64736f6c634300081f0033",
					"opcodes": "PUSH1 0x80 PUSH1 0x40 MSTORE PUSH0 DUP1 SLOAD PUSH1 0x1 PUSH1 0x1 PUSH1 0xA0 SHL SUB NOT SWAP1 DUP2 AND ADDRESS OR SWAP1 SWAP2 SSTORE PUSH1 0x1 DUP1 SLOAD SWAP1 SWAP2 AND CALLER OR SWAP1 SSTORE CALLVALUE DUP1 ISZERO PUSH1 0x2D JUMPI PUSH0 PUSH0 REVERT JUMPDEST POP PUSH1 0xA9 DUP1 PUSH1 0x39 PUSH0 CODECOPY PUSH0 RETURN INVALID PUSH1 0x80 PUSH1 0x40 MSTORE CALLVALUE DUP1 ISZERO PUSH1 0xE JUMPI PUSH0 PUSH0 REVERT JUMPDEST POP PUSH1 0x4 CALLDATASIZE LT PUSH1 0x30 JUMPI PUSH0 CALLDATALOAD PUSH1 0xE0 SHR DUP1 PUSH4 0x33B34ED5 EQ PUSH1 0x34 JUMPI DUP1 PUSH4 0xEF305D55 EQ PUSH1 0x62 JUMPI JUMPDEST PUSH0 PUSH0 REVERT JUMPDEST PUSH1 0x1 SLOAD PUSH1 0x46 SWAP1 PUSH1 0x1 PUSH1 0x1 PUSH1 0xA0 SHL SUB AND DUP2 JUMP JUMPDEST PUSH1 0x40 MLOAD PUSH1 0x1 PUSH1 0x1 PUSH1 0xA0 SHL SUB SWAP1 SWAP2 AND DUP2 MSTORE PUSH1 0x20 ADD PUSH1 0x40 MLOAD DUP1 SWAP2 SUB SWAP1 RETURN JUMPDEST PUSH0 SLOAD PUSH1 0x46 SWAP1 PUSH1 0x1 PUSH1 0x1 PUSH1 0xA0 SHL SUB AND DUP2 JUMP INVALID LOG2 PUSH5 0x6970667358 0x22 SLT KECCAK256 MOD PUSH9 0xBD245B08CAF7F549A0 DIV 0xB7 0xC0 0xE2 DUP4 OR 0xF 0x26 SUB CALLVALUE PUSH23 0xB73F2275D02A0822B69F64736F6C634300081F00330000 "
				},
				"gasEstimates": {
					"creation": {
						"codeDepositCost": "33800",
						"executionCost": "48551",
						"totalCost": "82351"
					},
					"external": {
						"adds1()": "2323",
						"adds2()": "2302"
					}
				},
				"methodIdentifiers": {
					"adds1()": "ef305d55",
					"adds2()": "33b34ed5"
				}
			},
			"storageLayout": {
				"storage": [
					{
						"astId": 7,
						"contract": "demo1/39test1.sol:Test",
						"label": "adds1",
						"offset": 0,
						"slot": "0",
						"type": "t_address"
					},
					{
						"astId": 11,
						"contract": "demo1/39test1.sol:Test",
						"label": "adds2",
						"offset": 0,
						"slot": "1",
						"type": "t_address"
					}
				],
				"types": {
					"t_address": {
						"encoding": "inplace",
						"label": "address",
						"numberOfBytes": "20"
					}
				}
			},
			"userdoc": {
				"kind": "user",
				"methods": {},
				"version": 1
			}
		}
	}
}