{
	"demo1/20Error.sol": {
		"Error": {
			"abi": [
				{
					"inputs": [
						{
							"internalType": "address",
							"name": "add",
							"type": "address"
						},
						{
							"internalType": "uint256",
							"name": "i",
							"type": "uint256"
						}
					],
					"name": "MyError",
					"type": "error"
				},
				{
					"inputs": [],
					"name": "asse",
					"outputs": [],
					"stateMutability": "view",
					"type": "function"
				},
				{
					"inputs": [],
					"name": "num",
					"outputs": [
						{
							"internalType": "uint256",
							"name": "",
							"type": "uint256"
						}
					],
					"stateMutability": "view",
					"type": "function"
				},
				{
					"inputs": [
						{
							"internalType": "uint256",
							"name": "i",
							"type": "uint256"
						}
					],
					"name": "req",
					"outputs": [],
					"stateMutability": "pure",
					"type": "function"
				},
				{
					"inputs": [
						{
							"internalType": "uint256",
							"name": "i",
							"type": "uint256"
						}
					],
					"name": "req2",
					"outputs": [],
					"stateMutability": "nonpayable",
					"type": "function"
				},
				{
					"inputs": [
						{
							"internalType": "uint256",
							"name": "i",
							"type": "uint256"
						}
					],
					"name": "req3",
					"outputs": [],
					"stateMutability": "view",
					"type": "function"
				},
				{
					"inputs": [
						{
							"internalType": "uint256",
							"name": "i",
							"type": "uint256"
						}
					],
					"name": "rev",
					"outputs": [
						{
							"internalType": "uint256",
							"name": "",
							"type": "uint256"
						}
					],
					"stateMutability": "pure",
					"type": "function"
				}
			],
			"devdoc": {
				"kind": "dev",
				"methods": {},
				"version": 1
			},
			"evm": {
				"assembly": "    /* \"demo1/20Error.sol\":60:775  contract Error {... */\n  mstore(0x40, 0x80)\n    /* \"demo1/20Error.sol\":386:389  123 */\n  0x7b\n    /* \"demo1/20Error.sol\":370:389  uint public num=123 */\n  0x00\n  sstore\n    /* \"demo1/20Error.sol\":60:775  contract Error {... */\n  callvalue\n  dup1\n  iszero\n  tag_1\n  jumpi\n  revert(0x00, 0x00)\ntag_1:\n  pop\n  dataSize(sub_0)\n  dup1\n  dataOffset(sub_0)\n  0x00\n  codecopy\n  0x00\n  return\nstop\n\nsub_0: assembly {\n        /* \"demo1/20Error.sol\":60:775  contract Error {... */\n      mstore(0x40, 0x80)\n      callvalue\n      dup1\n      iszero\n      tag_1\n      jumpi\n      revert(0x00, 0x00)\n    tag_1:\n      pop\n      jumpi(tag_2, lt(calldatasize, 0x04))\n      shr(0xe0, calldataload(0x00))\n      dup1\n      0xe39ee7\n      eq\n      tag_3\n      jumpi\n      dup1\n      0x4e70b1dc\n      eq\n      tag_4\n      jumpi\n      dup1\n      0x623bcb7b\n      eq\n      tag_5\n      jumpi\n      dup1\n      0x7567f9bf\n      eq\n      tag_6\n      jumpi\n      dup1\n      0xb7bb2967\n      eq\n      tag_7\n      jumpi\n      dup1\n      0xe9cb77f5\n      eq\n      tag_8\n      jumpi\n    tag_2:\n      revert(0x00, 0x00)\n        /* \"demo1/20Error.sol\":593:772  function req3(uint i)public view {... */\n    tag_3:\n      tag_9\n      tag_10\n      calldatasize\n      0x04\n      tag_11\n      jump\t// in\n    tag_10:\n      tag_12\n      jump\t// in\n    tag_9:\n      stop\n        /* \"demo1/20Error.sol\":370:389  uint public num=123 */\n    tag_4:\n      tag_13\n      sload(0x00)\n      dup2\n      jump\n    tag_13:\n      mload(0x40)\n        /* \"#utility.yul\":345:370   */\n      swap1\n      dup2\n      mstore\n        /* \"#utility.yul\":333:335   */\n      0x20\n        /* \"#utility.yul\":318:336   */\n      add\n        /* \"demo1/20Error.sol\":370:389  uint public num=123 */\n      mload(0x40)\n      dup1\n      swap2\n      sub\n      swap1\n      return\n        /* \"demo1/20Error.sol\":164:362  function rev(uint i) public pure returns (uint){... */\n    tag_5:\n      tag_13\n      tag_18\n      calldatasize\n      0x04\n      tag_11\n      jump\t// in\n    tag_18:\n      tag_19\n      jump\t// in\n        /* \"demo1/20Error.sol\":466:543  function req2(uint i)public {... */\n    tag_6:\n      tag_9\n      tag_22\n      calldatasize\n      0x04\n      tag_11\n      jump\t// in\n    tag_22:\n      tag_23\n      jump\t// in\n        /* \"demo1/20Error.sol\":82:156  function req(uint i)public pure {... */\n    tag_7:\n      tag_9\n      tag_25\n      calldatasize\n      0x04\n      tag_11\n      jump\t// in\n    tag_25:\n      tag_26\n      jump\t// in\n        /* \"demo1/20Error.sol\":396:458  function asse()public view {... */\n    tag_8:\n      tag_9\n      tag_28\n      jump\t// in\n        /* \"demo1/20Error.sol\":593:772  function req3(uint i)public view {... */\n    tag_12:\n        /* \"demo1/20Error.sol\":644:665  MyError(msg.sender,i) */\n      mload(0x40)\n      shl(0xe3, 0x1c473377)\n      dup2\n      mstore\n        /* \"demo1/20Error.sol\":652:662  msg.sender */\n      caller\n        /* \"demo1/20Error.sol\":644:665  MyError(msg.sender,i) */\n      0x04\n      dup3\n      add\n        /* \"#utility.yul\":555:606   */\n      mstore\n        /* \"#utility.yul\":622:640   */\n      0x24\n      dup2\n      add\n        /* \"#utility.yul\":615:649   */\n      dup3\n      swap1\n      mstore\n        /* \"#utility.yul\":528:546   */\n      0x44\n      add\n        /* \"demo1/20Error.sol\":644:665  MyError(msg.sender,i) */\n    tag_30:\n      mload(0x40)\n      dup1\n      swap2\n      sub\n      swap1\n      revert\n        /* \"demo1/20Error.sol\":164:362  function rev(uint i) public pure returns (uint){... */\n    tag_19:\n        /* \"demo1/20Error.sol\":206:210  uint */\n      0x00\n        /* \"demo1/20Error.sol\":228:229  2 */\n      0x02\n        /* \"demo1/20Error.sol\":226:227  i */\n      dup3\n        /* \"demo1/20Error.sol\":226:229  i>2 */\n      gt\n        /* \"demo1/20Error.sol\":222:336  if (i>2){... */\n      iszero\n      tag_34\n      jumpi\n        /* \"demo1/20Error.sol\":250:252  10 */\n      0x0a\n        /* \"demo1/20Error.sol\":248:249  i */\n      dup3\n        /* \"demo1/20Error.sol\":248:252  i>10 */\n      gt\n        /* \"demo1/20Error.sol\":245:302  if(i>10){... */\n      iszero\n      tag_34\n      jumpi\n        /* \"demo1/20Error.sol\":272:286  revert(\"i>10\") */\n      mload(0x40)\n      shl(0xe5, 0x461bcd)\n      dup2\n      mstore\n      0x04\n      add\n      tag_30\n      swap1\n        /* \"#utility.yul\":862:864   */\n      0x20\n        /* \"#utility.yul\":844:865   */\n      dup1\n      dup3\n      mstore\n        /* \"#utility.yul\":901:902   */\n      0x04\n        /* \"#utility.yul\":881:899   */\n      swap1\n      dup3\n      add\n        /* \"#utility.yul\":874:903   */\n      mstore\n      shl(0xe4, 0x0693e313)\n        /* \"#utility.yul\":934:936   */\n      0x40\n        /* \"#utility.yul\":919:937   */\n      dup3\n      add\n        /* \"#utility.yul\":912:946   */\n      mstore\n        /* \"#utility.yul\":978:980   */\n      0x60\n        /* \"#utility.yul\":963:981   */\n      add\n      swap1\n        /* \"#utility.yul\":660:987   */\n      jump\n        /* \"demo1/20Error.sol\":245:302  if(i>10){... */\n    tag_34:\n      pop\n        /* \"demo1/20Error.sol\":323:324  i */\n      swap1\n        /* \"demo1/20Error.sol\":164:362  function rev(uint i) public pure returns (uint){... */\n      jump\t// out\n        /* \"demo1/20Error.sol\":466:543  function req2(uint i)public {... */\n    tag_23:\n        /* \"demo1/20Error.sol\":510:511  1 */\n      0x01\n        /* \"demo1/20Error.sol\":505:508  num */\n      0x00\n      0x00\n        /* \"demo1/20Error.sol\":505:511  num+=1 */\n      dup3\n      dup3\n      sload\n      tag_38\n      swap2\n      swap1\n      tag_39\n      jump\t// in\n    tag_38:\n      swap1\n      swap2\n      sstore\n      pop\n      pop\n        /* \"demo1/20Error.sol\":532:534  10 */\n      0x0a\n        /* \"demo1/20Error.sol\":530:534  i>10 */\n      dup2\n      gt\n        /* \"demo1/20Error.sol\":522:535  require(i>10) */\n      tag_40\n      jumpi\n      revert(0x00, 0x00)\n    tag_40:\n        /* \"demo1/20Error.sol\":466:543  function req2(uint i)public {... */\n      pop\n      jump\t// out\n        /* \"demo1/20Error.sol\":82:156  function req(uint i)public pure {... */\n    tag_26:\n        /* \"demo1/20Error.sol\":135:137  10 */\n      0x0a\n        /* \"demo1/20Error.sol\":133:134  i */\n      dup2\n        /* \"demo1/20Error.sol\":133:137  i>10 */\n      gt\n        /* \"demo1/20Error.sol\":125:148  require(i>10, \"i < 10\") */\n      tag_40\n      jumpi\n      mload(0x40)\n      shl(0xe5, 0x461bcd)\n      dup2\n      mstore\n        /* \"#utility.yul\":1421:1423   */\n      0x20\n        /* \"demo1/20Error.sol\":125:148  require(i>10, \"i < 10\") */\n      0x04\n      dup3\n      add\n        /* \"#utility.yul\":1403:1424   */\n      mstore\n        /* \"#utility.yul\":1460:1461   */\n      0x06\n        /* \"#utility.yul\":1440:1458   */\n      0x24\n      dup3\n      add\n        /* \"#utility.yul\":1433:1462   */\n      mstore\n      shl(0xd4, 0x069203c20313)\n        /* \"#utility.yul\":1478:1496   */\n      0x44\n      dup3\n      add\n        /* \"#utility.yul\":1471:1507   */\n      mstore\n        /* \"#utility.yul\":1524:1542   */\n      0x64\n      add\n        /* \"demo1/20Error.sol\":125:148  require(i>10, \"i < 10\") */\n      tag_30\n        /* \"#utility.yul\":1219:1548   */\n      jump\n        /* \"demo1/20Error.sol\":396:458  function asse()public view {... */\n    tag_28:\n        /* \"demo1/20Error.sol\":441:444  num */\n      sload(0x00)\n        /* \"demo1/20Error.sol\":446:449  123 */\n      0x7b\n        /* \"demo1/20Error.sol\":441:449  num==123 */\n      eq\n        /* \"demo1/20Error.sol\":434:450  assert(num==123) */\n      tag_47\n      jumpi\n      tag_47\n      tag_48\n      jump\t// in\n    tag_47:\n        /* \"demo1/20Error.sol\":396:458  function asse()public view {... */\n      jump\t// out\n        /* \"#utility.yul\":14:194   */\n    tag_11:\n        /* \"#utility.yul\":73:79   */\n      0x00\n        /* \"#utility.yul\":126:128   */\n      0x20\n        /* \"#utility.yul\":114:123   */\n      dup3\n        /* \"#utility.yul\":105:112   */\n      dup5\n        /* \"#utility.yul\":101:124   */\n      sub\n        /* \"#utility.yul\":97:129   */\n      slt\n        /* \"#utility.yul\":94:146   */\n      iszero\n      tag_51\n      jumpi\n        /* \"#utility.yul\":142:143   */\n      0x00\n        /* \"#utility.yul\":139:140   */\n      0x00\n        /* \"#utility.yul\":132:144   */\n      revert\n        /* \"#utility.yul\":94:146   */\n    tag_51:\n      pop\n        /* \"#utility.yul\":165:188   */\n      calldataload\n      swap2\n        /* \"#utility.yul\":14:194   */\n      swap1\n      pop\n      jump\t// out\n        /* \"#utility.yul\":992:1214   */\n    tag_39:\n        /* \"#utility.yul\":1057:1066   */\n      dup1\n      dup3\n      add\n        /* \"#utility.yul\":1078:1088   */\n      dup1\n      dup3\n      gt\n        /* \"#utility.yul\":1075:1208   */\n      iszero\n      tag_56\n      jumpi\n        /* \"#utility.yul\":1130:1140   */\n      0x4e487b71\n        /* \"#utility.yul\":1125:1128   */\n      0xe0\n        /* \"#utility.yul\":1121:1141   */\n      shl\n        /* \"#utility.yul\":1118:1119   */\n      0x00\n        /* \"#utility.yul\":1111:1142   */\n      mstore\n        /* \"#utility.yul\":1165:1169   */\n      0x11\n        /* \"#utility.yul\":1162:1163   */\n      0x04\n        /* \"#utility.yul\":1155:1170   */\n      mstore\n        /* \"#utility.yul\":1193:1197   */\n      0x24\n        /* \"#utility.yul\":1190:1191   */\n      0x00\n        /* \"#utility.yul\":1183:1198   */\n      revert\n        /* \"#utility.yul\":1075:1208   */\n    tag_56:\n        /* \"#utility.yul\":992:1214   */\n      swap3\n      swap2\n      pop\n      pop\n      jump\t// out\n        /* \"#utility.yul\":1553:1680   */\n    tag_48:\n        /* \"#utility.yul\":1614:1624   */\n      0x4e487b71\n        /* \"#utility.yul\":1609:1612   */\n      0xe0\n        /* \"#utility.yul\":1605:1625   */\n      shl\n        /* \"#utility.yul\":1602:1603   */\n      0x00\n        /* \"#utility.yul\":1595:1626   */\n      mstore\n        /* \"#utility.yul\":1645:1649   */\n      0x01\n        /* \"#utility.yul\":1642:1643   */\n      0x04\n        /* \"#utility.yul\":1635:1650   */\n      mstore\n        /* \"#utility.yul\":1669:1673   */\n      0x24\n        /* \"#utility.yul\":1666:1667   */\n      0x00\n        /* \"#utility.yul\":1659:1674   */\n      revert\n\n    auxdata: 0xa2646970667358221220f9ed55b0c89241c746fc2133d1c613b56f31cec1e4f2aba46d951a294651166864736f6c63430008210033\n}\n",
				"bytecode": {
					"linkReferences": {},
					"object": "6080604052607b5f553480156012575f5ffd5b50610239806100205f395ff3fe608060405234801561000f575f5ffd5b506004361061005f575f3560e01c8062e39ee7146100635780634e70b1dc14610078578063623bcb7b146100925780637567f9bf146100a5578063b7bb2967146100b8578063e9cb77f5146100cb575b5f5ffd5b6100766100713660046101b3565b6100d3565b005b6100805f5481565b60405190815260200160405180910390f35b6100806100a03660046101b3565b6100fa565b6100766100b33660046101b3565b610142565b6100766100c63660046101b3565b610167565b6100766101a0565b604051631c47337760e31b8152336004820152602481018290526044015b60405180910390fd5b5f600282111561013e57600a82111561013e5760405162461bcd60e51b81526004016100f1906020808252600490820152630693e31360e41b604082015260600190565b5090565b60015f5f82825461015391906101ca565b9091555050600a8111610164575f5ffd5b50565b600a81116101645760405162461bcd60e51b8152602060048201526006602482015265069203c2031360d41b60448201526064016100f1565b5f54607b146101b1576101b16101ef565b565b5f602082840312156101c3575f5ffd5b5035919050565b808201808211156101e957634e487b7160e01b5f52601160045260245ffd5b92915050565b634e487b7160e01b5f52600160045260245ffdfea2646970667358221220f9ed55b0c89241c746fc2133d1c613b56f31cec1e4f2aba46d951a294651166864736f6c63430008210033",
					"opcodes": "PUSH1 0x80 PUSH1 0x40 MSTORE PUSH1 0x7B PUSH0 SSTORE CALLVALUE DUP1 ISZERO PUSH1 0x12 JUMPI PUSH0 PUSH0 REVERT JUMPDEST POP PUSH2 0x239 DUP1 PUSH2 0x20 PUSH0 CODECOPY PUSH0 RETURN INVALID PUSH1 0x80 PUSH1 0x40 MSTORE CALLVALUE DUP1 ISZERO PUSH2 0xF JUMPI PUSH0 PUSH0 REVERT JUMPDEST POP PUSH1 0x4 CALLDATASIZE LT PUSH2 0x5F JUMPI PUSH0 CALLDATALOAD PUSH1 0xE0 SHR DUP1 PUSH3 0xE39EE7 EQ PUSH2 0x63 JUMPI DUP1 PUSH4 0x4E70B1DC EQ PUSH2 0x78 JUMPI DUP1 PUSH4 0x623BCB7B EQ PUSH2 0x92 JUMPI DUP1 PUSH4 0x7567F9BF EQ PUSH2 0xA5 JUMPI DUP1 PUSH4 0xB7BB2967 EQ PUSH2 0xB8 JUMPI DUP1 PUSH4 0xE9CB77F5 EQ PUSH2 0xCB JUMPI JUMPDEST PUSH0 PUSH0 REVERT JUMPDEST PUSH2 0x76 PUSH2 0x71 CALLDATASIZE PUSH1 0x4 PUSH2 0x1B3 JUMP JUMPDEST PUSH2 0xD3 JUMP JUMPDEST STOP JUMPDEST PUSH2 0x80 PUSH0 SLOAD DUP2 JUMP JUMPDEST PUSH1 0x40 MLOAD SWAP1 DUP2 MSTORE PUSH1 0x20 ADD PUSH1 0x40 MLOAD DUP1 SWAP2 SUB SWAP1 RETURN JUMPDEST PUSH2 0x80 PUSH2 0xA0 CALLDATASIZE PUSH1 0x4 PUSH2 0x1B3 JUMP JUMPDEST PUSH2 0xFA JUMP JUMPDEST PUSH2 0x76 PUSH2 0xB3 CALLDATASIZE PUSH1 0x4 PUSH2 0x1B3 JUMP JUMPDEST PUSH2 0x142 JUMP JUMPDEST PUSH2 0x76 PUSH2 0xC6 CALLDATASIZE PUSH1 0x4 PUSH2 0x1B3 JUMP JUMPDEST PUSH2 0x167 JUMP JUMPDEST PUSH2 0x76 PUSH2 0x1A0 JUMP JUMPDEST PUSH1 0x40 MLOAD PUSH4 0x1C473377 PUSH1 0xE3 SHL DUP2 MSTORE CALLER PUSH1 0x4 DUP3 ADD MSTORE PUSH1 0x24 DUP2 ADD DUP3 SWAP1 MSTORE PUSH1 0x44 ADD JUMPDEST PUSH1 0x40 MLOAD DUP1 SWAP2 SUB SWAP1 REVERT JUMPDEST PUSH0 PUSH1 0x2 DUP3 GT ISZERO PUSH2 0x13E JUMPI PUSH1 0xA DUP3 GT ISZERO PUSH2 0x13E JUMPI PUSH1 0x40 MLOAD PUSH3 0x461BCD PUSH1 0xE5 SHL DUP2 MSTORE PUSH1 0x4 ADD PUSH2 0xF1 SWAP1 PUSH1 0x20 DUP1 DUP3 MSTORE PUSH1 0x4 SWAP1 DUP3 ADD MSTORE PUSH4 0x693E313 PUSH1 0xE4 SHL PUSH1 0x40 DUP3 ADD MSTORE PUSH1 0x60 ADD SWAP1 JUMP JUMPDEST POP SWAP1 JUMP JUMPDEST PUSH1 0x1 PUSH0 PUSH0 DUP3 DUP3 SLOAD PUSH2 0x153 SWAP2 SWAP1 PUSH2 0x1CA JUMP JUMPDEST SWAP1 SWAP2 SSTORE POP POP PUSH1 0xA DUP2 GT PUSH2 0x164 JUMPI PUSH0 PUSH0 REVERT JUMPDEST POP JUMP JUMPDEST PUSH1 0xA DUP2 GT PUSH2 0x164 JUMPI PUSH1 0x40 MLOAD PUSH3 0x461BCD PUSH1 0xE5 SHL DUP2 MSTORE PUSH1 0x20 PUSH1 0x4 DUP3 ADD MSTORE PUSH1 0x6 PUSH1 0x24 DUP3 ADD MSTORE PUSH6 0x69203C20313 PUSH1 0xD4 SHL PUSH1 0x44 DUP3 ADD MSTORE PUSH1 0x64 ADD PUSH2 0xF1 JUMP JUMPDEST PUSH0 SLOAD PUSH1 0x7B EQ PUSH2 0x1B1 JUMPI PUSH2 0x1B1 PUSH2 0x1EF JUMP JUMPDEST JUMP JUMPDEST PUSH0 PUSH1 0x20 DUP3 DUP5 SUB SLT ISZERO PUSH2 0x1C3 JUMPI PUSH0 PUSH0 REVERT JUMPDEST POP CALLDATALOAD SWAP2 SWAP1 POP JUMP JUMPDEST DUP1 DUP3 ADD DUP1 DUP3 GT ISZERO PUSH2 0x1E9 JUMPI PUSH4 0x4E487B71 PUSH1 0xE0 SHL PUSH0 MSTORE PUSH1 0x11 PUSH1 0x4 MSTORE PUSH1 0x24 PUSH0 REVERT JUMPDEST SWAP3 SWAP2 POP POP JUMP JUMPDEST PUSH4 0x4E487B71 PUSH1 0xE0 SHL PUSH0 MSTORE PUSH1 0x1 PUSH1 0x4 MSTORE PUSH1 0x24 PUSH0 REVERT INVALID LOG2 PUSH5 0x6970667358 0x22 SLT KECCAK256 EXTDELEGATECALL 0xED SSTORE 0xB0 0xC8 SWAP3 COINBASE 0xC7 CHAINID 0xFC 0x21 CALLER DATALOADN 0xC613 0xB5 PUSH16 0x31CEC1E4F2ABA46D951A294651166864 PUSH20 0x6F6C634300082100330000000000000000000000 "
				},
				"gasEstimates": {
					"creation": {
						"codeDepositCost": "113800",
						"executionCost": "22262",
						"totalCost": "136062"
					},
					"external": {
						"asse()": "2386",
						"num()": "2281",
						"req(uint256)": "421",
						"req2(uint256)": "24586",
						"req3(uint256)": "278",
						"rev(uint256)": "416"
					}
				},
				"methodIdentifiers": {
					"asse()": "e9cb77f5",
					"num()": "4e70b1dc",
					"req(uint256)": "b7bb2967",
					"req2(uint256)": "7567f9bf",
					"req3(uint256)": "00e39ee7",
					"rev(uint256)": "623bcb7b"
				}
			},
			"storageLayout": {
				"storage": [
					{
						"astId": 43,
						"contract": "demo1/20Error.sol:Error",
						"label": "num",
						"offset": 0,
						"slot": "0",
						"type": "t_uint256"
					}
				],
				"types": {
					"t_uint256": {
						"encoding": "inplace",
						"label": "uint256",
						"numberOfBytes": "32"
					}
				}
			},
			"userdoc": {
				"kind": "user",
				"methods": {},
				"version": 1
			}
		}
	}
}