{
	"demo1/LocalVariables.sol": {
		"LocalVariables": {
			"abi": [
				{
					"inputs": [],
					"name": "b",
					"outputs": [
						{
							"internalType": "bool",
							"name": "",
							"type": "bool"
						}
					],
					"stateMutability": "view",
					"type": "function"
				},
				{
					"inputs": [],
					"name": "foo",
					"outputs": [],
					"stateMutability": "nonpayable",
					"type": "function"
				},
				{
					"inputs": [],
					"name": "i",
					"outputs": [
						{
							"internalType": "uint256",
							"name": "",
							"type": "uint256"
						}
					],
					"stateMutability": "view",
					"type": "function"
				},
				{
					"inputs": [],
					"name": "myAddress",
					"outputs": [
						{
							"internalType": "address",
							"name": "",
							"type": "address"
						}
					],
					"stateMutability": "view",
					"type": "function"
				}
			],
			"devdoc": {
				"kind": "dev",
				"methods": {},
				"version": 1
			},
			"evm": {
				"assembly": "    /* \"demo1/LocalVariables.sol\":60:366  contract LocalVariables {... */\n  mstore(0x40, 0x80)\n  callvalue\n  dup1\n  iszero\n  tag_1\n  jumpi\n  revert(0x00, 0x00)\ntag_1:\n  pop\n  dataSize(sub_0)\n  dup1\n  dataOffset(sub_0)\n  0x00\n  codecopy\n  0x00\n  return\nstop\n\nsub_0: assembly {\n        /* \"demo1/LocalVariables.sol\":60:366  contract LocalVariables {... */\n      mstore(0x40, 0x80)\n      callvalue\n      dup1\n      iszero\n      tag_1\n      jumpi\n      revert(0x00, 0x00)\n    tag_1:\n      pop\n      jumpi(tag_2, lt(calldatasize, 0x04))\n      shr(0xe0, calldataload(0x00))\n      dup1\n      0x26b85ee1\n      eq\n      tag_3\n      jumpi\n      dup1\n      0x4df7e3d0\n      eq\n      tag_4\n      jumpi\n      dup1\n      0xc2985578\n      eq\n      tag_5\n      jumpi\n      dup1\n      0xe5aa3d58\n      eq\n      tag_6\n      jumpi\n    tag_2:\n      revert(0x00, 0x00)\n        /* \"demo1/LocalVariables.sol\":134:158  address public myAddress */\n    tag_3:\n      sload(0x01)\n      tag_7\n      swap1\n      0x0100\n      swap1\n      div\n      sub(shl(0xa0, 0x01), 0x01)\n      and\n      dup2\n      jump\n    tag_7:\n      mload(0x40)\n      sub(shl(0xa0, 0x01), 0x01)\n        /* \"#utility.yul\":178:210   */\n      swap1\n      swap2\n      and\n        /* \"#utility.yul\":160:211   */\n      dup2\n      mstore\n        /* \"#utility.yul\":148:150   */\n      0x20\n        /* \"#utility.yul\":133:151   */\n      add\n        /* \"demo1/LocalVariables.sol\":134:158  address public myAddress */\n    tag_9:\n      mload(0x40)\n      dup1\n      swap2\n      sub\n      swap1\n      return\n        /* \"demo1/LocalVariables.sol\":114:127  bool public b */\n    tag_4:\n      sload(0x01)\n      tag_11\n      swap1\n      0xff\n      and\n      dup2\n      jump\n    tag_11:\n      mload(0x40)\n        /* \"#utility.yul\":387:401   */\n      swap1\n      iszero\n        /* \"#utility.yul\":380:402   */\n      iszero\n        /* \"#utility.yul\":362:403   */\n      dup2\n      mstore\n        /* \"#utility.yul\":350:352   */\n      0x20\n        /* \"#utility.yul\":335:353   */\n      add\n        /* \"demo1/LocalVariables.sol\":114:127  bool public b */\n      tag_9\n        /* \"#utility.yul\":222:409   */\n      jump\n        /* \"demo1/LocalVariables.sol\":167:363  function foo() external {... */\n    tag_5:\n      tag_15\n      tag_16\n      jump\t// in\n    tag_15:\n      stop\n        /* \"demo1/LocalVariables.sol\":91:107  uint256 public i */\n    tag_6:\n      tag_17\n      sload(0x00)\n      dup2\n      jump\n    tag_17:\n      mload(0x40)\n        /* \"#utility.yul\":560:585   */\n      swap1\n      dup2\n      mstore\n        /* \"#utility.yul\":548:550   */\n      0x20\n        /* \"#utility.yul\":533:551   */\n      add\n        /* \"demo1/LocalVariables.sol\":91:107  uint256 public i */\n      tag_9\n        /* \"#utility.yul\":414:591   */\n      jump\n        /* \"demo1/LocalVariables.sol\":167:363  function foo() external {... */\n    tag_16:\n        /* \"demo1/LocalVariables.sol\":211:214  123 */\n      0x7b\n        /* \"demo1/LocalVariables.sol\":202:208  uint x */\n      0x00\n        /* \"demo1/LocalVariables.sol\":250:258  x += 456 */\n      tag_22\n        /* \"demo1/LocalVariables.sol\":255:258  456 */\n      0x01c8\n        /* \"demo1/LocalVariables.sol\":211:214  123 */\n      dup4\n        /* \"demo1/LocalVariables.sol\":250:258  x += 456 */\n      tag_23\n      jump\t// in\n    tag_22:\n      swap2\n      pop\n        /* \"demo1/LocalVariables.sol\":271:275  true */\n      0x01\n        /* \"demo1/LocalVariables.sol\":269:275  f=true */\n      swap1\n      pop\n        /* \"demo1/LocalVariables.sol\":301:304  345 */\n      0x0159\n        /* \"demo1/LocalVariables.sol\":296:297  i */\n      0x00\n      0x00\n        /* \"demo1/LocalVariables.sol\":296:304  i += 345 */\n      dup3\n      dup3\n      sload\n      tag_24\n      swap2\n      swap1\n      tag_23\n      jump\t// in\n    tag_24:\n      swap1\n      swap2\n      sstore\n      pop\n      pop\n        /* \"demo1/LocalVariables.sol\":317:321  true */\n      0x01\n        /* \"demo1/LocalVariables.sol\":315:321  b=true */\n      dup1\n      sload\n      not(sub(shl(0xa8, 0x01), 0x01))\n        /* \"demo1/LocalVariables.sol\":332:354  myAddress = address(1) */\n      and\n      0x0101\n      or\n      swap1\n      sstore\n      pop\n      pop\n        /* \"demo1/LocalVariables.sol\":167:363  function foo() external {... */\n      jump\t// out\n        /* \"#utility.yul\":596:818   */\n    tag_23:\n        /* \"#utility.yul\":661:670   */\n      dup1\n      dup3\n      add\n        /* \"#utility.yul\":682:692   */\n      dup1\n      dup3\n      gt\n        /* \"#utility.yul\":679:812   */\n      iszero\n      tag_30\n      jumpi\n        /* \"#utility.yul\":734:744   */\n      0x4e487b71\n        /* \"#utility.yul\":729:732   */\n      0xe0\n        /* \"#utility.yul\":725:745   */\n      shl\n        /* \"#utility.yul\":722:723   */\n      0x00\n        /* \"#utility.yul\":715:746   */\n      mstore\n        /* \"#utility.yul\":769:773   */\n      0x11\n        /* \"#utility.yul\":766:767   */\n      0x04\n        /* \"#utility.yul\":759:774   */\n      mstore\n        /* \"#utility.yul\":797:801   */\n      0x24\n        /* \"#utility.yul\":794:795   */\n      0x00\n        /* \"#utility.yul\":787:802   */\n      revert\n        /* \"#utility.yul\":679:812   */\n    tag_30:\n        /* \"#utility.yul\":596:818   */\n      swap3\n      swap2\n      pop\n      pop\n      jump\t// out\n\n    auxdata: 0xa2646970667358221220f8dd76ff8ff04fa6d773f4f2861ff2dbd69d0b84a29f34316d46c3bbf3650a9e64736f6c634300081f0033\n}\n",
				"bytecode": {
					"linkReferences": {},
					"object": "6080604052348015600e575f5ffd5b5061015f8061001c5f395ff3fe608060405234801561000f575f5ffd5b506004361061004a575f3560e01c806326b85ee11461004e5780634df7e3d014610083578063c2985578146100a0578063e5aa3d58146100aa575b5f5ffd5b6001546100669061010090046001600160a01b031681565b6040516001600160a01b0390911681526020015b60405180910390f35b6001546100909060ff1681565b604051901515815260200161007a565b6100a86100c0565b005b6100b25f5481565b60405190815260200161007a565b607b5f6100cf6101c883610104565b9150600190506101595f5f8282546100e79190610104565b9091555050600180546001600160a81b0319166101011790555050565b8082018082111561012357634e487b7160e01b5f52601160045260245ffd5b9291505056fea2646970667358221220f8dd76ff8ff04fa6d773f4f2861ff2dbd69d0b84a29f34316d46c3bbf3650a9e64736f6c634300081f0033",
					"opcodes": "PUSH1 0x80 PUSH1 0x40 MSTORE CALLVALUE DUP1 ISZERO PUSH1 0xE JUMPI PUSH0 PUSH0 REVERT JUMPDEST POP PUSH2 0x15F DUP1 PUSH2 0x1C PUSH0 CODECOPY PUSH0 RETURN INVALID PUSH1 0x80 PUSH1 0x40 MSTORE CALLVALUE DUP1 ISZERO PUSH2 0xF JUMPI PUSH0 PUSH0 REVERT JUMPDEST POP PUSH1 0x4 CALLDATASIZE LT PUSH2 0x4A JUMPI PUSH0 CALLDATALOAD PUSH1 0xE0 SHR DUP1 PUSH4 0x26B85EE1 EQ PUSH2 0x4E JUMPI DUP1 PUSH4 0x4DF7E3D0 EQ PUSH2 0x83 JUMPI DUP1 PUSH4 0xC2985578 EQ PUSH2 0xA0 JUMPI DUP1 PUSH4 0xE5AA3D58 EQ PUSH2 0xAA JUMPI JUMPDEST PUSH0 PUSH0 REVERT JUMPDEST PUSH1 0x1 SLOAD PUSH2 0x66 SWAP1 PUSH2 0x100 SWAP1 DIV PUSH1 0x1 PUSH1 0x1 PUSH1 0xA0 SHL SUB AND DUP2 JUMP JUMPDEST PUSH1 0x40 MLOAD PUSH1 0x1 PUSH1 0x1 PUSH1 0xA0 SHL SUB SWAP1 SWAP2 AND DUP2 MSTORE PUSH1 0x20 ADD JUMPDEST PUSH1 0x40 MLOAD DUP1 SWAP2 SUB SWAP1 RETURN JUMPDEST PUSH1 0x1 SLOAD PUSH2 0x90 SWAP1 PUSH1 0xFF AND DUP2 JUMP JUMPDEST PUSH1 0x40 MLOAD SWAP1 ISZERO ISZERO DUP2 MSTORE PUSH1 0x20 ADD PUSH2 0x7A JUMP JUMPDEST PUSH2 0xA8 PUSH2 0xC0 JUMP JUMPDEST STOP JUMPDEST PUSH2 0xB2 PUSH0 SLOAD DUP2 JUMP JUMPDEST PUSH1 0x40 MLOAD SWAP1 DUP2 MSTORE PUSH1 0x20 ADD PUSH2 0x7A JUMP JUMPDEST PUSH1 0x7B PUSH0 PUSH2 0xCF PUSH2 0x1C8 DUP4 PUSH2 0x104 JUMP JUMPDEST SWAP2 POP PUSH1 0x1 SWAP1 POP PUSH2 0x159 PUSH0 PUSH0 DUP3 DUP3 SLOAD PUSH2 0xE7 SWAP2 SWAP1 PUSH2 0x104 JUMP JUMPDEST SWAP1 SWAP2 SSTORE POP POP PUSH1 0x1 DUP1 SLOAD PUSH1 0x1 PUSH1 0x1 PUSH1 0xA8 SHL SUB NOT AND PUSH2 0x101 OR SWAP1 SSTORE POP POP JUMP JUMPDEST DUP1 DUP3 ADD DUP1 DUP3 GT ISZERO PUSH2 0x123 JUMPI PUSH4 0x4E487B71 PUSH1 0xE0 SHL PUSH0 MSTORE PUSH1 0x11 PUSH1 0x4 MSTORE PUSH1 0x24 PUSH0 REVERT JUMPDEST SWAP3 SWAP2 POP POP JUMP INVALID LOG2 PUSH5 0x6970667358 0x22 SLT KECCAK256 EXTCALL 0xDD PUSH23 0xFF8FF04FA6D773F4F2861FF2DBD69D0B84A29F34316D46 0xC3 0xBB RETURN PUSH6 0xA9E64736F6C PUSH4 0x4300081F STOP CALLER "
				},
				"gasEstimates": {
					"creation": {
						"codeDepositCost": "70200",
						"executionCost": "115",
						"totalCost": "70315"
					},
					"external": {
						"b()": "2309",
						"foo()": "infinite",
						"i()": "2337",
						"myAddress()": "2314"
					}
				},
				"methodIdentifiers": {
					"b()": "4df7e3d0",
					"foo()": "c2985578",
					"i()": "e5aa3d58",
					"myAddress()": "26b85ee1"
				}
			},
			"storageLayout": {
				"storage": [
					{
						"astId": 3,
						"contract": "demo1/LocalVariables.sol:LocalVariables",
						"label": "i",
						"offset": 0,
						"slot": "0",
						"type": "t_uint256"
					},
					{
						"astId": 5,
						"contract": "demo1/LocalVariables.sol:LocalVariables",
						"label": "b",
						"offset": 0,
						"slot": "1",
						"type": "t_bool"
					},
					{
						"astId": 7,
						"contract": "demo1/LocalVariables.sol:LocalVariables",
						"label": "myAddress",
						"offset": 1,
						"slot": "1",
						"type": "t_address"
					}
				],
				"types": {
					"t_address": {
						"encoding": "inplace",
						"label": "address",
						"numberOfBytes": "20"
					},
					"t_bool": {
						"encoding": "inplace",
						"label": "bool",
						"numberOfBytes": "1"
					},
					"t_uint256": {
						"encoding": "inplace",
						"label": "uint256",
						"numberOfBytes": "32"
					}
				}
			},
			"userdoc": {
				"kind": "user",
				"methods": {},
				"version": 1
			}
		}
	}
}