{
	"demo1/19For.sol": {
		"For": {
			"abi": [
				{
					"inputs": [
						{
							"internalType": "uint256",
							"name": "n",
							"type": "uint256"
						}
					],
					"name": "name",
					"outputs": [
						{
							"internalType": "uint256",
							"name": "",
							"type": "uint256"
						}
					],
					"stateMutability": "pure",
					"type": "function"
				},
				{
					"inputs": [
						{
							"internalType": "uint256",
							"name": "n",
							"type": "uint256"
						}
					],
					"name": "sum1",
					"outputs": [
						{
							"internalType": "uint256",
							"name": "",
							"type": "uint256"
						}
					],
					"stateMutability": "pure",
					"type": "function"
				}
			],
			"devdoc": {
				"kind": "dev",
				"methods": {},
				"version": 1
			},
			"evm": {
				"assembly": "    /* \"demo1/19For.sol\":60:478  contract For {... */\n  mstore(0x40, 0x80)\n  callvalue\n  dup1\n  iszero\n  tag_1\n  jumpi\n  revert(0x00, 0x00)\ntag_1:\n  pop\n  dataSize(sub_0)\n  dup1\n  dataOffset(sub_0)\n  0x00\n  codecopy\n  0x00\n  return\nstop\n\nsub_0: assembly {\n        /* \"demo1/19For.sol\":60:478  contract For {... */\n      mstore(0x40, 0x80)\n      callvalue\n      dup1\n      iszero\n      tag_1\n      jumpi\n      revert(0x00, 0x00)\n    tag_1:\n      pop\n      jumpi(tag_2, lt(calldatasize, 0x04))\n      shr(0xe0, calldataload(0x00))\n      dup1\n      0xad800c\n      eq\n      tag_3\n      jumpi\n      dup1\n      0xe126f3dc\n      eq\n      tag_4\n      jumpi\n    tag_2:\n      revert(0x00, 0x00)\n        /* \"demo1/19For.sol\":80:251  function name(uint n) external pure returns (uint){... */\n    tag_3:\n      tag_5\n      tag_6\n      calldatasize\n      0x04\n      tag_7\n      jump\t// in\n    tag_6:\n      tag_8\n      jump\t// in\n    tag_5:\n      mload(0x40)\n        /* \"#utility.yul\":345:370   */\n      swap1\n      dup2\n      mstore\n        /* \"#utility.yul\":333:335   */\n      0x20\n        /* \"#utility.yul\":318:336   */\n      add\n        /* \"demo1/19For.sol\":80:251  function name(uint n) external pure returns (uint){... */\n      mload(0x40)\n      dup1\n      swap2\n      sub\n      swap1\n      return\n        /* \"demo1/19For.sol\":315:475  function sum1(uint n) external pure returns (uint) {... */\n    tag_4:\n      tag_5\n      tag_12\n      calldatasize\n      0x04\n      tag_7\n      jump\t// in\n    tag_12:\n      tag_13\n      jump\t// in\n        /* \"demo1/19For.sol\":80:251  function name(uint n) external pure returns (uint){... */\n    tag_8:\n        /* \"demo1/19For.sol\":125:129  uint */\n      0x00\n      dup1\n        /* \"demo1/19For.sol\":176:177  1 */\n      0x01\n        /* \"demo1/19For.sol\":164:223  for (uint i=1; i<=n; i++) {... */\n    tag_16:\n        /* \"demo1/19For.sol\":182:183  n */\n      dup4\n        /* \"demo1/19For.sol\":179:180  i */\n      dup2\n        /* \"demo1/19For.sol\":179:183  i<=n */\n      gt\n        /* \"demo1/19For.sol\":164:223  for (uint i=1; i<=n; i++) {... */\n      tag_17\n      jumpi\n        /* \"demo1/19For.sol\":205:211  sum+=i */\n      tag_19\n        /* \"demo1/19For.sol\":210:211  i */\n      dup2\n        /* \"demo1/19For.sol\":205:211  sum+=i */\n      dup4\n      tag_20\n      jump\t// in\n    tag_19:\n      swap2\n      pop\n        /* \"demo1/19For.sol\":185:188  i++ */\n      dup1\n      tag_21\n      dup2\n      tag_22\n      jump\t// in\n    tag_21:\n      swap2\n      pop\n      pop\n        /* \"demo1/19For.sol\":164:223  for (uint i=1; i<=n; i++) {... */\n      jump(tag_16)\n    tag_17:\n      pop\n        /* \"demo1/19For.sol\":240:243  sum */\n      swap3\n        /* \"demo1/19For.sol\":80:251  function name(uint n) external pure returns (uint){... */\n      swap2\n      pop\n      pop\n      jump\t// out\n        /* \"demo1/19For.sol\":315:475  function sum1(uint n) external pure returns (uint) {... */\n    tag_13:\n        /* \"demo1/19For.sol\":360:364  uint */\n      0x00\n      dup1\n        /* \"demo1/19For.sol\":408:409  1 */\n      0x01\n        /* \"demo1/19For.sol\":394:449  for (uint i = 1; i <= n; i++) {... */\n    tag_24:\n        /* \"demo1/19For.sol\":416:417  n */\n      dup4\n        /* \"demo1/19For.sol\":411:412  i */\n      dup2\n        /* \"demo1/19For.sol\":411:417  i <= n */\n      gt\n        /* \"demo1/19For.sol\":394:449  for (uint i = 1; i <= n; i++) {... */\n      tag_17\n      jumpi\n        /* \"demo1/19For.sol\":431:441  total += i */\n      tag_27\n        /* \"demo1/19For.sol\":440:441  i */\n      dup2\n        /* \"demo1/19For.sol\":431:441  total += i */\n      dup4\n      tag_20\n      jump\t// in\n    tag_27:\n      swap2\n      pop\n        /* \"demo1/19For.sol\":419:422  i++ */\n      dup1\n      tag_28\n      dup2\n      tag_22\n      jump\t// in\n    tag_28:\n      swap2\n      pop\n      pop\n        /* \"demo1/19For.sol\":394:449  for (uint i = 1; i <= n; i++) {... */\n      jump(tag_24)\n        /* \"#utility.yul\":14:194   */\n    tag_7:\n        /* \"#utility.yul\":73:79   */\n      0x00\n        /* \"#utility.yul\":126:128   */\n      0x20\n        /* \"#utility.yul\":114:123   */\n      dup3\n        /* \"#utility.yul\":105:112   */\n      dup5\n        /* \"#utility.yul\":101:124   */\n      sub\n        /* \"#utility.yul\":97:129   */\n      slt\n        /* \"#utility.yul\":94:146   */\n      iszero\n      tag_32\n      jumpi\n        /* \"#utility.yul\":142:143   */\n      0x00\n        /* \"#utility.yul\":139:140   */\n      0x00\n        /* \"#utility.yul\":132:144   */\n      revert\n        /* \"#utility.yul\":94:146   */\n    tag_32:\n      pop\n        /* \"#utility.yul\":165:188   */\n      calldataload\n      swap2\n        /* \"#utility.yul\":14:194   */\n      swap1\n      pop\n      jump\t// out\n        /* \"#utility.yul\":381:508   */\n    tag_29:\n        /* \"#utility.yul\":442:452   */\n      0x4e487b71\n        /* \"#utility.yul\":437:440   */\n      0xe0\n        /* \"#utility.yul\":433:453   */\n      shl\n        /* \"#utility.yul\":430:431   */\n      0x00\n        /* \"#utility.yul\":423:454   */\n      mstore\n        /* \"#utility.yul\":473:477   */\n      0x11\n        /* \"#utility.yul\":470:471   */\n      0x04\n        /* \"#utility.yul\":463:478   */\n      mstore\n        /* \"#utility.yul\":497:501   */\n      0x24\n        /* \"#utility.yul\":494:495   */\n      0x00\n        /* \"#utility.yul\":487:502   */\n      revert\n        /* \"#utility.yul\":513:638   */\n    tag_20:\n        /* \"#utility.yul\":578:587   */\n      dup1\n      dup3\n      add\n        /* \"#utility.yul\":599:609   */\n      dup1\n      dup3\n      gt\n        /* \"#utility.yul\":596:632   */\n      iszero\n      tag_37\n      jumpi\n        /* \"#utility.yul\":612:630   */\n      tag_37\n      tag_29\n      jump\t// in\n    tag_37:\n        /* \"#utility.yul\":513:638   */\n      swap3\n      swap2\n      pop\n      pop\n      jump\t// out\n        /* \"#utility.yul\":643:778   */\n    tag_22:\n        /* \"#utility.yul\":682:685   */\n      0x00\n        /* \"#utility.yul\":703:720   */\n      0x01\n      dup3\n      add\n        /* \"#utility.yul\":700:743   */\n      tag_40\n      jumpi\n        /* \"#utility.yul\":723:741   */\n      tag_40\n      tag_29\n      jump\t// in\n    tag_40:\n      pop\n        /* \"#utility.yul\":770:771   */\n      0x01\n        /* \"#utility.yul\":759:772   */\n      add\n      swap1\n        /* \"#utility.yul\":643:778   */\n      jump\t// out\n\n    auxdata: 0xa2646970667358221220eb4b6a1180132df04bc4c4f6b469319a3baa5eff55746bd901fedd3d9539b29d64736f6c63430008210033\n}\n",
				"bytecode": {
					"linkReferences": {},
					"object": "6080604052348015600e575f5ffd5b5061015c8061001c5f395ff3fe608060405234801561000f575f5ffd5b5060043610610033575f3560e01c8062ad800c14610037578063e126f3dc1461005c575b5f5ffd5b61004a6100453660046100ca565b61006f565b60405190815260200160405180910390f35b61004a61006a3660046100ca565b6100a0565b5f8060015b8381116100995761008581836100f5565b9150806100918161010e565b915050610074565b5092915050565b5f8060015b838111610099576100b681836100f5565b9150806100c28161010e565b9150506100a5565b5f602082840312156100da575f5ffd5b5035919050565b634e487b7160e01b5f52601160045260245ffd5b80820180821115610108576101086100e1565b92915050565b5f6001820161011f5761011f6100e1565b506001019056fea2646970667358221220eb4b6a1180132df04bc4c4f6b469319a3baa5eff55746bd901fedd3d9539b29d64736f6c63430008210033",
					"opcodes": "PUSH1 0x80 PUSH1 0x40 MSTORE CALLVALUE DUP1 ISZERO PUSH1 0xE JUMPI PUSH0 PUSH0 REVERT JUMPDEST POP PUSH2 0x15C DUP1 PUSH2 0x1C PUSH0 CODECOPY PUSH0 RETURN INVALID PUSH1 0x80 PUSH1 0x40 MSTORE CALLVALUE DUP1 ISZERO PUSH2 0xF JUMPI PUSH0 PUSH0 REVERT JUMPDEST POP PUSH1 0x4 CALLDATASIZE LT PUSH2 0x33 JUMPI PUSH0 CALLDATALOAD PUSH1 0xE0 SHR DUP1 PUSH3 0xAD800C EQ PUSH2 0x37 JUMPI DUP1 PUSH4 0xE126F3DC EQ PUSH2 0x5C JUMPI JUMPDEST PUSH0 PUSH0 REVERT JUMPDEST PUSH2 0x4A PUSH2 0x45 CALLDATASIZE PUSH1 0x4 PUSH2 0xCA JUMP JUMPDEST PUSH2 0x6F JUMP JUMPDEST PUSH1 0x40 MLOAD SWAP1 DUP2 MSTORE PUSH1 0x20 ADD PUSH1 0x40 MLOAD DUP1 SWAP2 SUB SWAP1 RETURN JUMPDEST PUSH2 0x4A PUSH2 0x6A CALLDATASIZE PUSH1 0x4 PUSH2 0xCA JUMP JUMPDEST PUSH2 0xA0 JUMP JUMPDEST PUSH0 DUP1 PUSH1 0x1 JUMPDEST DUP4 DUP2 GT PUSH2 0x99 JUMPI PUSH2 0x85 DUP2 DUP4 PUSH2 0xF5 JUMP JUMPDEST SWAP2 POP DUP1 PUSH2 0x91 DUP2 PUSH2 0x10E JUMP JUMPDEST SWAP2 POP POP PUSH2 0x74 JUMP JUMPDEST POP SWAP3 SWAP2 POP POP JUMP JUMPDEST PUSH0 DUP1 PUSH1 0x1 JUMPDEST DUP4 DUP2 GT PUSH2 0x99 JUMPI PUSH2 0xB6 DUP2 DUP4 PUSH2 0xF5 JUMP JUMPDEST SWAP2 POP DUP1 PUSH2 0xC2 DUP2 PUSH2 0x10E JUMP JUMPDEST SWAP2 POP POP PUSH2 0xA5 JUMP JUMPDEST PUSH0 PUSH1 0x20 DUP3 DUP5 SUB SLT ISZERO PUSH2 0xDA JUMPI PUSH0 PUSH0 REVERT JUMPDEST POP CALLDATALOAD SWAP2 SWAP1 POP JUMP JUMPDEST PUSH4 0x4E487B71 PUSH1 0xE0 SHL PUSH0 MSTORE PUSH1 0x11 PUSH1 0x4 MSTORE PUSH1 0x24 PUSH0 REVERT JUMPDEST DUP1 DUP3 ADD DUP1 DUP3 GT ISZERO PUSH2 0x108 JUMPI PUSH2 0x108 PUSH2 0xE1 JUMP JUMPDEST SWAP3 SWAP2 POP POP JUMP JUMPDEST PUSH0 PUSH1 0x1 DUP3 ADD PUSH2 0x11F JUMPI PUSH2 0x11F PUSH2 0xE1 JUMP JUMPDEST POP PUSH1 0x1 ADD SWAP1 JUMP INVALID LOG2 PUSH5 0x6970667358 0x22 SLT KECCAK256 0xEB 0x4B PUSH11 0x1180132DF04BC4C4F6B469 BALANCE SWAP11 EXTCODESIZE 0xAA MCOPY SELFDESTRUCT SSTORE PUSH21 0x6BD901FEDD3D9539B29D64736F6C63430008210033 "
				},
				"gasEstimates": {
					"creation": {
						"codeDepositCost": "69600",
						"executionCost": "115",
						"totalCost": "69715"
					},
					"external": {
						"name(uint256)": "infinite",
						"sum1(uint256)": "infinite"
					}
				},
				"methodIdentifiers": {
					"name(uint256)": "00ad800c",
					"sum1(uint256)": "e126f3dc"
				}
			},
			"storageLayout": {
				"storage": [],
				"types": null
			},
			"userdoc": {
				"kind": "user",
				"methods": {},
				"version": 1
			}
		}
	}
}