{
	"demo1/66TimeLock.sol": {
		"TimeLock": {
			"abi": [
				{
					"inputs": [],
					"stateMutability": "nonpayable",
					"type": "constructor"
				},
				{
					"inputs": [
						{
							"internalType": "bytes32",
							"name": "txId",
							"type": "bytes32"
						}
					],
					"name": "AlreadyQueuedError",
					"type": "error"
				},
				{
					"inputs": [],
					"name": "NotOwnerEror",
					"type": "error"
				},
				{
					"inputs": [
						{
							"internalType": "bytes32",
							"name": "txId",
							"type": "bytes32"
						}
					],
					"name": "NotQueuedError",
					"type": "error"
				},
				{
					"inputs": [
						{
							"internalType": "uint256",
							"name": "timestamp",
							"type": "uint256"
						},
						{
							"internalType": "uint256",
							"name": "_timestamp",
							"type": "uint256"
						}
					],
					"name": "TimestampNotInRangeError",
					"type": "error"
				},
				{
					"anonymous": false,
					"inputs": [
						{
							"indexed": true,
							"internalType": "bytes32",
							"name": "txId",
							"type": "bytes32"
						},
						{
							"indexed": true,
							"internalType": "address",
							"name": "target",
							"type": "address"
						},
						{
							"indexed": false,
							"internalType": "uint256",
							"name": "value",
							"type": "uint256"
						},
						{
							"indexed": false,
							"internalType": "string",
							"name": "func",
							"type": "string"
						},
						{
							"indexed": false,
							"internalType": "bytes",
							"name": "data",
							"type": "bytes"
						},
						{
							"indexed": false,
							"internalType": "uint256",
							"name": "timestamp",
							"type": "uint256"
						}
					],
					"name": "Queue",
					"type": "event"
				},
				{
					"inputs": [],
					"name": "MAX_DELAY",
					"outputs": [
						{
							"internalType": "uint256",
							"name": "",
							"type": "uint256"
						}
					],
					"stateMutability": "view",
					"type": "function"
				},
				{
					"inputs": [],
					"name": "MIN_DELAY",
					"outputs": [
						{
							"internalType": "uint256",
							"name": "",
							"type": "uint256"
						}
					],
					"stateMutability": "view",
					"type": "function"
				},
				{
					"inputs": [
						{
							"internalType": "address",
							"name": "_target",
							"type": "address"
						},
						{
							"internalType": "uint256",
							"name": "_value",
							"type": "uint256"
						},
						{
							"internalType": "string",
							"name": "_func",
							"type": "string"
						},
						{
							"internalType": "bytes",
							"name": "_data",
							"type": "bytes"
						},
						{
							"internalType": "uint256",
							"name": "_timestamp",
							"type": "uint256"
						}
					],
					"name": "execute",
					"outputs": [
						{
							"internalType": "bytes",
							"name": "",
							"type": "bytes"
						}
					],
					"stateMutability": "payable",
					"type": "function"
				},
				{
					"inputs": [
						{
							"internalType": "address",
							"name": "_target",
							"type": "address"
						},
						{
							"internalType": "uint256",
							"name": "_value",
							"type": "uint256"
						},
						{
							"internalType": "string",
							"name": "_func",
							"type": "string"
						},
						{
							"internalType": "bytes",
							"name": "_data",
							"type": "bytes"
						},
						{
							"internalType": "uint256",
							"name": "_timestamp",
							"type": "uint256"
						}
					],
					"name": "getTxId",
					"outputs": [
						{
							"internalType": "bytes32",
							"name": "txId",
							"type": "bytes32"
						}
					],
					"stateMutability": "pure",
					"type": "function"
				},
				{
					"inputs": [],
					"name": "owner",
					"outputs": [
						{
							"internalType": "address",
							"name": "",
							"type": "address"
						}
					],
					"stateMutability": "view",
					"type": "function"
				},
				{
					"inputs": [
						{
							"internalType": "address",
							"name": "_target",
							"type": "address"
						},
						{
							"internalType": "uint256",
							"name": "_value",
							"type": "uint256"
						},
						{
							"internalType": "string",
							"name": "_func",
							"type": "string"
						},
						{
							"internalType": "bytes",
							"name": "_data",
							"type": "bytes"
						},
						{
							"internalType": "uint256",
							"name": "_timestamp",
							"type": "uint256"
						}
					],
					"name": "queue",
					"outputs": [],
					"stateMutability": "nonpayable",
					"type": "function"
				},
				{
					"inputs": [
						{
							"internalType": "bytes32",
							"name": "",
							"type": "bytes32"
						}
					],
					"name": "queued",
					"outputs": [
						{
							"internalType": "bool",
							"name": "",
							"type": "bool"
						}
					],
					"stateMutability": "view",
					"type": "function"
				},
				{
					"stateMutability": "payable",
					"type": "receive"
				}
			],
			"devdoc": {
				"kind": "dev",
				"methods": {},
				"version": 1
			},
			"evm": {
				"assembly": "    /* \"demo1/66TimeLock.sol\":386:3978  contract TimeLock {... */\n  mstore(0x40, 0x80)\n    /* \"demo1/66TimeLock.sol\":1074:1185  constructor() {... */\n  callvalue\n  dup1\n  iszero\n  tag_1\n  jumpi\n  revert(0x00, 0x00)\ntag_1:\n  pop\n    /* \"demo1/66TimeLock.sol\":1159:1164  owner */\n  0x00\n    /* \"demo1/66TimeLock.sol\":1159:1177  owner = msg.sender */\n  dup1\n  sload\n  not(sub(shl(0xa0, 0x01), 0x01))\n  and\n    /* \"demo1/66TimeLock.sol\":1167:1177  msg.sender */\n  caller\n    /* \"demo1/66TimeLock.sol\":1159:1177  owner = msg.sender */\n  or\n  swap1\n  sstore\n    /* \"demo1/66TimeLock.sol\":386:3978  contract TimeLock {... */\n  dataSize(sub_0)\n  dup1\n  dataOffset(sub_0)\n  0x00\n  codecopy\n  0x00\n  return\nstop\n\nsub_0: assembly {\n        /* \"demo1/66TimeLock.sol\":386:3978  contract TimeLock {... */\n      mstore(0x40, 0x80)\n      jumpi(tag_1, lt(calldatasize, 0x04))\n      shr(0xe0, calldataload(0x00))\n      dup1\n      0x8a1ce0b6\n      gt\n      tag_10\n      jumpi\n      dup1\n      0x8a1ce0b6\n      eq\n      tag_6\n      jumpi\n      dup1\n      0x8da5cb5b\n      eq\n      tag_7\n      jumpi\n      dup1\n      0x9f81aed7\n      eq\n      tag_8\n      jumpi\n      dup1\n      0xb0f8b142\n      eq\n      tag_9\n      jumpi\n      revert(0x00, 0x00)\n    tag_10:\n      dup1\n      0x228250c9\n      eq\n      tag_3\n      jumpi\n      dup1\n      0x4125ff90\n      eq\n      tag_4\n      jumpi\n      dup1\n      0x4b9915a5\n      eq\n      tag_5\n      jumpi\n      revert(0x00, 0x00)\n    tag_1:\n      jumpi(tag_2, calldatasize)\n      stop\n    tag_2:\n      revert(0x00, 0x00)\n        /* \"demo1/66TimeLock.sol\":902:941  mapping (bytes32 => bool) public queued */\n    tag_3:\n      callvalue\n      dup1\n      iszero\n      tag_13\n      jumpi\n      revert(0x00, 0x00)\n    tag_13:\n      pop\n      tag_14\n      tag_15\n      calldatasize\n      0x04\n      tag_16\n      jump\t// in\n    tag_15:\n      mstore(0x20, 0x01)\n      0x00\n      swap1\n      dup2\n      mstore\n      0x40\n      swap1\n      keccak256\n      sload\n      0xff\n      and\n      dup2\n      jump\n    tag_14:\n      mload(0x40)\n        /* \"#utility.yul\":364:378   */\n      swap1\n      iszero\n        /* \"#utility.yul\":357:379   */\n      iszero\n        /* \"#utility.yul\":339:380   */\n      dup2\n      mstore\n        /* \"#utility.yul\":327:329   */\n      0x20\n        /* \"#utility.yul\":312:330   */\n      add\n        /* \"demo1/66TimeLock.sol\":902:941  mapping (bytes32 => bool) public queued */\n    tag_18:\n      mload(0x40)\n      dup1\n      swap2\n      sub\n      swap1\n      return\n        /* \"demo1/66TimeLock.sol\":1030:1067  uint public constant MAX_DELAY = 1000 */\n    tag_4:\n      callvalue\n      dup1\n      iszero\n      tag_20\n      jumpi\n      revert(0x00, 0x00)\n    tag_20:\n      pop\n      tag_21\n        /* \"demo1/66TimeLock.sol\":1063:1067  1000 */\n      0x03e8\n        /* \"demo1/66TimeLock.sol\":1030:1067  uint public constant MAX_DELAY = 1000 */\n      dup2\n      jump\n    tag_21:\n      mload(0x40)\n        /* \"#utility.yul\":537:562   */\n      swap1\n      dup2\n      mstore\n        /* \"#utility.yul\":525:527   */\n      0x20\n        /* \"#utility.yul\":510:528   */\n      add\n        /* \"demo1/66TimeLock.sol\":1030:1067  uint public constant MAX_DELAY = 1000 */\n      tag_18\n        /* \"#utility.yul\":391:568   */\n      jump\n        /* \"demo1/66TimeLock.sol\":1972:2893  function queue(... */\n    tag_5:\n      callvalue\n      dup1\n      iszero\n      tag_25\n      jumpi\n      revert(0x00, 0x00)\n    tag_25:\n      pop\n      tag_26\n      tag_27\n      calldatasize\n      0x04\n      tag_28\n      jump\t// in\n    tag_27:\n      tag_29\n      jump\t// in\n    tag_26:\n      stop\n        /* \"demo1/66TimeLock.sol\":3710:3975  function getTxId(address _target,... */\n    tag_6:\n      callvalue\n      dup1\n      iszero\n      tag_30\n      jumpi\n      revert(0x00, 0x00)\n    tag_30:\n      pop\n      tag_21\n      tag_32\n      calldatasize\n      0x04\n      tag_28\n      jump\t// in\n    tag_32:\n      tag_33\n      jump\t// in\n        /* \"demo1/66TimeLock.sol\":824:844  address public owner */\n    tag_7:\n      callvalue\n      dup1\n      iszero\n      tag_36\n      jumpi\n      revert(0x00, 0x00)\n    tag_36:\n      pop\n      sload(0x00)\n      tag_37\n      swap1\n      sub(shl(0xa0, 0x01), 0x01)\n      and\n      dup2\n      jump\n    tag_37:\n      mload(0x40)\n      sub(shl(0xa0, 0x01), 0x01)\n        /* \"#utility.yul\":2408:2440   */\n      swap1\n      swap2\n      and\n        /* \"#utility.yul\":2390:2441   */\n      dup2\n      mstore\n        /* \"#utility.yul\":2378:2380   */\n      0x20\n        /* \"#utility.yul\":2363:2381   */\n      add\n        /* \"demo1/66TimeLock.sol\":824:844  address public owner */\n      tag_18\n        /* \"#utility.yul\":2244:2447   */\n      jump\n        /* \"demo1/66TimeLock.sol\":968:1003  uint public constant MIN_DELAY = 10 */\n    tag_8:\n      callvalue\n      dup1\n      iszero\n      tag_41\n      jumpi\n      revert(0x00, 0x00)\n    tag_41:\n      pop\n      tag_21\n        /* \"demo1/66TimeLock.sol\":1001:1003  10 */\n      0x0a\n        /* \"demo1/66TimeLock.sol\":968:1003  uint public constant MIN_DELAY = 10 */\n      dup2\n      jump\n        /* \"demo1/66TimeLock.sol\":2946:3674  function execute(... */\n    tag_9:\n      tag_45\n      tag_46\n      calldatasize\n      0x04\n      tag_28\n      jump\t// in\n    tag_46:\n      tag_47\n      jump\t// in\n    tag_45:\n      mload(0x40)\n      tag_18\n      swap2\n      swap1\n      tag_49\n      jump\t// in\n        /* \"demo1/66TimeLock.sol\":1972:2893  function queue(... */\n    tag_29:\n        /* \"demo1/66TimeLock.sol\":2189:2201  bytes32 txId */\n      0x00\n        /* \"demo1/66TimeLock.sol\":2204:2250  getTxId(_target,_value,_func,_data,_timestamp) */\n      tag_51\n        /* \"demo1/66TimeLock.sol\":2212:2219  _target */\n      dup9\n        /* \"demo1/66TimeLock.sol\":2220:2226  _value */\n      dup9\n        /* \"demo1/66TimeLock.sol\":2227:2232  _func */\n      dup9\n      dup9\n        /* \"demo1/66TimeLock.sol\":2233:2238  _data */\n      dup9\n      dup9\n        /* \"demo1/66TimeLock.sol\":2239:2249  _timestamp */\n      dup9\n        /* \"demo1/66TimeLock.sol\":2204:2211  getTxId */\n      tag_33\n        /* \"demo1/66TimeLock.sol\":2204:2250  getTxId(_target,_value,_func,_data,_timestamp) */\n      jump\t// in\n    tag_51:\n        /* \"demo1/66TimeLock.sol\":2306:2318  queued[txId] */\n      0x00\n      dup2\n      dup2\n      mstore\n        /* \"demo1/66TimeLock.sol\":2306:2312  queued */\n      0x01\n        /* \"demo1/66TimeLock.sol\":2306:2318  queued[txId] */\n      0x20\n      mstore\n      0x40\n      swap1\n      keccak256\n      sload\n        /* \"demo1/66TimeLock.sol\":2189:2250  bytes32 txId = getTxId(_target,_value,_func,_data,_timestamp) */\n      swap1\n      swap2\n      pop\n        /* \"demo1/66TimeLock.sol\":2306:2318  queued[txId] */\n      0xff\n      and\n        /* \"demo1/66TimeLock.sol\":2303:2423  if(queued[txId]){... */\n      iszero\n      tag_52\n      jumpi\n        /* \"demo1/66TimeLock.sol\":2383:2407  AlreadyQueuedError(txId) */\n      mload(0x40)\n      shl(0xe1, 0x4ca8215f)\n      dup2\n      mstore\n      0x04\n      dup2\n      add\n        /* \"#utility.yul\":537:562   */\n      dup3\n      swap1\n      mstore\n        /* \"#utility.yul\":510:528   */\n      0x24\n      add\n        /* \"demo1/66TimeLock.sol\":2383:2407  AlreadyQueuedError(txId) */\n    tag_53:\n      mload(0x40)\n      dup1\n      swap2\n      sub\n      swap1\n      revert\n        /* \"demo1/66TimeLock.sol\":2303:2423  if(queued[txId]){... */\n    tag_52:\n        /* \"demo1/66TimeLock.sol\":2557:2584  block.timestamp + MIN_DELAY */\n      tag_54\n        /* \"demo1/66TimeLock.sol\":1001:1003  10 */\n      0x0a\n        /* \"demo1/66TimeLock.sol\":2557:2572  block.timestamp */\n      timestamp\n        /* \"demo1/66TimeLock.sol\":2557:2584  block.timestamp + MIN_DELAY */\n      tag_55\n      jump\t// in\n    tag_54:\n        /* \"demo1/66TimeLock.sol\":2544:2554  _timestamp */\n      dup3\n        /* \"demo1/66TimeLock.sol\":2544:2584  _timestamp < block.timestamp + MIN_DELAY */\n      lt\n        /* \"demo1/66TimeLock.sol\":2544:2628  _timestamp < block.timestamp + MIN_DELAY || _timestamp > block.timestamp + MAX_DELAY */\n      dup1\n      tag_56\n      jumpi\n      pop\n        /* \"demo1/66TimeLock.sol\":2601:2628  block.timestamp + MAX_DELAY */\n      tag_57\n        /* \"demo1/66TimeLock.sol\":1063:1067  1000 */\n      0x03e8\n        /* \"demo1/66TimeLock.sol\":2601:2616  block.timestamp */\n      timestamp\n        /* \"demo1/66TimeLock.sol\":2601:2628  block.timestamp + MAX_DELAY */\n      tag_55\n      jump\t// in\n    tag_57:\n        /* \"demo1/66TimeLock.sol\":2588:2598  _timestamp */\n      dup3\n        /* \"demo1/66TimeLock.sol\":2588:2628  _timestamp > block.timestamp + MAX_DELAY */\n      gt\n        /* \"demo1/66TimeLock.sol\":2544:2628  _timestamp < block.timestamp + MIN_DELAY || _timestamp > block.timestamp + MAX_DELAY */\n    tag_56:\n        /* \"demo1/66TimeLock.sol\":2541:2755  if(_timestamp < block.timestamp + MIN_DELAY || _timestamp > block.timestamp + MAX_DELAY){... */\n      iszero\n      tag_58\n      jumpi\n        /* \"demo1/66TimeLock.sol\":2687:2739  TimestampNotInRangeError(block.timestamp,_timestamp) */\n      mload(0x40)\n      shl(0xe1, 0x0d4b0b61)\n      dup2\n      mstore\n        /* \"demo1/66TimeLock.sol\":2712:2727  block.timestamp */\n      timestamp\n        /* \"demo1/66TimeLock.sol\":2687:2739  TimestampNotInRangeError(block.timestamp,_timestamp) */\n      0x04\n      dup3\n      add\n        /* \"#utility.yul\":3274:3299   */\n      mstore\n        /* \"#utility.yul\":3315:3333   */\n      0x24\n      dup2\n      add\n        /* \"#utility.yul\":3308:3342   */\n      dup4\n      swap1\n      mstore\n        /* \"#utility.yul\":3247:3265   */\n      0x44\n      add\n        /* \"demo1/66TimeLock.sol\":2687:2739  TimestampNotInRangeError(block.timestamp,_timestamp) */\n      tag_53\n        /* \"#utility.yul\":3100:3348   */\n      jump\n        /* \"demo1/66TimeLock.sol\":2541:2755  if(_timestamp < block.timestamp + MIN_DELAY || _timestamp > block.timestamp + MAX_DELAY){... */\n    tag_58:\n        /* \"demo1/66TimeLock.sol\":2791:2803  queued[txId] */\n      0x00\n      dup2\n      dup2\n      mstore\n        /* \"demo1/66TimeLock.sol\":2806:2810  true */\n      0x01\n        /* \"demo1/66TimeLock.sol\":2791:2803  queued[txId] */\n      0x20\n      dup2\n      swap1\n      mstore\n      0x40\n      swap2\n      dup3\n      swap1\n      keccak256\n        /* \"demo1/66TimeLock.sol\":2791:2810  queued[txId] = true */\n      dup1\n      sload\n      not(0xff)\n      and\n      swap1\n      swap2\n      or\n      swap1\n      sstore\n        /* \"demo1/66TimeLock.sol\":2832:2881  Queue(txId,_target,_value,_func,_data,_timestamp) */\n      mload\n      sub(shl(0xa0, 0x01), 0x01)\n      dup10\n      and\n      swap1\n        /* \"demo1/66TimeLock.sol\":2798:2802  txId */\n      dup3\n      swap1\n        /* \"demo1/66TimeLock.sol\":2832:2881  Queue(txId,_target,_value,_func,_data,_timestamp) */\n      0x3c22f47140594040d205a5533cfedd86c9ab8622c39ead03affb2d97052c794c\n      swap1\n      tag_61\n      swap1\n        /* \"demo1/66TimeLock.sol\":2851:2857  _value */\n      dup12\n      swap1\n        /* \"demo1/66TimeLock.sol\":2858:2863  _func */\n      dup12\n      swap1\n      dup12\n      swap1\n        /* \"demo1/66TimeLock.sol\":2864:2869  _data */\n      dup12\n      swap1\n      dup12\n      swap1\n        /* \"demo1/66TimeLock.sol\":2870:2880  _timestamp */\n      dup12\n      swap1\n        /* \"demo1/66TimeLock.sol\":2832:2881  Queue(txId,_target,_value,_func,_data,_timestamp) */\n      tag_62\n      jump\t// in\n    tag_61:\n      mload(0x40)\n      dup1\n      swap2\n      sub\n      swap1\n      log3\n        /* \"demo1/66TimeLock.sol\":2134:2893  {... */\n      pop\n        /* \"demo1/66TimeLock.sol\":1972:2893  function queue(... */\n      pop\n      pop\n      pop\n      pop\n      pop\n      pop\n      pop\n      jump\t// out\n        /* \"demo1/66TimeLock.sol\":3710:3975  function getTxId(address _target,... */\n    tag_33:\n        /* \"demo1/66TimeLock.sol\":3875:3887  bytes32 txId */\n      0x00\n        /* \"demo1/66TimeLock.sol\":3928:3935  _target */\n      dup8\n        /* \"demo1/66TimeLock.sol\":3936:3942  _value */\n      dup8\n        /* \"demo1/66TimeLock.sol\":3943:3948  _func */\n      dup8\n      dup8\n        /* \"demo1/66TimeLock.sol\":3949:3954  _data */\n      dup8\n      dup8\n        /* \"demo1/66TimeLock.sol\":3955:3965  _timestamp */\n      dup8\n        /* \"demo1/66TimeLock.sol\":3917:3966  abi.encode(_target,_value,_func,_data,_timestamp) */\n      add(0x20, mload(0x40))\n      tag_64\n      swap8\n      swap7\n      swap6\n      swap5\n      swap4\n      swap3\n      swap2\n      swap1\n      tag_65\n      jump\t// in\n    tag_64:\n      mload(0x40)\n      0x20\n      dup2\n      dup4\n      sub\n      sub\n      dup2\n      mstore\n      swap1\n      0x40\n      mstore\n        /* \"demo1/66TimeLock.sol\":3907:3967  keccak256(abi.encode(_target,_value,_func,_data,_timestamp)) */\n      dup1\n      mload\n      swap1\n      0x20\n      add\n      keccak256\n        /* \"demo1/66TimeLock.sol\":3900:3967  return keccak256(abi.encode(_target,_value,_func,_data,_timestamp)) */\n      swap1\n      pop\n        /* \"demo1/66TimeLock.sol\":3710:3975  function getTxId(address _target,... */\n      swap8\n      swap7\n      pop\n      pop\n      pop\n      pop\n      pop\n      pop\n      pop\n      jump\t// out\n        /* \"demo1/66TimeLock.sol\":2946:3674  function execute(... */\n    tag_47:\n        /* \"demo1/66TimeLock.sol\":1422:1427  owner */\n      sload(0x00)\n        /* \"demo1/66TimeLock.sol\":3137:3149  bytes memory */\n      0x60\n      swap1\n      sub(shl(0xa0, 0x01), 0x01)\n        /* \"demo1/66TimeLock.sol\":1422:1427  owner */\n      and\n        /* \"demo1/66TimeLock.sol\":1408:1418  msg.sender */\n      caller\n        /* \"demo1/66TimeLock.sol\":1408:1427  msg.sender != owner */\n      eq\n        /* \"demo1/66TimeLock.sol\":1405:1476  if(msg.sender != owner){... */\n      tag_67\n      jumpi\n        /* \"demo1/66TimeLock.sol\":1450:1464  NotOwnerEror() */\n      mload(0x40)\n      shl(0xe0, 0x0995643b)\n      dup2\n      mstore\n      0x04\n      add\n      mload(0x40)\n      dup1\n      swap2\n      sub\n      swap1\n      revert\n        /* \"demo1/66TimeLock.sol\":1405:1476  if(msg.sender != owner){... */\n    tag_67:\n        /* \"demo1/66TimeLock.sol\":3197:3209  bytes32 txId */\n      0x00\n        /* \"demo1/66TimeLock.sol\":3212:3258  getTxId(_target,_value,_func,_data,_timestamp) */\n      tag_69\n        /* \"demo1/66TimeLock.sol\":3220:3227  _target */\n      dup10\n        /* \"demo1/66TimeLock.sol\":3228:3234  _value */\n      dup10\n        /* \"demo1/66TimeLock.sol\":3235:3240  _func */\n      dup10\n      dup10\n        /* \"demo1/66TimeLock.sol\":3241:3246  _data */\n      dup10\n      dup10\n        /* \"demo1/66TimeLock.sol\":3247:3257  _timestamp */\n      dup10\n        /* \"demo1/66TimeLock.sol\":3212:3219  getTxId */\n      tag_33\n        /* \"demo1/66TimeLock.sol\":3212:3258  getTxId(_target,_value,_func,_data,_timestamp) */\n      jump\t// in\n    tag_69:\n        /* \"demo1/66TimeLock.sol\":3340:3352  queued[txId] */\n      0x00\n      dup2\n      dup2\n      mstore\n        /* \"demo1/66TimeLock.sol\":3340:3346  queued */\n      0x01\n        /* \"demo1/66TimeLock.sol\":3340:3352  queued[txId] */\n      0x20\n      mstore\n      0x40\n      swap1\n      keccak256\n      sload\n        /* \"demo1/66TimeLock.sol\":3197:3258  bytes32 txId = getTxId(_target,_value,_func,_data,_timestamp) */\n      swap1\n      swap2\n      pop\n        /* \"demo1/66TimeLock.sol\":3340:3352  queued[txId] */\n      0xff\n      and\n        /* \"demo1/66TimeLock.sol\":3336:3444  if(!queued[txId]){... */\n      tag_70\n      jumpi\n        /* \"demo1/66TimeLock.sol\":3412:3432  NotQueuedError(txId) */\n      mload(0x40)\n      shl(0xe0, 0x0995c9d5)\n      dup2\n      mstore\n      0x04\n      dup2\n      add\n        /* \"#utility.yul\":537:562   */\n      dup3\n      swap1\n      mstore\n        /* \"#utility.yul\":510:528   */\n      0x24\n      add\n        /* \"demo1/66TimeLock.sol\":3412:3432  NotQueuedError(txId) */\n      tag_53\n        /* \"#utility.yul\":391:568   */\n      jump\n        /* \"demo1/66TimeLock.sol\":3336:3444  if(!queued[txId]){... */\n    tag_70:\n        /* \"demo1/66TimeLock.sol\":3527:3542  block.timestamp */\n      timestamp\n        /* \"demo1/66TimeLock.sol\":3514:3524  _timestamp */\n      dup4\n        /* \"demo1/66TimeLock.sol\":3514:3542  _timestamp < block.timestamp */\n      lt\n        /* \"demo1/66TimeLock.sol\":3511:3657  if(_timestamp < block.timestamp){... */\n      iszero\n      tag_72\n      jumpi\n        /* \"demo1/66TimeLock.sol\":3593:3645  TimestampNotInRangeError(block.timestamp,_timestamp) */\n      mload(0x40)\n      shl(0xe1, 0x0d4b0b61)\n      dup2\n      mstore\n        /* \"demo1/66TimeLock.sol\":3618:3633  block.timestamp */\n      timestamp\n        /* \"demo1/66TimeLock.sol\":3593:3645  TimestampNotInRangeError(block.timestamp,_timestamp) */\n      0x04\n      dup3\n      add\n        /* \"#utility.yul\":3274:3299   */\n      mstore\n        /* \"#utility.yul\":3315:3333   */\n      0x24\n      dup2\n      add\n        /* \"#utility.yul\":3308:3342   */\n      dup5\n      swap1\n      mstore\n        /* \"#utility.yul\":3247:3265   */\n      0x44\n      add\n        /* \"demo1/66TimeLock.sol\":3593:3645  TimestampNotInRangeError(block.timestamp,_timestamp) */\n      tag_53\n        /* \"#utility.yul\":3100:3348   */\n      jump\n        /* \"demo1/66TimeLock.sol\":3511:3657  if(_timestamp < block.timestamp){... */\n    tag_72:\n        /* \"demo1/66TimeLock.sol\":3150:3674  {... */\n      pop\n        /* \"demo1/66TimeLock.sol\":2946:3674  function execute(... */\n      swap8\n      swap7\n      pop\n      pop\n      pop\n      pop\n      pop\n      pop\n      pop\n      jump\t// out\n        /* \"#utility.yul\":14:194   */\n    tag_16:\n        /* \"#utility.yul\":73:79   */\n      0x00\n        /* \"#utility.yul\":126:128   */\n      0x20\n        /* \"#utility.yul\":114:123   */\n      dup3\n        /* \"#utility.yul\":105:112   */\n      dup5\n        /* \"#utility.yul\":101:124   */\n      sub\n        /* \"#utility.yul\":97:129   */\n      slt\n        /* \"#utility.yul\":94:146   */\n      iszero\n      tag_78\n      jumpi\n        /* \"#utility.yul\":142:143   */\n      0x00\n        /* \"#utility.yul\":139:140   */\n      0x00\n        /* \"#utility.yul\":132:144   */\n      revert\n        /* \"#utility.yul\":94:146   */\n    tag_78:\n      pop\n        /* \"#utility.yul\":165:188   */\n      calldataload\n      swap2\n        /* \"#utility.yul\":14:194   */\n      swap1\n      pop\n      jump\t// out\n        /* \"#utility.yul\":573:921   */\n    tag_74:\n        /* \"#utility.yul\":625:633   */\n      0x00\n        /* \"#utility.yul\":635:641   */\n      0x00\n        /* \"#utility.yul\":689:692   */\n      dup4\n        /* \"#utility.yul\":682:686   */\n      0x1f\n        /* \"#utility.yul\":674:680   */\n      dup5\n        /* \"#utility.yul\":670:687   */\n      add\n        /* \"#utility.yul\":666:693   */\n      slt\n        /* \"#utility.yul\":656:711   */\n      tag_82\n      jumpi\n        /* \"#utility.yul\":707:708   */\n      0x00\n        /* \"#utility.yul\":704:705   */\n      0x00\n        /* \"#utility.yul\":697:709   */\n      revert\n        /* \"#utility.yul\":656:711   */\n    tag_82:\n      pop\n        /* \"#utility.yul\":730:750   */\n      dup2\n      calldataload\n        /* \"#utility.yul\":773:791   */\n      0xffffffffffffffff\n        /* \"#utility.yul\":762:792   */\n      dup2\n      gt\n        /* \"#utility.yul\":759:809   */\n      iszero\n      tag_83\n      jumpi\n        /* \"#utility.yul\":805:806   */\n      0x00\n        /* \"#utility.yul\":802:803   */\n      0x00\n        /* \"#utility.yul\":795:807   */\n      revert\n        /* \"#utility.yul\":759:809   */\n    tag_83:\n        /* \"#utility.yul\":842:846   */\n      0x20\n        /* \"#utility.yul\":834:840   */\n      dup4\n        /* \"#utility.yul\":830:847   */\n      add\n        /* \"#utility.yul\":818:847   */\n      swap2\n      pop\n        /* \"#utility.yul\":894:897   */\n      dup4\n        /* \"#utility.yul\":887:891   */\n      0x20\n        /* \"#utility.yul\":878:884   */\n      dup3\n        /* \"#utility.yul\":870:876   */\n      dup6\n        /* \"#utility.yul\":866:885   */\n      add\n        /* \"#utility.yul\":862:892   */\n      add\n        /* \"#utility.yul\":859:898   */\n      gt\n        /* \"#utility.yul\":856:915   */\n      iszero\n      tag_84\n      jumpi\n        /* \"#utility.yul\":911:912   */\n      0x00\n        /* \"#utility.yul\":908:909   */\n      0x00\n        /* \"#utility.yul\":901:913   */\n      revert\n        /* \"#utility.yul\":856:915   */\n    tag_84:\n        /* \"#utility.yul\":573:921   */\n      swap3\n      pop\n      swap3\n      swap1\n      pop\n      jump\t// out\n        /* \"#utility.yul\":926:2057   */\n    tag_28:\n        /* \"#utility.yul\":1044:1050   */\n      0x00\n        /* \"#utility.yul\":1052:1058   */\n      0x00\n        /* \"#utility.yul\":1060:1066   */\n      0x00\n        /* \"#utility.yul\":1068:1074   */\n      0x00\n        /* \"#utility.yul\":1076:1082   */\n      0x00\n        /* \"#utility.yul\":1084:1090   */\n      0x00\n        /* \"#utility.yul\":1092:1098   */\n      0x00\n        /* \"#utility.yul\":1145:1148   */\n      0xa0\n        /* \"#utility.yul\":1133:1142   */\n      dup9\n        /* \"#utility.yul\":1124:1131   */\n      dup11\n        /* \"#utility.yul\":1120:1143   */\n      sub\n        /* \"#utility.yul\":1116:1149   */\n      slt\n        /* \"#utility.yul\":1113:1166   */\n      iszero\n      tag_86\n      jumpi\n        /* \"#utility.yul\":1162:1163   */\n      0x00\n        /* \"#utility.yul\":1159:1160   */\n      0x00\n        /* \"#utility.yul\":1152:1164   */\n      revert\n        /* \"#utility.yul\":1113:1166   */\n    tag_86:\n        /* \"#utility.yul\":1188:1211   */\n      dup8\n      calldataload\n      sub(shl(0xa0, 0x01), 0x01)\n        /* \"#utility.yul\":1240:1271   */\n      dup2\n      and\n        /* \"#utility.yul\":1230:1272   */\n      dup2\n      eq\n        /* \"#utility.yul\":1220:1290   */\n      tag_87\n      jumpi\n        /* \"#utility.yul\":1286:1287   */\n      0x00\n        /* \"#utility.yul\":1283:1284   */\n      0x00\n        /* \"#utility.yul\":1276:1288   */\n      revert\n        /* \"#utility.yul\":1220:1290   */\n    tag_87:\n        /* \"#utility.yul\":1309:1314   */\n      swap7\n      pop\n        /* \"#utility.yul\":1387:1389   */\n      0x20\n        /* \"#utility.yul\":1372:1390   */\n      dup9\n      add\n        /* \"#utility.yul\":1359:1391   */\n      calldataload\n      swap6\n      pop\n        /* \"#utility.yul\":1468:1470   */\n      0x40\n        /* \"#utility.yul\":1453:1471   */\n      dup9\n      add\n        /* \"#utility.yul\":1440:1472   */\n      calldataload\n        /* \"#utility.yul\":1495:1513   */\n      0xffffffffffffffff\n        /* \"#utility.yul\":1484:1514   */\n      dup2\n      gt\n        /* \"#utility.yul\":1481:1531   */\n      iszero\n      tag_88\n      jumpi\n        /* \"#utility.yul\":1527:1528   */\n      0x00\n        /* \"#utility.yul\":1524:1525   */\n      0x00\n        /* \"#utility.yul\":1517:1529   */\n      revert\n        /* \"#utility.yul\":1481:1531   */\n    tag_88:\n        /* \"#utility.yul\":1566:1625   */\n      tag_89\n        /* \"#utility.yul\":1617:1624   */\n      dup11\n        /* \"#utility.yul\":1608:1614   */\n      dup3\n        /* \"#utility.yul\":1597:1606   */\n      dup12\n        /* \"#utility.yul\":1593:1615   */\n      add\n        /* \"#utility.yul\":1566:1625   */\n      tag_74\n      jump\t// in\n    tag_89:\n        /* \"#utility.yul\":1644:1652   */\n      swap1\n      swap7\n      pop\n        /* \"#utility.yul\":1540:1625   */\n      swap5\n      pop\n      pop\n        /* \"#utility.yul\":1732:1734   */\n      0x60\n        /* \"#utility.yul\":1717:1735   */\n      dup9\n      add\n        /* \"#utility.yul\":1704:1736   */\n      calldataload\n        /* \"#utility.yul\":1761:1779   */\n      0xffffffffffffffff\n        /* \"#utility.yul\":1748:1780   */\n      dup2\n      gt\n        /* \"#utility.yul\":1745:1797   */\n      iszero\n      tag_90\n      jumpi\n        /* \"#utility.yul\":1793:1794   */\n      0x00\n        /* \"#utility.yul\":1790:1791   */\n      0x00\n        /* \"#utility.yul\":1783:1795   */\n      revert\n        /* \"#utility.yul\":1745:1797   */\n    tag_90:\n        /* \"#utility.yul\":1832:1893   */\n      tag_91\n        /* \"#utility.yul\":1885:1892   */\n      dup11\n        /* \"#utility.yul\":1874:1882   */\n      dup3\n        /* \"#utility.yul\":1863:1872   */\n      dup12\n        /* \"#utility.yul\":1859:1883   */\n      add\n        /* \"#utility.yul\":1832:1893   */\n      tag_74\n      jump\t// in\n    tag_91:\n        /* \"#utility.yul\":926:2057   */\n      swap9\n      swap12\n      swap8\n      swap11\n      pop\n      swap6\n      swap9\n      swap5\n      swap8\n      swap6\n      swap7\n        /* \"#utility.yul\":2020:2023   */\n      0x80\n        /* \"#utility.yul\":2005:2024   */\n      swap1\n      swap6\n      add\n        /* \"#utility.yul\":1992:2025   */\n      calldataload\n      swap5\n        /* \"#utility.yul\":926:2057   */\n      swap4\n      pop\n      pop\n      pop\n      pop\n      jump\t// out\n        /* \"#utility.yul\":2452:2868   */\n    tag_49:\n        /* \"#utility.yul\":2599:2601   */\n      0x20\n        /* \"#utility.yul\":2588:2597   */\n      dup2\n        /* \"#utility.yul\":2581:2602   */\n      mstore\n        /* \"#utility.yul\":2562:2566   */\n      0x00\n        /* \"#utility.yul\":2631:2637   */\n      dup3\n        /* \"#utility.yul\":2625:2638   */\n      mload\n        /* \"#utility.yul\":2674:2680   */\n      dup1\n        /* \"#utility.yul\":2669:2671   */\n      0x20\n        /* \"#utility.yul\":2658:2667   */\n      dup5\n        /* \"#utility.yul\":2654:2672   */\n      add\n        /* \"#utility.yul\":2647:2681   */\n      mstore\n        /* \"#utility.yul\":2733:2739   */\n      dup1\n        /* \"#utility.yul\":2728:2730   */\n      0x20\n        /* \"#utility.yul\":2720:2726   */\n      dup6\n        /* \"#utility.yul\":2716:2731   */\n      add\n        /* \"#utility.yul\":2711:2713   */\n      0x40\n        /* \"#utility.yul\":2700:2709   */\n      dup6\n        /* \"#utility.yul\":2696:2714   */\n      add\n        /* \"#utility.yul\":2690:2740   */\n      mcopy\n        /* \"#utility.yul\":2789:2790   */\n      0x00\n        /* \"#utility.yul\":2784:2786   */\n      0x40\n        /* \"#utility.yul\":2775:2781   */\n      dup3\n        /* \"#utility.yul\":2764:2773   */\n      dup6\n        /* \"#utility.yul\":2760:2782   */\n      add\n        /* \"#utility.yul\":2756:2787   */\n      add\n        /* \"#utility.yul\":2749:2791   */\n      mstore\n        /* \"#utility.yul\":2859:2861   */\n      0x40\n        /* \"#utility.yul\":2852:2854   */\n      0x1f\n        /* \"#utility.yul\":2848:2855   */\n      not\n        /* \"#utility.yul\":2843:2845   */\n      0x1f\n        /* \"#utility.yul\":2835:2841   */\n      dup4\n        /* \"#utility.yul\":2831:2846   */\n      add\n        /* \"#utility.yul\":2827:2856   */\n      and\n        /* \"#utility.yul\":2816:2825   */\n      dup5\n        /* \"#utility.yul\":2812:2857   */\n      add\n        /* \"#utility.yul\":2808:2862   */\n      add\n        /* \"#utility.yul\":2800:2862   */\n      swap2\n      pop\n      pop\n        /* \"#utility.yul\":2452:2868   */\n      swap3\n      swap2\n      pop\n      pop\n      jump\t// out\n        /* \"#utility.yul\":2873:3095   */\n    tag_55:\n        /* \"#utility.yul\":2938:2947   */\n      dup1\n      dup3\n      add\n        /* \"#utility.yul\":2959:2969   */\n      dup1\n      dup3\n      gt\n        /* \"#utility.yul\":2956:3089   */\n      iszero\n      tag_96\n      jumpi\n        /* \"#utility.yul\":3011:3021   */\n      0x4e487b71\n        /* \"#utility.yul\":3006:3009   */\n      0xe0\n        /* \"#utility.yul\":3002:3022   */\n      shl\n        /* \"#utility.yul\":2999:3000   */\n      0x00\n        /* \"#utility.yul\":2992:3023   */\n      mstore\n        /* \"#utility.yul\":3046:3050   */\n      0x11\n        /* \"#utility.yul\":3043:3044   */\n      0x04\n        /* \"#utility.yul\":3036:3051   */\n      mstore\n        /* \"#utility.yul\":3074:3078   */\n      0x24\n        /* \"#utility.yul\":3071:3072   */\n      0x00\n        /* \"#utility.yul\":3064:3079   */\n      revert\n        /* \"#utility.yul\":2956:3089   */\n    tag_96:\n        /* \"#utility.yul\":2873:3095   */\n      swap3\n      swap2\n      pop\n      pop\n      jump\t// out\n        /* \"#utility.yul\":3353:3620   */\n    tag_75:\n        /* \"#utility.yul\":3442:3448   */\n      dup2\n        /* \"#utility.yul\":3437:3440   */\n      dup4\n        /* \"#utility.yul\":3430:3449   */\n      mstore\n        /* \"#utility.yul\":3494:3500   */\n      dup2\n        /* \"#utility.yul\":3487:3492   */\n      dup2\n        /* \"#utility.yul\":3480:3484   */\n      0x20\n        /* \"#utility.yul\":3475:3478   */\n      dup6\n        /* \"#utility.yul\":3471:3485   */\n      add\n        /* \"#utility.yul\":3458:3501   */\n      calldatacopy\n      pop\n        /* \"#utility.yul\":3546:3547   */\n      0x00\n        /* \"#utility.yul\":3521:3537   */\n      dup3\n      dup3\n      add\n        /* \"#utility.yul\":3539:3543   */\n      0x20\n        /* \"#utility.yul\":3517:3544   */\n      swap1\n      dup2\n      add\n        /* \"#utility.yul\":3510:3548   */\n      swap2\n      swap1\n      swap2\n      mstore\n        /* \"#utility.yul\":3602:3604   */\n      0x1f\n        /* \"#utility.yul\":3581:3596   */\n      swap1\n      swap2\n      add\n      not(0x1f)\n        /* \"#utility.yul\":3577:3606   */\n      and\n        /* \"#utility.yul\":3568:3607   */\n      swap1\n      swap2\n      add\n        /* \"#utility.yul\":3564:3614   */\n      add\n      swap1\n        /* \"#utility.yul\":3353:3620   */\n      jump\t// out\n        /* \"#utility.yul\":3625:4204   */\n    tag_62:\n        /* \"#utility.yul\":3896:3902   */\n      dup7\n        /* \"#utility.yul\":3885:3894   */\n      dup2\n        /* \"#utility.yul\":3878:3903   */\n      mstore\n        /* \"#utility.yul\":3939:3942   */\n      0x80\n        /* \"#utility.yul\":3934:3936   */\n      0x20\n        /* \"#utility.yul\":3923:3932   */\n      dup3\n        /* \"#utility.yul\":3919:3937   */\n      add\n        /* \"#utility.yul\":3912:3943   */\n      mstore\n        /* \"#utility.yul\":3859:3863   */\n      0x00\n        /* \"#utility.yul\":3966:4029   */\n      tag_100\n        /* \"#utility.yul\":4024:4027   */\n      0x80\n        /* \"#utility.yul\":4013:4022   */\n      dup4\n        /* \"#utility.yul\":4009:4028   */\n      add\n        /* \"#utility.yul\":4001:4007   */\n      dup8\n        /* \"#utility.yul\":3993:3999   */\n      dup10\n        /* \"#utility.yul\":3966:4029   */\n      tag_75\n      jump\t// in\n    tag_100:\n        /* \"#utility.yul\":4077:4086   */\n      dup3\n        /* \"#utility.yul\":4069:4075   */\n      dup2\n        /* \"#utility.yul\":4065:4087   */\n      sub\n        /* \"#utility.yul\":4060:4062   */\n      0x40\n        /* \"#utility.yul\":4049:4058   */\n      dup5\n        /* \"#utility.yul\":4045:4063   */\n      add\n        /* \"#utility.yul\":4038:4088   */\n      mstore\n        /* \"#utility.yul\":4105:4155   */\n      tag_101\n        /* \"#utility.yul\":4148:4154   */\n      dup2\n        /* \"#utility.yul\":4140:4146   */\n      dup7\n        /* \"#utility.yul\":4132:4138   */\n      dup9\n        /* \"#utility.yul\":4105:4155   */\n      tag_75\n      jump\t// in\n    tag_101:\n        /* \"#utility.yul\":4097:4155   */\n      swap2\n      pop\n      pop\n        /* \"#utility.yul\":4191:4197   */\n      dup3\n        /* \"#utility.yul\":4186:4188   */\n      0x60\n        /* \"#utility.yul\":4175:4184   */\n      dup4\n        /* \"#utility.yul\":4171:4189   */\n      add\n        /* \"#utility.yul\":4164:4198   */\n      mstore\n        /* \"#utility.yul\":3625:4204   */\n      swap8\n      swap7\n      pop\n      pop\n      pop\n      pop\n      pop\n      pop\n      pop\n      jump\t// out\n        /* \"#utility.yul\":4209:4886   */\n    tag_65:\n        /* \"#utility.yul\":4537:4538   */\n      0x01\n        /* \"#utility.yul\":4533:4534   */\n      dup1\n        /* \"#utility.yul\":4528:4531   */\n      0xa0\n        /* \"#utility.yul\":4524:4535   */\n      shl\n        /* \"#utility.yul\":4520:4539   */\n      sub\n        /* \"#utility.yul\":4512:4518   */\n      dup9\n        /* \"#utility.yul\":4508:4540   */\n      and\n        /* \"#utility.yul\":4497:4506   */\n      dup2\n        /* \"#utility.yul\":4490:4541   */\n      mstore\n        /* \"#utility.yul\":4577:4583   */\n      dup7\n        /* \"#utility.yul\":4572:4574   */\n      0x20\n        /* \"#utility.yul\":4561:4570   */\n      dup3\n        /* \"#utility.yul\":4557:4575   */\n      add\n        /* \"#utility.yul\":4550:4584   */\n      mstore\n        /* \"#utility.yul\":4620:4623   */\n      0xa0\n        /* \"#utility.yul\":4615:4617   */\n      0x40\n        /* \"#utility.yul\":4604:4613   */\n      dup3\n        /* \"#utility.yul\":4600:4618   */\n      add\n        /* \"#utility.yul\":4593:4624   */\n      mstore\n        /* \"#utility.yul\":4471:4475   */\n      0x00\n        /* \"#utility.yul\":4647:4710   */\n      tag_103\n        /* \"#utility.yul\":4705:4708   */\n      0xa0\n        /* \"#utility.yul\":4694:4703   */\n      dup4\n        /* \"#utility.yul\":4690:4709   */\n      add\n        /* \"#utility.yul\":4682:4688   */\n      dup8\n        /* \"#utility.yul\":4674:4680   */\n      dup10\n        /* \"#utility.yul\":4647:4710   */\n      tag_75\n      jump\t// in\n    tag_103:\n        /* \"#utility.yul\":4758:4767   */\n      dup3\n        /* \"#utility.yul\":4750:4756   */\n      dup2\n        /* \"#utility.yul\":4746:4768   */\n      sub\n        /* \"#utility.yul\":4741:4743   */\n      0x60\n        /* \"#utility.yul\":4730:4739   */\n      dup5\n        /* \"#utility.yul\":4726:4744   */\n      add\n        /* \"#utility.yul\":4719:4769   */\n      mstore\n        /* \"#utility.yul\":4786:4836   */\n      tag_104\n        /* \"#utility.yul\":4829:4835   */\n      dup2\n        /* \"#utility.yul\":4821:4827   */\n      dup7\n        /* \"#utility.yul\":4813:4819   */\n      dup9\n        /* \"#utility.yul\":4786:4836   */\n      tag_75\n      jump\t// in\n    tag_104:\n        /* \"#utility.yul\":4778:4836   */\n      swap2\n      pop\n      pop\n        /* \"#utility.yul\":4873:4879   */\n      dup3\n        /* \"#utility.yul\":4867:4870   */\n      0x80\n        /* \"#utility.yul\":4856:4865   */\n      dup4\n        /* \"#utility.yul\":4852:4871   */\n      add\n        /* \"#utility.yul\":4845:4880   */\n      mstore\n        /* \"#utility.yul\":4209:4886   */\n      swap9\n      swap8\n      pop\n      pop\n      pop\n      pop\n      pop\n      pop\n      pop\n      pop\n      jump\t// out\n\n    auxdata: 0xa2646970667358221220f7c9ddfd1c23ba01051eb46f3ed2389a0c8109f0eb69da5af6d37f36e0e250ed64736f6c63430008210033\n}\n",
				"bytecode": {
					"linkReferences": {},
					"object": "6080604052348015600e575f5ffd5b505f80546001600160a01b031916331790556105bb8061002d5f395ff3fe608060405260043610610071575f3560e01c80638a1ce0b61161004c5780638a1ce0b6146101035780638da5cb5b146101225780639f81aed714610158578063b0f8b1421461016c575f5ffd5b8063228250c91461007c5780634125ff90146100bf5780634b9915a5146100e2575f5ffd5b3661007857005b5f5ffd5b348015610087575f5ffd5b506100aa61009636600461037a565b60016020525f908152604090205460ff1681565b60405190151581526020015b60405180910390f35b3480156100ca575f5ffd5b506100d46103e881565b6040519081526020016100b6565b3480156100ed575f5ffd5b506101016100fc3660046103d6565b61018c565b005b34801561010e575f5ffd5b506100d461011d3660046103d6565b610292565b34801561012d575f5ffd5b505f54610140906001600160a01b031681565b6040516001600160a01b0390911681526020016100b6565b348015610163575f5ffd5b506100d4600a81565b61017f61017a3660046103d6565b6102d3565b6040516100b69190610474565b5f61019c88888888888888610292565b5f8181526001602052604090205490915060ff16156101d657604051634ca8215f60e11b8152600481018290526024015b60405180910390fd5b6101e1600a426104a9565b8210806101f857506101f56103e8426104a9565b82115b1561021f57604051630d4b0b6160e11b8152426004820152602481018390526044016101cd565b5f81815260016020819052604091829020805460ff19169091179055516001600160a01b0389169082907f3c22f47140594040d205a5533cfedd86c9ab8622c39ead03affb2d97052c794c90610280908b908b908b908b908b908b906104f6565b60405180910390a35050505050505050565b5f878787878787876040516020016102b09796959493929190610536565b604051602081830303815290604052805190602001209050979650505050505050565b5f546060906001600160a01b0316331461030057604051630995643b60e01b815260040160405180910390fd5b5f61031089898989898989610292565b5f8181526001602052604090205490915060ff1661034457604051630995c9d560e01b8152600481018290526024016101cd565b4283101561036e57604051630d4b0b6160e11b8152426004820152602481018490526044016101cd565b50979650505050505050565b5f6020828403121561038a575f5ffd5b5035919050565b5f5f83601f8401126103a1575f5ffd5b50813567ffffffffffffffff8111156103b8575f5ffd5b6020830191508360208285010111156103cf575f5ffd5b9250929050565b5f5f5f5f5f5f5f60a0888a0312156103ec575f5ffd5b87356001600160a01b0381168114610402575f5ffd5b965060208801359550604088013567ffffffffffffffff811115610424575f5ffd5b6104308a828b01610391565b909650945050606088013567ffffffffffffffff81111561044f575f5ffd5b61045b8a828b01610391565b989b979a50959894979596608090950135949350505050565b602081525f82518060208401528060208501604085015e5f604082850101526040601f19601f83011684010191505092915050565b808201808211156104c857634e487b7160e01b5f52601160045260245ffd5b92915050565b81835281816020850137505f828201602090810191909152601f909101601f19169091010190565b868152608060208201525f61050f6080830187896104ce565b82810360408401526105228186886104ce565b915050826060830152979650505050505050565b60018060a01b038816815286602082015260a060408201525f61055d60a0830187896104ce565b82810360608401526105708186886104ce565b9150508260808301529897505050505050505056fea2646970667358221220f7c9ddfd1c23ba01051eb46f3ed2389a0c8109f0eb69da5af6d37f36e0e250ed64736f6c63430008210033",
					"opcodes": "PUSH1 0x80 PUSH1 0x40 MSTORE CALLVALUE DUP1 ISZERO PUSH1 0xE JUMPI PUSH0 PUSH0 REVERT JUMPDEST POP PUSH0 DUP1 SLOAD PUSH1 0x1 PUSH1 0x1 PUSH1 0xA0 SHL SUB NOT AND CALLER OR SWAP1 SSTORE PUSH2 0x5BB DUP1 PUSH2 0x2D PUSH0 CODECOPY PUSH0 RETURN INVALID PUSH1 0x80 PUSH1 0x40 MSTORE PUSH1 0x4 CALLDATASIZE LT PUSH2 0x71 JUMPI PUSH0 CALLDATALOAD PUSH1 0xE0 SHR DUP1 PUSH4 0x8A1CE0B6 GT PUSH2 0x4C JUMPI DUP1 PUSH4 0x8A1CE0B6 EQ PUSH2 0x103 JUMPI DUP1 PUSH4 0x8DA5CB5B EQ PUSH2 0x122 JUMPI DUP1 PUSH4 0x9F81AED7 EQ PUSH2 0x158 JUMPI DUP1 PUSH4 0xB0F8B142 EQ PUSH2 0x16C JUMPI PUSH0 PUSH0 REVERT JUMPDEST DUP1 PUSH4 0x228250C9 EQ PUSH2 0x7C JUMPI DUP1 PUSH4 0x4125FF90 EQ PUSH2 0xBF JUMPI DUP1 PUSH4 0x4B9915A5 EQ PUSH2 0xE2 JUMPI PUSH0 PUSH0 REVERT JUMPDEST CALLDATASIZE PUSH2 0x78 JUMPI STOP JUMPDEST PUSH0 PUSH0 REVERT JUMPDEST CALLVALUE DUP1 ISZERO PUSH2 0x87 JUMPI PUSH0 PUSH0 REVERT JUMPDEST POP PUSH2 0xAA PUSH2 0x96 CALLDATASIZE PUSH1 0x4 PUSH2 0x37A JUMP JUMPDEST PUSH1 0x1 PUSH1 0x20 MSTORE PUSH0 SWAP1 DUP2 MSTORE PUSH1 0x40 SWAP1 KECCAK256 SLOAD PUSH1 0xFF AND DUP2 JUMP JUMPDEST PUSH1 0x40 MLOAD SWAP1 ISZERO ISZERO DUP2 MSTORE PUSH1 0x20 ADD JUMPDEST PUSH1 0x40 MLOAD DUP1 SWAP2 SUB SWAP1 RETURN JUMPDEST CALLVALUE DUP1 ISZERO PUSH2 0xCA JUMPI PUSH0 PUSH0 REVERT JUMPDEST POP PUSH2 0xD4 PUSH2 0x3E8 DUP2 JUMP JUMPDEST PUSH1 0x40 MLOAD SWAP1 DUP2 MSTORE PUSH1 0x20 ADD PUSH2 0xB6 JUMP JUMPDEST CALLVALUE DUP1 ISZERO PUSH2 0xED JUMPI PUSH0 PUSH0 REVERT JUMPDEST POP PUSH2 0x101 PUSH2 0xFC CALLDATASIZE PUSH1 0x4 PUSH2 0x3D6 JUMP JUMPDEST PUSH2 0x18C JUMP JUMPDEST STOP JUMPDEST CALLVALUE DUP1 ISZERO PUSH2 0x10E JUMPI PUSH0 PUSH0 REVERT JUMPDEST POP PUSH2 0xD4 PUSH2 0x11D CALLDATASIZE PUSH1 0x4 PUSH2 0x3D6 JUMP JUMPDEST PUSH2 0x292 JUMP JUMPDEST CALLVALUE DUP1 ISZERO PUSH2 0x12D JUMPI PUSH0 PUSH0 REVERT JUMPDEST POP PUSH0 SLOAD PUSH2 0x140 SWAP1 PUSH1 0x1 PUSH1 0x1 PUSH1 0xA0 SHL SUB AND DUP2 JUMP JUMPDEST PUSH1 0x40 MLOAD PUSH1 0x1 PUSH1 0x1 PUSH1 0xA0 SHL SUB SWAP1 SWAP2 AND DUP2 MSTORE PUSH1 0x20 ADD PUSH2 0xB6 JUMP JUMPDEST CALLVALUE DUP1 ISZERO PUSH2 0x163 JUMPI PUSH0 PUSH0 REVERT JUMPDEST POP PUSH2 0xD4 PUSH1 0xA DUP2 JUMP JUMPDEST PUSH2 0x17F PUSH2 0x17A CALLDATASIZE PUSH1 0x4 PUSH2 0x3D6 JUMP JUMPDEST PUSH2 0x2D3 JUMP JUMPDEST PUSH1 0x40 MLOAD PUSH2 0xB6 SWAP2 SWAP1 PUSH2 0x474 JUMP JUMPDEST PUSH0 PUSH2 0x19C DUP9 DUP9 DUP9 DUP9 DUP9 DUP9 DUP9 PUSH2 0x292 JUMP JUMPDEST PUSH0 DUP2 DUP2 MSTORE PUSH1 0x1 PUSH1 0x20 MSTORE PUSH1 0x40 SWAP1 KECCAK256 SLOAD SWAP1 SWAP2 POP PUSH1 0xFF AND ISZERO PUSH2 0x1D6 JUMPI PUSH1 0x40 MLOAD PUSH4 0x4CA8215F PUSH1 0xE1 SHL DUP2 MSTORE PUSH1 0x4 DUP2 ADD DUP3 SWAP1 MSTORE PUSH1 0x24 ADD JUMPDEST PUSH1 0x40 MLOAD DUP1 SWAP2 SUB SWAP1 REVERT JUMPDEST PUSH2 0x1E1 PUSH1 0xA TIMESTAMP PUSH2 0x4A9 JUMP JUMPDEST DUP3 LT DUP1 PUSH2 0x1F8 JUMPI POP PUSH2 0x1F5 PUSH2 0x3E8 TIMESTAMP PUSH2 0x4A9 JUMP JUMPDEST DUP3 GT JUMPDEST ISZERO PUSH2 0x21F JUMPI PUSH1 0x40 MLOAD PUSH4 0xD4B0B61 PUSH1 0xE1 SHL DUP2 MSTORE TIMESTAMP PUSH1 0x4 DUP3 ADD MSTORE PUSH1 0x24 DUP2 ADD DUP4 SWAP1 MSTORE PUSH1 0x44 ADD PUSH2 0x1CD JUMP JUMPDEST PUSH0 DUP2 DUP2 MSTORE PUSH1 0x1 PUSH1 0x20 DUP2 SWAP1 MSTORE PUSH1 0x40 SWAP2 DUP3 SWAP1 KECCAK256 DUP1 SLOAD PUSH1 0xFF NOT AND SWAP1 SWAP2 OR SWAP1 SSTORE MLOAD PUSH1 0x1 PUSH1 0x1 PUSH1 0xA0 SHL SUB DUP10 AND SWAP1 DUP3 SWAP1 PUSH32 0x3C22F47140594040D205A5533CFEDD86C9AB8622C39EAD03AFFB2D97052C794C SWAP1 PUSH2 0x280 SWAP1 DUP12 SWAP1 DUP12 SWAP1 DUP12 SWAP1 DUP12 SWAP1 DUP12 SWAP1 DUP12 SWAP1 PUSH2 0x4F6 JUMP JUMPDEST PUSH1 0x40 MLOAD DUP1 SWAP2 SUB SWAP1 LOG3 POP POP POP POP POP POP POP POP JUMP JUMPDEST PUSH0 DUP8 DUP8 DUP8 DUP8 DUP8 DUP8 DUP8 PUSH1 0x40 MLOAD PUSH1 0x20 ADD PUSH2 0x2B0 SWAP8 SWAP7 SWAP6 SWAP5 SWAP4 SWAP3 SWAP2 SWAP1 PUSH2 0x536 JUMP JUMPDEST PUSH1 0x40 MLOAD PUSH1 0x20 DUP2 DUP4 SUB SUB DUP2 MSTORE SWAP1 PUSH1 0x40 MSTORE DUP1 MLOAD SWAP1 PUSH1 0x20 ADD KECCAK256 SWAP1 POP SWAP8 SWAP7 POP POP POP POP POP POP POP JUMP JUMPDEST PUSH0 SLOAD PUSH1 0x60 SWAP1 PUSH1 0x1 PUSH1 0x1 PUSH1 0xA0 SHL SUB AND CALLER EQ PUSH2 0x300 JUMPI PUSH1 0x40 MLOAD PUSH4 0x995643B PUSH1 0xE0 SHL DUP2 MSTORE PUSH1 0x4 ADD PUSH1 0x40 MLOAD DUP1 SWAP2 SUB SWAP1 REVERT JUMPDEST PUSH0 PUSH2 0x310 DUP10 DUP10 DUP10 DUP10 DUP10 DUP10 DUP10 PUSH2 0x292 JUMP JUMPDEST PUSH0 DUP2 DUP2 MSTORE PUSH1 0x1 PUSH1 0x20 MSTORE PUSH1 0x40 SWAP1 KECCAK256 SLOAD SWAP1 SWAP2 POP PUSH1 0xFF AND PUSH2 0x344 JUMPI PUSH1 0x40 MLOAD PUSH4 0x995C9D5 PUSH1 0xE0 SHL DUP2 MSTORE PUSH1 0x4 DUP2 ADD DUP3 SWAP1 MSTORE PUSH1 0x24 ADD PUSH2 0x1CD JUMP JUMPDEST TIMESTAMP DUP4 LT ISZERO PUSH2 0x36E JUMPI PUSH1 0x40 MLOAD PUSH4 0xD4B0B61 PUSH1 0xE1 SHL DUP2 MSTORE TIMESTAMP PUSH1 0x4 DUP3 ADD MSTORE PUSH1 0x24 DUP2 ADD DUP5 SWAP1 MSTORE PUSH1 0x44 ADD PUSH2 0x1CD JUMP JUMPDEST POP SWAP8 SWAP7 POP POP POP POP POP POP POP JUMP JUMPDEST PUSH0 PUSH1 0x20 DUP3 DUP5 SUB SLT ISZERO PUSH2 0x38A JUMPI PUSH0 PUSH0 REVERT JUMPDEST POP CALLDATALOAD SWAP2 SWAP1 POP JUMP JUMPDEST PUSH0 PUSH0 DUP4 PUSH1 0x1F DUP5 ADD SLT PUSH2 0x3A1 JUMPI PUSH0 PUSH0 REVERT JUMPDEST POP DUP2 CALLDATALOAD PUSH8 0xFFFFFFFFFFFFFFFF DUP2 GT ISZERO PUSH2 0x3B8 JUMPI PUSH0 PUSH0 REVERT JUMPDEST PUSH1 0x20 DUP4 ADD SWAP2 POP DUP4 PUSH1 0x20 DUP3 DUP6 ADD ADD GT ISZERO PUSH2 0x3CF JUMPI PUSH0 PUSH0 REVERT JUMPDEST SWAP3 POP SWAP3 SWAP1 POP JUMP JUMPDEST PUSH0 PUSH0 PUSH0 PUSH0 PUSH0 PUSH0 PUSH0 PUSH1 0xA0 DUP9 DUP11 SUB SLT ISZERO PUSH2 0x3EC JUMPI PUSH0 PUSH0 REVERT JUMPDEST DUP8 CALLDATALOAD PUSH1 0x1 PUSH1 0x1 PUSH1 0xA0 SHL SUB DUP2 AND DUP2 EQ PUSH2 0x402 JUMPI PUSH0 PUSH0 REVERT JUMPDEST SWAP7 POP PUSH1 0x20 DUP9 ADD CALLDATALOAD SWAP6 POP PUSH1 0x40 DUP9 ADD CALLDATALOAD PUSH8 0xFFFFFFFFFFFFFFFF DUP2 GT ISZERO PUSH2 0x424 JUMPI PUSH0 PUSH0 REVERT JUMPDEST PUSH2 0x430 DUP11 DUP3 DUP12 ADD PUSH2 0x391 JUMP JUMPDEST SWAP1 SWAP7 POP SWAP5 POP POP PUSH1 0x60 DUP9 ADD CALLDATALOAD PUSH8 0xFFFFFFFFFFFFFFFF DUP2 GT ISZERO PUSH2 0x44F JUMPI PUSH0 PUSH0 REVERT JUMPDEST PUSH2 0x45B DUP11 DUP3 DUP12 ADD PUSH2 0x391 JUMP JUMPDEST SWAP9 SWAP12 SWAP8 SWAP11 POP SWAP6 SWAP9 SWAP5 SWAP8 SWAP6 SWAP7 PUSH1 0x80 SWAP1 SWAP6 ADD CALLDATALOAD SWAP5 SWAP4 POP POP POP POP JUMP JUMPDEST PUSH1 0x20 DUP2 MSTORE PUSH0 DUP3 MLOAD DUP1 PUSH1 0x20 DUP5 ADD MSTORE DUP1 PUSH1 0x20 DUP6 ADD PUSH1 0x40 DUP6 ADD MCOPY PUSH0 PUSH1 0x40 DUP3 DUP6 ADD ADD MSTORE PUSH1 0x40 PUSH1 0x1F NOT PUSH1 0x1F DUP4 ADD AND DUP5 ADD ADD SWAP2 POP POP SWAP3 SWAP2 POP POP JUMP JUMPDEST DUP1 DUP3 ADD DUP1 DUP3 GT ISZERO PUSH2 0x4C8 JUMPI PUSH4 0x4E487B71 PUSH1 0xE0 SHL PUSH0 MSTORE PUSH1 0x11 PUSH1 0x4 MSTORE PUSH1 0x24 PUSH0 REVERT JUMPDEST SWAP3 SWAP2 POP POP JUMP JUMPDEST DUP2 DUP4 MSTORE DUP2 DUP2 PUSH1 0x20 DUP6 ADD CALLDATACOPY POP PUSH0 DUP3 DUP3 ADD PUSH1 0x20 SWAP1 DUP2 ADD SWAP2 SWAP1 SWAP2 MSTORE PUSH1 0x1F SWAP1 SWAP2 ADD PUSH1 0x1F NOT AND SWAP1 SWAP2 ADD ADD SWAP1 JUMP JUMPDEST DUP7 DUP2 MSTORE PUSH1 0x80 PUSH1 0x20 DUP3 ADD MSTORE PUSH0 PUSH2 0x50F PUSH1 0x80 DUP4 ADD DUP8 DUP10 PUSH2 0x4CE JUMP JUMPDEST DUP3 DUP2 SUB PUSH1 0x40 DUP5 ADD MSTORE PUSH2 0x522 DUP2 DUP7 DUP9 PUSH2 0x4CE JUMP JUMPDEST SWAP2 POP POP DUP3 PUSH1 0x60 DUP4 ADD MSTORE SWAP8 SWAP7 POP POP POP POP POP POP POP JUMP JUMPDEST PUSH1 0x1 DUP1 PUSH1 0xA0 SHL SUB DUP9 AND DUP2 MSTORE DUP7 PUSH1 0x20 DUP3 ADD MSTORE PUSH1 0xA0 PUSH1 0x40 DUP3 ADD MSTORE PUSH0 PUSH2 0x55D PUSH1 0xA0 DUP4 ADD DUP8 DUP10 PUSH2 0x4CE JUMP JUMPDEST DUP3 DUP2 SUB PUSH1 0x60 DUP5 ADD MSTORE PUSH2 0x570 DUP2 DUP7 DUP9 PUSH2 0x4CE JUMP JUMPDEST SWAP2 POP POP DUP3 PUSH1 0x80 DUP4 ADD MSTORE SWAP9 SWAP8 POP POP POP POP POP POP POP POP JUMP INVALID LOG2 PUSH5 0x6970667358 0x22 SLT KECCAK256 0xF7 0xC9 0xDD REVERT SHR 0x23 0xBA ADD SDIV CLZ 0xB4 PUSH16 0x3ED2389A0C8109F0EB69DA5AF6D37F36 RJUMP 0xE250 0xED PUSH5 0x736F6C6343 STOP ADDMOD 0x21 STOP CALLER "
				},
				"gasEstimates": {
					"creation": {
						"codeDepositCost": "293400",
						"executionCost": "24563",
						"totalCost": "317963"
					},
					"external": {
						"MAX_DELAY()": "217",
						"MIN_DELAY()": "238",
						"execute(address,uint256,string,bytes,uint256)": "infinite",
						"getTxId(address,uint256,string,bytes,uint256)": "infinite",
						"owner()": "2357",
						"queue(address,uint256,string,bytes,uint256)": "infinite",
						"queued(bytes32)": "2437"
					}
				},
				"methodIdentifiers": {
					"MAX_DELAY()": "4125ff90",
					"MIN_DELAY()": "9f81aed7",
					"execute(address,uint256,string,bytes,uint256)": "b0f8b142",
					"getTxId(address,uint256,string,bytes,uint256)": "8a1ce0b6",
					"owner()": "8da5cb5b",
					"queue(address,uint256,string,bytes,uint256)": "4b9915a5",
					"queued(bytes32)": "228250c9"
				}
			},
			"storageLayout": {
				"storage": [
					{
						"astId": 33,
						"contract": "demo1/66TimeLock.sol:TimeLock",
						"label": "owner",
						"offset": 0,
						"slot": "0",
						"type": "t_address"
					},
					{
						"astId": 37,
						"contract": "demo1/66TimeLock.sol:TimeLock",
						"label": "queued",
						"offset": 0,
						"slot": "1",
						"type": "t_mapping(t_bytes32,t_bool)"
					}
				],
				"types": {
					"t_address": {
						"encoding": "inplace",
						"label": "address",
						"numberOfBytes": "20"
					},
					"t_bool": {
						"encoding": "inplace",
						"label": "bool",
						"numberOfBytes": "1"
					},
					"t_bytes32": {
						"encoding": "inplace",
						"label": "bytes32",
						"numberOfBytes": "32"
					},
					"t_mapping(t_bytes32,t_bool)": {
						"encoding": "mapping",
						"key": "t_bytes32",
						"label": "mapping(bytes32 => bool)",
						"numberOfBytes": "32",
						"value": "t_bool"
					}
				}
			},
			"userdoc": {
				"kind": "user",
				"methods": {},
				"version": 1
			}
		}
	}
}