{
	"demo1/37Multiple.sol": {
		"A": {
			"abi": [
				{
					"inputs": [],
					"name": "functionA",
					"outputs": [
						{
							"internalType": "string",
							"name": "",
							"type": "string"
						}
					],
					"stateMutability": "pure",
					"type": "function"
				}
			],
			"devdoc": {
				"kind": "dev",
				"methods": {},
				"version": 1
			},
			"evm": {
				"assembly": "    /* \"demo1/37Multiple.sol\":60:200  contract A {... */\n  mstore(0x40, 0x80)\n  callvalue\n  dup1\n  iszero\n  tag_1\n  jumpi\n  revert(0x00, 0x00)\ntag_1:\n  pop\n  dataSize(sub_0)\n  dup1\n  dataOffset(sub_0)\n  0x00\n  codecopy\n  0x00\n  return\nstop\n\nsub_0: assembly {\n        /* \"demo1/37Multiple.sol\":60:200  contract A {... */\n      mstore(0x40, 0x80)\n      callvalue\n      dup1\n      iszero\n      tag_1\n      jumpi\n      revert(0x00, 0x00)\n    tag_1:\n      pop\n      jumpi(tag_2, lt(calldatasize, 0x04))\n      shr(0xe0, calldataload(0x00))\n      dup1\n      0x9febadf2\n      eq\n      tag_3\n      jumpi\n    tag_2:\n      revert(0x00, 0x00)\n        /* \"demo1/37Multiple.sol\":78:197  function functionA()external pure virtual returns (string memory){... */\n    tag_3:\n        /* \"demo1/37Multiple.sol\":154:189  return \"Function A from contract A\" */\n      0x40\n      dup1\n      mload\n      dup1\n      dup3\n      add\n      dup3\n      mstore\n      0x1a\n      dup2\n      mstore\n      0x46756e6374696f6e20412066726f6d20636f6e74726163742041000000000000\n      0x20\n      dup3\n      add\n      mstore\n        /* \"demo1/37Multiple.sol\":78:197  function functionA()external pure virtual returns (string memory){... */\n      swap1\n      mload\n      tag_6\n      swap2\n        /* \"demo1/37Multiple.sol\":154:189  return \"Function A from contract A\" */\n      swap1\n        /* \"demo1/37Multiple.sol\":78:197  function functionA()external pure virtual returns (string memory){... */\n      tag_7\n      jump\t// in\n    tag_6:\n      mload(0x40)\n      dup1\n      swap2\n      sub\n      swap1\n      return\n        /* \"#utility.yul\":14:432   */\n    tag_7:\n        /* \"#utility.yul\":163:165   */\n      0x20\n        /* \"#utility.yul\":152:161   */\n      dup2\n        /* \"#utility.yul\":145:166   */\n      mstore\n        /* \"#utility.yul\":126:130   */\n      0x00\n        /* \"#utility.yul\":195:201   */\n      dup3\n        /* \"#utility.yul\":189:202   */\n      mload\n        /* \"#utility.yul\":238:244   */\n      dup1\n        /* \"#utility.yul\":233:235   */\n      0x20\n        /* \"#utility.yul\":222:231   */\n      dup5\n        /* \"#utility.yul\":218:236   */\n      add\n        /* \"#utility.yul\":211:245   */\n      mstore\n        /* \"#utility.yul\":297:303   */\n      dup1\n        /* \"#utility.yul\":292:294   */\n      0x20\n        /* \"#utility.yul\":284:290   */\n      dup6\n        /* \"#utility.yul\":280:295   */\n      add\n        /* \"#utility.yul\":275:277   */\n      0x40\n        /* \"#utility.yul\":264:273   */\n      dup6\n        /* \"#utility.yul\":260:278   */\n      add\n        /* \"#utility.yul\":254:304   */\n      mcopy\n        /* \"#utility.yul\":353:354   */\n      0x00\n        /* \"#utility.yul\":348:350   */\n      0x40\n        /* \"#utility.yul\":339:345   */\n      dup3\n        /* \"#utility.yul\":328:337   */\n      dup6\n        /* \"#utility.yul\":324:346   */\n      add\n        /* \"#utility.yul\":320:351   */\n      add\n        /* \"#utility.yul\":313:355   */\n      mstore\n        /* \"#utility.yul\":423:425   */\n      0x40\n        /* \"#utility.yul\":416:418   */\n      0x1f\n        /* \"#utility.yul\":412:419   */\n      not\n        /* \"#utility.yul\":407:409   */\n      0x1f\n        /* \"#utility.yul\":399:405   */\n      dup4\n        /* \"#utility.yul\":395:410   */\n      add\n        /* \"#utility.yul\":391:420   */\n      and\n        /* \"#utility.yul\":380:389   */\n      dup5\n        /* \"#utility.yul\":376:421   */\n      add\n        /* \"#utility.yul\":372:426   */\n      add\n        /* \"#utility.yul\":364:426   */\n      swap2\n      pop\n      pop\n        /* \"#utility.yul\":14:432   */\n      swap3\n      swap2\n      pop\n      pop\n      jump\t// out\n\n    auxdata: 0xa264697066735822122074c681419ba55dd6fb7e35c6c4412486a85ce1da1336a29a4b715c61f66e5ee964736f6c634300081f0033\n}\n",
				"bytecode": {
					"linkReferences": {},
					"object": "6080604052348015600e575f5ffd5b5060db80601a5f395ff3fe6080604052348015600e575f5ffd5b50600436106026575f3560e01c80639febadf214602a575b5f5ffd5b604080518082018252601a81527f46756e6374696f6e20412066726f6d20636f6e7472616374204100000000000060208201529051606791906070565b60405180910390f35b602081525f82518060208401528060208501604085015e5f604082850101526040601f19601f8301168401019150509291505056fea264697066735822122074c681419ba55dd6fb7e35c6c4412486a85ce1da1336a29a4b715c61f66e5ee964736f6c634300081f0033",
					"opcodes": "PUSH1 0x80 PUSH1 0x40 MSTORE CALLVALUE DUP1 ISZERO PUSH1 0xE JUMPI PUSH0 PUSH0 REVERT JUMPDEST POP PUSH1 0xDB DUP1 PUSH1 0x1A PUSH0 CODECOPY PUSH0 RETURN INVALID PUSH1 0x80 PUSH1 0x40 MSTORE CALLVALUE DUP1 ISZERO PUSH1 0xE JUMPI PUSH0 PUSH0 REVERT JUMPDEST POP PUSH1 0x4 CALLDATASIZE LT PUSH1 0x26 JUMPI PUSH0 CALLDATALOAD PUSH1 0xE0 SHR DUP1 PUSH4 0x9FEBADF2 EQ PUSH1 0x2A JUMPI JUMPDEST PUSH0 PUSH0 REVERT JUMPDEST PUSH1 0x40 DUP1 MLOAD DUP1 DUP3 ADD DUP3 MSTORE PUSH1 0x1A DUP2 MSTORE PUSH32 0x46756E6374696F6E20412066726F6D20636F6E74726163742041000000000000 PUSH1 0x20 DUP3 ADD MSTORE SWAP1 MLOAD PUSH1 0x67 SWAP2 SWAP1 PUSH1 0x70 JUMP JUMPDEST PUSH1 0x40 MLOAD DUP1 SWAP2 SUB SWAP1 RETURN JUMPDEST PUSH1 0x20 DUP2 MSTORE PUSH0 DUP3 MLOAD DUP1 PUSH1 0x20 DUP5 ADD MSTORE DUP1 PUSH1 0x20 DUP6 ADD PUSH1 0x40 DUP6 ADD MCOPY PUSH0 PUSH1 0x40 DUP3 DUP6 ADD ADD MSTORE PUSH1 0x40 PUSH1 0x1F NOT PUSH1 0x1F DUP4 ADD AND DUP5 ADD ADD SWAP2 POP POP SWAP3 SWAP2 POP POP JUMP INVALID LOG2 PUSH5 0x6970667358 0x22 SLT KECCAK256 PUSH21 0xC681419BA55DD6FB7E35C6C4412486A85CE1DA1336 LOG2 SWAP11 0x4B PUSH18 0x5C61F66E5EE964736F6C634300081F003300 "
				},
				"gasEstimates": {
					"creation": {
						"codeDepositCost": "43800",
						"executionCost": "91",
						"totalCost": "43891"
					},
					"external": {
						"functionA()": "infinite"
					}
				},
				"methodIdentifiers": {
					"functionA()": "9febadf2"
				}
			},
			"storageLayout": {
				"storage": [],
				"types": null
			},
			"userdoc": {
				"kind": "user",
				"methods": {},
				"version": 1
			}
		}
	}
}