{
	"work/31Enum.sol": {
		"Enum": {
			"abi": [
				{
					"inputs": [],
					"name": "getStatus",
					"outputs": [
						{
							"internalType": "enum Enum.OrderStatus",
							"name": "",
							"type": "uint8"
						}
					],
					"stateMutability": "view",
					"type": "function"
				},
				{
					"inputs": [],
					"name": "order",
					"outputs": [
						{
							"internalType": "address",
							"name": "addr",
							"type": "address"
						},
						{
							"internalType": "enum Enum.OrderStatus",
							"name": "bo",
							"type": "uint8"
						}
					],
					"stateMutability": "view",
					"type": "function"
				},
				{
					"inputs": [
						{
							"internalType": "uint256",
							"name": "",
							"type": "uint256"
						}
					],
					"name": "orders",
					"outputs": [
						{
							"internalType": "address",
							"name": "addr",
							"type": "address"
						},
						{
							"internalType": "enum Enum.OrderStatus",
							"name": "bo",
							"type": "uint8"
						}
					],
					"stateMutability": "view",
					"type": "function"
				},
				{
					"inputs": [],
					"name": "reset",
					"outputs": [],
					"stateMutability": "nonpayable",
					"type": "function"
				},
				{
					"inputs": [],
					"name": "setOrder",
					"outputs": [],
					"stateMutability": "nonpayable",
					"type": "function"
				},
				{
					"inputs": [],
					"name": "status",
					"outputs": [
						{
							"internalType": "enum Enum.OrderStatus",
							"name": "",
							"type": "uint8"
						}
					],
					"stateMutability": "view",
					"type": "function"
				},
				{
					"inputs": [],
					"name": "updateBo",
					"outputs": [],
					"stateMutability": "nonpayable",
					"type": "function"
				}
			],
			"devdoc": {
				"kind": "dev",
				"methods": {},
				"version": 1
			},
			"evm": {
				"assembly": "    /* \"work/31Enum.sol\":60:741  contract Enum {... */\n  mstore(0x40, 0x80)\n  callvalue\n  dup1\n  iszero\n  tag_1\n  jumpi\n  revert(0x00, 0x00)\ntag_1:\n  pop\n  dataSize(sub_0)\n  dup1\n  dataOffset(sub_0)\n  0x00\n  codecopy\n  0x00\n  return\nstop\n\nsub_0: assembly {\n        /* \"work/31Enum.sol\":60:741  contract Enum {... */\n      mstore(0x40, 0x80)\n      callvalue\n      dup1\n      iszero\n      tag_1\n      jumpi\n      revert(0x00, 0x00)\n    tag_1:\n      pop\n      jumpi(tag_2, lt(calldatasize, 0x04))\n      shr(0xe0, calldataload(0x00))\n      dup1\n      0xbf15071d\n      gt\n      tag_10\n      jumpi\n      dup1\n      0xbf15071d\n      eq\n      tag_6\n      jumpi\n      dup1\n      0xc5134f6f\n      eq\n      tag_7\n      jumpi\n      dup1\n      0xd826f88f\n      eq\n      tag_8\n      jumpi\n      dup1\n      0xdb8f9da8\n      eq\n      tag_9\n      jumpi\n      revert(0x00, 0x00)\n    tag_10:\n      dup1\n      0x200d2ed2\n      eq\n      tag_3\n      jumpi\n      dup1\n      0x4e69d560\n      eq\n      tag_4\n      jumpi\n      dup1\n      0xa85c38ef\n      eq\n      tag_5\n      jumpi\n    tag_2:\n      revert(0x00, 0x00)\n        /* \"work/31Enum.sol\":223:248  OrderStatus public status */\n    tag_3:\n      sload(0x00)\n      tag_11\n      swap1\n      0xff\n      and\n      dup2\n      jump\n    tag_11:\n      mload(0x40)\n      tag_13\n      swap2\n      swap1\n      tag_14\n      jump\t// in\n    tag_13:\n      mload(0x40)\n      dup1\n      swap2\n      sub\n      swap1\n      return\n        /* \"work/31Enum.sol\":387:475  function getStatus()external view returns (OrderStatus) {... */\n    tag_4:\n        /* \"work/31Enum.sol\":430:441  OrderStatus */\n      0x00\n        /* \"work/31Enum.sol\":461:467  status */\n      sload\n      0xff\n      and\n        /* \"work/31Enum.sol\":387:475  function getStatus()external view returns (OrderStatus) {... */\n      jump(tag_11)\n        /* \"work/31Enum.sol\":334:355  Order[] public orders */\n    tag_5:\n      tag_18\n      tag_19\n      calldatasize\n      0x04\n      tag_20\n      jump\t// in\n    tag_19:\n      tag_21\n      jump\t// in\n    tag_18:\n      mload(0x40)\n      tag_13\n      swap3\n      swap2\n      swap1\n      tag_23\n      jump\t// in\n        /* \"work/31Enum.sol\":362:380  Order public order */\n    tag_6:\n      sload(0x02)\n      tag_18\n      swap1\n      sub(shl(0xa0, 0x01), 0x01)\n      dup2\n      and\n      swap1\n      shl(0xa0, 0x01)\n      swap1\n      div\n      0xff\n      and\n      dup3\n      jump\n        /* \"work/31Enum.sol\":548:629  function updateBo()external {... */\n    tag_7:\n      tag_27\n      tag_28\n      jump\t// in\n    tag_27:\n      stop\n        /* \"work/31Enum.sol\":483:540  function reset()external {... */\n    tag_8:\n      tag_27\n        /* \"work/31Enum.sol\":526:532  status */\n      0x00\n        /* \"work/31Enum.sol\":519:532  delete status */\n      dup1\n      sload\n      not(0xff)\n      and\n      swap1\n      sstore\n        /* \"work/31Enum.sol\":483:540  function reset()external {... */\n      jump\n        /* \"work/31Enum.sol\":641:738  function setOrder()external {... */\n    tag_9:\n      tag_27\n      tag_32\n      jump\t// in\n        /* \"work/31Enum.sol\":334:355  Order[] public orders */\n    tag_21:\n      0x01\n      dup2\n      dup2\n      sload\n      dup2\n      lt\n      tag_34\n      jumpi\n      0x00\n      dup1\n      revert\n    tag_34:\n      0x00\n      swap2\n      dup3\n      mstore\n      0x20\n      swap1\n      swap2\n      keccak256\n      add\n      sload\n      sub(shl(0xa0, 0x01), 0x01)\n      dup2\n      and\n      swap2\n      pop\n      shl(0xa0, 0x01)\n      swap1\n      div\n      0xff\n      and\n      dup3\n      jump\t// out\n        /* \"work/31Enum.sol\":548:629  function updateBo()external {... */\n    tag_28:\n        /* \"work/31Enum.sol\":600:621  OrderStatus.Cancelled */\n      0x05\n        /* \"work/31Enum.sol\":587:593  orders */\n      0x01\n        /* \"work/31Enum.sol\":594:595  0 */\n      0x00\n        /* \"work/31Enum.sol\":587:596  orders[0] */\n      dup2\n      sload\n      dup2\n      lt\n      tag_38\n      jumpi\n      tag_38\n      tag_39\n      jump\t// in\n    tag_38:\n      0x00\n      swap2\n      dup3\n      mstore\n      0x20\n      swap1\n      swap2\n      keccak256\n      add\n        /* \"work/31Enum.sol\":587:621  orders[0].bo=OrderStatus.Cancelled */\n      dup1\n      sload\n      not(shl(0xa0, 0xff))\n      and\n      shl(0xa0, 0x01)\n      dup4\n      0x05\n      dup2\n      gt\n      iszero\n      tag_42\n      jumpi\n      tag_42\n      tag_43\n      jump\t// in\n    tag_42:\n      mul\n      or\n      swap1\n      sstore\n      pop\n        /* \"work/31Enum.sol\":548:629  function updateBo()external {... */\n      jump\t// out\n        /* \"work/31Enum.sol\":641:738  function setOrder()external {... */\n    tag_32:\n        /* \"work/31Enum.sol\":692:729  Order(msg.sender,OrderStatus.Pending) */\n      0x40\n      dup1\n      mload\n      dup1\n      dup3\n      add\n      swap1\n      swap2\n      mstore\n        /* \"work/31Enum.sol\":698:708  msg.sender */\n      caller\n        /* \"work/31Enum.sol\":692:729  Order(msg.sender,OrderStatus.Pending) */\n      dup2\n      mstore\n        /* \"work/31Enum.sol\":680:686  orders */\n      0x01\n        /* \"work/31Enum.sol\":692:729  Order(msg.sender,OrderStatus.Pending) */\n      0x20\n      dup3\n      add\n      dup2\n      dup2\n      mstore\n        /* \"work/31Enum.sol\":680:730  orders.push(Order(msg.sender,OrderStatus.Pending)) */\n      dup2\n      sload\n      dup1\n      dup4\n      add\n      dup4\n      sstore\n      0x00\n      swap3\n      swap1\n      swap3\n      mstore\n      dup3\n      mload\n      0xb10e2d527612073b26eecdfd717e6a320cf44b4afac2b0732d9fcbe2b7fa0cf6\n      swap1\n      swap3\n      add\n      dup1\n      sload\n      sub(shl(0xa0, 0x01), 0x01)\n      swap1\n      swap4\n      and\n      not(sub(shl(0xa0, 0x01), 0x01))\n      dup5\n      and\n      dup2\n      or\n      dup3\n      sstore\n      swap2\n      mload\n      swap1\n      swap3\n      swap1\n      swap2\n      dup4\n      swap2\n      not(sub(shl(0xa8, 0x01), 0x01))\n      and\n      or\n      shl(0xa0, 0x01)\n      dup4\n      0x05\n      dup2\n      gt\n      iszero\n      tag_50\n      jumpi\n      tag_50\n      tag_43\n      jump\t// in\n    tag_50:\n      mul\n      or\n      swap1\n      sstore\n      pop\n      pop\n      pop\n        /* \"work/31Enum.sol\":641:738  function setOrder()external {... */\n      jump\t// out\n        /* \"#utility.yul\":14:141   */\n    tag_43:\n        /* \"#utility.yul\":75:85   */\n      0x4e487b71\n        /* \"#utility.yul\":70:73   */\n      0xe0\n        /* \"#utility.yul\":66:86   */\n      shl\n        /* \"#utility.yul\":63:64   */\n      0x00\n        /* \"#utility.yul\":56:87   */\n      mstore\n        /* \"#utility.yul\":106:110   */\n      0x21\n        /* \"#utility.yul\":103:104   */\n      0x04\n        /* \"#utility.yul\":96:111   */\n      mstore\n        /* \"#utility.yul\":130:134   */\n      0x24\n        /* \"#utility.yul\":127:128   */\n      0x00\n        /* \"#utility.yul\":120:135   */\n      revert\n        /* \"#utility.yul\":146:385   */\n    tag_51:\n        /* \"#utility.yul\":229:230   */\n      0x06\n        /* \"#utility.yul\":222:227   */\n      dup2\n        /* \"#utility.yul\":219:231   */\n      lt\n        /* \"#utility.yul\":209:352   */\n      tag_55\n      jumpi\n        /* \"#utility.yul\":274:284   */\n      0x4e487b71\n        /* \"#utility.yul\":269:272   */\n      0xe0\n        /* \"#utility.yul\":265:285   */\n      shl\n        /* \"#utility.yul\":262:263   */\n      0x00\n        /* \"#utility.yul\":255:286   */\n      mstore\n        /* \"#utility.yul\":309:313   */\n      0x21\n        /* \"#utility.yul\":306:307   */\n      0x04\n        /* \"#utility.yul\":299:314   */\n      mstore\n        /* \"#utility.yul\":337:341   */\n      0x24\n        /* \"#utility.yul\":334:335   */\n      0x00\n        /* \"#utility.yul\":327:342   */\n      revert\n        /* \"#utility.yul\":209:352   */\n    tag_55:\n        /* \"#utility.yul\":361:379   */\n      swap1\n      mstore\n        /* \"#utility.yul\":146:385   */\n      jump\t// out\n        /* \"#utility.yul\":390:599   */\n    tag_14:\n        /* \"#utility.yul\":535:537   */\n      0x20\n        /* \"#utility.yul\":520:538   */\n      dup2\n      add\n        /* \"#utility.yul\":547:593   */\n      tag_57\n        /* \"#utility.yul\":524:533   */\n      dup3\n        /* \"#utility.yul\":575:581   */\n      dup5\n        /* \"#utility.yul\":547:593   */\n      tag_51\n      jump\t// in\n    tag_57:\n        /* \"#utility.yul\":390:599   */\n      swap3\n      swap2\n      pop\n      pop\n      jump\t// out\n        /* \"#utility.yul\":604:784   */\n    tag_20:\n        /* \"#utility.yul\":663:669   */\n      0x00\n        /* \"#utility.yul\":716:718   */\n      0x20\n        /* \"#utility.yul\":704:713   */\n      dup3\n        /* \"#utility.yul\":695:702   */\n      dup5\n        /* \"#utility.yul\":691:714   */\n      sub\n        /* \"#utility.yul\":687:719   */\n      slt\n        /* \"#utility.yul\":684:736   */\n      iszero\n      tag_59\n      jumpi\n        /* \"#utility.yul\":732:733   */\n      0x00\n        /* \"#utility.yul\":729:730   */\n      0x00\n        /* \"#utility.yul\":722:734   */\n      revert\n        /* \"#utility.yul\":684:736   */\n    tag_59:\n      pop\n        /* \"#utility.yul\":755:778   */\n      calldataload\n      swap2\n        /* \"#utility.yul\":604:784   */\n      swap1\n      pop\n      jump\t// out\n        /* \"#utility.yul\":789:1095   */\n    tag_23:\n      sub(shl(0xa0, 0x01), 0x01)\n        /* \"#utility.yul\":992:1024   */\n      dup4\n      and\n        /* \"#utility.yul\":974:1025   */\n      dup2\n      mstore\n        /* \"#utility.yul\":962:964   */\n      0x40\n        /* \"#utility.yul\":947:965   */\n      dup2\n      add\n        /* \"#utility.yul\":1034:1089   */\n      tag_61\n        /* \"#utility.yul\":1085:1087   */\n      0x20\n        /* \"#utility.yul\":1070:1088   */\n      dup4\n      add\n        /* \"#utility.yul\":1062:1068   */\n      dup5\n        /* \"#utility.yul\":1034:1089   */\n      tag_51\n      jump\t// in\n    tag_61:\n        /* \"#utility.yul\":789:1095   */\n      swap4\n      swap3\n      pop\n      pop\n      pop\n      jump\t// out\n        /* \"#utility.yul\":1100:1227   */\n    tag_39:\n        /* \"#utility.yul\":1161:1171   */\n      0x4e487b71\n        /* \"#utility.yul\":1156:1159   */\n      0xe0\n        /* \"#utility.yul\":1152:1172   */\n      shl\n        /* \"#utility.yul\":1149:1150   */\n      0x00\n        /* \"#utility.yul\":1142:1173   */\n      mstore\n        /* \"#utility.yul\":1192:1196   */\n      0x32\n        /* \"#utility.yul\":1189:1190   */\n      0x04\n        /* \"#utility.yul\":1182:1197   */\n      mstore\n        /* \"#utility.yul\":1216:1220   */\n      0x24\n        /* \"#utility.yul\":1213:1214   */\n      0x00\n        /* \"#utility.yul\":1206:1221   */\n      revert\n\n    auxdata: 0xa2646970667358221220c0b3f716a0900e616abc8ca004ea6bca20f829e99c95afc2902c7e4b89712bad64736f6c63430008210033\n}\n",
				"bytecode": {
					"linkReferences": {},
					"object": "6080604052348015600e575f5ffd5b506102e78061001c5f395ff3fe608060405234801561000f575f5ffd5b506004361061007a575f3560e01c8063bf15071d11610058578063bf15071d146100cb578063c5134f6f146100ea578063d826f88f146100f4578063db8f9da814610102575f5ffd5b8063200d2ed21461007e5780634e69d560146100a0578063a85c38ef146100aa575b5f5ffd5b5f5461008a9060ff1681565b604051610097919061024e565b60405180910390f35b5f5460ff1661008a565b6100bd6100b8366004610262565b61010a565b604051610097929190610279565b6002546100bd906001600160a01b03811690600160a01b900460ff1682565b6100f261013d565b005b6100f25f805460ff19169055565b6100f2610183565b60018181548110610119575f80fd5b5f918252602090912001546001600160a01b0381169150600160a01b900460ff1682565b600560015f815481106101525761015261029d565b5f918252602090912001805460ff60a01b1916600160a01b83600581111561017c5761017c61021a565b0217905550565b60408051808201909152338152600160208201818152815480830183555f9290925282517fb10e2d527612073b26eecdfd717e6a320cf44b4afac2b0732d9fcbe2b7fa0cf690920180546001600160a01b039093166001600160a01b031984168117825591519092909183916001600160a81b03191617600160a01b8360058111156102115761021161021a565b02179055505050565b634e487b7160e01b5f52602160045260245ffd5b6006811061024a57634e487b7160e01b5f52602160045260245ffd5b9052565b6020810161025c828461022e565b92915050565b5f60208284031215610272575f5ffd5b5035919050565b6001600160a01b038316815260408101610296602083018461022e565b9392505050565b634e487b7160e01b5f52603260045260245ffdfea2646970667358221220c0b3f716a0900e616abc8ca004ea6bca20f829e99c95afc2902c7e4b89712bad64736f6c63430008210033",
					"opcodes": "PUSH1 0x80 PUSH1 0x40 MSTORE CALLVALUE DUP1 ISZERO PUSH1 0xE JUMPI PUSH0 PUSH0 REVERT JUMPDEST POP PUSH2 0x2E7 DUP1 PUSH2 0x1C PUSH0 CODECOPY PUSH0 RETURN INVALID PUSH1 0x80 PUSH1 0x40 MSTORE CALLVALUE DUP1 ISZERO PUSH2 0xF JUMPI PUSH0 PUSH0 REVERT JUMPDEST POP PUSH1 0x4 CALLDATASIZE LT PUSH2 0x7A JUMPI PUSH0 CALLDATALOAD PUSH1 0xE0 SHR DUP1 PUSH4 0xBF15071D GT PUSH2 0x58 JUMPI DUP1 PUSH4 0xBF15071D EQ PUSH2 0xCB JUMPI DUP1 PUSH4 0xC5134F6F EQ PUSH2 0xEA JUMPI DUP1 PUSH4 0xD826F88F EQ PUSH2 0xF4 JUMPI DUP1 PUSH4 0xDB8F9DA8 EQ PUSH2 0x102 JUMPI PUSH0 PUSH0 REVERT JUMPDEST DUP1 PUSH4 0x200D2ED2 EQ PUSH2 0x7E JUMPI DUP1 PUSH4 0x4E69D560 EQ PUSH2 0xA0 JUMPI DUP1 PUSH4 0xA85C38EF EQ PUSH2 0xAA JUMPI JUMPDEST PUSH0 PUSH0 REVERT JUMPDEST PUSH0 SLOAD PUSH2 0x8A SWAP1 PUSH1 0xFF AND DUP2 JUMP JUMPDEST PUSH1 0x40 MLOAD PUSH2 0x97 SWAP2 SWAP1 PUSH2 0x24E JUMP JUMPDEST PUSH1 0x40 MLOAD DUP1 SWAP2 SUB SWAP1 RETURN JUMPDEST PUSH0 SLOAD PUSH1 0xFF AND PUSH2 0x8A JUMP JUMPDEST PUSH2 0xBD PUSH2 0xB8 CALLDATASIZE PUSH1 0x4 PUSH2 0x262 JUMP JUMPDEST PUSH2 0x10A JUMP JUMPDEST PUSH1 0x40 MLOAD PUSH2 0x97 SWAP3 SWAP2 SWAP1 PUSH2 0x279 JUMP JUMPDEST PUSH1 0x2 SLOAD PUSH2 0xBD SWAP1 PUSH1 0x1 PUSH1 0x1 PUSH1 0xA0 SHL SUB DUP2 AND SWAP1 PUSH1 0x1 PUSH1 0xA0 SHL SWAP1 DIV PUSH1 0xFF AND DUP3 JUMP JUMPDEST PUSH2 0xF2 PUSH2 0x13D JUMP JUMPDEST STOP JUMPDEST PUSH2 0xF2 PUSH0 DUP1 SLOAD PUSH1 0xFF NOT AND SWAP1 SSTORE JUMP JUMPDEST PUSH2 0xF2 PUSH2 0x183 JUMP JUMPDEST PUSH1 0x1 DUP2 DUP2 SLOAD DUP2 LT PUSH2 0x119 JUMPI PUSH0 DUP1 REVERT JUMPDEST PUSH0 SWAP2 DUP3 MSTORE PUSH1 0x20 SWAP1 SWAP2 KECCAK256 ADD SLOAD PUSH1 0x1 PUSH1 0x1 PUSH1 0xA0 SHL SUB DUP2 AND SWAP2 POP PUSH1 0x1 PUSH1 0xA0 SHL SWAP1 DIV PUSH1 0xFF AND DUP3 JUMP JUMPDEST PUSH1 0x5 PUSH1 0x1 PUSH0 DUP2 SLOAD DUP2 LT PUSH2 0x152 JUMPI PUSH2 0x152 PUSH2 0x29D JUMP JUMPDEST PUSH0 SWAP2 DUP3 MSTORE PUSH1 0x20 SWAP1 SWAP2 KECCAK256 ADD DUP1 SLOAD PUSH1 0xFF PUSH1 0xA0 SHL NOT AND PUSH1 0x1 PUSH1 0xA0 SHL DUP4 PUSH1 0x5 DUP2 GT ISZERO PUSH2 0x17C JUMPI PUSH2 0x17C PUSH2 0x21A JUMP JUMPDEST MUL OR SWAP1 SSTORE POP JUMP JUMPDEST PUSH1 0x40 DUP1 MLOAD DUP1 DUP3 ADD SWAP1 SWAP2 MSTORE CALLER DUP2 MSTORE PUSH1 0x1 PUSH1 0x20 DUP3 ADD DUP2 DUP2 MSTORE DUP2 SLOAD DUP1 DUP4 ADD DUP4 SSTORE PUSH0 SWAP3 SWAP1 SWAP3 MSTORE DUP3 MLOAD PUSH32 0xB10E2D527612073B26EECDFD717E6A320CF44B4AFAC2B0732D9FCBE2B7FA0CF6 SWAP1 SWAP3 ADD DUP1 SLOAD PUSH1 0x1 PUSH1 0x1 PUSH1 0xA0 SHL SUB SWAP1 SWAP4 AND PUSH1 0x1 PUSH1 0x1 PUSH1 0xA0 SHL SUB NOT DUP5 AND DUP2 OR DUP3 SSTORE SWAP2 MLOAD SWAP1 SWAP3 SWAP1 SWAP2 DUP4 SWAP2 PUSH1 0x1 PUSH1 0x1 PUSH1 0xA8 SHL SUB NOT AND OR PUSH1 0x1 PUSH1 0xA0 SHL DUP4 PUSH1 0x5 DUP2 GT ISZERO PUSH2 0x211 JUMPI PUSH2 0x211 PUSH2 0x21A JUMP JUMPDEST MUL OR SWAP1 SSTORE POP POP POP JUMP JUMPDEST PUSH4 0x4E487B71 PUSH1 0xE0 SHL PUSH0 MSTORE PUSH1 0x21 PUSH1 0x4 MSTORE PUSH1 0x24 PUSH0 REVERT JUMPDEST PUSH1 0x6 DUP2 LT PUSH2 0x24A JUMPI PUSH4 0x4E487B71 PUSH1 0xE0 SHL PUSH0 MSTORE PUSH1 0x21 PUSH1 0x4 MSTORE PUSH1 0x24 PUSH0 REVERT JUMPDEST SWAP1 MSTORE JUMP JUMPDEST PUSH1 0x20 DUP2 ADD PUSH2 0x25C DUP3 DUP5 PUSH2 0x22E JUMP JUMPDEST SWAP3 SWAP2 POP POP JUMP JUMPDEST PUSH0 PUSH1 0x20 DUP3 DUP5 SUB SLT ISZERO PUSH2 0x272 JUMPI PUSH0 PUSH0 REVERT JUMPDEST POP CALLDATALOAD SWAP2 SWAP1 POP JUMP JUMPDEST PUSH1 0x1 PUSH1 0x1 PUSH1 0xA0 SHL SUB DUP4 AND DUP2 MSTORE PUSH1 0x40 DUP2 ADD PUSH2 0x296 PUSH1 0x20 DUP4 ADD DUP5 PUSH2 0x22E JUMP JUMPDEST SWAP4 SWAP3 POP POP POP JUMP JUMPDEST PUSH4 0x4E487B71 PUSH1 0xE0 SHL PUSH0 MSTORE PUSH1 0x32 PUSH1 0x4 MSTORE PUSH1 0x24 PUSH0 REVERT INVALID LOG2 PUSH5 0x6970667358 0x22 SLT KECCAK256 0xC0 0xB3 0xF7 AND LOG0 SWAP1 0xE PUSH2 0x6ABC DUP13 LOG0 DIV 0xEA PUSH12 0xCA20F829E99C95AFC2902C7E 0x4B DUP10 PUSH18 0x2BAD64736F6C634300082100330000000000 "
				},
				"gasEstimates": {
					"creation": {
						"codeDepositCost": "148600",
						"executionCost": "194",
						"totalCost": "148794"
					},
					"external": {
						"getStatus()": "2400",
						"order()": "2466",
						"orders(uint256)": "4783",
						"reset()": "24392",
						"setOrder()": "70984",
						"status()": "2384",
						"updateBo()": "26624"
					}
				},
				"methodIdentifiers": {
					"getStatus()": "4e69d560",
					"order()": "bf15071d",
					"orders(uint256)": "a85c38ef",
					"reset()": "d826f88f",
					"setOrder()": "db8f9da8",
					"status()": "200d2ed2",
					"updateBo()": "c5134f6f"
				}
			},
			"storageLayout": {
				"storage": [
					{
						"astId": 11,
						"contract": "work/31Enum.sol:Enum",
						"label": "status",
						"offset": 0,
						"slot": "0",
						"type": "t_enum(OrderStatus)8"
					},
					{
						"astId": 21,
						"contract": "work/31Enum.sol:Enum",
						"label": "orders",
						"offset": 0,
						"slot": "1",
						"type": "t_array(t_struct(Order)17_storage)dyn_storage"
					},
					{
						"astId": 24,
						"contract": "work/31Enum.sol:Enum",
						"label": "order",
						"offset": 0,
						"slot": "2",
						"type": "t_struct(Order)17_storage"
					}
				],
				"types": {
					"t_address": {
						"encoding": "inplace",
						"label": "address",
						"numberOfBytes": "20"
					},
					"t_array(t_struct(Order)17_storage)dyn_storage": {
						"base": "t_struct(Order)17_storage",
						"encoding": "dynamic_array",
						"label": "struct Enum.Order[]",
						"numberOfBytes": "32"
					},
					"t_enum(OrderStatus)8": {
						"encoding": "inplace",
						"label": "enum Enum.OrderStatus",
						"numberOfBytes": "1"
					},
					"t_struct(Order)17_storage": {
						"encoding": "inplace",
						"label": "struct Enum.Order",
						"members": [
							{
								"astId": 13,
								"contract": "work/31Enum.sol:Enum",
								"label": "addr",
								"offset": 0,
								"slot": "0",
								"type": "t_address"
							},
							{
								"astId": 16,
								"contract": "work/31Enum.sol:Enum",
								"label": "bo",
								"offset": 20,
								"slot": "0",
								"type": "t_enum(OrderStatus)8"
							}
						],
						"numberOfBytes": "32"
					}
				}
			},
			"userdoc": {
				"kind": "user",
				"methods": {},
				"version": 1
			}
		}
	}
}