{
	"demo1/18IfElse.sol": {
		"IfElse": {
			"abi": [
				{
					"inputs": [
						{
							"internalType": "uint256",
							"name": "_x",
							"type": "uint256"
						}
					],
					"name": "processNumber",
					"outputs": [
						{
							"internalType": "string",
							"name": "",
							"type": "string"
						}
					],
					"stateMutability": "pure",
					"type": "function"
				},
				{
					"inputs": [
						{
							"internalType": "uint256",
							"name": "_x",
							"type": "uint256"
						}
					],
					"name": "processNumber2",
					"outputs": [
						{
							"internalType": "string",
							"name": "",
							"type": "string"
						}
					],
					"stateMutability": "pure",
					"type": "function"
				}
			],
			"devdoc": {
				"kind": "dev",
				"methods": {},
				"version": 1
			},
			"evm": {
				"assembly": "    /* \"demo1/18IfElse.sol\":58:543  contract IfElse {... */\n  mstore(0x40, 0x80)\n  callvalue\n  dup1\n  iszero\n  tag_1\n  jumpi\n  revert(0x00, 0x00)\ntag_1:\n  pop\n  dataSize(sub_0)\n  dup1\n  dataOffset(sub_0)\n  0x00\n  codecopy\n  0x00\n  return\nstop\n\nsub_0: assembly {\n        /* \"demo1/18IfElse.sol\":58:543  contract IfElse {... */\n      mstore(0x40, 0x80)\n      callvalue\n      dup1\n      iszero\n      tag_1\n      jumpi\n      revert(0x00, 0x00)\n    tag_1:\n      pop\n      jumpi(tag_2, lt(calldatasize, 0x04))\n      shr(0xe0, calldataload(0x00))\n      dup1\n      0x8bf709cf\n      eq\n      tag_3\n      jumpi\n      dup1\n      0xa6061227\n      eq\n      tag_4\n      jumpi\n    tag_2:\n      revert(0x00, 0x00)\n        /* \"demo1/18IfElse.sol\":81:357  function processNumber(uint _x)external pure returns (string memory) {... */\n    tag_3:\n      tag_5\n      tag_6\n      calldatasize\n      0x04\n      tag_7\n      jump\t// in\n    tag_6:\n      tag_8\n      jump\t// in\n    tag_5:\n      mload(0x40)\n      tag_9\n      swap2\n      swap1\n      tag_10\n      jump\t// in\n    tag_9:\n      mload(0x40)\n      dup1\n      swap2\n      sub\n      swap1\n      return\n        /* \"demo1/18IfElse.sol\":365:540  function processNumber2(uint _x)external pure returns (string memory) {... */\n    tag_4:\n      tag_5\n      tag_12\n      calldatasize\n      0x04\n      tag_7\n      jump\t// in\n    tag_12:\n      tag_13\n      jump\t// in\n        /* \"demo1/18IfElse.sol\":81:357  function processNumber(uint _x)external pure returns (string memory) {... */\n    tag_8:\n        /* \"demo1/18IfElse.sol\":135:148  string memory */\n      0x60\n        /* \"demo1/18IfElse.sol\":169:171  10 */\n      0x0a\n        /* \"demo1/18IfElse.sol\":164:166  _x */\n      dup3\n        /* \"demo1/18IfElse.sol\":164:171  _x < 10 */\n      lt\n        /* \"demo1/18IfElse.sol\":161:350  if(_x < 10){... */\n      iszero\n      tag_16\n      jumpi\n      pop\n      pop\n        /* \"demo1/18IfElse.sol\":187:211  return unicode\"小于10\" */\n      0x40\n      dup1\n      mload\n      dup1\n      dup3\n      add\n      swap1\n      swap2\n      mstore\n      0x08\n      dup2\n      mstore\n      shl(0xc4, 0x0e5b08fe4ba8e313)\n      0x20\n      dup3\n      add\n      mstore\n      swap1\n        /* \"demo1/18IfElse.sol\":81:357  function processNumber(uint _x)external pure returns (string memory) {... */\n      jump\t// out\n        /* \"demo1/18IfElse.sol\":161:350  if(_x < 10){... */\n    tag_16:\n        /* \"demo1/18IfElse.sol\":235:237  20 */\n      0x14\n        /* \"demo1/18IfElse.sol\":231:233  _x */\n      dup3\n        /* \"demo1/18IfElse.sol\":231:237  _x<=20 */\n      gt\n        /* \"demo1/18IfElse.sol\":228:350  if(_x<=20){... */\n      tag_18\n      jumpi\n      pop\n      pop\n        /* \"demo1/18IfElse.sol\":253:282  return unicode\"介于10到20\" */\n      0x40\n      dup1\n      mload\n      dup1\n      dup3\n      add\n      swap1\n      swap2\n      mstore\n      0x0d\n      dup2\n      mstore\n      shl(0x9c, 0x0e4bb8be4ba8e3130e588b0323)\n      0x20\n      dup3\n      add\n      mstore\n      swap1\n        /* \"demo1/18IfElse.sol\":81:357  function processNumber(uint _x)external pure returns (string memory) {... */\n      jump\t// out\n        /* \"demo1/18IfElse.sol\":228:350  if(_x<=20){... */\n    tag_18:\n      pop\n      pop\n        /* \"demo1/18IfElse.sol\":314:338  return unicode\"大于20\" */\n      0x40\n      dup1\n      mload\n      dup1\n      dup3\n      add\n      swap1\n      swap2\n      mstore\n      0x08\n      dup2\n      mstore\n      shl(0xc4, 0x0e5a4a7e4ba8e323)\n      0x20\n      dup3\n      add\n      mstore\n      swap1\n        /* \"demo1/18IfElse.sol\":81:357  function processNumber(uint _x)external pure returns (string memory) {... */\n      jump\t// out\n        /* \"demo1/18IfElse.sol\":365:540  function processNumber2(uint _x)external pure returns (string memory) {... */\n    tag_13:\n        /* \"demo1/18IfElse.sol\":420:433  string memory */\n      0x60\n        /* \"demo1/18IfElse.sol\":456:458  10 */\n      0x0a\n        /* \"demo1/18IfElse.sol\":453:455  _x */\n      dup3\n        /* \"demo1/18IfElse.sol\":453:458  _x<10 */\n      lt\n        /* \"demo1/18IfElse.sol\":453:532  _x<10 ? unicode\"小于10\" : _x<=20 ? unicode\"介于10到20\" : unicode\"大于20\" */\n      tag_21\n      jumpi\n        /* \"demo1/18IfElse.sol\":485:487  20 */\n      0x14\n        /* \"demo1/18IfElse.sol\":481:483  _x */\n      dup3\n        /* \"demo1/18IfElse.sol\":481:487  _x<=20 */\n      gt\n      iszero\n        /* \"demo1/18IfElse.sol\":481:532  _x<=20 ? unicode\"介于10到20\" : unicode\"大于20\" */\n      tag_22\n      jumpi\n      mload(0x40)\n      dup1\n      0x40\n      add\n      0x40\n      mstore\n      dup1\n      0x08\n      dup2\n      mstore\n      0x20\n      add\n      shl(0xc4, 0x0e5a4a7e4ba8e323)\n      dup2\n      mstore\n      pop\n        /* \"demo1/18IfElse.sol\":453:532  _x<10 ? unicode\"小于10\" : _x<=20 ? unicode\"介于10到20\" : unicode\"大于20\" */\n      jump(tag_24)\n        /* \"demo1/18IfElse.sol\":481:532  _x<=20 ? unicode\"介于10到20\" : unicode\"大于20\" */\n    tag_22:\n      mload(0x40)\n      dup1\n      0x40\n      add\n      0x40\n      mstore\n      dup1\n      0x0d\n      dup2\n      mstore\n      0x20\n      add\n      shl(0x9c, 0x0e4bb8be4ba8e3130e588b0323)\n      dup2\n      mstore\n      pop\n        /* \"demo1/18IfElse.sol\":453:532  _x<10 ? unicode\"小于10\" : _x<=20 ? unicode\"介于10到20\" : unicode\"大于20\" */\n      jump(tag_24)\n    tag_21:\n      mload(0x40)\n      dup1\n      0x40\n      add\n      0x40\n      mstore\n      dup1\n      0x08\n      dup2\n      mstore\n      0x20\n      add\n      shl(0xc4, 0x0e5b08fe4ba8e313)\n      dup2\n      mstore\n      pop\n    tag_24:\n        /* \"demo1/18IfElse.sol\":446:532  return _x<10 ? unicode\"小于10\" : _x<=20 ? unicode\"介于10到20\" : unicode\"大于20\" */\n      swap3\n        /* \"demo1/18IfElse.sol\":365:540  function processNumber2(uint _x)external pure returns (string memory) {... */\n      swap2\n      pop\n      pop\n      jump\t// out\n        /* \"#utility.yul\":14:194   */\n    tag_7:\n        /* \"#utility.yul\":73:79   */\n      0x00\n        /* \"#utility.yul\":126:128   */\n      0x20\n        /* \"#utility.yul\":114:123   */\n      dup3\n        /* \"#utility.yul\":105:112   */\n      dup5\n        /* \"#utility.yul\":101:124   */\n      sub\n        /* \"#utility.yul\":97:129   */\n      slt\n        /* \"#utility.yul\":94:146   */\n      iszero\n      tag_27\n      jumpi\n        /* \"#utility.yul\":142:143   */\n      0x00\n        /* \"#utility.yul\":139:140   */\n      0x00\n        /* \"#utility.yul\":132:144   */\n      revert\n        /* \"#utility.yul\":94:146   */\n    tag_27:\n      pop\n        /* \"#utility.yul\":165:188   */\n      calldataload\n      swap2\n        /* \"#utility.yul\":14:194   */\n      swap1\n      pop\n      jump\t// out\n        /* \"#utility.yul\":199:617   */\n    tag_10:\n        /* \"#utility.yul\":348:350   */\n      0x20\n        /* \"#utility.yul\":337:346   */\n      dup2\n        /* \"#utility.yul\":330:351   */\n      mstore\n        /* \"#utility.yul\":311:315   */\n      0x00\n        /* \"#utility.yul\":380:386   */\n      dup3\n        /* \"#utility.yul\":374:387   */\n      mload\n        /* \"#utility.yul\":423:429   */\n      dup1\n        /* \"#utility.yul\":418:420   */\n      0x20\n        /* \"#utility.yul\":407:416   */\n      dup5\n        /* \"#utility.yul\":403:421   */\n      add\n        /* \"#utility.yul\":396:430   */\n      mstore\n        /* \"#utility.yul\":482:488   */\n      dup1\n        /* \"#utility.yul\":477:479   */\n      0x20\n        /* \"#utility.yul\":469:475   */\n      dup6\n        /* \"#utility.yul\":465:480   */\n      add\n        /* \"#utility.yul\":460:462   */\n      0x40\n        /* \"#utility.yul\":449:458   */\n      dup6\n        /* \"#utility.yul\":445:463   */\n      add\n        /* \"#utility.yul\":439:489   */\n      mcopy\n        /* \"#utility.yul\":538:539   */\n      0x00\n        /* \"#utility.yul\":533:535   */\n      0x40\n        /* \"#utility.yul\":524:530   */\n      dup3\n        /* \"#utility.yul\":513:522   */\n      dup6\n        /* \"#utility.yul\":509:531   */\n      add\n        /* \"#utility.yul\":505:536   */\n      add\n        /* \"#utility.yul\":498:540   */\n      mstore\n        /* \"#utility.yul\":608:610   */\n      0x40\n        /* \"#utility.yul\":601:603   */\n      0x1f\n        /* \"#utility.yul\":597:604   */\n      not\n        /* \"#utility.yul\":592:594   */\n      0x1f\n        /* \"#utility.yul\":584:590   */\n      dup4\n        /* \"#utility.yul\":580:595   */\n      add\n        /* \"#utility.yul\":576:605   */\n      and\n        /* \"#utility.yul\":565:574   */\n      dup5\n        /* \"#utility.yul\":561:606   */\n      add\n        /* \"#utility.yul\":557:611   */\n      add\n        /* \"#utility.yul\":549:611   */\n      swap2\n      pop\n      pop\n        /* \"#utility.yul\":199:617   */\n      swap3\n      swap2\n      pop\n      pop\n      jump\t// out\n\n    auxdata: 0xa26469706673582212202ce2cab6fa24722a05f5bd90208ebf4d73aa93272ee63910e842d7405927117e64736f6c63430008210033\n}\n",
				"bytecode": {
					"linkReferences": {},
					"object": "6080604052348015600e575f5ffd5b506102068061001c5f395ff3fe608060405234801561000f575f5ffd5b5060043610610034575f3560e01c80638bf709cf14610038578063a606122714610061575b5f5ffd5b61004b610046366004610184565b610074565b604051610058919061019b565b60405180910390f35b61004b61006f366004610184565b6100f8565b6060600a8210156100a35750506040805180820190915260088152670e5b08fe4ba8e31360c41b602082015290565b601482116100d457505060408051808201909152600d81526c0e4bb8be4ba8e3130e588b0323609c1b602082015290565b50506040805180820190915260088152670e5a4a7e4ba8e32360c41b602082015290565b6060600a821061015c57601482111561013157604051806040016040528060088152602001670e5a4a7e4ba8e32360c41b81525061017e565b6040518060400160405280600d81526020016c0e4bb8be4ba8e3130e588b0323609c1b81525061017e565b604051806040016040528060088152602001670e5b08fe4ba8e31360c41b8152505b92915050565b5f60208284031215610194575f5ffd5b5035919050565b602081525f82518060208401528060208501604085015e5f604082850101526040601f19601f8301168401019150509291505056fea26469706673582212202ce2cab6fa24722a05f5bd90208ebf4d73aa93272ee63910e842d7405927117e64736f6c63430008210033",
					"opcodes": "PUSH1 0x80 PUSH1 0x40 MSTORE CALLVALUE DUP1 ISZERO PUSH1 0xE JUMPI PUSH0 PUSH0 REVERT JUMPDEST POP PUSH2 0x206 DUP1 PUSH2 0x1C PUSH0 CODECOPY PUSH0 RETURN INVALID PUSH1 0x80 PUSH1 0x40 MSTORE CALLVALUE DUP1 ISZERO PUSH2 0xF JUMPI PUSH0 PUSH0 REVERT JUMPDEST POP PUSH1 0x4 CALLDATASIZE LT PUSH2 0x34 JUMPI PUSH0 CALLDATALOAD PUSH1 0xE0 SHR DUP1 PUSH4 0x8BF709CF EQ PUSH2 0x38 JUMPI DUP1 PUSH4 0xA6061227 EQ PUSH2 0x61 JUMPI JUMPDEST PUSH0 PUSH0 REVERT JUMPDEST PUSH2 0x4B PUSH2 0x46 CALLDATASIZE PUSH1 0x4 PUSH2 0x184 JUMP JUMPDEST PUSH2 0x74 JUMP JUMPDEST PUSH1 0x40 MLOAD PUSH2 0x58 SWAP2 SWAP1 PUSH2 0x19B JUMP JUMPDEST PUSH1 0x40 MLOAD DUP1 SWAP2 SUB SWAP1 RETURN JUMPDEST PUSH2 0x4B PUSH2 0x6F CALLDATASIZE PUSH1 0x4 PUSH2 0x184 JUMP JUMPDEST PUSH2 0xF8 JUMP JUMPDEST PUSH1 0x60 PUSH1 0xA DUP3 LT ISZERO PUSH2 0xA3 JUMPI POP POP PUSH1 0x40 DUP1 MLOAD DUP1 DUP3 ADD SWAP1 SWAP2 MSTORE PUSH1 0x8 DUP2 MSTORE PUSH8 0xE5B08FE4BA8E313 PUSH1 0xC4 SHL PUSH1 0x20 DUP3 ADD MSTORE SWAP1 JUMP JUMPDEST PUSH1 0x14 DUP3 GT PUSH2 0xD4 JUMPI POP POP PUSH1 0x40 DUP1 MLOAD DUP1 DUP3 ADD SWAP1 SWAP2 MSTORE PUSH1 0xD DUP2 MSTORE PUSH13 0xE4BB8BE4BA8E3130E588B0323 PUSH1 0x9C SHL PUSH1 0x20 DUP3 ADD MSTORE SWAP1 JUMP JUMPDEST POP POP PUSH1 0x40 DUP1 MLOAD DUP1 DUP3 ADD SWAP1 SWAP2 MSTORE PUSH1 0x8 DUP2 MSTORE PUSH8 0xE5A4A7E4BA8E323 PUSH1 0xC4 SHL PUSH1 0x20 DUP3 ADD MSTORE SWAP1 JUMP JUMPDEST PUSH1 0x60 PUSH1 0xA DUP3 LT PUSH2 0x15C JUMPI PUSH1 0x14 DUP3 GT ISZERO PUSH2 0x131 JUMPI PUSH1 0x40 MLOAD DUP1 PUSH1 0x40 ADD PUSH1 0x40 MSTORE DUP1 PUSH1 0x8 DUP2 MSTORE PUSH1 0x20 ADD PUSH8 0xE5A4A7E4BA8E323 PUSH1 0xC4 SHL DUP2 MSTORE POP PUSH2 0x17E JUMP JUMPDEST PUSH1 0x40 MLOAD DUP1 PUSH1 0x40 ADD PUSH1 0x40 MSTORE DUP1 PUSH1 0xD DUP2 MSTORE PUSH1 0x20 ADD PUSH13 0xE4BB8BE4BA8E3130E588B0323 PUSH1 0x9C SHL DUP2 MSTORE POP PUSH2 0x17E JUMP JUMPDEST PUSH1 0x40 MLOAD DUP1 PUSH1 0x40 ADD PUSH1 0x40 MSTORE DUP1 PUSH1 0x8 DUP2 MSTORE PUSH1 0x20 ADD PUSH8 0xE5B08FE4BA8E313 PUSH1 0xC4 SHL DUP2 MSTORE POP JUMPDEST SWAP3 SWAP2 POP POP JUMP JUMPDEST PUSH0 PUSH1 0x20 DUP3 DUP5 SUB SLT ISZERO PUSH2 0x194 JUMPI PUSH0 PUSH0 REVERT JUMPDEST POP CALLDATALOAD SWAP2 SWAP1 POP JUMP JUMPDEST PUSH1 0x20 DUP2 MSTORE PUSH0 DUP3 MLOAD DUP1 PUSH1 0x20 DUP5 ADD MSTORE DUP1 PUSH1 0x20 DUP6 ADD PUSH1 0x40 DUP6 ADD MCOPY PUSH0 PUSH1 0x40 DUP3 DUP6 ADD ADD MSTORE PUSH1 0x40 PUSH1 0x1F NOT PUSH1 0x1F DUP4 ADD AND DUP5 ADD ADD SWAP2 POP POP SWAP3 SWAP2 POP POP JUMP INVALID LOG2 PUSH5 0x6970667358 0x22 SLT KECCAK256 0x2C 0xE2 0xCA 0xB6 STATICCALL 0x24 PUSH19 0x2A05F5BD90208EBF4D73AA93272EE63910E842 0xD7 BLOCKHASH MSIZE 0x27 GT PUSH31 0x64736F6C634300082100330000000000000000000000000000000000000000 "
				},
				"gasEstimates": {
					"creation": {
						"codeDepositCost": "103600",
						"executionCost": "151",
						"totalCost": "103751"
					},
					"external": {
						"processNumber(uint256)": "infinite",
						"processNumber2(uint256)": "infinite"
					}
				},
				"methodIdentifiers": {
					"processNumber(uint256)": "8bf709cf",
					"processNumber2(uint256)": "a6061227"
				}
			},
			"storageLayout": {
				"storage": [],
				"types": null
			},
			"userdoc": {
				"kind": "user",
				"methods": {},
				"version": 1
			}
		}
	}
}