{
	"work/SimpleStorage.sol": {
		"SimpleStorage": {
			"abi": [
				{
					"inputs": [],
					"name": "get",
					"outputs": [
						{
							"internalType": "uint256",
							"name": "",
							"type": "uint256"
						}
					],
					"stateMutability": "view",
					"type": "function"
				},
				{
					"inputs": [
						{
							"internalType": "uint256",
							"name": "x",
							"type": "uint256"
						}
					],
					"name": "set",
					"outputs": [],
					"stateMutability": "nonpayable",
					"type": "function"
				},
				{
					"inputs": [],
					"name": "storedData",
					"outputs": [
						{
							"internalType": "uint256",
							"name": "",
							"type": "uint256"
						}
					],
					"stateMutability": "view",
					"type": "function"
				},
				{
					"inputs": [],
					"name": "storedData1",
					"outputs": [
						{
							"internalType": "uint256",
							"name": "",
							"type": "uint256"
						}
					],
					"stateMutability": "view",
					"type": "function"
				}
			],
			"devdoc": {
				"kind": "dev",
				"methods": {},
				"version": 1
			},
			"evm": {
				"assembly": "    /* \"work/SimpleStorage.sol\":60:296  contract SimpleStorage {... */\n  mstore(0x40, 0x80)\n  callvalue\n  dup1\n  iszero\n  tag_1\n  jumpi\n  revert(0x00, 0x00)\ntag_1:\n  pop\n  dataSize(sub_0)\n  dup1\n  dataOffset(sub_0)\n  0x00\n  codecopy\n  0x00\n  return\nstop\n\nsub_0: assembly {\n        /* \"work/SimpleStorage.sol\":60:296  contract SimpleStorage {... */\n      mstore(0x40, 0x80)\n      callvalue\n      dup1\n      iszero\n      tag_1\n      jumpi\n      revert(0x00, 0x00)\n    tag_1:\n      pop\n      jumpi(tag_2, lt(calldatasize, 0x04))\n      shr(0xe0, calldataload(0x00))\n      dup1\n      0x2a1afcd9\n      eq\n      tag_3\n      jumpi\n      dup1\n      0x41464b01\n      eq\n      tag_4\n      jumpi\n      dup1\n      0x60fe47b1\n      eq\n      tag_5\n      jumpi\n      dup1\n      0x6d4ce63c\n      eq\n      tag_6\n      jumpi\n    tag_2:\n      revert(0x00, 0x00)\n        /* \"work/SimpleStorage.sol\":90:112  uint public storedData */\n    tag_3:\n      tag_7\n      sload(0x00)\n      dup2\n      jump\n    tag_7:\n      mload(0x40)\n        /* \"#utility.yul\":160:185   */\n      swap1\n      dup2\n      mstore\n        /* \"#utility.yul\":148:150   */\n      0x20\n        /* \"#utility.yul\":133:151   */\n      add\n        /* \"work/SimpleStorage.sol\":90:112  uint public storedData */\n      mload(0x40)\n      dup1\n      swap2\n      sub\n      swap1\n      return\n        /* \"work/SimpleStorage.sol\":119:142  uint public storedData1 */\n    tag_4:\n      tag_7\n      sload(0x01)\n      dup2\n      jump\n        /* \"work/SimpleStorage.sol\":149:210  function set(uint x) external {... */\n    tag_5:\n      tag_14\n      tag_15\n      calldatasize\n      0x04\n      tag_16\n      jump\t// in\n    tag_15:\n        /* \"work/SimpleStorage.sol\":190:200  storedData */\n      0x00\n        /* \"work/SimpleStorage.sol\":190:202  storedData=x */\n      sstore\n        /* \"work/SimpleStorage.sol\":149:210  function set(uint x) external {... */\n      jump\n    tag_14:\n      stop\n        /* \"work/SimpleStorage.sol\":216:293  function get() public view returns (uint){... */\n    tag_6:\n        /* \"work/SimpleStorage.sol\":252:256  uint */\n      0x00\n        /* \"work/SimpleStorage.sol\":275:285  storedData */\n      sload\n        /* \"work/SimpleStorage.sol\":216:293  function get() public view returns (uint){... */\n      jump(tag_7)\n        /* \"#utility.yul\":196:376   */\n    tag_16:\n        /* \"#utility.yul\":255:261   */\n      0x00\n        /* \"#utility.yul\":308:310   */\n      0x20\n        /* \"#utility.yul\":296:305   */\n      dup3\n        /* \"#utility.yul\":287:294   */\n      dup5\n        /* \"#utility.yul\":283:306   */\n      sub\n        /* \"#utility.yul\":279:311   */\n      slt\n        /* \"#utility.yul\":276:328   */\n      iszero\n      tag_26\n      jumpi\n        /* \"#utility.yul\":324:325   */\n      0x00\n        /* \"#utility.yul\":321:322   */\n      0x00\n        /* \"#utility.yul\":314:326   */\n      revert\n        /* \"#utility.yul\":276:328   */\n    tag_26:\n      pop\n        /* \"#utility.yul\":347:370   */\n      calldataload\n      swap2\n        /* \"#utility.yul\":196:376   */\n      swap1\n      pop\n      jump\t// out\n\n    auxdata: 0xa2646970667358221220e78db297fd4ac2546dec186a70a643a76cd00c7c74c08b2cd17493547e77dd7f64736f6c634300081e0033\n}\n",
				"bytecode": {
					"linkReferences": {},
					"object": "6080604052348015600e575f5ffd5b5060cc80601a5f395ff3fe6080604052348015600e575f5ffd5b50600436106044575f3560e01c80632a1afcd914604857806341464b0114606157806360fe47b11460695780636d4ce63c14607a575b5f5ffd5b604f5f5481565b60405190815260200160405180910390f35b604f60015481565b607860743660046080565b5f55565b005b5f54604f565b5f60208284031215608f575f5ffd5b503591905056fea2646970667358221220e78db297fd4ac2546dec186a70a643a76cd00c7c74c08b2cd17493547e77dd7f64736f6c634300081e0033",
					"opcodes": "PUSH1 0x80 PUSH1 0x40 MSTORE CALLVALUE DUP1 ISZERO PUSH1 0xE JUMPI PUSH0 PUSH0 REVERT JUMPDEST POP PUSH1 0xCC DUP1 PUSH1 0x1A PUSH0 CODECOPY PUSH0 RETURN INVALID PUSH1 0x80 PUSH1 0x40 MSTORE CALLVALUE DUP1 ISZERO PUSH1 0xE JUMPI PUSH0 PUSH0 REVERT JUMPDEST POP PUSH1 0x4 CALLDATASIZE LT PUSH1 0x44 JUMPI PUSH0 CALLDATALOAD PUSH1 0xE0 SHR DUP1 PUSH4 0x2A1AFCD9 EQ PUSH1 0x48 JUMPI DUP1 PUSH4 0x41464B01 EQ PUSH1 0x61 JUMPI DUP1 PUSH4 0x60FE47B1 EQ PUSH1 0x69 JUMPI DUP1 PUSH4 0x6D4CE63C EQ PUSH1 0x7A JUMPI JUMPDEST PUSH0 PUSH0 REVERT JUMPDEST PUSH1 0x4F PUSH0 SLOAD DUP2 JUMP JUMPDEST PUSH1 0x40 MLOAD SWAP1 DUP2 MSTORE PUSH1 0x20 ADD PUSH1 0x40 MLOAD DUP1 SWAP2 SUB SWAP1 RETURN JUMPDEST PUSH1 0x4F PUSH1 0x1 SLOAD DUP2 JUMP JUMPDEST PUSH1 0x78 PUSH1 0x74 CALLDATASIZE PUSH1 0x4 PUSH1 0x80 JUMP JUMPDEST PUSH0 SSTORE JUMP JUMPDEST STOP JUMPDEST PUSH0 SLOAD PUSH1 0x4F JUMP JUMPDEST PUSH0 PUSH1 0x20 DUP3 DUP5 SUB SLT ISZERO PUSH1 0x8F JUMPI PUSH0 PUSH0 REVERT JUMPDEST POP CALLDATALOAD SWAP2 SWAP1 POP JUMP INVALID LOG2 PUSH5 0x6970667358 0x22 SLT KECCAK256 SWAPN 0x8D 0xB2 SWAP8 REVERT BLOBBASEFEE 0xC2 SLOAD PUSH14 0xEC186A70A643A76CD00C7C74C08B 0x2C DATALOADN 0x7493 SLOAD PUSH31 0x77DD7F64736F6C634300081E00330000000000000000000000000000000000 "
				},
				"gasEstimates": {
					"creation": {
						"codeDepositCost": "40800",
						"executionCost": "91",
						"totalCost": "40891"
					},
					"external": {
						"get()": "2322",
						"set(uint256)": "22331",
						"storedData()": "2259",
						"storedData1()": "2282"
					}
				},
				"methodIdentifiers": {
					"get()": "6d4ce63c",
					"set(uint256)": "60fe47b1",
					"storedData()": "2a1afcd9",
					"storedData1()": "41464b01"
				}
			},
			"storageLayout": {
				"storage": [
					{
						"astId": 3,
						"contract": "work/SimpleStorage.sol:SimpleStorage",
						"label": "storedData",
						"offset": 0,
						"slot": "0",
						"type": "t_uint256"
					},
					{
						"astId": 5,
						"contract": "work/SimpleStorage.sol:SimpleStorage",
						"label": "storedData1",
						"offset": 0,
						"slot": "1",
						"type": "t_uint256"
					}
				],
				"types": {
					"t_uint256": {
						"encoding": "inplace",
						"label": "uint256",
						"numberOfBytes": "32"
					}
				}
			},
			"userdoc": {
				"kind": "user",
				"methods": {},
				"version": 1
			}
		}
	}
}