{
	"demo1/82AbiEncode.sol": {
		"AbiEncode": {
			"abi": [
				{
					"inputs": [
						{
							"internalType": "address",
							"name": "to",
							"type": "address"
						},
						{
							"internalType": "uint256",
							"name": "amount",
							"type": "uint256"
						}
					],
					"name": "encodeCall",
					"outputs": [
						{
							"internalType": "bytes",
							"name": "",
							"type": "bytes"
						}
					],
					"stateMutability": "pure",
					"type": "function"
				},
				{
					"inputs": [
						{
							"internalType": "address",
							"name": "to",
							"type": "address"
						},
						{
							"internalType": "uint256",
							"name": "amount",
							"type": "uint256"
						}
					],
					"name": "encodeWithSelector",
					"outputs": [
						{
							"internalType": "bytes",
							"name": "",
							"type": "bytes"
						}
					],
					"stateMutability": "pure",
					"type": "function"
				},
				{
					"inputs": [
						{
							"internalType": "address",
							"name": "to",
							"type": "address"
						},
						{
							"internalType": "uint256",
							"name": "amount",
							"type": "uint256"
						}
					],
					"name": "encodeWithSignature",
					"outputs": [
						{
							"internalType": "bytes",
							"name": "",
							"type": "bytes"
						}
					],
					"stateMutability": "pure",
					"type": "function"
				},
				{
					"inputs": [
						{
							"internalType": "address",
							"name": "_contract",
							"type": "address"
						},
						{
							"internalType": "bytes",
							"name": "data",
							"type": "bytes"
						}
					],
					"name": "test",
					"outputs": [],
					"stateMutability": "nonpayable",
					"type": "function"
				}
			],
			"devdoc": {
				"details": "演示三种不同的ABI编码方式",
				"kind": "dev",
				"methods": {
					"encodeCall(address,uint256)": {
						"details": "使用encodeCall编码transfer调用（推荐方式）",
						"params": {
							"amount": "转账金额",
							"to": "接收地址"
						},
						"returns": {
							"_0": "编码后的调用数据"
						}
					},
					"encodeWithSelector(address,uint256)": {
						"details": "使用encodeWithSelector编码transfer调用",
						"params": {
							"amount": "转账金额",
							"to": "接收地址"
						},
						"returns": {
							"_0": "编码后的调用数据"
						}
					},
					"encodeWithSignature(address,uint256)": {
						"details": "使用encodeWithSignature编码transfer调用",
						"params": {
							"amount": "转账金额",
							"to": "接收地址"
						},
						"returns": {
							"_0": "编码后的调用数据"
						}
					},
					"test(address,bytes)": {
						"details": "执行任意调用数据",
						"params": {
							"_contract": "目标合约地址",
							"data": "编码后的调用数据"
						}
					}
				},
				"title": "AbiEncode",
				"version": 1
			},
			"evm": {
				"assembly": "    /* \"demo1/82AbiEncode.sol\":451:1956  contract AbiEncode {... */\n  mstore(0x40, 0x80)\n  callvalue\n  dup1\n  iszero\n  tag_1\n  jumpi\n  revert(0x00, 0x00)\ntag_1:\n  pop\n  dataSize(sub_0)\n  dup1\n  dataOffset(sub_0)\n  0x00\n  codecopy\n  0x00\n  return\nstop\n\nsub_0: assembly {\n        /* \"demo1/82AbiEncode.sol\":451:1956  contract AbiEncode {... */\n      mstore(0x40, 0x80)\n      callvalue\n      dup1\n      iszero\n      tag_1\n      jumpi\n      revert(0x00, 0x00)\n    tag_1:\n      pop\n      jumpi(tag_2, lt(calldatasize, 0x04))\n      shr(0xe0, calldataload(0x00))\n      dup1\n      0x25adff1c\n      eq\n      tag_3\n      jumpi\n      dup1\n      0x5fc6ac0e\n      eq\n      tag_4\n      jumpi\n      dup1\n      0x7e3b06fb\n      eq\n      tag_3\n      jumpi\n      dup1\n      0x93e01418\n      eq\n      tag_6\n      jumpi\n    tag_2:\n      revert(0x00, 0x00)\n        /* \"demo1/82AbiEncode.sol\":1772:1953  function encodeCall(... */\n    tag_3:\n      tag_7\n      tag_8\n      calldatasize\n      0x04\n      tag_9\n      jump\t// in\n    tag_8:\n        /* \"demo1/82AbiEncode.sol\":1900:1945  abi.encodeCall(IERC20.transfer, (to, amount)) */\n      mload(0x40)\n      sub(shl(0xa0, 0x01), 0x01)\n        /* \"#utility.yul\":1729:1761   */\n      dup4\n      and\n        /* \"demo1/82AbiEncode.sol\":1900:1945  abi.encodeCall(IERC20.transfer, (to, amount)) */\n      0x24\n      dup3\n      add\n        /* \"#utility.yul\":1711:1762   */\n      mstore\n        /* \"#utility.yul\":1778:1796   */\n      0x44\n      dup2\n      add\n        /* \"#utility.yul\":1771:1805   */\n      dup3\n      swap1\n      mstore\n        /* \"demo1/82AbiEncode.sol\":1868:1880  bytes memory */\n      0x60\n      swap1\n        /* \"#utility.yul\":1684:1702   */\n      0x64\n      add\n        /* \"demo1/82AbiEncode.sol\":1900:1945  abi.encodeCall(IERC20.transfer, (to, amount)) */\n      0x40\n      dup1\n      mload\n      not(0x1f)\n      dup2\n      dup5\n      sub\n      add\n      dup2\n      mstore\n      swap2\n      swap1\n      mstore\n      0x20\n      dup2\n      add\n      dup1\n      mload\n      sub(shl(0xe0, 0x01), 0x01)\n      and\n      shl(0xe0, 0xa9059cbb)\n      or\n      swap1\n      mstore\n      swap1\n      pop\n        /* \"demo1/82AbiEncode.sol\":1772:1953  function encodeCall(... */\n      swap3\n      swap2\n      pop\n      pop\n      jump\n    tag_7:\n      mload(0x40)\n      tag_11\n      swap2\n      swap1\n      tag_12\n      jump\t// in\n    tag_11:\n      mload(0x40)\n      dup1\n      swap2\n      sub\n      swap1\n      return\n        /* \"demo1/82AbiEncode.sol\":1367:1571  function encodeWithSelector(... */\n    tag_4:\n      tag_7\n      tag_14\n      calldatasize\n      0x04\n      tag_9\n      jump\t// in\n    tag_14:\n        /* \"demo1/82AbiEncode.sol\":1503:1563  abi.encodeWithSelector(IERC20.transfer.selector, to, amount) */\n      0x40\n      dup1\n      mload\n      sub(shl(0xa0, 0x01), 0x01)\n        /* \"#utility.yul\":1729:1761   */\n      swap4\n      swap1\n      swap4\n      and\n        /* \"demo1/82AbiEncode.sol\":1503:1563  abi.encodeWithSelector(IERC20.transfer.selector, to, amount) */\n      0x24\n      dup5\n      add\n        /* \"#utility.yul\":1711:1762   */\n      mstore\n        /* \"#utility.yul\":1778:1796   */\n      0x44\n      dup1\n      dup5\n      add\n        /* \"#utility.yul\":1771:1805   */\n      swap3\n      swap1\n      swap3\n      mstore\n        /* \"demo1/82AbiEncode.sol\":1503:1563  abi.encodeWithSelector(IERC20.transfer.selector, to, amount) */\n      dup1\n      mload\n      dup1\n      dup5\n      sub\n      swap1\n      swap3\n      add\n      dup3\n      mstore\n        /* \"#utility.yul\":1684:1702   */\n      0x64\n      swap1\n      swap3\n      add\n        /* \"demo1/82AbiEncode.sol\":1503:1563  abi.encodeWithSelector(IERC20.transfer.selector, to, amount) */\n      swap1\n      swap2\n      mstore\n      0x20\n      dup2\n      add\n      dup1\n      mload\n      sub(shl(0xe0, 0x01), 0x01)\n      and\n      shl(0xe0, 0xa9059cbb)\n      or\n      swap1\n      mstore\n      swap1\n        /* \"demo1/82AbiEncode.sol\":1367:1571  function encodeWithSelector(... */\n      jump\n        /* \"demo1/82AbiEncode.sol\":622:775  function test(address _contract, bytes calldata data) external {... */\n    tag_6:\n      tag_21\n      tag_22\n      calldatasize\n      0x04\n      tag_23\n      jump\t// in\n    tag_22:\n      tag_24\n      jump\t// in\n    tag_21:\n      stop\n    tag_24:\n        /* \"demo1/82AbiEncode.sol\":697:704  bool ok */\n      0x00\n        /* \"demo1/82AbiEncode.sol\":710:719  _contract */\n      dup4\n      sub(shl(0xa0, 0x01), 0x01)\n        /* \"demo1/82AbiEncode.sol\":710:724  _contract.call */\n      and\n        /* \"demo1/82AbiEncode.sol\":725:729  data */\n      dup4\n      dup4\n        /* \"demo1/82AbiEncode.sol\":710:730  _contract.call(data) */\n      mload(0x40)\n      tag_33\n      swap3\n      swap2\n      swap1\n      tag_34\n      jump\t// in\n    tag_33:\n      0x00\n      mload(0x40)\n      dup1\n      dup4\n      sub\n      dup2\n      0x00\n      dup7\n      gas\n      call\n      swap2\n      pop\n      pop\n      returndatasize\n      dup1\n      0x00\n      dup2\n      eq\n      tag_37\n      jumpi\n      mload(0x40)\n      swap2\n      pop\n      and(add(returndatasize, 0x3f), not(0x1f))\n      dup3\n      add\n      0x40\n      mstore\n      returndatasize\n      dup3\n      mstore\n      returndatasize\n      0x00\n      0x20\n      dup5\n      add\n      returndatacopy\n      jump(tag_36)\n    tag_37:\n      0x60\n      swap2\n      pop\n    tag_36:\n      pop\n        /* \"demo1/82AbiEncode.sol\":696:730  (bool ok, ) = _contract.call(data) */\n      pop\n      swap1\n      pop\n        /* \"demo1/82AbiEncode.sol\":749:751  ok */\n      dup1\n        /* \"demo1/82AbiEncode.sol\":741:767  require(ok, \"call failed\") */\n      tag_38\n      jumpi\n      mload(0x40)\n      shl(0xe5, 0x461bcd)\n      dup2\n      mstore\n        /* \"#utility.yul\":2294:2296   */\n      0x20\n        /* \"demo1/82AbiEncode.sol\":741:767  require(ok, \"call failed\") */\n      0x04\n      dup3\n      add\n        /* \"#utility.yul\":2276:2297   */\n      mstore\n        /* \"#utility.yul\":2333:2335   */\n      0x0b\n        /* \"#utility.yul\":2313:2331   */\n      0x24\n      dup3\n      add\n        /* \"#utility.yul\":2306:2336   */\n      mstore\n      shl(0xaa, 0x18d85b1b0819985a5b1959)\n        /* \"#utility.yul\":2352:2370   */\n      0x44\n      dup3\n      add\n        /* \"#utility.yul\":2345:2386   */\n      mstore\n        /* \"#utility.yul\":2403:2421   */\n      0x64\n      add\n        /* \"demo1/82AbiEncode.sol\":741:767  require(ok, \"call failed\") */\n      mload(0x40)\n      dup1\n      swap2\n      sub\n      swap1\n      revert\n    tag_38:\n        /* \"demo1/82AbiEncode.sol\":685:775  {... */\n      pop\n        /* \"demo1/82AbiEncode.sol\":622:775  function test(address _contract, bytes calldata data) external {... */\n      pop\n      pop\n      pop\n      jump\t// out\n        /* \"#utility.yul\":14:187   */\n    tag_41:\n        /* \"#utility.yul\":82:102   */\n      dup1\n      calldataload\n      sub(shl(0xa0, 0x01), 0x01)\n        /* \"#utility.yul\":131:162   */\n      dup2\n      and\n        /* \"#utility.yul\":121:163   */\n      dup2\n      eq\n        /* \"#utility.yul\":111:181   */\n      tag_44\n      jumpi\n        /* \"#utility.yul\":177:178   */\n      0x00\n        /* \"#utility.yul\":174:175   */\n      0x00\n        /* \"#utility.yul\":167:179   */\n      revert\n        /* \"#utility.yul\":111:181   */\n    tag_44:\n        /* \"#utility.yul\":14:187   */\n      swap2\n      swap1\n      pop\n      jump\t// out\n        /* \"#utility.yul\":192:446   */\n    tag_9:\n        /* \"#utility.yul\":260:266   */\n      0x00\n        /* \"#utility.yul\":268:274   */\n      0x00\n        /* \"#utility.yul\":321:323   */\n      0x40\n        /* \"#utility.yul\":309:318   */\n      dup4\n        /* \"#utility.yul\":300:307   */\n      dup6\n        /* \"#utility.yul\":296:319   */\n      sub\n        /* \"#utility.yul\":292:324   */\n      slt\n        /* \"#utility.yul\":289:341   */\n      iszero\n      tag_46\n      jumpi\n        /* \"#utility.yul\":337:338   */\n      0x00\n        /* \"#utility.yul\":334:335   */\n      0x00\n        /* \"#utility.yul\":327:339   */\n      revert\n        /* \"#utility.yul\":289:341   */\n    tag_46:\n        /* \"#utility.yul\":360:389   */\n      tag_47\n        /* \"#utility.yul\":379:388   */\n      dup4\n        /* \"#utility.yul\":360:389   */\n      tag_41\n      jump\t// in\n    tag_47:\n        /* \"#utility.yul\":350:389   */\n      swap5\n        /* \"#utility.yul\":436:438   */\n      0x20\n        /* \"#utility.yul\":421:439   */\n      swap4\n      swap1\n      swap4\n      add\n        /* \"#utility.yul\":408:440   */\n      calldataload\n      swap4\n      pop\n      pop\n      pop\n        /* \"#utility.yul\":192:446   */\n      jump\t// out\n        /* \"#utility.yul\":451:867   */\n    tag_12:\n        /* \"#utility.yul\":598:600   */\n      0x20\n        /* \"#utility.yul\":587:596   */\n      dup2\n        /* \"#utility.yul\":580:601   */\n      mstore\n        /* \"#utility.yul\":561:565   */\n      0x00\n        /* \"#utility.yul\":630:636   */\n      dup3\n        /* \"#utility.yul\":624:637   */\n      mload\n        /* \"#utility.yul\":673:679   */\n      dup1\n        /* \"#utility.yul\":668:670   */\n      0x20\n        /* \"#utility.yul\":657:666   */\n      dup5\n        /* \"#utility.yul\":653:671   */\n      add\n        /* \"#utility.yul\":646:680   */\n      mstore\n        /* \"#utility.yul\":732:738   */\n      dup1\n        /* \"#utility.yul\":727:729   */\n      0x20\n        /* \"#utility.yul\":719:725   */\n      dup6\n        /* \"#utility.yul\":715:730   */\n      add\n        /* \"#utility.yul\":710:712   */\n      0x40\n        /* \"#utility.yul\":699:708   */\n      dup6\n        /* \"#utility.yul\":695:713   */\n      add\n        /* \"#utility.yul\":689:739   */\n      mcopy\n        /* \"#utility.yul\":788:789   */\n      0x00\n        /* \"#utility.yul\":783:785   */\n      0x40\n        /* \"#utility.yul\":774:780   */\n      dup3\n        /* \"#utility.yul\":763:772   */\n      dup6\n        /* \"#utility.yul\":759:781   */\n      add\n        /* \"#utility.yul\":755:786   */\n      add\n        /* \"#utility.yul\":748:790   */\n      mstore\n        /* \"#utility.yul\":858:860   */\n      0x40\n        /* \"#utility.yul\":851:853   */\n      0x1f\n        /* \"#utility.yul\":847:854   */\n      not\n        /* \"#utility.yul\":842:844   */\n      0x1f\n        /* \"#utility.yul\":834:840   */\n      dup4\n        /* \"#utility.yul\":830:845   */\n      add\n        /* \"#utility.yul\":826:855   */\n      and\n        /* \"#utility.yul\":815:824   */\n      dup5\n        /* \"#utility.yul\":811:856   */\n      add\n        /* \"#utility.yul\":807:861   */\n      add\n        /* \"#utility.yul\":799:861   */\n      swap2\n      pop\n      pop\n        /* \"#utility.yul\":451:867   */\n      swap3\n      swap2\n      pop\n      pop\n      jump\t// out\n        /* \"#utility.yul\":872:1532   */\n    tag_23:\n        /* \"#utility.yul\":951:957   */\n      0x00\n        /* \"#utility.yul\":959:965   */\n      0x00\n        /* \"#utility.yul\":967:973   */\n      0x00\n        /* \"#utility.yul\":1020:1022   */\n      0x40\n        /* \"#utility.yul\":1008:1017   */\n      dup5\n        /* \"#utility.yul\":999:1006   */\n      dup7\n        /* \"#utility.yul\":995:1018   */\n      sub\n        /* \"#utility.yul\":991:1023   */\n      slt\n        /* \"#utility.yul\":988:1040   */\n      iszero\n      tag_50\n      jumpi\n        /* \"#utility.yul\":1036:1037   */\n      0x00\n        /* \"#utility.yul\":1033:1034   */\n      0x00\n        /* \"#utility.yul\":1026:1038   */\n      revert\n        /* \"#utility.yul\":988:1040   */\n    tag_50:\n        /* \"#utility.yul\":1059:1088   */\n      tag_51\n        /* \"#utility.yul\":1078:1087   */\n      dup5\n        /* \"#utility.yul\":1059:1088   */\n      tag_41\n      jump\t// in\n    tag_51:\n        /* \"#utility.yul\":1049:1088   */\n      swap3\n      pop\n        /* \"#utility.yul\":1139:1141   */\n      0x20\n        /* \"#utility.yul\":1128:1137   */\n      dup5\n        /* \"#utility.yul\":1124:1142   */\n      add\n        /* \"#utility.yul\":1111:1143   */\n      calldataload\n        /* \"#utility.yul\":1166:1184   */\n      0xffffffffffffffff\n        /* \"#utility.yul\":1158:1164   */\n      dup2\n        /* \"#utility.yul\":1155:1185   */\n      gt\n        /* \"#utility.yul\":1152:1202   */\n      iszero\n      tag_52\n      jumpi\n        /* \"#utility.yul\":1198:1199   */\n      0x00\n        /* \"#utility.yul\":1195:1196   */\n      0x00\n        /* \"#utility.yul\":1188:1200   */\n      revert\n        /* \"#utility.yul\":1152:1202   */\n    tag_52:\n        /* \"#utility.yul\":1221:1243   */\n      dup5\n      add\n        /* \"#utility.yul\":1274:1278   */\n      0x1f\n        /* \"#utility.yul\":1266:1279   */\n      dup2\n      add\n        /* \"#utility.yul\":1262:1289   */\n      dup7\n      sgt\n        /* \"#utility.yul\":1252:1307   */\n      tag_53\n      jumpi\n        /* \"#utility.yul\":1303:1304   */\n      0x00\n        /* \"#utility.yul\":1300:1301   */\n      0x00\n        /* \"#utility.yul\":1293:1305   */\n      revert\n        /* \"#utility.yul\":1252:1307   */\n    tag_53:\n        /* \"#utility.yul\":1343:1345   */\n      dup1\n        /* \"#utility.yul\":1330:1346   */\n      calldataload\n        /* \"#utility.yul\":1369:1387   */\n      0xffffffffffffffff\n        /* \"#utility.yul\":1361:1367   */\n      dup2\n        /* \"#utility.yul\":1358:1388   */\n      gt\n        /* \"#utility.yul\":1355:1405   */\n      iszero\n      tag_54\n      jumpi\n        /* \"#utility.yul\":1401:1402   */\n      0x00\n        /* \"#utility.yul\":1398:1399   */\n      0x00\n        /* \"#utility.yul\":1391:1403   */\n      revert\n        /* \"#utility.yul\":1355:1405   */\n    tag_54:\n        /* \"#utility.yul\":1446:1453   */\n      dup7\n        /* \"#utility.yul\":1441:1443   */\n      0x20\n        /* \"#utility.yul\":1432:1438   */\n      dup3\n        /* \"#utility.yul\":1428:1430   */\n      dup5\n        /* \"#utility.yul\":1424:1439   */\n      add\n        /* \"#utility.yul\":1420:1444   */\n      add\n        /* \"#utility.yul\":1417:1454   */\n      gt\n        /* \"#utility.yul\":1414:1471   */\n      iszero\n      tag_55\n      jumpi\n        /* \"#utility.yul\":1467:1468   */\n      0x00\n        /* \"#utility.yul\":1464:1465   */\n      0x00\n        /* \"#utility.yul\":1457:1469   */\n      revert\n        /* \"#utility.yul\":1414:1471   */\n    tag_55:\n        /* \"#utility.yul\":872:1532   */\n      swap4\n      swap7\n        /* \"#utility.yul\":1498:1500   */\n      0x20\n        /* \"#utility.yul\":1490:1501   */\n      swap2\n      swap1\n      swap2\n      add\n      swap6\n      pop\n        /* \"#utility.yul\":1520:1526   */\n      swap3\n      swap4\n      pop\n      pop\n      pop\n        /* \"#utility.yul\":872:1532   */\n      jump\t// out\n        /* \"#utility.yul\":1816:2087   */\n    tag_34:\n        /* \"#utility.yul\":1999:2005   */\n      dup2\n        /* \"#utility.yul\":1991:1997   */\n      dup4\n        /* \"#utility.yul\":1986:1989   */\n      dup3\n        /* \"#utility.yul\":1973:2006   */\n      calldatacopy\n        /* \"#utility.yul\":1955:1958   */\n      0x00\n        /* \"#utility.yul\":2025:2041   */\n      swap2\n      add\n        /* \"#utility.yul\":2050:2063   */\n      swap1\n      dup2\n      mstore\n        /* \"#utility.yul\":2025:2041   */\n      swap2\n        /* \"#utility.yul\":1816:2087   */\n      swap1\n      pop\n      jump\t// out\n\n    auxdata: 0xa2646970667358221220ea838c4b458671652f956da4a47ef5b793b892a6972539d2d07a572a2109f0a364736f6c63430008210033\n}\n",
				"bytecode": {
					"linkReferences": {},
					"object": "6080604052348015600e575f5ffd5b506103108061001c5f395ff3fe608060405234801561000f575f5ffd5b506004361061004a575f3560e01c806325adff1c1461004e5780635fc6ac0e146100c35780637e3b06fb1461004e57806393e014181461011e575b5f5ffd5b6100ad61005c3660046101f0565b6040516001600160a01b03831660248201526044810182905260609060640160408051601f198184030181529190526020810180516001600160e01b031663a9059cbb60e01b179052905092915050565b6040516100ba9190610218565b60405180910390f35b6100ad6100d13660046101f0565b604080516001600160a01b039390931660248401526044808401929092528051808403909201825260649092019091526020810180516001600160e01b031663a9059cbb60e01b17905290565b61013161012c36600461024d565b610133565b005b5f836001600160a01b0316838360405161014e9291906102cb565b5f604051808303815f865af19150503d805f8114610187576040519150601f19603f3d011682016040523d82523d5f602084013e61018c565b606091505b50509050806101cf5760405162461bcd60e51b815260206004820152600b60248201526a18d85b1b0819985a5b195960aa1b604482015260640160405180910390fd5b50505050565b80356001600160a01b03811681146101eb575f5ffd5b919050565b5f5f60408385031215610201575f5ffd5b61020a836101d5565b946020939093013593505050565b602081525f82518060208401528060208501604085015e5f604082850101526040601f19601f83011684010191505092915050565b5f5f5f6040848603121561025f575f5ffd5b610268846101d5565b9250602084013567ffffffffffffffff811115610283575f5ffd5b8401601f81018613610293575f5ffd5b803567ffffffffffffffff8111156102a9575f5ffd5b8660208284010111156102ba575f5ffd5b939660209190910195509293505050565b818382375f910190815291905056fea2646970667358221220ea838c4b458671652f956da4a47ef5b793b892a6972539d2d07a572a2109f0a364736f6c63430008210033",
					"opcodes": "PUSH1 0x80 PUSH1 0x40 MSTORE CALLVALUE DUP1 ISZERO PUSH1 0xE JUMPI PUSH0 PUSH0 REVERT JUMPDEST POP PUSH2 0x310 DUP1 PUSH2 0x1C PUSH0 CODECOPY PUSH0 RETURN INVALID PUSH1 0x80 PUSH1 0x40 MSTORE CALLVALUE DUP1 ISZERO PUSH2 0xF JUMPI PUSH0 PUSH0 REVERT JUMPDEST POP PUSH1 0x4 CALLDATASIZE LT PUSH2 0x4A JUMPI PUSH0 CALLDATALOAD PUSH1 0xE0 SHR DUP1 PUSH4 0x25ADFF1C EQ PUSH2 0x4E JUMPI DUP1 PUSH4 0x5FC6AC0E EQ PUSH2 0xC3 JUMPI DUP1 PUSH4 0x7E3B06FB EQ PUSH2 0x4E JUMPI DUP1 PUSH4 0x93E01418 EQ PUSH2 0x11E JUMPI JUMPDEST PUSH0 PUSH0 REVERT JUMPDEST PUSH2 0xAD PUSH2 0x5C CALLDATASIZE PUSH1 0x4 PUSH2 0x1F0 JUMP JUMPDEST PUSH1 0x40 MLOAD PUSH1 0x1 PUSH1 0x1 PUSH1 0xA0 SHL SUB DUP4 AND PUSH1 0x24 DUP3 ADD MSTORE PUSH1 0x44 DUP2 ADD DUP3 SWAP1 MSTORE PUSH1 0x60 SWAP1 PUSH1 0x64 ADD PUSH1 0x40 DUP1 MLOAD PUSH1 0x1F NOT DUP2 DUP5 SUB ADD DUP2 MSTORE SWAP2 SWAP1 MSTORE PUSH1 0x20 DUP2 ADD DUP1 MLOAD PUSH1 0x1 PUSH1 0x1 PUSH1 0xE0 SHL SUB AND PUSH4 0xA9059CBB PUSH1 0xE0 SHL OR SWAP1 MSTORE SWAP1 POP SWAP3 SWAP2 POP POP JUMP JUMPDEST PUSH1 0x40 MLOAD PUSH2 0xBA SWAP2 SWAP1 PUSH2 0x218 JUMP JUMPDEST PUSH1 0x40 MLOAD DUP1 SWAP2 SUB SWAP1 RETURN JUMPDEST PUSH2 0xAD PUSH2 0xD1 CALLDATASIZE PUSH1 0x4 PUSH2 0x1F0 JUMP JUMPDEST PUSH1 0x40 DUP1 MLOAD PUSH1 0x1 PUSH1 0x1 PUSH1 0xA0 SHL SUB SWAP4 SWAP1 SWAP4 AND PUSH1 0x24 DUP5 ADD MSTORE PUSH1 0x44 DUP1 DUP5 ADD SWAP3 SWAP1 SWAP3 MSTORE DUP1 MLOAD DUP1 DUP5 SUB SWAP1 SWAP3 ADD DUP3 MSTORE PUSH1 0x64 SWAP1 SWAP3 ADD SWAP1 SWAP2 MSTORE PUSH1 0x20 DUP2 ADD DUP1 MLOAD PUSH1 0x1 PUSH1 0x1 PUSH1 0xE0 SHL SUB AND PUSH4 0xA9059CBB PUSH1 0xE0 SHL OR SWAP1 MSTORE SWAP1 JUMP JUMPDEST PUSH2 0x131 PUSH2 0x12C CALLDATASIZE PUSH1 0x4 PUSH2 0x24D JUMP JUMPDEST PUSH2 0x133 JUMP JUMPDEST STOP JUMPDEST PUSH0 DUP4 PUSH1 0x1 PUSH1 0x1 PUSH1 0xA0 SHL SUB AND DUP4 DUP4 PUSH1 0x40 MLOAD PUSH2 0x14E SWAP3 SWAP2 SWAP1 PUSH2 0x2CB JUMP JUMPDEST PUSH0 PUSH1 0x40 MLOAD DUP1 DUP4 SUB DUP2 PUSH0 DUP7 GAS CALL SWAP2 POP POP RETURNDATASIZE DUP1 PUSH0 DUP2 EQ PUSH2 0x187 JUMPI PUSH1 0x40 MLOAD SWAP2 POP PUSH1 0x1F NOT PUSH1 0x3F RETURNDATASIZE ADD AND DUP3 ADD PUSH1 0x40 MSTORE RETURNDATASIZE DUP3 MSTORE RETURNDATASIZE PUSH0 PUSH1 0x20 DUP5 ADD RETURNDATACOPY PUSH2 0x18C JUMP JUMPDEST PUSH1 0x60 SWAP2 POP JUMPDEST POP POP SWAP1 POP DUP1 PUSH2 0x1CF JUMPI PUSH1 0x40 MLOAD PUSH3 0x461BCD PUSH1 0xE5 SHL DUP2 MSTORE PUSH1 0x20 PUSH1 0x4 DUP3 ADD MSTORE PUSH1 0xB PUSH1 0x24 DUP3 ADD MSTORE PUSH11 0x18D85B1B0819985A5B1959 PUSH1 0xAA SHL PUSH1 0x44 DUP3 ADD MSTORE PUSH1 0x64 ADD PUSH1 0x40 MLOAD DUP1 SWAP2 SUB SWAP1 REVERT JUMPDEST POP POP POP POP JUMP JUMPDEST DUP1 CALLDATALOAD PUSH1 0x1 PUSH1 0x1 PUSH1 0xA0 SHL SUB DUP2 AND DUP2 EQ PUSH2 0x1EB JUMPI PUSH0 PUSH0 REVERT JUMPDEST SWAP2 SWAP1 POP JUMP JUMPDEST PUSH0 PUSH0 PUSH1 0x40 DUP4 DUP6 SUB SLT ISZERO PUSH2 0x201 JUMPI PUSH0 PUSH0 REVERT JUMPDEST PUSH2 0x20A DUP4 PUSH2 0x1D5 JUMP JUMPDEST SWAP5 PUSH1 0x20 SWAP4 SWAP1 SWAP4 ADD CALLDATALOAD SWAP4 POP POP POP JUMP JUMPDEST PUSH1 0x20 DUP2 MSTORE PUSH0 DUP3 MLOAD DUP1 PUSH1 0x20 DUP5 ADD MSTORE DUP1 PUSH1 0x20 DUP6 ADD PUSH1 0x40 DUP6 ADD MCOPY PUSH0 PUSH1 0x40 DUP3 DUP6 ADD ADD MSTORE PUSH1 0x40 PUSH1 0x1F NOT PUSH1 0x1F DUP4 ADD AND DUP5 ADD ADD SWAP2 POP POP SWAP3 SWAP2 POP POP JUMP JUMPDEST PUSH0 PUSH0 PUSH0 PUSH1 0x40 DUP5 DUP7 SUB SLT ISZERO PUSH2 0x25F JUMPI PUSH0 PUSH0 REVERT JUMPDEST PUSH2 0x268 DUP5 PUSH2 0x1D5 JUMP JUMPDEST SWAP3 POP PUSH1 0x20 DUP5 ADD CALLDATALOAD PUSH8 0xFFFFFFFFFFFFFFFF DUP2 GT ISZERO PUSH2 0x283 JUMPI PUSH0 PUSH0 REVERT JUMPDEST DUP5 ADD PUSH1 0x1F DUP2 ADD DUP7 SGT PUSH2 0x293 JUMPI PUSH0 PUSH0 REVERT JUMPDEST DUP1 CALLDATALOAD PUSH8 0xFFFFFFFFFFFFFFFF DUP2 GT ISZERO PUSH2 0x2A9 JUMPI PUSH0 PUSH0 REVERT JUMPDEST DUP7 PUSH1 0x20 DUP3 DUP5 ADD ADD GT ISZERO PUSH2 0x2BA JUMPI PUSH0 PUSH0 REVERT JUMPDEST SWAP4 SWAP7 PUSH1 0x20 SWAP2 SWAP1 SWAP2 ADD SWAP6 POP SWAP3 SWAP4 POP POP POP JUMP JUMPDEST DUP2 DUP4 DUP3 CALLDATACOPY PUSH0 SWAP2 ADD SWAP1 DUP2 MSTORE SWAP2 SWAP1 POP JUMP INVALID LOG2 PUSH5 0x6970667358 0x22 SLT KECCAK256 0xEA DUP4 DUP13 0x4B GASLIMIT DUP7 PUSH18 0x652F956DA4A47EF5B793B892A6972539D2D0 PUSH27 0x572A2109F0A364736F6C6343000821003300000000000000000000 "
				},
				"gasEstimates": {
					"creation": {
						"codeDepositCost": "156800",
						"executionCost": "200",
						"totalCost": "157000"
					},
					"external": {
						"encodeCall(address,uint256)": "infinite",
						"encodeWithSelector(address,uint256)": "infinite",
						"encodeWithSignature(address,uint256)": "infinite",
						"test(address,bytes)": "infinite"
					}
				},
				"methodIdentifiers": {
					"encodeCall(address,uint256)": "25adff1c",
					"encodeWithSelector(address,uint256)": "5fc6ac0e",
					"encodeWithSignature(address,uint256)": "7e3b06fb",
					"test(address,bytes)": "93e01418"
				}
			},
			"storageLayout": {
				"storage": [],
				"types": null
			},
			"userdoc": {
				"kind": "user",
				"methods": {},
				"version": 1
			}
		}
	}
}