{
	"demo1/30Structs.sol": {
		"Structs": {
			"abi": [
				{
					"inputs": [],
					"name": "addCar",
					"outputs": [],
					"stateMutability": "nonpayable",
					"type": "function"
				},
				{
					"inputs": [],
					"name": "car",
					"outputs": [
						{
							"internalType": "uint256",
							"name": "year",
							"type": "uint256"
						},
						{
							"internalType": "address",
							"name": "addr",
							"type": "address"
						},
						{
							"internalType": "string",
							"name": "owner",
							"type": "string"
						}
					],
					"stateMutability": "view",
					"type": "function"
				},
				{
					"inputs": [
						{
							"internalType": "uint256",
							"name": "",
							"type": "uint256"
						}
					],
					"name": "cars",
					"outputs": [
						{
							"internalType": "uint256",
							"name": "year",
							"type": "uint256"
						},
						{
							"internalType": "address",
							"name": "addr",
							"type": "address"
						},
						{
							"internalType": "string",
							"name": "owner",
							"type": "string"
						}
					],
					"stateMutability": "view",
					"type": "function"
				}
			],
			"devdoc": {
				"kind": "dev",
				"methods": {},
				"version": 1
			},
			"evm": {
				"assembly": "    /* \"demo1/30Structs.sol\":60:736  contract Structs {... */\n  mstore(0x40, 0x80)\n  callvalue\n  dup1\n  iszero\n  tag_1\n  jumpi\n  revert(0x00, 0x00)\ntag_1:\n  pop\n  dataSize(sub_0)\n  dup1\n  dataOffset(sub_0)\n  0x00\n  codecopy\n  0x00\n  return\nstop\n\nsub_0: assembly {\n        /* \"demo1/30Structs.sol\":60:736  contract Structs {... */\n      mstore(0x40, 0x80)\n      callvalue\n      dup1\n      iszero\n      tag_1\n      jumpi\n      revert(0x00, 0x00)\n    tag_1:\n      pop\n      jumpi(tag_2, lt(calldatasize, 0x04))\n      shr(0xe0, calldataload(0x00))\n      dup1\n      0xee26fac3\n      eq\n      tag_3\n      jumpi\n      dup1\n      0xf1354acc\n      eq\n      tag_4\n      jumpi\n      dup1\n      0xf7746e36\n      eq\n      tag_5\n      jumpi\n    tag_2:\n      revert(0x00, 0x00)\n        /* \"demo1/30Structs.sol\":198:212  Car public car */\n    tag_3:\n      tag_6\n      tag_7\n      jump\t// in\n    tag_6:\n      mload(0x40)\n      tag_8\n      swap4\n      swap3\n      swap2\n      swap1\n      tag_9\n      jump\t// in\n    tag_8:\n      mload(0x40)\n      dup1\n      swap2\n      sub\n      swap1\n      return\n        /* \"demo1/30Structs.sol\":221:733  function addCar()external {... */\n    tag_4:\n      tag_10\n      tag_11\n      jump\t// in\n    tag_10:\n      stop\n        /* \"demo1/30Structs.sol\":174:191  Car[] public cars */\n    tag_5:\n      tag_6\n      tag_13\n      calldatasize\n      0x04\n      tag_14\n      jump\t// in\n    tag_13:\n      tag_15\n      jump\t// in\n        /* \"demo1/30Structs.sol\":198:212  Car public car */\n    tag_7:\n      0x01\n      dup1\n      sload\n      sload(0x02)\n      0x03\n      dup1\n      sload\n      swap3\n      swap4\n      sub(shl(0xa0, 0x01), 0x01)\n      swap1\n      swap3\n      and\n      swap3\n      tag_17\n      swap1\n      tag_18\n      jump\t// in\n    tag_17:\n      dup1\n      0x1f\n      add\n      0x20\n      dup1\n      swap2\n      div\n      mul\n      0x20\n      add\n      mload(0x40)\n      swap1\n      dup2\n      add\n      0x40\n      mstore\n      dup1\n      swap3\n      swap2\n      swap1\n      dup2\n      dup2\n      mstore\n      0x20\n      add\n      dup3\n      dup1\n      sload\n      tag_19\n      swap1\n      tag_18\n      jump\t// in\n    tag_19:\n      dup1\n      iszero\n      tag_20\n      jumpi\n      dup1\n      0x1f\n      lt\n      tag_21\n      jumpi\n      0x0100\n      dup1\n      dup4\n      sload\n      div\n      mul\n      dup4\n      mstore\n      swap2\n      0x20\n      add\n      swap2\n      jump(tag_20)\n    tag_21:\n      dup3\n      add\n      swap2\n      swap1\n      0x00\n      mstore\n      keccak256(0x00, 0x20)\n      swap1\n    tag_22:\n      dup2\n      sload\n      dup2\n      mstore\n      swap1\n      0x01\n      add\n      swap1\n      0x20\n      add\n      dup1\n      dup4\n      gt\n      tag_22\n      jumpi\n      dup3\n      swap1\n      sub\n      0x1f\n      and\n      dup3\n      add\n      swap2\n    tag_20:\n      pop\n      pop\n      pop\n      pop\n      pop\n      swap1\n      pop\n      dup4\n      jump\t// out\n        /* \"demo1/30Structs.sol\":221:733  function addCar()external {... */\n    tag_11:\n        /* \"demo1/30Structs.sol\":276:303  Car(1990,msg.sender,\"aodi\") */\n      0x40\n      dup1\n      mload\n      0x60\n      dup1\n      dup3\n      add\n      dup4\n      mstore\n        /* \"demo1/30Structs.sol\":280:284  1990 */\n      0x07c6\n        /* \"demo1/30Structs.sol\":276:303  Car(1990,msg.sender,\"aodi\") */\n      dup3\n      mstore\n        /* \"demo1/30Structs.sol\":285:295  msg.sender */\n      caller\n        /* \"demo1/30Structs.sol\":276:303  Car(1990,msg.sender,\"aodi\") */\n      0x20\n      dup1\n      dup5\n      add\n      dup3\n      dup2\n      mstore\n      dup6\n      mload\n      dup1\n      dup8\n      add\n      dup8\n      mstore\n      0x04\n      dup2\n      mstore\n      shl(0xe0, 0x616f6469)\n      dup2\n      dup5\n      add\n      mstore\n      dup6\n      dup8\n      add\n      swap1\n      dup2\n      mstore\n        /* \"demo1/30Structs.sol\":332:378  Car({year:1991,addr:msg.sender,owner:\"baoma\"}) */\n      dup7\n      mload\n      dup1\n      dup7\n      add\n      dup9\n      mstore\n        /* \"demo1/30Structs.sol\":342:346  1991 */\n      0x07c7\n        /* \"demo1/30Structs.sol\":332:378  Car({year:1991,addr:msg.sender,owner:\"baoma\"}) */\n      dup2\n      mstore\n      dup1\n      dup5\n      add\n      dup6\n      swap1\n      mstore\n      dup8\n      mload\n      dup1\n      dup10\n      add\n      dup10\n      mstore\n      0x05\n      dup2\n      mstore\n      shl(0xd8, 0x62616f6d61)\n      dup2\n      dup7\n      add\n      mstore\n      dup2\n      dup10\n      add\n      mstore\n      dup8\n      mload\n      dup1\n      dup8\n      add\n      dup10\n      mstore\n      0x00\n      dup1\n      dup3\n      mstore\n      dup2\n      dup11\n      add\n      swap8\n      dup9\n      mstore\n      dup2\n      dup7\n      add\n        /* \"demo1/30Structs.sol\":415:435  car3.addr=msg.sender */\n      swap7\n      swap1\n      swap7\n      mstore\n        /* \"demo1/30Structs.sol\":446:465  car3.owner=\"benchi\" */\n      dup9\n      mload\n      dup1\n      dup11\n      add\n      swap1\n      swap10\n      mstore\n      0x06\n      dup10\n      mstore\n      shl(0xd0, 0x62656e636869)\n      swap5\n      dup10\n      add\n      swap5\n      swap1\n      swap5\n      mstore\n      swap7\n      swap1\n      swap5\n      mstore\n        /* \"demo1/30Structs.sol\":486:490  1993 */\n      0x07c9\n        /* \"demo1/30Structs.sol\":476:490  car3.year=1993 */\n      dup3\n      mstore\n        /* \"demo1/30Structs.sol\":501:516  cars.push(car1) */\n      dup3\n      sload\n      0x01\n      dup2\n      add\n      dup5\n      sstore\n      swap3\n      dup1\n      mstore\n      dup5\n      mload\n      0x03\n      swap1\n      swap4\n      mul\n      0x290decd9548b62a8d60345a988386fc84ba6bc95484008f6362f93160ef3e563\n      dup2\n      add\n      swap4\n      dup5\n      sstore\n      swap1\n      mload\n      0x290decd9548b62a8d60345a988386fc84ba6bc95484008f6362f93160ef3e564\n      dup3\n      add\n      dup1\n      sload\n      sub(shl(0xa0, 0x01), 0x01)\n      swap1\n      swap3\n      and\n      not(sub(shl(0xa0, 0x01), 0x01))\n      swap1\n      swap3\n      and\n      swap2\n      swap1\n      swap2\n      or\n      swap1\n      sstore\n      swap3\n      mload\n        /* \"demo1/30Structs.sol\":276:303  Car(1990,msg.sender,\"aodi\") */\n      swap4\n      swap5\n        /* \"demo1/30Structs.sol\":332:378  Car({year:1991,addr:msg.sender,owner:\"baoma\"}) */\n      swap4\n      swap1\n      swap3\n        /* \"demo1/30Structs.sol\":276:303  Car(1990,msg.sender,\"aodi\") */\n      dup6\n      swap3\n        /* \"demo1/30Structs.sol\":501:516  cars.push(car1) */\n      swap2\n      0x290decd9548b62a8d60345a988386fc84ba6bc95484008f6362f93160ef3e565\n      swap1\n      swap2\n      add\n      swap1\n      tag_27\n      swap1\n      dup3\n      tag_28\n      jump\t// in\n    tag_27:\n      pop\n      pop\n        /* \"demo1/30Structs.sol\":528:532  cars */\n      0x00\n        /* \"demo1/30Structs.sol\":528:543  cars.push(car2) */\n      dup1\n      sload\n      0x01\n      dup2\n      add\n      dup3\n      sstore\n      swap1\n      dup1\n      mstore\n      dup4\n      mload\n      0x290decd9548b62a8d60345a988386fc84ba6bc95484008f6362f93160ef3e563\n      0x03\n      swap1\n      swap3\n      mul\n      swap2\n      dup3\n      add\n      swap1\n      dup2\n      sstore\n      0x20\n      dup6\n      add\n      mload\n      0x290decd9548b62a8d60345a988386fc84ba6bc95484008f6362f93160ef3e564\n      dup4\n      add\n      dup1\n      sload\n      not(sub(shl(0xa0, 0x01), 0x01))\n      and\n      sub(shl(0xa0, 0x01), 0x01)\n      swap1\n      swap3\n      and\n      swap2\n      swap1\n      swap2\n      or\n      swap1\n      sstore\n      0x40\n      dup6\n      add\n      mload\n      dup6\n      swap4\n      pop\n      swap1\n      swap2\n      0x290decd9548b62a8d60345a988386fc84ba6bc95484008f6362f93160ef3e565\n      add\n      swap1\n      tag_30\n      swap1\n      dup3\n      tag_28\n      jump\t// in\n    tag_30:\n      pop\n      pop\n        /* \"demo1/30Structs.sol\":556:560  cars */\n      0x00\n        /* \"demo1/30Structs.sol\":556:571  cars.push(car3) */\n      dup1\n      sload\n      0x01\n      dup2\n      add\n      dup3\n      sstore\n      swap1\n      dup1\n      mstore\n      dup3\n      mload\n      0x290decd9548b62a8d60345a988386fc84ba6bc95484008f6362f93160ef3e563\n      0x03\n      swap1\n      swap3\n      mul\n      swap2\n      dup3\n      add\n      swap1\n      dup2\n      sstore\n      0x20\n      dup5\n      add\n      mload\n      0x290decd9548b62a8d60345a988386fc84ba6bc95484008f6362f93160ef3e564\n      dup4\n      add\n      dup1\n      sload\n      not(sub(shl(0xa0, 0x01), 0x01))\n      and\n      sub(shl(0xa0, 0x01), 0x01)\n      swap1\n      swap3\n      and\n      swap2\n      swap1\n      swap2\n      or\n      swap1\n      sstore\n      0x40\n      dup5\n      add\n      mload\n      dup5\n      swap4\n      pop\n      swap1\n      swap2\n      0x290decd9548b62a8d60345a988386fc84ba6bc95484008f6362f93160ef3e565\n      add\n      swap1\n      tag_32\n      swap1\n      dup3\n      tag_28\n      jump\t// in\n    tag_32:\n      pop\n      pop\n        /* \"demo1/30Structs.sol\":590:617  Car(1994,msg.sender,\"aodi\") */\n      0x40\n      dup1\n      mload\n      0x60\n      dup2\n      add\n      dup3\n      mstore\n        /* \"demo1/30Structs.sol\":594:598  1994 */\n      0x07ca\n        /* \"demo1/30Structs.sol\":590:617  Car(1994,msg.sender,\"aodi\") */\n      dup2\n      mstore\n        /* \"demo1/30Structs.sol\":599:609  msg.sender */\n      caller\n        /* \"demo1/30Structs.sol\":590:617  Car(1994,msg.sender,\"aodi\") */\n      0x20\n      dup1\n      dup4\n      add\n      swap2\n      dup3\n      mstore\n      dup4\n      mload\n      dup1\n      dup6\n      add\n      dup6\n      mstore\n      0x04\n      dup2\n      mstore\n      shl(0xe0, 0x616f6469)\n      swap2\n      dup2\n      add\n      swap2\n      swap1\n      swap2\n      mstore\n      swap3\n      dup3\n      add\n      dup4\n      swap1\n      mstore\n        /* \"demo1/30Structs.sol\":586:617  car=Car(1994,msg.sender,\"aodi\") */\n      dup2\n      mload\n        /* \"demo1/30Structs.sol\":586:589  car */\n      0x01\n        /* \"demo1/30Structs.sol\":586:617  car=Car(1994,msg.sender,\"aodi\") */\n      swap1\n      dup2\n      sstore\n      swap1\n      mload\n      0x02\n      dup1\n      sload\n      not(sub(shl(0xa0, 0x01), 0x01))\n      and\n      sub(shl(0xa0, 0x01), 0x01)\n      swap1\n      swap3\n      and\n      swap2\n      swap1\n      swap2\n      or\n      swap1\n      sstore\n        /* \"demo1/30Structs.sol\":590:617  Car(1994,msg.sender,\"aodi\") */\n      swap1\n      swap3\n      pop\n        /* \"demo1/30Structs.sol\":586:589  car */\n      swap1\n        /* \"demo1/30Structs.sol\":586:617  car=Car(1994,msg.sender,\"aodi\") */\n      0x03\n      swap1\n      tag_33\n      swap1\n      dup3\n      tag_28\n      jump\t// in\n    tag_33:\n      pop\n      pop\n        /* \"demo1/30Structs.sol\":637:641  1995 */\n      0x07cb\n        /* \"demo1/30Structs.sol\":628:631  car */\n      0x01\n        /* \"demo1/30Structs.sol\":628:641  car.year=1995 */\n      sstore\n      pop\n        /* \"demo1/30Structs.sol\":654:670  delete car.owner */\n      tag_34\n        /* \"demo1/30Structs.sol\":661:670  car.owner */\n      0x03\n        /* \"demo1/30Structs.sol\":628:636  car.year */\n      0x00\n        /* \"demo1/30Structs.sol\":654:670  delete car.owner */\n      tag_35\n      jump\t// in\n    tag_34:\n        /* \"demo1/30Structs.sol\":688:692  cars */\n      0x00\n        /* \"demo1/30Structs.sol\":693:694  0 */\n      0x00\n        /* \"demo1/30Structs.sol\":688:695  cars[0] */\n      dup2\n      sload\n      dup2\n      lt\n      tag_37\n      jumpi\n      tag_37\n      tag_38\n      jump\t// in\n    tag_37:\n      0x00\n      swap2\n      dup3\n      mstore\n      0x20\n      dup3\n      keccak256\n      0x03\n      swap1\n      swap2\n      mul\n      add\n        /* \"demo1/30Structs.sol\":681:695  delete cars[0] */\n      dup2\n      dup2\n      sstore\n      0x01\n      dup2\n      add\n      dup1\n      sload\n      not(sub(shl(0xa0, 0x01), 0x01))\n      and\n      swap1\n      sstore\n        /* \"demo1/30Structs.sol\":688:695  cars[0] */\n      swap1\n        /* \"demo1/30Structs.sol\":681:695  delete cars[0] */\n      tag_40\n      0x02\n      dup4\n      add\n        /* \"demo1/30Structs.sol\":688:695  cars[0] */\n      dup3\n        /* \"demo1/30Structs.sol\":681:695  delete cars[0] */\n      tag_35\n      jump\t// in\n    tag_40:\n      pop\n      pop\n        /* \"demo1/30Structs.sol\":713:717  cars */\n      0x00\n        /* \"demo1/30Structs.sol\":718:719  1 */\n      0x01\n        /* \"demo1/30Structs.sol\":713:720  cars[1] */\n      dup2\n      sload\n      dup2\n      lt\n      tag_42\n      jumpi\n      tag_42\n      tag_38\n      jump\t// in\n    tag_42:\n      0x00\n      swap2\n      dup3\n      mstore\n      0x20\n      dup3\n      keccak256\n      0x03\n      swap1\n      swap2\n      mul\n      add\n        /* \"demo1/30Structs.sol\":706:725  delete cars[1].year */\n      sstore\n      pop\n      pop\n      pop\n        /* \"demo1/30Structs.sol\":221:733  function addCar()external {... */\n      jump\t// out\n        /* \"demo1/30Structs.sol\":174:191  Car[] public cars */\n    tag_15:\n      0x00\n      dup2\n      dup2\n      sload\n      dup2\n      lt\n      tag_44\n      jumpi\n      0x00\n      dup1\n      revert\n    tag_44:\n      0x00\n      swap2\n      dup3\n      mstore\n      0x20\n      swap1\n      swap2\n      keccak256\n      0x03\n      swap1\n      swap2\n      mul\n      add\n      dup1\n      sload\n      0x01\n      dup3\n      add\n      sload\n      0x02\n      dup4\n      add\n      dup1\n      sload\n      swap3\n      swap5\n      pop\n      sub(shl(0xa0, 0x01), 0x01)\n      swap1\n      swap2\n      and\n      swap3\n      swap2\n      tag_17\n      swap1\n      tag_18\n      jump\t// in\n    tag_35:\n      pop\n      dup1\n      sload\n      tag_51\n      swap1\n      tag_18\n      jump\t// in\n    tag_51:\n      0x00\n      dup3\n      sstore\n      dup1\n      0x1f\n      lt\n      tag_53\n      jumpi\n      pop\n      pop\n      jump\t// out\n    tag_53:\n      0x1f\n      add\n      0x20\n      swap1\n      div\n      swap1\n      0x00\n      mstore\n      keccak256(0x00, 0x20)\n      swap1\n      dup2\n      add\n      swap1\n      tag_54\n      swap2\n      swap1\n      tag_55\n      jump\t// in\n    tag_54:\n      pop\n      jump\t// out\n    tag_55:\n    tag_56:\n      dup1\n      dup3\n      gt\n      iszero\n      tag_57\n      jumpi\n      0x00\n      dup2\n      sstore\n      0x01\n      add\n      jump(tag_56)\n    tag_57:\n      pop\n      swap1\n      jump\t// out\n        /* \"#utility.yul\":14:603   */\n    tag_9:\n        /* \"#utility.yul\":219:225   */\n      dup4\n        /* \"#utility.yul\":208:217   */\n      dup2\n        /* \"#utility.yul\":201:226   */\n      mstore\n        /* \"#utility.yul\":291:292   */\n      0x01\n        /* \"#utility.yul\":287:288   */\n      dup1\n        /* \"#utility.yul\":282:285   */\n      0xa0\n        /* \"#utility.yul\":278:289   */\n      shl\n        /* \"#utility.yul\":274:293   */\n      sub\n        /* \"#utility.yul\":266:272   */\n      dup4\n        /* \"#utility.yul\":262:294   */\n      and\n        /* \"#utility.yul\":257:259   */\n      0x20\n        /* \"#utility.yul\":246:255   */\n      dup3\n        /* \"#utility.yul\":242:260   */\n      add\n        /* \"#utility.yul\":235:295   */\n      mstore\n        /* \"#utility.yul\":331:333   */\n      0x60\n        /* \"#utility.yul\":326:328   */\n      0x40\n        /* \"#utility.yul\":315:324   */\n      dup3\n        /* \"#utility.yul\":311:329   */\n      add\n        /* \"#utility.yul\":304:334   */\n      mstore\n        /* \"#utility.yul\":182:186   */\n      0x00\n        /* \"#utility.yul\":363:369   */\n      dup3\n        /* \"#utility.yul\":357:370   */\n      mload\n        /* \"#utility.yul\":406:412   */\n      dup1\n        /* \"#utility.yul\":401:403   */\n      0x60\n        /* \"#utility.yul\":390:399   */\n      dup5\n        /* \"#utility.yul\":386:404   */\n      add\n        /* \"#utility.yul\":379:413   */\n      mstore\n        /* \"#utility.yul\":466:472   */\n      dup1\n        /* \"#utility.yul\":461:463   */\n      0x20\n        /* \"#utility.yul\":453:459   */\n      dup6\n        /* \"#utility.yul\":449:464   */\n      add\n        /* \"#utility.yul\":443:446   */\n      0x80\n        /* \"#utility.yul\":432:441   */\n      dup6\n        /* \"#utility.yul\":428:447   */\n      add\n        /* \"#utility.yul\":422:473   */\n      mcopy\n        /* \"#utility.yul\":523:524   */\n      0x00\n        /* \"#utility.yul\":517:520   */\n      0x80\n        /* \"#utility.yul\":508:514   */\n      dup3\n        /* \"#utility.yul\":497:506   */\n      dup6\n        /* \"#utility.yul\":493:515   */\n      add\n        /* \"#utility.yul\":489:521   */\n      add\n        /* \"#utility.yul\":482:525   */\n      mstore\n        /* \"#utility.yul\":593:596   */\n      0x80\n        /* \"#utility.yul\":586:588   */\n      0x1f\n        /* \"#utility.yul\":582:589   */\n      not\n        /* \"#utility.yul\":577:579   */\n      0x1f\n        /* \"#utility.yul\":569:575   */\n      dup4\n        /* \"#utility.yul\":565:580   */\n      add\n        /* \"#utility.yul\":561:590   */\n      and\n        /* \"#utility.yul\":550:559   */\n      dup5\n        /* \"#utility.yul\":546:591   */\n      add\n        /* \"#utility.yul\":542:597   */\n      add\n        /* \"#utility.yul\":534:597   */\n      swap2\n      pop\n      pop\n        /* \"#utility.yul\":14:603   */\n      swap5\n      swap4\n      pop\n      pop\n      pop\n      pop\n      jump\t// out\n        /* \"#utility.yul\":608:788   */\n    tag_14:\n        /* \"#utility.yul\":667:673   */\n      0x00\n        /* \"#utility.yul\":720:722   */\n      0x20\n        /* \"#utility.yul\":708:717   */\n      dup3\n        /* \"#utility.yul\":699:706   */\n      dup5\n        /* \"#utility.yul\":695:718   */\n      sub\n        /* \"#utility.yul\":691:723   */\n      slt\n        /* \"#utility.yul\":688:740   */\n      iszero\n      tag_65\n      jumpi\n        /* \"#utility.yul\":736:737   */\n      0x00\n        /* \"#utility.yul\":733:734   */\n      0x00\n        /* \"#utility.yul\":726:738   */\n      revert\n        /* \"#utility.yul\":688:740   */\n    tag_65:\n      pop\n        /* \"#utility.yul\":759:782   */\n      calldataload\n      swap2\n        /* \"#utility.yul\":608:788   */\n      swap1\n      pop\n      jump\t// out\n        /* \"#utility.yul\":793:1173   */\n    tag_18:\n        /* \"#utility.yul\":872:873   */\n      0x01\n        /* \"#utility.yul\":868:880   */\n      dup2\n      dup2\n      shr\n      swap1\n        /* \"#utility.yul\":915:927   */\n      dup3\n      and\n      dup1\n        /* \"#utility.yul\":936:997   */\n      tag_67\n      jumpi\n        /* \"#utility.yul\":990:994   */\n      0x7f\n        /* \"#utility.yul\":982:988   */\n      dup3\n        /* \"#utility.yul\":978:995   */\n      and\n        /* \"#utility.yul\":968:995   */\n      swap2\n      pop\n        /* \"#utility.yul\":936:997   */\n    tag_67:\n        /* \"#utility.yul\":1043:1045   */\n      0x20\n        /* \"#utility.yul\":1035:1041   */\n      dup3\n        /* \"#utility.yul\":1032:1046   */\n      lt\n        /* \"#utility.yul\":1012:1030   */\n      dup2\n        /* \"#utility.yul\":1009:1047   */\n      sub\n        /* \"#utility.yul\":1006:1167   */\n      tag_68\n      jumpi\n        /* \"#utility.yul\":1089:1099   */\n      0x4e487b71\n        /* \"#utility.yul\":1084:1087   */\n      0xe0\n        /* \"#utility.yul\":1080:1100   */\n      shl\n        /* \"#utility.yul\":1077:1078   */\n      0x00\n        /* \"#utility.yul\":1070:1101   */\n      mstore\n        /* \"#utility.yul\":1124:1128   */\n      0x22\n        /* \"#utility.yul\":1121:1122   */\n      0x04\n        /* \"#utility.yul\":1114:1129   */\n      mstore\n        /* \"#utility.yul\":1152:1156   */\n      0x24\n        /* \"#utility.yul\":1149:1150   */\n      0x00\n        /* \"#utility.yul\":1142:1157   */\n      revert\n        /* \"#utility.yul\":1006:1167   */\n    tag_68:\n      pop\n        /* \"#utility.yul\":793:1173   */\n      swap2\n      swap1\n      pop\n      jump\t// out\n        /* \"#utility.yul\":1178:1305   */\n    tag_58:\n        /* \"#utility.yul\":1239:1249   */\n      0x4e487b71\n        /* \"#utility.yul\":1234:1237   */\n      0xe0\n        /* \"#utility.yul\":1230:1250   */\n      shl\n        /* \"#utility.yul\":1227:1228   */\n      0x00\n        /* \"#utility.yul\":1220:1251   */\n      mstore\n        /* \"#utility.yul\":1270:1274   */\n      0x41\n        /* \"#utility.yul\":1267:1268   */\n      0x04\n        /* \"#utility.yul\":1260:1275   */\n      mstore\n        /* \"#utility.yul\":1294:1298   */\n      0x24\n        /* \"#utility.yul\":1291:1292   */\n      0x00\n        /* \"#utility.yul\":1284:1299   */\n      revert\n        /* \"#utility.yul\":1436:1954   */\n    tag_60:\n        /* \"#utility.yul\":1538:1540   */\n      0x1f\n        /* \"#utility.yul\":1533:1536   */\n      dup3\n        /* \"#utility.yul\":1530:1541   */\n      gt\n        /* \"#utility.yul\":1527:1948   */\n      iszero\n      tag_72\n      jumpi\n        /* \"#utility.yul\":1574:1579   */\n      dup1\n        /* \"#utility.yul\":1571:1572   */\n      0x00\n        /* \"#utility.yul\":1564:1580   */\n      mstore\n        /* \"#utility.yul\":1618:1622   */\n      0x20\n        /* \"#utility.yul\":1615:1616   */\n      0x00\n        /* \"#utility.yul\":1605:1623   */\n      keccak256\n        /* \"#utility.yul\":1688:1690   */\n      0x1f\n        /* \"#utility.yul\":1676:1686   */\n      dup5\n        /* \"#utility.yul\":1672:1691   */\n      add\n        /* \"#utility.yul\":1669:1670   */\n      0x05\n        /* \"#utility.yul\":1665:1692   */\n      shr\n        /* \"#utility.yul\":1659:1663   */\n      dup2\n        /* \"#utility.yul\":1655:1693   */\n      add\n        /* \"#utility.yul\":1724:1728   */\n      0x20\n        /* \"#utility.yul\":1712:1722   */\n      dup6\n        /* \"#utility.yul\":1709:1729   */\n      lt\n        /* \"#utility.yul\":1706:1753   */\n      iszero\n      tag_73\n      jumpi\n      pop\n        /* \"#utility.yul\":1747:1751   */\n      dup1\n        /* \"#utility.yul\":1706:1753   */\n    tag_73:\n        /* \"#utility.yul\":1802:1804   */\n      0x1f\n        /* \"#utility.yul\":1797:1800   */\n      dup5\n        /* \"#utility.yul\":1793:1805   */\n      add\n        /* \"#utility.yul\":1790:1791   */\n      0x05\n        /* \"#utility.yul\":1786:1806   */\n      shr\n        /* \"#utility.yul\":1780:1784   */\n      dup3\n        /* \"#utility.yul\":1776:1807   */\n      add\n        /* \"#utility.yul\":1766:1807   */\n      swap2\n      pop\n        /* \"#utility.yul\":1857:1938   */\n    tag_74:\n        /* \"#utility.yul\":1875:1877   */\n      dup2\n        /* \"#utility.yul\":1868:1873   */\n      dup2\n        /* \"#utility.yul\":1865:1878   */\n      lt\n        /* \"#utility.yul\":1857:1938   */\n      iszero\n      tag_76\n      jumpi\n        /* \"#utility.yul\":1934:1935   */\n      0x00\n        /* \"#utility.yul\":1920:1936   */\n      dup2\n      sstore\n        /* \"#utility.yul\":1901:1902   */\n      0x01\n        /* \"#utility.yul\":1890:1903   */\n      add\n        /* \"#utility.yul\":1857:1938   */\n      jump(tag_74)\n    tag_76:\n        /* \"#utility.yul\":1861:1864   */\n      pop\n      pop\n        /* \"#utility.yul\":1527:1948   */\n    tag_72:\n        /* \"#utility.yul\":1436:1954   */\n      pop\n      pop\n      pop\n      jump\t// out\n        /* \"#utility.yul\":2130:3429   */\n    tag_28:\n        /* \"#utility.yul\":2256:2259   */\n      dup2\n        /* \"#utility.yul\":2250:2260   */\n      mload\n        /* \"#utility.yul\":2283:2301   */\n      0xffffffffffffffff\n        /* \"#utility.yul\":2275:2281   */\n      dup2\n        /* \"#utility.yul\":2272:2302   */\n      gt\n        /* \"#utility.yul\":2269:2325   */\n      iszero\n      tag_80\n      jumpi\n        /* \"#utility.yul\":2305:2323   */\n      tag_80\n      tag_58\n      jump\t// in\n    tag_80:\n        /* \"#utility.yul\":2334:2431   */\n      tag_81\n        /* \"#utility.yul\":2424:2430   */\n      dup2\n        /* \"#utility.yul\":2384:2422   */\n      tag_82\n        /* \"#utility.yul\":2416:2420   */\n      dup5\n        /* \"#utility.yul\":2410:2421   */\n      sload\n        /* \"#utility.yul\":2384:2422   */\n      tag_18\n      jump\t// in\n    tag_82:\n        /* \"#utility.yul\":2378:2382   */\n      dup5\n        /* \"#utility.yul\":2334:2431   */\n      tag_60\n      jump\t// in\n    tag_81:\n        /* \"#utility.yul\":2480:2484   */\n      0x20\n        /* \"#utility.yul\":2511:2513   */\n      0x1f\n        /* \"#utility.yul\":2500:2514   */\n      dup3\n      gt\n        /* \"#utility.yul\":2528:2529   */\n      0x01\n        /* \"#utility.yul\":2523:3172   */\n      dup2\n      eq\n      tag_84\n      jumpi\n        /* \"#utility.yul\":3216:3217   */\n      0x00\n        /* \"#utility.yul\":3233:3239   */\n      dup4\n        /* \"#utility.yul\":3230:3319   */\n      iszero\n      tag_85\n      jumpi\n      pop\n        /* \"#utility.yul\":3285:3304   */\n      dup5\n      dup3\n      add\n        /* \"#utility.yul\":3279:3305   */\n      mload\n        /* \"#utility.yul\":3230:3319   */\n    tag_85:\n      not(0x00)\n        /* \"#utility.yul\":2087:2088   */\n      0x03\n        /* \"#utility.yul\":2083:2094   */\n      dup6\n      swap1\n      shl\n        /* \"#utility.yul\":2079:2103   */\n      shr\n        /* \"#utility.yul\":2075:2104   */\n      not\n        /* \"#utility.yul\":2065:2105   */\n      and\n        /* \"#utility.yul\":2111:2112   */\n      0x01\n        /* \"#utility.yul\":2107:2118   */\n      dup5\n      swap1\n      shl\n        /* \"#utility.yul\":2062:2119   */\n      or\n        /* \"#utility.yul\":3332:3413   */\n      dup5\n      sstore\n        /* \"#utility.yul\":2493:3423   */\n      jump(tag_76)\n        /* \"#utility.yul\":2523:3172   */\n    tag_84:\n        /* \"#utility.yul\":1383:1384   */\n      0x00\n        /* \"#utility.yul\":1376:1390   */\n      dup5\n      dup2\n      mstore\n        /* \"#utility.yul\":1420:1424   */\n      0x20\n        /* \"#utility.yul\":1407:1425   */\n      dup2\n      keccak256\n      not(0x1f)\n        /* \"#utility.yul\":2559:2579   */\n      dup6\n      and\n      swap2\n        /* \"#utility.yul\":2677:2899   */\n    tag_88:\n        /* \"#utility.yul\":2691:2698   */\n      dup3\n        /* \"#utility.yul\":2688:2689   */\n      dup2\n        /* \"#utility.yul\":2685:2699   */\n      lt\n        /* \"#utility.yul\":2677:2899   */\n      iszero\n      tag_90\n      jumpi\n        /* \"#utility.yul\":2773:2792   */\n      dup8\n      dup6\n      add\n        /* \"#utility.yul\":2767:2793   */\n      mload\n        /* \"#utility.yul\":2752:2794   */\n      dup3\n      sstore\n        /* \"#utility.yul\":2880:2884   */\n      0x20\n        /* \"#utility.yul\":2865:2885   */\n      swap5\n      dup6\n      add\n      swap5\n        /* \"#utility.yul\":2833:2834   */\n      0x01\n        /* \"#utility.yul\":2821:2835   */\n      swap1\n      swap3\n      add\n      swap2\n        /* \"#utility.yul\":2707:2719   */\n      add\n        /* \"#utility.yul\":2677:2899   */\n      jump(tag_88)\n    tag_90:\n        /* \"#utility.yul\":2681:2684   */\n      pop\n        /* \"#utility.yul\":2927:2933   */\n      dup5\n        /* \"#utility.yul\":2918:2925   */\n      dup3\n        /* \"#utility.yul\":2915:2934   */\n      lt\n        /* \"#utility.yul\":2912:3113   */\n      iszero\n      tag_91\n      jumpi\n        /* \"#utility.yul\":2988:3007   */\n      dup7\n      dup5\n      add\n        /* \"#utility.yul\":2982:3008   */\n      mload\n      not(0x00)\n        /* \"#utility.yul\":3071:3072   */\n      0x03\n        /* \"#utility.yul\":3067:3081   */\n      dup8\n      swap1\n      shl\n        /* \"#utility.yul\":3083:3086   */\n      0xf8\n        /* \"#utility.yul\":3063:3087   */\n      and\n        /* \"#utility.yul\":3059:3096   */\n      shr\n        /* \"#utility.yul\":3055:3097   */\n      not\n        /* \"#utility.yul\":3040:3098   */\n      and\n        /* \"#utility.yul\":3025:3099   */\n      dup2\n      sstore\n        /* \"#utility.yul\":2912:3113   */\n    tag_91:\n      pop\n      pop\n      pop\n      pop\n        /* \"#utility.yul\":3159:3160   */\n      0x01\n        /* \"#utility.yul\":3143:3157   */\n      swap1\n      dup2\n      shl\n        /* \"#utility.yul\":3139:3161   */\n      add\n        /* \"#utility.yul\":3126:3162   */\n      swap1\n      sstore\n      pop\n        /* \"#utility.yul\":2130:3429   */\n      jump\t// out\n        /* \"#utility.yul\":3434:3561   */\n    tag_38:\n        /* \"#utility.yul\":3495:3505   */\n      0x4e487b71\n        /* \"#utility.yul\":3490:3493   */\n      0xe0\n        /* \"#utility.yul\":3486:3506   */\n      shl\n        /* \"#utility.yul\":3483:3484   */\n      0x00\n        /* \"#utility.yul\":3476:3507   */\n      mstore\n        /* \"#utility.yul\":3526:3530   */\n      0x32\n        /* \"#utility.yul\":3523:3524   */\n      0x04\n        /* \"#utility.yul\":3516:3531   */\n      mstore\n        /* \"#utility.yul\":3550:3554   */\n      0x24\n        /* \"#utility.yul\":3547:3548   */\n      0x00\n        /* \"#utility.yul\":3540:3555   */\n      revert\n\n    auxdata: 0xa2646970667358221220fdc280912a567c4705ba904e98401d04795eb603790ed06db0675858f741607964736f6c634300081f0033\n}\n",
				"bytecode": {
					"linkReferences": {},
					"object": "6080604052348015600e575f5ffd5b506107718061001c5f395ff3fe608060405234801561000f575f5ffd5b506004361061003f575f3560e01c8063ee26fac314610043578063f1354acc14610063578063f7746e361461006d575b5f5ffd5b61004b610080565b60405161005a93929190610572565b60405180910390f35b61006b610123565b005b61004b61007b3660046105bd565b6104dd565b600180546002546003805492936001600160a01b03909216926100a2906105d4565b80601f01602080910402602001604051908101604052809291908181526020018280546100ce906105d4565b80156101195780601f106100f057610100808354040283529160200191610119565b820191905f5260205f20905b8154815290600101906020018083116100fc57829003601f168201915b5050505050905083565b60408051606080820183526107c68252336020808401828152855180870187526004815263616f646960e01b81840152858701908152865180860188526107c7815280840185905287518089018952600581526462616f6d6160d81b8186015281890152875180870189525f808252818a01978852818601969096528851808a01909952600689526562656e63686960d01b94890194909452969094526107c982528254600181018455928052845160039093027f290decd9548b62a8d60345a988386fc84ba6bc95484008f6362f93160ef3e563810193845590517f290decd9548b62a8d60345a988386fc84ba6bc95484008f6362f93160ef3e564820180546001600160a01b039092166001600160a01b0319909216919091179055925193949390928592917f290decd9548b62a8d60345a988386fc84ba6bc95484008f6362f93160ef3e5659091019061027a908261066c565b50505f805460018101825590805283517f290decd9548b62a8d60345a988386fc84ba6bc95484008f6362f93160ef3e563600390920291820190815560208501517f290decd9548b62a8d60345a988386fc84ba6bc95484008f6362f93160ef3e564830180546001600160a01b0319166001600160a01b03909216919091179055604085015185935090917f290decd9548b62a8d60345a988386fc84ba6bc95484008f6362f93160ef3e5650190610332908261066c565b50505f805460018101825590805282517f290decd9548b62a8d60345a988386fc84ba6bc95484008f6362f93160ef3e563600390920291820190815560208401517f290decd9548b62a8d60345a988386fc84ba6bc95484008f6362f93160ef3e564830180546001600160a01b0319166001600160a01b03909216919091179055604084015184935090917f290decd9548b62a8d60345a988386fc84ba6bc95484008f6362f93160ef3e56501906103ea908261066c565b5050604080516060810182526107ca8152336020808301918252835180850185526004815263616f646960e01b91810191909152928201839052815160019081559051600280546001600160a01b0319166001600160a01b039092169190911790559092509060039061045d908261066c565b50506107cb6001555061047160035f610520565b5f5f8154811061048357610483610727565b5f918252602082206003909102018181556001810180546001600160a01b0319169055906104b46002830182610520565b50505f6001815481106104c9576104c9610727565b5f9182526020822060039091020155505050565b5f81815481106104eb575f80fd5b5f9182526020909120600390910201805460018201546002830180549294506001600160a01b0390911692916100a2906105d4565b50805461052c906105d4565b5f825580601f1061053b575050565b601f0160209004905f5260205f2090810190610557919061055a565b50565b5b8082111561056e575f815560010161055b565b5090565b83815260018060a01b0383166020820152606060408201525f82518060608401528060208501608085015e5f608082850101526080601f19601f830116840101915050949350505050565b5f602082840312156105cd575f5ffd5b5035919050565b600181811c908216806105e857607f821691505b60208210810361060657634e487b7160e01b5f52602260045260245ffd5b50919050565b634e487b7160e01b5f52604160045260245ffd5b601f82111561066757805f5260205f20601f840160051c810160208510156106455750805b601f840160051c820191505b81811015610664575f8155600101610651565b50505b505050565b815167ffffffffffffffff8111156106865761068661060c565b61069a8161069484546105d4565b84610620565b6020601f8211600181146106cc575f83156106b55750848201515b5f19600385901b1c1916600184901b178455610664565b5f84815260208120601f198516915b828110156106fb57878501518255602094850194600190920191016106db565b508482101561071857868401515f19600387901b60f8161c191681555b50505050600190811b01905550565b634e487b7160e01b5f52603260045260245ffdfea2646970667358221220fdc280912a567c4705ba904e98401d04795eb603790ed06db0675858f741607964736f6c634300081f0033",
					"opcodes": "PUSH1 0x80 PUSH1 0x40 MSTORE CALLVALUE DUP1 ISZERO PUSH1 0xE JUMPI PUSH0 PUSH0 REVERT JUMPDEST POP PUSH2 0x771 DUP1 PUSH2 0x1C PUSH0 CODECOPY PUSH0 RETURN INVALID PUSH1 0x80 PUSH1 0x40 MSTORE CALLVALUE DUP1 ISZERO PUSH2 0xF JUMPI PUSH0 PUSH0 REVERT JUMPDEST POP PUSH1 0x4 CALLDATASIZE LT PUSH2 0x3F JUMPI PUSH0 CALLDATALOAD PUSH1 0xE0 SHR DUP1 PUSH4 0xEE26FAC3 EQ PUSH2 0x43 JUMPI DUP1 PUSH4 0xF1354ACC EQ PUSH2 0x63 JUMPI DUP1 PUSH4 0xF7746E36 EQ PUSH2 0x6D JUMPI JUMPDEST PUSH0 PUSH0 REVERT JUMPDEST PUSH2 0x4B PUSH2 0x80 JUMP JUMPDEST PUSH1 0x40 MLOAD PUSH2 0x5A SWAP4 SWAP3 SWAP2 SWAP1 PUSH2 0x572 JUMP JUMPDEST PUSH1 0x40 MLOAD DUP1 SWAP2 SUB SWAP1 RETURN JUMPDEST PUSH2 0x6B PUSH2 0x123 JUMP JUMPDEST STOP JUMPDEST PUSH2 0x4B PUSH2 0x7B CALLDATASIZE PUSH1 0x4 PUSH2 0x5BD JUMP JUMPDEST PUSH2 0x4DD JUMP JUMPDEST PUSH1 0x1 DUP1 SLOAD PUSH1 0x2 SLOAD PUSH1 0x3 DUP1 SLOAD SWAP3 SWAP4 PUSH1 0x1 PUSH1 0x1 PUSH1 0xA0 SHL SUB SWAP1 SWAP3 AND SWAP3 PUSH2 0xA2 SWAP1 PUSH2 0x5D4 JUMP JUMPDEST DUP1 PUSH1 0x1F ADD PUSH1 0x20 DUP1 SWAP2 DIV MUL PUSH1 0x20 ADD PUSH1 0x40 MLOAD SWAP1 DUP2 ADD PUSH1 0x40 MSTORE DUP1 SWAP3 SWAP2 SWAP1 DUP2 DUP2 MSTORE PUSH1 0x20 ADD DUP3 DUP1 SLOAD PUSH2 0xCE SWAP1 PUSH2 0x5D4 JUMP JUMPDEST DUP1 ISZERO PUSH2 0x119 JUMPI DUP1 PUSH1 0x1F LT PUSH2 0xF0 JUMPI PUSH2 0x100 DUP1 DUP4 SLOAD DIV MUL DUP4 MSTORE SWAP2 PUSH1 0x20 ADD SWAP2 PUSH2 0x119 JUMP JUMPDEST DUP3 ADD SWAP2 SWAP1 PUSH0 MSTORE PUSH1 0x20 PUSH0 KECCAK256 SWAP1 JUMPDEST DUP2 SLOAD DUP2 MSTORE SWAP1 PUSH1 0x1 ADD SWAP1 PUSH1 0x20 ADD DUP1 DUP4 GT PUSH2 0xFC JUMPI DUP3 SWAP1 SUB PUSH1 0x1F AND DUP3 ADD SWAP2 JUMPDEST POP POP POP POP POP SWAP1 POP DUP4 JUMP JUMPDEST PUSH1 0x40 DUP1 MLOAD PUSH1 0x60 DUP1 DUP3 ADD DUP4 MSTORE PUSH2 0x7C6 DUP3 MSTORE CALLER PUSH1 0x20 DUP1 DUP5 ADD DUP3 DUP2 MSTORE DUP6 MLOAD DUP1 DUP8 ADD DUP8 MSTORE PUSH1 0x4 DUP2 MSTORE PUSH4 0x616F6469 PUSH1 0xE0 SHL DUP2 DUP5 ADD MSTORE DUP6 DUP8 ADD SWAP1 DUP2 MSTORE DUP7 MLOAD DUP1 DUP7 ADD DUP9 MSTORE PUSH2 0x7C7 DUP2 MSTORE DUP1 DUP5 ADD DUP6 SWAP1 MSTORE DUP8 MLOAD DUP1 DUP10 ADD DUP10 MSTORE PUSH1 0x5 DUP2 MSTORE PUSH5 0x62616F6D61 PUSH1 0xD8 SHL DUP2 DUP7 ADD MSTORE DUP2 DUP10 ADD MSTORE DUP8 MLOAD DUP1 DUP8 ADD DUP10 MSTORE PUSH0 DUP1 DUP3 MSTORE DUP2 DUP11 ADD SWAP8 DUP9 MSTORE DUP2 DUP7 ADD SWAP7 SWAP1 SWAP7 MSTORE DUP9 MLOAD DUP1 DUP11 ADD SWAP1 SWAP10 MSTORE PUSH1 0x6 DUP10 MSTORE PUSH6 0x62656E636869 PUSH1 0xD0 SHL SWAP5 DUP10 ADD SWAP5 SWAP1 SWAP5 MSTORE SWAP7 SWAP1 SWAP5 MSTORE PUSH2 0x7C9 DUP3 MSTORE DUP3 SLOAD PUSH1 0x1 DUP2 ADD DUP5 SSTORE SWAP3 DUP1 MSTORE DUP5 MLOAD PUSH1 0x3 SWAP1 SWAP4 MUL PUSH32 0x290DECD9548B62A8D60345A988386FC84BA6BC95484008F6362F93160EF3E563 DUP2 ADD SWAP4 DUP5 SSTORE SWAP1 MLOAD PUSH32 0x290DECD9548B62A8D60345A988386FC84BA6BC95484008F6362F93160EF3E564 DUP3 ADD DUP1 SLOAD PUSH1 0x1 PUSH1 0x1 PUSH1 0xA0 SHL SUB SWAP1 SWAP3 AND PUSH1 0x1 PUSH1 0x1 PUSH1 0xA0 SHL SUB NOT SWAP1 SWAP3 AND SWAP2 SWAP1 SWAP2 OR SWAP1 SSTORE SWAP3 MLOAD SWAP4 SWAP5 SWAP4 SWAP1 SWAP3 DUP6 SWAP3 SWAP2 PUSH32 0x290DECD9548B62A8D60345A988386FC84BA6BC95484008F6362F93160EF3E565 SWAP1 SWAP2 ADD SWAP1 PUSH2 0x27A SWAP1 DUP3 PUSH2 0x66C JUMP JUMPDEST POP POP PUSH0 DUP1 SLOAD PUSH1 0x1 DUP2 ADD DUP3 SSTORE SWAP1 DUP1 MSTORE DUP4 MLOAD PUSH32 0x290DECD9548B62A8D60345A988386FC84BA6BC95484008F6362F93160EF3E563 PUSH1 0x3 SWAP1 SWAP3 MUL SWAP2 DUP3 ADD SWAP1 DUP2 SSTORE PUSH1 0x20 DUP6 ADD MLOAD PUSH32 0x290DECD9548B62A8D60345A988386FC84BA6BC95484008F6362F93160EF3E564 DUP4 ADD DUP1 SLOAD PUSH1 0x1 PUSH1 0x1 PUSH1 0xA0 SHL SUB NOT AND PUSH1 0x1 PUSH1 0x1 PUSH1 0xA0 SHL SUB SWAP1 SWAP3 AND SWAP2 SWAP1 SWAP2 OR SWAP1 SSTORE PUSH1 0x40 DUP6 ADD MLOAD DUP6 SWAP4 POP SWAP1 SWAP2 PUSH32 0x290DECD9548B62A8D60345A988386FC84BA6BC95484008F6362F93160EF3E565 ADD SWAP1 PUSH2 0x332 SWAP1 DUP3 PUSH2 0x66C JUMP JUMPDEST POP POP PUSH0 DUP1 SLOAD PUSH1 0x1 DUP2 ADD DUP3 SSTORE SWAP1 DUP1 MSTORE DUP3 MLOAD PUSH32 0x290DECD9548B62A8D60345A988386FC84BA6BC95484008F6362F93160EF3E563 PUSH1 0x3 SWAP1 SWAP3 MUL SWAP2 DUP3 ADD SWAP1 DUP2 SSTORE PUSH1 0x20 DUP5 ADD MLOAD PUSH32 0x290DECD9548B62A8D60345A988386FC84BA6BC95484008F6362F93160EF3E564 DUP4 ADD DUP1 SLOAD PUSH1 0x1 PUSH1 0x1 PUSH1 0xA0 SHL SUB NOT AND PUSH1 0x1 PUSH1 0x1 PUSH1 0xA0 SHL SUB SWAP1 SWAP3 AND SWAP2 SWAP1 SWAP2 OR SWAP1 SSTORE PUSH1 0x40 DUP5 ADD MLOAD DUP5 SWAP4 POP SWAP1 SWAP2 PUSH32 0x290DECD9548B62A8D60345A988386FC84BA6BC95484008F6362F93160EF3E565 ADD SWAP1 PUSH2 0x3EA SWAP1 DUP3 PUSH2 0x66C JUMP JUMPDEST POP POP PUSH1 0x40 DUP1 MLOAD PUSH1 0x60 DUP2 ADD DUP3 MSTORE PUSH2 0x7CA DUP2 MSTORE CALLER PUSH1 0x20 DUP1 DUP4 ADD SWAP2 DUP3 MSTORE DUP4 MLOAD DUP1 DUP6 ADD DUP6 MSTORE PUSH1 0x4 DUP2 MSTORE PUSH4 0x616F6469 PUSH1 0xE0 SHL SWAP2 DUP2 ADD SWAP2 SWAP1 SWAP2 MSTORE SWAP3 DUP3 ADD DUP4 SWAP1 MSTORE DUP2 MLOAD PUSH1 0x1 SWAP1 DUP2 SSTORE SWAP1 MLOAD PUSH1 0x2 DUP1 SLOAD PUSH1 0x1 PUSH1 0x1 PUSH1 0xA0 SHL SUB NOT AND PUSH1 0x1 PUSH1 0x1 PUSH1 0xA0 SHL SUB SWAP1 SWAP3 AND SWAP2 SWAP1 SWAP2 OR SWAP1 SSTORE SWAP1 SWAP3 POP SWAP1 PUSH1 0x3 SWAP1 PUSH2 0x45D SWAP1 DUP3 PUSH2 0x66C JUMP JUMPDEST POP POP PUSH2 0x7CB PUSH1 0x1 SSTORE POP PUSH2 0x471 PUSH1 0x3 PUSH0 PUSH2 0x520 JUMP JUMPDEST PUSH0 PUSH0 DUP2 SLOAD DUP2 LT PUSH2 0x483 JUMPI PUSH2 0x483 PUSH2 0x727 JUMP JUMPDEST PUSH0 SWAP2 DUP3 MSTORE PUSH1 0x20 DUP3 KECCAK256 PUSH1 0x3 SWAP1 SWAP2 MUL ADD DUP2 DUP2 SSTORE PUSH1 0x1 DUP2 ADD DUP1 SLOAD PUSH1 0x1 PUSH1 0x1 PUSH1 0xA0 SHL SUB NOT AND SWAP1 SSTORE SWAP1 PUSH2 0x4B4 PUSH1 0x2 DUP4 ADD DUP3 PUSH2 0x520 JUMP JUMPDEST POP POP PUSH0 PUSH1 0x1 DUP2 SLOAD DUP2 LT PUSH2 0x4C9 JUMPI PUSH2 0x4C9 PUSH2 0x727 JUMP JUMPDEST PUSH0 SWAP2 DUP3 MSTORE PUSH1 0x20 DUP3 KECCAK256 PUSH1 0x3 SWAP1 SWAP2 MUL ADD SSTORE POP POP POP JUMP JUMPDEST PUSH0 DUP2 DUP2 SLOAD DUP2 LT PUSH2 0x4EB JUMPI PUSH0 DUP1 REVERT JUMPDEST PUSH0 SWAP2 DUP3 MSTORE PUSH1 0x20 SWAP1 SWAP2 KECCAK256 PUSH1 0x3 SWAP1 SWAP2 MUL ADD DUP1 SLOAD PUSH1 0x1 DUP3 ADD SLOAD PUSH1 0x2 DUP4 ADD DUP1 SLOAD SWAP3 SWAP5 POP PUSH1 0x1 PUSH1 0x1 PUSH1 0xA0 SHL SUB SWAP1 SWAP2 AND SWAP3 SWAP2 PUSH2 0xA2 SWAP1 PUSH2 0x5D4 JUMP JUMPDEST POP DUP1 SLOAD PUSH2 0x52C SWAP1 PUSH2 0x5D4 JUMP JUMPDEST PUSH0 DUP3 SSTORE DUP1 PUSH1 0x1F LT PUSH2 0x53B JUMPI POP POP JUMP JUMPDEST PUSH1 0x1F ADD PUSH1 0x20 SWAP1 DIV SWAP1 PUSH0 MSTORE PUSH1 0x20 PUSH0 KECCAK256 SWAP1 DUP2 ADD SWAP1 PUSH2 0x557 SWAP2 SWAP1 PUSH2 0x55A JUMP JUMPDEST POP JUMP JUMPDEST JUMPDEST DUP1 DUP3 GT ISZERO PUSH2 0x56E JUMPI PUSH0 DUP2 SSTORE PUSH1 0x1 ADD PUSH2 0x55B JUMP JUMPDEST POP SWAP1 JUMP JUMPDEST DUP4 DUP2 MSTORE PUSH1 0x1 DUP1 PUSH1 0xA0 SHL SUB DUP4 AND PUSH1 0x20 DUP3 ADD MSTORE PUSH1 0x60 PUSH1 0x40 DUP3 ADD MSTORE PUSH0 DUP3 MLOAD DUP1 PUSH1 0x60 DUP5 ADD MSTORE DUP1 PUSH1 0x20 DUP6 ADD PUSH1 0x80 DUP6 ADD MCOPY PUSH0 PUSH1 0x80 DUP3 DUP6 ADD ADD MSTORE PUSH1 0x80 PUSH1 0x1F NOT PUSH1 0x1F DUP4 ADD AND DUP5 ADD ADD SWAP2 POP POP SWAP5 SWAP4 POP POP POP POP JUMP JUMPDEST PUSH0 PUSH1 0x20 DUP3 DUP5 SUB SLT ISZERO PUSH2 0x5CD JUMPI PUSH0 PUSH0 REVERT JUMPDEST POP CALLDATALOAD SWAP2 SWAP1 POP JUMP JUMPDEST PUSH1 0x1 DUP2 DUP2 SHR SWAP1 DUP3 AND DUP1 PUSH2 0x5E8 JUMPI PUSH1 0x7F DUP3 AND SWAP2 POP JUMPDEST PUSH1 0x20 DUP3 LT DUP2 SUB PUSH2 0x606 JUMPI PUSH4 0x4E487B71 PUSH1 0xE0 SHL PUSH0 MSTORE PUSH1 0x22 PUSH1 0x4 MSTORE PUSH1 0x24 PUSH0 REVERT JUMPDEST POP SWAP2 SWAP1 POP JUMP JUMPDEST PUSH4 0x4E487B71 PUSH1 0xE0 SHL PUSH0 MSTORE PUSH1 0x41 PUSH1 0x4 MSTORE PUSH1 0x24 PUSH0 REVERT JUMPDEST PUSH1 0x1F DUP3 GT ISZERO PUSH2 0x667 JUMPI DUP1 PUSH0 MSTORE PUSH1 0x20 PUSH0 KECCAK256 PUSH1 0x1F DUP5 ADD PUSH1 0x5 SHR DUP2 ADD PUSH1 0x20 DUP6 LT ISZERO PUSH2 0x645 JUMPI POP DUP1 JUMPDEST PUSH1 0x1F DUP5 ADD PUSH1 0x5 SHR DUP3 ADD SWAP2 POP JUMPDEST DUP2 DUP2 LT ISZERO PUSH2 0x664 JUMPI PUSH0 DUP2 SSTORE PUSH1 0x1 ADD PUSH2 0x651 JUMP JUMPDEST POP POP JUMPDEST POP POP POP JUMP JUMPDEST DUP2 MLOAD PUSH8 0xFFFFFFFFFFFFFFFF DUP2 GT ISZERO PUSH2 0x686 JUMPI PUSH2 0x686 PUSH2 0x60C JUMP JUMPDEST PUSH2 0x69A DUP2 PUSH2 0x694 DUP5 SLOAD PUSH2 0x5D4 JUMP JUMPDEST DUP5 PUSH2 0x620 JUMP JUMPDEST PUSH1 0x20 PUSH1 0x1F DUP3 GT PUSH1 0x1 DUP2 EQ PUSH2 0x6CC JUMPI PUSH0 DUP4 ISZERO PUSH2 0x6B5 JUMPI POP DUP5 DUP3 ADD MLOAD JUMPDEST PUSH0 NOT PUSH1 0x3 DUP6 SWAP1 SHL SHR NOT AND PUSH1 0x1 DUP5 SWAP1 SHL OR DUP5 SSTORE PUSH2 0x664 JUMP JUMPDEST PUSH0 DUP5 DUP2 MSTORE PUSH1 0x20 DUP2 KECCAK256 PUSH1 0x1F NOT DUP6 AND SWAP2 JUMPDEST DUP3 DUP2 LT ISZERO PUSH2 0x6FB JUMPI DUP8 DUP6 ADD MLOAD DUP3 SSTORE PUSH1 0x20 SWAP5 DUP6 ADD SWAP5 PUSH1 0x1 SWAP1 SWAP3 ADD SWAP2 ADD PUSH2 0x6DB JUMP JUMPDEST POP DUP5 DUP3 LT ISZERO PUSH2 0x718 JUMPI DUP7 DUP5 ADD MLOAD PUSH0 NOT PUSH1 0x3 DUP8 SWAP1 SHL PUSH1 0xF8 AND SHR NOT AND DUP2 SSTORE JUMPDEST POP POP POP POP PUSH1 0x1 SWAP1 DUP2 SHL ADD SWAP1 SSTORE POP JUMP JUMPDEST PUSH4 0x4E487B71 PUSH1 0xE0 SHL PUSH0 MSTORE PUSH1 0x32 PUSH1 0x4 MSTORE PUSH1 0x24 PUSH0 REVERT INVALID LOG2 PUSH5 0x6970667358 0x22 SLT KECCAK256 REVERT 0xC2 DUP1 SWAP2 0x2A JUMP PUSH29 0x4705BA904E98401D04795EB603790ED06DB0675858F741607964736F6C PUSH4 0x4300081F STOP CALLER "
				},
				"gasEstimates": {
					"creation": {
						"codeDepositCost": "381000",
						"executionCost": "416",
						"totalCost": "381416"
					},
					"external": {
						"addCar()": "infinite",
						"car()": "infinite",
						"cars(uint256)": "infinite"
					}
				},
				"methodIdentifiers": {
					"addCar()": "f1354acc",
					"car()": "ee26fac3",
					"cars(uint256)": "f7746e36"
				}
			},
			"storageLayout": {
				"storage": [
					{
						"astId": 12,
						"contract": "demo1/30Structs.sol:Structs",
						"label": "cars",
						"offset": 0,
						"slot": "0",
						"type": "t_array(t_struct(Car)8_storage)dyn_storage"
					},
					{
						"astId": 15,
						"contract": "demo1/30Structs.sol:Structs",
						"label": "car",
						"offset": 0,
						"slot": "1",
						"type": "t_struct(Car)8_storage"
					}
				],
				"types": {
					"t_address": {
						"encoding": "inplace",
						"label": "address",
						"numberOfBytes": "20"
					},
					"t_array(t_struct(Car)8_storage)dyn_storage": {
						"base": "t_struct(Car)8_storage",
						"encoding": "dynamic_array",
						"label": "struct Structs.Car[]",
						"numberOfBytes": "32"
					},
					"t_string_storage": {
						"encoding": "bytes",
						"label": "string",
						"numberOfBytes": "32"
					},
					"t_struct(Car)8_storage": {
						"encoding": "inplace",
						"label": "struct Structs.Car",
						"members": [
							{
								"astId": 3,
								"contract": "demo1/30Structs.sol:Structs",
								"label": "year",
								"offset": 0,
								"slot": "0",
								"type": "t_uint256"
							},
							{
								"astId": 5,
								"contract": "demo1/30Structs.sol:Structs",
								"label": "addr",
								"offset": 0,
								"slot": "1",
								"type": "t_address"
							},
							{
								"astId": 7,
								"contract": "demo1/30Structs.sol:Structs",
								"label": "owner",
								"offset": 0,
								"slot": "2",
								"type": "t_string_storage"
							}
						],
						"numberOfBytes": "96"
					},
					"t_uint256": {
						"encoding": "inplace",
						"label": "uint256",
						"numberOfBytes": "32"
					}
				}
			},
			"userdoc": {
				"kind": "user",
				"methods": {},
				"version": 1
			}
		}
	}
}