{
	"work/31Enum2.sol": {
		"Enum": {
			"abi": [
				{
					"inputs": [],
					"name": "getStatus",
					"outputs": [
						{
							"internalType": "enum Enum.Status",
							"name": "",
							"type": "uint8"
						}
					],
					"stateMutability": "view",
					"type": "function"
				},
				{
					"inputs": [],
					"name": "reset",
					"outputs": [],
					"stateMutability": "nonpayable",
					"type": "function"
				},
				{
					"inputs": [],
					"name": "setB",
					"outputs": [],
					"stateMutability": "nonpayable",
					"type": "function"
				},
				{
					"inputs": [
						{
							"internalType": "enum Enum.Status",
							"name": "_status",
							"type": "uint8"
						}
					],
					"name": "setStatus",
					"outputs": [],
					"stateMutability": "nonpayable",
					"type": "function"
				},
				{
					"inputs": [],
					"name": "status",
					"outputs": [
						{
							"internalType": "enum Enum.Status",
							"name": "",
							"type": "uint8"
						}
					],
					"stateMutability": "view",
					"type": "function"
				}
			],
			"devdoc": {
				"kind": "dev",
				"methods": {},
				"version": 1
			},
			"evm": {
				"assembly": "    /* \"work/31Enum2.sol\":60:489  contract Enum {... */\n  mstore(0x40, 0x80)\n  callvalue\n  dup1\n  iszero\n  tag_1\n  jumpi\n  revert(0x00, 0x00)\ntag_1:\n  pop\n  dataSize(sub_0)\n  dup1\n  dataOffset(sub_0)\n  0x00\n  codecopy\n  0x00\n  return\nstop\n\nsub_0: assembly {\n        /* \"work/31Enum2.sol\":60:489  contract Enum {... */\n      mstore(0x40, 0x80)\n      callvalue\n      dup1\n      iszero\n      tag_1\n      jumpi\n      revert(0x00, 0x00)\n    tag_1:\n      pop\n      jumpi(tag_2, lt(calldatasize, 0x04))\n      shr(0xe0, calldataload(0x00))\n      dup1\n      0x200d2ed2\n      eq\n      tag_3\n      jumpi\n      dup1\n      0x2e49d78b\n      eq\n      tag_4\n      jumpi\n      dup1\n      0x4e69d560\n      eq\n      tag_5\n      jumpi\n      dup1\n      0xd1f4ba82\n      eq\n      tag_6\n      jumpi\n      dup1\n      0xd826f88f\n      eq\n      tag_7\n      jumpi\n    tag_2:\n      revert(0x00, 0x00)\n        /* \"work/31Enum2.sol\":156:176  Status public status */\n    tag_3:\n      sload(0x00)\n      tag_8\n      swap1\n      0xff\n      and\n      dup2\n      jump\n    tag_8:\n      mload(0x40)\n      tag_10\n      swap2\n      swap1\n      tag_11\n      jump\t// in\n    tag_10:\n      mload(0x40)\n      dup1\n      swap2\n      sub\n      swap1\n      return\n        /* \"work/31Enum2.sol\":276:355  function setStatus(Status _status) external {... */\n    tag_4:\n      tag_12\n      tag_13\n      calldatasize\n      0x04\n      tag_14\n      jump\t// in\n    tag_13:\n      tag_15\n      jump\t// in\n    tag_12:\n      stop\n        /* \"work/31Enum2.sol\":185:268  function getStatus()external view returns (Status) {... */\n    tag_5:\n        /* \"work/31Enum2.sol\":228:234  Status */\n      0x00\n        /* \"work/31Enum2.sol\":254:260  status */\n      sload\n      0xff\n      and\n        /* \"work/31Enum2.sol\":185:268  function getStatus()external view returns (Status) {... */\n      jump(tag_8)\n        /* \"work/31Enum2.sol\":363:421  function setB()external {... */\n    tag_6:\n      tag_12\n        /* \"work/31Enum2.sol\":398:404  status */\n      0x00\n        /* \"work/31Enum2.sol\":398:413  status=Status.b */\n      dup1\n      sload\n      not(0xff)\n      and\n        /* \"work/31Enum2.sol\":405:413  Status.b */\n      0x01\n        /* \"work/31Enum2.sol\":398:413  status=Status.b */\n      or\n      swap1\n      sstore\n        /* \"work/31Enum2.sol\":363:421  function setB()external {... */\n      jump\n        /* \"work/31Enum2.sol\":429:486  function reset()external {... */\n    tag_7:\n      tag_12\n        /* \"work/31Enum2.sol\":472:478  status */\n      0x00\n        /* \"work/31Enum2.sol\":465:478  delete status */\n      dup1\n      sload\n      not(0xff)\n      and\n      swap1\n      sstore\n        /* \"work/31Enum2.sol\":429:486  function reset()external {... */\n      jump\n        /* \"work/31Enum2.sol\":276:355  function setStatus(Status _status) external {... */\n    tag_15:\n        /* \"work/31Enum2.sol\":331:337  status */\n      0x00\n        /* \"work/31Enum2.sol\":331:347  status = _status */\n      dup1\n      sload\n        /* \"work/31Enum2.sol\":340:347  _status */\n      dup3\n      swap2\n        /* \"work/31Enum2.sol\":331:337  status */\n      swap1\n      not(0xff)\n        /* \"work/31Enum2.sol\":331:347  status = _status */\n      and\n      0x01\n        /* \"work/31Enum2.sol\":340:347  _status */\n      dup4\n        /* \"work/31Enum2.sol\":331:347  status = _status */\n      0x03\n      dup2\n      gt\n      iszero\n      tag_25\n      jumpi\n      tag_25\n      tag_26\n      jump\t// in\n    tag_25:\n      mul\n      or\n      swap1\n      sstore\n      pop\n        /* \"work/31Enum2.sol\":276:355  function setStatus(Status _status) external {... */\n      pop\n      jump\t// out\n        /* \"#utility.yul\":14:141   */\n    tag_26:\n        /* \"#utility.yul\":75:85   */\n      0x4e487b71\n        /* \"#utility.yul\":70:73   */\n      0xe0\n        /* \"#utility.yul\":66:86   */\n      shl\n        /* \"#utility.yul\":63:64   */\n      0x00\n        /* \"#utility.yul\":56:87   */\n      mstore\n        /* \"#utility.yul\":106:110   */\n      0x21\n        /* \"#utility.yul\":103:104   */\n      0x04\n        /* \"#utility.yul\":96:111   */\n      mstore\n        /* \"#utility.yul\":130:134   */\n      0x24\n        /* \"#utility.yul\":127:128   */\n      0x00\n        /* \"#utility.yul\":120:135   */\n      revert\n        /* \"#utility.yul\":146:482   */\n    tag_11:\n        /* \"#utility.yul\":286:288   */\n      0x20\n        /* \"#utility.yul\":271:289   */\n      dup2\n      add\n        /* \"#utility.yul\":319:320   */\n      0x04\n        /* \"#utility.yul\":308:321   */\n      dup4\n      lt\n        /* \"#utility.yul\":298:442   */\n      tag_35\n      jumpi\n        /* \"#utility.yul\":364:374   */\n      0x4e487b71\n        /* \"#utility.yul\":359:362   */\n      0xe0\n        /* \"#utility.yul\":355:375   */\n      shl\n        /* \"#utility.yul\":352:353   */\n      0x00\n        /* \"#utility.yul\":345:376   */\n      mstore\n        /* \"#utility.yul\":399:403   */\n      0x21\n        /* \"#utility.yul\":396:397   */\n      0x04\n        /* \"#utility.yul\":389:404   */\n      mstore\n        /* \"#utility.yul\":427:431   */\n      0x24\n        /* \"#utility.yul\":424:425   */\n      0x00\n        /* \"#utility.yul\":417:432   */\n      revert\n        /* \"#utility.yul\":298:442   */\n    tag_35:\n        /* \"#utility.yul\":451:476   */\n      swap2\n      swap1\n      mstore\n        /* \"#utility.yul\":146:482   */\n      swap1\n      jump\t// out\n        /* \"#utility.yul\":487:751   */\n    tag_14:\n        /* \"#utility.yul\":554:560   */\n      0x00\n        /* \"#utility.yul\":607:609   */\n      0x20\n        /* \"#utility.yul\":595:604   */\n      dup3\n        /* \"#utility.yul\":586:593   */\n      dup5\n        /* \"#utility.yul\":582:605   */\n      sub\n        /* \"#utility.yul\":578:610   */\n      slt\n        /* \"#utility.yul\":575:627   */\n      iszero\n      tag_37\n      jumpi\n        /* \"#utility.yul\":623:624   */\n      0x00\n        /* \"#utility.yul\":620:621   */\n      0x00\n        /* \"#utility.yul\":613:625   */\n      revert\n        /* \"#utility.yul\":575:627   */\n    tag_37:\n        /* \"#utility.yul\":662:671   */\n      dup2\n        /* \"#utility.yul\":649:672   */\n      calldataload\n        /* \"#utility.yul\":701:702   */\n      0x04\n        /* \"#utility.yul\":694:699   */\n      dup2\n        /* \"#utility.yul\":691:703   */\n      lt\n        /* \"#utility.yul\":681:721   */\n      tag_38\n      jumpi\n        /* \"#utility.yul\":717:718   */\n      0x00\n        /* \"#utility.yul\":714:715   */\n      0x00\n        /* \"#utility.yul\":707:719   */\n      revert\n        /* \"#utility.yul\":681:721   */\n    tag_38:\n        /* \"#utility.yul\":740:745   */\n      swap4\n        /* \"#utility.yul\":487:751   */\n      swap3\n      pop\n      pop\n      pop\n      jump\t// out\n\n    auxdata: 0xa2646970667358221220ac817a1e73f4f0776f04812033f4243cdbfc429334122c3ed8844ab6781446dc64736f6c63430008210033\n}\n",
				"bytecode": {
					"linkReferences": {},
					"object": "6080604052348015600e575f5ffd5b506101748061001c5f395ff3fe608060405234801561000f575f5ffd5b5060043610610055575f3560e01c8063200d2ed2146100595780632e49d78b1461007b5780634e69d56014610090578063d1f4ba821461009a578063d826f88f146100ab575b5f5ffd5b5f546100659060ff1681565b60405161007291906100f3565b60405180910390f35b61008e610089366004610119565b6100b9565b005b5f5460ff16610065565b61008e5f805460ff19166001179055565b61008e5f805460ff19169055565b5f805482919060ff191660018360038111156100d7576100d76100df565b021790555050565b634e487b7160e01b5f52602160045260245ffd5b602081016004831061011357634e487b7160e01b5f52602160045260245ffd5b91905290565b5f60208284031215610129575f5ffd5b813560048110610137575f5ffd5b939250505056fea2646970667358221220ac817a1e73f4f0776f04812033f4243cdbfc429334122c3ed8844ab6781446dc64736f6c63430008210033",
					"opcodes": "PUSH1 0x80 PUSH1 0x40 MSTORE CALLVALUE DUP1 ISZERO PUSH1 0xE JUMPI PUSH0 PUSH0 REVERT JUMPDEST POP PUSH2 0x174 DUP1 PUSH2 0x1C PUSH0 CODECOPY PUSH0 RETURN INVALID PUSH1 0x80 PUSH1 0x40 MSTORE CALLVALUE DUP1 ISZERO PUSH2 0xF JUMPI PUSH0 PUSH0 REVERT JUMPDEST POP PUSH1 0x4 CALLDATASIZE LT PUSH2 0x55 JUMPI PUSH0 CALLDATALOAD PUSH1 0xE0 SHR DUP1 PUSH4 0x200D2ED2 EQ PUSH2 0x59 JUMPI DUP1 PUSH4 0x2E49D78B EQ PUSH2 0x7B JUMPI DUP1 PUSH4 0x4E69D560 EQ PUSH2 0x90 JUMPI DUP1 PUSH4 0xD1F4BA82 EQ PUSH2 0x9A JUMPI DUP1 PUSH4 0xD826F88F EQ PUSH2 0xAB JUMPI JUMPDEST PUSH0 PUSH0 REVERT JUMPDEST PUSH0 SLOAD PUSH2 0x65 SWAP1 PUSH1 0xFF AND DUP2 JUMP JUMPDEST PUSH1 0x40 MLOAD PUSH2 0x72 SWAP2 SWAP1 PUSH2 0xF3 JUMP JUMPDEST PUSH1 0x40 MLOAD DUP1 SWAP2 SUB SWAP1 RETURN JUMPDEST PUSH2 0x8E PUSH2 0x89 CALLDATASIZE PUSH1 0x4 PUSH2 0x119 JUMP JUMPDEST PUSH2 0xB9 JUMP JUMPDEST STOP JUMPDEST PUSH0 SLOAD PUSH1 0xFF AND PUSH2 0x65 JUMP JUMPDEST PUSH2 0x8E PUSH0 DUP1 SLOAD PUSH1 0xFF NOT AND PUSH1 0x1 OR SWAP1 SSTORE JUMP JUMPDEST PUSH2 0x8E PUSH0 DUP1 SLOAD PUSH1 0xFF NOT AND SWAP1 SSTORE JUMP JUMPDEST PUSH0 DUP1 SLOAD DUP3 SWAP2 SWAP1 PUSH1 0xFF NOT AND PUSH1 0x1 DUP4 PUSH1 0x3 DUP2 GT ISZERO PUSH2 0xD7 JUMPI PUSH2 0xD7 PUSH2 0xDF JUMP JUMPDEST MUL OR SWAP1 SSTORE POP POP JUMP JUMPDEST PUSH4 0x4E487B71 PUSH1 0xE0 SHL PUSH0 MSTORE PUSH1 0x21 PUSH1 0x4 MSTORE PUSH1 0x24 PUSH0 REVERT JUMPDEST PUSH1 0x20 DUP2 ADD PUSH1 0x4 DUP4 LT PUSH2 0x113 JUMPI PUSH4 0x4E487B71 PUSH1 0xE0 SHL PUSH0 MSTORE PUSH1 0x21 PUSH1 0x4 MSTORE PUSH1 0x24 PUSH0 REVERT JUMPDEST SWAP2 SWAP1 MSTORE SWAP1 JUMP JUMPDEST PUSH0 PUSH1 0x20 DUP3 DUP5 SUB SLT ISZERO PUSH2 0x129 JUMPI PUSH0 PUSH0 REVERT JUMPDEST DUP2 CALLDATALOAD PUSH1 0x4 DUP2 LT PUSH2 0x137 JUMPI PUSH0 PUSH0 REVERT JUMPDEST SWAP4 SWAP3 POP POP POP JUMP INVALID LOG2 PUSH5 0x6970667358 0x22 SLT KECCAK256 0xAC DUP2 PUSH27 0x1E73F4F0776F04812033F4243CDBFC429334122C3ED8844AB67814 CHAINID 0xDC PUSH5 0x736F6C6343 STOP ADDMOD 0x21 STOP CALLER "
				},
				"gasEstimates": {
					"creation": {
						"codeDepositCost": "74400",
						"executionCost": "121",
						"totalCost": "74521"
					},
					"external": {
						"getStatus()": "2365",
						"reset()": "24414",
						"setB()": "24398",
						"setStatus(uint8)": "24517",
						"status()": "2327"
					}
				},
				"methodIdentifiers": {
					"getStatus()": "4e69d560",
					"reset()": "d826f88f",
					"setB()": "d1f4ba82",
					"setStatus(uint8)": "2e49d78b",
					"status()": "200d2ed2"
				}
			},
			"storageLayout": {
				"storage": [
					{
						"astId": 9,
						"contract": "work/31Enum2.sol:Enum",
						"label": "status",
						"offset": 0,
						"slot": "0",
						"type": "t_enum(Status)6"
					}
				],
				"types": {
					"t_enum(Status)6": {
						"encoding": "inplace",
						"label": "enum Enum.Status",
						"numberOfBytes": "1"
					}
				}
			},
			"userdoc": {
				"kind": "user",
				"methods": {},
				"version": 1
			}
		}
	}
}