{
	"demo1/Defaul.sol": {
		"DefaulValue": {
			"abi": [
				{
					"inputs": [],
					"name": "add",
					"outputs": [
						{
							"internalType": "address",
							"name": "",
							"type": "address"
						}
					],
					"stateMutability": "view",
					"type": "function"
				},
				{
					"inputs": [],
					"name": "bo",
					"outputs": [
						{
							"internalType": "bool",
							"name": "",
							"type": "bool"
						}
					],
					"stateMutability": "view",
					"type": "function"
				},
				{
					"inputs": [],
					"name": "by",
					"outputs": [
						{
							"internalType": "bytes32",
							"name": "",
							"type": "bytes32"
						}
					],
					"stateMutability": "view",
					"type": "function"
				},
				{
					"inputs": [],
					"name": "i",
					"outputs": [
						{
							"internalType": "uint256",
							"name": "",
							"type": "uint256"
						}
					],
					"stateMutability": "view",
					"type": "function"
				}
			],
			"devdoc": {
				"kind": "dev",
				"methods": {},
				"version": 1
			},
			"evm": {
				"assembly": "    /* \"demo1/Defaul.sol\":60:175  contract DefaulValue {... */\n  mstore(0x40, 0x80)\n  callvalue\n  dup1\n  iszero\n  tag_1\n  jumpi\n  revert(0x00, 0x00)\ntag_1:\n  pop\n  dataSize(sub_0)\n  dup1\n  dataOffset(sub_0)\n  0x00\n  codecopy\n  0x00\n  return\nstop\n\nsub_0: assembly {\n        /* \"demo1/Defaul.sol\":60:175  contract DefaulValue {... */\n      mstore(0x40, 0x80)\n      callvalue\n      dup1\n      iszero\n      tag_1\n      jumpi\n      revert(0x00, 0x00)\n    tag_1:\n      pop\n      jumpi(tag_2, lt(calldatasize, 0x04))\n      shr(0xe0, calldataload(0x00))\n      dup1\n      0x4f2be91f\n      eq\n      tag_3\n      jumpi\n      dup1\n      0x500d6847\n      eq\n      tag_4\n      jumpi\n      dup1\n      0x7c000138\n      eq\n      tag_5\n      jumpi\n      dup1\n      0xe5aa3d58\n      eq\n      tag_6\n      jumpi\n    tag_2:\n      revert(0x00, 0x00)\n        /* \"demo1/Defaul.sol\":108:126  address public add */\n    tag_3:\n      sload(0x01)\n      tag_7\n      swap1\n      sub(shl(0xa0, 0x01), 0x01)\n      and\n      dup2\n      jump\n    tag_7:\n      mload(0x40)\n      sub(shl(0xa0, 0x01), 0x01)\n        /* \"#utility.yul\":178:210   */\n      swap1\n      swap2\n      and\n        /* \"#utility.yul\":160:211   */\n      dup2\n      mstore\n        /* \"#utility.yul\":148:150   */\n      0x20\n        /* \"#utility.yul\":133:151   */\n      add\n        /* \"demo1/Defaul.sol\":108:126  address public add */\n    tag_9:\n      mload(0x40)\n      dup1\n      swap2\n      sub\n      swap1\n      return\n        /* \"demo1/Defaul.sol\":157:171  bool public bo */\n    tag_4:\n      sload(0x03)\n      tag_11\n      swap1\n      0xff\n      and\n      dup2\n      jump\n    tag_11:\n      mload(0x40)\n        /* \"#utility.yul\":387:401   */\n      swap1\n      iszero\n        /* \"#utility.yul\":380:402   */\n      iszero\n        /* \"#utility.yul\":362:403   */\n      dup2\n      mstore\n        /* \"#utility.yul\":350:352   */\n      0x20\n        /* \"#utility.yul\":335:353   */\n      add\n        /* \"demo1/Defaul.sol\":157:171  bool public bo */\n      tag_9\n        /* \"#utility.yul\":222:409   */\n      jump\n        /* \"demo1/Defaul.sol\":133:150  bytes32 public by */\n    tag_5:\n      tag_15\n      sload(0x02)\n      dup2\n      jump\n    tag_15:\n      mload(0x40)\n        /* \"#utility.yul\":560:585   */\n      swap1\n      dup2\n      mstore\n        /* \"#utility.yul\":548:550   */\n      0x20\n        /* \"#utility.yul\":533:551   */\n      add\n        /* \"demo1/Defaul.sol\":133:150  bytes32 public by */\n      tag_9\n        /* \"#utility.yul\":414:591   */\n      jump\n        /* \"demo1/Defaul.sol\":88:101  uint public i */\n    tag_6:\n      tag_15\n      sload(0x00)\n      dup2\n      jump\n\n    auxdata: 0xa264697066735822122022cad15ceaf8cd453f19a546c1ca2fd8b60b53ae39d3fcd3f5c3f591bc797f7864736f6c63430008210033\n}\n",
				"bytecode": {
					"linkReferences": {},
					"object": "6080604052348015600e575f5ffd5b5060e48061001b5f395ff3fe6080604052348015600e575f5ffd5b50600436106044575f3560e01c80634f2be91f146048578063500d68471460775780637c000138146092578063e5aa3d581460a7575b5f5ffd5b600154605a906001600160a01b031681565b6040516001600160a01b0390911681526020015b60405180910390f35b60035460839060ff1681565b6040519015158152602001606e565b609a60025481565b604051908152602001606e565b609a5f548156fea264697066735822122022cad15ceaf8cd453f19a546c1ca2fd8b60b53ae39d3fcd3f5c3f591bc797f7864736f6c63430008210033",
					"opcodes": "PUSH1 0x80 PUSH1 0x40 MSTORE CALLVALUE DUP1 ISZERO PUSH1 0xE JUMPI PUSH0 PUSH0 REVERT JUMPDEST POP PUSH1 0xE4 DUP1 PUSH2 0x1B PUSH0 CODECOPY PUSH0 RETURN INVALID PUSH1 0x80 PUSH1 0x40 MSTORE CALLVALUE DUP1 ISZERO PUSH1 0xE JUMPI PUSH0 PUSH0 REVERT JUMPDEST POP PUSH1 0x4 CALLDATASIZE LT PUSH1 0x44 JUMPI PUSH0 CALLDATALOAD PUSH1 0xE0 SHR DUP1 PUSH4 0x4F2BE91F EQ PUSH1 0x48 JUMPI DUP1 PUSH4 0x500D6847 EQ PUSH1 0x77 JUMPI DUP1 PUSH4 0x7C000138 EQ PUSH1 0x92 JUMPI DUP1 PUSH4 0xE5AA3D58 EQ PUSH1 0xA7 JUMPI JUMPDEST PUSH0 PUSH0 REVERT JUMPDEST PUSH1 0x1 SLOAD PUSH1 0x5A SWAP1 PUSH1 0x1 PUSH1 0x1 PUSH1 0xA0 SHL SUB AND DUP2 JUMP JUMPDEST PUSH1 0x40 MLOAD PUSH1 0x1 PUSH1 0x1 PUSH1 0xA0 SHL SUB SWAP1 SWAP2 AND DUP2 MSTORE PUSH1 0x20 ADD JUMPDEST PUSH1 0x40 MLOAD DUP1 SWAP2 SUB SWAP1 RETURN JUMPDEST PUSH1 0x3 SLOAD PUSH1 0x83 SWAP1 PUSH1 0xFF AND DUP2 JUMP JUMPDEST PUSH1 0x40 MLOAD SWAP1 ISZERO ISZERO DUP2 MSTORE PUSH1 0x20 ADD PUSH1 0x6E JUMP JUMPDEST PUSH1 0x9A PUSH1 0x2 SLOAD DUP2 JUMP JUMPDEST PUSH1 0x40 MLOAD SWAP1 DUP2 MSTORE PUSH1 0x20 ADD PUSH1 0x6E JUMP JUMPDEST PUSH1 0x9A PUSH0 SLOAD DUP2 JUMP INVALID LOG2 PUSH5 0x6970667358 0x22 SLT KECCAK256 0x22 0xCA DATALOADN 0x5CEA EXTCALL 0xCD GASLIMIT EXTCODEHASH NOT 0xA5 CHAINID 0xC1 0xCA 0x2F 0xD8 0xB6 SIGNEXTEND MSTORE8 0xAE CODECOPY 0xD3 0xFC 0xD3 CREATE2 0xC3 CREATE2 SWAP2 0xBC PUSH26 0x7F7864736F6C6343000821003300000000000000000000000000 "
				},
				"gasEstimates": {
					"creation": {
						"codeDepositCost": "45600",
						"executionCost": "97",
						"totalCost": "45697"
					},
					"external": {
						"add()": "2303",
						"bo()": "2309",
						"by()": "2316",
						"i()": "2337"
					}
				},
				"methodIdentifiers": {
					"add()": "4f2be91f",
					"bo()": "500d6847",
					"by()": "7c000138",
					"i()": "e5aa3d58"
				}
			},
			"storageLayout": {
				"storage": [
					{
						"astId": 3,
						"contract": "demo1/Defaul.sol:DefaulValue",
						"label": "i",
						"offset": 0,
						"slot": "0",
						"type": "t_uint256"
					},
					{
						"astId": 5,
						"contract": "demo1/Defaul.sol:DefaulValue",
						"label": "add",
						"offset": 0,
						"slot": "1",
						"type": "t_address"
					},
					{
						"astId": 7,
						"contract": "demo1/Defaul.sol:DefaulValue",
						"label": "by",
						"offset": 0,
						"slot": "2",
						"type": "t_bytes32"
					},
					{
						"astId": 9,
						"contract": "demo1/Defaul.sol:DefaulValue",
						"label": "bo",
						"offset": 0,
						"slot": "3",
						"type": "t_bool"
					}
				],
				"types": {
					"t_address": {
						"encoding": "inplace",
						"label": "address",
						"numberOfBytes": "20"
					},
					"t_bool": {
						"encoding": "inplace",
						"label": "bool",
						"numberOfBytes": "1"
					},
					"t_bytes32": {
						"encoding": "inplace",
						"label": "bytes32",
						"numberOfBytes": "32"
					},
					"t_uint256": {
						"encoding": "inplace",
						"label": "uint256",
						"numberOfBytes": "32"
					}
				}
			},
			"userdoc": {
				"kind": "user",
				"methods": {},
				"version": 1
			}
		}
	}
}