{
	"work/32SimpleStorage.sol": {
		"MessageStore": {
			"abi": [
				{
					"inputs": [],
					"name": "getMessage",
					"outputs": [
						{
							"internalType": "string",
							"name": "txt",
							"type": "string"
						}
					],
					"stateMutability": "view",
					"type": "function"
				},
				{
					"inputs": [],
					"name": "message",
					"outputs": [
						{
							"internalType": "string",
							"name": "",
							"type": "string"
						}
					],
					"stateMutability": "view",
					"type": "function"
				},
				{
					"inputs": [
						{
							"internalType": "string",
							"name": "_tex",
							"type": "string"
						}
					],
					"name": "setMessage",
					"outputs": [],
					"stateMutability": "nonpayable",
					"type": "function"
				}
			],
			"devdoc": {
				"kind": "dev",
				"methods": {},
				"version": 1
			},
			"evm": {
				"assembly": "    /* \"work/32SimpleStorage.sol\":60:312  contract MessageStore {... */\n  mstore(0x40, 0x80)\n  callvalue\n  dup1\n  iszero\n  tag_1\n  jumpi\n  revert(0x00, 0x00)\ntag_1:\n  pop\n  dataSize(sub_0)\n  dup1\n  dataOffset(sub_0)\n  0x00\n  codecopy\n  0x00\n  return\nstop\n\nsub_0: assembly {\n        /* \"work/32SimpleStorage.sol\":60:312  contract MessageStore {... */\n      mstore(0x40, 0x80)\n      callvalue\n      dup1\n      iszero\n      tag_1\n      jumpi\n      revert(0x00, 0x00)\n    tag_1:\n      pop\n      jumpi(tag_2, lt(calldatasize, 0x04))\n      shr(0xe0, calldataload(0x00))\n      dup1\n      0x368b8772\n      eq\n      tag_3\n      jumpi\n      dup1\n      0xce6d41de\n      eq\n      tag_4\n      jumpi\n      dup1\n      0xe21f37ce\n      eq\n      tag_5\n      jumpi\n    tag_2:\n      revert(0x00, 0x00)\n        /* \"work/32SimpleStorage.sol\":119:201  function setMessage(string calldata _tex) external {... */\n    tag_3:\n      tag_6\n      tag_7\n      calldatasize\n      0x04\n      tag_8\n      jump\t// in\n    tag_7:\n      tag_9\n      jump\t// in\n    tag_6:\n      stop\n        /* \"work/32SimpleStorage.sol\":213:309  function getMessage() external view returns (string memory txt){... */\n    tag_4:\n      tag_10\n      tag_11\n      jump\t// in\n    tag_10:\n      mload(0x40)\n      tag_12\n      swap2\n      swap1\n      tag_13\n      jump\t// in\n    tag_12:\n      mload(0x40)\n      dup1\n      swap2\n      sub\n      swap1\n      return\n        /* \"work/32SimpleStorage.sol\":89:110  string public message */\n    tag_5:\n      tag_10\n      tag_15\n      jump\t// in\n        /* \"work/32SimpleStorage.sol\":119:201  function setMessage(string calldata _tex) external {... */\n    tag_9:\n        /* \"work/32SimpleStorage.sol\":181:188  message */\n      0x00\n        /* \"work/32SimpleStorage.sol\":181:193  message=_tex */\n      tag_18\n        /* \"work/32SimpleStorage.sol\":189:193  _tex */\n      dup3\n      dup5\n        /* \"work/32SimpleStorage.sol\":181:188  message */\n      dup4\n        /* \"work/32SimpleStorage.sol\":181:193  message=_tex */\n      tag_19\n      jump\t// in\n    tag_18:\n      pop\n        /* \"work/32SimpleStorage.sol\":119:201  function setMessage(string calldata _tex) external {... */\n      pop\n      pop\n      jump\t// out\n        /* \"work/32SimpleStorage.sol\":213:309  function getMessage() external view returns (string memory txt){... */\n    tag_11:\n        /* \"work/32SimpleStorage.sol\":258:275  string memory txt */\n      0x60\n        /* \"work/32SimpleStorage.sol\":294:301  message */\n      0x00\n        /* \"work/32SimpleStorage.sol\":287:301  return message */\n      dup1\n      sload\n      tag_21\n      swap1\n      tag_22\n      jump\t// in\n    tag_21:\n      dup1\n      0x1f\n      add\n      0x20\n      dup1\n      swap2\n      div\n      mul\n      0x20\n      add\n      mload(0x40)\n      swap1\n      dup2\n      add\n      0x40\n      mstore\n      dup1\n      swap3\n      swap2\n      swap1\n      dup2\n      dup2\n      mstore\n      0x20\n      add\n      dup3\n      dup1\n      sload\n      tag_23\n      swap1\n      tag_22\n      jump\t// in\n    tag_23:\n      dup1\n      iszero\n      tag_24\n      jumpi\n      dup1\n      0x1f\n      lt\n      tag_25\n      jumpi\n      0x0100\n      dup1\n      dup4\n      sload\n      div\n      mul\n      dup4\n      mstore\n      swap2\n      0x20\n      add\n      swap2\n      jump(tag_24)\n    tag_25:\n      dup3\n      add\n      swap2\n      swap1\n      0x00\n      mstore\n      keccak256(0x00, 0x20)\n      swap1\n    tag_26:\n      dup2\n      sload\n      dup2\n      mstore\n      swap1\n      0x01\n      add\n      swap1\n      0x20\n      add\n      dup1\n      dup4\n      gt\n      tag_26\n      jumpi\n      dup3\n      swap1\n      sub\n      0x1f\n      and\n      dup3\n      add\n      swap2\n    tag_24:\n      pop\n      pop\n      pop\n      pop\n      pop\n      swap1\n      pop\n        /* \"work/32SimpleStorage.sol\":213:309  function getMessage() external view returns (string memory txt){... */\n      swap1\n      jump\t// out\n        /* \"work/32SimpleStorage.sol\":89:110  string public message */\n    tag_15:\n      0x00\n      dup1\n      sload\n      tag_27\n      swap1\n      tag_22\n      jump\t// in\n    tag_27:\n      dup1\n      0x1f\n      add\n      0x20\n      dup1\n      swap2\n      div\n      mul\n      0x20\n      add\n      mload(0x40)\n      swap1\n      dup2\n      add\n      0x40\n      mstore\n      dup1\n      swap3\n      swap2\n      swap1\n      dup2\n      dup2\n      mstore\n      0x20\n      add\n      dup3\n      dup1\n      sload\n      tag_28\n      swap1\n      tag_22\n      jump\t// in\n    tag_28:\n      dup1\n      iszero\n      tag_29\n      jumpi\n      dup1\n      0x1f\n      lt\n      tag_30\n      jumpi\n      0x0100\n      dup1\n      dup4\n      sload\n      div\n      mul\n      dup4\n      mstore\n      swap2\n      0x20\n      add\n      swap2\n      jump(tag_29)\n    tag_30:\n      dup3\n      add\n      swap2\n      swap1\n      0x00\n      mstore\n      keccak256(0x00, 0x20)\n      swap1\n    tag_31:\n      dup2\n      sload\n      dup2\n      mstore\n      swap1\n      0x01\n      add\n      swap1\n      0x20\n      add\n      dup1\n      dup4\n      gt\n      tag_31\n      jumpi\n      dup3\n      swap1\n      sub\n      0x1f\n      and\n      dup3\n      add\n      swap2\n    tag_29:\n      pop\n      pop\n      pop\n      pop\n      pop\n      dup2\n      jump\t// out\n        /* \"#utility.yul\":14:601   */\n    tag_8:\n        /* \"#utility.yul\":85:91   */\n      0x00\n        /* \"#utility.yul\":93:99   */\n      0x00\n        /* \"#utility.yul\":146:148   */\n      0x20\n        /* \"#utility.yul\":134:143   */\n      dup4\n        /* \"#utility.yul\":125:132   */\n      dup6\n        /* \"#utility.yul\":121:144   */\n      sub\n        /* \"#utility.yul\":117:149   */\n      slt\n        /* \"#utility.yul\":114:166   */\n      iszero\n      tag_38\n      jumpi\n        /* \"#utility.yul\":162:163   */\n      0x00\n        /* \"#utility.yul\":159:160   */\n      0x00\n        /* \"#utility.yul\":152:164   */\n      revert\n        /* \"#utility.yul\":114:166   */\n    tag_38:\n        /* \"#utility.yul\":202:211   */\n      dup3\n        /* \"#utility.yul\":189:212   */\n      calldataload\n        /* \"#utility.yul\":235:253   */\n      0xffffffffffffffff\n        /* \"#utility.yul\":227:233   */\n      dup2\n        /* \"#utility.yul\":224:254   */\n      gt\n        /* \"#utility.yul\":221:271   */\n      iszero\n      tag_39\n      jumpi\n        /* \"#utility.yul\":267:268   */\n      0x00\n        /* \"#utility.yul\":264:265   */\n      0x00\n        /* \"#utility.yul\":257:269   */\n      revert\n        /* \"#utility.yul\":221:271   */\n    tag_39:\n        /* \"#utility.yul\":290:312   */\n      dup4\n      add\n        /* \"#utility.yul\":343:347   */\n      0x1f\n        /* \"#utility.yul\":335:348   */\n      dup2\n      add\n        /* \"#utility.yul\":331:358   */\n      dup6\n      sgt\n        /* \"#utility.yul\":321:376   */\n      tag_40\n      jumpi\n        /* \"#utility.yul\":372:373   */\n      0x00\n        /* \"#utility.yul\":369:370   */\n      0x00\n        /* \"#utility.yul\":362:374   */\n      revert\n        /* \"#utility.yul\":321:376   */\n    tag_40:\n        /* \"#utility.yul\":412:414   */\n      dup1\n        /* \"#utility.yul\":399:415   */\n      calldataload\n        /* \"#utility.yul\":438:456   */\n      0xffffffffffffffff\n        /* \"#utility.yul\":430:436   */\n      dup2\n        /* \"#utility.yul\":427:457   */\n      gt\n        /* \"#utility.yul\":424:474   */\n      iszero\n      tag_41\n      jumpi\n        /* \"#utility.yul\":470:471   */\n      0x00\n        /* \"#utility.yul\":467:468   */\n      0x00\n        /* \"#utility.yul\":460:472   */\n      revert\n        /* \"#utility.yul\":424:474   */\n    tag_41:\n        /* \"#utility.yul\":515:522   */\n      dup6\n        /* \"#utility.yul\":510:512   */\n      0x20\n        /* \"#utility.yul\":501:507   */\n      dup3\n        /* \"#utility.yul\":497:499   */\n      dup5\n        /* \"#utility.yul\":493:508   */\n      add\n        /* \"#utility.yul\":489:513   */\n      add\n        /* \"#utility.yul\":486:523   */\n      gt\n        /* \"#utility.yul\":483:540   */\n      iszero\n      tag_42\n      jumpi\n        /* \"#utility.yul\":536:537   */\n      0x00\n        /* \"#utility.yul\":533:534   */\n      0x00\n        /* \"#utility.yul\":526:538   */\n      revert\n        /* \"#utility.yul\":483:540   */\n    tag_42:\n        /* \"#utility.yul\":567:569   */\n      0x20\n        /* \"#utility.yul\":559:570   */\n      swap2\n      swap1\n      swap2\n      add\n      swap6\n        /* \"#utility.yul\":589:595   */\n      swap1\n      swap5\n      pop\n        /* \"#utility.yul\":14:601   */\n      swap3\n      pop\n      pop\n      pop\n      jump\t// out\n        /* \"#utility.yul\":606:1024   */\n    tag_13:\n        /* \"#utility.yul\":755:757   */\n      0x20\n        /* \"#utility.yul\":744:753   */\n      dup2\n        /* \"#utility.yul\":737:758   */\n      mstore\n        /* \"#utility.yul\":718:722   */\n      0x00\n        /* \"#utility.yul\":787:793   */\n      dup3\n        /* \"#utility.yul\":781:794   */\n      mload\n        /* \"#utility.yul\":830:836   */\n      dup1\n        /* \"#utility.yul\":825:827   */\n      0x20\n        /* \"#utility.yul\":814:823   */\n      dup5\n        /* \"#utility.yul\":810:828   */\n      add\n        /* \"#utility.yul\":803:837   */\n      mstore\n        /* \"#utility.yul\":889:895   */\n      dup1\n        /* \"#utility.yul\":884:886   */\n      0x20\n        /* \"#utility.yul\":876:882   */\n      dup6\n        /* \"#utility.yul\":872:887   */\n      add\n        /* \"#utility.yul\":867:869   */\n      0x40\n        /* \"#utility.yul\":856:865   */\n      dup6\n        /* \"#utility.yul\":852:870   */\n      add\n        /* \"#utility.yul\":846:896   */\n      mcopy\n        /* \"#utility.yul\":945:946   */\n      0x00\n        /* \"#utility.yul\":940:942   */\n      0x40\n        /* \"#utility.yul\":931:937   */\n      dup3\n        /* \"#utility.yul\":920:929   */\n      dup6\n        /* \"#utility.yul\":916:938   */\n      add\n        /* \"#utility.yul\":912:943   */\n      add\n        /* \"#utility.yul\":905:947   */\n      mstore\n        /* \"#utility.yul\":1015:1017   */\n      0x40\n        /* \"#utility.yul\":1008:1010   */\n      0x1f\n        /* \"#utility.yul\":1004:1011   */\n      not\n        /* \"#utility.yul\":999:1001   */\n      0x1f\n        /* \"#utility.yul\":991:997   */\n      dup4\n        /* \"#utility.yul\":987:1002   */\n      add\n        /* \"#utility.yul\":983:1012   */\n      and\n        /* \"#utility.yul\":972:981   */\n      dup5\n        /* \"#utility.yul\":968:1013   */\n      add\n        /* \"#utility.yul\":964:1018   */\n      add\n        /* \"#utility.yul\":956:1018   */\n      swap2\n      pop\n      pop\n        /* \"#utility.yul\":606:1024   */\n      swap3\n      swap2\n      pop\n      pop\n      jump\t// out\n        /* \"#utility.yul\":1029:1156   */\n    tag_32:\n        /* \"#utility.yul\":1090:1100   */\n      0x4e487b71\n        /* \"#utility.yul\":1085:1088   */\n      0xe0\n        /* \"#utility.yul\":1081:1101   */\n      shl\n        /* \"#utility.yul\":1078:1079   */\n      0x00\n        /* \"#utility.yul\":1071:1102   */\n      mstore\n        /* \"#utility.yul\":1121:1125   */\n      0x41\n        /* \"#utility.yul\":1118:1119   */\n      0x04\n        /* \"#utility.yul\":1111:1126   */\n      mstore\n        /* \"#utility.yul\":1145:1149   */\n      0x24\n        /* \"#utility.yul\":1142:1143   */\n      0x00\n        /* \"#utility.yul\":1135:1150   */\n      revert\n        /* \"#utility.yul\":1161:1541   */\n    tag_22:\n        /* \"#utility.yul\":1240:1241   */\n      0x01\n        /* \"#utility.yul\":1236:1248   */\n      dup2\n      dup2\n      shr\n      swap1\n        /* \"#utility.yul\":1283:1295   */\n      dup3\n      and\n      dup1\n        /* \"#utility.yul\":1304:1365   */\n      tag_46\n      jumpi\n        /* \"#utility.yul\":1358:1362   */\n      0x7f\n        /* \"#utility.yul\":1350:1356   */\n      dup3\n        /* \"#utility.yul\":1346:1363   */\n      and\n        /* \"#utility.yul\":1336:1363   */\n      swap2\n      pop\n        /* \"#utility.yul\":1304:1365   */\n    tag_46:\n        /* \"#utility.yul\":1411:1413   */\n      0x20\n        /* \"#utility.yul\":1403:1409   */\n      dup3\n        /* \"#utility.yul\":1400:1414   */\n      lt\n        /* \"#utility.yul\":1380:1398   */\n      dup2\n        /* \"#utility.yul\":1377:1415   */\n      sub\n        /* \"#utility.yul\":1374:1535   */\n      tag_47\n      jumpi\n        /* \"#utility.yul\":1457:1467   */\n      0x4e487b71\n        /* \"#utility.yul\":1452:1455   */\n      0xe0\n        /* \"#utility.yul\":1448:1468   */\n      shl\n        /* \"#utility.yul\":1445:1446   */\n      0x00\n        /* \"#utility.yul\":1438:1469   */\n      mstore\n        /* \"#utility.yul\":1492:1496   */\n      0x22\n        /* \"#utility.yul\":1489:1490   */\n      0x04\n        /* \"#utility.yul\":1482:1497   */\n      mstore\n        /* \"#utility.yul\":1520:1524   */\n      0x24\n        /* \"#utility.yul\":1517:1518   */\n      0x00\n        /* \"#utility.yul\":1510:1525   */\n      revert\n        /* \"#utility.yul\":1374:1535   */\n    tag_47:\n      pop\n        /* \"#utility.yul\":1161:1541   */\n      swap2\n      swap1\n      pop\n      jump\t// out\n        /* \"#utility.yul\":1672:2364   */\n    tag_34:\n        /* \"#utility.yul\":1774:1776   */\n      0x1f\n        /* \"#utility.yul\":1769:1772   */\n      dup3\n        /* \"#utility.yul\":1766:1777   */\n      gt\n        /* \"#utility.yul\":1763:2358   */\n      iszero\n      tag_18\n      jumpi\n        /* \"#utility.yul\":1811:1821   */\n      dup3\n        /* \"#utility.yul\":1806:1809   */\n      dup3\n        /* \"#utility.yul\":1803:1822   */\n      gt\n        /* \"#utility.yul\":1800:2348   */\n      iszero\n      tag_18\n      jumpi\n        /* \"#utility.yul\":1863:1868   */\n      dup1\n        /* \"#utility.yul\":1860:1861   */\n      0x00\n        /* \"#utility.yul\":1853:1869   */\n      mstore\n        /* \"#utility.yul\":1911:1915   */\n      0x20\n        /* \"#utility.yul\":1908:1909   */\n      0x00\n        /* \"#utility.yul\":1898:1916   */\n      keccak256\n        /* \"#utility.yul\":1976:1978   */\n      0x1f\n        /* \"#utility.yul\":1964:1974   */\n      dup5\n        /* \"#utility.yul\":1960:1979   */\n      add\n        /* \"#utility.yul\":1957:1958   */\n      0x05\n        /* \"#utility.yul\":1953:1980   */\n      shr\n        /* \"#utility.yul\":2015:2019   */\n      0x20\n        /* \"#utility.yul\":2003:2013   */\n      dup6\n        /* \"#utility.yul\":2000:2020   */\n      lt\n        /* \"#utility.yul\":1997:2042   */\n      iszero\n      tag_52\n      jumpi\n      pop\n        /* \"#utility.yul\":2039:2040   */\n      0x00\n        /* \"#utility.yul\":1997:2042   */\n    tag_52:\n        /* \"#utility.yul\":2078:2101   */\n      swap1\n      dup2\n      add\n      swap1\n        /* \"#utility.yul\":2148:2150   */\n      0x1f\n        /* \"#utility.yul\":2139:2151   */\n      dup5\n      add\n        /* \"#utility.yul\":2136:2137   */\n      0x05\n        /* \"#utility.yul\":2132:2152   */\n      shr\n        /* \"#utility.yul\":2128:2167   */\n      sub\n        /* \"#utility.yul\":2193:2194   */\n      0x00\n        /* \"#utility.yul\":2211:2334   */\n    tag_53:\n        /* \"#utility.yul\":2225:2227   */\n      dup2\n        /* \"#utility.yul\":2222:2223   */\n      dup2\n        /* \"#utility.yul\":2219:2228   */\n      lt\n        /* \"#utility.yul\":2211:2334   */\n      iszero\n      tag_55\n      jumpi\n        /* \"#utility.yul\":2314:2315   */\n      0x00\n        /* \"#utility.yul\":2293:2312   */\n      dup4\n      dup3\n      add\n        /* \"#utility.yul\":2286:2316   */\n      sstore\n        /* \"#utility.yul\":2243:2244   */\n      0x01\n        /* \"#utility.yul\":2236:2245   */\n      add\n        /* \"#utility.yul\":2211:2334   */\n      jump(tag_53)\n    tag_55:\n        /* \"#utility.yul\":2215:2218   */\n      pop\n      pop\n      pop\n        /* \"#utility.yul\":1672:2364   */\n      pop\n      pop\n      pop\n      jump\t// out\n        /* \"#utility.yul\":2540:3738   */\n    tag_19:\n        /* \"#utility.yul\":2664:2682   */\n      0xffffffffffffffff\n        /* \"#utility.yul\":2659:2662   */\n      dup4\n        /* \"#utility.yul\":2656:2683   */\n      gt\n        /* \"#utility.yul\":2653:2706   */\n      iszero\n      tag_59\n      jumpi\n        /* \"#utility.yul\":2686:2704   */\n      tag_59\n      tag_32\n      jump\t// in\n    tag_59:\n        /* \"#utility.yul\":2715:2809   */\n      tag_60\n        /* \"#utility.yul\":2805:2808   */\n      dup4\n        /* \"#utility.yul\":2765:2803   */\n      tag_61\n        /* \"#utility.yul\":2797:2801   */\n      dup4\n        /* \"#utility.yul\":2791:2802   */\n      sload\n        /* \"#utility.yul\":2765:2803   */\n      tag_22\n      jump\t// in\n    tag_61:\n        /* \"#utility.yul\":2759:2763   */\n      dup4\n        /* \"#utility.yul\":2715:2809   */\n      tag_34\n      jump\t// in\n    tag_60:\n        /* \"#utility.yul\":2835:2836   */\n      0x00\n        /* \"#utility.yul\":2860:2862   */\n      0x1f\n        /* \"#utility.yul\":2855:2858   */\n      dup5\n        /* \"#utility.yul\":2852:2863   */\n      gt\n        /* \"#utility.yul\":2877:2878   */\n      0x01\n        /* \"#utility.yul\":2872:3480   */\n      dup2\n      eq\n      tag_63\n      jumpi\n        /* \"#utility.yul\":3524:3525   */\n      0x00\n        /* \"#utility.yul\":3541:3544   */\n      dup6\n        /* \"#utility.yul\":3538:3631   */\n      iszero\n      tag_64\n      jumpi\n      pop\n        /* \"#utility.yul\":3597:3616   */\n      dup4\n      dup3\n      add\n        /* \"#utility.yul\":3584:3617   */\n      calldataload\n        /* \"#utility.yul\":3538:3631   */\n    tag_64:\n      not(0x00)\n        /* \"#utility.yul\":2497:2498   */\n      0x03\n        /* \"#utility.yul\":2493:2504   */\n      dup8\n      swap1\n      shl\n        /* \"#utility.yul\":2489:2513   */\n      shr\n        /* \"#utility.yul\":2485:2514   */\n      not\n        /* \"#utility.yul\":2475:2515   */\n      and\n        /* \"#utility.yul\":2521:2522   */\n      0x01\n        /* \"#utility.yul\":2517:2528   */\n      dup7\n      swap1\n      shl\n        /* \"#utility.yul\":2472:2529   */\n      or\n        /* \"#utility.yul\":3644:3722   */\n      dup4\n      sstore\n        /* \"#utility.yul\":2845:3732   */\n      jump(tag_62)\n        /* \"#utility.yul\":2872:3480   */\n    tag_63:\n        /* \"#utility.yul\":1619:1620   */\n      0x00\n        /* \"#utility.yul\":1612:1626   */\n      dup4\n      dup2\n      mstore\n        /* \"#utility.yul\":1656:1660   */\n      0x20\n        /* \"#utility.yul\":1643:1661   */\n      dup2\n      keccak256\n      not(0x1f)\n        /* \"#utility.yul\":2908:2925   */\n      dup8\n      and\n      swap2\n        /* \"#utility.yul\":3023:3252   */\n    tag_67:\n        /* \"#utility.yul\":3037:3044   */\n      dup3\n        /* \"#utility.yul\":3034:3035   */\n      dup2\n        /* \"#utility.yul\":3031:3045   */\n      lt\n        /* \"#utility.yul\":3023:3252   */\n      iszero\n      tag_69\n      jumpi\n        /* \"#utility.yul\":3126:3145   */\n      dup7\n      dup6\n      add\n        /* \"#utility.yul\":3113:3146   */\n      calldataload\n        /* \"#utility.yul\":3098:3147   */\n      dup3\n      sstore\n        /* \"#utility.yul\":3233:3237   */\n      0x20\n        /* \"#utility.yul\":3218:3238   */\n      swap5\n      dup6\n      add\n      swap5\n        /* \"#utility.yul\":3186:3187   */\n      0x01\n        /* \"#utility.yul\":3174:3188   */\n      swap1\n      swap3\n      add\n      swap2\n        /* \"#utility.yul\":3053:3065   */\n      add\n        /* \"#utility.yul\":3023:3252   */\n      jump(tag_67)\n    tag_69:\n        /* \"#utility.yul\":3027:3030   */\n      pop\n        /* \"#utility.yul\":3280:3283   */\n      dup7\n        /* \"#utility.yul\":3271:3278   */\n      dup3\n        /* \"#utility.yul\":3268:3284   */\n      lt\n        /* \"#utility.yul\":3265:3424   */\n      iszero\n      tag_70\n      jumpi\n        /* \"#utility.yul\":3404:3405   */\n      0x00\n        /* \"#utility.yul\":3400:3406   */\n      not\n        /* \"#utility.yul\":3394:3397   */\n      0xf8\n        /* \"#utility.yul\":3388:3391   */\n      dup9\n        /* \"#utility.yul\":3385:3386   */\n      0x03\n        /* \"#utility.yul\":3381:3392   */\n      shl\n        /* \"#utility.yul\":3377:3398   */\n      and\n        /* \"#utility.yul\":3373:3407   */\n      shr\n        /* \"#utility.yul\":3369:3408   */\n      not\n        /* \"#utility.yul\":3356:3365   */\n      dup5\n        /* \"#utility.yul\":3351:3354   */\n      dup8\n        /* \"#utility.yul\":3347:3366   */\n      add\n        /* \"#utility.yul\":3334:3367   */\n      calldataload\n        /* \"#utility.yul\":3330:3409   */\n      and\n        /* \"#utility.yul\":3322:3328   */\n      dup2\n        /* \"#utility.yul\":3315:3410   */\n      sstore\n        /* \"#utility.yul\":3265:3424   */\n    tag_70:\n      pop\n      pop\n        /* \"#utility.yul\":3467:3468   */\n      0x01\n        /* \"#utility.yul\":3461:3464   */\n      dup6\n        /* \"#utility.yul\":3458:3459   */\n      0x01\n        /* \"#utility.yul\":3454:3465   */\n      shl\n        /* \"#utility.yul\":3450:3469   */\n      add\n        /* \"#utility.yul\":3444:3448   */\n      dup4\n        /* \"#utility.yul\":3437:3470   */\n      sstore\n        /* \"#utility.yul\":2845:3732   */\n    tag_62:\n      pop\n      pop\n        /* \"#utility.yul\":2540:3738   */\n      pop\n      pop\n      pop\n      jump\t// out\n\n    auxdata: 0xa2646970667358221220950065ec90576db2825c20405631b2cfb216376d9a24957ef44b59e3ab2fbcc864736f6c63430008210033\n}\n",
				"bytecode": {
					"linkReferences": {},
					"object": "6080604052348015600e575f5ffd5b506103df8061001c5f395ff3fe608060405234801561000f575f5ffd5b506004361061003f575f3560e01c8063368b877214610043578063ce6d41de14610058578063e21f37ce14610076575b5f5ffd5b6100566100513660046101a9565b61007e565b005b61006061008f565b60405161006d9190610217565b60405180910390f35b61006061011e565b5f61008a8284836102ee565b505050565b60605f805461009d90610260565b80601f01602080910402602001604051908101604052809291908181526020018280546100c990610260565b80156101145780601f106100eb57610100808354040283529160200191610114565b820191905f5260205f20905b8154815290600101906020018083116100f757829003601f168201915b5050505050905090565b5f805461012a90610260565b80601f016020809104026020016040519081016040528092919081815260200182805461015690610260565b80156101a15780601f10610178576101008083540402835291602001916101a1565b820191905f5260205f20905b81548152906001019060200180831161018457829003601f168201915b505050505081565b5f5f602083850312156101ba575f5ffd5b823567ffffffffffffffff8111156101d0575f5ffd5b8301601f810185136101e0575f5ffd5b803567ffffffffffffffff8111156101f6575f5ffd5b856020828401011115610207575f5ffd5b6020919091019590945092505050565b602081525f82518060208401528060208501604085015e5f604082850101526040601f19601f83011684010191505092915050565b634e487b7160e01b5f52604160045260245ffd5b600181811c9082168061027457607f821691505b60208210810361029257634e487b7160e01b5f52602260045260245ffd5b50919050565b601f82111561008a578282111561008a57805f5260205f20601f840160051c60208510156102c357505f5b90810190601f840160051c035f5b818110156102e6575f838201556001016102d1565b505050505050565b67ffffffffffffffff8311156103065761030661024c565b61031a836103148354610260565b83610298565b5f601f84116001811461034b575f85156103345750838201355b5f19600387901b1c1916600186901b1783556103a2565b5f83815260208120601f198716915b8281101561037a578685013582556020948501946001909201910161035a565b5086821015610396575f1960f88860031b161c19848701351681555b505060018560011b0183555b505050505056fea2646970667358221220950065ec90576db2825c20405631b2cfb216376d9a24957ef44b59e3ab2fbcc864736f6c63430008210033",
					"opcodes": "PUSH1 0x80 PUSH1 0x40 MSTORE CALLVALUE DUP1 ISZERO PUSH1 0xE JUMPI PUSH0 PUSH0 REVERT JUMPDEST POP PUSH2 0x3DF DUP1 PUSH2 0x1C PUSH0 CODECOPY PUSH0 RETURN INVALID PUSH1 0x80 PUSH1 0x40 MSTORE CALLVALUE DUP1 ISZERO PUSH2 0xF JUMPI PUSH0 PUSH0 REVERT JUMPDEST POP PUSH1 0x4 CALLDATASIZE LT PUSH2 0x3F JUMPI PUSH0 CALLDATALOAD PUSH1 0xE0 SHR DUP1 PUSH4 0x368B8772 EQ PUSH2 0x43 JUMPI DUP1 PUSH4 0xCE6D41DE EQ PUSH2 0x58 JUMPI DUP1 PUSH4 0xE21F37CE EQ PUSH2 0x76 JUMPI JUMPDEST PUSH0 PUSH0 REVERT JUMPDEST PUSH2 0x56 PUSH2 0x51 CALLDATASIZE PUSH1 0x4 PUSH2 0x1A9 JUMP JUMPDEST PUSH2 0x7E JUMP JUMPDEST STOP JUMPDEST PUSH2 0x60 PUSH2 0x8F JUMP JUMPDEST PUSH1 0x40 MLOAD PUSH2 0x6D SWAP2 SWAP1 PUSH2 0x217 JUMP JUMPDEST PUSH1 0x40 MLOAD DUP1 SWAP2 SUB SWAP1 RETURN JUMPDEST PUSH2 0x60 PUSH2 0x11E JUMP JUMPDEST PUSH0 PUSH2 0x8A DUP3 DUP5 DUP4 PUSH2 0x2EE JUMP JUMPDEST POP POP POP JUMP JUMPDEST PUSH1 0x60 PUSH0 DUP1 SLOAD PUSH2 0x9D SWAP1 PUSH2 0x260 JUMP JUMPDEST DUP1 PUSH1 0x1F ADD PUSH1 0x20 DUP1 SWAP2 DIV MUL PUSH1 0x20 ADD PUSH1 0x40 MLOAD SWAP1 DUP2 ADD PUSH1 0x40 MSTORE DUP1 SWAP3 SWAP2 SWAP1 DUP2 DUP2 MSTORE PUSH1 0x20 ADD DUP3 DUP1 SLOAD PUSH2 0xC9 SWAP1 PUSH2 0x260 JUMP JUMPDEST DUP1 ISZERO PUSH2 0x114 JUMPI DUP1 PUSH1 0x1F LT PUSH2 0xEB JUMPI PUSH2 0x100 DUP1 DUP4 SLOAD DIV MUL DUP4 MSTORE SWAP2 PUSH1 0x20 ADD SWAP2 PUSH2 0x114 JUMP JUMPDEST DUP3 ADD SWAP2 SWAP1 PUSH0 MSTORE PUSH1 0x20 PUSH0 KECCAK256 SWAP1 JUMPDEST DUP2 SLOAD DUP2 MSTORE SWAP1 PUSH1 0x1 ADD SWAP1 PUSH1 0x20 ADD DUP1 DUP4 GT PUSH2 0xF7 JUMPI DUP3 SWAP1 SUB PUSH1 0x1F AND DUP3 ADD SWAP2 JUMPDEST POP POP POP POP POP SWAP1 POP SWAP1 JUMP JUMPDEST PUSH0 DUP1 SLOAD PUSH2 0x12A SWAP1 PUSH2 0x260 JUMP JUMPDEST DUP1 PUSH1 0x1F ADD PUSH1 0x20 DUP1 SWAP2 DIV MUL PUSH1 0x20 ADD PUSH1 0x40 MLOAD SWAP1 DUP2 ADD PUSH1 0x40 MSTORE DUP1 SWAP3 SWAP2 SWAP1 DUP2 DUP2 MSTORE PUSH1 0x20 ADD DUP3 DUP1 SLOAD PUSH2 0x156 SWAP1 PUSH2 0x260 JUMP JUMPDEST DUP1 ISZERO PUSH2 0x1A1 JUMPI DUP1 PUSH1 0x1F LT PUSH2 0x178 JUMPI PUSH2 0x100 DUP1 DUP4 SLOAD DIV MUL DUP4 MSTORE SWAP2 PUSH1 0x20 ADD SWAP2 PUSH2 0x1A1 JUMP JUMPDEST DUP3 ADD SWAP2 SWAP1 PUSH0 MSTORE PUSH1 0x20 PUSH0 KECCAK256 SWAP1 JUMPDEST DUP2 SLOAD DUP2 MSTORE SWAP1 PUSH1 0x1 ADD SWAP1 PUSH1 0x20 ADD DUP1 DUP4 GT PUSH2 0x184 JUMPI DUP3 SWAP1 SUB PUSH1 0x1F AND DUP3 ADD SWAP2 JUMPDEST POP POP POP POP POP DUP2 JUMP JUMPDEST PUSH0 PUSH0 PUSH1 0x20 DUP4 DUP6 SUB SLT ISZERO PUSH2 0x1BA JUMPI PUSH0 PUSH0 REVERT JUMPDEST DUP3 CALLDATALOAD PUSH8 0xFFFFFFFFFFFFFFFF DUP2 GT ISZERO PUSH2 0x1D0 JUMPI PUSH0 PUSH0 REVERT JUMPDEST DUP4 ADD PUSH1 0x1F DUP2 ADD DUP6 SGT PUSH2 0x1E0 JUMPI PUSH0 PUSH0 REVERT JUMPDEST DUP1 CALLDATALOAD PUSH8 0xFFFFFFFFFFFFFFFF DUP2 GT ISZERO PUSH2 0x1F6 JUMPI PUSH0 PUSH0 REVERT JUMPDEST DUP6 PUSH1 0x20 DUP3 DUP5 ADD ADD GT ISZERO PUSH2 0x207 JUMPI PUSH0 PUSH0 REVERT JUMPDEST PUSH1 0x20 SWAP2 SWAP1 SWAP2 ADD SWAP6 SWAP1 SWAP5 POP SWAP3 POP POP POP JUMP JUMPDEST PUSH1 0x20 DUP2 MSTORE PUSH0 DUP3 MLOAD DUP1 PUSH1 0x20 DUP5 ADD MSTORE DUP1 PUSH1 0x20 DUP6 ADD PUSH1 0x40 DUP6 ADD MCOPY PUSH0 PUSH1 0x40 DUP3 DUP6 ADD ADD MSTORE PUSH1 0x40 PUSH1 0x1F NOT PUSH1 0x1F DUP4 ADD AND DUP5 ADD ADD SWAP2 POP POP SWAP3 SWAP2 POP POP JUMP JUMPDEST PUSH4 0x4E487B71 PUSH1 0xE0 SHL PUSH0 MSTORE PUSH1 0x41 PUSH1 0x4 MSTORE PUSH1 0x24 PUSH0 REVERT JUMPDEST PUSH1 0x1 DUP2 DUP2 SHR SWAP1 DUP3 AND DUP1 PUSH2 0x274 JUMPI PUSH1 0x7F DUP3 AND SWAP2 POP JUMPDEST PUSH1 0x20 DUP3 LT DUP2 SUB PUSH2 0x292 JUMPI PUSH4 0x4E487B71 PUSH1 0xE0 SHL PUSH0 MSTORE PUSH1 0x22 PUSH1 0x4 MSTORE PUSH1 0x24 PUSH0 REVERT JUMPDEST POP SWAP2 SWAP1 POP JUMP JUMPDEST PUSH1 0x1F DUP3 GT ISZERO PUSH2 0x8A JUMPI DUP3 DUP3 GT ISZERO PUSH2 0x8A JUMPI DUP1 PUSH0 MSTORE PUSH1 0x20 PUSH0 KECCAK256 PUSH1 0x1F DUP5 ADD PUSH1 0x5 SHR PUSH1 0x20 DUP6 LT ISZERO PUSH2 0x2C3 JUMPI POP PUSH0 JUMPDEST SWAP1 DUP2 ADD SWAP1 PUSH1 0x1F DUP5 ADD PUSH1 0x5 SHR SUB PUSH0 JUMPDEST DUP2 DUP2 LT ISZERO PUSH2 0x2E6 JUMPI PUSH0 DUP4 DUP3 ADD SSTORE PUSH1 0x1 ADD PUSH2 0x2D1 JUMP JUMPDEST POP POP POP POP POP POP JUMP JUMPDEST PUSH8 0xFFFFFFFFFFFFFFFF DUP4 GT ISZERO PUSH2 0x306 JUMPI PUSH2 0x306 PUSH2 0x24C JUMP JUMPDEST PUSH2 0x31A DUP4 PUSH2 0x314 DUP4 SLOAD PUSH2 0x260 JUMP JUMPDEST DUP4 PUSH2 0x298 JUMP JUMPDEST PUSH0 PUSH1 0x1F DUP5 GT PUSH1 0x1 DUP2 EQ PUSH2 0x34B JUMPI PUSH0 DUP6 ISZERO PUSH2 0x334 JUMPI POP DUP4 DUP3 ADD CALLDATALOAD JUMPDEST PUSH0 NOT PUSH1 0x3 DUP8 SWAP1 SHL SHR NOT AND PUSH1 0x1 DUP7 SWAP1 SHL OR DUP4 SSTORE PUSH2 0x3A2 JUMP JUMPDEST PUSH0 DUP4 DUP2 MSTORE PUSH1 0x20 DUP2 KECCAK256 PUSH1 0x1F NOT DUP8 AND SWAP2 JUMPDEST DUP3 DUP2 LT ISZERO PUSH2 0x37A JUMPI DUP7 DUP6 ADD CALLDATALOAD DUP3 SSTORE PUSH1 0x20 SWAP5 DUP6 ADD SWAP5 PUSH1 0x1 SWAP1 SWAP3 ADD SWAP2 ADD PUSH2 0x35A JUMP JUMPDEST POP DUP7 DUP3 LT ISZERO PUSH2 0x396 JUMPI PUSH0 NOT PUSH1 0xF8 DUP9 PUSH1 0x3 SHL AND SHR NOT DUP5 DUP8 ADD CALLDATALOAD AND DUP2 SSTORE JUMPDEST POP POP PUSH1 0x1 DUP6 PUSH1 0x1 SHL ADD DUP4 SSTORE JUMPDEST POP POP POP POP POP JUMP INVALID LOG2 PUSH5 0x6970667358 0x22 SLT KECCAK256 SWAP6 STOP PUSH6 0xEC90576DB282 TLOAD KECCAK256 BLOCKHASH JUMP BALANCE 0xB2 0xCF 0xB2 AND CALLDATACOPY PUSH14 0x9A24957EF44B59E3AB2FBCC86473 PUSH16 0x6C634300082100330000000000000000 "
				},
				"gasEstimates": {
					"creation": {
						"codeDepositCost": "198200",
						"executionCost": "236",
						"totalCost": "198436"
					},
					"external": {
						"getMessage()": "infinite",
						"message()": "infinite",
						"setMessage(string)": "infinite"
					}
				},
				"methodIdentifiers": {
					"getMessage()": "ce6d41de",
					"message()": "e21f37ce",
					"setMessage(string)": "368b8772"
				}
			},
			"storageLayout": {
				"storage": [
					{
						"astId": 3,
						"contract": "work/32SimpleStorage.sol:MessageStore",
						"label": "message",
						"offset": 0,
						"slot": "0",
						"type": "t_string_storage"
					}
				],
				"types": {
					"t_string_storage": {
						"encoding": "bytes",
						"label": "string",
						"numberOfBytes": "32"
					}
				}
			},
			"userdoc": {
				"kind": "user",
				"methods": {},
				"version": 1
			}
		}
	}
}