{
	"demo1/26ArrayShift.sol": {
		"ArrayShift": {
			"abi": [
				{
					"inputs": [
						{
							"internalType": "uint256[]",
							"name": "arr",
							"type": "uint256[]"
						},
						{
							"internalType": "uint256",
							"name": "index",
							"type": "uint256"
						}
					],
					"name": "remove",
					"outputs": [],
					"stateMutability": "nonpayable",
					"type": "function"
				}
			],
			"devdoc": {
				"kind": "dev",
				"methods": {},
				"version": 1
			},
			"evm": {
				"assembly": "    /* \"demo1/26ArrayShift.sol\":107:131  uint[3] array2 = [6,3,3] */\n  0xe0\n    /* \"demo1/26ArrayShift.sol\":60:785  contract ArrayShift {... */\n  0x40\n    /* \"demo1/26ArrayShift.sol\":107:131  uint[3] array2 = [6,3,3] */\n  mstore\n    /* \"demo1/26ArrayShift.sol\":125:126  6 */\n  0x06\n    /* \"demo1/26ArrayShift.sol\":60:785  contract ArrayShift {... */\n  0x80\n    /* \"demo1/26ArrayShift.sol\":107:131  uint[3] array2 = [6,3,3] */\n  swap1\n  dup2\n  mstore\n    /* \"demo1/26ArrayShift.sol\":127:128  3 */\n  0x03\n    /* \"demo1/26ArrayShift.sol\":107:131  uint[3] array2 = [6,3,3] */\n  0xa0\n  dup2\n  swap1\n  mstore\n  0xc0\n  mstore\n  0x01\n  swap1\n  tag_1\n  swap1\n  dup3\n  tag_2\n  jump\t// in\ntag_1:\n  pop\n    /* \"demo1/26ArrayShift.sol\":60:785  contract ArrayShift {... */\n  callvalue\n  dup1\n  iszero\n  tag_3\n  jumpi\n  revert(0x00, 0x00)\ntag_3:\n  pop\n  jump(tag_5)\n    /* \"#utility.yul\":14:428   */\ntag_2:\n    /* \"#utility.yul\":152:155   */\n  dup2\n    /* \"#utility.yul\":173:174   */\n  0x00\n    /* \"#utility.yul\":183:422   */\ntag_7:\n    /* \"#utility.yul\":197:201   */\n  0x03\n    /* \"#utility.yul\":194:195   */\n  dup2\n    /* \"#utility.yul\":191:202   */\n  lt\n    /* \"#utility.yul\":183:422   */\n  iszero\n  tag_9\n  jumpi\n    /* \"#utility.yul\":254:267   */\n  dup2\n  mload\n    /* \"#utility.yul\":328:332   */\n  0xff\n    /* \"#utility.yul\":320:333   */\n  and\n    /* \"#utility.yul\":391:402   */\n  dup4\n  dup3\n  add\n    /* \"#utility.yul\":384:412   */\n  sstore\n    /* \"#utility.yul\":368:370   */\n  0x20\n    /* \"#utility.yul\":356:371   */\n  swap1\n  swap2\n  add\n  swap1\n    /* \"#utility.yul\":217:218   */\n  0x01\n    /* \"#utility.yul\":210:219   */\n  add\n    /* \"#utility.yul\":183:422   */\n  jump(tag_7)\ntag_9:\n    /* \"#utility.yul\":187:190   */\n  pop\n  pop\n    /* \"#utility.yul\":14:428   */\n  pop\n  pop\n  jump\t// out\ntag_5:\n    /* \"demo1/26ArrayShift.sol\":60:785  contract ArrayShift {... */\n  dataSize(sub_0)\n  dup1\n  dataOffset(sub_0)\n  0x00\n  codecopy\n  0x00\n  return\nstop\n\nsub_0: assembly {\n        /* \"demo1/26ArrayShift.sol\":60:785  contract ArrayShift {... */\n      mstore(0x40, 0x80)\n      callvalue\n      dup1\n      iszero\n      tag_1\n      jumpi\n      revert(0x00, 0x00)\n    tag_1:\n      pop\n      jumpi(tag_2, lt(calldatasize, 0x04))\n      shr(0xe0, calldataload(0x00))\n      dup1\n      0xcbbdc4ac\n      eq\n      tag_3\n      jumpi\n    tag_2:\n      revert(0x00, 0x00)\n        /* \"demo1/26ArrayShift.sol\":142:449  function remove(uint[] memory arr,uint index) public {... */\n    tag_3:\n      tag_4\n      tag_5\n      calldatasize\n      0x04\n      tag_6\n      jump\t// in\n    tag_5:\n      tag_7\n      jump\t// in\n    tag_4:\n      stop\n    tag_7:\n        /* \"demo1/26ArrayShift.sol\":206:212  array1 */\n      0x00\n        /* \"demo1/26ArrayShift.sol\":206:216  array1=arr */\n      tag_9\n        /* \"demo1/26ArrayShift.sol\":213:216  arr */\n      dup4\n        /* \"demo1/26ArrayShift.sol\":206:212  array1 */\n      dup3\n        /* \"demo1/26ArrayShift.sol\":206:216  array1=arr */\n      tag_10\n      jump\t// in\n    tag_9:\n      pop\n        /* \"demo1/26ArrayShift.sol\":239:244  index */\n      dup1\n        /* \"demo1/26ArrayShift.sol\":227:320  for (uint i=index; i<array1.length-1; i++) {... */\n    tag_11:\n        /* \"demo1/26ArrayShift.sol\":248:254  array1 */\n      0x00\n        /* \"demo1/26ArrayShift.sol\":248:261  array1.length */\n      sload\n        /* \"demo1/26ArrayShift.sol\":248:263  array1.length-1 */\n      tag_14\n      swap1\n        /* \"demo1/26ArrayShift.sol\":262:263  1 */\n      0x01\n      swap1\n        /* \"demo1/26ArrayShift.sol\":248:263  array1.length-1 */\n      tag_15\n      jump\t// in\n    tag_14:\n        /* \"demo1/26ArrayShift.sol\":246:247  i */\n      dup2\n        /* \"demo1/26ArrayShift.sol\":246:263  i<array1.length-1 */\n      lt\n        /* \"demo1/26ArrayShift.sol\":227:320  for (uint i=index; i<array1.length-1; i++) {... */\n      iszero\n      tag_12\n      jumpi\n        /* \"demo1/26ArrayShift.sol\":297:303  array1 */\n      0x00\n        /* \"demo1/26ArrayShift.sol\":304:307  i+1 */\n      tag_16\n        /* \"demo1/26ArrayShift.sol\":304:305  i */\n      dup3\n        /* \"demo1/26ArrayShift.sol\":306:307  1 */\n      0x01\n        /* \"demo1/26ArrayShift.sol\":304:307  i+1 */\n      tag_17\n      jump\t// in\n    tag_16:\n        /* \"demo1/26ArrayShift.sol\":297:308  array1[i+1] */\n      dup2\n      sload\n      dup2\n      lt\n      tag_19\n      jumpi\n      tag_19\n      tag_20\n      jump\t// in\n    tag_19:\n      swap1\n      0x00\n      mstore\n      keccak256(0x00, 0x20)\n      add\n      sload\n        /* \"demo1/26ArrayShift.sol\":285:291  array1 */\n      0x00\n        /* \"demo1/26ArrayShift.sol\":292:293  i */\n      dup3\n        /* \"demo1/26ArrayShift.sol\":285:294  array1[i] */\n      dup2\n      sload\n      dup2\n      lt\n      tag_23\n      jumpi\n      tag_23\n      tag_20\n      jump\t// in\n    tag_23:\n      0x00\n      swap2\n      dup3\n      mstore\n      0x20\n      swap1\n      swap2\n      keccak256\n      add\n        /* \"demo1/26ArrayShift.sol\":285:308  array1[i] = array1[i+1] */\n      sstore\n        /* \"demo1/26ArrayShift.sol\":265:268  i++ */\n      0x01\n      add\n        /* \"demo1/26ArrayShift.sol\":227:320  for (uint i=index; i<array1.length-1; i++) {... */\n      jump(tag_11)\n    tag_12:\n      pop\n        /* \"demo1/26ArrayShift.sol\":330:336  array1 */\n      0x00\n        /* \"demo1/26ArrayShift.sol\":330:342  array1.pop() */\n      dup1\n      sload\n      dup1\n      tag_26\n      jumpi\n      tag_26\n      tag_27\n      jump\t// in\n    tag_26:\n      0x01\n      swap1\n      sub\n      dup2\n      dup2\n      swap1\n      0x00\n      mstore\n      keccak256(0x00, 0x20)\n      add\n      0x00\n      swap1\n      sstore\n      swap1\n      sstore\n        /* \"demo1/26ArrayShift.sol\":362:368  array1 */\n      0x00\n        /* \"demo1/26ArrayShift.sol\":369:370  0 */\n      0x00\n        /* \"demo1/26ArrayShift.sol\":362:371  array1[0] */\n      dup2\n      sload\n      dup2\n      lt\n      tag_30\n      jumpi\n      tag_30\n      tag_20\n      jump\t// in\n    tag_30:\n      swap1\n      0x00\n      mstore\n      keccak256(0x00, 0x20)\n      add\n      sload\n        /* \"demo1/26ArrayShift.sol\":373:374  2 */\n      0x02\n        /* \"demo1/26ArrayShift.sol\":362:374  array1[0]==2 */\n      eq\n        /* \"demo1/26ArrayShift.sol\":355:375  assert(array1[0]==2) */\n      tag_33\n      jumpi\n      tag_33\n      tag_34\n      jump\t// in\n    tag_33:\n        /* \"demo1/26ArrayShift.sol\":393:399  array1 */\n      0x00\n        /* \"demo1/26ArrayShift.sol\":400:401  1 */\n      0x01\n        /* \"demo1/26ArrayShift.sol\":393:402  array1[1] */\n      dup2\n      sload\n      dup2\n      lt\n      tag_36\n      jumpi\n      tag_36\n      tag_20\n      jump\t// in\n    tag_36:\n      swap1\n      0x00\n      mstore\n      keccak256(0x00, 0x20)\n      add\n      sload\n        /* \"demo1/26ArrayShift.sol\":404:405  4 */\n      0x04\n        /* \"demo1/26ArrayShift.sol\":393:405  array1[1]==4 */\n      eq\n        /* \"demo1/26ArrayShift.sol\":386:406  assert(array1[1]==4) */\n      tag_39\n      jumpi\n      tag_39\n      tag_34\n      jump\t// in\n    tag_39:\n        /* \"demo1/26ArrayShift.sol\":424:430  array1 */\n      0x00\n        /* \"demo1/26ArrayShift.sol\":424:437  array1.length */\n      sload\n        /* \"demo1/26ArrayShift.sol\":439:440  2 */\n      0x02\n        /* \"demo1/26ArrayShift.sol\":424:440  array1.length==2 */\n      eq\n        /* \"demo1/26ArrayShift.sol\":417:441  assert(array1.length==2) */\n      tag_41\n      jumpi\n      tag_41\n      tag_34\n      jump\t// in\n    tag_41:\n        /* \"demo1/26ArrayShift.sol\":142:449  function remove(uint[] memory arr,uint index) public {... */\n      pop\n      pop\n      jump\t// out\n        /* \"#utility.yul\":14:141   */\n    tag_42:\n        /* \"#utility.yul\":75:85   */\n      0x4e487b71\n        /* \"#utility.yul\":70:73   */\n      0xe0\n        /* \"#utility.yul\":66:86   */\n      shl\n        /* \"#utility.yul\":63:64   */\n      0x00\n        /* \"#utility.yul\":56:87   */\n      mstore\n        /* \"#utility.yul\":106:110   */\n      0x41\n        /* \"#utility.yul\":103:104   */\n      0x04\n        /* \"#utility.yul\":96:111   */\n      mstore\n        /* \"#utility.yul\":130:134   */\n      0x24\n        /* \"#utility.yul\":127:128   */\n      0x00\n        /* \"#utility.yul\":120:135   */\n      revert\n        /* \"#utility.yul\":146:1453   */\n    tag_6:\n        /* \"#utility.yul\":239:245   */\n      0x00\n        /* \"#utility.yul\":247:253   */\n      0x00\n        /* \"#utility.yul\":300:302   */\n      0x40\n        /* \"#utility.yul\":288:297   */\n      dup4\n        /* \"#utility.yul\":279:286   */\n      dup6\n        /* \"#utility.yul\":275:298   */\n      sub\n        /* \"#utility.yul\":271:303   */\n      slt\n        /* \"#utility.yul\":268:320   */\n      iszero\n      tag_48\n      jumpi\n        /* \"#utility.yul\":316:317   */\n      0x00\n        /* \"#utility.yul\":313:314   */\n      0x00\n        /* \"#utility.yul\":306:318   */\n      revert\n        /* \"#utility.yul\":268:320   */\n    tag_48:\n        /* \"#utility.yul\":356:365   */\n      dup3\n        /* \"#utility.yul\":343:366   */\n      calldataload\n        /* \"#utility.yul\":389:407   */\n      0xffffffffffffffff\n        /* \"#utility.yul\":381:387   */\n      dup2\n        /* \"#utility.yul\":378:408   */\n      gt\n        /* \"#utility.yul\":375:425   */\n      iszero\n      tag_49\n      jumpi\n        /* \"#utility.yul\":421:422   */\n      0x00\n        /* \"#utility.yul\":418:419   */\n      0x00\n        /* \"#utility.yul\":411:423   */\n      revert\n        /* \"#utility.yul\":375:425   */\n    tag_49:\n        /* \"#utility.yul\":444:466   */\n      dup4\n      add\n        /* \"#utility.yul\":497:501   */\n      0x1f\n        /* \"#utility.yul\":489:502   */\n      dup2\n      add\n        /* \"#utility.yul\":485:512   */\n      dup6\n      sgt\n        /* \"#utility.yul\":475:530   */\n      tag_50\n      jumpi\n        /* \"#utility.yul\":526:527   */\n      0x00\n        /* \"#utility.yul\":523:524   */\n      0x00\n        /* \"#utility.yul\":516:528   */\n      revert\n        /* \"#utility.yul\":475:530   */\n    tag_50:\n        /* \"#utility.yul\":566:568   */\n      dup1\n        /* \"#utility.yul\":553:569   */\n      calldataload\n        /* \"#utility.yul\":592:610   */\n      0xffffffffffffffff\n        /* \"#utility.yul\":584:590   */\n      dup2\n        /* \"#utility.yul\":581:611   */\n      gt\n        /* \"#utility.yul\":578:634   */\n      iszero\n      tag_52\n      jumpi\n        /* \"#utility.yul\":614:632   */\n      tag_52\n      tag_42\n      jump\t// in\n    tag_52:\n        /* \"#utility.yul\":660:666   */\n      dup1\n        /* \"#utility.yul\":657:658   */\n      0x05\n        /* \"#utility.yul\":653:667   */\n      shl\n        /* \"#utility.yul\":696:698   */\n      0x40\n        /* \"#utility.yul\":690:699   */\n      mload\n        /* \"#utility.yul\":759:761   */\n      0x1f\n        /* \"#utility.yul\":755:762   */\n      not\n        /* \"#utility.yul\":750:752   */\n      0x3f\n        /* \"#utility.yul\":746:748   */\n      dup4\n        /* \"#utility.yul\":742:753   */\n      add\n        /* \"#utility.yul\":738:763   */\n      and\n        /* \"#utility.yul\":730:736   */\n      dup2\n        /* \"#utility.yul\":726:764   */\n      add\n        /* \"#utility.yul\":830:836   */\n      dup2\n        /* \"#utility.yul\":818:828   */\n      dup2\n        /* \"#utility.yul\":815:837   */\n      lt\n        /* \"#utility.yul\":794:812   */\n      0xffffffffffffffff\n        /* \"#utility.yul\":782:792   */\n      dup3\n        /* \"#utility.yul\":779:813   */\n      gt\n        /* \"#utility.yul\":776:838   */\n      or\n        /* \"#utility.yul\":773:861   */\n      iszero\n      tag_54\n      jumpi\n        /* \"#utility.yul\":841:859   */\n      tag_54\n      tag_42\n      jump\t// in\n    tag_54:\n        /* \"#utility.yul\":877:879   */\n      0x40\n        /* \"#utility.yul\":870:892   */\n      mstore\n        /* \"#utility.yul\":927:949   */\n      swap2\n      dup3\n      mstore\n        /* \"#utility.yul\":977:981   */\n      0x20\n        /* \"#utility.yul\":1009:1020   */\n      dup2\n      dup5\n      add\n        /* \"#utility.yul\":1005:1027   */\n      dup2\n      add\n      swap3\n        /* \"#utility.yul\":927:949   */\n      swap1\n        /* \"#utility.yul\":965:982   */\n      dup2\n      add\n        /* \"#utility.yul\":1039:1058   */\n      dup9\n      dup5\n      gt\n        /* \"#utility.yul\":1036:1075   */\n      iszero\n      tag_55\n      jumpi\n        /* \"#utility.yul\":1071:1072   */\n      0x00\n        /* \"#utility.yul\":1068:1069   */\n      0x00\n        /* \"#utility.yul\":1061:1073   */\n      revert\n        /* \"#utility.yul\":1036:1075   */\n    tag_55:\n        /* \"#utility.yul\":1103:1107   */\n      0x20\n        /* \"#utility.yul\":1099:1101   */\n      dup6\n        /* \"#utility.yul\":1095:1108   */\n      add\n        /* \"#utility.yul\":1084:1108   */\n      swap5\n      pop\n        /* \"#utility.yul\":1117:1317   */\n    tag_56:\n        /* \"#utility.yul\":1133:1139   */\n      dup4\n        /* \"#utility.yul\":1128:1131   */\n      dup6\n        /* \"#utility.yul\":1125:1140   */\n      lt\n        /* \"#utility.yul\":1117:1317   */\n      iszero\n      tag_58\n      jumpi\n        /* \"#utility.yul\":1225:1242   */\n      dup5\n      calldataload\n        /* \"#utility.yul\":1255:1273   */\n      dup1\n      dup3\n      mstore\n        /* \"#utility.yul\":1302:1306   */\n      0x20\n        /* \"#utility.yul\":1150:1164   */\n      swap6\n      dup7\n      add\n      swap6\n        /* \"#utility.yul\":1225:1242   */\n      swap1\n      swap4\n      pop\n        /* \"#utility.yul\":1293:1307   */\n      add\n        /* \"#utility.yul\":1117:1317   */\n      jump(tag_56)\n    tag_58:\n      pop\n        /* \"#utility.yul\":1336:1342   */\n      swap8\n        /* \"#utility.yul\":1415:1419   */\n      0x20\n        /* \"#utility.yul\":1400:1420   */\n      swap7\n      swap1\n      swap7\n      add\n        /* \"#utility.yul\":1387:1421   */\n      calldataload\n      swap7\n      pop\n      pop\n      pop\n      pop\n      pop\n      pop\n        /* \"#utility.yul\":146:1453   */\n      jump\t// out\n        /* \"#utility.yul\":1458:1585   */\n    tag_43:\n        /* \"#utility.yul\":1519:1529   */\n      0x4e487b71\n        /* \"#utility.yul\":1514:1517   */\n      0xe0\n        /* \"#utility.yul\":1510:1530   */\n      shl\n        /* \"#utility.yul\":1507:1508   */\n      0x00\n        /* \"#utility.yul\":1500:1531   */\n      mstore\n        /* \"#utility.yul\":1550:1554   */\n      0x11\n        /* \"#utility.yul\":1547:1548   */\n      0x04\n        /* \"#utility.yul\":1540:1555   */\n      mstore\n        /* \"#utility.yul\":1574:1578   */\n      0x24\n        /* \"#utility.yul\":1571:1572   */\n      0x00\n        /* \"#utility.yul\":1564:1579   */\n      revert\n        /* \"#utility.yul\":1727:2729   */\n    tag_10:\n        /* \"#utility.yul\":1877:1880   */\n      dup2\n        /* \"#utility.yul\":1871:1881   */\n      mload\n        /* \"#utility.yul\":1904:1922   */\n      0xffffffffffffffff\n        /* \"#utility.yul\":1896:1902   */\n      dup2\n        /* \"#utility.yul\":1893:1923   */\n      gt\n        /* \"#utility.yul\":1890:1946   */\n      iszero\n      tag_63\n      jumpi\n        /* \"#utility.yul\":1926:1944   */\n      tag_63\n      tag_42\n      jump\t// in\n    tag_63:\n        /* \"#utility.yul\":1969:1989   */\n      0x010000000000000000\n        /* \"#utility.yul\":1961:1967   */\n      dup2\n        /* \"#utility.yul\":1958:1990   */\n      gt\n        /* \"#utility.yul\":1955:2013   */\n      iszero\n      tag_65\n      jumpi\n        /* \"#utility.yul\":1993:2011   */\n      tag_65\n      tag_42\n      jump\t// in\n    tag_65:\n        /* \"#utility.yul\":2042:2045   */\n      dup2\n        /* \"#utility.yul\":2036:2046   */\n      sload\n        /* \"#utility.yul\":2067:2073   */\n      dup2\n        /* \"#utility.yul\":2062:2065   */\n      dup4\n        /* \"#utility.yul\":2055:2074   */\n      sstore\n        /* \"#utility.yul\":2097:2103   */\n      dup1\n        /* \"#utility.yul\":2089:2095   */\n      dup3\n        /* \"#utility.yul\":2086:2104   */\n      lt\n        /* \"#utility.yul\":2083:2403   */\n      iszero\n      tag_66\n      jumpi\n        /* \"#utility.yul\":2137:2140   */\n      dup3\n        /* \"#utility.yul\":2134:2135   */\n      0x00\n        /* \"#utility.yul\":2127:2141   */\n      mstore\n        /* \"#utility.yul\":2197:2203   */\n      dup2\n        /* \"#utility.yul\":2190:2194   */\n      0x20\n        /* \"#utility.yul\":2187:2188   */\n      0x00\n        /* \"#utility.yul\":2177:2195   */\n      keccak256\n        /* \"#utility.yul\":2173:2204   */\n      add\n        /* \"#utility.yul\":2239:2245   */\n      dup3\n        /* \"#utility.yul\":2231:2237   */\n      dup3\n        /* \"#utility.yul\":2227:2246   */\n      sub\n        /* \"#utility.yul\":2268:2269   */\n      0x00\n        /* \"#utility.yul\":2282:2393   */\n    tag_67:\n        /* \"#utility.yul\":2296:2298   */\n      dup2\n        /* \"#utility.yul\":2293:2294   */\n      dup2\n        /* \"#utility.yul\":2290:2299   */\n      lt\n        /* \"#utility.yul\":2282:2393   */\n      iszero\n      tag_69\n      jumpi\n        /* \"#utility.yul\":2377:2378   */\n      0x00\n        /* \"#utility.yul\":2356:2375   */\n      dup4\n      dup3\n      add\n        /* \"#utility.yul\":2349:2379   */\n      sstore\n        /* \"#utility.yul\":2314:2315   */\n      0x01\n        /* \"#utility.yul\":2307:2316   */\n      add\n        /* \"#utility.yul\":2282:2393   */\n      jump(tag_67)\n    tag_69:\n        /* \"#utility.yul\":2286:2289   */\n      pop\n      pop\n      pop\n        /* \"#utility.yul\":2083:2403   */\n    tag_66:\n      pop\n        /* \"#utility.yul\":2435:2439   */\n      0x20\n        /* \"#utility.yul\":2430:2433   */\n      dup4\n        /* \"#utility.yul\":2426:2440   */\n      add\n        /* \"#utility.yul\":2464:2509   */\n      tag_70\n        /* \"#utility.yul\":2505:2508   */\n      dup4\n        /* \"#utility.yul\":1674:1675   */\n      0x00\n        /* \"#utility.yul\":1667:1681   */\n      swap1\n      dup2\n      mstore\n        /* \"#utility.yul\":1711:1715   */\n      0x20\n        /* \"#utility.yul\":1698:1716   */\n      swap1\n      keccak256\n      swap1\n        /* \"#utility.yul\":1590:1722   */\n      jump\n        /* \"#utility.yul\":2464:2509   */\n    tag_70:\n        /* \"#utility.yul\":2529:2530   */\n      0x00\n        /* \"#utility.yul\":2539:2723   */\n    tag_71:\n        /* \"#utility.yul\":2555:2561   */\n      dup4\n        /* \"#utility.yul\":2550:2553   */\n      dup2\n        /* \"#utility.yul\":2547:2562   */\n      lt\n        /* \"#utility.yul\":2539:2723   */\n      iszero\n      tag_73\n      jumpi\n        /* \"#utility.yul\":2618:2631   */\n      dup3\n      mload\n        /* \"#utility.yul\":2691:2708   */\n      dup3\n      dup3\n      add\n        /* \"#utility.yul\":2684:2713   */\n      sstore\n        /* \"#utility.yul\":2666:2670   */\n      0x20\n        /* \"#utility.yul\":2654:2671   */\n      swap1\n      swap3\n      add\n      swap2\n        /* \"#utility.yul\":2581:2582   */\n      0x01\n        /* \"#utility.yul\":2572:2583   */\n      add\n        /* \"#utility.yul\":2539:2723   */\n      jump(tag_71)\n    tag_73:\n        /* \"#utility.yul\":2543:2546   */\n      pop\n      pop\n      pop\n      pop\n        /* \"#utility.yul\":1727:2729   */\n      pop\n      pop\n      jump\t// out\n        /* \"#utility.yul\":2734:2862   */\n    tag_15:\n        /* \"#utility.yul\":2801:2810   */\n      dup2\n      dup2\n      sub\n        /* \"#utility.yul\":2822:2833   */\n      dup2\n      dup2\n      gt\n        /* \"#utility.yul\":2819:2856   */\n      iszero\n      tag_76\n      jumpi\n        /* \"#utility.yul\":2836:2854   */\n      tag_76\n      tag_43\n      jump\t// in\n    tag_76:\n        /* \"#utility.yul\":2734:2862   */\n      swap3\n      swap2\n      pop\n      pop\n      jump\t// out\n        /* \"#utility.yul\":2867:2992   */\n    tag_17:\n        /* \"#utility.yul\":2932:2941   */\n      dup1\n      dup3\n      add\n        /* \"#utility.yul\":2953:2963   */\n      dup1\n      dup3\n      gt\n        /* \"#utility.yul\":2950:2986   */\n      iszero\n      tag_76\n      jumpi\n        /* \"#utility.yul\":2966:2984   */\n      tag_76\n      tag_43\n      jump\t// in\n        /* \"#utility.yul\":2997:3124   */\n    tag_20:\n        /* \"#utility.yul\":3058:3068   */\n      0x4e487b71\n        /* \"#utility.yul\":3053:3056   */\n      0xe0\n        /* \"#utility.yul\":3049:3069   */\n      shl\n        /* \"#utility.yul\":3046:3047   */\n      0x00\n        /* \"#utility.yul\":3039:3070   */\n      mstore\n        /* \"#utility.yul\":3089:3093   */\n      0x32\n        /* \"#utility.yul\":3086:3087   */\n      0x04\n        /* \"#utility.yul\":3079:3094   */\n      mstore\n        /* \"#utility.yul\":3113:3117   */\n      0x24\n        /* \"#utility.yul\":3110:3111   */\n      0x00\n        /* \"#utility.yul\":3103:3118   */\n      revert\n        /* \"#utility.yul\":3129:3256   */\n    tag_27:\n        /* \"#utility.yul\":3190:3200   */\n      0x4e487b71\n        /* \"#utility.yul\":3185:3188   */\n      0xe0\n        /* \"#utility.yul\":3181:3201   */\n      shl\n        /* \"#utility.yul\":3178:3179   */\n      0x00\n        /* \"#utility.yul\":3171:3202   */\n      mstore\n        /* \"#utility.yul\":3221:3225   */\n      0x31\n        /* \"#utility.yul\":3218:3219   */\n      0x04\n        /* \"#utility.yul\":3211:3226   */\n      mstore\n        /* \"#utility.yul\":3245:3249   */\n      0x24\n        /* \"#utility.yul\":3242:3243   */\n      0x00\n        /* \"#utility.yul\":3235:3250   */\n      revert\n        /* \"#utility.yul\":3261:3388   */\n    tag_34:\n        /* \"#utility.yul\":3322:3332   */\n      0x4e487b71\n        /* \"#utility.yul\":3317:3320   */\n      0xe0\n        /* \"#utility.yul\":3313:3333   */\n      shl\n        /* \"#utility.yul\":3310:3311   */\n      0x00\n        /* \"#utility.yul\":3303:3334   */\n      mstore\n        /* \"#utility.yul\":3353:3357   */\n      0x01\n        /* \"#utility.yul\":3350:3351   */\n      0x04\n        /* \"#utility.yul\":3343:3358   */\n      mstore\n        /* \"#utility.yul\":3377:3381   */\n      0x24\n        /* \"#utility.yul\":3374:3375   */\n      0x00\n        /* \"#utility.yul\":3367:3382   */\n      revert\n\n    auxdata: 0xa26469706673582212206a5b98bcfa62444389b6c82a42b504935ed0f1c0d86f6f167dbe4fd899cca3fc64736f6c63430008210033\n}\n",
				"bytecode": {
					"linkReferences": {},
					"object": "60e060405260066080908152600360a081905260c052600190602090826030565b50348015602b575f5ffd5b506057565b815f5b6003811015605157815160ff16838201556020909101906001016033565b50505050565b610374806100645f395ff3fe608060405234801561000f575f5ffd5b5060043610610029575f3560e01c8063cbbdc4ac1461002d575b5f5ffd5b61004061003b366004610151565b610042565b005b5f61004d8382610235565b50805b5f5461005e906001906102d6565b8110156100af575f6100718260016102ef565b8154811061008157610081610302565b905f5260205f2001545f828154811061009c5761009c610302565b5f91825260209091200155600101610050565b505f8054806100c0576100c0610316565b600190038181905f5260205f20015f905590555f5f815481106100e5576100e5610302565b905f5260205f2001546002146100fd576100fd61032a565b5f60018154811061011057610110610302565b905f5260205f2001546004146101285761012861032a565b5f546002146101395761013961032a565b5050565b634e487b7160e01b5f52604160045260245ffd5b5f5f60408385031215610162575f5ffd5b823567ffffffffffffffff811115610178575f5ffd5b8301601f81018513610188575f5ffd5b803567ffffffffffffffff8111156101a2576101a261013d565b8060051b604051601f19603f830116810181811067ffffffffffffffff821117156101cf576101cf61013d565b6040529182526020818401810192908101888411156101ec575f5ffd5b6020850194505b8385101561020f578435808252602095860195909350016101f3565b50976020969096013596505050505050565b634e487b7160e01b5f52601160045260245ffd5b815167ffffffffffffffff81111561024f5761024f61013d565b680100000000000000008111156102685761026861013d565b81548183558082101561029c57825f528160205f20018282035f5b81811015610298575f83820155600101610283565b5050505b50602083016102b0835f9081526020902090565b5f5b838110156102ce578251828201556020909201916001016102b2565b505050505050565b818103818111156102e9576102e9610221565b92915050565b808201808211156102e9576102e9610221565b634e487b7160e01b5f52603260045260245ffd5b634e487b7160e01b5f52603160045260245ffd5b634e487b7160e01b5f52600160045260245ffdfea26469706673582212206a5b98bcfa62444389b6c82a42b504935ed0f1c0d86f6f167dbe4fd899cca3fc64736f6c63430008210033",
					"opcodes": "PUSH1 0xE0 PUSH1 0x40 MSTORE PUSH1 0x6 PUSH1 0x80 SWAP1 DUP2 MSTORE PUSH1 0x3 PUSH1 0xA0 DUP2 SWAP1 MSTORE PUSH1 0xC0 MSTORE PUSH1 0x1 SWAP1 PUSH1 0x20 SWAP1 DUP3 PUSH1 0x30 JUMP JUMPDEST POP CALLVALUE DUP1 ISZERO PUSH1 0x2B JUMPI PUSH0 PUSH0 REVERT JUMPDEST POP PUSH1 0x57 JUMP JUMPDEST DUP2 PUSH0 JUMPDEST PUSH1 0x3 DUP2 LT ISZERO PUSH1 0x51 JUMPI DUP2 MLOAD PUSH1 0xFF AND DUP4 DUP3 ADD SSTORE PUSH1 0x20 SWAP1 SWAP2 ADD SWAP1 PUSH1 0x1 ADD PUSH1 0x33 JUMP JUMPDEST POP POP POP POP JUMP JUMPDEST PUSH2 0x374 DUP1 PUSH2 0x64 PUSH0 CODECOPY PUSH0 RETURN INVALID PUSH1 0x80 PUSH1 0x40 MSTORE CALLVALUE DUP1 ISZERO PUSH2 0xF JUMPI PUSH0 PUSH0 REVERT JUMPDEST POP PUSH1 0x4 CALLDATASIZE LT PUSH2 0x29 JUMPI PUSH0 CALLDATALOAD PUSH1 0xE0 SHR DUP1 PUSH4 0xCBBDC4AC EQ PUSH2 0x2D JUMPI JUMPDEST PUSH0 PUSH0 REVERT JUMPDEST PUSH2 0x40 PUSH2 0x3B CALLDATASIZE PUSH1 0x4 PUSH2 0x151 JUMP JUMPDEST PUSH2 0x42 JUMP JUMPDEST STOP JUMPDEST PUSH0 PUSH2 0x4D DUP4 DUP3 PUSH2 0x235 JUMP JUMPDEST POP DUP1 JUMPDEST PUSH0 SLOAD PUSH2 0x5E SWAP1 PUSH1 0x1 SWAP1 PUSH2 0x2D6 JUMP JUMPDEST DUP2 LT ISZERO PUSH2 0xAF JUMPI PUSH0 PUSH2 0x71 DUP3 PUSH1 0x1 PUSH2 0x2EF JUMP JUMPDEST DUP2 SLOAD DUP2 LT PUSH2 0x81 JUMPI PUSH2 0x81 PUSH2 0x302 JUMP JUMPDEST SWAP1 PUSH0 MSTORE PUSH1 0x20 PUSH0 KECCAK256 ADD SLOAD PUSH0 DUP3 DUP2 SLOAD DUP2 LT PUSH2 0x9C JUMPI PUSH2 0x9C PUSH2 0x302 JUMP JUMPDEST PUSH0 SWAP2 DUP3 MSTORE PUSH1 0x20 SWAP1 SWAP2 KECCAK256 ADD SSTORE PUSH1 0x1 ADD PUSH2 0x50 JUMP JUMPDEST POP PUSH0 DUP1 SLOAD DUP1 PUSH2 0xC0 JUMPI PUSH2 0xC0 PUSH2 0x316 JUMP JUMPDEST PUSH1 0x1 SWAP1 SUB DUP2 DUP2 SWAP1 PUSH0 MSTORE PUSH1 0x20 PUSH0 KECCAK256 ADD PUSH0 SWAP1 SSTORE SWAP1 SSTORE PUSH0 PUSH0 DUP2 SLOAD DUP2 LT PUSH2 0xE5 JUMPI PUSH2 0xE5 PUSH2 0x302 JUMP JUMPDEST SWAP1 PUSH0 MSTORE PUSH1 0x20 PUSH0 KECCAK256 ADD SLOAD PUSH1 0x2 EQ PUSH2 0xFD JUMPI PUSH2 0xFD PUSH2 0x32A JUMP JUMPDEST PUSH0 PUSH1 0x1 DUP2 SLOAD DUP2 LT PUSH2 0x110 JUMPI PUSH2 0x110 PUSH2 0x302 JUMP JUMPDEST SWAP1 PUSH0 MSTORE PUSH1 0x20 PUSH0 KECCAK256 ADD SLOAD PUSH1 0x4 EQ PUSH2 0x128 JUMPI PUSH2 0x128 PUSH2 0x32A JUMP JUMPDEST PUSH0 SLOAD PUSH1 0x2 EQ PUSH2 0x139 JUMPI PUSH2 0x139 PUSH2 0x32A JUMP JUMPDEST POP POP JUMP JUMPDEST PUSH4 0x4E487B71 PUSH1 0xE0 SHL PUSH0 MSTORE PUSH1 0x41 PUSH1 0x4 MSTORE PUSH1 0x24 PUSH0 REVERT JUMPDEST PUSH0 PUSH0 PUSH1 0x40 DUP4 DUP6 SUB SLT ISZERO PUSH2 0x162 JUMPI PUSH0 PUSH0 REVERT JUMPDEST DUP3 CALLDATALOAD PUSH8 0xFFFFFFFFFFFFFFFF DUP2 GT ISZERO PUSH2 0x178 JUMPI PUSH0 PUSH0 REVERT JUMPDEST DUP4 ADD PUSH1 0x1F DUP2 ADD DUP6 SGT PUSH2 0x188 JUMPI PUSH0 PUSH0 REVERT JUMPDEST DUP1 CALLDATALOAD PUSH8 0xFFFFFFFFFFFFFFFF DUP2 GT ISZERO PUSH2 0x1A2 JUMPI PUSH2 0x1A2 PUSH2 0x13D JUMP JUMPDEST DUP1 PUSH1 0x5 SHL PUSH1 0x40 MLOAD PUSH1 0x1F NOT PUSH1 0x3F DUP4 ADD AND DUP2 ADD DUP2 DUP2 LT PUSH8 0xFFFFFFFFFFFFFFFF DUP3 GT OR ISZERO PUSH2 0x1CF JUMPI PUSH2 0x1CF PUSH2 0x13D JUMP JUMPDEST PUSH1 0x40 MSTORE SWAP2 DUP3 MSTORE PUSH1 0x20 DUP2 DUP5 ADD DUP2 ADD SWAP3 SWAP1 DUP2 ADD DUP9 DUP5 GT ISZERO PUSH2 0x1EC JUMPI PUSH0 PUSH0 REVERT JUMPDEST PUSH1 0x20 DUP6 ADD SWAP5 POP JUMPDEST DUP4 DUP6 LT ISZERO PUSH2 0x20F JUMPI DUP5 CALLDATALOAD DUP1 DUP3 MSTORE PUSH1 0x20 SWAP6 DUP7 ADD SWAP6 SWAP1 SWAP4 POP ADD PUSH2 0x1F3 JUMP JUMPDEST POP SWAP8 PUSH1 0x20 SWAP7 SWAP1 SWAP7 ADD CALLDATALOAD SWAP7 POP POP POP POP POP POP JUMP JUMPDEST PUSH4 0x4E487B71 PUSH1 0xE0 SHL PUSH0 MSTORE PUSH1 0x11 PUSH1 0x4 MSTORE PUSH1 0x24 PUSH0 REVERT JUMPDEST DUP2 MLOAD PUSH8 0xFFFFFFFFFFFFFFFF DUP2 GT ISZERO PUSH2 0x24F JUMPI PUSH2 0x24F PUSH2 0x13D JUMP JUMPDEST PUSH9 0x10000000000000000 DUP2 GT ISZERO PUSH2 0x268 JUMPI PUSH2 0x268 PUSH2 0x13D JUMP JUMPDEST DUP2 SLOAD DUP2 DUP4 SSTORE DUP1 DUP3 LT ISZERO PUSH2 0x29C JUMPI DUP3 PUSH0 MSTORE DUP2 PUSH1 0x20 PUSH0 KECCAK256 ADD DUP3 DUP3 SUB PUSH0 JUMPDEST DUP2 DUP2 LT ISZERO PUSH2 0x298 JUMPI PUSH0 DUP4 DUP3 ADD SSTORE PUSH1 0x1 ADD PUSH2 0x283 JUMP JUMPDEST POP POP POP JUMPDEST POP PUSH1 0x20 DUP4 ADD PUSH2 0x2B0 DUP4 PUSH0 SWAP1 DUP2 MSTORE PUSH1 0x20 SWAP1 KECCAK256 SWAP1 JUMP JUMPDEST PUSH0 JUMPDEST DUP4 DUP2 LT ISZERO PUSH2 0x2CE JUMPI DUP3 MLOAD DUP3 DUP3 ADD SSTORE PUSH1 0x20 SWAP1 SWAP3 ADD SWAP2 PUSH1 0x1 ADD PUSH2 0x2B2 JUMP JUMPDEST POP POP POP POP POP POP JUMP JUMPDEST DUP2 DUP2 SUB DUP2 DUP2 GT ISZERO PUSH2 0x2E9 JUMPI PUSH2 0x2E9 PUSH2 0x221 JUMP JUMPDEST SWAP3 SWAP2 POP POP JUMP JUMPDEST DUP1 DUP3 ADD DUP1 DUP3 GT ISZERO PUSH2 0x2E9 JUMPI PUSH2 0x2E9 PUSH2 0x221 JUMP JUMPDEST PUSH4 0x4E487B71 PUSH1 0xE0 SHL PUSH0 MSTORE PUSH1 0x32 PUSH1 0x4 MSTORE PUSH1 0x24 PUSH0 REVERT JUMPDEST PUSH4 0x4E487B71 PUSH1 0xE0 SHL PUSH0 MSTORE PUSH1 0x31 PUSH1 0x4 MSTORE PUSH1 0x24 PUSH0 REVERT JUMPDEST PUSH4 0x4E487B71 PUSH1 0xE0 SHL PUSH0 MSTORE PUSH1 0x1 PUSH1 0x4 MSTORE PUSH1 0x24 PUSH0 REVERT INVALID LOG2 PUSH5 0x6970667358 0x22 SLT KECCAK256 PUSH11 0x5B98BCFA62444389B6C82A TIMESTAMP 0xB5 DIV SWAP4 MCOPY 0xD0 CALL 0xC0 0xD8 PUSH16 0x6F167DBE4FD899CCA3FC64736F6C6343 STOP ADDMOD 0x21 STOP CALLER "
				},
				"gasEstimates": {
					"creation": {
						"codeDepositCost": "176800",
						"executionCost": "infinite",
						"totalCost": "infinite"
					},
					"external": {
						"remove(uint256[],uint256)": "infinite"
					}
				},
				"methodIdentifiers": {
					"remove(uint256[],uint256)": "cbbdc4ac"
				}
			},
			"storageLayout": {
				"storage": [
					{
						"astId": 4,
						"contract": "demo1/26ArrayShift.sol:ArrayShift",
						"label": "array1",
						"offset": 0,
						"slot": "0",
						"type": "t_array(t_uint256)dyn_storage"
					},
					{
						"astId": 12,
						"contract": "demo1/26ArrayShift.sol:ArrayShift",
						"label": "array2",
						"offset": 0,
						"slot": "1",
						"type": "t_array(t_uint256)3_storage"
					}
				],
				"types": {
					"t_array(t_uint256)3_storage": {
						"base": "t_uint256",
						"encoding": "inplace",
						"label": "uint256[3]",
						"numberOfBytes": "96"
					},
					"t_array(t_uint256)dyn_storage": {
						"base": "t_uint256",
						"encoding": "dynamic_array",
						"label": "uint256[]",
						"numberOfBytes": "32"
					},
					"t_uint256": {
						"encoding": "inplace",
						"label": "uint256",
						"numberOfBytes": "32"
					}
				}
			},
			"userdoc": {
				"kind": "user",
				"methods": {},
				"version": 1
			}
		}
	}
}