{
	"demo1/ViewAndPureFunction.sol": {
		"ViewAndPureFunction": {
			"abi": [
				{
					"inputs": [],
					"name": "num",
					"outputs": [
						{
							"internalType": "uint256",
							"name": "",
							"type": "uint256"
						}
					],
					"stateMutability": "view",
					"type": "function"
				},
				{
					"inputs": [],
					"name": "pureFun",
					"outputs": [
						{
							"internalType": "uint256",
							"name": "",
							"type": "uint256"
						}
					],
					"stateMutability": "pure",
					"type": "function"
				},
				{
					"inputs": [
						{
							"internalType": "uint256",
							"name": "x",
							"type": "uint256"
						}
					],
					"name": "pureFun2",
					"outputs": [
						{
							"internalType": "uint256",
							"name": "",
							"type": "uint256"
						}
					],
					"stateMutability": "pure",
					"type": "function"
				},
				{
					"inputs": [],
					"name": "viewFun",
					"outputs": [
						{
							"internalType": "uint256",
							"name": "",
							"type": "uint256"
						}
					],
					"stateMutability": "view",
					"type": "function"
				}
			],
			"devdoc": {
				"kind": "dev",
				"methods": {},
				"version": 1
			},
			"evm": {
				"assembly": "    /* \"demo1/ViewAndPureFunction.sol\":61:382  contract ViewAndPureFunction {... */\n  mstore(0x40, 0x80)\n    /* \"demo1/ViewAndPureFunction.sol\":113:116  123 */\n  0x7b\n    /* \"demo1/ViewAndPureFunction.sol\":97:116  uint public num=123 */\n  0x00\n  sstore\n    /* \"demo1/ViewAndPureFunction.sol\":61:382  contract ViewAndPureFunction {... */\n  callvalue\n  dup1\n  iszero\n  tag_1\n  jumpi\n  revert(0x00, 0x00)\ntag_1:\n  pop\n  dataSize(sub_0)\n  dup1\n  dataOffset(sub_0)\n  0x00\n  codecopy\n  0x00\n  return\nstop\n\nsub_0: assembly {\n        /* \"demo1/ViewAndPureFunction.sol\":61:382  contract ViewAndPureFunction {... */\n      mstore(0x40, 0x80)\n      callvalue\n      dup1\n      iszero\n      tag_1\n      jumpi\n      revert(0x00, 0x00)\n    tag_1:\n      pop\n      jumpi(tag_2, lt(calldatasize, 0x04))\n      shr(0xe0, calldataload(0x00))\n      dup1\n      0x1d7aea13\n      eq\n      tag_3\n      jumpi\n      dup1\n      0x3d3fee0c\n      eq\n      tag_4\n      jumpi\n      dup1\n      0x4e70b1dc\n      eq\n      tag_5\n      jumpi\n      dup1\n      0x733a132e\n      eq\n      tag_6\n      jumpi\n    tag_2:\n      revert(0x00, 0x00)\n        /* \"demo1/ViewAndPureFunction.sol\":295:379  function pureFun2(uint x) external pure returns (uint) {... */\n    tag_3:\n      tag_7\n      tag_8\n      calldatasize\n      0x04\n      tag_9\n      jump\t// in\n    tag_8:\n        /* \"demo1/ViewAndPureFunction.sol\":370:371  x */\n      swap1\n        /* \"demo1/ViewAndPureFunction.sol\":295:379  function pureFun2(uint x) external pure returns (uint) {... */\n      jump\n    tag_7:\n      mload(0x40)\n        /* \"#utility.yul\":345:370   */\n      swap1\n      dup2\n      mstore\n        /* \"#utility.yul\":333:335   */\n      0x20\n        /* \"#utility.yul\":318:336   */\n      add\n        /* \"demo1/ViewAndPureFunction.sol\":295:379  function pureFun2(uint x) external pure returns (uint) {... */\n      mload(0x40)\n      dup1\n      swap2\n      sub\n      swap1\n      return\n        /* \"demo1/ViewAndPureFunction.sol\":123:202  function viewFun() external view returns (uint) {... */\n    tag_4:\n        /* \"demo1/ViewAndPureFunction.sol\":165:169  uint */\n      0x00\n        /* \"demo1/ViewAndPureFunction.sol\":191:194  num */\n      sload\n        /* \"demo1/ViewAndPureFunction.sol\":123:202  function viewFun() external view returns (uint) {... */\n      jump(tag_7)\n        /* \"demo1/ViewAndPureFunction.sol\":97:116  uint public num=123 */\n    tag_5:\n      tag_7\n      sload(0x00)\n      dup2\n      jump\n        /* \"demo1/ViewAndPureFunction.sol\":210:287  function pureFun() external pure returns (uint) {... */\n    tag_6:\n        /* \"demo1/ViewAndPureFunction.sol\":278:279  1 */\n      0x01\n        /* \"demo1/ViewAndPureFunction.sol\":210:287  function pureFun() external pure returns (uint) {... */\n      jump(tag_7)\n        /* \"#utility.yul\":14:194   */\n    tag_9:\n        /* \"#utility.yul\":73:79   */\n      0x00\n        /* \"#utility.yul\":126:128   */\n      0x20\n        /* \"#utility.yul\":114:123   */\n      dup3\n        /* \"#utility.yul\":105:112   */\n      dup5\n        /* \"#utility.yul\":101:124   */\n      sub\n        /* \"#utility.yul\":97:129   */\n      slt\n        /* \"#utility.yul\":94:146   */\n      iszero\n      tag_27\n      jumpi\n        /* \"#utility.yul\":142:143   */\n      0x00\n        /* \"#utility.yul\":139:140   */\n      0x00\n        /* \"#utility.yul\":132:144   */\n      revert\n        /* \"#utility.yul\":94:146   */\n    tag_27:\n      pop\n        /* \"#utility.yul\":165:188   */\n      calldataload\n      swap2\n        /* \"#utility.yul\":14:194   */\n      swap1\n      pop\n      jump\t// out\n\n    auxdata: 0xa264697066735822122041deb6fae233cc44c13d0855b0ec4913de8cabd07ca701014b10c2f586680b4f64736f6c63430008210033\n}\n",
				"bytecode": {
					"linkReferences": {},
					"object": "6080604052607b5f553480156012575f5ffd5b5060c780601e5f395ff3fe6080604052348015600e575f5ffd5b50600436106044575f3560e01c80631d7aea131460485780633d3fee0c1460685780634e70b1dc14606e578063733a132e146075575b5f5ffd5b60566053366004607b565b90565b60405190815260200160405180910390f35b5f546056565b60565f5481565b60016056565b5f60208284031215608a575f5ffd5b503591905056fea264697066735822122041deb6fae233cc44c13d0855b0ec4913de8cabd07ca701014b10c2f586680b4f64736f6c63430008210033",
					"opcodes": "PUSH1 0x80 PUSH1 0x40 MSTORE PUSH1 0x7B PUSH0 SSTORE CALLVALUE DUP1 ISZERO PUSH1 0x12 JUMPI PUSH0 PUSH0 REVERT JUMPDEST POP PUSH1 0xC7 DUP1 PUSH1 0x1E PUSH0 CODECOPY PUSH0 RETURN INVALID PUSH1 0x80 PUSH1 0x40 MSTORE CALLVALUE DUP1 ISZERO PUSH1 0xE JUMPI PUSH0 PUSH0 REVERT JUMPDEST POP PUSH1 0x4 CALLDATASIZE LT PUSH1 0x44 JUMPI PUSH0 CALLDATALOAD PUSH1 0xE0 SHR DUP1 PUSH4 0x1D7AEA13 EQ PUSH1 0x48 JUMPI DUP1 PUSH4 0x3D3FEE0C EQ PUSH1 0x68 JUMPI DUP1 PUSH4 0x4E70B1DC EQ PUSH1 0x6E JUMPI DUP1 PUSH4 0x733A132E EQ PUSH1 0x75 JUMPI JUMPDEST PUSH0 PUSH0 REVERT JUMPDEST PUSH1 0x56 PUSH1 0x53 CALLDATASIZE PUSH1 0x4 PUSH1 0x7B JUMP JUMPDEST SWAP1 JUMP JUMPDEST PUSH1 0x40 MLOAD SWAP1 DUP2 MSTORE PUSH1 0x20 ADD PUSH1 0x40 MLOAD DUP1 SWAP2 SUB SWAP1 RETURN JUMPDEST PUSH0 SLOAD PUSH1 0x56 JUMP JUMPDEST PUSH1 0x56 PUSH0 SLOAD DUP2 JUMP JUMPDEST PUSH1 0x1 PUSH1 0x56 JUMP JUMPDEST PUSH0 PUSH1 0x20 DUP3 DUP5 SUB SLT ISZERO PUSH1 0x8A JUMPI PUSH0 PUSH0 REVERT JUMPDEST POP CALLDATALOAD SWAP2 SWAP1 POP JUMP INVALID LOG2 PUSH5 0x6970667358 0x22 SLT KECCAK256 COINBASE 0xDE 0xB6 STATICCALL 0xE2 CALLER 0xCC PREVRANDAO 0xC1 RETURNDATASIZE ADDMOD SSTORE 0xB0 EOFCREATE 0x49 SGT 0xDE DUP13 0xAB 0xD0 PUSH29 0xA701014B10C2F586680B4F64736F6C6343000821003300000000000000 "
				},
				"gasEstimates": {
					"creation": {
						"codeDepositCost": "39800",
						"executionCost": "22196",
						"totalCost": "61996"
					},
					"external": {
						"num()": "2303",
						"pureFun()": "223",
						"pureFun2(uint256)": "233",
						"viewFun()": "2278"
					}
				},
				"methodIdentifiers": {
					"num()": "4e70b1dc",
					"pureFun()": "733a132e",
					"pureFun2(uint256)": "1d7aea13",
					"viewFun()": "3d3fee0c"
				}
			},
			"storageLayout": {
				"storage": [
					{
						"astId": 4,
						"contract": "demo1/ViewAndPureFunction.sol:ViewAndPureFunction",
						"label": "num",
						"offset": 0,
						"slot": "0",
						"type": "t_uint256"
					}
				],
				"types": {
					"t_uint256": {
						"encoding": "inplace",
						"label": "uint256",
						"numberOfBytes": "32"
					}
				}
			},
			"userdoc": {
				"kind": "user",
				"methods": {},
				"version": 1
			}
		}
	}
}