{
	"demo1/32SimpleStorage.sol": {
		"SimpleStorage": {
			"abi": [
				{
					"inputs": [],
					"name": "getTex",
					"outputs": [
						{
							"internalType": "string",
							"name": "txt",
							"type": "string"
						}
					],
					"stateMutability": "view",
					"type": "function"
				},
				{
					"inputs": [
						{
							"internalType": "string",
							"name": "_tex",
							"type": "string"
						}
					],
					"name": "setTex",
					"outputs": [],
					"stateMutability": "nonpayable",
					"type": "function"
				},
				{
					"inputs": [],
					"name": "text",
					"outputs": [
						{
							"internalType": "string",
							"name": "",
							"type": "string"
						}
					],
					"stateMutability": "view",
					"type": "function"
				}
			],
			"devdoc": {
				"kind": "dev",
				"methods": {},
				"version": 1
			},
			"evm": {
				"assembly": "    /* \"demo1/32SimpleStorage.sol\":60:296  contract SimpleStorage {... */\n  mstore(0x40, 0x80)\n  callvalue\n  dup1\n  iszero\n  tag_1\n  jumpi\n  revert(0x00, 0x00)\ntag_1:\n  pop\n  dataSize(sub_0)\n  dup1\n  dataOffset(sub_0)\n  0x00\n  codecopy\n  0x00\n  return\nstop\n\nsub_0: assembly {\n        /* \"demo1/32SimpleStorage.sol\":60:296  contract SimpleStorage {... */\n      mstore(0x40, 0x80)\n      callvalue\n      dup1\n      iszero\n      tag_1\n      jumpi\n      revert(0x00, 0x00)\n    tag_1:\n      pop\n      jumpi(tag_2, lt(calldatasize, 0x04))\n      shr(0xe0, calldataload(0x00))\n      dup1\n      0x1f1bd692\n      eq\n      tag_3\n      jumpi\n      dup1\n      0x23595f7a\n      eq\n      tag_4\n      jumpi\n      dup1\n      0x6700435e\n      eq\n      tag_5\n      jumpi\n    tag_2:\n      revert(0x00, 0x00)\n        /* \"demo1/32SimpleStorage.sol\":90:108  string public text */\n    tag_3:\n      tag_6\n      tag_7\n      jump\t// in\n    tag_6:\n      mload(0x40)\n      tag_8\n      swap2\n      swap1\n      tag_9\n      jump\t// in\n    tag_8:\n      mload(0x40)\n      dup1\n      swap2\n      sub\n      swap1\n      return\n        /* \"demo1/32SimpleStorage.sol\":204:293  function getTex() external view returns (string memory txt){... */\n    tag_4:\n      tag_6\n      tag_11\n      jump\t// in\n        /* \"demo1/32SimpleStorage.sol\":117:192  function setTex(string calldata _tex) external {... */\n    tag_5:\n      tag_13\n      tag_14\n      calldatasize\n      0x04\n      tag_15\n      jump\t// in\n    tag_14:\n      tag_16\n      jump\t// in\n    tag_13:\n      stop\n        /* \"demo1/32SimpleStorage.sol\":90:108  string public text */\n    tag_7:\n      0x00\n      dup1\n      sload\n      tag_17\n      swap1\n      tag_18\n      jump\t// in\n    tag_17:\n      dup1\n      0x1f\n      add\n      0x20\n      dup1\n      swap2\n      div\n      mul\n      0x20\n      add\n      mload(0x40)\n      swap1\n      dup2\n      add\n      0x40\n      mstore\n      dup1\n      swap3\n      swap2\n      swap1\n      dup2\n      dup2\n      mstore\n      0x20\n      add\n      dup3\n      dup1\n      sload\n      tag_19\n      swap1\n      tag_18\n      jump\t// in\n    tag_19:\n      dup1\n      iszero\n      tag_20\n      jumpi\n      dup1\n      0x1f\n      lt\n      tag_21\n      jumpi\n      0x0100\n      dup1\n      dup4\n      sload\n      div\n      mul\n      dup4\n      mstore\n      swap2\n      0x20\n      add\n      swap2\n      jump(tag_20)\n    tag_21:\n      dup3\n      add\n      swap2\n      swap1\n      0x00\n      mstore\n      keccak256(0x00, 0x20)\n      swap1\n    tag_22:\n      dup2\n      sload\n      dup2\n      mstore\n      swap1\n      0x01\n      add\n      swap1\n      0x20\n      add\n      dup1\n      dup4\n      gt\n      tag_22\n      jumpi\n      dup3\n      swap1\n      sub\n      0x1f\n      and\n      dup3\n      add\n      swap2\n    tag_20:\n      pop\n      pop\n      pop\n      pop\n      pop\n      dup2\n      jump\t// out\n        /* \"demo1/32SimpleStorage.sol\":204:293  function getTex() external view returns (string memory txt){... */\n    tag_11:\n        /* \"demo1/32SimpleStorage.sol\":245:262  string memory txt */\n      0x60\n        /* \"demo1/32SimpleStorage.sol\":281:285  text */\n      0x00\n        /* \"demo1/32SimpleStorage.sol\":274:285  return text */\n      dup1\n      sload\n      tag_24\n      swap1\n      tag_18\n      jump\t// in\n    tag_24:\n      dup1\n      0x1f\n      add\n      0x20\n      dup1\n      swap2\n      div\n      mul\n      0x20\n      add\n      mload(0x40)\n      swap1\n      dup2\n      add\n      0x40\n      mstore\n      dup1\n      swap3\n      swap2\n      swap1\n      dup2\n      dup2\n      mstore\n      0x20\n      add\n      dup3\n      dup1\n      sload\n      tag_25\n      swap1\n      tag_18\n      jump\t// in\n    tag_25:\n      dup1\n      iszero\n      tag_26\n      jumpi\n      dup1\n      0x1f\n      lt\n      tag_27\n      jumpi\n      0x0100\n      dup1\n      dup4\n      sload\n      div\n      mul\n      dup4\n      mstore\n      swap2\n      0x20\n      add\n      swap2\n      jump(tag_26)\n    tag_27:\n      dup3\n      add\n      swap2\n      swap1\n      0x00\n      mstore\n      keccak256(0x00, 0x20)\n      swap1\n    tag_28:\n      dup2\n      sload\n      dup2\n      mstore\n      swap1\n      0x01\n      add\n      swap1\n      0x20\n      add\n      dup1\n      dup4\n      gt\n      tag_28\n      jumpi\n      dup3\n      swap1\n      sub\n      0x1f\n      and\n      dup3\n      add\n      swap2\n    tag_26:\n      pop\n      pop\n      pop\n      pop\n      pop\n      swap1\n      pop\n        /* \"demo1/32SimpleStorage.sol\":204:293  function getTex() external view returns (string memory txt){... */\n      swap1\n      jump\t// out\n        /* \"demo1/32SimpleStorage.sol\":117:192  function setTex(string calldata _tex) external {... */\n    tag_16:\n        /* \"demo1/32SimpleStorage.sol\":175:179  text */\n      0x00\n        /* \"demo1/32SimpleStorage.sol\":175:184  text=_tex */\n      tag_30\n        /* \"demo1/32SimpleStorage.sol\":180:184  _tex */\n      dup3\n      dup5\n        /* \"demo1/32SimpleStorage.sol\":175:179  text */\n      dup4\n        /* \"demo1/32SimpleStorage.sol\":175:184  text=_tex */\n      tag_31\n      jump\t// in\n    tag_30:\n      pop\n        /* \"demo1/32SimpleStorage.sol\":117:192  function setTex(string calldata _tex) external {... */\n      pop\n      pop\n      jump\t// out\n        /* \"#utility.yul\":14:432   */\n    tag_9:\n        /* \"#utility.yul\":163:165   */\n      0x20\n        /* \"#utility.yul\":152:161   */\n      dup2\n        /* \"#utility.yul\":145:166   */\n      mstore\n        /* \"#utility.yul\":126:130   */\n      0x00\n        /* \"#utility.yul\":195:201   */\n      dup3\n        /* \"#utility.yul\":189:202   */\n      mload\n        /* \"#utility.yul\":238:244   */\n      dup1\n        /* \"#utility.yul\":233:235   */\n      0x20\n        /* \"#utility.yul\":222:231   */\n      dup5\n        /* \"#utility.yul\":218:236   */\n      add\n        /* \"#utility.yul\":211:245   */\n      mstore\n        /* \"#utility.yul\":297:303   */\n      dup1\n        /* \"#utility.yul\":292:294   */\n      0x20\n        /* \"#utility.yul\":284:290   */\n      dup6\n        /* \"#utility.yul\":280:295   */\n      add\n        /* \"#utility.yul\":275:277   */\n      0x40\n        /* \"#utility.yul\":264:273   */\n      dup6\n        /* \"#utility.yul\":260:278   */\n      add\n        /* \"#utility.yul\":254:304   */\n      mcopy\n        /* \"#utility.yul\":353:354   */\n      0x00\n        /* \"#utility.yul\":348:350   */\n      0x40\n        /* \"#utility.yul\":339:345   */\n      dup3\n        /* \"#utility.yul\":328:337   */\n      dup6\n        /* \"#utility.yul\":324:346   */\n      add\n        /* \"#utility.yul\":320:351   */\n      add\n        /* \"#utility.yul\":313:355   */\n      mstore\n        /* \"#utility.yul\":423:425   */\n      0x40\n        /* \"#utility.yul\":416:418   */\n      0x1f\n        /* \"#utility.yul\":412:419   */\n      not\n        /* \"#utility.yul\":407:409   */\n      0x1f\n        /* \"#utility.yul\":399:405   */\n      dup4\n        /* \"#utility.yul\":395:410   */\n      add\n        /* \"#utility.yul\":391:420   */\n      and\n        /* \"#utility.yul\":380:389   */\n      dup5\n        /* \"#utility.yul\":376:421   */\n      add\n        /* \"#utility.yul\":372:426   */\n      add\n        /* \"#utility.yul\":364:426   */\n      swap2\n      pop\n      pop\n        /* \"#utility.yul\":14:432   */\n      swap3\n      swap2\n      pop\n      pop\n      jump\t// out\n        /* \"#utility.yul\":437:1024   */\n    tag_15:\n        /* \"#utility.yul\":508:514   */\n      0x00\n        /* \"#utility.yul\":516:522   */\n      0x00\n        /* \"#utility.yul\":569:571   */\n      0x20\n        /* \"#utility.yul\":557:566   */\n      dup4\n        /* \"#utility.yul\":548:555   */\n      dup6\n        /* \"#utility.yul\":544:567   */\n      sub\n        /* \"#utility.yul\":540:572   */\n      slt\n        /* \"#utility.yul\":537:589   */\n      iszero\n      tag_39\n      jumpi\n        /* \"#utility.yul\":585:586   */\n      0x00\n        /* \"#utility.yul\":582:583   */\n      0x00\n        /* \"#utility.yul\":575:587   */\n      revert\n        /* \"#utility.yul\":537:589   */\n    tag_39:\n        /* \"#utility.yul\":625:634   */\n      dup3\n        /* \"#utility.yul\":612:635   */\n      calldataload\n        /* \"#utility.yul\":658:676   */\n      0xffffffffffffffff\n        /* \"#utility.yul\":650:656   */\n      dup2\n        /* \"#utility.yul\":647:677   */\n      gt\n        /* \"#utility.yul\":644:694   */\n      iszero\n      tag_40\n      jumpi\n        /* \"#utility.yul\":690:691   */\n      0x00\n        /* \"#utility.yul\":687:688   */\n      0x00\n        /* \"#utility.yul\":680:692   */\n      revert\n        /* \"#utility.yul\":644:694   */\n    tag_40:\n        /* \"#utility.yul\":713:735   */\n      dup4\n      add\n        /* \"#utility.yul\":766:770   */\n      0x1f\n        /* \"#utility.yul\":758:771   */\n      dup2\n      add\n        /* \"#utility.yul\":754:781   */\n      dup6\n      sgt\n        /* \"#utility.yul\":744:799   */\n      tag_41\n      jumpi\n        /* \"#utility.yul\":795:796   */\n      0x00\n        /* \"#utility.yul\":792:793   */\n      0x00\n        /* \"#utility.yul\":785:797   */\n      revert\n        /* \"#utility.yul\":744:799   */\n    tag_41:\n        /* \"#utility.yul\":835:837   */\n      dup1\n        /* \"#utility.yul\":822:838   */\n      calldataload\n        /* \"#utility.yul\":861:879   */\n      0xffffffffffffffff\n        /* \"#utility.yul\":853:859   */\n      dup2\n        /* \"#utility.yul\":850:880   */\n      gt\n        /* \"#utility.yul\":847:897   */\n      iszero\n      tag_42\n      jumpi\n        /* \"#utility.yul\":893:894   */\n      0x00\n        /* \"#utility.yul\":890:891   */\n      0x00\n        /* \"#utility.yul\":883:895   */\n      revert\n        /* \"#utility.yul\":847:897   */\n    tag_42:\n        /* \"#utility.yul\":938:945   */\n      dup6\n        /* \"#utility.yul\":933:935   */\n      0x20\n        /* \"#utility.yul\":924:930   */\n      dup3\n        /* \"#utility.yul\":920:922   */\n      dup5\n        /* \"#utility.yul\":916:931   */\n      add\n        /* \"#utility.yul\":912:936   */\n      add\n        /* \"#utility.yul\":909:946   */\n      gt\n        /* \"#utility.yul\":906:963   */\n      iszero\n      tag_43\n      jumpi\n        /* \"#utility.yul\":959:960   */\n      0x00\n        /* \"#utility.yul\":956:957   */\n      0x00\n        /* \"#utility.yul\":949:961   */\n      revert\n        /* \"#utility.yul\":906:963   */\n    tag_43:\n        /* \"#utility.yul\":990:992   */\n      0x20\n        /* \"#utility.yul\":982:993   */\n      swap2\n      swap1\n      swap2\n      add\n      swap6\n        /* \"#utility.yul\":1012:1018   */\n      swap1\n      swap5\n      pop\n        /* \"#utility.yul\":437:1024   */\n      swap3\n      pop\n      pop\n      pop\n      jump\t// out\n        /* \"#utility.yul\":1029:1409   */\n    tag_18:\n        /* \"#utility.yul\":1108:1109   */\n      0x01\n        /* \"#utility.yul\":1104:1116   */\n      dup2\n      dup2\n      shr\n      swap1\n        /* \"#utility.yul\":1151:1163   */\n      dup3\n      and\n      dup1\n        /* \"#utility.yul\":1172:1233   */\n      tag_45\n      jumpi\n        /* \"#utility.yul\":1226:1230   */\n      0x7f\n        /* \"#utility.yul\":1218:1224   */\n      dup3\n        /* \"#utility.yul\":1214:1231   */\n      and\n        /* \"#utility.yul\":1204:1231   */\n      swap2\n      pop\n        /* \"#utility.yul\":1172:1233   */\n    tag_45:\n        /* \"#utility.yul\":1279:1281   */\n      0x20\n        /* \"#utility.yul\":1271:1277   */\n      dup3\n        /* \"#utility.yul\":1268:1282   */\n      lt\n        /* \"#utility.yul\":1248:1266   */\n      dup2\n        /* \"#utility.yul\":1245:1283   */\n      sub\n        /* \"#utility.yul\":1242:1403   */\n      tag_46\n      jumpi\n        /* \"#utility.yul\":1325:1335   */\n      0x4e487b71\n        /* \"#utility.yul\":1320:1323   */\n      0xe0\n        /* \"#utility.yul\":1316:1336   */\n      shl\n        /* \"#utility.yul\":1313:1314   */\n      0x00\n        /* \"#utility.yul\":1306:1337   */\n      mstore\n        /* \"#utility.yul\":1360:1364   */\n      0x22\n        /* \"#utility.yul\":1357:1358   */\n      0x04\n        /* \"#utility.yul\":1350:1365   */\n      mstore\n        /* \"#utility.yul\":1388:1392   */\n      0x24\n        /* \"#utility.yul\":1385:1386   */\n      0x00\n        /* \"#utility.yul\":1378:1393   */\n      revert\n        /* \"#utility.yul\":1242:1403   */\n    tag_46:\n      pop\n        /* \"#utility.yul\":1029:1409   */\n      swap2\n      swap1\n      pop\n      jump\t// out\n        /* \"#utility.yul\":1414:1541   */\n    tag_32:\n        /* \"#utility.yul\":1475:1485   */\n      0x4e487b71\n        /* \"#utility.yul\":1470:1473   */\n      0xe0\n        /* \"#utility.yul\":1466:1486   */\n      shl\n        /* \"#utility.yul\":1463:1464   */\n      0x00\n        /* \"#utility.yul\":1456:1487   */\n      mstore\n        /* \"#utility.yul\":1506:1510   */\n      0x41\n        /* \"#utility.yul\":1503:1504   */\n      0x04\n        /* \"#utility.yul\":1496:1511   */\n      mstore\n        /* \"#utility.yul\":1530:1534   */\n      0x24\n        /* \"#utility.yul\":1527:1528   */\n      0x00\n        /* \"#utility.yul\":1520:1535   */\n      revert\n        /* \"#utility.yul\":1672:2364   */\n    tag_34:\n        /* \"#utility.yul\":1774:1776   */\n      0x1f\n        /* \"#utility.yul\":1769:1772   */\n      dup3\n        /* \"#utility.yul\":1766:1777   */\n      gt\n        /* \"#utility.yul\":1763:2358   */\n      iszero\n      tag_30\n      jumpi\n        /* \"#utility.yul\":1811:1821   */\n      dup3\n        /* \"#utility.yul\":1806:1809   */\n      dup3\n        /* \"#utility.yul\":1803:1822   */\n      gt\n        /* \"#utility.yul\":1800:2348   */\n      iszero\n      tag_30\n      jumpi\n        /* \"#utility.yul\":1863:1868   */\n      dup1\n        /* \"#utility.yul\":1860:1861   */\n      0x00\n        /* \"#utility.yul\":1853:1869   */\n      mstore\n        /* \"#utility.yul\":1911:1915   */\n      0x20\n        /* \"#utility.yul\":1908:1909   */\n      0x00\n        /* \"#utility.yul\":1898:1916   */\n      keccak256\n        /* \"#utility.yul\":1976:1978   */\n      0x1f\n        /* \"#utility.yul\":1964:1974   */\n      dup5\n        /* \"#utility.yul\":1960:1979   */\n      add\n        /* \"#utility.yul\":1957:1958   */\n      0x05\n        /* \"#utility.yul\":1953:1980   */\n      shr\n        /* \"#utility.yul\":2015:2019   */\n      0x20\n        /* \"#utility.yul\":2003:2013   */\n      dup6\n        /* \"#utility.yul\":2000:2020   */\n      lt\n        /* \"#utility.yul\":1997:2042   */\n      iszero\n      tag_52\n      jumpi\n      pop\n        /* \"#utility.yul\":2039:2040   */\n      0x00\n        /* \"#utility.yul\":1997:2042   */\n    tag_52:\n        /* \"#utility.yul\":2078:2101   */\n      swap1\n      dup2\n      add\n      swap1\n        /* \"#utility.yul\":2148:2150   */\n      0x1f\n        /* \"#utility.yul\":2139:2151   */\n      dup5\n      add\n        /* \"#utility.yul\":2136:2137   */\n      0x05\n        /* \"#utility.yul\":2132:2152   */\n      shr\n        /* \"#utility.yul\":2128:2167   */\n      sub\n        /* \"#utility.yul\":2193:2194   */\n      0x00\n        /* \"#utility.yul\":2211:2334   */\n    tag_53:\n        /* \"#utility.yul\":2225:2227   */\n      dup2\n        /* \"#utility.yul\":2222:2223   */\n      dup2\n        /* \"#utility.yul\":2219:2228   */\n      lt\n        /* \"#utility.yul\":2211:2334   */\n      iszero\n      tag_55\n      jumpi\n        /* \"#utility.yul\":2314:2315   */\n      0x00\n        /* \"#utility.yul\":2293:2312   */\n      dup4\n      dup3\n      add\n        /* \"#utility.yul\":2286:2316   */\n      sstore\n        /* \"#utility.yul\":2243:2244   */\n      0x01\n        /* \"#utility.yul\":2236:2245   */\n      add\n        /* \"#utility.yul\":2211:2334   */\n      jump(tag_53)\n    tag_55:\n        /* \"#utility.yul\":2215:2218   */\n      pop\n      pop\n      pop\n        /* \"#utility.yul\":1672:2364   */\n      pop\n      pop\n      pop\n      jump\t// out\n        /* \"#utility.yul\":2540:3738   */\n    tag_31:\n        /* \"#utility.yul\":2664:2682   */\n      0xffffffffffffffff\n        /* \"#utility.yul\":2659:2662   */\n      dup4\n        /* \"#utility.yul\":2656:2683   */\n      gt\n        /* \"#utility.yul\":2653:2706   */\n      iszero\n      tag_59\n      jumpi\n        /* \"#utility.yul\":2686:2704   */\n      tag_59\n      tag_32\n      jump\t// in\n    tag_59:\n        /* \"#utility.yul\":2715:2809   */\n      tag_60\n        /* \"#utility.yul\":2805:2808   */\n      dup4\n        /* \"#utility.yul\":2765:2803   */\n      tag_61\n        /* \"#utility.yul\":2797:2801   */\n      dup4\n        /* \"#utility.yul\":2791:2802   */\n      sload\n        /* \"#utility.yul\":2765:2803   */\n      tag_18\n      jump\t// in\n    tag_61:\n        /* \"#utility.yul\":2759:2763   */\n      dup4\n        /* \"#utility.yul\":2715:2809   */\n      tag_34\n      jump\t// in\n    tag_60:\n        /* \"#utility.yul\":2835:2836   */\n      0x00\n        /* \"#utility.yul\":2860:2862   */\n      0x1f\n        /* \"#utility.yul\":2855:2858   */\n      dup5\n        /* \"#utility.yul\":2852:2863   */\n      gt\n        /* \"#utility.yul\":2877:2878   */\n      0x01\n        /* \"#utility.yul\":2872:3480   */\n      dup2\n      eq\n      tag_63\n      jumpi\n        /* \"#utility.yul\":3524:3525   */\n      0x00\n        /* \"#utility.yul\":3541:3544   */\n      dup6\n        /* \"#utility.yul\":3538:3631   */\n      iszero\n      tag_64\n      jumpi\n      pop\n        /* \"#utility.yul\":3597:3616   */\n      dup4\n      dup3\n      add\n        /* \"#utility.yul\":3584:3617   */\n      calldataload\n        /* \"#utility.yul\":3538:3631   */\n    tag_64:\n      not(0x00)\n        /* \"#utility.yul\":2497:2498   */\n      0x03\n        /* \"#utility.yul\":2493:2504   */\n      dup8\n      swap1\n      shl\n        /* \"#utility.yul\":2489:2513   */\n      shr\n        /* \"#utility.yul\":2485:2514   */\n      not\n        /* \"#utility.yul\":2475:2515   */\n      and\n        /* \"#utility.yul\":2521:2522   */\n      0x01\n        /* \"#utility.yul\":2517:2528   */\n      dup7\n      swap1\n      shl\n        /* \"#utility.yul\":2472:2529   */\n      or\n        /* \"#utility.yul\":3644:3722   */\n      dup4\n      sstore\n        /* \"#utility.yul\":2845:3732   */\n      jump(tag_62)\n        /* \"#utility.yul\":2872:3480   */\n    tag_63:\n        /* \"#utility.yul\":1619:1620   */\n      0x00\n        /* \"#utility.yul\":1612:1626   */\n      dup4\n      dup2\n      mstore\n        /* \"#utility.yul\":1656:1660   */\n      0x20\n        /* \"#utility.yul\":1643:1661   */\n      dup2\n      keccak256\n      not(0x1f)\n        /* \"#utility.yul\":2908:2925   */\n      dup8\n      and\n      swap2\n        /* \"#utility.yul\":3023:3252   */\n    tag_67:\n        /* \"#utility.yul\":3037:3044   */\n      dup3\n        /* \"#utility.yul\":3034:3035   */\n      dup2\n        /* \"#utility.yul\":3031:3045   */\n      lt\n        /* \"#utility.yul\":3023:3252   */\n      iszero\n      tag_69\n      jumpi\n        /* \"#utility.yul\":3126:3145   */\n      dup7\n      dup6\n      add\n        /* \"#utility.yul\":3113:3146   */\n      calldataload\n        /* \"#utility.yul\":3098:3147   */\n      dup3\n      sstore\n        /* \"#utility.yul\":3233:3237   */\n      0x20\n        /* \"#utility.yul\":3218:3238   */\n      swap5\n      dup6\n      add\n      swap5\n        /* \"#utility.yul\":3186:3187   */\n      0x01\n        /* \"#utility.yul\":3174:3188   */\n      swap1\n      swap3\n      add\n      swap2\n        /* \"#utility.yul\":3053:3065   */\n      add\n        /* \"#utility.yul\":3023:3252   */\n      jump(tag_67)\n    tag_69:\n        /* \"#utility.yul\":3027:3030   */\n      pop\n        /* \"#utility.yul\":3280:3283   */\n      dup7\n        /* \"#utility.yul\":3271:3278   */\n      dup3\n        /* \"#utility.yul\":3268:3284   */\n      lt\n        /* \"#utility.yul\":3265:3424   */\n      iszero\n      tag_70\n      jumpi\n        /* \"#utility.yul\":3404:3405   */\n      0x00\n        /* \"#utility.yul\":3400:3406   */\n      not\n        /* \"#utility.yul\":3394:3397   */\n      0xf8\n        /* \"#utility.yul\":3388:3391   */\n      dup9\n        /* \"#utility.yul\":3385:3386   */\n      0x03\n        /* \"#utility.yul\":3381:3392   */\n      shl\n        /* \"#utility.yul\":3377:3398   */\n      and\n        /* \"#utility.yul\":3373:3407   */\n      shr\n        /* \"#utility.yul\":3369:3408   */\n      not\n        /* \"#utility.yul\":3356:3365   */\n      dup5\n        /* \"#utility.yul\":3351:3354   */\n      dup8\n        /* \"#utility.yul\":3347:3366   */\n      add\n        /* \"#utility.yul\":3334:3367   */\n      calldataload\n        /* \"#utility.yul\":3330:3409   */\n      and\n        /* \"#utility.yul\":3322:3328   */\n      dup2\n        /* \"#utility.yul\":3315:3410   */\n      sstore\n        /* \"#utility.yul\":3265:3424   */\n    tag_70:\n      pop\n      pop\n        /* \"#utility.yul\":3467:3468   */\n      0x01\n        /* \"#utility.yul\":3461:3464   */\n      dup6\n        /* \"#utility.yul\":3458:3459   */\n      0x01\n        /* \"#utility.yul\":3454:3465   */\n      shl\n        /* \"#utility.yul\":3450:3469   */\n      add\n        /* \"#utility.yul\":3444:3448   */\n      dup4\n        /* \"#utility.yul\":3437:3470   */\n      sstore\n        /* \"#utility.yul\":2845:3732   */\n    tag_62:\n      pop\n      pop\n        /* \"#utility.yul\":2540:3738   */\n      pop\n      pop\n      pop\n      jump\t// out\n\n    auxdata: 0xa2646970667358221220e25b317e05f43fa071b9795fa26872ea540988db5d616894126445e64185430d64736f6c63430008210033\n}\n",
				"bytecode": {
					"linkReferences": {},
					"object": "6080604052348015600e575f5ffd5b506103df8061001c5f395ff3fe608060405234801561000f575f5ffd5b506004361061003f575f3560e01c80631f1bd6921461004357806323595f7a146100615780636700435e14610069575b5f5ffd5b61004b61007e565b60405161005891906101a9565b60405180910390f35b61004b610109565b61007c6100773660046101de565b610198565b005b5f805461008a9061024c565b80601f01602080910402602001604051908101604052809291908181526020018280546100b69061024c565b80156101015780601f106100d857610100808354040283529160200191610101565b820191905f5260205f20905b8154815290600101906020018083116100e457829003601f168201915b505050505081565b60605f80546101179061024c565b80601f01602080910402602001604051908101604052809291908181526020018280546101439061024c565b801561018e5780601f106101655761010080835404028352916020019161018e565b820191905f5260205f20905b81548152906001019060200180831161017157829003601f168201915b5050505050905090565b5f6101a48284836102ee565b505050565b602081525f82518060208401528060208501604085015e5f604082850101526040601f19601f83011684010191505092915050565b5f5f602083850312156101ef575f5ffd5b823567ffffffffffffffff811115610205575f5ffd5b8301601f81018513610215575f5ffd5b803567ffffffffffffffff81111561022b575f5ffd5b85602082840101111561023c575f5ffd5b6020919091019590945092505050565b600181811c9082168061026057607f821691505b60208210810361027e57634e487b7160e01b5f52602260045260245ffd5b50919050565b634e487b7160e01b5f52604160045260245ffd5b601f8211156101a457828211156101a457805f5260205f20601f840160051c60208510156102c357505f5b90810190601f840160051c035f5b818110156102e6575f838201556001016102d1565b505050505050565b67ffffffffffffffff83111561030657610306610284565b61031a83610314835461024c565b83610298565b5f601f84116001811461034b575f85156103345750838201355b5f19600387901b1c1916600186901b1783556103a2565b5f83815260208120601f198716915b8281101561037a578685013582556020948501946001909201910161035a565b5086821015610396575f1960f88860031b161c19848701351681555b505060018560011b0183555b505050505056fea2646970667358221220e25b317e05f43fa071b9795fa26872ea540988db5d616894126445e64185430d64736f6c63430008210033",
					"opcodes": "PUSH1 0x80 PUSH1 0x40 MSTORE CALLVALUE DUP1 ISZERO PUSH1 0xE JUMPI PUSH0 PUSH0 REVERT JUMPDEST POP PUSH2 0x3DF DUP1 PUSH2 0x1C PUSH0 CODECOPY PUSH0 RETURN INVALID PUSH1 0x80 PUSH1 0x40 MSTORE CALLVALUE DUP1 ISZERO PUSH2 0xF JUMPI PUSH0 PUSH0 REVERT JUMPDEST POP PUSH1 0x4 CALLDATASIZE LT PUSH2 0x3F JUMPI PUSH0 CALLDATALOAD PUSH1 0xE0 SHR DUP1 PUSH4 0x1F1BD692 EQ PUSH2 0x43 JUMPI DUP1 PUSH4 0x23595F7A EQ PUSH2 0x61 JUMPI DUP1 PUSH4 0x6700435E EQ PUSH2 0x69 JUMPI JUMPDEST PUSH0 PUSH0 REVERT JUMPDEST PUSH2 0x4B PUSH2 0x7E JUMP JUMPDEST PUSH1 0x40 MLOAD PUSH2 0x58 SWAP2 SWAP1 PUSH2 0x1A9 JUMP JUMPDEST PUSH1 0x40 MLOAD DUP1 SWAP2 SUB SWAP1 RETURN JUMPDEST PUSH2 0x4B PUSH2 0x109 JUMP JUMPDEST PUSH2 0x7C PUSH2 0x77 CALLDATASIZE PUSH1 0x4 PUSH2 0x1DE JUMP JUMPDEST PUSH2 0x198 JUMP JUMPDEST STOP JUMPDEST PUSH0 DUP1 SLOAD PUSH2 0x8A SWAP1 PUSH2 0x24C JUMP JUMPDEST DUP1 PUSH1 0x1F ADD PUSH1 0x20 DUP1 SWAP2 DIV MUL PUSH1 0x20 ADD PUSH1 0x40 MLOAD SWAP1 DUP2 ADD PUSH1 0x40 MSTORE DUP1 SWAP3 SWAP2 SWAP1 DUP2 DUP2 MSTORE PUSH1 0x20 ADD DUP3 DUP1 SLOAD PUSH2 0xB6 SWAP1 PUSH2 0x24C JUMP JUMPDEST DUP1 ISZERO PUSH2 0x101 JUMPI DUP1 PUSH1 0x1F LT PUSH2 0xD8 JUMPI PUSH2 0x100 DUP1 DUP4 SLOAD DIV MUL DUP4 MSTORE SWAP2 PUSH1 0x20 ADD SWAP2 PUSH2 0x101 JUMP JUMPDEST DUP3 ADD SWAP2 SWAP1 PUSH0 MSTORE PUSH1 0x20 PUSH0 KECCAK256 SWAP1 JUMPDEST DUP2 SLOAD DUP2 MSTORE SWAP1 PUSH1 0x1 ADD SWAP1 PUSH1 0x20 ADD DUP1 DUP4 GT PUSH2 0xE4 JUMPI DUP3 SWAP1 SUB PUSH1 0x1F AND DUP3 ADD SWAP2 JUMPDEST POP POP POP POP POP DUP2 JUMP JUMPDEST PUSH1 0x60 PUSH0 DUP1 SLOAD PUSH2 0x117 SWAP1 PUSH2 0x24C JUMP JUMPDEST DUP1 PUSH1 0x1F ADD PUSH1 0x20 DUP1 SWAP2 DIV MUL PUSH1 0x20 ADD PUSH1 0x40 MLOAD SWAP1 DUP2 ADD PUSH1 0x40 MSTORE DUP1 SWAP3 SWAP2 SWAP1 DUP2 DUP2 MSTORE PUSH1 0x20 ADD DUP3 DUP1 SLOAD PUSH2 0x143 SWAP1 PUSH2 0x24C JUMP JUMPDEST DUP1 ISZERO PUSH2 0x18E JUMPI DUP1 PUSH1 0x1F LT PUSH2 0x165 JUMPI PUSH2 0x100 DUP1 DUP4 SLOAD DIV MUL DUP4 MSTORE SWAP2 PUSH1 0x20 ADD SWAP2 PUSH2 0x18E JUMP JUMPDEST DUP3 ADD SWAP2 SWAP1 PUSH0 MSTORE PUSH1 0x20 PUSH0 KECCAK256 SWAP1 JUMPDEST DUP2 SLOAD DUP2 MSTORE SWAP1 PUSH1 0x1 ADD SWAP1 PUSH1 0x20 ADD DUP1 DUP4 GT PUSH2 0x171 JUMPI DUP3 SWAP1 SUB PUSH1 0x1F AND DUP3 ADD SWAP2 JUMPDEST POP POP POP POP POP SWAP1 POP SWAP1 JUMP JUMPDEST PUSH0 PUSH2 0x1A4 DUP3 DUP5 DUP4 PUSH2 0x2EE JUMP JUMPDEST POP POP POP JUMP JUMPDEST PUSH1 0x20 DUP2 MSTORE PUSH0 DUP3 MLOAD DUP1 PUSH1 0x20 DUP5 ADD MSTORE DUP1 PUSH1 0x20 DUP6 ADD PUSH1 0x40 DUP6 ADD MCOPY PUSH0 PUSH1 0x40 DUP3 DUP6 ADD ADD MSTORE PUSH1 0x40 PUSH1 0x1F NOT PUSH1 0x1F DUP4 ADD AND DUP5 ADD ADD SWAP2 POP POP SWAP3 SWAP2 POP POP JUMP JUMPDEST PUSH0 PUSH0 PUSH1 0x20 DUP4 DUP6 SUB SLT ISZERO PUSH2 0x1EF JUMPI PUSH0 PUSH0 REVERT JUMPDEST DUP3 CALLDATALOAD PUSH8 0xFFFFFFFFFFFFFFFF DUP2 GT ISZERO PUSH2 0x205 JUMPI PUSH0 PUSH0 REVERT JUMPDEST DUP4 ADD PUSH1 0x1F DUP2 ADD DUP6 SGT PUSH2 0x215 JUMPI PUSH0 PUSH0 REVERT JUMPDEST DUP1 CALLDATALOAD PUSH8 0xFFFFFFFFFFFFFFFF DUP2 GT ISZERO PUSH2 0x22B JUMPI PUSH0 PUSH0 REVERT JUMPDEST DUP6 PUSH1 0x20 DUP3 DUP5 ADD ADD GT ISZERO PUSH2 0x23C JUMPI PUSH0 PUSH0 REVERT JUMPDEST PUSH1 0x20 SWAP2 SWAP1 SWAP2 ADD SWAP6 SWAP1 SWAP5 POP SWAP3 POP POP POP JUMP JUMPDEST PUSH1 0x1 DUP2 DUP2 SHR SWAP1 DUP3 AND DUP1 PUSH2 0x260 JUMPI PUSH1 0x7F DUP3 AND SWAP2 POP JUMPDEST PUSH1 0x20 DUP3 LT DUP2 SUB PUSH2 0x27E JUMPI PUSH4 0x4E487B71 PUSH1 0xE0 SHL PUSH0 MSTORE PUSH1 0x22 PUSH1 0x4 MSTORE PUSH1 0x24 PUSH0 REVERT JUMPDEST POP SWAP2 SWAP1 POP JUMP JUMPDEST PUSH4 0x4E487B71 PUSH1 0xE0 SHL PUSH0 MSTORE PUSH1 0x41 PUSH1 0x4 MSTORE PUSH1 0x24 PUSH0 REVERT JUMPDEST PUSH1 0x1F DUP3 GT ISZERO PUSH2 0x1A4 JUMPI DUP3 DUP3 GT ISZERO PUSH2 0x1A4 JUMPI DUP1 PUSH0 MSTORE PUSH1 0x20 PUSH0 KECCAK256 PUSH1 0x1F DUP5 ADD PUSH1 0x5 SHR PUSH1 0x20 DUP6 LT ISZERO PUSH2 0x2C3 JUMPI POP PUSH0 JUMPDEST SWAP1 DUP2 ADD SWAP1 PUSH1 0x1F DUP5 ADD PUSH1 0x5 SHR SUB PUSH0 JUMPDEST DUP2 DUP2 LT ISZERO PUSH2 0x2E6 JUMPI PUSH0 DUP4 DUP3 ADD SSTORE PUSH1 0x1 ADD PUSH2 0x2D1 JUMP JUMPDEST POP POP POP POP POP POP JUMP JUMPDEST PUSH8 0xFFFFFFFFFFFFFFFF DUP4 GT ISZERO PUSH2 0x306 JUMPI PUSH2 0x306 PUSH2 0x284 JUMP JUMPDEST PUSH2 0x31A DUP4 PUSH2 0x314 DUP4 SLOAD PUSH2 0x24C JUMP JUMPDEST DUP4 PUSH2 0x298 JUMP JUMPDEST PUSH0 PUSH1 0x1F DUP5 GT PUSH1 0x1 DUP2 EQ PUSH2 0x34B JUMPI PUSH0 DUP6 ISZERO PUSH2 0x334 JUMPI POP DUP4 DUP3 ADD CALLDATALOAD JUMPDEST PUSH0 NOT PUSH1 0x3 DUP8 SWAP1 SHL SHR NOT AND PUSH1 0x1 DUP7 SWAP1 SHL OR DUP4 SSTORE PUSH2 0x3A2 JUMP JUMPDEST PUSH0 DUP4 DUP2 MSTORE PUSH1 0x20 DUP2 KECCAK256 PUSH1 0x1F NOT DUP8 AND SWAP2 JUMPDEST DUP3 DUP2 LT ISZERO PUSH2 0x37A JUMPI DUP7 DUP6 ADD CALLDATALOAD DUP3 SSTORE PUSH1 0x20 SWAP5 DUP6 ADD SWAP5 PUSH1 0x1 SWAP1 SWAP3 ADD SWAP2 ADD PUSH2 0x35A JUMP JUMPDEST POP DUP7 DUP3 LT ISZERO PUSH2 0x396 JUMPI PUSH0 NOT PUSH1 0xF8 DUP9 PUSH1 0x3 SHL AND SHR NOT DUP5 DUP8 ADD CALLDATALOAD AND DUP2 SSTORE JUMPDEST POP POP PUSH1 0x1 DUP6 PUSH1 0x1 SHL ADD DUP4 SSTORE JUMPDEST POP POP POP POP POP JUMP INVALID LOG2 PUSH5 0x6970667358 0x22 SLT KECCAK256 0xE2 JUMPDEST BALANCE PUSH31 0x5F43FA071B9795FA26872EA540988DB5D616894126445E64185430D64736F PUSH13 0x63430008210033000000000000 "
				},
				"gasEstimates": {
					"creation": {
						"codeDepositCost": "198200",
						"executionCost": "236",
						"totalCost": "198436"
					},
					"external": {
						"getTex()": "infinite",
						"setTex(string)": "infinite",
						"text()": "infinite"
					}
				},
				"methodIdentifiers": {
					"getTex()": "23595f7a",
					"setTex(string)": "6700435e",
					"text()": "1f1bd692"
				}
			},
			"storageLayout": {
				"storage": [
					{
						"astId": 3,
						"contract": "demo1/32SimpleStorage.sol:SimpleStorage",
						"label": "text",
						"offset": 0,
						"slot": "0",
						"type": "t_string_storage"
					}
				],
				"types": {
					"t_string_storage": {
						"encoding": "bytes",
						"label": "string",
						"numberOfBytes": "32"
					}
				}
			},
			"userdoc": {
				"kind": "user",
				"methods": {},
				"version": 1
			}
		}
	}
}