{
	"demo1/19For.sol": {
		"For": {
			"abi": [
				{
					"inputs": [],
					"name": "for1",
					"outputs": [],
					"stateMutability": "pure",
					"type": "function"
				},
				{
					"inputs": [
						{
							"internalType": "uint256",
							"name": "n",
							"type": "uint256"
						}
					],
					"name": "name",
					"outputs": [
						{
							"internalType": "uint256",
							"name": "",
							"type": "uint256"
						}
					],
					"stateMutability": "pure",
					"type": "function"
				},
				{
					"inputs": [
						{
							"internalType": "uint256",
							"name": "n",
							"type": "uint256"
						}
					],
					"name": "sum",
					"outputs": [
						{
							"internalType": "uint256",
							"name": "",
							"type": "uint256"
						}
					],
					"stateMutability": "pure",
					"type": "function"
				}
			],
			"devdoc": {
				"kind": "dev",
				"methods": {},
				"version": 1
			},
			"evm": {
				"assembly": "    /* \"demo1/19For.sol\":60:702  contract For {... */\n  mstore(0x40, 0x80)\n  callvalue\n  dup1\n  iszero\n  tag_1\n  jumpi\n  revert(0x00, 0x00)\ntag_1:\n  pop\n  dataSize(sub_0)\n  dup1\n  dataOffset(sub_0)\n  0x00\n  codecopy\n  0x00\n  return\nstop\n\nsub_0: assembly {\n        /* \"demo1/19For.sol\":60:702  contract For {... */\n      mstore(0x40, 0x80)\n      callvalue\n      dup1\n      iszero\n      tag_1\n      jumpi\n      revert(0x00, 0x00)\n    tag_1:\n      pop\n      jumpi(tag_2, lt(calldatasize, 0x04))\n      shr(0xe0, calldataload(0x00))\n      dup1\n      0xad800c\n      eq\n      tag_3\n      jumpi\n      dup1\n      0x188b85b4\n      eq\n      tag_4\n      jumpi\n      dup1\n      0x6cb41610\n      eq\n      tag_5\n      jumpi\n    tag_2:\n      revert(0x00, 0x00)\n        /* \"demo1/19For.sol\":80:251  function name(uint n) external pure returns (uint){... */\n    tag_3:\n      tag_6\n      tag_7\n      calldatasize\n      0x04\n      tag_8\n      jump\t// in\n    tag_7:\n      tag_9\n      jump\t// in\n    tag_6:\n      mload(0x40)\n        /* \"#utility.yul\":345:370   */\n      swap1\n      dup2\n      mstore\n        /* \"#utility.yul\":333:335   */\n      0x20\n        /* \"#utility.yul\":318:336   */\n      add\n        /* \"demo1/19For.sol\":80:251  function name(uint n) external pure returns (uint){... */\n      mload(0x40)\n      dup1\n      swap2\n      sub\n      swap1\n      return\n        /* \"demo1/19For.sol\":315:474  function sum(uint n) external pure returns (uint) {... */\n    tag_4:\n      tag_6\n      tag_13\n      calldatasize\n      0x04\n      tag_8\n      jump\t// in\n    tag_13:\n      tag_14\n      jump\t// in\n        /* \"demo1/19For.sol\":482:699  function for1()external pure {... */\n    tag_5:\n      tag_16\n      tag_17\n      jump\t// in\n    tag_16:\n      stop\n        /* \"demo1/19For.sol\":80:251  function name(uint n) external pure returns (uint){... */\n    tag_9:\n        /* \"demo1/19For.sol\":125:129  uint */\n      0x00\n      dup1\n        /* \"demo1/19For.sol\":176:177  1 */\n      0x01\n        /* \"demo1/19For.sol\":164:223  for (uint i=1; i<=n; i++) {... */\n    tag_19:\n        /* \"demo1/19For.sol\":182:183  n */\n      dup4\n        /* \"demo1/19For.sol\":179:180  i */\n      dup2\n        /* \"demo1/19For.sol\":179:183  i<=n */\n      gt\n        /* \"demo1/19For.sol\":164:223  for (uint i=1; i<=n; i++) {... */\n      tag_20\n      jumpi\n        /* \"demo1/19For.sol\":205:211  sum+=i */\n      tag_22\n        /* \"demo1/19For.sol\":210:211  i */\n      dup2\n        /* \"demo1/19For.sol\":205:211  sum+=i */\n      dup4\n      tag_23\n      jump\t// in\n    tag_22:\n      swap2\n      pop\n        /* \"demo1/19For.sol\":185:188  i++ */\n      dup1\n      tag_24\n      dup2\n      tag_25\n      jump\t// in\n    tag_24:\n      swap2\n      pop\n      pop\n        /* \"demo1/19For.sol\":164:223  for (uint i=1; i<=n; i++) {... */\n      jump(tag_19)\n    tag_20:\n      pop\n        /* \"demo1/19For.sol\":240:243  sum */\n      swap3\n        /* \"demo1/19For.sol\":80:251  function name(uint n) external pure returns (uint){... */\n      swap2\n      pop\n      pop\n      jump\t// out\n        /* \"demo1/19For.sol\":315:474  function sum(uint n) external pure returns (uint) {... */\n    tag_14:\n        /* \"demo1/19For.sol\":359:363  uint */\n      0x00\n      dup1\n        /* \"demo1/19For.sol\":407:408  1 */\n      0x01\n        /* \"demo1/19For.sol\":393:448  for (uint i = 1; i <= n; i++) {... */\n    tag_27:\n        /* \"demo1/19For.sol\":415:416  n */\n      dup4\n        /* \"demo1/19For.sol\":410:411  i */\n      dup2\n        /* \"demo1/19For.sol\":410:416  i <= n */\n      gt\n        /* \"demo1/19For.sol\":393:448  for (uint i = 1; i <= n; i++) {... */\n      tag_20\n      jumpi\n        /* \"demo1/19For.sol\":430:440  total += i */\n      tag_30\n        /* \"demo1/19For.sol\":439:440  i */\n      dup2\n        /* \"demo1/19For.sol\":430:440  total += i */\n      dup4\n      tag_23\n      jump\t// in\n    tag_30:\n      swap2\n      pop\n        /* \"demo1/19For.sol\":418:421  i++ */\n      dup1\n      tag_31\n      dup2\n      tag_25\n      jump\t// in\n    tag_31:\n      swap2\n      pop\n      pop\n        /* \"demo1/19For.sol\":393:448  for (uint i = 1; i <= n; i++) {... */\n      jump(tag_27)\n        /* \"demo1/19For.sol\":482:699  function for1()external pure {... */\n    tag_17:\n        /* \"demo1/19For.sol\":527:533  uint i */\n      0x00\n        /* \"demo1/19For.sol\":522:692  for (uint i = 0; i < 10; i++) {... */\n    tag_33:\n        /* \"demo1/19For.sol\":543:545  10 */\n      0x0a\n        /* \"demo1/19For.sol\":539:540  i */\n      dup2\n        /* \"demo1/19For.sol\":539:545  i < 10 */\n      lt\n        /* \"demo1/19For.sol\":522:692  for (uint i = 0; i < 10; i++) {... */\n      iszero\n      tag_34\n      jumpi\n        /* \"demo1/19For.sol\":574:575  3 */\n      0x03\n        /* \"demo1/19For.sol\":567:619  if (i==3){... */\n      dup2\n      eq\n        /* \"demo1/19For.sol\":595:603  continue */\n      tag_37\n        /* \"demo1/19For.sol\":567:619  if (i==3){... */\n      jumpi\n        /* \"demo1/19For.sol\":639:640  5 */\n      0x05\n        /* \"demo1/19For.sol\":633:681  if(i==5){... */\n      dup2\n      eq\n        /* \"demo1/19For.sol\":660:665  break */\n      tag_34\n        /* \"demo1/19For.sol\":633:681  if(i==5){... */\n      jumpi\n    tag_37:\n        /* \"demo1/19For.sol\":547:550  i++ */\n      0x01\n      add\n        /* \"demo1/19For.sol\":522:692  for (uint i = 0; i < 10; i++) {... */\n      jump(tag_33)\n    tag_34:\n      pop\n        /* \"demo1/19For.sol\":482:699  function for1()external pure {... */\n      jump\t// out\n        /* \"#utility.yul\":14:194   */\n    tag_8:\n        /* \"#utility.yul\":73:79   */\n      0x00\n        /* \"#utility.yul\":126:128   */\n      0x20\n        /* \"#utility.yul\":114:123   */\n      dup3\n        /* \"#utility.yul\":105:112   */\n      dup5\n        /* \"#utility.yul\":101:124   */\n      sub\n        /* \"#utility.yul\":97:129   */\n      slt\n        /* \"#utility.yul\":94:146   */\n      iszero\n      tag_41\n      jumpi\n        /* \"#utility.yul\":142:143   */\n      0x00\n        /* \"#utility.yul\":139:140   */\n      0x00\n        /* \"#utility.yul\":132:144   */\n      revert\n        /* \"#utility.yul\":94:146   */\n    tag_41:\n      pop\n        /* \"#utility.yul\":165:188   */\n      calldataload\n      swap2\n        /* \"#utility.yul\":14:194   */\n      swap1\n      pop\n      jump\t// out\n        /* \"#utility.yul\":381:508   */\n    tag_38:\n        /* \"#utility.yul\":442:452   */\n      0x4e487b71\n        /* \"#utility.yul\":437:440   */\n      0xe0\n        /* \"#utility.yul\":433:453   */\n      shl\n        /* \"#utility.yul\":430:431   */\n      0x00\n        /* \"#utility.yul\":423:454   */\n      mstore\n        /* \"#utility.yul\":473:477   */\n      0x11\n        /* \"#utility.yul\":470:471   */\n      0x04\n        /* \"#utility.yul\":463:478   */\n      mstore\n        /* \"#utility.yul\":497:501   */\n      0x24\n        /* \"#utility.yul\":494:495   */\n      0x00\n        /* \"#utility.yul\":487:502   */\n      revert\n        /* \"#utility.yul\":513:638   */\n    tag_23:\n        /* \"#utility.yul\":578:587   */\n      dup1\n      dup3\n      add\n        /* \"#utility.yul\":599:609   */\n      dup1\n      dup3\n      gt\n        /* \"#utility.yul\":596:632   */\n      iszero\n      tag_46\n      jumpi\n        /* \"#utility.yul\":612:630   */\n      tag_46\n      tag_38\n      jump\t// in\n    tag_46:\n        /* \"#utility.yul\":513:638   */\n      swap3\n      swap2\n      pop\n      pop\n      jump\t// out\n        /* \"#utility.yul\":643:778   */\n    tag_25:\n        /* \"#utility.yul\":682:685   */\n      0x00\n        /* \"#utility.yul\":703:720   */\n      0x01\n      dup3\n      add\n        /* \"#utility.yul\":700:743   */\n      tag_49\n      jumpi\n        /* \"#utility.yul\":723:741   */\n      tag_49\n      tag_38\n      jump\t// in\n    tag_49:\n      pop\n        /* \"#utility.yul\":770:771   */\n      0x01\n        /* \"#utility.yul\":759:772   */\n      add\n      swap1\n        /* \"#utility.yul\":643:778   */\n      jump\t// out\n\n    auxdata: 0xa26469706673582212200711448b4272e368dfa380a846416c9e831fd5cbdc91125689fbaf823611b9b064736f6c634300081f0033\n}\n",
				"bytecode": {
					"linkReferences": {},
					"object": "6080604052348015600e575f5ffd5b506101988061001c5f395ff3fe608060405234801561000f575f5ffd5b506004361061003e575f3560e01c8062ad800c14610042578063188b85b4146100675780636cb416101461007a575b5f5ffd5b610055610050366004610106565b610084565b60405190815260200160405180910390f35b610055610075366004610106565b6100b5565b6100826100df565b005b5f8060015b8381116100ae5761009a8183610131565b9150806100a68161014a565b915050610089565b5092915050565b5f8060015b8381116100ae576100cb8183610131565b9150806100d78161014a565b9150506100ba565b5f5b600a81101561010357600381146100fb5760058114610103575b6001016100e1565b50565b5f60208284031215610116575f5ffd5b5035919050565b634e487b7160e01b5f52601160045260245ffd5b808201808211156101445761014461011d565b92915050565b5f6001820161015b5761015b61011d565b506001019056fea26469706673582212200711448b4272e368dfa380a846416c9e831fd5cbdc91125689fbaf823611b9b064736f6c634300081f0033",
					"opcodes": "PUSH1 0x80 PUSH1 0x40 MSTORE CALLVALUE DUP1 ISZERO PUSH1 0xE JUMPI PUSH0 PUSH0 REVERT JUMPDEST POP PUSH2 0x198 DUP1 PUSH2 0x1C PUSH0 CODECOPY PUSH0 RETURN INVALID PUSH1 0x80 PUSH1 0x40 MSTORE CALLVALUE DUP1 ISZERO PUSH2 0xF JUMPI PUSH0 PUSH0 REVERT JUMPDEST POP PUSH1 0x4 CALLDATASIZE LT PUSH2 0x3E JUMPI PUSH0 CALLDATALOAD PUSH1 0xE0 SHR DUP1 PUSH3 0xAD800C EQ PUSH2 0x42 JUMPI DUP1 PUSH4 0x188B85B4 EQ PUSH2 0x67 JUMPI DUP1 PUSH4 0x6CB41610 EQ PUSH2 0x7A JUMPI JUMPDEST PUSH0 PUSH0 REVERT JUMPDEST PUSH2 0x55 PUSH2 0x50 CALLDATASIZE PUSH1 0x4 PUSH2 0x106 JUMP JUMPDEST PUSH2 0x84 JUMP JUMPDEST PUSH1 0x40 MLOAD SWAP1 DUP2 MSTORE PUSH1 0x20 ADD PUSH1 0x40 MLOAD DUP1 SWAP2 SUB SWAP1 RETURN JUMPDEST PUSH2 0x55 PUSH2 0x75 CALLDATASIZE PUSH1 0x4 PUSH2 0x106 JUMP JUMPDEST PUSH2 0xB5 JUMP JUMPDEST PUSH2 0x82 PUSH2 0xDF JUMP JUMPDEST STOP JUMPDEST PUSH0 DUP1 PUSH1 0x1 JUMPDEST DUP4 DUP2 GT PUSH2 0xAE JUMPI PUSH2 0x9A DUP2 DUP4 PUSH2 0x131 JUMP JUMPDEST SWAP2 POP DUP1 PUSH2 0xA6 DUP2 PUSH2 0x14A JUMP JUMPDEST SWAP2 POP POP PUSH2 0x89 JUMP JUMPDEST POP SWAP3 SWAP2 POP POP JUMP JUMPDEST PUSH0 DUP1 PUSH1 0x1 JUMPDEST DUP4 DUP2 GT PUSH2 0xAE JUMPI PUSH2 0xCB DUP2 DUP4 PUSH2 0x131 JUMP JUMPDEST SWAP2 POP DUP1 PUSH2 0xD7 DUP2 PUSH2 0x14A JUMP JUMPDEST SWAP2 POP POP PUSH2 0xBA JUMP JUMPDEST PUSH0 JUMPDEST PUSH1 0xA DUP2 LT ISZERO PUSH2 0x103 JUMPI PUSH1 0x3 DUP2 EQ PUSH2 0xFB JUMPI PUSH1 0x5 DUP2 EQ PUSH2 0x103 JUMPI JUMPDEST PUSH1 0x1 ADD PUSH2 0xE1 JUMP JUMPDEST POP JUMP JUMPDEST PUSH0 PUSH1 0x20 DUP3 DUP5 SUB SLT ISZERO PUSH2 0x116 JUMPI PUSH0 PUSH0 REVERT JUMPDEST POP CALLDATALOAD SWAP2 SWAP1 POP JUMP JUMPDEST PUSH4 0x4E487B71 PUSH1 0xE0 SHL PUSH0 MSTORE PUSH1 0x11 PUSH1 0x4 MSTORE PUSH1 0x24 PUSH0 REVERT JUMPDEST DUP1 DUP3 ADD DUP1 DUP3 GT ISZERO PUSH2 0x144 JUMPI PUSH2 0x144 PUSH2 0x11D JUMP JUMPDEST SWAP3 SWAP2 POP POP JUMP JUMPDEST PUSH0 PUSH1 0x1 DUP3 ADD PUSH2 0x15B JUMPI PUSH2 0x15B PUSH2 0x11D JUMP JUMPDEST POP PUSH1 0x1 ADD SWAP1 JUMP INVALID LOG2 PUSH5 0x6970667358 0x22 SLT KECCAK256 SMOD GT PREVRANDAO DUP12 TIMESTAMP PUSH19 0xE368DFA380A846416C9E831FD5CBDC91125689 EXTSTATICCALL 0xAF DUP3 CALLDATASIZE GT 0xB9 0xB0 PUSH5 0x736F6C6343 STOP ADDMOD 0x1F STOP CALLER "
				},
				"gasEstimates": {
					"creation": {
						"codeDepositCost": "81600",
						"executionCost": "127",
						"totalCost": "81727"
					},
					"external": {
						"for1()": "infinite",
						"name(uint256)": "infinite",
						"sum(uint256)": "infinite"
					}
				},
				"methodIdentifiers": {
					"for1()": "6cb41610",
					"name(uint256)": "00ad800c",
					"sum(uint256)": "188b85b4"
				}
			},
			"storageLayout": {
				"storage": [],
				"types": null
			},
			"userdoc": {
				"kind": "user",
				"methods": {},
				"version": 1
			}
		}
	}
}