{
	"demo1/23MyOwnable.sol": {
		"MyOwnable": {
			"abi": [
				{
					"inputs": [],
					"stateMutability": "nonpayable",
					"type": "constructor"
				},
				{
					"inputs": [],
					"name": "count",
					"outputs": [
						{
							"internalType": "uint256",
							"name": "",
							"type": "uint256"
						}
					],
					"stateMutability": "view",
					"type": "function"
				},
				{
					"inputs": [],
					"name": "inc",
					"outputs": [],
					"stateMutability": "nonpayable",
					"type": "function"
				},
				{
					"inputs": [],
					"name": "owner",
					"outputs": [
						{
							"internalType": "address",
							"name": "",
							"type": "address"
						}
					],
					"stateMutability": "view",
					"type": "function"
				},
				{
					"inputs": [],
					"name": "ownerReset",
					"outputs": [],
					"stateMutability": "nonpayable",
					"type": "function"
				},
				{
					"inputs": [
						{
							"internalType": "address",
							"name": "addr",
							"type": "address"
						}
					],
					"name": "transferOwnership1",
					"outputs": [],
					"stateMutability": "nonpayable",
					"type": "function"
				}
			],
			"devdoc": {
				"kind": "dev",
				"methods": {},
				"version": 1
			},
			"evm": {
				"assembly": "    /* \"demo1/23MyOwnable.sol\":60:611  contract MyOwnable {... */\n  mstore(0x40, 0x80)\n    /* \"demo1/23MyOwnable.sol\":131:132  0 */\n  0x00\n    /* \"demo1/23MyOwnable.sol\":113:132  uint public count=0 */\n  0x01\n  sstore\n    /* \"demo1/23MyOwnable.sol\":139:188  constructor() {... */\n  callvalue\n  dup1\n  iszero\n  tag_1\n  jumpi\n  revert(0x00, 0x00)\ntag_1:\n  pop\n    /* \"demo1/23MyOwnable.sol\":164:169  owner */\n  0x00\n    /* \"demo1/23MyOwnable.sol\":164:180  owner=msg.sender */\n  dup1\n  sload\n  not(sub(shl(0xa0, 0x01), 0x01))\n  and\n    /* \"demo1/23MyOwnable.sol\":170:180  msg.sender */\n  caller\n    /* \"demo1/23MyOwnable.sol\":164:180  owner=msg.sender */\n  or\n  swap1\n  sstore\n    /* \"demo1/23MyOwnable.sol\":60:611  contract MyOwnable {... */\n  dataSize(sub_0)\n  dup1\n  dataOffset(sub_0)\n  0x00\n  codecopy\n  0x00\n  return\nstop\n\nsub_0: assembly {\n        /* \"demo1/23MyOwnable.sol\":60:611  contract MyOwnable {... */\n      mstore(0x40, 0x80)\n      callvalue\n      dup1\n      iszero\n      tag_1\n      jumpi\n      revert(0x00, 0x00)\n    tag_1:\n      pop\n      jumpi(tag_2, lt(calldatasize, 0x04))\n      shr(0xe0, calldataload(0x00))\n      dup1\n      0x06661abd\n      eq\n      tag_3\n      jumpi\n      dup1\n      0x29c049e5\n      eq\n      tag_4\n      jumpi\n      dup1\n      0x371303c0\n      eq\n      tag_5\n      jumpi\n      dup1\n      0x8da5cb5b\n      eq\n      tag_6\n      jumpi\n      dup1\n      0xe982d5a9\n      eq\n      tag_7\n      jumpi\n    tag_2:\n      revert(0x00, 0x00)\n        /* \"demo1/23MyOwnable.sol\":113:132  uint public count=0 */\n    tag_3:\n      tag_8\n      sload(0x01)\n      dup2\n      jump\n    tag_8:\n      mload(0x40)\n        /* \"#utility.yul\":160:185   */\n      swap1\n      dup2\n      mstore\n        /* \"#utility.yul\":148:150   */\n      0x20\n        /* \"#utility.yul\":133:151   */\n      add\n        /* \"demo1/23MyOwnable.sol\":113:132  uint public count=0 */\n    tag_10:\n      mload(0x40)\n      dup1\n      swap2\n      sub\n      swap1\n      return\n        /* \"demo1/23MyOwnable.sol\":531:597  function ownerReset() external onlyOwner{... */\n    tag_4:\n      tag_12\n      tag_13\n      jump\t// in\n    tag_12:\n      stop\n        /* \"demo1/23MyOwnable.sol\":475:525  function inc() external{... */\n    tag_5:\n      tag_12\n      tag_15\n      jump\t// in\n        /* \"demo1/23MyOwnable.sol\":86:106  address public owner */\n    tag_6:\n      sload(0x00)\n      tag_16\n      swap1\n      sub(shl(0xa0, 0x01), 0x01)\n      and\n      dup2\n      jump\n    tag_16:\n      mload(0x40)\n      sub(shl(0xa0, 0x01), 0x01)\n        /* \"#utility.yul\":360:392   */\n      swap1\n      swap2\n      and\n        /* \"#utility.yul\":342:393   */\n      dup2\n      mstore\n        /* \"#utility.yul\":330:332   */\n      0x20\n        /* \"#utility.yul\":315:333   */\n      add\n        /* \"demo1/23MyOwnable.sol\":86:106  address public owner */\n      tag_10\n        /* \"#utility.yul\":196:399   */\n      jump\n        /* \"demo1/23MyOwnable.sol\":294:467  function transferOwnership1(address addr) external onlyOwner{... */\n    tag_7:\n      tag_12\n      tag_21\n      calldatasize\n      0x04\n      tag_22\n      jump\t// in\n    tag_21:\n      tag_23\n      jump\t// in\n        /* \"demo1/23MyOwnable.sol\":531:597  function ownerReset() external onlyOwner{... */\n    tag_13:\n        /* \"demo1/23MyOwnable.sol\":235:240  owner */\n      and(sub(shl(0xa0, 0x01), 0x01), sload(0x00))\n        /* \"demo1/23MyOwnable.sol\":242:252  msg.sender */\n      caller\n        /* \"demo1/23MyOwnable.sol\":235:252  owner==msg.sender */\n      eq\n        /* \"demo1/23MyOwnable.sol\":227:266  require(owner==msg.sender, \"not owner\") */\n      tag_25\n      jumpi\n      mload(0x40)\n      shl(0xe5, 0x461bcd)\n      dup2\n      mstore\n        /* \"#utility.yul\":897:899   */\n      0x20\n        /* \"demo1/23MyOwnable.sol\":227:266  require(owner==msg.sender, \"not owner\") */\n      0x04\n      dup3\n      add\n        /* \"#utility.yul\":879:900   */\n      mstore\n        /* \"#utility.yul\":936:937   */\n      0x09\n        /* \"#utility.yul\":916:934   */\n      0x24\n      dup3\n      add\n        /* \"#utility.yul\":909:938   */\n      mstore\n      shl(0xb9, 0x3737ba1037bbb732b9)\n        /* \"#utility.yul\":954:972   */\n      0x44\n      dup3\n      add\n        /* \"#utility.yul\":947:986   */\n      mstore\n        /* \"#utility.yul\":1003:1021   */\n      0x64\n      add\n        /* \"demo1/23MyOwnable.sol\":227:266  require(owner==msg.sender, \"not owner\") */\n    tag_26:\n      mload(0x40)\n      dup1\n      swap2\n      sub\n      swap1\n      revert\n    tag_25:\n        /* \"demo1/23MyOwnable.sol\":588:589  0 */\n      0x00\n        /* \"demo1/23MyOwnable.sol\":582:587  count */\n      0x01\n        /* \"demo1/23MyOwnable.sol\":582:589  count=0 */\n      sstore\n        /* \"demo1/23MyOwnable.sol\":531:597  function ownerReset() external onlyOwner{... */\n      jump\t// out\n        /* \"demo1/23MyOwnable.sol\":475:525  function inc() external{... */\n    tag_15:\n        /* \"demo1/23MyOwnable.sol\":516:517  1 */\n      0x01\n        /* \"demo1/23MyOwnable.sol\":509:514  count */\n      dup1\n      0x00\n        /* \"demo1/23MyOwnable.sol\":509:517  count+=1 */\n      dup3\n      dup3\n      sload\n      tag_30\n      swap2\n      swap1\n      tag_31\n      jump\t// in\n    tag_30:\n      swap1\n      swap2\n      sstore\n      pop\n      pop\n        /* \"demo1/23MyOwnable.sol\":475:525  function inc() external{... */\n      jump\t// out\n        /* \"demo1/23MyOwnable.sol\":294:467  function transferOwnership1(address addr) external onlyOwner{... */\n    tag_23:\n        /* \"demo1/23MyOwnable.sol\":235:240  owner */\n      and(sub(shl(0xa0, 0x01), 0x01), sload(0x00))\n        /* \"demo1/23MyOwnable.sol\":242:252  msg.sender */\n      caller\n        /* \"demo1/23MyOwnable.sol\":235:252  owner==msg.sender */\n      eq\n        /* \"demo1/23MyOwnable.sol\":227:266  require(owner==msg.sender, \"not owner\") */\n      tag_33\n      jumpi\n      mload(0x40)\n      shl(0xe5, 0x461bcd)\n      dup2\n      mstore\n        /* \"#utility.yul\":897:899   */\n      0x20\n        /* \"demo1/23MyOwnable.sol\":227:266  require(owner==msg.sender, \"not owner\") */\n      0x04\n      dup3\n      add\n        /* \"#utility.yul\":879:900   */\n      mstore\n        /* \"#utility.yul\":936:937   */\n      0x09\n        /* \"#utility.yul\":916:934   */\n      0x24\n      dup3\n      add\n        /* \"#utility.yul\":909:938   */\n      mstore\n      shl(0xb9, 0x3737ba1037bbb732b9)\n        /* \"#utility.yul\":954:972   */\n      0x44\n      dup3\n      add\n        /* \"#utility.yul\":947:986   */\n      mstore\n        /* \"#utility.yul\":1003:1021   */\n      0x64\n      add\n        /* \"demo1/23MyOwnable.sol\":227:266  require(owner==msg.sender, \"not owner\") */\n      tag_26\n        /* \"#utility.yul\":695:1027   */\n      jump\n        /* \"demo1/23MyOwnable.sol\":227:266  require(owner==msg.sender, \"not owner\") */\n    tag_33:\n        /* \"demo1/23MyOwnable.sol\":373:383  msg.sender */\n      caller\n        /* \"demo1/23MyOwnable.sol\":373:397  msg.sender != address(0) */\n      iszero\n      dup1\n      iszero\n      swap1\n        /* \"demo1/23MyOwnable.sol\":373:417  msg.sender != address(0) && addr!=address(0) */\n      tag_36\n      jumpi\n      pop\n      sub(shl(0xa0, 0x01), 0x01)\n        /* \"demo1/23MyOwnable.sol\":401:417  addr!=address(0) */\n      dup2\n      and\n      iszero\n      iszero\n        /* \"demo1/23MyOwnable.sol\":373:417  msg.sender != address(0) && addr!=address(0) */\n    tag_36:\n        /* \"demo1/23MyOwnable.sol\":365:436  require(msg.sender != address(0) && addr!=address(0), \"address error!\") */\n      tag_37\n      jumpi\n      mload(0x40)\n      shl(0xe5, 0x461bcd)\n      dup2\n      mstore\n        /* \"#utility.yul\":1461:1463   */\n      0x20\n        /* \"demo1/23MyOwnable.sol\":365:436  require(msg.sender != address(0) && addr!=address(0), \"address error!\") */\n      0x04\n      dup3\n      add\n        /* \"#utility.yul\":1443:1464   */\n      mstore\n        /* \"#utility.yul\":1500:1502   */\n      0x0e\n        /* \"#utility.yul\":1480:1498   */\n      0x24\n      dup3\n      add\n        /* \"#utility.yul\":1473:1503   */\n      mstore\n      shl(0x90, 0x61646472657373206572726f7221)\n        /* \"#utility.yul\":1519:1537   */\n      0x44\n      dup3\n      add\n        /* \"#utility.yul\":1512:1556   */\n      mstore\n        /* \"#utility.yul\":1573:1591   */\n      0x64\n      add\n        /* \"demo1/23MyOwnable.sol\":365:436  require(msg.sender != address(0) && addr!=address(0), \"address error!\") */\n      tag_26\n        /* \"#utility.yul\":1259:1597   */\n      jump\n        /* \"demo1/23MyOwnable.sol\":365:436  require(msg.sender != address(0) && addr!=address(0), \"address error!\") */\n    tag_37:\n        /* \"demo1/23MyOwnable.sol\":447:452  owner */\n      0x00\n        /* \"demo1/23MyOwnable.sol\":447:459  owner = addr */\n      dup1\n      sload\n      not(sub(shl(0xa0, 0x01), 0x01))\n      and\n      sub(shl(0xa0, 0x01), 0x01)\n      swap3\n      swap1\n      swap3\n      and\n      swap2\n      swap1\n      swap2\n      or\n      swap1\n      sstore\n        /* \"demo1/23MyOwnable.sol\":294:467  function transferOwnership1(address addr) external onlyOwner{... */\n      jump\t// out\n        /* \"#utility.yul\":404:690   */\n    tag_22:\n        /* \"#utility.yul\":463:469   */\n      0x00\n        /* \"#utility.yul\":516:518   */\n      0x20\n        /* \"#utility.yul\":504:513   */\n      dup3\n        /* \"#utility.yul\":495:502   */\n      dup5\n        /* \"#utility.yul\":491:514   */\n      sub\n        /* \"#utility.yul\":487:519   */\n      slt\n        /* \"#utility.yul\":484:536   */\n      iszero\n      tag_44\n      jumpi\n        /* \"#utility.yul\":532:533   */\n      0x00\n        /* \"#utility.yul\":529:530   */\n      0x00\n        /* \"#utility.yul\":522:534   */\n      revert\n        /* \"#utility.yul\":484:536   */\n    tag_44:\n        /* \"#utility.yul\":558:581   */\n      dup2\n      calldataload\n      sub(shl(0xa0, 0x01), 0x01)\n        /* \"#utility.yul\":610:641   */\n      dup2\n      and\n        /* \"#utility.yul\":600:642   */\n      dup2\n      eq\n        /* \"#utility.yul\":590:660   */\n      tag_45\n      jumpi\n        /* \"#utility.yul\":656:657   */\n      0x00\n        /* \"#utility.yul\":653:654   */\n      0x00\n        /* \"#utility.yul\":646:658   */\n      revert\n        /* \"#utility.yul\":590:660   */\n    tag_45:\n        /* \"#utility.yul\":679:684   */\n      swap4\n        /* \"#utility.yul\":404:690   */\n      swap3\n      pop\n      pop\n      pop\n      jump\t// out\n        /* \"#utility.yul\":1032:1254   */\n    tag_31:\n        /* \"#utility.yul\":1097:1106   */\n      dup1\n      dup3\n      add\n        /* \"#utility.yul\":1118:1128   */\n      dup1\n      dup3\n      gt\n        /* \"#utility.yul\":1115:1248   */\n      iszero\n      tag_48\n      jumpi\n        /* \"#utility.yul\":1170:1180   */\n      0x4e487b71\n        /* \"#utility.yul\":1165:1168   */\n      0xe0\n        /* \"#utility.yul\":1161:1181   */\n      shl\n        /* \"#utility.yul\":1158:1159   */\n      0x00\n        /* \"#utility.yul\":1151:1182   */\n      mstore\n        /* \"#utility.yul\":1205:1209   */\n      0x11\n        /* \"#utility.yul\":1202:1203   */\n      0x04\n        /* \"#utility.yul\":1195:1210   */\n      mstore\n        /* \"#utility.yul\":1233:1237   */\n      0x24\n        /* \"#utility.yul\":1230:1231   */\n      0x00\n        /* \"#utility.yul\":1223:1238   */\n      revert\n        /* \"#utility.yul\":1115:1248   */\n    tag_48:\n        /* \"#utility.yul\":1032:1254   */\n      swap3\n      swap2\n      pop\n      pop\n      jump\t// out\n\n    auxdata: 0xa26469706673582212208e1a471559ee82c38fc49eeb55bc1119f2c73e751cd61b71bc26fce65c1bc59964736f6c63430008210033\n}\n",
				"bytecode": {
					"linkReferences": {},
					"object": "60806040525f6001553480156012575f5ffd5b505f80546001600160a01b0319163317905561026e806100315f395ff3fe608060405234801561000f575f5ffd5b5060043610610055575f3560e01c806306661abd1461005957806329c049e514610075578063371303c01461007f5780638da5cb5b14610087578063e982d5a9146100b1575b5f5ffd5b61006260015481565b6040519081526020015b60405180910390f35b61007d6100c4565b005b61007d610114565b5f54610099906001600160a01b031681565b6040516001600160a01b03909116815260200161006c565b61007d6100bf3660046101e6565b61012c565b5f546001600160a01b0316331461010e5760405162461bcd60e51b81526020600482015260096024820152683737ba1037bbb732b960b91b60448201526064015b60405180910390fd5b5f600155565b6001805f8282546101259190610213565b9091555050565b5f546001600160a01b031633146101715760405162461bcd60e51b81526020600482015260096024820152683737ba1037bbb732b960b91b6044820152606401610105565b331580159061018857506001600160a01b03811615155b6101c55760405162461bcd60e51b815260206004820152600e60248201526d61646472657373206572726f722160901b6044820152606401610105565b5f80546001600160a01b0319166001600160a01b0392909216919091179055565b5f602082840312156101f6575f5ffd5b81356001600160a01b038116811461020c575f5ffd5b9392505050565b8082018082111561023257634e487b7160e01b5f52601160045260245ffd5b9291505056fea26469706673582212208e1a471559ee82c38fc49eeb55bc1119f2c73e751cd61b71bc26fce65c1bc59964736f6c63430008210033",
					"opcodes": "PUSH1 0x80 PUSH1 0x40 MSTORE PUSH0 PUSH1 0x1 SSTORE CALLVALUE DUP1 ISZERO PUSH1 0x12 JUMPI PUSH0 PUSH0 REVERT JUMPDEST POP PUSH0 DUP1 SLOAD PUSH1 0x1 PUSH1 0x1 PUSH1 0xA0 SHL SUB NOT AND CALLER OR SWAP1 SSTORE PUSH2 0x26E DUP1 PUSH2 0x31 PUSH0 CODECOPY PUSH0 RETURN INVALID PUSH1 0x80 PUSH1 0x40 MSTORE CALLVALUE DUP1 ISZERO PUSH2 0xF JUMPI PUSH0 PUSH0 REVERT JUMPDEST POP PUSH1 0x4 CALLDATASIZE LT PUSH2 0x55 JUMPI PUSH0 CALLDATALOAD PUSH1 0xE0 SHR DUP1 PUSH4 0x6661ABD EQ PUSH2 0x59 JUMPI DUP1 PUSH4 0x29C049E5 EQ PUSH2 0x75 JUMPI DUP1 PUSH4 0x371303C0 EQ PUSH2 0x7F JUMPI DUP1 PUSH4 0x8DA5CB5B EQ PUSH2 0x87 JUMPI DUP1 PUSH4 0xE982D5A9 EQ PUSH2 0xB1 JUMPI JUMPDEST PUSH0 PUSH0 REVERT JUMPDEST PUSH2 0x62 PUSH1 0x1 SLOAD DUP2 JUMP JUMPDEST PUSH1 0x40 MLOAD SWAP1 DUP2 MSTORE PUSH1 0x20 ADD JUMPDEST PUSH1 0x40 MLOAD DUP1 SWAP2 SUB SWAP1 RETURN JUMPDEST PUSH2 0x7D PUSH2 0xC4 JUMP JUMPDEST STOP JUMPDEST PUSH2 0x7D PUSH2 0x114 JUMP JUMPDEST PUSH0 SLOAD PUSH2 0x99 SWAP1 PUSH1 0x1 PUSH1 0x1 PUSH1 0xA0 SHL SUB AND DUP2 JUMP JUMPDEST PUSH1 0x40 MLOAD PUSH1 0x1 PUSH1 0x1 PUSH1 0xA0 SHL SUB SWAP1 SWAP2 AND DUP2 MSTORE PUSH1 0x20 ADD PUSH2 0x6C JUMP JUMPDEST PUSH2 0x7D PUSH2 0xBF CALLDATASIZE PUSH1 0x4 PUSH2 0x1E6 JUMP JUMPDEST PUSH2 0x12C JUMP JUMPDEST PUSH0 SLOAD PUSH1 0x1 PUSH1 0x1 PUSH1 0xA0 SHL SUB AND CALLER EQ PUSH2 0x10E JUMPI PUSH1 0x40 MLOAD PUSH3 0x461BCD PUSH1 0xE5 SHL DUP2 MSTORE PUSH1 0x20 PUSH1 0x4 DUP3 ADD MSTORE PUSH1 0x9 PUSH1 0x24 DUP3 ADD MSTORE PUSH9 0x3737BA1037BBB732B9 PUSH1 0xB9 SHL PUSH1 0x44 DUP3 ADD MSTORE PUSH1 0x64 ADD JUMPDEST PUSH1 0x40 MLOAD DUP1 SWAP2 SUB SWAP1 REVERT JUMPDEST PUSH0 PUSH1 0x1 SSTORE JUMP JUMPDEST PUSH1 0x1 DUP1 PUSH0 DUP3 DUP3 SLOAD PUSH2 0x125 SWAP2 SWAP1 PUSH2 0x213 JUMP JUMPDEST SWAP1 SWAP2 SSTORE POP POP JUMP JUMPDEST PUSH0 SLOAD PUSH1 0x1 PUSH1 0x1 PUSH1 0xA0 SHL SUB AND CALLER EQ PUSH2 0x171 JUMPI PUSH1 0x40 MLOAD PUSH3 0x461BCD PUSH1 0xE5 SHL DUP2 MSTORE PUSH1 0x20 PUSH1 0x4 DUP3 ADD MSTORE PUSH1 0x9 PUSH1 0x24 DUP3 ADD MSTORE PUSH9 0x3737BA1037BBB732B9 PUSH1 0xB9 SHL PUSH1 0x44 DUP3 ADD MSTORE PUSH1 0x64 ADD PUSH2 0x105 JUMP JUMPDEST CALLER ISZERO DUP1 ISZERO SWAP1 PUSH2 0x188 JUMPI POP PUSH1 0x1 PUSH1 0x1 PUSH1 0xA0 SHL SUB DUP2 AND ISZERO ISZERO JUMPDEST PUSH2 0x1C5 JUMPI PUSH1 0x40 MLOAD PUSH3 0x461BCD PUSH1 0xE5 SHL DUP2 MSTORE PUSH1 0x20 PUSH1 0x4 DUP3 ADD MSTORE PUSH1 0xE PUSH1 0x24 DUP3 ADD MSTORE PUSH14 0x61646472657373206572726F7221 PUSH1 0x90 SHL PUSH1 0x44 DUP3 ADD MSTORE PUSH1 0x64 ADD PUSH2 0x105 JUMP JUMPDEST PUSH0 DUP1 SLOAD PUSH1 0x1 PUSH1 0x1 PUSH1 0xA0 SHL SUB NOT AND PUSH1 0x1 PUSH1 0x1 PUSH1 0xA0 SHL SUB SWAP3 SWAP1 SWAP3 AND SWAP2 SWAP1 SWAP2 OR SWAP1 SSTORE JUMP JUMPDEST PUSH0 PUSH1 0x20 DUP3 DUP5 SUB SLT ISZERO PUSH2 0x1F6 JUMPI PUSH0 PUSH0 REVERT JUMPDEST DUP2 CALLDATALOAD PUSH1 0x1 PUSH1 0x1 PUSH1 0xA0 SHL SUB DUP2 AND DUP2 EQ PUSH2 0x20C JUMPI PUSH0 PUSH0 REVERT JUMPDEST SWAP4 SWAP3 POP POP POP JUMP JUMPDEST DUP1 DUP3 ADD DUP1 DUP3 GT ISZERO PUSH2 0x232 JUMPI PUSH4 0x4E487B71 PUSH1 0xE0 SHL PUSH0 MSTORE PUSH1 0x11 PUSH1 0x4 MSTORE PUSH1 0x24 PUSH0 REVERT JUMPDEST SWAP3 SWAP2 POP POP JUMP INVALID LOG2 PUSH5 0x6970667358 0x22 SLT KECCAK256 DUP15 BYTE SELFBALANCE ISZERO MSIZE RETURNCONTRACT 0x82 0xC3 DUP16 0xC4 SWAP15 0xEB SSTORE 0xBC GT NOT CALLCODE 0xC7 RETURNDATACOPY PUSH22 0x1CD61B71BC26FCE65C1BC59964736F6C634300082100 CALLER "
				},
				"gasEstimates": {
					"creation": {
						"codeDepositCost": "124400",
						"executionCost": "29408",
						"totalCost": "153808"
					},
					"external": {
						"count()": "2261",
						"inc()": "24464",
						"owner()": "2379",
						"ownerReset()": "7287",
						"transferOwnership1(address)": "26809"
					}
				},
				"methodIdentifiers": {
					"count()": "06661abd",
					"inc()": "371303c0",
					"owner()": "8da5cb5b",
					"ownerReset()": "29c049e5",
					"transferOwnership1(address)": "e982d5a9"
				}
			},
			"storageLayout": {
				"storage": [
					{
						"astId": 3,
						"contract": "demo1/23MyOwnable.sol:MyOwnable",
						"label": "owner",
						"offset": 0,
						"slot": "0",
						"type": "t_address"
					},
					{
						"astId": 6,
						"contract": "demo1/23MyOwnable.sol:MyOwnable",
						"label": "count",
						"offset": 0,
						"slot": "1",
						"type": "t_uint256"
					}
				],
				"types": {
					"t_address": {
						"encoding": "inplace",
						"label": "address",
						"numberOfBytes": "20"
					},
					"t_uint256": {
						"encoding": "inplace",
						"label": "uint256",
						"numberOfBytes": "32"
					}
				}
			},
			"userdoc": {
				"kind": "user",
				"methods": {},
				"version": 1
			}
		}
	}
}