{
	"work/SimpleStorage.sol": {
		"SimpleStorage": {
			"abi": [
				{
					"inputs": [],
					"name": "get",
					"outputs": [
						{
							"internalType": "uint256",
							"name": "",
							"type": "uint256"
						}
					],
					"stateMutability": "view",
					"type": "function"
				},
				{
					"inputs": [
						{
							"internalType": "uint256",
							"name": "x",
							"type": "uint256"
						}
					],
					"name": "set",
					"outputs": [],
					"stateMutability": "nonpayable",
					"type": "function"
				},
				{
					"inputs": [],
					"name": "storedData",
					"outputs": [
						{
							"internalType": "uint256",
							"name": "",
							"type": "uint256"
						}
					],
					"stateMutability": "view",
					"type": "function"
				}
			],
			"devdoc": {
				"kind": "dev",
				"methods": {},
				"version": 1
			},
			"evm": {
				"assembly": "    /* \"work/SimpleStorage.sol\":60:266  contract SimpleStorage {... */\n  mstore(0x40, 0x80)\n  callvalue\n  dup1\n  iszero\n  tag_1\n  jumpi\n  revert(0x00, 0x00)\ntag_1:\n  pop\n  dataSize(sub_0)\n  dup1\n  dataOffset(sub_0)\n  0x00\n  codecopy\n  0x00\n  return\nstop\n\nsub_0: assembly {\n        /* \"work/SimpleStorage.sol\":60:266  contract SimpleStorage {... */\n      mstore(0x40, 0x80)\n      callvalue\n      dup1\n      iszero\n      tag_1\n      jumpi\n      revert(0x00, 0x00)\n    tag_1:\n      pop\n      jumpi(tag_2, lt(calldatasize, 0x04))\n      shr(0xe0, calldataload(0x00))\n      dup1\n      0x2a1afcd9\n      eq\n      tag_3\n      jumpi\n      dup1\n      0x60fe47b1\n      eq\n      tag_4\n      jumpi\n      dup1\n      0x6d4ce63c\n      eq\n      tag_5\n      jumpi\n    tag_2:\n      revert(0x00, 0x00)\n        /* \"work/SimpleStorage.sol\":90:112  uint public storedData */\n    tag_3:\n      tag_6\n      sload(0x00)\n      dup2\n      jump\n    tag_6:\n      mload(0x40)\n        /* \"#utility.yul\":160:185   */\n      swap1\n      dup2\n      mstore\n        /* \"#utility.yul\":148:150   */\n      0x20\n        /* \"#utility.yul\":133:151   */\n      add\n        /* \"work/SimpleStorage.sol\":90:112  uint public storedData */\n      mload(0x40)\n      dup1\n      swap2\n      sub\n      swap1\n      return\n        /* \"work/SimpleStorage.sol\":119:180  function set(uint x) external {... */\n    tag_4:\n      tag_10\n      tag_11\n      calldatasize\n      0x04\n      tag_12\n      jump\t// in\n    tag_11:\n        /* \"work/SimpleStorage.sol\":160:170  storedData */\n      0x00\n        /* \"work/SimpleStorage.sol\":160:172  storedData=x */\n      sstore\n        /* \"work/SimpleStorage.sol\":119:180  function set(uint x) external {... */\n      jump\n    tag_10:\n      stop\n        /* \"work/SimpleStorage.sol\":186:263  function get() public view returns (uint){... */\n    tag_5:\n        /* \"work/SimpleStorage.sol\":222:226  uint */\n      0x00\n        /* \"work/SimpleStorage.sol\":245:255  storedData */\n      sload\n        /* \"work/SimpleStorage.sol\":186:263  function get() public view returns (uint){... */\n      jump(tag_6)\n        /* \"#utility.yul\":196:376   */\n    tag_12:\n        /* \"#utility.yul\":255:261   */\n      0x00\n        /* \"#utility.yul\":308:310   */\n      0x20\n        /* \"#utility.yul\":296:305   */\n      dup3\n        /* \"#utility.yul\":287:294   */\n      dup5\n        /* \"#utility.yul\":283:306   */\n      sub\n        /* \"#utility.yul\":279:311   */\n      slt\n        /* \"#utility.yul\":276:328   */\n      iszero\n      tag_22\n      jumpi\n        /* \"#utility.yul\":324:325   */\n      0x00\n        /* \"#utility.yul\":321:322   */\n      0x00\n        /* \"#utility.yul\":314:326   */\n      revert\n        /* \"#utility.yul\":276:328   */\n    tag_22:\n      pop\n        /* \"#utility.yul\":347:370   */\n      calldataload\n      swap2\n        /* \"#utility.yul\":196:376   */\n      swap1\n      pop\n      jump\t// out\n\n    auxdata: 0xa2646970667358221220e3ea7059ee26f03de3a05fa1ce7133bb087f77a77703b080519239d62a54f3c364736f6c63430008210033\n}\n",
				"bytecode": {
					"linkReferences": {},
					"object": "6080604052348015600e575f5ffd5b5060ba80601a5f395ff3fe6080604052348015600e575f5ffd5b5060043610603a575f3560e01c80632a1afcd914603e57806360fe47b11460575780636d4ce63c146068575b5f5ffd5b60455f5481565b60405190815260200160405180910390f35b60666062366004606e565b5f55565b005b5f546045565b5f60208284031215607d575f5ffd5b503591905056fea2646970667358221220e3ea7059ee26f03de3a05fa1ce7133bb087f77a77703b080519239d62a54f3c364736f6c63430008210033",
					"opcodes": "PUSH1 0x80 PUSH1 0x40 MSTORE CALLVALUE DUP1 ISZERO PUSH1 0xE JUMPI PUSH0 PUSH0 REVERT JUMPDEST POP PUSH1 0xBA DUP1 PUSH1 0x1A PUSH0 CODECOPY PUSH0 RETURN INVALID PUSH1 0x80 PUSH1 0x40 MSTORE CALLVALUE DUP1 ISZERO PUSH1 0xE JUMPI PUSH0 PUSH0 REVERT JUMPDEST POP PUSH1 0x4 CALLDATASIZE LT PUSH1 0x3A JUMPI PUSH0 CALLDATALOAD PUSH1 0xE0 SHR DUP1 PUSH4 0x2A1AFCD9 EQ PUSH1 0x3E JUMPI DUP1 PUSH4 0x60FE47B1 EQ PUSH1 0x57 JUMPI DUP1 PUSH4 0x6D4CE63C EQ PUSH1 0x68 JUMPI JUMPDEST PUSH0 PUSH0 REVERT JUMPDEST PUSH1 0x45 PUSH0 SLOAD DUP2 JUMP JUMPDEST PUSH1 0x40 MLOAD SWAP1 DUP2 MSTORE PUSH1 0x20 ADD PUSH1 0x40 MLOAD DUP1 SWAP2 SUB SWAP1 RETURN JUMPDEST PUSH1 0x66 PUSH1 0x62 CALLDATASIZE PUSH1 0x4 PUSH1 0x6E JUMP JUMPDEST PUSH0 SSTORE JUMP JUMPDEST STOP JUMPDEST PUSH0 SLOAD PUSH1 0x45 JUMP JUMPDEST PUSH0 PUSH1 0x20 DUP3 DUP5 SUB SLT ISZERO PUSH1 0x7D JUMPI PUSH0 PUSH0 REVERT JUMPDEST POP CALLDATALOAD SWAP2 SWAP1 POP JUMP INVALID LOG2 PUSH5 0x6970667358 0x22 SLT KECCAK256 CALLF 0xEA70 MSIZE RETURNCONTRACT 0x26 CREATE RETURNDATASIZE CALLF 0xA05F LOG1 0xCE PUSH18 0x33BB087F77A77703B080519239D62A54F3C3 PUSH5 0x736F6C6343 STOP ADDMOD 0x21 STOP CALLER "
				},
				"gasEstimates": {
					"creation": {
						"codeDepositCost": "37200",
						"executionCost": "85",
						"totalCost": "37285"
					},
					"external": {
						"get()": "2300",
						"set(uint256)": "22309",
						"storedData()": "2259"
					}
				},
				"methodIdentifiers": {
					"get()": "6d4ce63c",
					"set(uint256)": "60fe47b1",
					"storedData()": "2a1afcd9"
				}
			},
			"storageLayout": {
				"storage": [
					{
						"astId": 3,
						"contract": "work/SimpleStorage.sol:SimpleStorage",
						"label": "storedData",
						"offset": 0,
						"slot": "0",
						"type": "t_uint256"
					}
				],
				"types": {
					"t_uint256": {
						"encoding": "inplace",
						"label": "uint256",
						"numberOfBytes": "32"
					}
				}
			},
			"userdoc": {
				"kind": "user",
				"methods": {},
				"version": 1
			}
		}
	}
}