{
	"data": {
		"bytecode": {
			"linkReferences": {},
			"object": "60e060405260016080908152600260a052600460c0525f90610021908261005f565b5060408051606081018252600681526003602082018190529181019190915260019061004d90826100ca565b50348015610059575f5ffd5b506100f3565b805460038255806003101561009857815f5260205f2060021982015f5b81811015610094575f8382016003015560010161007c565b5050505b5081815f5260205f205f5b60038110156100c357825160ff16828201556020909201916001016100a3565b5050505050565b815f5b60038110156100ed57815160ff16838201556020909101906001016100cd565b50505050565b61024f806101005f395ff3fe608060405234801561000f575f5ffd5b5060043610610034575f3560e01c80635883732914610038578063c6a407f014610056575b5f5ffd5b610040610060565b60405161004d91906101af565b60405180910390f35b61005e6100b5565b005b60605f8054806020026020016040519081016040528092919081815260200182805480156100ab57602002820191905f5260205f20905b815481526020019060010190808311610097575b5050505050905090565b5f805460018101825581805260067f290decd9548b62a8d60345a988386fc84ba6bc95484008f6362f93160ef3e5639091015580546064919081906100fc576100fc6101f1565b905f5260205f2001819055505f60038154811061011b5761011b6101f1565b905f5260205f20015f90555f80548061013657610136610205565b600190038181905f5260205f20015f905590555f5f5f8154811061015c5761015c6101f1565b5f91825260208220015460408051600580825260c0820190925291935081602001602082028036833701905050905060d5815f8151811061019f5761019f6101f1565b6020026020010181815250505050565b602080825282518282018190525f918401906040840190835b818110156101e65783518352602093840193909201916001016101c8565b509095945050505050565b634e487b7160e01b5f52603260045260245ffd5b634e487b7160e01b5f52603160045260245ffdfea2646970667358221220d0e2f9e72fe1a4c1fa4f0acc28fadc258043e4b20ba48ab4c7876671d4f610ba64736f6c63430008210033",
			"opcodes": "PUSH1 0xE0 PUSH1 0x40 MSTORE PUSH1 0x1 PUSH1 0x80 SWAP1 DUP2 MSTORE PUSH1 0x2 PUSH1 0xA0 MSTORE PUSH1 0x4 PUSH1 0xC0 MSTORE PUSH0 SWAP1 PUSH2 0x21 SWAP1 DUP3 PUSH2 0x5F JUMP JUMPDEST POP PUSH1 0x40 DUP1 MLOAD PUSH1 0x60 DUP2 ADD DUP3 MSTORE PUSH1 0x6 DUP2 MSTORE PUSH1 0x3 PUSH1 0x20 DUP3 ADD DUP2 SWAP1 MSTORE SWAP2 DUP2 ADD SWAP2 SWAP1 SWAP2 MSTORE PUSH1 0x1 SWAP1 PUSH2 0x4D SWAP1 DUP3 PUSH2 0xCA JUMP JUMPDEST POP CALLVALUE DUP1 ISZERO PUSH2 0x59 JUMPI PUSH0 PUSH0 REVERT JUMPDEST POP PUSH2 0xF3 JUMP JUMPDEST DUP1 SLOAD PUSH1 0x3 DUP3 SSTORE DUP1 PUSH1 0x3 LT ISZERO PUSH2 0x98 JUMPI DUP2 PUSH0 MSTORE PUSH1 0x20 PUSH0 KECCAK256 PUSH1 0x2 NOT DUP3 ADD PUSH0 JUMPDEST DUP2 DUP2 LT ISZERO PUSH2 0x94 JUMPI PUSH0 DUP4 DUP3 ADD PUSH1 0x3 ADD SSTORE PUSH1 0x1 ADD PUSH2 0x7C JUMP JUMPDEST POP POP POP JUMPDEST POP DUP2 DUP2 PUSH0 MSTORE PUSH1 0x20 PUSH0 KECCAK256 PUSH0 JUMPDEST PUSH1 0x3 DUP2 LT ISZERO PUSH2 0xC3 JUMPI DUP3 MLOAD PUSH1 0xFF AND DUP3 DUP3 ADD SSTORE PUSH1 0x20 SWAP1 SWAP3 ADD SWAP2 PUSH1 0x1 ADD PUSH2 0xA3 JUMP JUMPDEST POP POP POP POP POP JUMP JUMPDEST DUP2 PUSH0 JUMPDEST PUSH1 0x3 DUP2 LT ISZERO PUSH2 0xED JUMPI DUP2 MLOAD PUSH1 0xFF AND DUP4 DUP3 ADD SSTORE PUSH1 0x20 SWAP1 SWAP2 ADD SWAP1 PUSH1 0x1 ADD PUSH2 0xCD JUMP JUMPDEST POP POP POP POP JUMP JUMPDEST PUSH2 0x24F DUP1 PUSH2 0x100 PUSH0 CODECOPY PUSH0 RETURN INVALID PUSH1 0x80 PUSH1 0x40 MSTORE CALLVALUE DUP1 ISZERO PUSH2 0xF JUMPI PUSH0 PUSH0 REVERT JUMPDEST POP PUSH1 0x4 CALLDATASIZE LT PUSH2 0x34 JUMPI PUSH0 CALLDATALOAD PUSH1 0xE0 SHR DUP1 PUSH4 0x58837329 EQ PUSH2 0x38 JUMPI DUP1 PUSH4 0xC6A407F0 EQ PUSH2 0x56 JUMPI JUMPDEST PUSH0 PUSH0 REVERT JUMPDEST PUSH2 0x40 PUSH2 0x60 JUMP JUMPDEST PUSH1 0x40 MLOAD PUSH2 0x4D SWAP2 SWAP1 PUSH2 0x1AF JUMP JUMPDEST PUSH1 0x40 MLOAD DUP1 SWAP2 SUB SWAP1 RETURN JUMPDEST PUSH2 0x5E PUSH2 0xB5 JUMP JUMPDEST STOP JUMPDEST PUSH1 0x60 PUSH0 DUP1 SLOAD DUP1 PUSH1 0x20 MUL PUSH1 0x20 ADD PUSH1 0x40 MLOAD SWAP1 DUP2 ADD PUSH1 0x40 MSTORE DUP1 SWAP3 SWAP2 SWAP1 DUP2 DUP2 MSTORE PUSH1 0x20 ADD DUP3 DUP1 SLOAD DUP1 ISZERO PUSH2 0xAB JUMPI PUSH1 0x20 MUL DUP3 ADD SWAP2 SWAP1 PUSH0 MSTORE PUSH1 0x20 PUSH0 KECCAK256 SWAP1 JUMPDEST DUP2 SLOAD DUP2 MSTORE PUSH1 0x20 ADD SWAP1 PUSH1 0x1 ADD SWAP1 DUP1 DUP4 GT PUSH2 0x97 JUMPI JUMPDEST POP POP POP POP POP SWAP1 POP SWAP1 JUMP JUMPDEST PUSH0 DUP1 SLOAD PUSH1 0x1 DUP2 ADD DUP3 SSTORE DUP2 DUP1 MSTORE PUSH1 0x6 PUSH32 0x290DECD9548B62A8D60345A988386FC84BA6BC95484008F6362F93160EF3E563 SWAP1 SWAP2 ADD SSTORE DUP1 SLOAD PUSH1 0x64 SWAP2 SWAP1 DUP2 SWAP1 PUSH2 0xFC JUMPI PUSH2 0xFC PUSH2 0x1F1 JUMP JUMPDEST SWAP1 PUSH0 MSTORE PUSH1 0x20 PUSH0 KECCAK256 ADD DUP2 SWAP1 SSTORE POP PUSH0 PUSH1 0x3 DUP2 SLOAD DUP2 LT PUSH2 0x11B JUMPI PUSH2 0x11B PUSH2 0x1F1 JUMP JUMPDEST SWAP1 PUSH0 MSTORE PUSH1 0x20 PUSH0 KECCAK256 ADD PUSH0 SWAP1 SSTORE PUSH0 DUP1 SLOAD DUP1 PUSH2 0x136 JUMPI PUSH2 0x136 PUSH2 0x205 JUMP JUMPDEST PUSH1 0x1 SWAP1 SUB DUP2 DUP2 SWAP1 PUSH0 MSTORE PUSH1 0x20 PUSH0 KECCAK256 ADD PUSH0 SWAP1 SSTORE SWAP1 SSTORE PUSH0 PUSH0 PUSH0 DUP2 SLOAD DUP2 LT PUSH2 0x15C JUMPI PUSH2 0x15C PUSH2 0x1F1 JUMP JUMPDEST PUSH0 SWAP2 DUP3 MSTORE PUSH1 0x20 DUP3 KECCAK256 ADD SLOAD PUSH1 0x40 DUP1 MLOAD PUSH1 0x5 DUP1 DUP3 MSTORE PUSH1 0xC0 DUP3 ADD SWAP1 SWAP3 MSTORE SWAP2 SWAP4 POP DUP2 PUSH1 0x20 ADD PUSH1 0x20 DUP3 MUL DUP1 CALLDATASIZE DUP4 CALLDATACOPY ADD SWAP1 POP POP SWAP1 POP PUSH1 0xD5 DUP2 PUSH0 DUP2 MLOAD DUP2 LT PUSH2 0x19F JUMPI PUSH2 0x19F PUSH2 0x1F1 JUMP JUMPDEST PUSH1 0x20 MUL PUSH1 0x20 ADD ADD DUP2 DUP2 MSTORE POP POP POP POP JUMP JUMPDEST PUSH1 0x20 DUP1 DUP3 MSTORE DUP3 MLOAD DUP3 DUP3 ADD DUP2 SWAP1 MSTORE PUSH0 SWAP2 DUP5 ADD SWAP1 PUSH1 0x40 DUP5 ADD SWAP1 DUP4 JUMPDEST DUP2 DUP2 LT ISZERO PUSH2 0x1E6 JUMPI DUP4 MLOAD DUP4 MSTORE PUSH1 0x20 SWAP4 DUP5 ADD SWAP4 SWAP1 SWAP3 ADD SWAP2 PUSH1 0x1 ADD PUSH2 0x1C8 JUMP JUMPDEST POP SWAP1 SWAP6 SWAP5 POP POP POP POP POP JUMP JUMPDEST PUSH4 0x4E487B71 PUSH1 0xE0 SHL PUSH0 MSTORE PUSH1 0x32 PUSH1 0x4 MSTORE PUSH1 0x24 PUSH0 REVERT JUMPDEST PUSH4 0x4E487B71 PUSH1 0xE0 SHL PUSH0 MSTORE PUSH1 0x31 PUSH1 0x4 MSTORE PUSH1 0x24 PUSH0 REVERT INVALID LOG2 PUSH5 0x6970667358 0x22 SLT KECCAK256 0xD0 0xE2 EXTDELEGATECALL SWAPN 0x2F RJUMPI 0xA4C1 STATICCALL 0x4F EXP 0xCC 0x28 STATICCALL 0xDC 0x25 DUP1 NUMBER RETF 0xB2 SIGNEXTEND LOG4 DUP11 0xB4 0xC7 DUP8 PUSH7 0x71D4F610BA6473 PUSH16 0x6C634300082100330000000000000000 "
		},
		"gasEstimates": {
			"creation": {
				"codeDepositCost": "118200",
				"executionCost": "infinite",
				"totalCost": "infinite"
			},
			"external": {
				"ary()": "111740",
				"retArrya()": "infinite"
			}
		},
		"methodIdentifiers": {
			"ary()": "c6a407f0",
			"retArrya()": "58837329"
		}
	},
	"abi": [
		{
			"inputs": [],
			"name": "ary",
			"outputs": [],
			"stateMutability": "nonpayable",
			"type": "function"
		},
		{
			"inputs": [],
			"name": "retArrya",
			"outputs": [
				{
					"internalType": "uint256[]",
					"name": "",
					"type": "uint256[]"
				}
			],
			"stateMutability": "view",
			"type": "function"
		}
	]
}