{
	"data": {
		"bytecode": {
			"linkReferences": {},
			"object": "6080604052348015600e575f5ffd5b506101728061001c5f395ff3fe608060405234801561000f575f5ffd5b5060043610610034575f3560e01c8063165c4a1614610038578063f88e9fbf1461005d575b5f5ffd5b61004b6100463660046100da565b610070565b60405190815260200160405180910390f35b61004b61006b3660046100da565b610084565b5f61007b82846100fa565b90505b92915050565b5f815f036100d05760405162461bcd60e51b815260206004820152601560248201527443616e6e6f7420646976696465206279207a65726f60581b604482015260640160405180910390fd5b61007b828461011d565b5f5f604083850312156100eb575f5ffd5b50508035926020909101359150565b808202811582820484141761007e57634e487b7160e01b5f52601160045260245ffd5b5f8261013757634e487b7160e01b5f52601260045260245ffd5b50049056fea2646970667358221220db62a882892ab92ee0a5fcc4c517885b434a9008f55a3603050f355980762d9a64736f6c634300081e0033",
			"opcodes": "PUSH1 0x80 PUSH1 0x40 MSTORE CALLVALUE DUP1 ISZERO PUSH1 0xE JUMPI PUSH0 PUSH0 REVERT JUMPDEST POP PUSH2 0x172 DUP1 PUSH2 0x1C PUSH0 CODECOPY PUSH0 RETURN INVALID PUSH1 0x80 PUSH1 0x40 MSTORE CALLVALUE DUP1 ISZERO PUSH2 0xF JUMPI PUSH0 PUSH0 REVERT JUMPDEST POP PUSH1 0x4 CALLDATASIZE LT PUSH2 0x34 JUMPI PUSH0 CALLDATALOAD PUSH1 0xE0 SHR DUP1 PUSH4 0x165C4A16 EQ PUSH2 0x38 JUMPI DUP1 PUSH4 0xF88E9FBF EQ PUSH2 0x5D JUMPI JUMPDEST PUSH0 PUSH0 REVERT JUMPDEST PUSH2 0x4B PUSH2 0x46 CALLDATASIZE PUSH1 0x4 PUSH2 0xDA JUMP JUMPDEST PUSH2 0x70 JUMP JUMPDEST PUSH1 0x40 MLOAD SWAP1 DUP2 MSTORE PUSH1 0x20 ADD PUSH1 0x40 MLOAD DUP1 SWAP2 SUB SWAP1 RETURN JUMPDEST PUSH2 0x4B PUSH2 0x6B CALLDATASIZE PUSH1 0x4 PUSH2 0xDA JUMP JUMPDEST PUSH2 0x84 JUMP JUMPDEST PUSH0 PUSH2 0x7B DUP3 DUP5 PUSH2 0xFA JUMP JUMPDEST SWAP1 POP JUMPDEST SWAP3 SWAP2 POP POP JUMP JUMPDEST PUSH0 DUP2 PUSH0 SUB PUSH2 0xD0 JUMPI PUSH1 0x40 MLOAD PUSH3 0x461BCD PUSH1 0xE5 SHL DUP2 MSTORE PUSH1 0x20 PUSH1 0x4 DUP3 ADD MSTORE PUSH1 0x15 PUSH1 0x24 DUP3 ADD MSTORE PUSH21 0x43616E6E6F7420646976696465206279207A65726F PUSH1 0x58 SHL PUSH1 0x44 DUP3 ADD MSTORE PUSH1 0x64 ADD PUSH1 0x40 MLOAD DUP1 SWAP2 SUB SWAP1 REVERT JUMPDEST PUSH2 0x7B DUP3 DUP5 PUSH2 0x11D JUMP JUMPDEST PUSH0 PUSH0 PUSH1 0x40 DUP4 DUP6 SUB SLT ISZERO PUSH2 0xEB JUMPI PUSH0 PUSH0 REVERT JUMPDEST POP POP DUP1 CALLDATALOAD SWAP3 PUSH1 0x20 SWAP1 SWAP2 ADD CALLDATALOAD SWAP2 POP JUMP JUMPDEST DUP1 DUP3 MUL DUP2 ISZERO DUP3 DUP3 DIV DUP5 EQ OR PUSH2 0x7E JUMPI PUSH4 0x4E487B71 PUSH1 0xE0 SHL PUSH0 MSTORE PUSH1 0x11 PUSH1 0x4 MSTORE PUSH1 0x24 PUSH0 REVERT JUMPDEST PUSH0 DUP3 PUSH2 0x137 JUMPI PUSH4 0x4E487B71 PUSH1 0xE0 SHL PUSH0 MSTORE PUSH1 0x12 PUSH1 0x4 MSTORE PUSH1 0x24 PUSH0 REVERT JUMPDEST POP DIV SWAP1 JUMP INVALID LOG2 PUSH5 0x6970667358 0x22 SLT KECCAK256 0xDB PUSH3 0xA88289 0x2A 0xB9 0x2E RJUMP 0xA5FC 0xC4 0xC5 OR DUP9 JUMPDEST NUMBER BLOBBASEFEE SWAP1 ADDMOD CREATE2 GAS CALLDATASIZE SUB SDIV 0xF CALLDATALOAD MSIZE DUP1 PUSH23 0x2D9A64736F6C634300081E003300000000000000000000 "
		},
		"gasEstimates": {
			"creation": {
				"codeDepositCost": "74000",
				"executionCost": "121",
				"totalCost": "74121"
			},
			"external": {
				"divide(uint256,uint256)": "385",
				"multiply(uint256,uint256)": "infinite"
			}
		},
		"methodIdentifiers": {
			"divide(uint256,uint256)": "f88e9fbf",
			"multiply(uint256,uint256)": "165c4a16"
		}
	},
	"abi": [
		{
			"inputs": [
				{
					"internalType": "uint256",
					"name": "x",
					"type": "uint256"
				},
				{
					"internalType": "uint256",
					"name": "y",
					"type": "uint256"
				}
			],
			"name": "divide",
			"outputs": [
				{
					"internalType": "uint256",
					"name": "",
					"type": "uint256"
				}
			],
			"stateMutability": "pure",
			"type": "function"
		},
		{
			"inputs": [
				{
					"internalType": "uint256",
					"name": "x",
					"type": "uint256"
				},
				{
					"internalType": "uint256",
					"name": "y",
					"type": "uint256"
				}
			],
			"name": "multiply",
			"outputs": [
				{
					"internalType": "uint256",
					"name": "",
					"type": "uint256"
				}
			],
			"stateMutability": "pure",
			"type": "function"
		}
	]
}