{
	"data": {
		"bytecode": {
			"linkReferences": {},
			"object": "608060405234801561000f575f80fd5b5060fa8061001c5f395ff3fe6080604052348015600e575f80fd5b5060043610603a575f3560e01c8063371303c014603e5780634e70b1dc146046578063b3bcfa8214605f575b5f80fd5b60446065565b005b604d5f5481565b60405190815260200160405180910390f35b6044607b565b60015f8082825460749190609e565b9091555050565b60015f808282546074919060b4565b634e487b7160e01b5f52601160045260245ffd5b8082018082111560ae5760ae608a565b92915050565b8181038181111560ae5760ae608a56fea26469706673582212208f0913bb69be36539bb3d614c68848763b72ed867d22e392c736cce88f71524464736f6c63430008170033",
			"opcodes": "PUSH1 0x80 PUSH1 0x40 MSTORE CALLVALUE DUP1 ISZERO PUSH2 0xF JUMPI PUSH0 DUP1 REVERT JUMPDEST POP PUSH1 0xFA DUP1 PUSH2 0x1C PUSH0 CODECOPY PUSH0 RETURN INVALID PUSH1 0x80 PUSH1 0x40 MSTORE CALLVALUE DUP1 ISZERO PUSH1 0xE JUMPI PUSH0 DUP1 REVERT JUMPDEST POP PUSH1 0x4 CALLDATASIZE LT PUSH1 0x3A JUMPI PUSH0 CALLDATALOAD PUSH1 0xE0 SHR DUP1 PUSH4 0x371303C0 EQ PUSH1 0x3E JUMPI DUP1 PUSH4 0x4E70B1DC EQ PUSH1 0x46 JUMPI DUP1 PUSH4 0xB3BCFA82 EQ PUSH1 0x5F JUMPI JUMPDEST PUSH0 DUP1 REVERT JUMPDEST PUSH1 0x44 PUSH1 0x65 JUMP JUMPDEST STOP JUMPDEST PUSH1 0x4D PUSH0 SLOAD DUP2 JUMP JUMPDEST PUSH1 0x40 MLOAD SWAP1 DUP2 MSTORE PUSH1 0x20 ADD PUSH1 0x40 MLOAD DUP1 SWAP2 SUB SWAP1 RETURN JUMPDEST PUSH1 0x44 PUSH1 0x7B JUMP JUMPDEST PUSH1 0x1 PUSH0 DUP1 DUP3 DUP3 SLOAD PUSH1 0x74 SWAP2 SWAP1 PUSH1 0x9E JUMP JUMPDEST SWAP1 SWAP2 SSTORE POP POP JUMP JUMPDEST PUSH1 0x1 PUSH0 DUP1 DUP3 DUP3 SLOAD PUSH1 0x74 SWAP2 SWAP1 PUSH1 0xB4 JUMP JUMPDEST PUSH4 0x4E487B71 PUSH1 0xE0 SHL PUSH0 MSTORE PUSH1 0x11 PUSH1 0x4 MSTORE PUSH1 0x24 PUSH0 REVERT JUMPDEST DUP1 DUP3 ADD DUP1 DUP3 GT ISZERO PUSH1 0xAE JUMPI PUSH1 0xAE PUSH1 0x8A JUMP JUMPDEST SWAP3 SWAP2 POP POP JUMP JUMPDEST DUP2 DUP2 SUB DUP2 DUP2 GT ISZERO PUSH1 0xAE JUMPI PUSH1 0xAE PUSH1 0x8A JUMP INVALID LOG2 PUSH5 0x6970667358 0x22 SLT KECCAK256 DUP16 MULMOD SGT 0xBB PUSH10 0xBE36539BB3D614C68848 PUSH23 0x3B72ED867D22E392C736CCE88F71524464736F6C634300 ADDMOD OR STOP CALLER "
		},
		"gasEstimates": {
			"creation": {
				"codeDepositCost": "50000",
				"executionCost": "97",
				"totalCost": "50097"
			},
			"external": {
				"dec()": "24464",
				"inc()": "24420",
				"num()": "2281"
			}
		},
		"methodIdentifiers": {
			"dec()": "b3bcfa82",
			"inc()": "371303c0",
			"num()": "4e70b1dc"
		}
	},
	"abi": [
		{
			"inputs": [],
			"name": "dec",
			"outputs": [],
			"stateMutability": "nonpayable",
			"type": "function"
		},
		{
			"inputs": [],
			"name": "inc",
			"outputs": [],
			"stateMutability": "nonpayable",
			"type": "function"
		},
		{
			"inputs": [],
			"name": "num",
			"outputs": [
				{
					"internalType": "uint256",
					"name": "",
					"type": "uint256"
				}
			],
			"stateMutability": "view",
			"type": "function"
		}
	]
}