{
	"data": {
		"bytecode": {
			"linkReferences": {},
			"object": "60a060405234801561000f575f80fd5b50604051610e35380380610e3583398101604081905261002e9161003f565b6001600160a01b031660805261006c565b5f6020828403121561004f575f80fd5b81516001600160a01b0381168114610065575f80fd5b9392505050565b608051610d956100a05f395f81816101eb015281816103210152818161070a015281816109c10152610b6d0152610d955ff3fe608060405234801561000f575f80fd5b506004361061009b575f3560e01c806340e58ee51161006357806340e58ee514610196578063711853ab146101a9578063aa4fb63a146101bc578063fc0c546a146101e6578063fde327be14610225575f80fd5b806306661abd1461009f578063141961bc146100ba578063278ecde11461015b5780632c63f14614610170578063379607f514610183575b5f80fd5b6100a75f5481565b6040519081526020015b60405180910390f35b6101196100c8366004610c14565b600160208190525f918252604090912080549181015460028201546003909201546001600160a01b039093169290919063ffffffff80821691600160201b810490911690600160401b900460ff1686565b604080516001600160a01b03909716875260208701959095529385019290925263ffffffff9081166060850152166080830152151560a082015260c0016100b1565b61016e610169366004610c14565b610238565b005b61016e61017e366004610c43565b6103c9565b61016e610191366004610c14565b61059c565b61016e6101a4366004610c14565b6107ad565b61016e6101b7366004610c7c565b61090a565b6100a76101ca366004610c9c565b600260209081525f928352604080842090915290825290205481565b61020d7f000000000000000000000000000000000000000000000000000000000000000081565b6040516001600160a01b0390911681526020016100b1565b61016e610233366004610c7c565b610a68565b5f8181526001602052604090206003810154600160201b900463ffffffff1642116102965760405162461bcd60e51b81526020600482015260096024820152681b9bdd08195b99195960ba1b60448201526064015b60405180910390fd5b80600101548160020154106102df5760405162461bcd60e51b815260206004820152600f60248201526e1c1b195919d959080f8f4819dbd85b608a1b604482015260640161028d565b5f82815260026020908152604080832033808552925280832080549390555163a9059cbb60e01b81526004810191909152602481018290526001600160a01b037f0000000000000000000000000000000000000000000000000000000000000000169063a9059cbb906044016020604051808303815f875af1158015610367573d5f803e3d5ffd5b505050506040513d601f19601f8201168201806040525081019061038b9190610cd5565b50604051818152339084907f21e12a7cad0da5928167e1084ea4d5fdf8d9af66657a2543a9ac76a0ca081477906020015b60405180910390a3505050565b8163ffffffff168163ffffffff16116104175760405162461bcd60e51b815260206004820152601060248201526f195b99105d080f0f481cdd185c9d105d60821b604482015260640161028d565b62278d008163ffffffff1611156104605760405162461bcd60e51b815260206004820152600d60248201526c656e64203e203330206461797360981b604482015260640161028d565b5f61046b8342610d0f565b90505f6104788342610d0f565b905060015f8082825461048b9190610d33565b90915550506040805160c0810182523380825260208083018981525f84860181815263ffffffff89811660608089018281528b84166080808c0182815260a08d0189815289548a526001808d528f8b209e518f546001600160a01b0319166001600160a01b03909116178f559a519a8e019a909a55965160028d015591516003909b018054965198519b861667ffffffffffffffff1990971696909617600160201b98909516979097029390931760ff60401b1916600160401b9915159990990298909817909255915487519081529384018c90528387015293820152925190927f0601cd0d650b473037e838a2696d41e654433d065b3f56b28d1d3302e44a304f92908290030190a25050505050565b5f81815260016020526040902080546001600160a01b031633146105f05760405162461bcd60e51b815260206004820152600b60248201526a3737ba1031b932b0ba37b960a91b604482015260640161028d565b6003810154600160201b900463ffffffff16421161063c5760405162461bcd60e51b81526020600482015260096024820152681b9bdd08195b99195960ba1b604482015260640161028d565b8060010154816002015410156106855760405162461bcd60e51b815260206004820152600e60248201526d1c1b195919d959080f0819dbd85b60921b604482015260640161028d565b6003810154600160401b900460ff16156106cb5760405162461bcd60e51b815260206004820152600760248201526618db185a5b595960ca1b604482015260640161028d565b60038101805460ff60401b1916600160401b179055600281015460405163a9059cbb60e01b815233600482015260248101919091526001600160a01b037f0000000000000000000000000000000000000000000000000000000000000000169063a9059cbb906044016020604051808303815f875af1158015610750573d5f803e3d5ffd5b505050506040513d601f19601f820116820180604052508101906107749190610cd5565b506040518281527f7bb2b3c10797baccb6f8c4791f1edd6ca2f0d028ee0eda64b01a9a57e3a653f7906020015b60405180910390a15050565b5f81815260016020818152604092839020835160c08101855281546001600160a01b0316808252938201549281019290925260028101549382019390935260039092015463ffffffff8082166060850152600160201b8204166080840152600160401b900460ff16151560a083015233146108585760405162461bcd60e51b815260206004820152600b60248201526a3737ba1031b932b0ba37b960a91b604482015260640161028d565b806060015163ffffffff16421061089b5760405162461bcd60e51b81526020600482015260076024820152661cdd185c9d195960ca1b604482015260640161028d565b5f82815260016020819052604080832080546001600160a01b03191681559182018390556002820192909255600301805468ffffffffffffffffff19169055517f8bf30e7ff26833413be5f69e1d373744864d600b664204b4a2f9844a8eedb9ed906107a19084815260200190565b5f8281526001602052604090206003810154600160201b900463ffffffff164211156109605760405162461bcd60e51b8152602060048201526005602482015264195b99195960da1b604482015260640161028d565b81816002015f8282546109739190610d4c565b90915550505f838152600260209081526040808320338452909152812080548492906109a0908490610d4c565b909155505060405163a9059cbb60e01b8152336004820152602481018390527f00000000000000000000000000000000000000000000000000000000000000006001600160a01b03169063a9059cbb906044016020604051808303815f875af1158015610a0f573d5f803e3d5ffd5b505050506040513d601f19601f82011682018060405250810190610a339190610cd5565b50604051828152339084907f2eeeab891b26a214d1b25749f88a406bdea852bd8c9bfda977e0ef8114c180ba906020016103bc565b5f828152600160205260409020600381015463ffffffff16421015610abd5760405162461bcd60e51b815260206004820152600b60248201526a1b9bdd081cdd185c9d195960aa1b604482015260640161028d565b6003810154600160201b900463ffffffff16421115610b065760405162461bcd60e51b8152602060048201526005602482015264195b99195960da1b604482015260640161028d565b81816002015f828254610b199190610d33565b90915550505f83815260026020908152604080832033845290915281208054849290610b46908490610d33565b90915550506040516323b872dd60e01b8152336004820152306024820152604481018390527f00000000000000000000000000000000000000000000000000000000000000006001600160a01b0316906323b872dd906064016020604051808303815f875af1158015610bbb573d5f803e3d5ffd5b505050506040513d601f19601f82011682018060405250810190610bdf9190610cd5565b50604051828152339084907f06bdb975df800a73232998e71ed585d536222f1dfeaa622d7f62a23ada686c82906020016103bc565b5f60208284031215610c24575f80fd5b5035919050565b803563ffffffff81168114610c3e575f80fd5b919050565b5f805f60608486031215610c55575f80fd5b83359250610c6560208501610c2b565b9150610c7360408501610c2b565b90509250925092565b5f8060408385031215610c8d575f80fd5b50508035926020909101359150565b5f8060408385031215610cad575f80fd5b8235915060208301356001600160a01b0381168114610cca575f80fd5b809150509250929050565b5f60208284031215610ce5575f80fd5b81518015158114610cf4575f80fd5b9392505050565b634e487b7160e01b5f52601160045260245ffd5b63ffffffff818116838216019080821115610d2c57610d2c610cfb565b5092915050565b80820180821115610d4657610d46610cfb565b92915050565b81810381811115610d4657610d46610cfb56fea2646970667358221220884c4afed37a4caac3a92cfca2478683604b1e54e704d32e2f05657b73c440ba64736f6c63430008170033",
			"opcodes": "PUSH1 0xA0 PUSH1 0x40 MSTORE CALLVALUE DUP1 ISZERO PUSH2 0xF JUMPI PUSH0 DUP1 REVERT JUMPDEST POP PUSH1 0x40 MLOAD PUSH2 0xE35 CODESIZE SUB DUP1 PUSH2 0xE35 DUP4 CODECOPY DUP2 ADD PUSH1 0x40 DUP2 SWAP1 MSTORE PUSH2 0x2E SWAP2 PUSH2 0x3F JUMP JUMPDEST PUSH1 0x1 PUSH1 0x1 PUSH1 0xA0 SHL SUB AND PUSH1 0x80 MSTORE PUSH2 0x6C JUMP JUMPDEST PUSH0 PUSH1 0x20 DUP3 DUP5 SUB SLT ISZERO PUSH2 0x4F JUMPI PUSH0 DUP1 REVERT JUMPDEST DUP2 MLOAD PUSH1 0x1 PUSH1 0x1 PUSH1 0xA0 SHL SUB DUP2 AND DUP2 EQ PUSH2 0x65 JUMPI PUSH0 DUP1 REVERT JUMPDEST SWAP4 SWAP3 POP POP POP JUMP JUMPDEST PUSH1 0x80 MLOAD PUSH2 0xD95 PUSH2 0xA0 PUSH0 CODECOPY PUSH0 DUP2 DUP2 PUSH2 0x1EB ADD MSTORE DUP2 DUP2 PUSH2 0x321 ADD MSTORE DUP2 DUP2 PUSH2 0x70A ADD MSTORE DUP2 DUP2 PUSH2 0x9C1 ADD MSTORE PUSH2 0xB6D ADD MSTORE PUSH2 0xD95 PUSH0 RETURN INVALID PUSH1 0x80 PUSH1 0x40 MSTORE CALLVALUE DUP1 ISZERO PUSH2 0xF JUMPI PUSH0 DUP1 REVERT JUMPDEST POP PUSH1 0x4 CALLDATASIZE LT PUSH2 0x9B JUMPI PUSH0 CALLDATALOAD PUSH1 0xE0 SHR DUP1 PUSH4 0x40E58EE5 GT PUSH2 0x63 JUMPI DUP1 PUSH4 0x40E58EE5 EQ PUSH2 0x196 JUMPI DUP1 PUSH4 0x711853AB EQ PUSH2 0x1A9 JUMPI DUP1 PUSH4 0xAA4FB63A EQ PUSH2 0x1BC JUMPI DUP1 PUSH4 0xFC0C546A EQ PUSH2 0x1E6 JUMPI DUP1 PUSH4 0xFDE327BE EQ PUSH2 0x225 JUMPI PUSH0 DUP1 REVERT JUMPDEST DUP1 PUSH4 0x6661ABD EQ PUSH2 0x9F JUMPI DUP1 PUSH4 0x141961BC EQ PUSH2 0xBA JUMPI DUP1 PUSH4 0x278ECDE1 EQ PUSH2 0x15B JUMPI DUP1 PUSH4 0x2C63F146 EQ PUSH2 0x170 JUMPI DUP1 PUSH4 0x379607F5 EQ PUSH2 0x183 JUMPI JUMPDEST PUSH0 DUP1 REVERT JUMPDEST PUSH2 0xA7 PUSH0 SLOAD DUP2 JUMP JUMPDEST PUSH1 0x40 MLOAD SWAP1 DUP2 MSTORE PUSH1 0x20 ADD JUMPDEST PUSH1 0x40 MLOAD DUP1 SWAP2 SUB SWAP1 RETURN JUMPDEST PUSH2 0x119 PUSH2 0xC8 CALLDATASIZE PUSH1 0x4 PUSH2 0xC14 JUMP JUMPDEST PUSH1 0x1 PUSH1 0x20 DUP2 SWAP1 MSTORE PUSH0 SWAP2 DUP3 MSTORE PUSH1 0x40 SWAP1 SWAP2 KECCAK256 DUP1 SLOAD SWAP2 DUP2 ADD SLOAD PUSH1 0x2 DUP3 ADD SLOAD PUSH1 0x3 SWAP1 SWAP3 ADD SLOAD PUSH1 0x1 PUSH1 0x1 PUSH1 0xA0 SHL SUB SWAP1 SWAP4 AND SWAP3 SWAP1 SWAP2 SWAP1 PUSH4 0xFFFFFFFF DUP1 DUP3 AND SWAP2 PUSH1 0x1 PUSH1 0x20 SHL DUP2 DIV SWAP1 SWAP2 AND SWAP1 PUSH1 0x1 PUSH1 0x40 SHL SWAP1 DIV PUSH1 0xFF AND DUP7 JUMP JUMPDEST PUSH1 0x40 DUP1 MLOAD PUSH1 0x1 PUSH1 0x1 PUSH1 0xA0 SHL SUB SWAP1 SWAP8 AND DUP8 MSTORE PUSH1 0x20 DUP8 ADD SWAP6 SWAP1 SWAP6 MSTORE SWAP4 DUP6 ADD SWAP3 SWAP1 SWAP3 MSTORE PUSH4 0xFFFFFFFF SWAP1 DUP2 AND PUSH1 0x60 DUP6 ADD MSTORE AND PUSH1 0x80 DUP4 ADD MSTORE ISZERO ISZERO PUSH1 0xA0 DUP3 ADD MSTORE PUSH1 0xC0 ADD PUSH2 0xB1 JUMP JUMPDEST PUSH2 0x16E PUSH2 0x169 CALLDATASIZE PUSH1 0x4 PUSH2 0xC14 JUMP JUMPDEST PUSH2 0x238 JUMP JUMPDEST STOP JUMPDEST PUSH2 0x16E PUSH2 0x17E CALLDATASIZE PUSH1 0x4 PUSH2 0xC43 JUMP JUMPDEST PUSH2 0x3C9 JUMP JUMPDEST PUSH2 0x16E PUSH2 0x191 CALLDATASIZE PUSH1 0x4 PUSH2 0xC14 JUMP JUMPDEST PUSH2 0x59C JUMP JUMPDEST PUSH2 0x16E PUSH2 0x1A4 CALLDATASIZE PUSH1 0x4 PUSH2 0xC14 JUMP JUMPDEST PUSH2 0x7AD JUMP JUMPDEST PUSH2 0x16E PUSH2 0x1B7 CALLDATASIZE PUSH1 0x4 PUSH2 0xC7C JUMP JUMPDEST PUSH2 0x90A JUMP JUMPDEST PUSH2 0xA7 PUSH2 0x1CA CALLDATASIZE PUSH1 0x4 PUSH2 0xC9C JUMP JUMPDEST PUSH1 0x2 PUSH1 0x20 SWAP1 DUP2 MSTORE PUSH0 SWAP3 DUP4 MSTORE PUSH1 0x40 DUP1 DUP5 KECCAK256 SWAP1 SWAP2 MSTORE SWAP1 DUP3 MSTORE SWAP1 KECCAK256 SLOAD DUP2 JUMP JUMPDEST PUSH2 0x20D PUSH32 0x0 DUP2 JUMP JUMPDEST PUSH1 0x40 MLOAD PUSH1 0x1 PUSH1 0x1 PUSH1 0xA0 SHL SUB SWAP1 SWAP2 AND DUP2 MSTORE PUSH1 0x20 ADD PUSH2 0xB1 JUMP JUMPDEST PUSH2 0x16E PUSH2 0x233 CALLDATASIZE PUSH1 0x4 PUSH2 0xC7C JUMP JUMPDEST PUSH2 0xA68 JUMP JUMPDEST PUSH0 DUP2 DUP2 MSTORE PUSH1 0x1 PUSH1 0x20 MSTORE PUSH1 0x40 SWAP1 KECCAK256 PUSH1 0x3 DUP2 ADD SLOAD PUSH1 0x1 PUSH1 0x20 SHL SWAP1 DIV PUSH4 0xFFFFFFFF AND TIMESTAMP GT PUSH2 0x296 JUMPI PUSH1 0x40 MLOAD PUSH3 0x461BCD PUSH1 0xE5 SHL DUP2 MSTORE PUSH1 0x20 PUSH1 0x4 DUP3 ADD MSTORE PUSH1 0x9 PUSH1 0x24 DUP3 ADD MSTORE PUSH9 0x1B9BDD08195B991959 PUSH1 0xBA SHL PUSH1 0x44 DUP3 ADD MSTORE PUSH1 0x64 ADD JUMPDEST PUSH1 0x40 MLOAD DUP1 SWAP2 SUB SWAP1 REVERT JUMPDEST DUP1 PUSH1 0x1 ADD SLOAD DUP2 PUSH1 0x2 ADD SLOAD LT PUSH2 0x2DF JUMPI PUSH1 0x40 MLOAD PUSH3 0x461BCD PUSH1 0xE5 SHL DUP2 MSTORE PUSH1 0x20 PUSH1 0x4 DUP3 ADD MSTORE PUSH1 0xF PUSH1 0x24 DUP3 ADD MSTORE PUSH15 0x1C1B195919D959080F8F4819DBD85B PUSH1 0x8A SHL PUSH1 0x44 DUP3 ADD MSTORE PUSH1 0x64 ADD PUSH2 0x28D JUMP JUMPDEST PUSH0 DUP3 DUP2 MSTORE PUSH1 0x2 PUSH1 0x20 SWAP1 DUP2 MSTORE PUSH1 0x40 DUP1 DUP4 KECCAK256 CALLER DUP1 DUP6 MSTORE SWAP3 MSTORE DUP1 DUP4 KECCAK256 DUP1 SLOAD SWAP4 SWAP1 SSTORE MLOAD PUSH4 0xA9059CBB PUSH1 0xE0 SHL DUP2 MSTORE PUSH1 0x4 DUP2 ADD SWAP2 SWAP1 SWAP2 MSTORE PUSH1 0x24 DUP2 ADD DUP3 SWAP1 MSTORE PUSH1 0x1 PUSH1 0x1 PUSH1 0xA0 SHL SUB PUSH32 0x0 AND SWAP1 PUSH4 0xA9059CBB SWAP1 PUSH1 0x44 ADD PUSH1 0x20 PUSH1 0x40 MLOAD DUP1 DUP4 SUB DUP2 PUSH0 DUP8 GAS CALL ISZERO DUP1 ISZERO PUSH2 0x367 JUMPI RETURNDATASIZE PUSH0 DUP1 RETURNDATACOPY RETURNDATASIZE PUSH0 REVERT JUMPDEST POP POP POP POP PUSH1 0x40 MLOAD RETURNDATASIZE PUSH1 0x1F NOT PUSH1 0x1F DUP3 ADD AND DUP3 ADD DUP1 PUSH1 0x40 MSTORE POP DUP2 ADD SWAP1 PUSH2 0x38B SWAP2 SWAP1 PUSH2 0xCD5 JUMP JUMPDEST POP PUSH1 0x40 MLOAD DUP2 DUP2 MSTORE CALLER SWAP1 DUP5 SWAP1 PUSH32 0x21E12A7CAD0DA5928167E1084EA4D5FDF8D9AF66657A2543A9AC76A0CA081477 SWAP1 PUSH1 0x20 ADD JUMPDEST PUSH1 0x40 MLOAD DUP1 SWAP2 SUB SWAP1 LOG3 POP POP POP JUMP JUMPDEST DUP2 PUSH4 0xFFFFFFFF AND DUP2 PUSH4 0xFFFFFFFF AND GT PUSH2 0x417 JUMPI PUSH1 0x40 MLOAD PUSH3 0x461BCD PUSH1 0xE5 SHL DUP2 MSTORE PUSH1 0x20 PUSH1 0x4 DUP3 ADD MSTORE PUSH1 0x10 PUSH1 0x24 DUP3 ADD MSTORE PUSH16 0x195B99105D080F0F481CDD185C9D105D PUSH1 0x82 SHL PUSH1 0x44 DUP3 ADD MSTORE PUSH1 0x64 ADD PUSH2 0x28D JUMP JUMPDEST PUSH3 0x278D00 DUP2 PUSH4 0xFFFFFFFF AND GT ISZERO PUSH2 0x460 JUMPI PUSH1 0x40 MLOAD PUSH3 0x461BCD PUSH1 0xE5 SHL DUP2 MSTORE PUSH1 0x20 PUSH1 0x4 DUP3 ADD MSTORE PUSH1 0xD PUSH1 0x24 DUP3 ADD MSTORE PUSH13 0x656E64203E2033302064617973 PUSH1 0x98 SHL PUSH1 0x44 DUP3 ADD MSTORE PUSH1 0x64 ADD PUSH2 0x28D JUMP JUMPDEST PUSH0 PUSH2 0x46B DUP4 TIMESTAMP PUSH2 0xD0F JUMP JUMPDEST SWAP1 POP PUSH0 PUSH2 0x478 DUP4 TIMESTAMP PUSH2 0xD0F JUMP JUMPDEST SWAP1 POP PUSH1 0x1 PUSH0 DUP1 DUP3 DUP3 SLOAD PUSH2 0x48B SWAP2 SWAP1 PUSH2 0xD33 JUMP JUMPDEST SWAP1 SWAP2 SSTORE POP POP PUSH1 0x40 DUP1 MLOAD PUSH1 0xC0 DUP2 ADD DUP3 MSTORE CALLER DUP1 DUP3 MSTORE PUSH1 0x20 DUP1 DUP4 ADD DUP10 DUP2 MSTORE PUSH0 DUP5 DUP7 ADD DUP2 DUP2 MSTORE PUSH4 0xFFFFFFFF DUP10 DUP2 AND PUSH1 0x60 DUP1 DUP10 ADD DUP3 DUP2 MSTORE DUP12 DUP5 AND PUSH1 0x80 DUP1 DUP13 ADD DUP3 DUP2 MSTORE PUSH1 0xA0 DUP14 ADD DUP10 DUP2 MSTORE DUP10 SLOAD DUP11 MSTORE PUSH1 0x1 DUP1 DUP14 MSTORE DUP16 DUP12 KECCAK256 SWAP15 MLOAD DUP16 SLOAD PUSH1 0x1 PUSH1 0x1 PUSH1 0xA0 SHL SUB NOT AND PUSH1 0x1 PUSH1 0x1 PUSH1 0xA0 SHL SUB SWAP1 SWAP2 AND OR DUP16 SSTORE SWAP11 MLOAD SWAP11 DUP15 ADD SWAP11 SWAP1 SWAP11 SSTORE SWAP7 MLOAD PUSH1 0x2 DUP14 ADD SSTORE SWAP2 MLOAD PUSH1 0x3 SWAP1 SWAP12 ADD DUP1 SLOAD SWAP7 MLOAD SWAP9 MLOAD SWAP12 DUP7 AND PUSH8 0xFFFFFFFFFFFFFFFF NOT SWAP1 SWAP8 AND SWAP7 SWAP1 SWAP7 OR PUSH1 0x1 PUSH1 0x20 SHL SWAP9 SWAP1 SWAP6 AND SWAP8 SWAP1 SWAP8 MUL SWAP4 SWAP1 SWAP4 OR PUSH1 0xFF PUSH1 0x40 SHL NOT AND PUSH1 0x1 PUSH1 0x40 SHL SWAP10 ISZERO ISZERO SWAP10 SWAP1 SWAP10 MUL SWAP9 SWAP1 SWAP9 OR SWAP1 SWAP3 SSTORE SWAP2 SLOAD DUP8 MLOAD SWAP1 DUP2 MSTORE SWAP4 DUP5 ADD DUP13 SWAP1 MSTORE DUP4 DUP8 ADD MSTORE SWAP4 DUP3 ADD MSTORE SWAP3 MLOAD SWAP1 SWAP3 PUSH32 0x601CD0D650B473037E838A2696D41E654433D065B3F56B28D1D3302E44A304F SWAP3 SWAP1 DUP3 SWAP1 SUB ADD SWAP1 LOG2 POP POP POP POP POP JUMP JUMPDEST PUSH0 DUP2 DUP2 MSTORE PUSH1 0x1 PUSH1 0x20 MSTORE PUSH1 0x40 SWAP1 KECCAK256 DUP1 SLOAD PUSH1 0x1 PUSH1 0x1 PUSH1 0xA0 SHL SUB AND CALLER EQ PUSH2 0x5F0 JUMPI PUSH1 0x40 MLOAD PUSH3 0x461BCD PUSH1 0xE5 SHL DUP2 MSTORE PUSH1 0x20 PUSH1 0x4 DUP3 ADD MSTORE PUSH1 0xB PUSH1 0x24 DUP3 ADD MSTORE PUSH11 0x3737BA1031B932B0BA37B9 PUSH1 0xA9 SHL PUSH1 0x44 DUP3 ADD MSTORE PUSH1 0x64 ADD PUSH2 0x28D JUMP JUMPDEST PUSH1 0x3 DUP2 ADD SLOAD PUSH1 0x1 PUSH1 0x20 SHL SWAP1 DIV PUSH4 0xFFFFFFFF AND TIMESTAMP GT PUSH2 0x63C JUMPI PUSH1 0x40 MLOAD PUSH3 0x461BCD PUSH1 0xE5 SHL DUP2 MSTORE PUSH1 0x20 PUSH1 0x4 DUP3 ADD MSTORE PUSH1 0x9 PUSH1 0x24 DUP3 ADD MSTORE PUSH9 0x1B9BDD08195B991959 PUSH1 0xBA SHL PUSH1 0x44 DUP3 ADD MSTORE PUSH1 0x64 ADD PUSH2 0x28D JUMP JUMPDEST DUP1 PUSH1 0x1 ADD SLOAD DUP2 PUSH1 0x2 ADD SLOAD LT ISZERO PUSH2 0x685 JUMPI PUSH1 0x40 MLOAD PUSH3 0x461BCD PUSH1 0xE5 SHL DUP2 MSTORE PUSH1 0x20 PUSH1 0x4 DUP3 ADD MSTORE PUSH1 0xE PUSH1 0x24 DUP3 ADD MSTORE PUSH14 0x1C1B195919D959080F0819DBD85B PUSH1 0x92 SHL PUSH1 0x44 DUP3 ADD MSTORE PUSH1 0x64 ADD PUSH2 0x28D JUMP JUMPDEST PUSH1 0x3 DUP2 ADD SLOAD PUSH1 0x1 PUSH1 0x40 SHL SWAP1 DIV PUSH1 0xFF AND ISZERO PUSH2 0x6CB JUMPI PUSH1 0x40 MLOAD PUSH3 0x461BCD PUSH1 0xE5 SHL DUP2 MSTORE PUSH1 0x20 PUSH1 0x4 DUP3 ADD MSTORE PUSH1 0x7 PUSH1 0x24 DUP3 ADD MSTORE PUSH7 0x18DB185A5B5959 PUSH1 0xCA SHL PUSH1 0x44 DUP3 ADD MSTORE PUSH1 0x64 ADD PUSH2 0x28D JUMP JUMPDEST PUSH1 0x3 DUP2 ADD DUP1 SLOAD PUSH1 0xFF PUSH1 0x40 SHL NOT AND PUSH1 0x1 PUSH1 0x40 SHL OR SWAP1 SSTORE PUSH1 0x2 DUP2 ADD SLOAD PUSH1 0x40 MLOAD PUSH4 0xA9059CBB PUSH1 0xE0 SHL DUP2 MSTORE CALLER PUSH1 0x4 DUP3 ADD MSTORE PUSH1 0x24 DUP2 ADD SWAP2 SWAP1 SWAP2 MSTORE PUSH1 0x1 PUSH1 0x1 PUSH1 0xA0 SHL SUB PUSH32 0x0 AND SWAP1 PUSH4 0xA9059CBB SWAP1 PUSH1 0x44 ADD PUSH1 0x20 PUSH1 0x40 MLOAD DUP1 DUP4 SUB DUP2 PUSH0 DUP8 GAS CALL ISZERO DUP1 ISZERO PUSH2 0x750 JUMPI RETURNDATASIZE PUSH0 DUP1 RETURNDATACOPY RETURNDATASIZE PUSH0 REVERT JUMPDEST POP POP POP POP PUSH1 0x40 MLOAD RETURNDATASIZE PUSH1 0x1F NOT PUSH1 0x1F DUP3 ADD AND DUP3 ADD DUP1 PUSH1 0x40 MSTORE POP DUP2 ADD SWAP1 PUSH2 0x774 SWAP2 SWAP1 PUSH2 0xCD5 JUMP JUMPDEST POP PUSH1 0x40 MLOAD DUP3 DUP2 MSTORE PUSH32 0x7BB2B3C10797BACCB6F8C4791F1EDD6CA2F0D028EE0EDA64B01A9A57E3A653F7 SWAP1 PUSH1 0x20 ADD JUMPDEST PUSH1 0x40 MLOAD DUP1 SWAP2 SUB SWAP1 LOG1 POP POP JUMP JUMPDEST PUSH0 DUP2 DUP2 MSTORE PUSH1 0x1 PUSH1 0x20 DUP2 DUP2 MSTORE PUSH1 0x40 SWAP3 DUP4 SWAP1 KECCAK256 DUP4 MLOAD PUSH1 0xC0 DUP2 ADD DUP6 MSTORE DUP2 SLOAD PUSH1 0x1 PUSH1 0x1 PUSH1 0xA0 SHL SUB AND DUP1 DUP3 MSTORE SWAP4 DUP3 ADD SLOAD SWAP3 DUP2 ADD SWAP3 SWAP1 SWAP3 MSTORE PUSH1 0x2 DUP2 ADD SLOAD SWAP4 DUP3 ADD SWAP4 SWAP1 SWAP4 MSTORE PUSH1 0x3 SWAP1 SWAP3 ADD SLOAD PUSH4 0xFFFFFFFF DUP1 DUP3 AND PUSH1 0x60 DUP6 ADD MSTORE PUSH1 0x1 PUSH1 0x20 SHL DUP3 DIV AND PUSH1 0x80 DUP5 ADD MSTORE PUSH1 0x1 PUSH1 0x40 SHL SWAP1 DIV PUSH1 0xFF AND ISZERO ISZERO PUSH1 0xA0 DUP4 ADD MSTORE CALLER EQ PUSH2 0x858 JUMPI PUSH1 0x40 MLOAD PUSH3 0x461BCD PUSH1 0xE5 SHL DUP2 MSTORE PUSH1 0x20 PUSH1 0x4 DUP3 ADD MSTORE PUSH1 0xB PUSH1 0x24 DUP3 ADD MSTORE PUSH11 0x3737BA1031B932B0BA37B9 PUSH1 0xA9 SHL PUSH1 0x44 DUP3 ADD MSTORE PUSH1 0x64 ADD PUSH2 0x28D JUMP JUMPDEST DUP1 PUSH1 0x60 ADD MLOAD PUSH4 0xFFFFFFFF AND TIMESTAMP LT PUSH2 0x89B JUMPI PUSH1 0x40 MLOAD PUSH3 0x461BCD PUSH1 0xE5 SHL DUP2 MSTORE PUSH1 0x20 PUSH1 0x4 DUP3 ADD MSTORE PUSH1 0x7 PUSH1 0x24 DUP3 ADD MSTORE PUSH7 0x1CDD185C9D1959 PUSH1 0xCA SHL PUSH1 0x44 DUP3 ADD MSTORE PUSH1 0x64 ADD PUSH2 0x28D JUMP JUMPDEST PUSH0 DUP3 DUP2 MSTORE PUSH1 0x1 PUSH1 0x20 DUP2 SWAP1 MSTORE PUSH1 0x40 DUP1 DUP4 KECCAK256 DUP1 SLOAD PUSH1 0x1 PUSH1 0x1 PUSH1 0xA0 SHL SUB NOT AND DUP2 SSTORE SWAP2 DUP3 ADD DUP4 SWAP1 SSTORE PUSH1 0x2 DUP3 ADD SWAP3 SWAP1 SWAP3 SSTORE PUSH1 0x3 ADD DUP1 SLOAD PUSH9 0xFFFFFFFFFFFFFFFFFF NOT AND SWAP1 SSTORE MLOAD PUSH32 0x8BF30E7FF26833413BE5F69E1D373744864D600B664204B4A2F9844A8EEDB9ED SWAP1 PUSH2 0x7A1 SWAP1 DUP5 DUP2 MSTORE PUSH1 0x20 ADD SWAP1 JUMP JUMPDEST PUSH0 DUP3 DUP2 MSTORE PUSH1 0x1 PUSH1 0x20 MSTORE PUSH1 0x40 SWAP1 KECCAK256 PUSH1 0x3 DUP2 ADD SLOAD PUSH1 0x1 PUSH1 0x20 SHL SWAP1 DIV PUSH4 0xFFFFFFFF AND TIMESTAMP GT ISZERO PUSH2 0x960 JUMPI PUSH1 0x40 MLOAD PUSH3 0x461BCD PUSH1 0xE5 SHL DUP2 MSTORE PUSH1 0x20 PUSH1 0x4 DUP3 ADD MSTORE PUSH1 0x5 PUSH1 0x24 DUP3 ADD MSTORE PUSH5 0x195B991959 PUSH1 0xDA SHL PUSH1 0x44 DUP3 ADD MSTORE PUSH1 0x64 ADD PUSH2 0x28D JUMP JUMPDEST DUP2 DUP2 PUSH1 0x2 ADD PUSH0 DUP3 DUP3 SLOAD PUSH2 0x973 SWAP2 SWAP1 PUSH2 0xD4C JUMP JUMPDEST SWAP1 SWAP2 SSTORE POP POP PUSH0 DUP4 DUP2 MSTORE PUSH1 0x2 PUSH1 0x20 SWAP1 DUP2 MSTORE PUSH1 0x40 DUP1 DUP4 KECCAK256 CALLER DUP5 MSTORE SWAP1 SWAP2 MSTORE DUP2 KECCAK256 DUP1 SLOAD DUP5 SWAP3 SWAP1 PUSH2 0x9A0 SWAP1 DUP5 SWAP1 PUSH2 0xD4C JUMP JUMPDEST SWAP1 SWAP2 SSTORE POP POP PUSH1 0x40 MLOAD PUSH4 0xA9059CBB PUSH1 0xE0 SHL DUP2 MSTORE CALLER PUSH1 0x4 DUP3 ADD MSTORE PUSH1 0x24 DUP2 ADD DUP4 SWAP1 MSTORE PUSH32 0x0 PUSH1 0x1 PUSH1 0x1 PUSH1 0xA0 SHL SUB AND SWAP1 PUSH4 0xA9059CBB SWAP1 PUSH1 0x44 ADD PUSH1 0x20 PUSH1 0x40 MLOAD DUP1 DUP4 SUB DUP2 PUSH0 DUP8 GAS CALL ISZERO DUP1 ISZERO PUSH2 0xA0F JUMPI RETURNDATASIZE PUSH0 DUP1 RETURNDATACOPY RETURNDATASIZE PUSH0 REVERT JUMPDEST POP POP POP POP PUSH1 0x40 MLOAD RETURNDATASIZE PUSH1 0x1F NOT PUSH1 0x1F DUP3 ADD AND DUP3 ADD DUP1 PUSH1 0x40 MSTORE POP DUP2 ADD SWAP1 PUSH2 0xA33 SWAP2 SWAP1 PUSH2 0xCD5 JUMP JUMPDEST POP PUSH1 0x40 MLOAD DUP3 DUP2 MSTORE CALLER SWAP1 DUP5 SWAP1 PUSH32 0x2EEEAB891B26A214D1B25749F88A406BDEA852BD8C9BFDA977E0EF8114C180BA SWAP1 PUSH1 0x20 ADD PUSH2 0x3BC JUMP JUMPDEST PUSH0 DUP3 DUP2 MSTORE PUSH1 0x1 PUSH1 0x20 MSTORE PUSH1 0x40 SWAP1 KECCAK256 PUSH1 0x3 DUP2 ADD SLOAD PUSH4 0xFFFFFFFF AND TIMESTAMP LT ISZERO PUSH2 0xABD JUMPI PUSH1 0x40 MLOAD PUSH3 0x461BCD PUSH1 0xE5 SHL DUP2 MSTORE PUSH1 0x20 PUSH1 0x4 DUP3 ADD MSTORE PUSH1 0xB PUSH1 0x24 DUP3 ADD MSTORE PUSH11 0x1B9BDD081CDD185C9D1959 PUSH1 0xAA SHL PUSH1 0x44 DUP3 ADD MSTORE PUSH1 0x64 ADD PUSH2 0x28D JUMP JUMPDEST PUSH1 0x3 DUP2 ADD SLOAD PUSH1 0x1 PUSH1 0x20 SHL SWAP1 DIV PUSH4 0xFFFFFFFF AND TIMESTAMP GT ISZERO PUSH2 0xB06 JUMPI PUSH1 0x40 MLOAD PUSH3 0x461BCD PUSH1 0xE5 SHL DUP2 MSTORE PUSH1 0x20 PUSH1 0x4 DUP3 ADD MSTORE PUSH1 0x5 PUSH1 0x24 DUP3 ADD MSTORE PUSH5 0x195B991959 PUSH1 0xDA SHL PUSH1 0x44 DUP3 ADD MSTORE PUSH1 0x64 ADD PUSH2 0x28D JUMP JUMPDEST DUP2 DUP2 PUSH1 0x2 ADD PUSH0 DUP3 DUP3 SLOAD PUSH2 0xB19 SWAP2 SWAP1 PUSH2 0xD33 JUMP JUMPDEST SWAP1 SWAP2 SSTORE POP POP PUSH0 DUP4 DUP2 MSTORE PUSH1 0x2 PUSH1 0x20 SWAP1 DUP2 MSTORE PUSH1 0x40 DUP1 DUP4 KECCAK256 CALLER DUP5 MSTORE SWAP1 SWAP2 MSTORE DUP2 KECCAK256 DUP1 SLOAD DUP5 SWAP3 SWAP1 PUSH2 0xB46 SWAP1 DUP5 SWAP1 PUSH2 0xD33 JUMP JUMPDEST SWAP1 SWAP2 SSTORE POP POP PUSH1 0x40 MLOAD PUSH4 0x23B872DD PUSH1 0xE0 SHL DUP2 MSTORE CALLER PUSH1 0x4 DUP3 ADD MSTORE ADDRESS PUSH1 0x24 DUP3 ADD MSTORE PUSH1 0x44 DUP2 ADD DUP4 SWAP1 MSTORE PUSH32 0x0 PUSH1 0x1 PUSH1 0x1 PUSH1 0xA0 SHL SUB AND SWAP1 PUSH4 0x23B872DD SWAP1 PUSH1 0x64 ADD PUSH1 0x20 PUSH1 0x40 MLOAD DUP1 DUP4 SUB DUP2 PUSH0 DUP8 GAS CALL ISZERO DUP1 ISZERO PUSH2 0xBBB JUMPI RETURNDATASIZE PUSH0 DUP1 RETURNDATACOPY RETURNDATASIZE PUSH0 REVERT JUMPDEST POP POP POP POP PUSH1 0x40 MLOAD RETURNDATASIZE PUSH1 0x1F NOT PUSH1 0x1F DUP3 ADD AND DUP3 ADD DUP1 PUSH1 0x40 MSTORE POP DUP2 ADD SWAP1 PUSH2 0xBDF SWAP2 SWAP1 PUSH2 0xCD5 JUMP JUMPDEST POP PUSH1 0x40 MLOAD DUP3 DUP2 MSTORE CALLER SWAP1 DUP5 SWAP1 PUSH32 0x6BDB975DF800A73232998E71ED585D536222F1DFEAA622D7F62A23ADA686C82 SWAP1 PUSH1 0x20 ADD PUSH2 0x3BC JUMP JUMPDEST PUSH0 PUSH1 0x20 DUP3 DUP5 SUB SLT ISZERO PUSH2 0xC24 JUMPI PUSH0 DUP1 REVERT JUMPDEST POP CALLDATALOAD SWAP2 SWAP1 POP JUMP JUMPDEST DUP1 CALLDATALOAD PUSH4 0xFFFFFFFF DUP2 AND DUP2 EQ PUSH2 0xC3E JUMPI PUSH0 DUP1 REVERT JUMPDEST SWAP2 SWAP1 POP JUMP JUMPDEST PUSH0 DUP1 PUSH0 PUSH1 0x60 DUP5 DUP7 SUB SLT ISZERO PUSH2 0xC55 JUMPI PUSH0 DUP1 REVERT JUMPDEST DUP4 CALLDATALOAD SWAP3 POP PUSH2 0xC65 PUSH1 0x20 DUP6 ADD PUSH2 0xC2B JUMP JUMPDEST SWAP2 POP PUSH2 0xC73 PUSH1 0x40 DUP6 ADD PUSH2 0xC2B JUMP JUMPDEST SWAP1 POP SWAP3 POP SWAP3 POP SWAP3 JUMP JUMPDEST PUSH0 DUP1 PUSH1 0x40 DUP4 DUP6 SUB SLT ISZERO PUSH2 0xC8D JUMPI PUSH0 DUP1 REVERT JUMPDEST POP POP DUP1 CALLDATALOAD SWAP3 PUSH1 0x20 SWAP1 SWAP2 ADD CALLDATALOAD SWAP2 POP JUMP JUMPDEST PUSH0 DUP1 PUSH1 0x40 DUP4 DUP6 SUB SLT ISZERO PUSH2 0xCAD JUMPI PUSH0 DUP1 REVERT JUMPDEST DUP3 CALLDATALOAD SWAP2 POP PUSH1 0x20 DUP4 ADD CALLDATALOAD PUSH1 0x1 PUSH1 0x1 PUSH1 0xA0 SHL SUB DUP2 AND DUP2 EQ PUSH2 0xCCA JUMPI PUSH0 DUP1 REVERT JUMPDEST DUP1 SWAP2 POP POP SWAP3 POP SWAP3 SWAP1 POP JUMP JUMPDEST PUSH0 PUSH1 0x20 DUP3 DUP5 SUB SLT ISZERO PUSH2 0xCE5 JUMPI PUSH0 DUP1 REVERT JUMPDEST DUP2 MLOAD DUP1 ISZERO ISZERO DUP2 EQ PUSH2 0xCF4 JUMPI PUSH0 DUP1 REVERT JUMPDEST SWAP4 SWAP3 POP POP POP JUMP JUMPDEST PUSH4 0x4E487B71 PUSH1 0xE0 SHL PUSH0 MSTORE PUSH1 0x11 PUSH1 0x4 MSTORE PUSH1 0x24 PUSH0 REVERT JUMPDEST PUSH4 0xFFFFFFFF DUP2 DUP2 AND DUP4 DUP3 AND ADD SWAP1 DUP1 DUP3 GT ISZERO PUSH2 0xD2C JUMPI PUSH2 0xD2C PUSH2 0xCFB JUMP JUMPDEST POP SWAP3 SWAP2 POP POP JUMP JUMPDEST DUP1 DUP3 ADD DUP1 DUP3 GT ISZERO PUSH2 0xD46 JUMPI PUSH2 0xD46 PUSH2 0xCFB JUMP JUMPDEST SWAP3 SWAP2 POP POP JUMP JUMPDEST DUP2 DUP2 SUB DUP2 DUP2 GT ISZERO PUSH2 0xD46 JUMPI PUSH2 0xD46 PUSH2 0xCFB JUMP INVALID LOG2 PUSH5 0x6970667358 0x22 SLT KECCAK256 DUP9 0x4C 0x4A INVALID 0xD3 PUSH27 0x4CAAC3A92CFCA2478683604B1E54E704D32E2F05657B73C440BA64 PUSH20 0x6F6C634300081700330000000000000000000000 "
		},
		"gasEstimates": {
			"creation": {
				"codeDepositCost": "695400",
				"executionCost": "infinite",
				"totalCost": "infinite"
			},
			"external": {
				"campaigns(uint256)": "9041",
				"cancel(uint256)": "68627",
				"claim(uint256)": "infinite",
				"count()": "2283",
				"launch(uint256,uint32,uint32)": "infinite",
				"pledge(uint256,uint256)": "infinite",
				"pledgedAmount(uint256,address)": "2617",
				"refund(uint256)": "infinite",
				"token()": "infinite",
				"unpledge(uint256,uint256)": "infinite"
			}
		},
		"methodIdentifiers": {
			"campaigns(uint256)": "141961bc",
			"cancel(uint256)": "40e58ee5",
			"claim(uint256)": "379607f5",
			"count()": "06661abd",
			"launch(uint256,uint32,uint32)": "2c63f146",
			"pledge(uint256,uint256)": "fde327be",
			"pledgedAmount(uint256,address)": "aa4fb63a",
			"refund(uint256)": "278ecde1",
			"token()": "fc0c546a",
			"unpledge(uint256,uint256)": "711853ab"
		}
	},
	"abi": [
		{
			"inputs": [
				{
					"internalType": "address",
					"name": "_token",
					"type": "address"
				}
			],
			"stateMutability": "nonpayable",
			"type": "constructor"
		},
		{
			"anonymous": false,
			"inputs": [
				{
					"indexed": false,
					"internalType": "uint256",
					"name": "id",
					"type": "uint256"
				}
			],
			"name": "Cancel",
			"type": "event"
		},
		{
			"anonymous": false,
			"inputs": [
				{
					"indexed": false,
					"internalType": "uint256",
					"name": "id",
					"type": "uint256"
				}
			],
			"name": "Claim",
			"type": "event"
		},
		{
			"anonymous": false,
			"inputs": [
				{
					"indexed": false,
					"internalType": "uint256",
					"name": "id",
					"type": "uint256"
				},
				{
					"indexed": true,
					"internalType": "address",
					"name": "creator",
					"type": "address"
				},
				{
					"indexed": false,
					"internalType": "uint256",
					"name": "goal",
					"type": "uint256"
				},
				{
					"indexed": false,
					"internalType": "uint32",
					"name": "startAt",
					"type": "uint32"
				},
				{
					"indexed": false,
					"internalType": "uint32",
					"name": "endAt",
					"type": "uint32"
				}
			],
			"name": "Launch",
			"type": "event"
		},
		{
			"anonymous": false,
			"inputs": [
				{
					"indexed": true,
					"internalType": "uint256",
					"name": "id",
					"type": "uint256"
				},
				{
					"indexed": true,
					"internalType": "address",
					"name": "caller",
					"type": "address"
				},
				{
					"indexed": false,
					"internalType": "uint256",
					"name": "amount",
					"type": "uint256"
				}
			],
			"name": "Pledge",
			"type": "event"
		},
		{
			"anonymous": false,
			"inputs": [
				{
					"indexed": true,
					"internalType": "uint256",
					"name": "id",
					"type": "uint256"
				},
				{
					"indexed": true,
					"internalType": "address",
					"name": "caller",
					"type": "address"
				},
				{
					"indexed": false,
					"internalType": "uint256",
					"name": "amount",
					"type": "uint256"
				}
			],
			"name": "Refund",
			"type": "event"
		},
		{
			"anonymous": false,
			"inputs": [
				{
					"indexed": true,
					"internalType": "uint256",
					"name": "id",
					"type": "uint256"
				},
				{
					"indexed": true,
					"internalType": "address",
					"name": "caller",
					"type": "address"
				},
				{
					"indexed": false,
					"internalType": "uint256",
					"name": "amount",
					"type": "uint256"
				}
			],
			"name": "Unpledge",
			"type": "event"
		},
		{
			"inputs": [
				{
					"internalType": "uint256",
					"name": "",
					"type": "uint256"
				}
			],
			"name": "campaigns",
			"outputs": [
				{
					"internalType": "address",
					"name": "creator",
					"type": "address"
				},
				{
					"internalType": "uint256",
					"name": "goal",
					"type": "uint256"
				},
				{
					"internalType": "uint256",
					"name": "pledged",
					"type": "uint256"
				},
				{
					"internalType": "uint32",
					"name": "startAt",
					"type": "uint32"
				},
				{
					"internalType": "uint32",
					"name": "endAt",
					"type": "uint32"
				},
				{
					"internalType": "bool",
					"name": "claimed",
					"type": "bool"
				}
			],
			"stateMutability": "view",
			"type": "function"
		},
		{
			"inputs": [
				{
					"internalType": "uint256",
					"name": "_id",
					"type": "uint256"
				}
			],
			"name": "cancel",
			"outputs": [],
			"stateMutability": "nonpayable",
			"type": "function"
		},
		{
			"inputs": [
				{
					"internalType": "uint256",
					"name": "_id",
					"type": "uint256"
				}
			],
			"name": "claim",
			"outputs": [],
			"stateMutability": "nonpayable",
			"type": "function"
		},
		{
			"inputs": [],
			"name": "count",
			"outputs": [
				{
					"internalType": "uint256",
					"name": "",
					"type": "uint256"
				}
			],
			"stateMutability": "view",
			"type": "function"
		},
		{
			"inputs": [
				{
					"internalType": "uint256",
					"name": "_goal",
					"type": "uint256"
				},
				{
					"internalType": "uint32",
					"name": "_startOffset",
					"type": "uint32"
				},
				{
					"internalType": "uint32",
					"name": "_endOffset",
					"type": "uint32"
				}
			],
			"name": "launch",
			"outputs": [],
			"stateMutability": "nonpayable",
			"type": "function"
		},
		{
			"inputs": [
				{
					"internalType": "uint256",
					"name": "_id",
					"type": "uint256"
				},
				{
					"internalType": "uint256",
					"name": "_amount",
					"type": "uint256"
				}
			],
			"name": "pledge",
			"outputs": [],
			"stateMutability": "nonpayable",
			"type": "function"
		},
		{
			"inputs": [
				{
					"internalType": "uint256",
					"name": "",
					"type": "uint256"
				},
				{
					"internalType": "address",
					"name": "",
					"type": "address"
				}
			],
			"name": "pledgedAmount",
			"outputs": [
				{
					"internalType": "uint256",
					"name": "",
					"type": "uint256"
				}
			],
			"stateMutability": "view",
			"type": "function"
		},
		{
			"inputs": [
				{
					"internalType": "uint256",
					"name": "_id",
					"type": "uint256"
				}
			],
			"name": "refund",
			"outputs": [],
			"stateMutability": "nonpayable",
			"type": "function"
		},
		{
			"inputs": [],
			"name": "token",
			"outputs": [
				{
					"internalType": "contract IERC20",
					"name": "",
					"type": "address"
				}
			],
			"stateMutability": "view",
			"type": "function"
		},
		{
			"inputs": [
				{
					"internalType": "uint256",
					"name": "_id",
					"type": "uint256"
				},
				{
					"internalType": "uint256",
					"name": "_amount",
					"type": "uint256"
				}
			],
			"name": "unpledge",
			"outputs": [],
			"stateMutability": "nonpayable",
			"type": "function"
		}
	]
}