{
	"data": {
		"bytecode": {
			"linkReferences": {},
			"object": "610160604052348015610010575f80fd5b506040516106d63803806106d683398101604081905261002f916100d0565b3360c05260e0849052610140839052426101008190526100539062093a809061012c565b6101205261006462093a8084610145565b8410156100b75760405162461bcd60e51b815260206004820152601960248201527f5f7374617274696e675072696365203c204455524154494f4e00000000000000604482015260640160405180910390fd5b6001600160a01b0390911660805260a0525061015c9050565b5f805f80608085870312156100e3575f80fd5b84516020860151604087015191955093506001600160a01b0381168114610108575f80fd5b6060959095015193969295505050565b634e487b7160e01b5f52601160045260245ffd5b8082018082111561013f5761013f610118565b92915050565b808202811582820484141761013f5761013f610118565b60805160a05160c05160e0516101005161012051610140516104fa6101dc5f395f8181610214015261026a01525f818161011c01526102c601525f81816101ae015261023d01525f81816101e1015261029801525f81816099015261038701525f818161017b01526103b501525f818160e901526103db01526104fa5ff3fe608060405260043610610084575f3560e01c8063a6f2ae3a11610057578063a6f2ae3a14610160578063c6bc51821461016a578063c74465651461019d578063d6fbf202146101d0578063e6c0e6d514610203575f80fd5b806308551a531461008857806347ccca02146100d85780638622a6891461010b57806398d5fdca1461014c575b5f80fd5b348015610093575f80fd5b506100bb7f000000000000000000000000000000000000000000000000000000000000000081565b6040516001600160a01b0390911681526020015b60405180910390f35b3480156100e3575f80fd5b506100bb7f000000000000000000000000000000000000000000000000000000000000000081565b348015610116575f80fd5b5061013e7f000000000000000000000000000000000000000000000000000000000000000081565b6040519081526020016100cf565b348015610157575f80fd5b5061013e610236565b6101686102c4565b005b348015610175575f80fd5b5061013e7f000000000000000000000000000000000000000000000000000000000000000081565b3480156101a8575f80fd5b5061013e7f000000000000000000000000000000000000000000000000000000000000000081565b3480156101db575f80fd5b5061013e7f000000000000000000000000000000000000000000000000000000000000000081565b34801561020e575f80fd5b5061013e7f000000000000000000000000000000000000000000000000000000000000000081565b5f806102627f000000000000000000000000000000000000000000000000000000000000000042610494565b90505f61028f7f0000000000000000000000000000000000000000000000000000000000000000836104ad565b90505f6102bc827f0000000000000000000000000000000000000000000000000000000000000000610494565b905050505090565b7f000000000000000000000000000000000000000000000000000000000000000042106103275760405162461bcd60e51b815260206004820152600c60248201526b151a5b5948195e1c1a5c995960a21b60448201526064015b60405180910390fd5b5f610330610236565b9050803410156103705760405162461bcd60e51b815260206004820152600b60248201526a455448203c20707269636560a81b604482015260640161031e565b6040516323b872dd60e01b81526001600160a01b037f0000000000000000000000000000000000000000000000000000000000000000811660048301523360248301527f000000000000000000000000000000000000000000000000000000000000000060448301527f000000000000000000000000000000000000000000000000000000000000000016906323b872dd906064015f604051808303815f87803b15801561041c575f80fd5b505af115801561042e573d5f803e3d5ffd5b505050505f813461043f9190610494565b9050801561047c57336108fc6104558434610494565b6040518115909202915f818181858888f1935050505015801561047a573d5f803e3d5ffd5b505b5050565b634e487b7160e01b5f52601160045260245ffd5b818103818111156104a7576104a7610480565b92915050565b80820281158282048414176104a7576104a761048056fea264697066735822122095e2ab1cb00701086d418042397f91c2ffbe141580c9982b0e3d4cc41b686b0e64736f6c63430008170033",
			"opcodes": "PUSH2 0x160 PUSH1 0x40 MSTORE CALLVALUE DUP1 ISZERO PUSH2 0x10 JUMPI PUSH0 DUP1 REVERT JUMPDEST POP PUSH1 0x40 MLOAD PUSH2 0x6D6 CODESIZE SUB DUP1 PUSH2 0x6D6 DUP4 CODECOPY DUP2 ADD PUSH1 0x40 DUP2 SWAP1 MSTORE PUSH2 0x2F SWAP2 PUSH2 0xD0 JUMP JUMPDEST CALLER PUSH1 0xC0 MSTORE PUSH1 0xE0 DUP5 SWAP1 MSTORE PUSH2 0x140 DUP4 SWAP1 MSTORE TIMESTAMP PUSH2 0x100 DUP2 SWAP1 MSTORE PUSH2 0x53 SWAP1 PUSH3 0x93A80 SWAP1 PUSH2 0x12C JUMP JUMPDEST PUSH2 0x120 MSTORE PUSH2 0x64 PUSH3 0x93A80 DUP5 PUSH2 0x145 JUMP JUMPDEST DUP5 LT ISZERO PUSH2 0xB7 JUMPI PUSH1 0x40 MLOAD PUSH3 0x461BCD PUSH1 0xE5 SHL DUP2 MSTORE PUSH1 0x20 PUSH1 0x4 DUP3 ADD MSTORE PUSH1 0x19 PUSH1 0x24 DUP3 ADD MSTORE PUSH32 0x5F7374617274696E675072696365203C204455524154494F4E00000000000000 PUSH1 0x44 DUP3 ADD MSTORE PUSH1 0x64 ADD PUSH1 0x40 MLOAD DUP1 SWAP2 SUB SWAP1 REVERT JUMPDEST PUSH1 0x1 PUSH1 0x1 PUSH1 0xA0 SHL SUB SWAP1 SWAP2 AND PUSH1 0x80 MSTORE PUSH1 0xA0 MSTORE POP PUSH2 0x15C SWAP1 POP JUMP JUMPDEST PUSH0 DUP1 PUSH0 DUP1 PUSH1 0x80 DUP6 DUP8 SUB SLT ISZERO PUSH2 0xE3 JUMPI PUSH0 DUP1 REVERT JUMPDEST DUP5 MLOAD PUSH1 0x20 DUP7 ADD MLOAD PUSH1 0x40 DUP8 ADD MLOAD SWAP2 SWAP6 POP SWAP4 POP PUSH1 0x1 PUSH1 0x1 PUSH1 0xA0 SHL SUB DUP2 AND DUP2 EQ PUSH2 0x108 JUMPI PUSH0 DUP1 REVERT JUMPDEST PUSH1 0x60 SWAP6 SWAP1 SWAP6 ADD MLOAD SWAP4 SWAP7 SWAP3 SWAP6 POP POP POP JUMP JUMPDEST PUSH4 0x4E487B71 PUSH1 0xE0 SHL PUSH0 MSTORE PUSH1 0x11 PUSH1 0x4 MSTORE PUSH1 0x24 PUSH0 REVERT JUMPDEST DUP1 DUP3 ADD DUP1 DUP3 GT ISZERO PUSH2 0x13F JUMPI PUSH2 0x13F PUSH2 0x118 JUMP JUMPDEST SWAP3 SWAP2 POP POP JUMP JUMPDEST DUP1 DUP3 MUL DUP2 ISZERO DUP3 DUP3 DIV DUP5 EQ OR PUSH2 0x13F JUMPI PUSH2 0x13F PUSH2 0x118 JUMP JUMPDEST PUSH1 0x80 MLOAD PUSH1 0xA0 MLOAD PUSH1 0xC0 MLOAD PUSH1 0xE0 MLOAD PUSH2 0x100 MLOAD PUSH2 0x120 MLOAD PUSH2 0x140 MLOAD PUSH2 0x4FA PUSH2 0x1DC PUSH0 CODECOPY PUSH0 DUP2 DUP2 PUSH2 0x214 ADD MSTORE PUSH2 0x26A ADD MSTORE PUSH0 DUP2 DUP2 PUSH2 0x11C ADD MSTORE PUSH2 0x2C6 ADD MSTORE PUSH0 DUP2 DUP2 PUSH2 0x1AE ADD MSTORE PUSH2 0x23D ADD MSTORE PUSH0 DUP2 DUP2 PUSH2 0x1E1 ADD MSTORE PUSH2 0x298 ADD MSTORE PUSH0 DUP2 DUP2 PUSH1 0x99 ADD MSTORE PUSH2 0x387 ADD MSTORE PUSH0 DUP2 DUP2 PUSH2 0x17B ADD MSTORE PUSH2 0x3B5 ADD MSTORE PUSH0 DUP2 DUP2 PUSH1 0xE9 ADD MSTORE PUSH2 0x3DB ADD MSTORE PUSH2 0x4FA PUSH0 RETURN INVALID PUSH1 0x80 PUSH1 0x40 MSTORE PUSH1 0x4 CALLDATASIZE LT PUSH2 0x84 JUMPI PUSH0 CALLDATALOAD PUSH1 0xE0 SHR DUP1 PUSH4 0xA6F2AE3A GT PUSH2 0x57 JUMPI DUP1 PUSH4 0xA6F2AE3A EQ PUSH2 0x160 JUMPI DUP1 PUSH4 0xC6BC5182 EQ PUSH2 0x16A JUMPI DUP1 PUSH4 0xC7446565 EQ PUSH2 0x19D JUMPI DUP1 PUSH4 0xD6FBF202 EQ PUSH2 0x1D0 JUMPI DUP1 PUSH4 0xE6C0E6D5 EQ PUSH2 0x203 JUMPI PUSH0 DUP1 REVERT JUMPDEST DUP1 PUSH4 0x8551A53 EQ PUSH2 0x88 JUMPI DUP1 PUSH4 0x47CCCA02 EQ PUSH2 0xD8 JUMPI DUP1 PUSH4 0x8622A689 EQ PUSH2 0x10B JUMPI DUP1 PUSH4 0x98D5FDCA EQ PUSH2 0x14C JUMPI JUMPDEST PUSH0 DUP1 REVERT JUMPDEST CALLVALUE DUP1 ISZERO PUSH2 0x93 JUMPI PUSH0 DUP1 REVERT JUMPDEST POP PUSH2 0xBB PUSH32 0x0 DUP2 JUMP JUMPDEST PUSH1 0x40 MLOAD PUSH1 0x1 PUSH1 0x1 PUSH1 0xA0 SHL SUB SWAP1 SWAP2 AND DUP2 MSTORE PUSH1 0x20 ADD JUMPDEST PUSH1 0x40 MLOAD DUP1 SWAP2 SUB SWAP1 RETURN JUMPDEST CALLVALUE DUP1 ISZERO PUSH2 0xE3 JUMPI PUSH0 DUP1 REVERT JUMPDEST POP PUSH2 0xBB PUSH32 0x0 DUP2 JUMP JUMPDEST CALLVALUE DUP1 ISZERO PUSH2 0x116 JUMPI PUSH0 DUP1 REVERT JUMPDEST POP PUSH2 0x13E PUSH32 0x0 DUP2 JUMP JUMPDEST PUSH1 0x40 MLOAD SWAP1 DUP2 MSTORE PUSH1 0x20 ADD PUSH2 0xCF JUMP JUMPDEST CALLVALUE DUP1 ISZERO PUSH2 0x157 JUMPI PUSH0 DUP1 REVERT JUMPDEST POP PUSH2 0x13E PUSH2 0x236 JUMP JUMPDEST PUSH2 0x168 PUSH2 0x2C4 JUMP JUMPDEST STOP JUMPDEST CALLVALUE DUP1 ISZERO PUSH2 0x175 JUMPI PUSH0 DUP1 REVERT JUMPDEST POP PUSH2 0x13E PUSH32 0x0 DUP2 JUMP JUMPDEST CALLVALUE DUP1 ISZERO PUSH2 0x1A8 JUMPI PUSH0 DUP1 REVERT JUMPDEST POP PUSH2 0x13E PUSH32 0x0 DUP2 JUMP JUMPDEST CALLVALUE DUP1 ISZERO PUSH2 0x1DB JUMPI PUSH0 DUP1 REVERT JUMPDEST POP PUSH2 0x13E PUSH32 0x0 DUP2 JUMP JUMPDEST CALLVALUE DUP1 ISZERO PUSH2 0x20E JUMPI PUSH0 DUP1 REVERT JUMPDEST POP PUSH2 0x13E PUSH32 0x0 DUP2 JUMP JUMPDEST PUSH0 DUP1 PUSH2 0x262 PUSH32 0x0 TIMESTAMP PUSH2 0x494 JUMP JUMPDEST SWAP1 POP PUSH0 PUSH2 0x28F PUSH32 0x0 DUP4 PUSH2 0x4AD JUMP JUMPDEST SWAP1 POP PUSH0 PUSH2 0x2BC DUP3 PUSH32 0x0 PUSH2 0x494 JUMP JUMPDEST SWAP1 POP POP POP POP SWAP1 JUMP JUMPDEST PUSH32 0x0 TIMESTAMP LT PUSH2 0x327 JUMPI PUSH1 0x40 MLOAD PUSH3 0x461BCD PUSH1 0xE5 SHL DUP2 MSTORE PUSH1 0x20 PUSH1 0x4 DUP3 ADD MSTORE PUSH1 0xC PUSH1 0x24 DUP3 ADD MSTORE PUSH12 0x151A5B5948195E1C1A5C9959 PUSH1 0xA2 SHL PUSH1 0x44 DUP3 ADD MSTORE PUSH1 0x64 ADD JUMPDEST PUSH1 0x40 MLOAD DUP1 SWAP2 SUB SWAP1 REVERT JUMPDEST PUSH0 PUSH2 0x330 PUSH2 0x236 JUMP JUMPDEST SWAP1 POP DUP1 CALLVALUE LT ISZERO PUSH2 0x370 JUMPI PUSH1 0x40 MLOAD PUSH3 0x461BCD PUSH1 0xE5 SHL DUP2 MSTORE PUSH1 0x20 PUSH1 0x4 DUP3 ADD MSTORE PUSH1 0xB PUSH1 0x24 DUP3 ADD MSTORE PUSH11 0x455448203C207072696365 PUSH1 0xA8 SHL PUSH1 0x44 DUP3 ADD MSTORE PUSH1 0x64 ADD PUSH2 0x31E JUMP JUMPDEST PUSH1 0x40 MLOAD PUSH4 0x23B872DD PUSH1 0xE0 SHL DUP2 MSTORE PUSH1 0x1 PUSH1 0x1 PUSH1 0xA0 SHL SUB PUSH32 0x0 DUP2 AND PUSH1 0x4 DUP4 ADD MSTORE CALLER PUSH1 0x24 DUP4 ADD MSTORE PUSH32 0x0 PUSH1 0x44 DUP4 ADD MSTORE PUSH32 0x0 AND SWAP1 PUSH4 0x23B872DD SWAP1 PUSH1 0x64 ADD PUSH0 PUSH1 0x40 MLOAD DUP1 DUP4 SUB DUP2 PUSH0 DUP8 DUP1 EXTCODESIZE ISZERO DUP1 ISZERO PUSH2 0x41C JUMPI PUSH0 DUP1 REVERT JUMPDEST POP GAS CALL ISZERO DUP1 ISZERO PUSH2 0x42E JUMPI RETURNDATASIZE PUSH0 DUP1 RETURNDATACOPY RETURNDATASIZE PUSH0 REVERT JUMPDEST POP POP POP POP PUSH0 DUP2 CALLVALUE PUSH2 0x43F SWAP2 SWAP1 PUSH2 0x494 JUMP JUMPDEST SWAP1 POP DUP1 ISZERO PUSH2 0x47C JUMPI CALLER PUSH2 0x8FC PUSH2 0x455 DUP5 CALLVALUE PUSH2 0x494 JUMP JUMPDEST PUSH1 0x40 MLOAD DUP2 ISZERO SWAP1 SWAP3 MUL SWAP2 PUSH0 DUP2 DUP2 DUP2 DUP6 DUP9 DUP9 CALL SWAP4 POP POP POP POP ISZERO DUP1 ISZERO PUSH2 0x47A JUMPI RETURNDATASIZE PUSH0 DUP1 RETURNDATACOPY RETURNDATASIZE PUSH0 REVERT JUMPDEST POP JUMPDEST POP POP JUMP JUMPDEST PUSH4 0x4E487B71 PUSH1 0xE0 SHL PUSH0 MSTORE PUSH1 0x11 PUSH1 0x4 MSTORE PUSH1 0x24 PUSH0 REVERT JUMPDEST DUP2 DUP2 SUB DUP2 DUP2 GT ISZERO PUSH2 0x4A7 JUMPI PUSH2 0x4A7 PUSH2 0x480 JUMP JUMPDEST SWAP3 SWAP2 POP POP JUMP JUMPDEST DUP1 DUP3 MUL DUP2 ISZERO DUP3 DUP3 DIV DUP5 EQ OR PUSH2 0x4A7 JUMPI PUSH2 0x4A7 PUSH2 0x480 JUMP INVALID LOG2 PUSH5 0x6970667358 0x22 SLT KECCAK256 SWAP6 0xE2 0xAB SHR 0xB0 SMOD ADD ADDMOD PUSH14 0x418042397F91C2FFBE141580C998 0x2B 0xE RETURNDATASIZE 0x4C 0xC4 SHL PUSH9 0x6B0E64736F6C634300 ADDMOD OR STOP CALLER "
		},
		"gasEstimates": {
			"creation": {
				"codeDepositCost": "254800",
				"executionCost": "infinite",
				"totalCost": "infinite"
			},
			"external": {
				"buy()": "infinite",
				"discountRate()": "infinite",
				"expiresAt()": "infinite",
				"getPrice()": "infinite",
				"nft()": "infinite",
				"nftId()": "infinite",
				"seller()": "infinite",
				"startAt()": "infinite",
				"startingPrice()": "infinite"
			}
		},
		"methodIdentifiers": {
			"buy()": "a6f2ae3a",
			"discountRate()": "e6c0e6d5",
			"expiresAt()": "8622a689",
			"getPrice()": "98d5fdca",
			"nft()": "47ccca02",
			"nftId()": "c6bc5182",
			"seller()": "08551a53",
			"startAt()": "c7446565",
			"startingPrice()": "d6fbf202"
		}
	},
	"abi": [
		{
			"inputs": [
				{
					"internalType": "uint256",
					"name": "_startingPrice",
					"type": "uint256"
				},
				{
					"internalType": "uint256",
					"name": "_discountRate",
					"type": "uint256"
				},
				{
					"internalType": "address",
					"name": "_nft",
					"type": "address"
				},
				{
					"internalType": "uint256",
					"name": "_nftId",
					"type": "uint256"
				}
			],
			"stateMutability": "nonpayable",
			"type": "constructor"
		},
		{
			"inputs": [],
			"name": "buy",
			"outputs": [],
			"stateMutability": "payable",
			"type": "function"
		},
		{
			"inputs": [],
			"name": "discountRate",
			"outputs": [
				{
					"internalType": "uint256",
					"name": "",
					"type": "uint256"
				}
			],
			"stateMutability": "view",
			"type": "function"
		},
		{
			"inputs": [],
			"name": "expiresAt",
			"outputs": [
				{
					"internalType": "uint256",
					"name": "",
					"type": "uint256"
				}
			],
			"stateMutability": "view",
			"type": "function"
		},
		{
			"inputs": [],
			"name": "getPrice",
			"outputs": [
				{
					"internalType": "uint256",
					"name": "price",
					"type": "uint256"
				}
			],
			"stateMutability": "view",
			"type": "function"
		},
		{
			"inputs": [],
			"name": "nft",
			"outputs": [
				{
					"internalType": "contract IERC721",
					"name": "",
					"type": "address"
				}
			],
			"stateMutability": "view",
			"type": "function"
		},
		{
			"inputs": [],
			"name": "nftId",
			"outputs": [
				{
					"internalType": "uint256",
					"name": "",
					"type": "uint256"
				}
			],
			"stateMutability": "view",
			"type": "function"
		},
		{
			"inputs": [],
			"name": "seller",
			"outputs": [
				{
					"internalType": "address",
					"name": "",
					"type": "address"
				}
			],
			"stateMutability": "view",
			"type": "function"
		},
		{
			"inputs": [],
			"name": "startAt",
			"outputs": [
				{
					"internalType": "uint256",
					"name": "",
					"type": "uint256"
				}
			],
			"stateMutability": "view",
			"type": "function"
		},
		{
			"inputs": [],
			"name": "startingPrice",
			"outputs": [
				{
					"internalType": "uint256",
					"name": "",
					"type": "uint256"
				}
			],
			"stateMutability": "view",
			"type": "function"
		}
	]
}