{
	"data": {
		"bytecode": {
			"linkReferences": {},
			"object": "6080604052348015600e575f5ffd5b506101708061001c5f395ff3fe608060405234801561000f575f5ffd5b5060043610610034575f3560e01c80636d75280014610038578063f74b834b14610042575b5f5ffd5b610040610055565b005b61004061005036600461010d565b6100c8565b60408051338152607b60208201527f8309e8a8b132619bdb25dffa9d595ba1ecb7835540fd62622dad33018c4a0d3e910160405180910390a16040516201e4dc815233907f919a4e0615aef45fd56105241973bd25f287f1040399e7c9f97fa2ca1c2b51749060200160405180910390a2565b60405161271981526001600160a01b0382169033907fc5b98f4ed8cd598950469d4f93fa31bcb46c1eaa6a47e8fe86b0cc84f074c3ad9060200160405180910390a350565b5f6020828403121561011d575f5ffd5b81356001600160a01b0381168114610133575f5ffd5b939250505056fea26469706673582212200b0584bb83f1a7333c63e44e66a1aa5688ce71cc719f80152da16970be38405364736f6c63430008210033",
			"opcodes": "PUSH1 0x80 PUSH1 0x40 MSTORE CALLVALUE DUP1 ISZERO PUSH1 0xE JUMPI PUSH0 PUSH0 REVERT JUMPDEST POP PUSH2 0x170 DUP1 PUSH2 0x1C PUSH0 CODECOPY PUSH0 RETURN INVALID PUSH1 0x80 PUSH1 0x40 MSTORE CALLVALUE DUP1 ISZERO PUSH2 0xF JUMPI PUSH0 PUSH0 REVERT JUMPDEST POP PUSH1 0x4 CALLDATASIZE LT PUSH2 0x34 JUMPI PUSH0 CALLDATALOAD PUSH1 0xE0 SHR DUP1 PUSH4 0x6D752800 EQ PUSH2 0x38 JUMPI DUP1 PUSH4 0xF74B834B EQ PUSH2 0x42 JUMPI JUMPDEST PUSH0 PUSH0 REVERT JUMPDEST PUSH2 0x40 PUSH2 0x55 JUMP JUMPDEST STOP JUMPDEST PUSH2 0x40 PUSH2 0x50 CALLDATASIZE PUSH1 0x4 PUSH2 0x10D JUMP JUMPDEST PUSH2 0xC8 JUMP JUMPDEST PUSH1 0x40 DUP1 MLOAD CALLER DUP2 MSTORE PUSH1 0x7B PUSH1 0x20 DUP3 ADD MSTORE PUSH32 0x8309E8A8B132619BDB25DFFA9D595BA1ECB7835540FD62622DAD33018C4A0D3E SWAP2 ADD PUSH1 0x40 MLOAD DUP1 SWAP2 SUB SWAP1 LOG1 PUSH1 0x40 MLOAD PUSH3 0x1E4DC DUP2 MSTORE CALLER SWAP1 PUSH32 0x919A4E0615AEF45FD56105241973BD25F287F1040399E7C9F97FA2CA1C2B5174 SWAP1 PUSH1 0x20 ADD PUSH1 0x40 MLOAD DUP1 SWAP2 SUB SWAP1 LOG2 JUMP JUMPDEST PUSH1 0x40 MLOAD PUSH2 0x2719 DUP2 MSTORE PUSH1 0x1 PUSH1 0x1 PUSH1 0xA0 SHL SUB DUP3 AND SWAP1 CALLER SWAP1 PUSH32 0xC5B98F4ED8CD598950469D4F93FA31BCB46C1EAA6A47E8FE86B0CC84F074C3AD SWAP1 PUSH1 0x20 ADD PUSH1 0x40 MLOAD DUP1 SWAP2 SUB SWAP1 LOG3 POP JUMP JUMPDEST PUSH0 PUSH1 0x20 DUP3 DUP5 SUB SLT ISZERO PUSH2 0x11D JUMPI PUSH0 PUSH0 REVERT JUMPDEST DUP2 CALLDATALOAD PUSH1 0x1 PUSH1 0x1 PUSH1 0xA0 SHL SUB DUP2 AND DUP2 EQ PUSH2 0x133 JUMPI PUSH0 PUSH0 REVERT JUMPDEST SWAP4 SWAP3 POP POP POP JUMP INVALID LOG2 PUSH5 0x6970667358 0x22 SLT KECCAK256 SIGNEXTEND SDIV DUP5 0xBB DUP4 CALL 0xA7 CALLER EXTCODECOPY PUSH4 0xE44E66A1 0xAA JUMP DUP9 0xCE PUSH18 0xCC719F80152DA16970BE38405364736F6C63 NUMBER STOP ADDMOD 0x21 STOP CALLER "
		},
		"gasEstimates": {
			"creation": {
				"codeDepositCost": "73600",
				"executionCost": "121",
				"totalCost": "73721"
			},
			"external": {
				"senderMessage(address)": "2103",
				"setLog()": "2882"
			}
		},
		"methodIdentifiers": {
			"senderMessage(address)": "f74b834b",
			"setLog()": "6d752800"
		}
	},
	"abi": [
		{
			"anonymous": false,
			"inputs": [
				{
					"indexed": true,
					"internalType": "address",
					"name": "addr",
					"type": "address"
				},
				{
					"indexed": false,
					"internalType": "uint256",
					"name": "i",
					"type": "uint256"
				}
			],
			"name": "IndexedLog",
			"type": "event"
		},
		{
			"anonymous": false,
			"inputs": [
				{
					"indexed": true,
					"internalType": "address",
					"name": "from",
					"type": "address"
				},
				{
					"indexed": true,
					"internalType": "address",
					"name": "to",
					"type": "address"
				},
				{
					"indexed": false,
					"internalType": "uint256",
					"name": "i",
					"type": "uint256"
				}
			],
			"name": "Message",
			"type": "event"
		},
		{
			"anonymous": false,
			"inputs": [
				{
					"indexed": false,
					"internalType": "address",
					"name": "addr",
					"type": "address"
				},
				{
					"indexed": false,
					"internalType": "uint256",
					"name": "i",
					"type": "uint256"
				}
			],
			"name": "log",
			"type": "event"
		},
		{
			"inputs": [
				{
					"internalType": "address",
					"name": "to",
					"type": "address"
				}
			],
			"name": "senderMessage",
			"outputs": [],
			"stateMutability": "nonpayable",
			"type": "function"
		},
		{
			"inputs": [],
			"name": "setLog",
			"outputs": [],
			"stateMutability": "nonpayable",
			"type": "function"
		}
	]
}