{
	"data": {
		"bytecode": {
			"linkReferences": {},
			"object": "6080604052348015600e575f5ffd5b5061015c8061001c5f395ff3fe608060405234801561000f575f5ffd5b5060043610610033575f3560e01c8062ad800c14610037578063188b85b41461005c575b5f5ffd5b61004a6100453660046100ca565b61006f565b60405190815260200160405180910390f35b61004a61006a3660046100ca565b6100a0565b5f8060015b8381116100995761008581836100f5565b9150806100918161010e565b915050610074565b5092915050565b5f8060015b838111610099576100b681836100f5565b9150806100c28161010e565b9150506100a5565b5f602082840312156100da575f5ffd5b5035919050565b634e487b7160e01b5f52601160045260245ffd5b80820180821115610108576101086100e1565b92915050565b5f6001820161011f5761011f6100e1565b506001019056fea264697066735822122098ffaa42ed9184954745306da310ade5132dad6b006d0ce27b9b8a114b0a828164736f6c63430008210033",
			"opcodes": "PUSH1 0x80 PUSH1 0x40 MSTORE CALLVALUE DUP1 ISZERO PUSH1 0xE JUMPI PUSH0 PUSH0 REVERT JUMPDEST POP PUSH2 0x15C DUP1 PUSH2 0x1C PUSH0 CODECOPY PUSH0 RETURN INVALID PUSH1 0x80 PUSH1 0x40 MSTORE CALLVALUE DUP1 ISZERO PUSH2 0xF JUMPI PUSH0 PUSH0 REVERT JUMPDEST POP PUSH1 0x4 CALLDATASIZE LT PUSH2 0x33 JUMPI PUSH0 CALLDATALOAD PUSH1 0xE0 SHR DUP1 PUSH3 0xAD800C EQ PUSH2 0x37 JUMPI DUP1 PUSH4 0x188B85B4 EQ PUSH2 0x5C JUMPI JUMPDEST PUSH0 PUSH0 REVERT JUMPDEST PUSH2 0x4A PUSH2 0x45 CALLDATASIZE PUSH1 0x4 PUSH2 0xCA JUMP JUMPDEST PUSH2 0x6F JUMP JUMPDEST PUSH1 0x40 MLOAD SWAP1 DUP2 MSTORE PUSH1 0x20 ADD PUSH1 0x40 MLOAD DUP1 SWAP2 SUB SWAP1 RETURN JUMPDEST PUSH2 0x4A PUSH2 0x6A CALLDATASIZE PUSH1 0x4 PUSH2 0xCA JUMP JUMPDEST PUSH2 0xA0 JUMP JUMPDEST PUSH0 DUP1 PUSH1 0x1 JUMPDEST DUP4 DUP2 GT PUSH2 0x99 JUMPI PUSH2 0x85 DUP2 DUP4 PUSH2 0xF5 JUMP JUMPDEST SWAP2 POP DUP1 PUSH2 0x91 DUP2 PUSH2 0x10E JUMP JUMPDEST SWAP2 POP POP PUSH2 0x74 JUMP JUMPDEST POP SWAP3 SWAP2 POP POP JUMP JUMPDEST PUSH0 DUP1 PUSH1 0x1 JUMPDEST DUP4 DUP2 GT PUSH2 0x99 JUMPI PUSH2 0xB6 DUP2 DUP4 PUSH2 0xF5 JUMP JUMPDEST SWAP2 POP DUP1 PUSH2 0xC2 DUP2 PUSH2 0x10E JUMP JUMPDEST SWAP2 POP POP PUSH2 0xA5 JUMP JUMPDEST PUSH0 PUSH1 0x20 DUP3 DUP5 SUB SLT ISZERO PUSH2 0xDA JUMPI PUSH0 PUSH0 REVERT JUMPDEST POP CALLDATALOAD SWAP2 SWAP1 POP JUMP JUMPDEST PUSH4 0x4E487B71 PUSH1 0xE0 SHL PUSH0 MSTORE PUSH1 0x11 PUSH1 0x4 MSTORE PUSH1 0x24 PUSH0 REVERT JUMPDEST DUP1 DUP3 ADD DUP1 DUP3 GT ISZERO PUSH2 0x108 JUMPI PUSH2 0x108 PUSH2 0xE1 JUMP JUMPDEST SWAP3 SWAP2 POP POP JUMP JUMPDEST PUSH0 PUSH1 0x1 DUP3 ADD PUSH2 0x11F JUMPI PUSH2 0x11F PUSH2 0xE1 JUMP JUMPDEST POP PUSH1 0x1 ADD SWAP1 JUMP INVALID LOG2 PUSH5 0x6970667358 0x22 SLT KECCAK256 SWAP9 SELFDESTRUCT 0xAA TIMESTAMP 0xED SWAP2 DUP5 SWAP6 SELFBALANCE GASLIMIT ADDRESS PUSH14 0xA310ADE5132DAD6B006D0CE27B9B DUP11 GT 0x4B EXP DUP3 DUP2 PUSH5 0x736F6C6343 STOP ADDMOD 0x21 STOP CALLER "
		},
		"gasEstimates": {
			"creation": {
				"codeDepositCost": "69600",
				"executionCost": "115",
				"totalCost": "69715"
			},
			"external": {
				"name(uint256)": "infinite",
				"sum(uint256)": "infinite"
			}
		},
		"methodIdentifiers": {
			"name(uint256)": "00ad800c",
			"sum(uint256)": "188b85b4"
		}
	},
	"abi": [
		{
			"inputs": [
				{
					"internalType": "uint256",
					"name": "n",
					"type": "uint256"
				}
			],
			"name": "name",
			"outputs": [
				{
					"internalType": "uint256",
					"name": "",
					"type": "uint256"
				}
			],
			"stateMutability": "pure",
			"type": "function"
		},
		{
			"inputs": [
				{
					"internalType": "uint256",
					"name": "n",
					"type": "uint256"
				}
			],
			"name": "sum",
			"outputs": [
				{
					"internalType": "uint256",
					"name": "",
					"type": "uint256"
				}
			],
			"stateMutability": "pure",
			"type": "function"
		}
	]
}