{
	"data": {
		"bytecode": {
			"linkReferences": {},
			"object": "6080604052348015600e575f5ffd5b506102068061001c5f395ff3fe608060405234801561000f575f5ffd5b5060043610610034575f3560e01c80638bf709cf14610038578063a606122714610061575b5f5ffd5b61004b610046366004610184565b610074565b604051610058919061019b565b60405180910390f35b61004b61006f366004610184565b6100f8565b6060600a8210156100a35750506040805180820190915260088152670e5b08fe4ba8e31360c41b602082015290565b601482116100d457505060408051808201909152600d81526c0e4bb8be4ba8e3130e588b0323609c1b602082015290565b50506040805180820190915260088152670e5a4a7e4ba8e32360c41b602082015290565b6060600a821061015c57601482111561013157604051806040016040528060088152602001670e5a4a7e4ba8e32360c41b81525061017e565b6040518060400160405280600d81526020016c0e4bb8be4ba8e3130e588b0323609c1b81525061017e565b604051806040016040528060088152602001670e5b08fe4ba8e31360c41b8152505b92915050565b5f60208284031215610194575f5ffd5b5035919050565b602081525f82518060208401528060208501604085015e5f604082850101526040601f19601f8301168401019150509291505056fea264697066735822122031f33ed8c5021b023fdfb1d9bec866f58d683e3e11b1c4e163b1cb872144e3ad64736f6c634300081f0033",
			"opcodes": "PUSH1 0x80 PUSH1 0x40 MSTORE CALLVALUE DUP1 ISZERO PUSH1 0xE JUMPI PUSH0 PUSH0 REVERT JUMPDEST POP PUSH2 0x206 DUP1 PUSH2 0x1C PUSH0 CODECOPY PUSH0 RETURN INVALID PUSH1 0x80 PUSH1 0x40 MSTORE CALLVALUE DUP1 ISZERO PUSH2 0xF JUMPI PUSH0 PUSH0 REVERT JUMPDEST POP PUSH1 0x4 CALLDATASIZE LT PUSH2 0x34 JUMPI PUSH0 CALLDATALOAD PUSH1 0xE0 SHR DUP1 PUSH4 0x8BF709CF EQ PUSH2 0x38 JUMPI DUP1 PUSH4 0xA6061227 EQ PUSH2 0x61 JUMPI JUMPDEST PUSH0 PUSH0 REVERT JUMPDEST PUSH2 0x4B PUSH2 0x46 CALLDATASIZE PUSH1 0x4 PUSH2 0x184 JUMP JUMPDEST PUSH2 0x74 JUMP JUMPDEST PUSH1 0x40 MLOAD PUSH2 0x58 SWAP2 SWAP1 PUSH2 0x19B JUMP JUMPDEST PUSH1 0x40 MLOAD DUP1 SWAP2 SUB SWAP1 RETURN JUMPDEST PUSH2 0x4B PUSH2 0x6F CALLDATASIZE PUSH1 0x4 PUSH2 0x184 JUMP JUMPDEST PUSH2 0xF8 JUMP JUMPDEST PUSH1 0x60 PUSH1 0xA DUP3 LT ISZERO PUSH2 0xA3 JUMPI POP POP PUSH1 0x40 DUP1 MLOAD DUP1 DUP3 ADD SWAP1 SWAP2 MSTORE PUSH1 0x8 DUP2 MSTORE PUSH8 0xE5B08FE4BA8E313 PUSH1 0xC4 SHL PUSH1 0x20 DUP3 ADD MSTORE SWAP1 JUMP JUMPDEST PUSH1 0x14 DUP3 GT PUSH2 0xD4 JUMPI POP POP PUSH1 0x40 DUP1 MLOAD DUP1 DUP3 ADD SWAP1 SWAP2 MSTORE PUSH1 0xD DUP2 MSTORE PUSH13 0xE4BB8BE4BA8E3130E588B0323 PUSH1 0x9C SHL PUSH1 0x20 DUP3 ADD MSTORE SWAP1 JUMP JUMPDEST POP POP PUSH1 0x40 DUP1 MLOAD DUP1 DUP3 ADD SWAP1 SWAP2 MSTORE PUSH1 0x8 DUP2 MSTORE PUSH8 0xE5A4A7E4BA8E323 PUSH1 0xC4 SHL PUSH1 0x20 DUP3 ADD MSTORE SWAP1 JUMP JUMPDEST PUSH1 0x60 PUSH1 0xA DUP3 LT PUSH2 0x15C JUMPI PUSH1 0x14 DUP3 GT ISZERO PUSH2 0x131 JUMPI PUSH1 0x40 MLOAD DUP1 PUSH1 0x40 ADD PUSH1 0x40 MSTORE DUP1 PUSH1 0x8 DUP2 MSTORE PUSH1 0x20 ADD PUSH8 0xE5A4A7E4BA8E323 PUSH1 0xC4 SHL DUP2 MSTORE POP PUSH2 0x17E JUMP JUMPDEST PUSH1 0x40 MLOAD DUP1 PUSH1 0x40 ADD PUSH1 0x40 MSTORE DUP1 PUSH1 0xD DUP2 MSTORE PUSH1 0x20 ADD PUSH13 0xE4BB8BE4BA8E3130E588B0323 PUSH1 0x9C SHL DUP2 MSTORE POP PUSH2 0x17E JUMP JUMPDEST PUSH1 0x40 MLOAD DUP1 PUSH1 0x40 ADD PUSH1 0x40 MSTORE DUP1 PUSH1 0x8 DUP2 MSTORE PUSH1 0x20 ADD PUSH8 0xE5B08FE4BA8E313 PUSH1 0xC4 SHL DUP2 MSTORE POP JUMPDEST SWAP3 SWAP2 POP POP JUMP JUMPDEST PUSH0 PUSH1 0x20 DUP3 DUP5 SUB SLT ISZERO PUSH2 0x194 JUMPI PUSH0 PUSH0 REVERT JUMPDEST POP CALLDATALOAD SWAP2 SWAP1 POP JUMP JUMPDEST PUSH1 0x20 DUP2 MSTORE PUSH0 DUP3 MLOAD DUP1 PUSH1 0x20 DUP5 ADD MSTORE DUP1 PUSH1 0x20 DUP6 ADD PUSH1 0x40 DUP6 ADD MCOPY PUSH0 PUSH1 0x40 DUP3 DUP6 ADD ADD MSTORE PUSH1 0x40 PUSH1 0x1F NOT PUSH1 0x1F DUP4 ADD AND DUP5 ADD ADD SWAP2 POP POP SWAP3 SWAP2 POP POP JUMP INVALID LOG2 PUSH5 0x6970667358 0x22 SLT KECCAK256 BALANCE RETURN RETURNDATACOPY 0xD8 0xC5 MUL SHL MUL EXTCODEHASH 0xDF 0xB1 0xD9 0xBE 0xC8 PUSH7 0xF58D683E3E11B1 0xC4 RJUMPI 0x63B1 0xCB DUP8 0x21 PREVRANDAO CALLF 0xAD64 PUSH20 0x6F6C634300081F00330000000000000000000000 "
		},
		"gasEstimates": {
			"creation": {
				"codeDepositCost": "103600",
				"executionCost": "151",
				"totalCost": "103751"
			},
			"external": {
				"processNumber(uint256)": "infinite",
				"processNumber2(uint256)": "infinite"
			}
		},
		"methodIdentifiers": {
			"processNumber(uint256)": "8bf709cf",
			"processNumber2(uint256)": "a6061227"
		}
	},
	"abi": [
		{
			"inputs": [
				{
					"internalType": "uint256",
					"name": "_x",
					"type": "uint256"
				}
			],
			"name": "processNumber",
			"outputs": [
				{
					"internalType": "string",
					"name": "",
					"type": "string"
				}
			],
			"stateMutability": "pure",
			"type": "function"
		},
		{
			"inputs": [
				{
					"internalType": "uint256",
					"name": "_x",
					"type": "uint256"
				}
			],
			"name": "processNumber2",
			"outputs": [
				{
					"internalType": "string",
					"name": "",
					"type": "string"
				}
			],
			"stateMutability": "pure",
			"type": "function"
		}
	]
}