{
	"data": {
		"bytecode": {
			"linkReferences": {},
			"object": "6080604052348015600e575f5ffd5b5061035c8061001c5f395ff3fe608060405234801561000f575f5ffd5b5060043610610055575f3560e01c80633825d828146100595780633df4ddf41461006e57806347799da8146100885780639507d39a14610090578063de8fa431146100a3575b5f5ffd5b61006c6100673660046102a1565b6100ab565b005b61007661013c565b60405190815260200160405180910390f35b6100766101ba565b61007661009e3660046102d6565b610219565b600254610076565b6001600160a01b0382165f90815260208181526040808320849055600190915290205460ff16610138576001600160a01b0382165f8181526001602081905260408220805460ff1916821790556002805491820181559091527f405787fa12a823e0f2b7631cc41b3ba8828b3321ca811111fa75cd3aa3bb5ace0180546001600160a01b03191690911790555b5050565b6002545f9061017c5760405162461bcd60e51b81526020600482015260076024820152664e6f206b65797360c81b60448201526064015b60405180910390fd5b5f5f60025f81548110610191576101916102ed565b5f9182526020808320909101546001600160a01b03168352820192909252604001902054919050565b6002545f906101f55760405162461bcd60e51b81526020600482015260076024820152664e6f206b65797360c81b6044820152606401610173565b600280545f91829161020990600190610301565b81548110610191576101916102ed565b6002545f9082106102625760405162461bcd60e51b8152602060048201526013602482015272496e646578206f7574206f6620626f756e647360681b6044820152606401610173565b5f5f60028481548110610277576102776102ed565b5f9182526020808320909101546001600160a01b0316835282019290925260400190205492915050565b5f5f604083850312156102b2575f5ffd5b82356001600160a01b03811681146102c8575f5ffd5b946020939093013593505050565b5f602082840312156102e6575f5ffd5b5035919050565b634e487b7160e01b5f52603260045260245ffd5b8181038181111561032057634e487b7160e01b5f52601160045260245ffd5b9291505056fea26469706673582212207714b25b3e9c45bd7433e5d3d9ddd403bc5d8c1c0d3c2abddb8a296375f3a5e664736f6c63430008210033",
			"opcodes": "PUSH1 0x80 PUSH1 0x40 MSTORE CALLVALUE DUP1 ISZERO PUSH1 0xE JUMPI PUSH0 PUSH0 REVERT JUMPDEST POP PUSH2 0x35C DUP1 PUSH2 0x1C PUSH0 CODECOPY PUSH0 RETURN INVALID PUSH1 0x80 PUSH1 0x40 MSTORE CALLVALUE DUP1 ISZERO PUSH2 0xF JUMPI PUSH0 PUSH0 REVERT JUMPDEST POP PUSH1 0x4 CALLDATASIZE LT PUSH2 0x55 JUMPI PUSH0 CALLDATALOAD PUSH1 0xE0 SHR DUP1 PUSH4 0x3825D828 EQ PUSH2 0x59 JUMPI DUP1 PUSH4 0x3DF4DDF4 EQ PUSH2 0x6E JUMPI DUP1 PUSH4 0x47799DA8 EQ PUSH2 0x88 JUMPI DUP1 PUSH4 0x9507D39A EQ PUSH2 0x90 JUMPI DUP1 PUSH4 0xDE8FA431 EQ PUSH2 0xA3 JUMPI JUMPDEST PUSH0 PUSH0 REVERT JUMPDEST PUSH2 0x6C PUSH2 0x67 CALLDATASIZE PUSH1 0x4 PUSH2 0x2A1 JUMP JUMPDEST PUSH2 0xAB JUMP JUMPDEST STOP JUMPDEST PUSH2 0x76 PUSH2 0x13C JUMP JUMPDEST PUSH1 0x40 MLOAD SWAP1 DUP2 MSTORE PUSH1 0x20 ADD PUSH1 0x40 MLOAD DUP1 SWAP2 SUB SWAP1 RETURN JUMPDEST PUSH2 0x76 PUSH2 0x1BA JUMP JUMPDEST PUSH2 0x76 PUSH2 0x9E CALLDATASIZE PUSH1 0x4 PUSH2 0x2D6 JUMP JUMPDEST PUSH2 0x219 JUMP JUMPDEST PUSH1 0x2 SLOAD PUSH2 0x76 JUMP JUMPDEST PUSH1 0x1 PUSH1 0x1 PUSH1 0xA0 SHL SUB DUP3 AND PUSH0 SWAP1 DUP2 MSTORE PUSH1 0x20 DUP2 DUP2 MSTORE PUSH1 0x40 DUP1 DUP4 KECCAK256 DUP5 SWAP1 SSTORE PUSH1 0x1 SWAP1 SWAP2 MSTORE SWAP1 KECCAK256 SLOAD PUSH1 0xFF AND PUSH2 0x138 JUMPI PUSH1 0x1 PUSH1 0x1 PUSH1 0xA0 SHL SUB DUP3 AND PUSH0 DUP2 DUP2 MSTORE PUSH1 0x1 PUSH1 0x20 DUP2 SWAP1 MSTORE PUSH1 0x40 DUP3 KECCAK256 DUP1 SLOAD PUSH1 0xFF NOT AND DUP3 OR SWAP1 SSTORE PUSH1 0x2 DUP1 SLOAD SWAP2 DUP3 ADD DUP2 SSTORE SWAP1 SWAP2 MSTORE PUSH32 0x405787FA12A823E0F2B7631CC41B3BA8828B3321CA811111FA75CD3AA3BB5ACE ADD DUP1 SLOAD PUSH1 0x1 PUSH1 0x1 PUSH1 0xA0 SHL SUB NOT AND SWAP1 SWAP2 OR SWAP1 SSTORE JUMPDEST POP POP JUMP JUMPDEST PUSH1 0x2 SLOAD PUSH0 SWAP1 PUSH2 0x17C JUMPI PUSH1 0x40 MLOAD PUSH3 0x461BCD PUSH1 0xE5 SHL DUP2 MSTORE PUSH1 0x20 PUSH1 0x4 DUP3 ADD MSTORE PUSH1 0x7 PUSH1 0x24 DUP3 ADD MSTORE PUSH7 0x4E6F206B657973 PUSH1 0xC8 SHL PUSH1 0x44 DUP3 ADD MSTORE PUSH1 0x64 ADD JUMPDEST PUSH1 0x40 MLOAD DUP1 SWAP2 SUB SWAP1 REVERT JUMPDEST PUSH0 PUSH0 PUSH1 0x2 PUSH0 DUP2 SLOAD DUP2 LT PUSH2 0x191 JUMPI PUSH2 0x191 PUSH2 0x2ED JUMP JUMPDEST PUSH0 SWAP2 DUP3 MSTORE PUSH1 0x20 DUP1 DUP4 KECCAK256 SWAP1 SWAP2 ADD SLOAD PUSH1 0x1 PUSH1 0x1 PUSH1 0xA0 SHL SUB AND DUP4 MSTORE DUP3 ADD SWAP3 SWAP1 SWAP3 MSTORE PUSH1 0x40 ADD SWAP1 KECCAK256 SLOAD SWAP2 SWAP1 POP JUMP JUMPDEST PUSH1 0x2 SLOAD PUSH0 SWAP1 PUSH2 0x1F5 JUMPI PUSH1 0x40 MLOAD PUSH3 0x461BCD PUSH1 0xE5 SHL DUP2 MSTORE PUSH1 0x20 PUSH1 0x4 DUP3 ADD MSTORE PUSH1 0x7 PUSH1 0x24 DUP3 ADD MSTORE PUSH7 0x4E6F206B657973 PUSH1 0xC8 SHL PUSH1 0x44 DUP3 ADD MSTORE PUSH1 0x64 ADD PUSH2 0x173 JUMP JUMPDEST PUSH1 0x2 DUP1 SLOAD PUSH0 SWAP2 DUP3 SWAP2 PUSH2 0x209 SWAP1 PUSH1 0x1 SWAP1 PUSH2 0x301 JUMP JUMPDEST DUP2 SLOAD DUP2 LT PUSH2 0x191 JUMPI PUSH2 0x191 PUSH2 0x2ED JUMP JUMPDEST PUSH1 0x2 SLOAD PUSH0 SWAP1 DUP3 LT PUSH2 0x262 JUMPI PUSH1 0x40 MLOAD PUSH3 0x461BCD PUSH1 0xE5 SHL DUP2 MSTORE PUSH1 0x20 PUSH1 0x4 DUP3 ADD MSTORE PUSH1 0x13 PUSH1 0x24 DUP3 ADD MSTORE PUSH19 0x496E646578206F7574206F6620626F756E6473 PUSH1 0x68 SHL PUSH1 0x44 DUP3 ADD MSTORE PUSH1 0x64 ADD PUSH2 0x173 JUMP JUMPDEST PUSH0 PUSH0 PUSH1 0x2 DUP5 DUP2 SLOAD DUP2 LT PUSH2 0x277 JUMPI PUSH2 0x277 PUSH2 0x2ED JUMP JUMPDEST PUSH0 SWAP2 DUP3 MSTORE PUSH1 0x20 DUP1 DUP4 KECCAK256 SWAP1 SWAP2 ADD SLOAD PUSH1 0x1 PUSH1 0x1 PUSH1 0xA0 SHL SUB AND DUP4 MSTORE DUP3 ADD SWAP3 SWAP1 SWAP3 MSTORE PUSH1 0x40 ADD SWAP1 KECCAK256 SLOAD SWAP3 SWAP2 POP POP JUMP JUMPDEST PUSH0 PUSH0 PUSH1 0x40 DUP4 DUP6 SUB SLT ISZERO PUSH2 0x2B2 JUMPI PUSH0 PUSH0 REVERT JUMPDEST DUP3 CALLDATALOAD PUSH1 0x1 PUSH1 0x1 PUSH1 0xA0 SHL SUB DUP2 AND DUP2 EQ PUSH2 0x2C8 JUMPI PUSH0 PUSH0 REVERT JUMPDEST SWAP5 PUSH1 0x20 SWAP4 SWAP1 SWAP4 ADD CALLDATALOAD SWAP4 POP POP POP JUMP JUMPDEST PUSH0 PUSH1 0x20 DUP3 DUP5 SUB SLT ISZERO PUSH2 0x2E6 JUMPI PUSH0 PUSH0 REVERT JUMPDEST POP CALLDATALOAD SWAP2 SWAP1 POP JUMP JUMPDEST PUSH4 0x4E487B71 PUSH1 0xE0 SHL PUSH0 MSTORE PUSH1 0x32 PUSH1 0x4 MSTORE PUSH1 0x24 PUSH0 REVERT JUMPDEST DUP2 DUP2 SUB DUP2 DUP2 GT ISZERO PUSH2 0x320 JUMPI PUSH4 0x4E487B71 PUSH1 0xE0 SHL PUSH0 MSTORE PUSH1 0x11 PUSH1 0x4 MSTORE PUSH1 0x24 PUSH0 REVERT JUMPDEST SWAP3 SWAP2 POP POP JUMP INVALID LOG2 PUSH5 0x6970667358 0x22 SLT KECCAK256 PUSH24 0x14B25B3E9C45BD7433E5D3D9DDD403BC5D8C1C0D3C2ABDDB DUP11 0x29 PUSH4 0x75F3A5E6 PUSH5 0x736F6C6343 STOP ADDMOD 0x21 STOP CALLER "
		},
		"gasEstimates": {
			"creation": {
				"codeDepositCost": "172000",
				"executionCost": "212",
				"totalCost": "172212"
			},
			"external": {
				"first()": "8808",
				"get(uint256)": "8937",
				"getSize()": "2345",
				"last()": "11016",
				"set(address,uint256)": "97430"
			}
		},
		"methodIdentifiers": {
			"first()": "3df4ddf4",
			"get(uint256)": "9507d39a",
			"getSize()": "de8fa431",
			"last()": "47799da8",
			"set(address,uint256)": "3825d828"
		}
	},
	"abi": [
		{
			"inputs": [],
			"name": "first",
			"outputs": [
				{
					"internalType": "uint256",
					"name": "",
					"type": "uint256"
				}
			],
			"stateMutability": "view",
			"type": "function"
		},
		{
			"inputs": [
				{
					"internalType": "uint256",
					"name": "index",
					"type": "uint256"
				}
			],
			"name": "get",
			"outputs": [
				{
					"internalType": "uint256",
					"name": "",
					"type": "uint256"
				}
			],
			"stateMutability": "view",
			"type": "function"
		},
		{
			"inputs": [],
			"name": "getSize",
			"outputs": [
				{
					"internalType": "uint256",
					"name": "",
					"type": "uint256"
				}
			],
			"stateMutability": "view",
			"type": "function"
		},
		{
			"inputs": [],
			"name": "last",
			"outputs": [
				{
					"internalType": "uint256",
					"name": "",
					"type": "uint256"
				}
			],
			"stateMutability": "view",
			"type": "function"
		},
		{
			"inputs": [
				{
					"internalType": "address",
					"name": "key",
					"type": "address"
				},
				{
					"internalType": "uint256",
					"name": "b",
					"type": "uint256"
				}
			],
			"name": "set",
			"outputs": [],
			"stateMutability": "nonpayable",
			"type": "function"
		}
	]
}