{
	"data": {
		"bytecode": {
			"linkReferences": {},
			"object": "608060405234801561001057600080fd5b50610166806100206000396000f3fe608060405234801561001057600080fd5b506004361061004c5760003560e01c806326b85ee1146100515780634df7e3d014610086578063c2985578146100a3578063e5aa3d58146100ad575b600080fd5b6001546100699061010090046001600160a01b031681565b6040516001600160a01b0390911681526020015b60405180910390f35b6001546100939060ff1681565b604051901515815260200161007d565b6100ab6100c4565b005b6100b660005481565b60405190815260200161007d565b607b60006100d46101c88361010a565b9150600190506101596000808282546100ed919061010a565b9091555050600180546001600160a81b0319166101011790555050565b6000821982111561012b57634e487b7160e01b600052601160045260246000fd5b50019056fea264697066735822122099c95b234fc412125015e34d96e864d8170194be0b2d54fd36bb8e37d76574d764736f6c63430008070033",
			"opcodes": "PUSH1 0x80 PUSH1 0x40 MSTORE CALLVALUE DUP1 ISZERO PUSH2 0x10 JUMPI PUSH1 0x0 DUP1 REVERT JUMPDEST POP PUSH2 0x166 DUP1 PUSH2 0x20 PUSH1 0x0 CODECOPY PUSH1 0x0 RETURN INVALID PUSH1 0x80 PUSH1 0x40 MSTORE CALLVALUE DUP1 ISZERO PUSH2 0x10 JUMPI PUSH1 0x0 DUP1 REVERT JUMPDEST POP PUSH1 0x4 CALLDATASIZE LT PUSH2 0x4C JUMPI PUSH1 0x0 CALLDATALOAD PUSH1 0xE0 SHR DUP1 PUSH4 0x26B85EE1 EQ PUSH2 0x51 JUMPI DUP1 PUSH4 0x4DF7E3D0 EQ PUSH2 0x86 JUMPI DUP1 PUSH4 0xC2985578 EQ PUSH2 0xA3 JUMPI DUP1 PUSH4 0xE5AA3D58 EQ PUSH2 0xAD JUMPI JUMPDEST PUSH1 0x0 DUP1 REVERT JUMPDEST PUSH1 0x1 SLOAD PUSH2 0x69 SWAP1 PUSH2 0x100 SWAP1 DIV PUSH1 0x1 PUSH1 0x1 PUSH1 0xA0 SHL SUB AND DUP2 JUMP JUMPDEST PUSH1 0x40 MLOAD PUSH1 0x1 PUSH1 0x1 PUSH1 0xA0 SHL SUB SWAP1 SWAP2 AND DUP2 MSTORE PUSH1 0x20 ADD JUMPDEST PUSH1 0x40 MLOAD DUP1 SWAP2 SUB SWAP1 RETURN JUMPDEST PUSH1 0x1 SLOAD PUSH2 0x93 SWAP1 PUSH1 0xFF AND DUP2 JUMP JUMPDEST PUSH1 0x40 MLOAD SWAP1 ISZERO ISZERO DUP2 MSTORE PUSH1 0x20 ADD PUSH2 0x7D JUMP JUMPDEST PUSH2 0xAB PUSH2 0xC4 JUMP JUMPDEST STOP JUMPDEST PUSH2 0xB6 PUSH1 0x0 SLOAD DUP2 JUMP JUMPDEST PUSH1 0x40 MLOAD SWAP1 DUP2 MSTORE PUSH1 0x20 ADD PUSH2 0x7D JUMP JUMPDEST PUSH1 0x7B PUSH1 0x0 PUSH2 0xD4 PUSH2 0x1C8 DUP4 PUSH2 0x10A JUMP JUMPDEST SWAP2 POP PUSH1 0x1 SWAP1 POP PUSH2 0x159 PUSH1 0x0 DUP1 DUP3 DUP3 SLOAD PUSH2 0xED SWAP2 SWAP1 PUSH2 0x10A JUMP JUMPDEST SWAP1 SWAP2 SSTORE POP POP PUSH1 0x1 DUP1 SLOAD PUSH1 0x1 PUSH1 0x1 PUSH1 0xA8 SHL SUB NOT AND PUSH2 0x101 OR SWAP1 SSTORE POP POP JUMP JUMPDEST PUSH1 0x0 DUP3 NOT DUP3 GT ISZERO PUSH2 0x12B JUMPI PUSH4 0x4E487B71 PUSH1 0xE0 SHL PUSH1 0x0 MSTORE PUSH1 0x11 PUSH1 0x4 MSTORE PUSH1 0x24 PUSH1 0x0 REVERT JUMPDEST POP ADD SWAP1 JUMP INVALID LOG2 PUSH5 0x6970667358 0x22 SLT KECCAK256 SWAP10 0xC9 JUMPDEST 0x23 0x4F 0xC4 SLT SLT POP ISZERO 0xE3 0x4D SWAP7 0xE8 PUSH5 0xD8170194BE SIGNEXTEND 0x2D SLOAD REVERT CALLDATASIZE 0xBB DUP15 CALLDATACOPY 0xD7 PUSH6 0x74D764736F6C PUSH4 0x43000807 STOP CALLER "
		},
		"gasEstimates": {
			"creation": {
				"codeDepositCost": "71600",
				"executionCost": "123",
				"totalCost": "71723"
			},
			"external": {
				"b()": "2310",
				"foo()": "infinite",
				"i()": "2339",
				"myAddress()": "2315"
			}
		},
		"methodIdentifiers": {
			"b()": "4df7e3d0",
			"foo()": "c2985578",
			"i()": "e5aa3d58",
			"myAddress()": "26b85ee1"
		}
	},
	"abi": [
		{
			"inputs": [],
			"name": "b",
			"outputs": [
				{
					"internalType": "bool",
					"name": "",
					"type": "bool"
				}
			],
			"stateMutability": "view",
			"type": "function"
		},
		{
			"inputs": [],
			"name": "foo",
			"outputs": [],
			"stateMutability": "nonpayable",
			"type": "function"
		},
		{
			"inputs": [],
			"name": "i",
			"outputs": [
				{
					"internalType": "uint256",
					"name": "",
					"type": "uint256"
				}
			],
			"stateMutability": "view",
			"type": "function"
		},
		{
			"inputs": [],
			"name": "myAddress",
			"outputs": [
				{
					"internalType": "address",
					"name": "",
					"type": "address"
				}
			],
			"stateMutability": "view",
			"type": "function"
		}
	]
}