{
	"data": {
		"bytecode": {
			"linkReferences": {},
			"object": "6080604052348015600e575f5ffd5b506101eb8061001c5f395ff3fe608060405234801561000f575f5ffd5b5060043610610034575f3560e01c806306fdde0314610038578063b721ef6e14610042575b5f5ffd5b610040610073565b005b61006161005036600461014f565b5f6020819052908152604090205481565b60405190815260200160405180910390f35b335f908152602081905260408120607b8082556101c89290610096908490610190565b9091555050335f90815260208190526040902054610243146100ba576100ba61017c565b335f9081526020819052604090205461024381146100da576100da61017c565b5f8080526020527fad3228b676f7d3cd4284a5443f17f1962b36e491b30a40b2405849e597ba5fb55480156101115761011161017c565b5050335f908152602081815260408083208390556001808352818420909252808320805460ff19908116841790915530845292208054909216179055565b5f6020828403121561015f575f5ffd5b81356001600160a01b0381168114610175575f5ffd5b9392505050565b634e487b7160e01b5f52600160045260245ffd5b808201808211156101af57634e487b7160e01b5f52601160045260245ffd5b9291505056fea2646970667358221220396619e481138efe982003de7b04975f0982a177895bdd33779b0d86ce7027cc64736f6c63430008210033",
			"opcodes": "PUSH1 0x80 PUSH1 0x40 MSTORE CALLVALUE DUP1 ISZERO PUSH1 0xE JUMPI PUSH0 PUSH0 REVERT JUMPDEST POP PUSH2 0x1EB DUP1 PUSH2 0x1C PUSH0 CODECOPY PUSH0 RETURN INVALID PUSH1 0x80 PUSH1 0x40 MSTORE CALLVALUE DUP1 ISZERO PUSH2 0xF JUMPI PUSH0 PUSH0 REVERT JUMPDEST POP PUSH1 0x4 CALLDATASIZE LT PUSH2 0x34 JUMPI PUSH0 CALLDATALOAD PUSH1 0xE0 SHR DUP1 PUSH4 0x6FDDE03 EQ PUSH2 0x38 JUMPI DUP1 PUSH4 0xB721EF6E EQ PUSH2 0x42 JUMPI JUMPDEST PUSH0 PUSH0 REVERT JUMPDEST PUSH2 0x40 PUSH2 0x73 JUMP JUMPDEST STOP JUMPDEST PUSH2 0x61 PUSH2 0x50 CALLDATASIZE PUSH1 0x4 PUSH2 0x14F JUMP JUMPDEST PUSH0 PUSH1 0x20 DUP2 SWAP1 MSTORE SWAP1 DUP2 MSTORE PUSH1 0x40 SWAP1 KECCAK256 SLOAD DUP2 JUMP JUMPDEST PUSH1 0x40 MLOAD SWAP1 DUP2 MSTORE PUSH1 0x20 ADD PUSH1 0x40 MLOAD DUP1 SWAP2 SUB SWAP1 RETURN JUMPDEST CALLER PUSH0 SWAP1 DUP2 MSTORE PUSH1 0x20 DUP2 SWAP1 MSTORE PUSH1 0x40 DUP2 KECCAK256 PUSH1 0x7B DUP1 DUP3 SSTORE PUSH2 0x1C8 SWAP3 SWAP1 PUSH2 0x96 SWAP1 DUP5 SWAP1 PUSH2 0x190 JUMP JUMPDEST SWAP1 SWAP2 SSTORE POP POP CALLER PUSH0 SWAP1 DUP2 MSTORE PUSH1 0x20 DUP2 SWAP1 MSTORE PUSH1 0x40 SWAP1 KECCAK256 SLOAD PUSH2 0x243 EQ PUSH2 0xBA JUMPI PUSH2 0xBA PUSH2 0x17C JUMP JUMPDEST CALLER PUSH0 SWAP1 DUP2 MSTORE PUSH1 0x20 DUP2 SWAP1 MSTORE PUSH1 0x40 SWAP1 KECCAK256 SLOAD PUSH2 0x243 DUP2 EQ PUSH2 0xDA JUMPI PUSH2 0xDA PUSH2 0x17C JUMP JUMPDEST PUSH0 DUP1 DUP1 MSTORE PUSH1 0x20 MSTORE PUSH32 0xAD3228B676F7D3CD4284A5443F17F1962B36E491B30A40B2405849E597BA5FB5 SLOAD DUP1 ISZERO PUSH2 0x111 JUMPI PUSH2 0x111 PUSH2 0x17C JUMP JUMPDEST POP POP CALLER PUSH0 SWAP1 DUP2 MSTORE PUSH1 0x20 DUP2 DUP2 MSTORE PUSH1 0x40 DUP1 DUP4 KECCAK256 DUP4 SWAP1 SSTORE PUSH1 0x1 DUP1 DUP4 MSTORE DUP2 DUP5 KECCAK256 SWAP1 SWAP3 MSTORE DUP1 DUP4 KECCAK256 DUP1 SLOAD PUSH1 0xFF NOT SWAP1 DUP2 AND DUP5 OR SWAP1 SWAP2 SSTORE ADDRESS DUP5 MSTORE SWAP3 KECCAK256 DUP1 SLOAD SWAP1 SWAP3 AND OR SWAP1 SSTORE JUMP JUMPDEST PUSH0 PUSH1 0x20 DUP3 DUP5 SUB SLT ISZERO PUSH2 0x15F JUMPI PUSH0 PUSH0 REVERT JUMPDEST DUP2 CALLDATALOAD PUSH1 0x1 PUSH1 0x1 PUSH1 0xA0 SHL SUB DUP2 AND DUP2 EQ PUSH2 0x175 JUMPI PUSH0 PUSH0 REVERT JUMPDEST SWAP4 SWAP3 POP POP POP JUMP JUMPDEST PUSH4 0x4E487B71 PUSH1 0xE0 SHL PUSH0 MSTORE PUSH1 0x1 PUSH1 0x4 MSTORE PUSH1 0x24 PUSH0 REVERT JUMPDEST DUP1 DUP3 ADD DUP1 DUP3 GT ISZERO PUSH2 0x1AF JUMPI PUSH4 0x4E487B71 PUSH1 0xE0 SHL PUSH0 MSTORE PUSH1 0x11 PUSH1 0x4 MSTORE PUSH1 0x24 PUSH0 REVERT JUMPDEST SWAP3 SWAP2 POP POP JUMP INVALID LOG2 PUSH5 0x6970667358 0x22 SLT KECCAK256 CODECOPY PUSH7 0x19E481138EFE98 KECCAK256 SUB 0xDE PUSH28 0x4975F0982A177895BDD33779B0D86CE7027CC64736F6C6343000821 STOP CALLER "
		},
		"gasEstimates": {
			"creation": {
				"codeDepositCost": "98200",
				"executionCost": "145",
				"totalCost": "98345"
			},
			"external": {
				"map(address)": "2472",
				"name()": "87633"
			}
		},
		"methodIdentifiers": {
			"map(address)": "b721ef6e",
			"name()": "06fdde03"
		}
	},
	"abi": [
		{
			"inputs": [
				{
					"internalType": "address",
					"name": "",
					"type": "address"
				}
			],
			"name": "map",
			"outputs": [
				{
					"internalType": "uint256",
					"name": "",
					"type": "uint256"
				}
			],
			"stateMutability": "view",
			"type": "function"
		},
		{
			"inputs": [],
			"name": "name",
			"outputs": [],
			"stateMutability": "nonpayable",
			"type": "function"
		}
	]
}