{
	"data": {
		"bytecode": {
			"linkReferences": {},
			"object": "60806040525f80546001600160a01b031990811630179091556001805490911633179055348015602d575f5ffd5b5060a98060395f395ff3fe6080604052348015600e575f5ffd5b50600436106030575f3560e01c806333b34ed5146034578063ef305d55146062575b5f5ffd5b6001546046906001600160a01b031681565b6040516001600160a01b03909116815260200160405180910390f35b5f546046906001600160a01b03168156fea26469706673582212205e11f19b4cf584c60913865d265562300c48b83c1978f74860024765897c7fb464736f6c634300081f0033",
			"opcodes": "PUSH1 0x80 PUSH1 0x40 MSTORE PUSH0 DUP1 SLOAD PUSH1 0x1 PUSH1 0x1 PUSH1 0xA0 SHL SUB NOT SWAP1 DUP2 AND ADDRESS OR SWAP1 SWAP2 SSTORE PUSH1 0x1 DUP1 SLOAD SWAP1 SWAP2 AND CALLER OR SWAP1 SSTORE CALLVALUE DUP1 ISZERO PUSH1 0x2D JUMPI PUSH0 PUSH0 REVERT JUMPDEST POP PUSH1 0xA9 DUP1 PUSH1 0x39 PUSH0 CODECOPY PUSH0 RETURN INVALID PUSH1 0x80 PUSH1 0x40 MSTORE CALLVALUE DUP1 ISZERO PUSH1 0xE JUMPI PUSH0 PUSH0 REVERT JUMPDEST POP PUSH1 0x4 CALLDATASIZE LT PUSH1 0x30 JUMPI PUSH0 CALLDATALOAD PUSH1 0xE0 SHR DUP1 PUSH4 0x33B34ED5 EQ PUSH1 0x34 JUMPI DUP1 PUSH4 0xEF305D55 EQ PUSH1 0x62 JUMPI JUMPDEST PUSH0 PUSH0 REVERT JUMPDEST PUSH1 0x1 SLOAD PUSH1 0x46 SWAP1 PUSH1 0x1 PUSH1 0x1 PUSH1 0xA0 SHL SUB AND DUP2 JUMP JUMPDEST PUSH1 0x40 MLOAD PUSH1 0x1 PUSH1 0x1 PUSH1 0xA0 SHL SUB SWAP1 SWAP2 AND DUP2 MSTORE PUSH1 0x20 ADD PUSH1 0x40 MLOAD DUP1 SWAP2 SUB SWAP1 RETURN JUMPDEST PUSH0 SLOAD PUSH1 0x46 SWAP1 PUSH1 0x1 PUSH1 0x1 PUSH1 0xA0 SHL SUB AND DUP2 JUMP INVALID LOG2 PUSH5 0x6970667358 0x22 SLT KECCAK256 MCOPY GT CALL SWAP12 0x4C CREATE2 DUP5 0xC6 MULMOD SGT DUP7 TSTORE 0x26 SSTORE PUSH3 0x300C48 0xB8 EXTCODECOPY NOT PUSH25 0xF74860024765897C7FB464736F6C634300081F003300000000 "
		},
		"gasEstimates": {
			"creation": {
				"codeDepositCost": "33800",
				"executionCost": "48551",
				"totalCost": "82351"
			},
			"external": {
				"adds1()": "2323",
				"adds2()": "2302"
			}
		},
		"methodIdentifiers": {
			"adds1()": "ef305d55",
			"adds2()": "33b34ed5"
		}
	},
	"abi": [
		{
			"inputs": [],
			"name": "adds1",
			"outputs": [
				{
					"internalType": "address",
					"name": "",
					"type": "address"
				}
			],
			"stateMutability": "view",
			"type": "function"
		},
		{
			"inputs": [],
			"name": "adds2",
			"outputs": [
				{
					"internalType": "address",
					"name": "",
					"type": "address"
				}
			],
			"stateMutability": "view",
			"type": "function"
		}
	]
}