{
	"data": {
		"bytecode": {
			"linkReferences": {},
			"object": "6080604052607b5f553480156012575f5ffd5b5060c780601e5f395ff3fe6080604052348015600e575f5ffd5b50600436106044575f3560e01c80631d7aea131460485780633d3fee0c1460685780634e70b1dc14606e578063733a132e146075575b5f5ffd5b60566053366004607b565b90565b60405190815260200160405180910390f35b5f546056565b60565f5481565b60016056565b5f60208284031215608a575f5ffd5b503591905056fea2646970667358221220626a47f6c5a713e9d8e94ae1a10e844299b7b1f2f91562845253d14f5daa1f1164736f6c634300081f0033",
			"opcodes": "PUSH1 0x80 PUSH1 0x40 MSTORE PUSH1 0x7B PUSH0 SSTORE CALLVALUE DUP1 ISZERO PUSH1 0x12 JUMPI PUSH0 PUSH0 REVERT JUMPDEST POP PUSH1 0xC7 DUP1 PUSH1 0x1E PUSH0 CODECOPY PUSH0 RETURN INVALID PUSH1 0x80 PUSH1 0x40 MSTORE CALLVALUE DUP1 ISZERO PUSH1 0xE JUMPI PUSH0 PUSH0 REVERT JUMPDEST POP PUSH1 0x4 CALLDATASIZE LT PUSH1 0x44 JUMPI PUSH0 CALLDATALOAD PUSH1 0xE0 SHR DUP1 PUSH4 0x1D7AEA13 EQ PUSH1 0x48 JUMPI DUP1 PUSH4 0x3D3FEE0C EQ PUSH1 0x68 JUMPI DUP1 PUSH4 0x4E70B1DC EQ PUSH1 0x6E JUMPI DUP1 PUSH4 0x733A132E EQ PUSH1 0x75 JUMPI JUMPDEST PUSH0 PUSH0 REVERT JUMPDEST PUSH1 0x56 PUSH1 0x53 CALLDATASIZE PUSH1 0x4 PUSH1 0x7B JUMP JUMPDEST SWAP1 JUMP JUMPDEST PUSH1 0x40 MLOAD SWAP1 DUP2 MSTORE PUSH1 0x20 ADD PUSH1 0x40 MLOAD DUP1 SWAP2 SUB SWAP1 RETURN JUMPDEST PUSH0 SLOAD PUSH1 0x56 JUMP JUMPDEST PUSH1 0x56 PUSH0 SLOAD DUP2 JUMP JUMPDEST PUSH1 0x1 PUSH1 0x56 JUMP JUMPDEST PUSH0 PUSH1 0x20 DUP3 DUP5 SUB SLT ISZERO PUSH1 0x8A JUMPI PUSH0 PUSH0 REVERT JUMPDEST POP CALLDATALOAD SWAP2 SWAP1 POP JUMP INVALID LOG2 PUSH5 0x6970667358 0x22 SLT KECCAK256 PUSH3 0x6A47F6 0xC5 0xA7 SGT 0xE9 0xD8 0xE9 BLOBBASEFEE RJUMPI 0xA10E DUP5 TIMESTAMP SWAP10 0xB7 0xB1 CALLCODE EXTDELEGATECALL ISZERO PUSH3 0x845253 DATALOADN 0x4F5D 0xAA 0x1F GT PUSH5 0x736F6C6343 STOP ADDMOD 0x1F STOP CALLER "
		},
		"gasEstimates": {
			"creation": {
				"codeDepositCost": "39800",
				"executionCost": "22196",
				"totalCost": "61996"
			},
			"external": {
				"num()": "2303",
				"pureFun()": "223",
				"pureFun2(uint256)": "233",
				"viewFun()": "2278"
			}
		},
		"methodIdentifiers": {
			"num()": "4e70b1dc",
			"pureFun()": "733a132e",
			"pureFun2(uint256)": "1d7aea13",
			"viewFun()": "3d3fee0c"
		}
	},
	"abi": [
		{
			"inputs": [],
			"name": "num",
			"outputs": [
				{
					"internalType": "uint256",
					"name": "",
					"type": "uint256"
				}
			],
			"stateMutability": "view",
			"type": "function"
		},
		{
			"inputs": [],
			"name": "pureFun",
			"outputs": [
				{
					"internalType": "uint256",
					"name": "",
					"type": "uint256"
				}
			],
			"stateMutability": "pure",
			"type": "function"
		},
		{
			"inputs": [
				{
					"internalType": "uint256",
					"name": "x",
					"type": "uint256"
				}
			],
			"name": "pureFun2",
			"outputs": [
				{
					"internalType": "uint256",
					"name": "",
					"type": "uint256"
				}
			],
			"stateMutability": "pure",
			"type": "function"
		},
		{
			"inputs": [],
			"name": "viewFun",
			"outputs": [
				{
					"internalType": "uint256",
					"name": "",
					"type": "uint256"
				}
			],
			"stateMutability": "view",
			"type": "function"
		}
	]
}